{
	"timelock/Timelock.sol": {
		"Runner": {
			"abi": [
				{
					"inputs": [
						{
							"internalType": "address",
							"name": "_lock",
							"type": "address"
						}
					],
					"stateMutability": "nonpayable",
					"type": "constructor"
				},
				{
					"stateMutability": "payable",
					"type": "fallback"
				},
				{
					"inputs": [],
					"name": "lock",
					"outputs": [
						{
							"internalType": "address",
							"name": "",
							"type": "address"
						}
					],
					"stateMutability": "view",
					"type": "function"
				},
				{
					"inputs": [],
					"name": "message",
					"outputs": [
						{
							"internalType": "string",
							"name": "",
							"type": "string"
						}
					],
					"stateMutability": "view",
					"type": "function"
				},
				{
					"inputs": [],
					"name": "newTimestamp",
					"outputs": [
						{
							"internalType": "uint256",
							"name": "",
							"type": "uint256"
						}
					],
					"stateMutability": "view",
					"type": "function"
				},
				{
					"inputs": [
						{
							"internalType": "address",
							"name": "",
							"type": "address"
						}
					],
					"name": "payments",
					"outputs": [
						{
							"internalType": "uint256",
							"name": "",
							"type": "uint256"
						}
					],
					"stateMutability": "view",
					"type": "function"
				},
				{
					"inputs": [
						{
							"internalType": "string",
							"name": "_msg",
							"type": "string"
						}
					],
					"name": "prepareData",
					"outputs": [
						{
							"internalType": "bytes",
							"name": "",
							"type": "bytes"
						}
					],
					"stateMutability": "pure",
					"type": "function"
				},
				{
					"inputs": [
						{
							"internalType": "string",
							"name": "newMsg",
							"type": "string"
						}
					],
					"name": "run",
					"outputs": [],
					"stateMutability": "payable",
					"type": "function"
				}
			],
			"devdoc": {
				"kind": "dev",
				"methods": {},
				"version": 1
			},
			"evm": {
				"assembly": "    /* \"timelock/Timelock.sol\":5009:6373  contract Runner {... */\n  mstore(0x40, 0x80)\n    /* \"timelock/Timelock.sol\":5221:5277  constructor(address _lock) {... */\n  callvalue\n  dup1\n  iszero\n  tag_1\n  jumpi\n  0x00\n  dup1\n  revert\ntag_1:\n  pop\n  mload(0x40)\n  sub(codesize, bytecodeSize)\n  dup1\n  bytecodeSize\n  dup4\n  codecopy\n  dup2\n  dup2\n  add\n  0x40\n  mstore\n  dup2\n  add\n  swap1\n  tag_2\n  swap2\n  swap1\n  tag_3\n  jump\t// in\ntag_2:\n    /* \"timelock/Timelock.sol\":5265:5270  _lock */\n  dup1\n    /* \"timelock/Timelock.sol\":5258:5262  lock */\n  0x00\n  dup1\n    /* \"timelock/Timelock.sol\":5258:5270  lock = _lock */\n  0x0100\n  exp\n  dup2\n  sload\n  dup2\n  0xffffffffffffffffffffffffffffffffffffffff\n  mul\n  not\n  and\n  swap1\n  dup4\n  0xffffffffffffffffffffffffffffffffffffffff\n  and\n  mul\n  or\n  swap1\n  sstore\n  pop\n    /* \"timelock/Timelock.sol\":5221:5277  constructor(address _lock) {... */\n  pop\n    /* \"timelock/Timelock.sol\":5009:6373  contract Runner {... */\n  jump(tag_6)\n    /* \"#utility.yul\":88:205   */\ntag_8:\n    /* \"#utility.yul\":197:198   */\n  0x00\n    /* \"#utility.yul\":194:195   */\n  dup1\n    /* \"#utility.yul\":187:199   */\n  revert\n    /* \"#utility.yul\":334:460   */\ntag_10:\n    /* \"#utility.yul\":371:378   */\n  0x00\n    /* \"#utility.yul\":411:453   */\n  0xffffffffffffffffffffffffffffffffffffffff\n    /* \"#utility.yul\":404:409   */\n  dup3\n    /* \"#utility.yul\":400:454   */\n  and\n    /* \"#utility.yul\":389:454   */\n  swap1\n  pop\n    /* \"#utility.yul\":334:460   */\n  swap2\n  swap1\n  pop\n  jump\t// out\n    /* \"#utility.yul\":466:562   */\ntag_11:\n    /* \"#utility.yul\":503:510   */\n  0x00\n    /* \"#utility.yul\":532:556   */\n  tag_20\n    /* \"#utility.yul\":550:555   */\n  dup3\n    /* \"#utility.yul\":532:556   */\n  tag_10\n  jump\t// in\ntag_20:\n    /* \"#utility.yul\":521:556   */\n  swap1\n  pop\n    /* \"#utility.yul\":466:562   */\n  swap2\n  swap1\n  pop\n  jump\t// out\n    /* \"#utility.yul\":568:690   */\ntag_12:\n    /* \"#utility.yul\":641:665   */\n  tag_22\n    /* \"#utility.yul\":659:664   */\n  dup2\n    /* \"#utility.yul\":641:665   */\n  tag_11\n  jump\t// in\ntag_22:\n    /* \"#utility.yul\":634:639   */\n  dup2\n    /* \"#utility.yul\":631:666   */\n  eq\n    /* \"#utility.yul\":621:684   */\n  tag_23\n  jumpi\n    /* \"#utility.yul\":680:681   */\n  0x00\n    /* \"#utility.yul\":677:678   */\n  dup1\n    /* \"#utility.yul\":670:682   */\n  revert\n    /* \"#utility.yul\":621:684   */\ntag_23:\n    /* \"#utility.yul\":568:690   */\n  pop\n  jump\t// out\n    /* \"#utility.yul\":696:839   */\ntag_13:\n    /* \"#utility.yul\":753:758   */\n  0x00\n    /* \"#utility.yul\":784:790   */\n  dup2\n    /* \"#utility.yul\":778:791   */\n  mload\n    /* \"#utility.yul\":769:791   */\n  swap1\n  pop\n    /* \"#utility.yul\":800:833   */\n  tag_25\n    /* \"#utility.yul\":827:832   */\n  dup2\n    /* \"#utility.yul\":800:833   */\n  tag_12\n  jump\t// in\ntag_25:\n    /* \"#utility.yul\":696:839   */\n  swap3\n  swap2\n  pop\n  pop\n  jump\t// out\n    /* \"#utility.yul\":845:1196   */\ntag_3:\n    /* \"#utility.yul\":915:921   */\n  0x00\n    /* \"#utility.yul\":964:966   */\n  0x20\n    /* \"#utility.yul\":952:961   */\n  dup3\n    /* \"#utility.yul\":943:950   */\n  dup5\n    /* \"#utility.yul\":939:962   */\n  sub\n    /* \"#utility.yul\":935:967   */\n  slt\n    /* \"#utility.yul\":932:1051   */\n  iszero\n  tag_27\n  jumpi\n    /* \"#utility.yul\":970:1049   */\n  tag_28\n  tag_8\n  jump\t// in\ntag_28:\n    /* \"#utility.yul\":932:1051   */\ntag_27:\n    /* \"#utility.yul\":1090:1091   */\n  0x00\n    /* \"#utility.yul\":1115:1179   */\n  tag_29\n    /* \"#utility.yul\":1171:1178   */\n  dup5\n    /* \"#utility.yul\":1162:1168   */\n  dup3\n    /* \"#utility.yul\":1151:1160   */\n  dup6\n    /* \"#utility.yul\":1147:1169   */\n  add\n    /* \"#utility.yul\":1115:1179   */\n  tag_13\n  jump\t// in\ntag_29:\n    /* \"#utility.yul\":1105:1179   */\n  swap2\n  pop\n    /* \"#utility.yul\":1061:1189   */\n  pop\n    /* \"#utility.yul\":845:1196   */\n  swap3\n  swap2\n  pop\n  pop\n  jump\t// out\n    /* \"timelock/Timelock.sol\":5009:6373  contract Runner {... */\ntag_6:\n  dataSize(sub_0)\n  dup1\n  dataOffset(sub_0)\n  0x00\n  codecopy\n  0x00\n  return\nstop\n\nsub_0: assembly {\n        /* \"timelock/Timelock.sol\":5009:6373  contract Runner {... */\n      mstore(0x40, 0x80)\n      jumpi(tag_1, lt(calldatasize, 0x04))\n      shr(0xe0, calldataload(0x00))\n      dup1\n      0x6ba94afa\n      eq\n      tag_3\n      jumpi\n      dup1\n      0x9352fad2\n      eq\n      tag_4\n      jumpi\n      dup1\n      0x9e0b54ee\n      eq\n      tag_5\n      jumpi\n      dup1\n      0xe21f37ce\n      eq\n      tag_6\n      jumpi\n      dup1\n      0xe2982c21\n      eq\n      tag_7\n      jumpi\n      dup1\n      0xf83d08ba\n      eq\n      tag_8\n      jumpi\n      jump(tag_2)\n    tag_1:\n    tag_2:\n        /* \"timelock/Timelock.sol\":5831:5864  revert(\"using function required\") */\n      mload(0x40)\n      0x08c379a000000000000000000000000000000000000000000000000000000000\n      dup2\n      mstore\n      0x04\n      add\n      tag_11\n      swap1\n      tag_12\n      jump\t// in\n    tag_11:\n      mload(0x40)\n      dup1\n      swap2\n      sub\n      swap1\n      revert\n        /* \"timelock/Timelock.sol\":6252:6371  function prepareData(string calldata _msg) external pure returns(bytes memory) {... */\n    tag_3:\n      callvalue\n      dup1\n      iszero\n      tag_13\n      jumpi\n      0x00\n      dup1\n      revert\n    tag_13:\n      pop\n      tag_14\n      0x04\n      dup1\n      calldatasize\n      sub\n      dup2\n      add\n      swap1\n      tag_15\n      swap2\n      swap1\n      tag_16\n      jump\t// in\n    tag_15:\n      tag_17\n      jump\t// in\n    tag_14:\n      mload(0x40)\n      tag_18\n      swap2\n      swap1\n      tag_19\n      jump\t// in\n    tag_18:\n      mload(0x40)\n      dup1\n      swap2\n      sub\n      swap1\n      return\n        /* \"timelock/Timelock.sol\":5488:5673  function run(string memory newMsg) external payable {... */\n    tag_4:\n      tag_20\n      0x04\n      dup1\n      calldatasize\n      sub\n      dup2\n      add\n      swap1\n      tag_21\n      swap2\n      swap1\n      tag_22\n      jump\t// in\n    tag_21:\n      tag_23\n      jump\t// in\n    tag_20:\n      stop\n        /* \"timelock/Timelock.sol\":6013:6109  function newTimestamp() external view returns(uint) {... */\n    tag_5:\n      callvalue\n      dup1\n      iszero\n      tag_24\n      jumpi\n      0x00\n      dup1\n      revert\n    tag_24:\n      pop\n      tag_25\n      tag_26\n      jump\t// in\n    tag_25:\n      mload(0x40)\n      tag_27\n      swap2\n      swap1\n      tag_28\n      jump\t// in\n    tag_27:\n      mload(0x40)\n      dup1\n      swap2\n      sub\n      swap1\n      return\n        /* \"timelock/Timelock.sol\":5056:5077  string public message */\n    tag_6:\n      callvalue\n      dup1\n      iszero\n      tag_29\n      jumpi\n      0x00\n      dup1\n      revert\n    tag_29:\n      pop\n      tag_30\n      tag_31\n      jump\t// in\n    tag_30:\n      mload(0x40)\n      tag_32\n      swap2\n      swap1\n      tag_33\n      jump\t// in\n    tag_32:\n      mload(0x40)\n      dup1\n      swap2\n      sub\n      swap1\n      return\n        /* \"timelock/Timelock.sol\":5083:5123  mapping(address => uint) public payments */\n    tag_7:\n      callvalue\n      dup1\n      iszero\n      tag_34\n      jumpi\n      0x00\n      dup1\n      revert\n    tag_34:\n      pop\n      tag_35\n      0x04\n      dup1\n      calldatasize\n      sub\n      dup2\n      add\n      swap1\n      tag_36\n      swap2\n      swap1\n      tag_37\n      jump\t// in\n    tag_36:\n      tag_38\n      jump\t// in\n    tag_35:\n      mload(0x40)\n      tag_39\n      swap2\n      swap1\n      tag_28\n      jump\t// in\n    tag_39:\n      mload(0x40)\n      dup1\n      swap2\n      sub\n      swap1\n      return\n        /* \"timelock/Timelock.sol\":5031:5050  address public lock */\n    tag_8:\n      callvalue\n      dup1\n      iszero\n      tag_40\n      jumpi\n      0x00\n      dup1\n      revert\n    tag_40:\n      pop\n      tag_41\n      tag_42\n      jump\t// in\n    tag_41:\n      mload(0x40)\n      tag_43\n      swap2\n      swap1\n      tag_44\n      jump\t// in\n    tag_43:\n      mload(0x40)\n      dup1\n      swap2\n      sub\n      swap1\n      return\n        /* \"timelock/Timelock.sol\":6252:6371  function prepareData(string calldata _msg) external pure returns(bytes memory) {... */\n    tag_17:\n        /* \"timelock/Timelock.sol\":6317:6329  bytes memory */\n      0x60\n        /* \"timelock/Timelock.sol\":6359:6363  _msg */\n      dup3\n      dup3\n        /* \"timelock/Timelock.sol\":6348:6364  abi.encode(_msg) */\n      add(0x20, mload(0x40))\n      tag_46\n      swap3\n      swap2\n      swap1\n      tag_47\n      jump\t// in\n    tag_46:\n      mload(0x40)\n      0x20\n      dup2\n      dup4\n      sub\n      sub\n      dup2\n      mstore\n      swap1\n      0x40\n      mstore\n        /* \"timelock/Timelock.sol\":6341:6364  return abi.encode(_msg) */\n      swap1\n      pop\n        /* \"timelock/Timelock.sol\":6252:6371  function prepareData(string calldata _msg) external pure returns(bytes memory) {... */\n      swap3\n      swap2\n      pop\n      pop\n      jump\t// out\n        /* \"timelock/Timelock.sol\":5488:5673  function run(string memory newMsg) external payable {... */\n    tag_23:\n        /* \"timelock/Timelock.sol\":5572:5576  lock */\n      0x00\n      dup1\n      sload\n      swap1\n      0x0100\n      exp\n      swap1\n      div\n      0xffffffffffffffffffffffffffffffffffffffff\n      and\n        /* \"timelock/Timelock.sol\":5558:5576  msg.sender == lock */\n      0xffffffffffffffffffffffffffffffffffffffff\n      and\n        /* \"timelock/Timelock.sol\":5558:5568  msg.sender */\n      caller\n        /* \"timelock/Timelock.sol\":5558:5576  msg.sender == lock */\n      0xffffffffffffffffffffffffffffffffffffffff\n      and\n      eq\n        /* \"timelock/Timelock.sol\":5550:5596  require(msg.sender == lock, \"invalid address\") */\n      tag_49\n      jumpi\n      mload(0x40)\n      0x08c379a000000000000000000000000000000000000000000000000000000000\n      dup2\n      mstore\n      0x04\n      add\n      tag_50\n      swap1\n      tag_51\n      jump\t// in\n    tag_50:\n      mload(0x40)\n      dup1\n      swap2\n      sub\n      swap1\n      revert\n    tag_49:\n        /* \"timelock/Timelock.sol\":5631:5640  msg.value */\n      callvalue\n        /* \"timelock/Timelock.sol\":5607:5615  payments */\n      0x02\n        /* \"timelock/Timelock.sol\":5607:5627  payments[msg.sender] */\n      0x00\n        /* \"timelock/Timelock.sol\":5616:5626  msg.sender */\n      caller\n        /* \"timelock/Timelock.sol\":5607:5627  payments[msg.sender] */\n      0xffffffffffffffffffffffffffffffffffffffff\n      and\n      0xffffffffffffffffffffffffffffffffffffffff\n      and\n      dup2\n      mstore\n      0x20\n      add\n      swap1\n      dup2\n      mstore\n      0x20\n      add\n      0x00\n      keccak256\n      0x00\n        /* \"timelock/Timelock.sol\":5607:5640  payments[msg.sender] += msg.value */\n      dup3\n      dup3\n      sload\n      tag_52\n      swap2\n      swap1\n      tag_53\n      jump\t// in\n    tag_52:\n      swap3\n      pop\n      pop\n      dup2\n      swap1\n      sstore\n      pop\n        /* \"timelock/Timelock.sol\":5660:5666  newMsg */\n      dup1\n        /* \"timelock/Timelock.sol\":5650:5657  message */\n      0x01\n        /* \"timelock/Timelock.sol\":5650:5666  message = newMsg */\n      swap1\n      dup2\n      tag_54\n      swap2\n      swap1\n      tag_55\n      jump\t// in\n    tag_54:\n      pop\n        /* \"timelock/Timelock.sol\":5488:5673  function run(string memory newMsg) external payable {... */\n      pop\n      jump\t// out\n        /* \"timelock/Timelock.sol\":6013:6109  function newTimestamp() external view returns(uint) {... */\n    tag_26:\n        /* \"timelock/Timelock.sol\":6059:6063  uint */\n      0x00\n        /* \"timelock/Timelock.sol\":6100:6102  20 */\n      0x14\n        /* \"timelock/Timelock.sol\":6082:6097  block.timestamp */\n      timestamp\n        /* \"timelock/Timelock.sol\":6082:6102  block.timestamp + 20 */\n      tag_57\n      swap2\n      swap1\n      tag_53\n      jump\t// in\n    tag_57:\n        /* \"timelock/Timelock.sol\":6075:6102  return block.timestamp + 20 */\n      swap1\n      pop\n        /* \"timelock/Timelock.sol\":6013:6109  function newTimestamp() external view returns(uint) {... */\n      swap1\n      jump\t// out\n        /* \"timelock/Timelock.sol\":5056:5077  string public message */\n    tag_31:\n      0x01\n      dup1\n      sload\n      tag_58\n      swap1\n      tag_59\n      jump\t// in\n    tag_58:\n      dup1\n      0x1f\n      add\n      0x20\n      dup1\n      swap2\n      div\n      mul\n      0x20\n      add\n      mload(0x40)\n      swap1\n      dup2\n      add\n      0x40\n      mstore\n      dup1\n      swap3\n      swap2\n      swap1\n      dup2\n      dup2\n      mstore\n      0x20\n      add\n      dup3\n      dup1\n      sload\n      tag_60\n      swap1\n      tag_59\n      jump\t// in\n    tag_60:\n      dup1\n      iszero\n      tag_61\n      jumpi\n      dup1\n      0x1f\n      lt\n      tag_62\n      jumpi\n      0x0100\n      dup1\n      dup4\n      sload\n      div\n      mul\n      dup4\n      mstore\n      swap2\n      0x20\n      add\n      swap2\n      jump(tag_61)\n    tag_62:\n      dup3\n      add\n      swap2\n      swap1\n      0x00\n      mstore\n      keccak256(0x00, 0x20)\n      swap1\n    tag_63:\n      dup2\n      sload\n      dup2\n      mstore\n      swap1\n      0x01\n      add\n      swap1\n      0x20\n      add\n      dup1\n      dup4\n      gt\n      tag_63\n      jumpi\n      dup3\n      swap1\n      sub\n      0x1f\n      and\n      dup3\n      add\n      swap2\n    tag_61:\n      pop\n      pop\n      pop\n      pop\n      pop\n      dup2\n      jump\t// out\n        /* \"timelock/Timelock.sol\":5083:5123  mapping(address => uint) public payments */\n    tag_38:\n      mstore(0x20, 0x02)\n      dup1\n      0x00\n      mstore\n      keccak256(0x00, 0x40)\n      0x00\n      swap2\n      pop\n      swap1\n      pop\n      sload\n      dup2\n      jump\t// out\n        /* \"timelock/Timelock.sol\":5031:5050  address public lock */\n    tag_42:\n      0x00\n      dup1\n      sload\n      swap1\n      0x0100\n      exp\n      swap1\n      div\n      0xffffffffffffffffffffffffffffffffffffffff\n      and\n      dup2\n      jump\t// out\n        /* \"#utility.yul\":7:176   */\n    tag_64:\n        /* \"#utility.yul\":91:102   */\n      0x00\n        /* \"#utility.yul\":125:131   */\n      dup3\n        /* \"#utility.yul\":120:123   */\n      dup3\n        /* \"#utility.yul\":113:132   */\n      mstore\n        /* \"#utility.yul\":165:169   */\n      0x20\n        /* \"#utility.yul\":160:163   */\n      dup3\n        /* \"#utility.yul\":156:170   */\n      add\n        /* \"#utility.yul\":141:170   */\n      swap1\n      pop\n        /* \"#utility.yul\":7:176   */\n      swap3\n      swap2\n      pop\n      pop\n      jump\t// out\n        /* \"#utility.yul\":182:355   */\n    tag_65:\n        /* \"#utility.yul\":322:347   */\n      0x7573696e672066756e6374696f6e207265717569726564000000000000000000\n        /* \"#utility.yul\":318:319   */\n      0x00\n        /* \"#utility.yul\":310:316   */\n      dup3\n        /* \"#utility.yul\":306:320   */\n      add\n        /* \"#utility.yul\":299:348   */\n      mstore\n        /* \"#utility.yul\":182:355   */\n      pop\n      jump\t// out\n        /* \"#utility.yul\":361:727   */\n    tag_66:\n        /* \"#utility.yul\":503:506   */\n      0x00\n        /* \"#utility.yul\":524:591   */\n      tag_120\n        /* \"#utility.yul\":588:590   */\n      0x17\n        /* \"#utility.yul\":583:586   */\n      dup4\n        /* \"#utility.yul\":524:591   */\n      tag_64\n      jump\t// in\n    tag_120:\n        /* \"#utility.yul\":517:591   */\n      swap2\n      pop\n        /* \"#utility.yul\":600:693   */\n      tag_121\n        /* \"#utility.yul\":689:692   */\n      dup3\n        /* \"#utility.yul\":600:693   */\n      tag_65\n      jump\t// in\n    tag_121:\n        /* \"#utility.yul\":718:720   */\n      0x20\n        /* \"#utility.yul\":713:716   */\n      dup3\n        /* \"#utility.yul\":709:721   */\n      add\n        /* \"#utility.yul\":702:721   */\n      swap1\n      pop\n        /* \"#utility.yul\":361:727   */\n      swap2\n      swap1\n      pop\n      jump\t// out\n        /* \"#utility.yul\":733:1152   */\n    tag_12:\n        /* \"#utility.yul\":899:903   */\n      0x00\n        /* \"#utility.yul\":937:939   */\n      0x20\n        /* \"#utility.yul\":926:935   */\n      dup3\n        /* \"#utility.yul\":922:940   */\n      add\n        /* \"#utility.yul\":914:940   */\n      swap1\n      pop\n        /* \"#utility.yul\":986:995   */\n      dup2\n        /* \"#utility.yul\":980:984   */\n      dup2\n        /* \"#utility.yul\":976:996   */\n      sub\n        /* \"#utility.yul\":972:973   */\n      0x00\n        /* \"#utility.yul\":961:970   */\n      dup4\n        /* \"#utility.yul\":957:974   */\n      add\n        /* \"#utility.yul\":950:997   */\n      mstore\n        /* \"#utility.yul\":1014:1145   */\n      tag_123\n        /* \"#utility.yul\":1140:1144   */\n      dup2\n        /* \"#utility.yul\":1014:1145   */\n      tag_66\n      jump\t// in\n    tag_123:\n        /* \"#utility.yul\":1006:1145   */\n      swap1\n      pop\n        /* \"#utility.yul\":733:1152   */\n      swap2\n      swap1\n      pop\n      jump\t// out\n        /* \"#utility.yul\":1158:1233   */\n    tag_67:\n        /* \"#utility.yul\":1191:1197   */\n      0x00\n        /* \"#utility.yul\":1224:1226   */\n      0x40\n        /* \"#utility.yul\":1218:1227   */\n      mload\n        /* \"#utility.yul\":1208:1227   */\n      swap1\n      pop\n        /* \"#utility.yul\":1158:1233   */\n      swap1\n      jump\t// out\n        /* \"#utility.yul\":1239:1356   */\n    tag_68:\n        /* \"#utility.yul\":1348:1349   */\n      0x00\n        /* \"#utility.yul\":1345:1346   */\n      dup1\n        /* \"#utility.yul\":1338:1350   */\n      revert\n        /* \"#utility.yul\":1362:1479   */\n    tag_69:\n        /* \"#utility.yul\":1471:1472   */\n      0x00\n        /* \"#utility.yul\":1468:1469   */\n      dup1\n        /* \"#utility.yul\":1461:1473   */\n      revert\n        /* \"#utility.yul\":1485:1602   */\n    tag_70:\n        /* \"#utility.yul\":1594:1595   */\n      0x00\n        /* \"#utility.yul\":1591:1592   */\n      dup1\n        /* \"#utility.yul\":1584:1596   */\n      revert\n        /* \"#utility.yul\":1608:1725   */\n    tag_71:\n        /* \"#utility.yul\":1717:1718   */\n      0x00\n        /* \"#utility.yul\":1714:1715   */\n      dup1\n        /* \"#utility.yul\":1707:1719   */\n      revert\n        /* \"#utility.yul\":1731:1848   */\n    tag_72:\n        /* \"#utility.yul\":1840:1841   */\n      0x00\n        /* \"#utility.yul\":1837:1838   */\n      dup1\n        /* \"#utility.yul\":1830:1842   */\n      revert\n        /* \"#utility.yul\":1868:2421   */\n    tag_73:\n        /* \"#utility.yul\":1926:1934   */\n      0x00\n        /* \"#utility.yul\":1936:1942   */\n      dup1\n        /* \"#utility.yul\":1986:1989   */\n      dup4\n        /* \"#utility.yul\":1979:1983   */\n      0x1f\n        /* \"#utility.yul\":1971:1977   */\n      dup5\n        /* \"#utility.yul\":1967:1984   */\n      add\n        /* \"#utility.yul\":1963:1990   */\n      slt\n        /* \"#utility.yul\":1953:2075   */\n      tag_131\n      jumpi\n        /* \"#utility.yul\":1994:2073   */\n      tag_132\n      tag_70\n      jump\t// in\n    tag_132:\n        /* \"#utility.yul\":1953:2075   */\n    tag_131:\n        /* \"#utility.yul\":2107:2113   */\n      dup3\n        /* \"#utility.yul\":2094:2114   */\n      calldataload\n        /* \"#utility.yul\":2084:2114   */\n      swap1\n      pop\n        /* \"#utility.yul\":2137:2155   */\n      0xffffffffffffffff\n        /* \"#utility.yul\":2129:2135   */\n      dup2\n        /* \"#utility.yul\":2126:2156   */\n      gt\n        /* \"#utility.yul\":2123:2240   */\n      iszero\n      tag_133\n      jumpi\n        /* \"#utility.yul\":2159:2238   */\n      tag_134\n      tag_71\n      jump\t// in\n    tag_134:\n        /* \"#utility.yul\":2123:2240   */\n    tag_133:\n        /* \"#utility.yul\":2273:2277   */\n      0x20\n        /* \"#utility.yul\":2265:2271   */\n      dup4\n        /* \"#utility.yul\":2261:2278   */\n      add\n        /* \"#utility.yul\":2249:2278   */\n      swap2\n      pop\n        /* \"#utility.yul\":2327:2330   */\n      dup4\n        /* \"#utility.yul\":2319:2323   */\n      0x01\n        /* \"#utility.yul\":2311:2317   */\n      dup3\n        /* \"#utility.yul\":2307:2324   */\n      mul\n        /* \"#utility.yul\":2297:2305   */\n      dup4\n        /* \"#utility.yul\":2293:2325   */\n      add\n        /* \"#utility.yul\":2290:2331   */\n      gt\n        /* \"#utility.yul\":2287:2415   */\n      iszero\n      tag_135\n      jumpi\n        /* \"#utility.yul\":2334:2413   */\n      tag_136\n      tag_72\n      jump\t// in\n    tag_136:\n        /* \"#utility.yul\":2287:2415   */\n    tag_135:\n        /* \"#utility.yul\":1868:2421   */\n      swap3\n      pop\n      swap3\n      swap1\n      pop\n      jump\t// out\n        /* \"#utility.yul\":2427:2956   */\n    tag_16:\n        /* \"#utility.yul\":2498:2504   */\n      0x00\n        /* \"#utility.yul\":2506:2512   */\n      dup1\n        /* \"#utility.yul\":2555:2557   */\n      0x20\n        /* \"#utility.yul\":2543:2552   */\n      dup4\n        /* \"#utility.yul\":2534:2541   */\n      dup6\n        /* \"#utility.yul\":2530:2553   */\n      sub\n        /* \"#utility.yul\":2526:2558   */\n      slt\n        /* \"#utility.yul\":2523:2642   */\n      iszero\n      tag_138\n      jumpi\n        /* \"#utility.yul\":2561:2640   */\n      tag_139\n      tag_68\n      jump\t// in\n    tag_139:\n        /* \"#utility.yul\":2523:2642   */\n    tag_138:\n        /* \"#utility.yul\":2709:2710   */\n      0x00\n        /* \"#utility.yul\":2698:2707   */\n      dup4\n        /* \"#utility.yul\":2694:2711   */\n      add\n        /* \"#utility.yul\":2681:2712   */\n      calldataload\n        /* \"#utility.yul\":2739:2757   */\n      0xffffffffffffffff\n        /* \"#utility.yul\":2731:2737   */\n      dup2\n        /* \"#utility.yul\":2728:2758   */\n      gt\n        /* \"#utility.yul\":2725:2842   */\n      iszero\n      tag_140\n      jumpi\n        /* \"#utility.yul\":2761:2840   */\n      tag_141\n      tag_69\n      jump\t// in\n    tag_141:\n        /* \"#utility.yul\":2725:2842   */\n    tag_140:\n        /* \"#utility.yul\":2874:2939   */\n      tag_142\n        /* \"#utility.yul\":2931:2938   */\n      dup6\n        /* \"#utility.yul\":2922:2928   */\n      dup3\n        /* \"#utility.yul\":2911:2920   */\n      dup7\n        /* \"#utility.yul\":2907:2929   */\n      add\n        /* \"#utility.yul\":2874:2939   */\n      tag_73\n      jump\t// in\n    tag_142:\n        /* \"#utility.yul\":2856:2939   */\n      swap3\n      pop\n      swap3\n      pop\n        /* \"#utility.yul\":2652:2949   */\n      pop\n        /* \"#utility.yul\":2427:2956   */\n      swap3\n      pop\n      swap3\n      swap1\n      pop\n      jump\t// out\n        /* \"#utility.yul\":2962:3060   */\n    tag_74:\n        /* \"#utility.yul\":3013:3019   */\n      0x00\n        /* \"#utility.yul\":3047:3052   */\n      dup2\n        /* \"#utility.yul\":3041:3053   */\n      mload\n        /* \"#utility.yul\":3031:3053   */\n      swap1\n      pop\n        /* \"#utility.yul\":2962:3060   */\n      swap2\n      swap1\n      pop\n      jump\t// out\n        /* \"#utility.yul\":3066:3234   */\n    tag_75:\n        /* \"#utility.yul\":3149:3160   */\n      0x00\n        /* \"#utility.yul\":3183:3189   */\n      dup3\n        /* \"#utility.yul\":3178:3181   */\n      dup3\n        /* \"#utility.yul\":3171:3190   */\n      mstore\n        /* \"#utility.yul\":3223:3227   */\n      0x20\n        /* \"#utility.yul\":3218:3221   */\n      dup3\n        /* \"#utility.yul\":3214:3228   */\n      add\n        /* \"#utility.yul\":3199:3228   */\n      swap1\n      pop\n        /* \"#utility.yul\":3066:3234   */\n      swap3\n      swap2\n      pop\n      pop\n      jump\t// out\n        /* \"#utility.yul\":3240:3379   */\n    tag_76:\n        /* \"#utility.yul\":3329:3335   */\n      dup3\n        /* \"#utility.yul\":3324:3327   */\n      dup2\n        /* \"#utility.yul\":3319:3322   */\n      dup4\n        /* \"#utility.yul\":3313:3336   */\n      mcopy\n        /* \"#utility.yul\":3370:3371   */\n      0x00\n        /* \"#utility.yul\":3361:3367   */\n      dup4\n        /* \"#utility.yul\":3356:3359   */\n      dup4\n        /* \"#utility.yul\":3352:3368   */\n      add\n        /* \"#utility.yul\":3345:3372   */\n      mstore\n        /* \"#utility.yul\":3240:3379   */\n      pop\n      pop\n      pop\n      jump\t// out\n        /* \"#utility.yul\":3385:3487   */\n    tag_77:\n        /* \"#utility.yul\":3426:3432   */\n      0x00\n        /* \"#utility.yul\":3477:3479   */\n      0x1f\n        /* \"#utility.yul\":3473:3480   */\n      not\n        /* \"#utility.yul\":3468:3470   */\n      0x1f\n        /* \"#utility.yul\":3461:3466   */\n      dup4\n        /* \"#utility.yul\":3457:3471   */\n      add\n        /* \"#utility.yul\":3453:3481   */\n      and\n        /* \"#utility.yul\":3443:3481   */\n      swap1\n      pop\n        /* \"#utility.yul\":3385:3487   */\n      swap2\n      swap1\n      pop\n      jump\t// out\n        /* \"#utility.yul\":3493:3866   */\n    tag_78:\n        /* \"#utility.yul\":3579:3582   */\n      0x00\n        /* \"#utility.yul\":3607:3645   */\n      tag_148\n        /* \"#utility.yul\":3639:3644   */\n      dup3\n        /* \"#utility.yul\":3607:3645   */\n      tag_74\n      jump\t// in\n    tag_148:\n        /* \"#utility.yul\":3661:3731   */\n      tag_149\n        /* \"#utility.yul\":3724:3730   */\n      dup2\n        /* \"#utility.yul\":3719:3722   */\n      dup6\n        /* \"#utility.yul\":3661:3731   */\n      tag_75\n      jump\t// in\n    tag_149:\n        /* \"#utility.yul\":3654:3731   */\n      swap4\n      pop\n        /* \"#utility.yul\":3740:3805   */\n      tag_150\n        /* \"#utility.yul\":3798:3804   */\n      dup2\n        /* \"#utility.yul\":3793:3796   */\n      dup6\n        /* \"#utility.yul\":3786:3790   */\n      0x20\n        /* \"#utility.yul\":3779:3784   */\n      dup7\n        /* \"#utility.yul\":3775:3791   */\n      add\n        /* \"#utility.yul\":3740:3805   */\n      tag_76\n      jump\t// in\n    tag_150:\n        /* \"#utility.yul\":3830:3859   */\n      tag_151\n        /* \"#utility.yul\":3852:3858   */\n      dup2\n        /* \"#utility.yul\":3830:3859   */\n      tag_77\n      jump\t// in\n    tag_151:\n        /* \"#utility.yul\":3825:3828   */\n      dup5\n        /* \"#utility.yul\":3821:3860   */\n      add\n        /* \"#utility.yul\":3814:3860   */\n      swap2\n      pop\n        /* \"#utility.yul\":3583:3866   */\n      pop\n        /* \"#utility.yul\":3493:3866   */\n      swap3\n      swap2\n      pop\n      pop\n      jump\t// out\n        /* \"#utility.yul\":3872:4181   */\n    tag_19:\n        /* \"#utility.yul\":3983:3987   */\n      0x00\n        /* \"#utility.yul\":4021:4023   */\n      0x20\n        /* \"#utility.yul\":4010:4019   */\n      dup3\n        /* \"#utility.yul\":4006:4024   */\n      add\n        /* \"#utility.yul\":3998:4024   */\n      swap1\n      pop\n        /* \"#utility.yul\":4070:4079   */\n      dup2\n        /* \"#utility.yul\":4064:4068   */\n      dup2\n        /* \"#utility.yul\":4060:4080   */\n      sub\n        /* \"#utility.yul\":4056:4057   */\n      0x00\n        /* \"#utility.yul\":4045:4054   */\n      dup4\n        /* \"#utility.yul\":4041:4058   */\n      add\n        /* \"#utility.yul\":4034:4081   */\n      mstore\n        /* \"#utility.yul\":4098:4174   */\n      tag_153\n        /* \"#utility.yul\":4169:4173   */\n      dup2\n        /* \"#utility.yul\":4160:4166   */\n      dup5\n        /* \"#utility.yul\":4098:4174   */\n      tag_78\n      jump\t// in\n    tag_153:\n        /* \"#utility.yul\":4090:4174   */\n      swap1\n      pop\n        /* \"#utility.yul\":3872:4181   */\n      swap3\n      swap2\n      pop\n      pop\n      jump\t// out\n        /* \"#utility.yul\":4187:4304   */\n    tag_79:\n        /* \"#utility.yul\":4296:4297   */\n      0x00\n        /* \"#utility.yul\":4293:4294   */\n      dup1\n        /* \"#utility.yul\":4286:4298   */\n      revert\n        /* \"#utility.yul\":4310:4490   */\n    tag_80:\n        /* \"#utility.yul\":4358:4435   */\n      0x4e487b7100000000000000000000000000000000000000000000000000000000\n        /* \"#utility.yul\":4355:4356   */\n      0x00\n        /* \"#utility.yul\":4348:4436   */\n      mstore\n        /* \"#utility.yul\":4455:4459   */\n      0x41\n        /* \"#utility.yul\":4452:4453   */\n      0x04\n        /* \"#utility.yul\":4445:4460   */\n      mstore\n        /* \"#utility.yul\":4479:4483   */\n      0x24\n        /* \"#utility.yul\":4476:4477   */\n      0x00\n        /* \"#utility.yul\":4469:4484   */\n      revert\n        /* \"#utility.yul\":4496:4777   */\n    tag_81:\n        /* \"#utility.yul\":4579:4606   */\n      tag_157\n        /* \"#utility.yul\":4601:4605   */\n      dup3\n        /* \"#utility.yul\":4579:4606   */\n      tag_77\n      jump\t// in\n    tag_157:\n        /* \"#utility.yul\":4571:4577   */\n      dup2\n        /* \"#utility.yul\":4567:4607   */\n      add\n        /* \"#utility.yul\":4709:4715   */\n      dup2\n        /* \"#utility.yul\":4697:4707   */\n      dup2\n        /* \"#utility.yul\":4694:4716   */\n      lt\n        /* \"#utility.yul\":4673:4691   */\n      0xffffffffffffffff\n        /* \"#utility.yul\":4661:4671   */\n      dup3\n        /* \"#utility.yul\":4658:4692   */\n      gt\n        /* \"#utility.yul\":4655:4717   */\n      or\n        /* \"#utility.yul\":4652:4740   */\n      iszero\n      tag_158\n      jumpi\n        /* \"#utility.yul\":4720:4738   */\n      tag_159\n      tag_80\n      jump\t// in\n    tag_159:\n        /* \"#utility.yul\":4652:4740   */\n    tag_158:\n        /* \"#utility.yul\":4760:4770   */\n      dup1\n        /* \"#utility.yul\":4756:4758   */\n      0x40\n        /* \"#utility.yul\":4749:4771   */\n      mstore\n        /* \"#utility.yul\":4539:4777   */\n      pop\n        /* \"#utility.yul\":4496:4777   */\n      pop\n      pop\n      jump\t// out\n        /* \"#utility.yul\":4783:4912   */\n    tag_82:\n        /* \"#utility.yul\":4817:4823   */\n      0x00\n        /* \"#utility.yul\":4844:4864   */\n      tag_161\n      tag_67\n      jump\t// in\n    tag_161:\n        /* \"#utility.yul\":4834:4864   */\n      swap1\n      pop\n        /* \"#utility.yul\":4873:4906   */\n      tag_162\n        /* \"#utility.yul\":4901:4905   */\n      dup3\n        /* \"#utility.yul\":4893:4899   */\n      dup3\n        /* \"#utility.yul\":4873:4906   */\n      tag_81\n      jump\t// in\n    tag_162:\n        /* \"#utility.yul\":4783:4912   */\n      swap2\n      swap1\n      pop\n      jump\t// out\n        /* \"#utility.yul\":4918:5226   */\n    tag_83:\n        /* \"#utility.yul\":4980:4984   */\n      0x00\n        /* \"#utility.yul\":5070:5088   */\n      0xffffffffffffffff\n        /* \"#utility.yul\":5062:5068   */\n      dup3\n        /* \"#utility.yul\":5059:5089   */\n      gt\n        /* \"#utility.yul\":5056:5112   */\n      iszero\n      tag_164\n      jumpi\n        /* \"#utility.yul\":5092:5110   */\n      tag_165\n      tag_80\n      jump\t// in\n    tag_165:\n        /* \"#utility.yul\":5056:5112   */\n    tag_164:\n        /* \"#utility.yul\":5130:5159   */\n      tag_166\n        /* \"#utility.yul\":5152:5158   */\n      dup3\n        /* \"#utility.yul\":5130:5159   */\n      tag_77\n      jump\t// in\n    tag_166:\n        /* \"#utility.yul\":5122:5159   */\n      swap1\n      pop\n        /* \"#utility.yul\":5214:5218   */\n      0x20\n        /* \"#utility.yul\":5208:5212   */\n      dup2\n        /* \"#utility.yul\":5204:5219   */\n      add\n        /* \"#utility.yul\":5196:5219   */\n      swap1\n      pop\n        /* \"#utility.yul\":4918:5226   */\n      swap2\n      swap1\n      pop\n      jump\t// out\n        /* \"#utility.yul\":5232:5380   */\n    tag_84:\n        /* \"#utility.yul\":5330:5336   */\n      dup3\n        /* \"#utility.yul\":5325:5328   */\n      dup2\n        /* \"#utility.yul\":5320:5323   */\n      dup4\n        /* \"#utility.yul\":5307:5337   */\n      calldatacopy\n        /* \"#utility.yul\":5371:5372   */\n      0x00\n        /* \"#utility.yul\":5362:5368   */\n      dup4\n        /* \"#utility.yul\":5357:5360   */\n      dup4\n        /* \"#utility.yul\":5353:5369   */\n      add\n        /* \"#utility.yul\":5346:5373   */\n      mstore\n        /* \"#utility.yul\":5232:5380   */\n      pop\n      pop\n      pop\n      jump\t// out\n        /* \"#utility.yul\":5386:5811   */\n    tag_85:\n        /* \"#utility.yul\":5464:5469   */\n      0x00\n        /* \"#utility.yul\":5489:5555   */\n      tag_169\n        /* \"#utility.yul\":5505:5554   */\n      tag_170\n        /* \"#utility.yul\":5547:5553   */\n      dup5\n        /* \"#utility.yul\":5505:5554   */\n      tag_83\n      jump\t// in\n    tag_170:\n        /* \"#utility.yul\":5489:5555   */\n      tag_82\n      jump\t// in\n    tag_169:\n        /* \"#utility.yul\":5480:5555   */\n      swap1\n      pop\n        /* \"#utility.yul\":5578:5584   */\n      dup3\n        /* \"#utility.yul\":5571:5576   */\n      dup2\n        /* \"#utility.yul\":5564:5585   */\n      mstore\n        /* \"#utility.yul\":5616:5620   */\n      0x20\n        /* \"#utility.yul\":5609:5614   */\n      dup2\n        /* \"#utility.yul\":5605:5621   */\n      add\n        /* \"#utility.yul\":5654:5657   */\n      dup5\n        /* \"#utility.yul\":5645:5651   */\n      dup5\n        /* \"#utility.yul\":5640:5643   */\n      dup5\n        /* \"#utility.yul\":5636:5652   */\n      add\n        /* \"#utility.yul\":5633:5658   */\n      gt\n        /* \"#utility.yul\":5630:5742   */\n      iszero\n      tag_171\n      jumpi\n        /* \"#utility.yul\":5661:5740   */\n      tag_172\n      tag_79\n      jump\t// in\n    tag_172:\n        /* \"#utility.yul\":5630:5742   */\n    tag_171:\n        /* \"#utility.yul\":5751:5805   */\n      tag_173\n        /* \"#utility.yul\":5798:5804   */\n      dup5\n        /* \"#utility.yul\":5793:5796   */\n      dup3\n        /* \"#utility.yul\":5788:5791   */\n      dup6\n        /* \"#utility.yul\":5751:5805   */\n      tag_84\n      jump\t// in\n    tag_173:\n        /* \"#utility.yul\":5470:5811   */\n      pop\n        /* \"#utility.yul\":5386:5811   */\n      swap4\n      swap3\n      pop\n      pop\n      pop\n      jump\t// out\n        /* \"#utility.yul\":5831:6171   */\n    tag_86:\n        /* \"#utility.yul\":5887:5892   */\n      0x00\n        /* \"#utility.yul\":5936:5939   */\n      dup3\n        /* \"#utility.yul\":5929:5933   */\n      0x1f\n        /* \"#utility.yul\":5921:5927   */\n      dup4\n        /* \"#utility.yul\":5917:5934   */\n      add\n        /* \"#utility.yul\":5913:5940   */\n      slt\n        /* \"#utility.yul\":5903:6025   */\n      tag_175\n      jumpi\n        /* \"#utility.yul\":5944:6023   */\n      tag_176\n      tag_70\n      jump\t// in\n    tag_176:\n        /* \"#utility.yul\":5903:6025   */\n    tag_175:\n        /* \"#utility.yul\":6061:6067   */\n      dup2\n        /* \"#utility.yul\":6048:6068   */\n      calldataload\n        /* \"#utility.yul\":6086:6165   */\n      tag_177\n        /* \"#utility.yul\":6161:6164   */\n      dup5\n        /* \"#utility.yul\":6153:6159   */\n      dup3\n        /* \"#utility.yul\":6146:6150   */\n      0x20\n        /* \"#utility.yul\":6138:6144   */\n      dup7\n        /* \"#utility.yul\":6134:6151   */\n      add\n        /* \"#utility.yul\":6086:6165   */\n      tag_85\n      jump\t// in\n    tag_177:\n        /* \"#utility.yul\":6077:6165   */\n      swap2\n      pop\n        /* \"#utility.yul\":5893:6171   */\n      pop\n        /* \"#utility.yul\":5831:6171   */\n      swap3\n      swap2\n      pop\n      pop\n      jump\t// out\n        /* \"#utility.yul\":6177:6686   */\n    tag_22:\n        /* \"#utility.yul\":6246:6252   */\n      0x00\n        /* \"#utility.yul\":6295:6297   */\n      0x20\n        /* \"#utility.yul\":6283:6292   */\n      dup3\n        /* \"#utility.yul\":6274:6281   */\n      dup5\n        /* \"#utility.yul\":6270:6293   */\n      sub\n        /* \"#utility.yul\":6266:6298   */\n      slt\n        /* \"#utility.yul\":6263:6382   */\n      iszero\n      tag_179\n      jumpi\n        /* \"#utility.yul\":6301:6380   */\n      tag_180\n      tag_68\n      jump\t// in\n    tag_180:\n        /* \"#utility.yul\":6263:6382   */\n    tag_179:\n        /* \"#utility.yul\":6449:6450   */\n      0x00\n        /* \"#utility.yul\":6438:6447   */\n      dup3\n        /* \"#utility.yul\":6434:6451   */\n      add\n        /* \"#utility.yul\":6421:6452   */\n      calldataload\n        /* \"#utility.yul\":6479:6497   */\n      0xffffffffffffffff\n        /* \"#utility.yul\":6471:6477   */\n      dup2\n        /* \"#utility.yul\":6468:6498   */\n      gt\n        /* \"#utility.yul\":6465:6582   */\n      iszero\n      tag_181\n      jumpi\n        /* \"#utility.yul\":6501:6580   */\n      tag_182\n      tag_69\n      jump\t// in\n    tag_182:\n        /* \"#utility.yul\":6465:6582   */\n    tag_181:\n        /* \"#utility.yul\":6606:6669   */\n      tag_183\n        /* \"#utility.yul\":6661:6668   */\n      dup5\n        /* \"#utility.yul\":6652:6658   */\n      dup3\n        /* \"#utility.yul\":6641:6650   */\n      dup6\n        /* \"#utility.yul\":6637:6659   */\n      add\n        /* \"#utility.yul\":6606:6669   */\n      tag_86\n      jump\t// in\n    tag_183:\n        /* \"#utility.yul\":6596:6669   */\n      swap2\n      pop\n        /* \"#utility.yul\":6392:6679   */\n      pop\n        /* \"#utility.yul\":6177:6686   */\n      swap3\n      swap2\n      pop\n      pop\n      jump\t// out\n        /* \"#utility.yul\":6692:6769   */\n    tag_87:\n        /* \"#utility.yul\":6729:6736   */\n      0x00\n        /* \"#utility.yul\":6758:6763   */\n      dup2\n        /* \"#utility.yul\":6747:6763   */\n      swap1\n      pop\n        /* \"#utility.yul\":6692:6769   */\n      swap2\n      swap1\n      pop\n      jump\t// out\n        /* \"#utility.yul\":6775:6893   */\n    tag_88:\n        /* \"#utility.yul\":6862:6886   */\n      tag_186\n        /* \"#utility.yul\":6880:6885   */\n      dup2\n        /* \"#utility.yul\":6862:6886   */\n      tag_87\n      jump\t// in\n    tag_186:\n        /* \"#utility.yul\":6857:6860   */\n      dup3\n        /* \"#utility.yul\":6850:6887   */\n      mstore\n        /* \"#utility.yul\":6775:6893   */\n      pop\n      pop\n      jump\t// out\n        /* \"#utility.yul\":6899:7121   */\n    tag_28:\n        /* \"#utility.yul\":6992:6996   */\n      0x00\n        /* \"#utility.yul\":7030:7032   */\n      0x20\n        /* \"#utility.yul\":7019:7028   */\n      dup3\n        /* \"#utility.yul\":7015:7033   */\n      add\n        /* \"#utility.yul\":7007:7033   */\n      swap1\n      pop\n        /* \"#utility.yul\":7043:7114   */\n      tag_188\n        /* \"#utility.yul\":7111:7112   */\n      0x00\n        /* \"#utility.yul\":7100:7109   */\n      dup4\n        /* \"#utility.yul\":7096:7113   */\n      add\n        /* \"#utility.yul\":7087:7093   */\n      dup5\n        /* \"#utility.yul\":7043:7114   */\n      tag_88\n      jump\t// in\n    tag_188:\n        /* \"#utility.yul\":6899:7121   */\n      swap3\n      swap2\n      pop\n      pop\n      jump\t// out\n        /* \"#utility.yul\":7127:7226   */\n    tag_89:\n        /* \"#utility.yul\":7179:7185   */\n      0x00\n        /* \"#utility.yul\":7213:7218   */\n      dup2\n        /* \"#utility.yul\":7207:7219   */\n      mload\n        /* \"#utility.yul\":7197:7219   */\n      swap1\n      pop\n        /* \"#utility.yul\":7127:7226   */\n      swap2\n      swap1\n      pop\n      jump\t// out\n        /* \"#utility.yul\":7232:7609   */\n    tag_90:\n        /* \"#utility.yul\":7320:7323   */\n      0x00\n        /* \"#utility.yul\":7348:7387   */\n      tag_191\n        /* \"#utility.yul\":7381:7386   */\n      dup3\n        /* \"#utility.yul\":7348:7387   */\n      tag_89\n      jump\t// in\n    tag_191:\n        /* \"#utility.yul\":7403:7474   */\n      tag_192\n        /* \"#utility.yul\":7467:7473   */\n      dup2\n        /* \"#utility.yul\":7462:7465   */\n      dup6\n        /* \"#utility.yul\":7403:7474   */\n      tag_64\n      jump\t// in\n    tag_192:\n        /* \"#utility.yul\":7396:7474   */\n      swap4\n      pop\n        /* \"#utility.yul\":7483:7548   */\n      tag_193\n        /* \"#utility.yul\":7541:7547   */\n      dup2\n        /* \"#utility.yul\":7536:7539   */\n      dup6\n        /* \"#utility.yul\":7529:7533   */\n      0x20\n        /* \"#utility.yul\":7522:7527   */\n      dup7\n        /* \"#utility.yul\":7518:7534   */\n      add\n        /* \"#utility.yul\":7483:7548   */\n      tag_76\n      jump\t// in\n    tag_193:\n        /* \"#utility.yul\":7573:7602   */\n      tag_194\n        /* \"#utility.yul\":7595:7601   */\n      dup2\n        /* \"#utility.yul\":7573:7602   */\n      tag_77\n      jump\t// in\n    tag_194:\n        /* \"#utility.yul\":7568:7571   */\n      dup5\n        /* \"#utility.yul\":7564:7603   */\n      add\n        /* \"#utility.yul\":7557:7603   */\n      swap2\n      pop\n        /* \"#utility.yul\":7324:7609   */\n      pop\n        /* \"#utility.yul\":7232:7609   */\n      swap3\n      swap2\n      pop\n      pop\n      jump\t// out\n        /* \"#utility.yul\":7615:7928   */\n    tag_33:\n        /* \"#utility.yul\":7728:7732   */\n      0x00\n        /* \"#utility.yul\":7766:7768   */\n      0x20\n        /* \"#utility.yul\":7755:7764   */\n      dup3\n        /* \"#utility.yul\":7751:7769   */\n      add\n        /* \"#utility.yul\":7743:7769   */\n      swap1\n      pop\n        /* \"#utility.yul\":7815:7824   */\n      dup2\n        /* \"#utility.yul\":7809:7813   */\n      dup2\n        /* \"#utility.yul\":7805:7825   */\n      sub\n        /* \"#utility.yul\":7801:7802   */\n      0x00\n        /* \"#utility.yul\":7790:7799   */\n      dup4\n        /* \"#utility.yul\":7786:7803   */\n      add\n        /* \"#utility.yul\":7779:7826   */\n      mstore\n        /* \"#utility.yul\":7843:7921   */\n      tag_196\n        /* \"#utility.yul\":7916:7920   */\n      dup2\n        /* \"#utility.yul\":7907:7913   */\n      dup5\n        /* \"#utility.yul\":7843:7921   */\n      tag_90\n      jump\t// in\n    tag_196:\n        /* \"#utility.yul\":7835:7921   */\n      swap1\n      pop\n        /* \"#utility.yul\":7615:7928   */\n      swap3\n      swap2\n      pop\n      pop\n      jump\t// out\n        /* \"#utility.yul\":7934:8060   */\n    tag_91:\n        /* \"#utility.yul\":7971:7978   */\n      0x00\n        /* \"#utility.yul\":8011:8053   */\n      0xffffffffffffffffffffffffffffffffffffffff\n        /* \"#utility.yul\":8004:8009   */\n      dup3\n        /* \"#utility.yul\":8000:8054   */\n      and\n        /* \"#utility.yul\":7989:8054   */\n      swap1\n      pop\n        /* \"#utility.yul\":7934:8060   */\n      swap2\n      swap1\n      pop\n      jump\t// out\n        /* \"#utility.yul\":8066:8162   */\n    tag_92:\n        /* \"#utility.yul\":8103:8110   */\n      0x00\n        /* \"#utility.yul\":8132:8156   */\n      tag_199\n        /* \"#utility.yul\":8150:8155   */\n      dup3\n        /* \"#utility.yul\":8132:8156   */\n      tag_91\n      jump\t// in\n    tag_199:\n        /* \"#utility.yul\":8121:8156   */\n      swap1\n      pop\n        /* \"#utility.yul\":8066:8162   */\n      swap2\n      swap1\n      pop\n      jump\t// out\n        /* \"#utility.yul\":8168:8290   */\n    tag_93:\n        /* \"#utility.yul\":8241:8265   */\n      tag_201\n        /* \"#utility.yul\":8259:8264   */\n      dup2\n        /* \"#utility.yul\":8241:8265   */\n      tag_92\n      jump\t// in\n    tag_201:\n        /* \"#utility.yul\":8234:8239   */\n      dup2\n        /* \"#utility.yul\":8231:8266   */\n      eq\n        /* \"#utility.yul\":8221:8284   */\n      tag_202\n      jumpi\n        /* \"#utility.yul\":8280:8281   */\n      0x00\n        /* \"#utility.yul\":8277:8278   */\n      dup1\n        /* \"#utility.yul\":8270:8282   */\n      revert\n        /* \"#utility.yul\":8221:8284   */\n    tag_202:\n        /* \"#utility.yul\":8168:8290   */\n      pop\n      jump\t// out\n        /* \"#utility.yul\":8296:8435   */\n    tag_94:\n        /* \"#utility.yul\":8342:8347   */\n      0x00\n        /* \"#utility.yul\":8380:8386   */\n      dup2\n        /* \"#utility.yul\":8367:8387   */\n      calldataload\n        /* \"#utility.yul\":8358:8387   */\n      swap1\n      pop\n        /* \"#utility.yul\":8396:8429   */\n      tag_204\n        /* \"#utility.yul\":8423:8428   */\n      dup2\n        /* \"#utility.yul\":8396:8429   */\n      tag_93\n      jump\t// in\n    tag_204:\n        /* \"#utility.yul\":8296:8435   */\n      swap3\n      swap2\n      pop\n      pop\n      jump\t// out\n        /* \"#utility.yul\":8441:8770   */\n    tag_37:\n        /* \"#utility.yul\":8500:8506   */\n      0x00\n        /* \"#utility.yul\":8549:8551   */\n      0x20\n        /* \"#utility.yul\":8537:8546   */\n      dup3\n        /* \"#utility.yul\":8528:8535   */\n      dup5\n        /* \"#utility.yul\":8524:8547   */\n      sub\n        /* \"#utility.yul\":8520:8552   */\n      slt\n        /* \"#utility.yul\":8517:8636   */\n      iszero\n      tag_206\n      jumpi\n        /* \"#utility.yul\":8555:8634   */\n      tag_207\n      tag_68\n      jump\t// in\n    tag_207:\n        /* \"#utility.yul\":8517:8636   */\n    tag_206:\n        /* \"#utility.yul\":8675:8676   */\n      0x00\n        /* \"#utility.yul\":8700:8753   */\n      tag_208\n        /* \"#utility.yul\":8745:8752   */\n      dup5\n        /* \"#utility.yul\":8736:8742   */\n      dup3\n        /* \"#utility.yul\":8725:8734   */\n      dup6\n        /* \"#utility.yul\":8721:8743   */\n      add\n        /* \"#utility.yul\":8700:8753   */\n      tag_94\n      jump\t// in\n    tag_208:\n        /* \"#utility.yul\":8690:8753   */\n      swap2\n      pop\n        /* \"#utility.yul\":8646:8763   */\n      pop\n        /* \"#utility.yul\":8441:8770   */\n      swap3\n      swap2\n      pop\n      pop\n      jump\t// out\n        /* \"#utility.yul\":8776:8894   */\n    tag_95:\n        /* \"#utility.yul\":8863:8887   */\n      tag_210\n        /* \"#utility.yul\":8881:8886   */\n      dup2\n        /* \"#utility.yul\":8863:8887   */\n      tag_92\n      jump\t// in\n    tag_210:\n        /* \"#utility.yul\":8858:8861   */\n      dup3\n        /* \"#utility.yul\":8851:8888   */\n      mstore\n        /* \"#utility.yul\":8776:8894   */\n      pop\n      pop\n      jump\t// out\n        /* \"#utility.yul\":8900:9122   */\n    tag_44:\n        /* \"#utility.yul\":8993:8997   */\n      0x00\n        /* \"#utility.yul\":9031:9033   */\n      0x20\n        /* \"#utility.yul\":9020:9029   */\n      dup3\n        /* \"#utility.yul\":9016:9034   */\n      add\n        /* \"#utility.yul\":9008:9034   */\n      swap1\n      pop\n        /* \"#utility.yul\":9044:9115   */\n      tag_212\n        /* \"#utility.yul\":9112:9113   */\n      0x00\n        /* \"#utility.yul\":9101:9110   */\n      dup4\n        /* \"#utility.yul\":9097:9114   */\n      add\n        /* \"#utility.yul\":9088:9094   */\n      dup5\n        /* \"#utility.yul\":9044:9115   */\n      tag_95\n      jump\t// in\n    tag_212:\n        /* \"#utility.yul\":8900:9122   */\n      swap3\n      swap2\n      pop\n      pop\n      jump\t// out\n        /* \"#utility.yul\":9152:9469   */\n    tag_96:\n        /* \"#utility.yul\":9250:9253   */\n      0x00\n        /* \"#utility.yul\":9271:9342   */\n      tag_214\n        /* \"#utility.yul\":9335:9341   */\n      dup4\n        /* \"#utility.yul\":9330:9333   */\n      dup6\n        /* \"#utility.yul\":9271:9342   */\n      tag_64\n      jump\t// in\n    tag_214:\n        /* \"#utility.yul\":9264:9342   */\n      swap4\n      pop\n        /* \"#utility.yul\":9352:9408   */\n      tag_215\n        /* \"#utility.yul\":9401:9407   */\n      dup4\n        /* \"#utility.yul\":9396:9399   */\n      dup6\n        /* \"#utility.yul\":9389:9394   */\n      dup5\n        /* \"#utility.yul\":9352:9408   */\n      tag_84\n      jump\t// in\n    tag_215:\n        /* \"#utility.yul\":9433:9462   */\n      tag_216\n        /* \"#utility.yul\":9455:9461   */\n      dup4\n        /* \"#utility.yul\":9433:9462   */\n      tag_77\n      jump\t// in\n    tag_216:\n        /* \"#utility.yul\":9428:9431   */\n      dup5\n        /* \"#utility.yul\":9424:9463   */\n      add\n        /* \"#utility.yul\":9417:9463   */\n      swap1\n      pop\n        /* \"#utility.yul\":9152:9469   */\n      swap4\n      swap3\n      pop\n      pop\n      pop\n      jump\t// out\n        /* \"#utility.yul\":9475:9808   */\n    tag_47:\n        /* \"#utility.yul\":9598:9602   */\n      0x00\n        /* \"#utility.yul\":9636:9638   */\n      0x20\n        /* \"#utility.yul\":9625:9634   */\n      dup3\n        /* \"#utility.yul\":9621:9639   */\n      add\n        /* \"#utility.yul\":9613:9639   */\n      swap1\n      pop\n        /* \"#utility.yul\":9685:9694   */\n      dup2\n        /* \"#utility.yul\":9679:9683   */\n      dup2\n        /* \"#utility.yul\":9675:9695   */\n      sub\n        /* \"#utility.yul\":9671:9672   */\n      0x00\n        /* \"#utility.yul\":9660:9669   */\n      dup4\n        /* \"#utility.yul\":9656:9673   */\n      add\n        /* \"#utility.yul\":9649:9696   */\n      mstore\n        /* \"#utility.yul\":9713:9801   */\n      tag_218\n        /* \"#utility.yul\":9796:9800   */\n      dup2\n        /* \"#utility.yul\":9787:9793   */\n      dup5\n        /* \"#utility.yul\":9779:9785   */\n      dup7\n        /* \"#utility.yul\":9713:9801   */\n      tag_96\n      jump\t// in\n    tag_218:\n        /* \"#utility.yul\":9705:9801   */\n      swap1\n      pop\n        /* \"#utility.yul\":9475:9808   */\n      swap4\n      swap3\n      pop\n      pop\n      pop\n      jump\t// out\n        /* \"#utility.yul\":9814:9979   */\n    tag_97:\n        /* \"#utility.yul\":9954:9971   */\n      0x696e76616c696420616464726573730000000000000000000000000000000000\n        /* \"#utility.yul\":9950:9951   */\n      0x00\n        /* \"#utility.yul\":9942:9948   */\n      dup3\n        /* \"#utility.yul\":9938:9952   */\n      add\n        /* \"#utility.yul\":9931:9972   */\n      mstore\n        /* \"#utility.yul\":9814:9979   */\n      pop\n      jump\t// out\n        /* \"#utility.yul\":9985:10351   */\n    tag_98:\n        /* \"#utility.yul\":10127:10130   */\n      0x00\n        /* \"#utility.yul\":10148:10215   */\n      tag_221\n        /* \"#utility.yul\":10212:10214   */\n      0x0f\n        /* \"#utility.yul\":10207:10210   */\n      dup4\n        /* \"#utility.yul\":10148:10215   */\n      tag_64\n      jump\t// in\n    tag_221:\n        /* \"#utility.yul\":10141:10215   */\n      swap2\n      pop\n        /* \"#utility.yul\":10224:10317   */\n      tag_222\n        /* \"#utility.yul\":10313:10316   */\n      dup3\n        /* \"#utility.yul\":10224:10317   */\n      tag_97\n      jump\t// in\n    tag_222:\n        /* \"#utility.yul\":10342:10344   */\n      0x20\n        /* \"#utility.yul\":10337:10340   */\n      dup3\n        /* \"#utility.yul\":10333:10345   */\n      add\n        /* \"#utility.yul\":10326:10345   */\n      swap1\n      pop\n        /* \"#utility.yul\":9985:10351   */\n      swap2\n      swap1\n      pop\n      jump\t// out\n        /* \"#utility.yul\":10357:10776   */\n    tag_51:\n        /* \"#utility.yul\":10523:10527   */\n      0x00\n        /* \"#utility.yul\":10561:10563   */\n      0x20\n        /* \"#utility.yul\":10550:10559   */\n      dup3\n        /* \"#utility.yul\":10546:10564   */\n      add\n        /* \"#utility.yul\":10538:10564   */\n      swap1\n      pop\n        /* \"#utility.yul\":10610:10619   */\n      dup2\n        /* \"#utility.yul\":10604:10608   */\n      dup2\n        /* \"#utility.yul\":10600:10620   */\n      sub\n        /* \"#utility.yul\":10596:10597   */\n      0x00\n        /* \"#utility.yul\":10585:10594   */\n      dup4\n        /* \"#utility.yul\":10581:10598   */\n      add\n        /* \"#utility.yul\":10574:10621   */\n      mstore\n        /* \"#utility.yul\":10638:10769   */\n      tag_224\n        /* \"#utility.yul\":10764:10768   */\n      dup2\n        /* \"#utility.yul\":10638:10769   */\n      tag_98\n      jump\t// in\n    tag_224:\n        /* \"#utility.yul\":10630:10769   */\n      swap1\n      pop\n        /* \"#utility.yul\":10357:10776   */\n      swap2\n      swap1\n      pop\n      jump\t// out\n        /* \"#utility.yul\":10782:10962   */\n    tag_99:\n        /* \"#utility.yul\":10830:10907   */\n      0x4e487b7100000000000000000000000000000000000000000000000000000000\n        /* \"#utility.yul\":10827:10828   */\n      0x00\n        /* \"#utility.yul\":10820:10908   */\n      mstore\n        /* \"#utility.yul\":10927:10931   */\n      0x11\n        /* \"#utility.yul\":10924:10925   */\n      0x04\n        /* \"#utility.yul\":10917:10932   */\n      mstore\n        /* \"#utility.yul\":10951:10955   */\n      0x24\n        /* \"#utility.yul\":10948:10949   */\n      0x00\n        /* \"#utility.yul\":10941:10956   */\n      revert\n        /* \"#utility.yul\":10968:11159   */\n    tag_53:\n        /* \"#utility.yul\":11008:11011   */\n      0x00\n        /* \"#utility.yul\":11027:11047   */\n      tag_227\n        /* \"#utility.yul\":11045:11046   */\n      dup3\n        /* \"#utility.yul\":11027:11047   */\n      tag_87\n      jump\t// in\n    tag_227:\n        /* \"#utility.yul\":11022:11047   */\n      swap2\n      pop\n        /* \"#utility.yul\":11061:11081   */\n      tag_228\n        /* \"#utility.yul\":11079:11080   */\n      dup4\n        /* \"#utility.yul\":11061:11081   */\n      tag_87\n      jump\t// in\n    tag_228:\n        /* \"#utility.yul\":11056:11081   */\n      swap3\n      pop\n        /* \"#utility.yul\":11104:11105   */\n      dup3\n        /* \"#utility.yul\":11101:11102   */\n      dup3\n        /* \"#utility.yul\":11097:11106   */\n      add\n        /* \"#utility.yul\":11090:11106   */\n      swap1\n      pop\n        /* \"#utility.yul\":11125:11128   */\n      dup1\n        /* \"#utility.yul\":11122:11123   */\n      dup3\n        /* \"#utility.yul\":11119:11129   */\n      gt\n        /* \"#utility.yul\":11116:11152   */\n      iszero\n      tag_229\n      jumpi\n        /* \"#utility.yul\":11132:11150   */\n      tag_230\n      tag_99\n      jump\t// in\n    tag_230:\n        /* \"#utility.yul\":11116:11152   */\n    tag_229:\n        /* \"#utility.yul\":10968:11159   */\n      swap3\n      swap2\n      pop\n      pop\n      jump\t// out\n        /* \"#utility.yul\":11165:11345   */\n    tag_100:\n        /* \"#utility.yul\":11213:11290   */\n      0x4e487b7100000000000000000000000000000000000000000000000000000000\n        /* \"#utility.yul\":11210:11211   */\n      0x00\n        /* \"#utility.yul\":11203:11291   */\n      mstore\n        /* \"#utility.yul\":11310:11314   */\n      0x22\n        /* \"#utility.yul\":11307:11308   */\n      0x04\n        /* \"#utility.yul\":11300:11315   */\n      mstore\n        /* \"#utility.yul\":11334:11338   */\n      0x24\n        /* \"#utility.yul\":11331:11332   */\n      0x00\n        /* \"#utility.yul\":11324:11339   */\n      revert\n        /* \"#utility.yul\":11351:11671   */\n    tag_59:\n        /* \"#utility.yul\":11395:11401   */\n      0x00\n        /* \"#utility.yul\":11432:11433   */\n      0x02\n        /* \"#utility.yul\":11426:11430   */\n      dup3\n        /* \"#utility.yul\":11422:11434   */\n      div\n        /* \"#utility.yul\":11412:11434   */\n      swap1\n      pop\n        /* \"#utility.yul\":11479:11480   */\n      0x01\n        /* \"#utility.yul\":11473:11477   */\n      dup3\n        /* \"#utility.yul\":11469:11481   */\n      and\n        /* \"#utility.yul\":11500:11518   */\n      dup1\n        /* \"#utility.yul\":11490:11571   */\n      tag_233\n      jumpi\n        /* \"#utility.yul\":11556:11560   */\n      0x7f\n        /* \"#utility.yul\":11548:11554   */\n      dup3\n        /* \"#utility.yul\":11544:11561   */\n      and\n        /* \"#utility.yul\":11534:11561   */\n      swap2\n      pop\n        /* \"#utility.yul\":11490:11571   */\n    tag_233:\n        /* \"#utility.yul\":11618:11620   */\n      0x20\n        /* \"#utility.yul\":11610:11616   */\n      dup3\n        /* \"#utility.yul\":11607:11621   */\n      lt\n        /* \"#utility.yul\":11587:11605   */\n      dup2\n        /* \"#utility.yul\":11584:11622   */\n      sub\n        /* \"#utility.yul\":11581:11665   */\n      tag_234\n      jumpi\n        /* \"#utility.yul\":11637:11655   */\n      tag_235\n      tag_100\n      jump\t// in\n    tag_235:\n        /* \"#utility.yul\":11581:11665   */\n    tag_234:\n        /* \"#utility.yul\":11402:11671   */\n      pop\n        /* \"#utility.yul\":11351:11671   */\n      swap2\n      swap1\n      pop\n      jump\t// out\n        /* \"#utility.yul\":11677:11818   */\n    tag_101:\n        /* \"#utility.yul\":11726:11730   */\n      0x00\n        /* \"#utility.yul\":11749:11752   */\n      dup2\n        /* \"#utility.yul\":11741:11752   */\n      swap1\n      pop\n        /* \"#utility.yul\":11772:11775   */\n      dup2\n        /* \"#utility.yul\":11769:11770   */\n      0x00\n        /* \"#utility.yul\":11762:11776   */\n      mstore\n        /* \"#utility.yul\":11806:11810   */\n      0x20\n        /* \"#utility.yul\":11803:11804   */\n      0x00\n        /* \"#utility.yul\":11793:11811   */\n      keccak256\n        /* \"#utility.yul\":11785:11811   */\n      swap1\n      pop\n        /* \"#utility.yul\":11677:11818   */\n      swap2\n      swap1\n      pop\n      jump\t// out\n        /* \"#utility.yul\":11824:11917   */\n    tag_102:\n        /* \"#utility.yul\":11861:11867   */\n      0x00\n        /* \"#utility.yul\":11908:11910   */\n      0x20\n        /* \"#utility.yul\":11903:11905   */\n      0x1f\n        /* \"#utility.yul\":11896:11901   */\n      dup4\n        /* \"#utility.yul\":11892:11906   */\n      add\n        /* \"#utility.yul\":11888:11911   */\n      div\n        /* \"#utility.yul\":11878:11911   */\n      swap1\n      pop\n        /* \"#utility.yul\":11824:11917   */\n      swap2\n      swap1\n      pop\n      jump\t// out\n        /* \"#utility.yul\":11923:12030   */\n    tag_103:\n        /* \"#utility.yul\":11967:11975   */\n      0x00\n        /* \"#utility.yul\":12017:12022   */\n      dup3\n        /* \"#utility.yul\":12011:12015   */\n      dup3\n        /* \"#utility.yul\":12007:12023   */\n      shl\n        /* \"#utility.yul\":11986:12023   */\n      swap1\n      pop\n        /* \"#utility.yul\":11923:12030   */\n      swap3\n      swap2\n      pop\n      pop\n      jump\t// out\n        /* \"#utility.yul\":12036:12429   */\n    tag_104:\n        /* \"#utility.yul\":12105:12111   */\n      0x00\n        /* \"#utility.yul\":12155:12156   */\n      0x08\n        /* \"#utility.yul\":12143:12153   */\n      dup4\n        /* \"#utility.yul\":12139:12157   */\n      mul\n        /* \"#utility.yul\":12178:12275   */\n      tag_240\n        /* \"#utility.yul\":12208:12274   */\n      0xffffffffffffffffffffffffffffffffffffffffffffffffffffffffffffffff\n        /* \"#utility.yul\":12197:12206   */\n      dup3\n        /* \"#utility.yul\":12178:12275   */\n      tag_103\n      jump\t// in\n    tag_240:\n        /* \"#utility.yul\":12296:12335   */\n      tag_241\n        /* \"#utility.yul\":12326:12334   */\n      dup7\n        /* \"#utility.yul\":12315:12324   */\n      dup4\n        /* \"#utility.yul\":12296:12335   */\n      tag_103\n      jump\t// in\n    tag_241:\n        /* \"#utility.yul\":12284:12335   */\n      swap6\n      pop\n        /* \"#utility.yul\":12368:12372   */\n      dup1\n        /* \"#utility.yul\":12364:12373   */\n      not\n        /* \"#utility.yul\":12357:12362   */\n      dup5\n        /* \"#utility.yul\":12353:12374   */\n      and\n        /* \"#utility.yul\":12344:12374   */\n      swap4\n      pop\n        /* \"#utility.yul\":12417:12421   */\n      dup1\n        /* \"#utility.yul\":12407:12415   */\n      dup7\n        /* \"#utility.yul\":12403:12422   */\n      and\n        /* \"#utility.yul\":12396:12401   */\n      dup5\n        /* \"#utility.yul\":12393:12423   */\n      or\n        /* \"#utility.yul\":12383:12423   */\n      swap3\n      pop\n        /* \"#utility.yul\":12112:12429   */\n      pop\n      pop\n        /* \"#utility.yul\":12036:12429   */\n      swap4\n      swap3\n      pop\n      pop\n      pop\n      jump\t// out\n        /* \"#utility.yul\":12435:12495   */\n    tag_105:\n        /* \"#utility.yul\":12463:12466   */\n      0x00\n        /* \"#utility.yul\":12484:12489   */\n      dup2\n        /* \"#utility.yul\":12477:12489   */\n      swap1\n      pop\n        /* \"#utility.yul\":12435:12495   */\n      swap2\n      swap1\n      pop\n      jump\t// out\n        /* \"#utility.yul\":12501:12643   */\n    tag_106:\n        /* \"#utility.yul\":12551:12560   */\n      0x00\n        /* \"#utility.yul\":12584:12637   */\n      tag_244\n        /* \"#utility.yul\":12602:12636   */\n      tag_245\n        /* \"#utility.yul\":12611:12635   */\n      tag_246\n        /* \"#utility.yul\":12629:12634   */\n      dup5\n        /* \"#utility.yul\":12611:12635   */\n      tag_87\n      jump\t// in\n    tag_246:\n        /* \"#utility.yul\":12602:12636   */\n      tag_105\n      jump\t// in\n    tag_245:\n        /* \"#utility.yul\":12584:12637   */\n      tag_87\n      jump\t// in\n    tag_244:\n        /* \"#utility.yul\":12571:12637   */\n      swap1\n      pop\n        /* \"#utility.yul\":12501:12643   */\n      swap2\n      swap1\n      pop\n      jump\t// out\n        /* \"#utility.yul\":12649:12724   */\n    tag_107:\n        /* \"#utility.yul\":12692:12695   */\n      0x00\n        /* \"#utility.yul\":12713:12718   */\n      dup2\n        /* \"#utility.yul\":12706:12718   */\n      swap1\n      pop\n        /* \"#utility.yul\":12649:12724   */\n      swap2\n      swap1\n      pop\n      jump\t// out\n        /* \"#utility.yul\":12730:12999   */\n    tag_108:\n        /* \"#utility.yul\":12840:12879   */\n      tag_249\n        /* \"#utility.yul\":12871:12878   */\n      dup4\n        /* \"#utility.yul\":12840:12879   */\n      tag_106\n      jump\t// in\n    tag_249:\n        /* \"#utility.yul\":12901:12992   */\n      tag_250\n        /* \"#utility.yul\":12950:12991   */\n      tag_251\n        /* \"#utility.yul\":12974:12990   */\n      dup3\n        /* \"#utility.yul\":12950:12991   */\n      tag_107\n      jump\t// in\n    tag_251:\n        /* \"#utility.yul\":12942:12948   */\n      dup5\n        /* \"#utility.yul\":12935:12939   */\n      dup5\n        /* \"#utility.yul\":12929:12940   */\n      sload\n        /* \"#utility.yul\":12901:12992   */\n      tag_104\n      jump\t// in\n    tag_250:\n        /* \"#utility.yul\":12895:12899   */\n      dup3\n        /* \"#utility.yul\":12888:12993   */\n      sstore\n        /* \"#utility.yul\":12806:12999   */\n      pop\n        /* \"#utility.yul\":12730:12999   */\n      pop\n      pop\n      pop\n      jump\t// out\n        /* \"#utility.yul\":13005:13078   */\n    tag_109:\n        /* \"#utility.yul\":13050:13053   */\n      0x00\n        /* \"#utility.yul\":13005:13078   */\n      swap1\n      jump\t// out\n        /* \"#utility.yul\":13084:13273   */\n    tag_110:\n        /* \"#utility.yul\":13161:13193   */\n      tag_254\n      tag_109\n      jump\t// in\n    tag_254:\n        /* \"#utility.yul\":13202:13267   */\n      tag_255\n        /* \"#utility.yul\":13260:13266   */\n      dup2\n        /* \"#utility.yul\":13252:13258   */\n      dup5\n        /* \"#utility.yul\":13246:13250   */\n      dup5\n        /* \"#utility.yul\":13202:13267   */\n      tag_108\n      jump\t// in\n    tag_255:\n        /* \"#utility.yul\":13137:13273   */\n      pop\n        /* \"#utility.yul\":13084:13273   */\n      pop\n      pop\n      jump\t// out\n        /* \"#utility.yul\":13279:13465   */\n    tag_111:\n        /* \"#utility.yul\":13339:13459   */\n    tag_257:\n        /* \"#utility.yul\":13356:13359   */\n      dup2\n        /* \"#utility.yul\":13349:13354   */\n      dup2\n        /* \"#utility.yul\":13346:13360   */\n      lt\n        /* \"#utility.yul\":13339:13459   */\n      iszero\n      tag_259\n      jumpi\n        /* \"#utility.yul\":13410:13449   */\n      tag_260\n        /* \"#utility.yul\":13447:13448   */\n      0x00\n        /* \"#utility.yul\":13440:13445   */\n      dup3\n        /* \"#utility.yul\":13410:13449   */\n      tag_110\n      jump\t// in\n    tag_260:\n        /* \"#utility.yul\":13383:13384   */\n      0x01\n        /* \"#utility.yul\":13376:13381   */\n      dup2\n        /* \"#utility.yul\":13372:13385   */\n      add\n        /* \"#utility.yul\":13363:13385   */\n      swap1\n      pop\n        /* \"#utility.yul\":13339:13459   */\n      jump(tag_257)\n    tag_259:\n        /* \"#utility.yul\":13279:13465   */\n      pop\n      pop\n      jump\t// out\n        /* \"#utility.yul\":13471:14014   */\n    tag_112:\n        /* \"#utility.yul\":13572:13574   */\n      0x1f\n        /* \"#utility.yul\":13567:13570   */\n      dup3\n        /* \"#utility.yul\":13564:13575   */\n      gt\n        /* \"#utility.yul\":13561:14007   */\n      iszero\n      tag_262\n      jumpi\n        /* \"#utility.yul\":13606:13644   */\n      tag_263\n        /* \"#utility.yul\":13638:13643   */\n      dup2\n        /* \"#utility.yul\":13606:13644   */\n      tag_101\n      jump\t// in\n    tag_263:\n        /* \"#utility.yul\":13690:13719   */\n      tag_264\n        /* \"#utility.yul\":13708:13718   */\n      dup5\n        /* \"#utility.yul\":13690:13719   */\n      tag_102\n      jump\t// in\n    tag_264:\n        /* \"#utility.yul\":13680:13688   */\n      dup2\n        /* \"#utility.yul\":13676:13720   */\n      add\n        /* \"#utility.yul\":13873:13875   */\n      0x20\n        /* \"#utility.yul\":13861:13871   */\n      dup6\n        /* \"#utility.yul\":13858:13876   */\n      lt\n        /* \"#utility.yul\":13855:13904   */\n      iszero\n      tag_265\n      jumpi\n        /* \"#utility.yul\":13894:13902   */\n      dup2\n        /* \"#utility.yul\":13879:13902   */\n      swap1\n      pop\n        /* \"#utility.yul\":13855:13904   */\n    tag_265:\n        /* \"#utility.yul\":13917:13997   */\n      tag_266\n        /* \"#utility.yul\":13973:13995   */\n      tag_267\n        /* \"#utility.yul\":13991:13994   */\n      dup6\n        /* \"#utility.yul\":13973:13995   */\n      tag_102\n      jump\t// in\n    tag_267:\n        /* \"#utility.yul\":13963:13971   */\n      dup4\n        /* \"#utility.yul\":13959:13996   */\n      add\n        /* \"#utility.yul\":13946:13957   */\n      dup3\n        /* \"#utility.yul\":13917:13997   */\n      tag_111\n      jump\t// in\n    tag_266:\n        /* \"#utility.yul\":13576:14007   */\n      pop\n      pop\n        /* \"#utility.yul\":13561:14007   */\n    tag_262:\n        /* \"#utility.yul\":13471:14014   */\n      pop\n      pop\n      pop\n      jump\t// out\n        /* \"#utility.yul\":14020:14137   */\n    tag_113:\n        /* \"#utility.yul\":14074:14082   */\n      0x00\n        /* \"#utility.yul\":14124:14129   */\n      dup3\n        /* \"#utility.yul\":14118:14122   */\n      dup3\n        /* \"#utility.yul\":14114:14130   */\n      shr\n        /* \"#utility.yul\":14093:14130   */\n      swap1\n      pop\n        /* \"#utility.yul\":14020:14137   */\n      swap3\n      swap2\n      pop\n      pop\n      jump\t// out\n        /* \"#utility.yul\":14143:14312   */\n    tag_114:\n        /* \"#utility.yul\":14187:14193   */\n      0x00\n        /* \"#utility.yul\":14220:14271   */\n      tag_270\n        /* \"#utility.yul\":14268:14269   */\n      0x00\n        /* \"#utility.yul\":14264:14270   */\n      not\n        /* \"#utility.yul\":14256:14261   */\n      dup5\n        /* \"#utility.yul\":14253:14254   */\n      0x08\n        /* \"#utility.yul\":14249:14262   */\n      mul\n        /* \"#utility.yul\":14220:14271   */\n      tag_113\n      jump\t// in\n    tag_270:\n        /* \"#utility.yul\":14216:14272   */\n      not\n        /* \"#utility.yul\":14301:14305   */\n      dup1\n        /* \"#utility.yul\":14295:14299   */\n      dup4\n        /* \"#utility.yul\":14291:14306   */\n      and\n        /* \"#utility.yul\":14281:14306   */\n      swap2\n      pop\n        /* \"#utility.yul\":14194:14312   */\n      pop\n        /* \"#utility.yul\":14143:14312   */\n      swap3\n      swap2\n      pop\n      pop\n      jump\t// out\n        /* \"#utility.yul\":14317:14612   */\n    tag_115:\n        /* \"#utility.yul\":14393:14397   */\n      0x00\n        /* \"#utility.yul\":14539:14568   */\n      tag_272\n        /* \"#utility.yul\":14564:14567   */\n      dup4\n        /* \"#utility.yul\":14558:14562   */\n      dup4\n        /* \"#utility.yul\":14539:14568   */\n      tag_114\n      jump\t// in\n    tag_272:\n        /* \"#utility.yul\":14531:14568   */\n      swap2\n      pop\n        /* \"#utility.yul\":14601:14604   */\n      dup3\n        /* \"#utility.yul\":14598:14599   */\n      0x02\n        /* \"#utility.yul\":14594:14605   */\n      mul\n        /* \"#utility.yul\":14588:14592   */\n      dup3\n        /* \"#utility.yul\":14585:14606   */\n      or\n        /* \"#utility.yul\":14577:14606   */\n      swap1\n      pop\n        /* \"#utility.yul\":14317:14612   */\n      swap3\n      swap2\n      pop\n      pop\n      jump\t// out\n        /* \"#utility.yul\":14617:16012   */\n    tag_55:\n        /* \"#utility.yul\":14734:14771   */\n      tag_274\n        /* \"#utility.yul\":14767:14770   */\n      dup3\n        /* \"#utility.yul\":14734:14771   */\n      tag_89\n      jump\t// in\n    tag_274:\n        /* \"#utility.yul\":14836:14854   */\n      0xffffffffffffffff\n        /* \"#utility.yul\":14828:14834   */\n      dup2\n        /* \"#utility.yul\":14825:14855   */\n      gt\n        /* \"#utility.yul\":14822:14878   */\n      iszero\n      tag_275\n      jumpi\n        /* \"#utility.yul\":14858:14876   */\n      tag_276\n      tag_80\n      jump\t// in\n    tag_276:\n        /* \"#utility.yul\":14822:14878   */\n    tag_275:\n        /* \"#utility.yul\":14902:14940   */\n      tag_277\n        /* \"#utility.yul\":14934:14938   */\n      dup3\n        /* \"#utility.yul\":14928:14939   */\n      sload\n        /* \"#utility.yul\":14902:14940   */\n      tag_59\n      jump\t// in\n    tag_277:\n        /* \"#utility.yul\":14987:15054   */\n      tag_278\n        /* \"#utility.yul\":15047:15053   */\n      dup3\n        /* \"#utility.yul\":15039:15045   */\n      dup3\n        /* \"#utility.yul\":15033:15037   */\n      dup6\n        /* \"#utility.yul\":14987:15054   */\n      tag_112\n      jump\t// in\n    tag_278:\n        /* \"#utility.yul\":15081:15082   */\n      0x00\n        /* \"#utility.yul\":15105:15109   */\n      0x20\n        /* \"#utility.yul\":15092:15109   */\n      swap1\n      pop\n        /* \"#utility.yul\":15137:15139   */\n      0x1f\n        /* \"#utility.yul\":15129:15135   */\n      dup4\n        /* \"#utility.yul\":15126:15140   */\n      gt\n        /* \"#utility.yul\":15154:15155   */\n      0x01\n        /* \"#utility.yul\":15149:15767   */\n      dup2\n      eq\n      tag_280\n      jumpi\n        /* \"#utility.yul\":15811:15812   */\n      0x00\n        /* \"#utility.yul\":15828:15834   */\n      dup5\n        /* \"#utility.yul\":15825:15902   */\n      iszero\n      tag_281\n      jumpi\n        /* \"#utility.yul\":15877:15886   */\n      dup3\n        /* \"#utility.yul\":15872:15875   */\n      dup8\n        /* \"#utility.yul\":15868:15887   */\n      add\n        /* \"#utility.yul\":15862:15888   */\n      mload\n        /* \"#utility.yul\":15853:15888   */\n      swap1\n      pop\n        /* \"#utility.yul\":15825:15902   */\n    tag_281:\n        /* \"#utility.yul\":15928:15995   */\n      tag_282\n        /* \"#utility.yul\":15988:15994   */\n      dup6\n        /* \"#utility.yul\":15981:15986   */\n      dup3\n        /* \"#utility.yul\":15928:15995   */\n      tag_115\n      jump\t// in\n    tag_282:\n        /* \"#utility.yul\":15922:15926   */\n      dup7\n        /* \"#utility.yul\":15915:15996   */\n      sstore\n        /* \"#utility.yul\":15784:16006   */\n      pop\n        /* \"#utility.yul\":15119:16006   */\n      jump(tag_279)\n        /* \"#utility.yul\":15149:15767   */\n    tag_280:\n        /* \"#utility.yul\":15201:15205   */\n      0x1f\n        /* \"#utility.yul\":15197:15206   */\n      not\n        /* \"#utility.yul\":15189:15195   */\n      dup5\n        /* \"#utility.yul\":15185:15207   */\n      and\n        /* \"#utility.yul\":15235:15272   */\n      tag_283\n        /* \"#utility.yul\":15267:15271   */\n      dup7\n        /* \"#utility.yul\":15235:15272   */\n      tag_101\n      jump\t// in\n    tag_283:\n        /* \"#utility.yul\":15294:15295   */\n      0x00\n        /* \"#utility.yul\":15308:15516   */\n    tag_284:\n        /* \"#utility.yul\":15322:15329   */\n      dup3\n        /* \"#utility.yul\":15319:15320   */\n      dup2\n        /* \"#utility.yul\":15316:15330   */\n      lt\n        /* \"#utility.yul\":15308:15516   */\n      iszero\n      tag_286\n      jumpi\n        /* \"#utility.yul\":15401:15410   */\n      dup5\n        /* \"#utility.yul\":15396:15399   */\n      dup10\n        /* \"#utility.yul\":15392:15411   */\n      add\n        /* \"#utility.yul\":15386:15412   */\n      mload\n        /* \"#utility.yul\":15378:15384   */\n      dup3\n        /* \"#utility.yul\":15371:15413   */\n      sstore\n        /* \"#utility.yul\":15452:15453   */\n      0x01\n        /* \"#utility.yul\":15444:15450   */\n      dup3\n        /* \"#utility.yul\":15440:15454   */\n      add\n        /* \"#utility.yul\":15430:15454   */\n      swap2\n      pop\n        /* \"#utility.yul\":15499:15501   */\n      0x20\n        /* \"#utility.yul\":15488:15497   */\n      dup6\n        /* \"#utility.yul\":15484:15502   */\n      add\n        /* \"#utility.yul\":15471:15502   */\n      swap5\n      pop\n        /* \"#utility.yul\":15345:15349   */\n      0x20\n        /* \"#utility.yul\":15342:15343   */\n      dup2\n        /* \"#utility.yul\":15338:15350   */\n      add\n        /* \"#utility.yul\":15333:15350   */\n      swap1\n      pop\n        /* \"#utility.yul\":15308:15516   */\n      jump(tag_284)\n    tag_286:\n        /* \"#utility.yul\":15544:15550   */\n      dup7\n        /* \"#utility.yul\":15535:15542   */\n      dup4\n        /* \"#utility.yul\":15532:15551   */\n      lt\n        /* \"#utility.yul\":15529:15708   */\n      iszero\n      tag_287\n      jumpi\n        /* \"#utility.yul\":15602:15611   */\n      dup5\n        /* \"#utility.yul\":15597:15600   */\n      dup10\n        /* \"#utility.yul\":15593:15612   */\n      add\n        /* \"#utility.yul\":15587:15613   */\n      mload\n        /* \"#utility.yul\":15645:15693   */\n      tag_288\n        /* \"#utility.yul\":15687:15691   */\n      0x1f\n        /* \"#utility.yul\":15679:15685   */\n      dup10\n        /* \"#utility.yul\":15675:15692   */\n      and\n        /* \"#utility.yul\":15664:15673   */\n      dup3\n        /* \"#utility.yul\":15645:15693   */\n      tag_114\n      jump\t// in\n    tag_288:\n        /* \"#utility.yul\":15637:15643   */\n      dup4\n        /* \"#utility.yul\":15630:15694   */\n      sstore\n        /* \"#utility.yul\":15552:15708   */\n      pop\n        /* \"#utility.yul\":15529:15708   */\n    tag_287:\n        /* \"#utility.yul\":15754:15755   */\n      0x01\n        /* \"#utility.yul\":15750:15751   */\n      0x02\n        /* \"#utility.yul\":15742:15748   */\n      dup9\n        /* \"#utility.yul\":15738:15752   */\n      mul\n        /* \"#utility.yul\":15734:15756   */\n      add\n        /* \"#utility.yul\":15728:15732   */\n      dup9\n        /* \"#utility.yul\":15721:15757   */\n      sstore\n        /* \"#utility.yul\":15156:15767   */\n      pop\n      pop\n      pop\n        /* \"#utility.yul\":15119:16006   */\n    tag_279:\n      pop\n        /* \"#utility.yul\":14709:16012   */\n      pop\n      pop\n      pop\n        /* \"#utility.yul\":14617:16012   */\n      pop\n      pop\n      jump\t// out\n\n    auxdata: 0xa264697066735822122035a2001e84647a57a561d61c963f0927a71a10a1cb6ca533c28347231165e37a64736f6c634300081a0033\n}\n",
				"bytecode": {
					"linkReferences": {},
					"object": "608060405234801561000f575f80fd5b50604051610d31380380610d31833981810160405281019061003191906100d4565b805f806101000a81548173ffffffffffffffffffffffffffffffffffffffff021916908373ffffffffffffffffffffffffffffffffffffffff160217905550506100ff565b5f80fd5b5f73ffffffffffffffffffffffffffffffffffffffff82169050919050565b5f6100a38261007a565b9050919050565b6100b381610099565b81146100bd575f80fd5b50565b5f815190506100ce816100aa565b92915050565b5f602082840312156100e9576100e8610076565b5b5f6100f6848285016100c0565b91505092915050565b610c258061010c5f395ff3fe608060405260043610610058575f3560e01c80636ba94afa146100945780639352fad2146100d05780639e0b54ee146100ec578063e21f37ce14610116578063e2982c2114610140578063f83d08ba1461017c57610059565b5b6040517f08c379a000000000000000000000000000000000000000000000000000000000815260040161008b906103f6565b60405180910390fd5b34801561009f575f80fd5b506100ba60048036038101906100b59190610486565b6101a6565b6040516100c79190610541565b60405180910390f35b6100ea60048036038101906100e59190610689565b6101d2565b005b3480156100f7575f80fd5b506101006102c5565b60405161010d91906106e8565b60405180910390f35b348015610121575f80fd5b5061012a6102d8565b6040516101379190610743565b60405180910390f35b34801561014b575f80fd5b50610166600480360381019061016191906107bd565b610364565b60405161017391906106e8565b60405180910390f35b348015610187575f80fd5b50610190610379565b60405161019d91906107f7565b60405180910390f35b606082826040516020016101bb92919061083c565b604051602081830303815290604052905092915050565b5f8054906101000a900473ffffffffffffffffffffffffffffffffffffffff1673ffffffffffffffffffffffffffffffffffffffff163373ffffffffffffffffffffffffffffffffffffffff161461025f576040517f08c379a0000000000000000000000000000000000000000000000000000000008152600401610256906108a8565b60405180910390fd5b3460025f3373ffffffffffffffffffffffffffffffffffffffff1673ffffffffffffffffffffffffffffffffffffffff1681526020019081526020015f205f8282546102ab91906108f3565b9250508190555080600190816102c19190610b20565b5050565b5f6014426102d391906108f3565b905090565b600180546102e590610953565b80601f016020809104026020016040519081016040528092919081815260200182805461031190610953565b801561035c5780601f106103335761010080835404028352916020019161035c565b820191905f5260205f20905b81548152906001019060200180831161033f57829003601f168201915b505050505081565b6002602052805f5260405f205f915090505481565b5f8054906101000a900473ffffffffffffffffffffffffffffffffffffffff1681565b5f82825260208201905092915050565b7f7573696e672066756e6374696f6e2072657175697265640000000000000000005f82015250565b5f6103e060178361039c565b91506103eb826103ac565b602082019050919050565b5f6020820190508181035f83015261040d816103d4565b9050919050565b5f604051905090565b5f80fd5b5f80fd5b5f80fd5b5f80fd5b5f80fd5b5f8083601f84011261044657610445610425565b5b8235905067ffffffffffffffff81111561046357610462610429565b5b60208301915083600182028301111561047f5761047e61042d565b5b9250929050565b5f806020838503121561049c5761049b61041d565b5b5f83013567ffffffffffffffff8111156104b9576104b8610421565b5b6104c585828601610431565b92509250509250929050565b5f81519050919050565b5f82825260208201905092915050565b8281835e5f83830152505050565b5f601f19601f8301169050919050565b5f610513826104d1565b61051d81856104db565b935061052d8185602086016104eb565b610536816104f9565b840191505092915050565b5f6020820190508181035f8301526105598184610509565b905092915050565b5f80fd5b7f4e487b71000000000000000000000000000000000000000000000000000000005f52604160045260245ffd5b61059b826104f9565b810181811067ffffffffffffffff821117156105ba576105b9610565565b5b80604052505050565b5f6105cc610414565b90506105d88282610592565b919050565b5f67ffffffffffffffff8211156105f7576105f6610565565b5b610600826104f9565b9050602081019050919050565b828183375f83830152505050565b5f61062d610628846105dd565b6105c3565b90508281526020810184848401111561064957610648610561565b5b61065484828561060d565b509392505050565b5f82601f8301126106705761066f610425565b5b813561068084826020860161061b565b91505092915050565b5f6020828403121561069e5761069d61041d565b5b5f82013567ffffffffffffffff8111156106bb576106ba610421565b5b6106c78482850161065c565b91505092915050565b5f819050919050565b6106e2816106d0565b82525050565b5f6020820190506106fb5f8301846106d9565b92915050565b5f81519050919050565b5f61071582610701565b61071f818561039c565b935061072f8185602086016104eb565b610738816104f9565b840191505092915050565b5f6020820190508181035f83015261075b818461070b565b905092915050565b5f73ffffffffffffffffffffffffffffffffffffffff82169050919050565b5f61078c82610763565b9050919050565b61079c81610782565b81146107a6575f80fd5b50565b5f813590506107b781610793565b92915050565b5f602082840312156107d2576107d161041d565b5b5f6107df848285016107a9565b91505092915050565b6107f181610782565b82525050565b5f60208201905061080a5f8301846107e8565b92915050565b5f61081b838561039c565b935061082883858461060d565b610831836104f9565b840190509392505050565b5f6020820190508181035f830152610855818486610810565b90509392505050565b7f696e76616c6964206164647265737300000000000000000000000000000000005f82015250565b5f610892600f8361039c565b915061089d8261085e565b602082019050919050565b5f6020820190508181035f8301526108bf81610886565b9050919050565b7f4e487b71000000000000000000000000000000000000000000000000000000005f52601160045260245ffd5b5f6108fd826106d0565b9150610908836106d0565b92508282019050808211156109205761091f6108c6565b5b92915050565b7f4e487b71000000000000000000000000000000000000000000000000000000005f52602260045260245ffd5b5f600282049050600182168061096a57607f821691505b60208210810361097d5761097c610926565b5b50919050565b5f819050815f5260205f209050919050565b5f6020601f8301049050919050565b5f82821b905092915050565b5f600883026109df7fffffffffffffffffffffffffffffffffffffffffffffffffffffffffffffffff826109a4565b6109e986836109a4565b95508019841693508086168417925050509392505050565b5f819050919050565b5f610a24610a1f610a1a846106d0565b610a01565b6106d0565b9050919050565b5f819050919050565b610a3d83610a0a565b610a51610a4982610a2b565b8484546109b0565b825550505050565b5f90565b610a65610a59565b610a70818484610a34565b505050565b5b81811015610a9357610a885f82610a5d565b600181019050610a76565b5050565b601f821115610ad857610aa981610983565b610ab284610995565b81016020851015610ac1578190505b610ad5610acd85610995565b830182610a75565b50505b505050565b5f82821c905092915050565b5f610af85f1984600802610add565b1980831691505092915050565b5f610b108383610ae9565b9150826002028217905092915050565b610b2982610701565b67ffffffffffffffff811115610b4257610b41610565565b5b610b4c8254610953565b610b57828285610a97565b5f60209050601f831160018114610b88575f8415610b76578287015190505b610b808582610b05565b865550610be7565b601f198416610b9686610983565b5f5b82811015610bbd57848901518255600182019150602085019450602081019050610b98565b86831015610bda5784890151610bd6601f891682610ae9565b8355505b6001600288020188555050505b50505050505056fea264697066735822122035a2001e84647a57a561d61c963f0927a71a10a1cb6ca533c28347231165e37a64736f6c634300081a0033",
					"opcodes": "PUSH1 0x80 PUSH1 0x40 MSTORE CALLVALUE DUP1 ISZERO PUSH2 0xF JUMPI PUSH0 DUP1 REVERT JUMPDEST POP PUSH1 0x40 MLOAD PUSH2 0xD31 CODESIZE SUB DUP1 PUSH2 0xD31 DUP4 CODECOPY DUP2 DUP2 ADD PUSH1 0x40 MSTORE DUP2 ADD SWAP1 PUSH2 0x31 SWAP2 SWAP1 PUSH2 0xD4 JUMP JUMPDEST DUP1 PUSH0 DUP1 PUSH2 0x100 EXP DUP2 SLOAD DUP2 PUSH20 0xFFFFFFFFFFFFFFFFFFFFFFFFFFFFFFFFFFFFFFFF MUL NOT AND SWAP1 DUP4 PUSH20 0xFFFFFFFFFFFFFFFFFFFFFFFFFFFFFFFFFFFFFFFF AND MUL OR SWAP1 SSTORE POP POP PUSH2 0xFF JUMP JUMPDEST PUSH0 DUP1 REVERT JUMPDEST PUSH0 PUSH20 0xFFFFFFFFFFFFFFFFFFFFFFFFFFFFFFFFFFFFFFFF DUP3 AND SWAP1 POP SWAP2 SWAP1 POP JUMP JUMPDEST PUSH0 PUSH2 0xA3 DUP3 PUSH2 0x7A JUMP JUMPDEST SWAP1 POP SWAP2 SWAP1 POP JUMP JUMPDEST PUSH2 0xB3 DUP2 PUSH2 0x99 JUMP JUMPDEST DUP2 EQ PUSH2 0xBD JUMPI PUSH0 DUP1 REVERT JUMPDEST POP JUMP JUMPDEST PUSH0 DUP2 MLOAD SWAP1 POP PUSH2 0xCE DUP2 PUSH2 0xAA JUMP JUMPDEST SWAP3 SWAP2 POP POP JUMP JUMPDEST PUSH0 PUSH1 0x20 DUP3 DUP5 SUB SLT ISZERO PUSH2 0xE9 JUMPI PUSH2 0xE8 PUSH2 0x76 JUMP JUMPDEST JUMPDEST PUSH0 PUSH2 0xF6 DUP5 DUP3 DUP6 ADD PUSH2 0xC0 JUMP JUMPDEST SWAP2 POP POP SWAP3 SWAP2 POP POP JUMP JUMPDEST PUSH2 0xC25 DUP1 PUSH2 0x10C PUSH0 CODECOPY PUSH0 RETURN INVALID PUSH1 0x80 PUSH1 0x40 MSTORE PUSH1 0x4 CALLDATASIZE LT PUSH2 0x58 JUMPI PUSH0 CALLDATALOAD PUSH1 0xE0 SHR DUP1 PUSH4 0x6BA94AFA EQ PUSH2 0x94 JUMPI DUP1 PUSH4 0x9352FAD2 EQ PUSH2 0xD0 JUMPI DUP1 PUSH4 0x9E0B54EE EQ PUSH2 0xEC JUMPI DUP1 PUSH4 0xE21F37CE EQ PUSH2 0x116 JUMPI DUP1 PUSH4 0xE2982C21 EQ PUSH2 0x140 JUMPI DUP1 PUSH4 0xF83D08BA EQ PUSH2 0x17C JUMPI PUSH2 0x59 JUMP JUMPDEST JUMPDEST PUSH1 0x40 MLOAD PUSH32 0x8C379A000000000000000000000000000000000000000000000000000000000 DUP2 MSTORE PUSH1 0x4 ADD PUSH2 0x8B SWAP1 PUSH2 0x3F6 JUMP JUMPDEST PUSH1 0x40 MLOAD DUP1 SWAP2 SUB SWAP1 REVERT JUMPDEST CALLVALUE DUP1 ISZERO PUSH2 0x9F JUMPI PUSH0 DUP1 REVERT JUMPDEST POP PUSH2 0xBA PUSH1 0x4 DUP1 CALLDATASIZE SUB DUP2 ADD SWAP1 PUSH2 0xB5 SWAP2 SWAP1 PUSH2 0x486 JUMP JUMPDEST PUSH2 0x1A6 JUMP JUMPDEST PUSH1 0x40 MLOAD PUSH2 0xC7 SWAP2 SWAP1 PUSH2 0x541 JUMP JUMPDEST PUSH1 0x40 MLOAD DUP1 SWAP2 SUB SWAP1 RETURN JUMPDEST PUSH2 0xEA PUSH1 0x4 DUP1 CALLDATASIZE SUB DUP2 ADD SWAP1 PUSH2 0xE5 SWAP2 SWAP1 PUSH2 0x689 JUMP JUMPDEST PUSH2 0x1D2 JUMP JUMPDEST STOP JUMPDEST CALLVALUE DUP1 ISZERO PUSH2 0xF7 JUMPI PUSH0 DUP1 REVERT JUMPDEST POP PUSH2 0x100 PUSH2 0x2C5 JUMP JUMPDEST PUSH1 0x40 MLOAD PUSH2 0x10D SWAP2 SWAP1 PUSH2 0x6E8 JUMP JUMPDEST PUSH1 0x40 MLOAD DUP1 SWAP2 SUB SWAP1 RETURN JUMPDEST CALLVALUE DUP1 ISZERO PUSH2 0x121 JUMPI PUSH0 DUP1 REVERT JUMPDEST POP PUSH2 0x12A PUSH2 0x2D8 JUMP JUMPDEST PUSH1 0x40 MLOAD PUSH2 0x137 SWAP2 SWAP1 PUSH2 0x743 JUMP JUMPDEST PUSH1 0x40 MLOAD DUP1 SWAP2 SUB SWAP1 RETURN JUMPDEST CALLVALUE DUP1 ISZERO PUSH2 0x14B JUMPI PUSH0 DUP1 REVERT JUMPDEST POP PUSH2 0x166 PUSH1 0x4 DUP1 CALLDATASIZE SUB DUP2 ADD SWAP1 PUSH2 0x161 SWAP2 SWAP1 PUSH2 0x7BD JUMP JUMPDEST PUSH2 0x364 JUMP JUMPDEST PUSH1 0x40 MLOAD PUSH2 0x173 SWAP2 SWAP1 PUSH2 0x6E8 JUMP JUMPDEST PUSH1 0x40 MLOAD DUP1 SWAP2 SUB SWAP1 RETURN JUMPDEST CALLVALUE DUP1 ISZERO PUSH2 0x187 JUMPI PUSH0 DUP1 REVERT JUMPDEST POP PUSH2 0x190 PUSH2 0x379 JUMP JUMPDEST PUSH1 0x40 MLOAD PUSH2 0x19D SWAP2 SWAP1 PUSH2 0x7F7 JUMP JUMPDEST PUSH1 0x40 MLOAD DUP1 SWAP2 SUB SWAP1 RETURN JUMPDEST PUSH1 0x60 DUP3 DUP3 PUSH1 0x40 MLOAD PUSH1 0x20 ADD PUSH2 0x1BB SWAP3 SWAP2 SWAP1 PUSH2 0x83C JUMP JUMPDEST PUSH1 0x40 MLOAD PUSH1 0x20 DUP2 DUP4 SUB SUB DUP2 MSTORE SWAP1 PUSH1 0x40 MSTORE SWAP1 POP SWAP3 SWAP2 POP POP JUMP JUMPDEST PUSH0 DUP1 SLOAD SWAP1 PUSH2 0x100 EXP SWAP1 DIV PUSH20 0xFFFFFFFFFFFFFFFFFFFFFFFFFFFFFFFFFFFFFFFF AND PUSH20 0xFFFFFFFFFFFFFFFFFFFFFFFFFFFFFFFFFFFFFFFF AND CALLER PUSH20 0xFFFFFFFFFFFFFFFFFFFFFFFFFFFFFFFFFFFFFFFF AND EQ PUSH2 0x25F JUMPI PUSH1 0x40 MLOAD PUSH32 0x8C379A000000000000000000000000000000000000000000000000000000000 DUP2 MSTORE PUSH1 0x4 ADD PUSH2 0x256 SWAP1 PUSH2 0x8A8 JUMP JUMPDEST PUSH1 0x40 MLOAD DUP1 SWAP2 SUB SWAP1 REVERT JUMPDEST CALLVALUE PUSH1 0x2 PUSH0 CALLER PUSH20 0xFFFFFFFFFFFFFFFFFFFFFFFFFFFFFFFFFFFFFFFF AND PUSH20 0xFFFFFFFFFFFFFFFFFFFFFFFFFFFFFFFFFFFFFFFF AND DUP2 MSTORE PUSH1 0x20 ADD SWAP1 DUP2 MSTORE PUSH1 0x20 ADD PUSH0 KECCAK256 PUSH0 DUP3 DUP3 SLOAD PUSH2 0x2AB SWAP2 SWAP1 PUSH2 0x8F3 JUMP JUMPDEST SWAP3 POP POP DUP2 SWAP1 SSTORE POP DUP1 PUSH1 0x1 SWAP1 DUP2 PUSH2 0x2C1 SWAP2 SWAP1 PUSH2 0xB20 JUMP JUMPDEST POP POP JUMP JUMPDEST PUSH0 PUSH1 0x14 TIMESTAMP PUSH2 0x2D3 SWAP2 SWAP1 PUSH2 0x8F3 JUMP JUMPDEST SWAP1 POP SWAP1 JUMP JUMPDEST PUSH1 0x1 DUP1 SLOAD PUSH2 0x2E5 SWAP1 PUSH2 0x953 JUMP JUMPDEST DUP1 PUSH1 0x1F ADD PUSH1 0x20 DUP1 SWAP2 DIV MUL PUSH1 0x20 ADD PUSH1 0x40 MLOAD SWAP1 DUP2 ADD PUSH1 0x40 MSTORE DUP1 SWAP3 SWAP2 SWAP1 DUP2 DUP2 MSTORE PUSH1 0x20 ADD DUP3 DUP1 SLOAD PUSH2 0x311 SWAP1 PUSH2 0x953 JUMP JUMPDEST DUP1 ISZERO PUSH2 0x35C JUMPI DUP1 PUSH1 0x1F LT PUSH2 0x333 JUMPI PUSH2 0x100 DUP1 DUP4 SLOAD DIV MUL DUP4 MSTORE SWAP2 PUSH1 0x20 ADD SWAP2 PUSH2 0x35C JUMP JUMPDEST DUP3 ADD SWAP2 SWAP1 PUSH0 MSTORE PUSH1 0x20 PUSH0 KECCAK256 SWAP1 JUMPDEST DUP2 SLOAD DUP2 MSTORE SWAP1 PUSH1 0x1 ADD SWAP1 PUSH1 0x20 ADD DUP1 DUP4 GT PUSH2 0x33F JUMPI DUP3 SWAP1 SUB PUSH1 0x1F AND DUP3 ADD SWAP2 JUMPDEST POP POP POP POP POP DUP2 JUMP JUMPDEST PUSH1 0x2 PUSH1 0x20 MSTORE DUP1 PUSH0 MSTORE PUSH1 0x40 PUSH0 KECCAK256 PUSH0 SWAP2 POP SWAP1 POP SLOAD DUP2 JUMP JUMPDEST PUSH0 DUP1 SLOAD SWAP1 PUSH2 0x100 EXP SWAP1 DIV PUSH20 0xFFFFFFFFFFFFFFFFFFFFFFFFFFFFFFFFFFFFFFFF AND DUP2 JUMP JUMPDEST PUSH0 DUP3 DUP3 MSTORE PUSH1 0x20 DUP3 ADD SWAP1 POP SWAP3 SWAP2 POP POP JUMP JUMPDEST PUSH32 0x7573696E672066756E6374696F6E207265717569726564000000000000000000 PUSH0 DUP3 ADD MSTORE POP JUMP JUMPDEST PUSH0 PUSH2 0x3E0 PUSH1 0x17 DUP4 PUSH2 0x39C JUMP JUMPDEST SWAP2 POP PUSH2 0x3EB DUP3 PUSH2 0x3AC JUMP JUMPDEST PUSH1 0x20 DUP3 ADD SWAP1 POP SWAP2 SWAP1 POP JUMP JUMPDEST PUSH0 PUSH1 0x20 DUP3 ADD SWAP1 POP DUP2 DUP2 SUB PUSH0 DUP4 ADD MSTORE PUSH2 0x40D DUP2 PUSH2 0x3D4 JUMP JUMPDEST SWAP1 POP SWAP2 SWAP1 POP JUMP JUMPDEST PUSH0 PUSH1 0x40 MLOAD SWAP1 POP SWAP1 JUMP JUMPDEST PUSH0 DUP1 REVERT JUMPDEST PUSH0 DUP1 REVERT JUMPDEST PUSH0 DUP1 REVERT JUMPDEST PUSH0 DUP1 REVERT JUMPDEST PUSH0 DUP1 REVERT JUMPDEST PUSH0 DUP1 DUP4 PUSH1 0x1F DUP5 ADD SLT PUSH2 0x446 JUMPI PUSH2 0x445 PUSH2 0x425 JUMP JUMPDEST JUMPDEST DUP3 CALLDATALOAD SWAP1 POP PUSH8 0xFFFFFFFFFFFFFFFF DUP2 GT ISZERO PUSH2 0x463 JUMPI PUSH2 0x462 PUSH2 0x429 JUMP JUMPDEST JUMPDEST PUSH1 0x20 DUP4 ADD SWAP2 POP DUP4 PUSH1 0x1 DUP3 MUL DUP4 ADD GT ISZERO PUSH2 0x47F JUMPI PUSH2 0x47E PUSH2 0x42D JUMP JUMPDEST JUMPDEST SWAP3 POP SWAP3 SWAP1 POP JUMP JUMPDEST PUSH0 DUP1 PUSH1 0x20 DUP4 DUP6 SUB SLT ISZERO PUSH2 0x49C JUMPI PUSH2 0x49B PUSH2 0x41D JUMP JUMPDEST JUMPDEST PUSH0 DUP4 ADD CALLDATALOAD PUSH8 0xFFFFFFFFFFFFFFFF DUP2 GT ISZERO PUSH2 0x4B9 JUMPI PUSH2 0x4B8 PUSH2 0x421 JUMP JUMPDEST JUMPDEST PUSH2 0x4C5 DUP6 DUP3 DUP7 ADD PUSH2 0x431 JUMP JUMPDEST SWAP3 POP SWAP3 POP POP SWAP3 POP SWAP3 SWAP1 POP JUMP JUMPDEST PUSH0 DUP2 MLOAD SWAP1 POP SWAP2 SWAP1 POP JUMP JUMPDEST PUSH0 DUP3 DUP3 MSTORE PUSH1 0x20 DUP3 ADD SWAP1 POP SWAP3 SWAP2 POP POP JUMP JUMPDEST DUP3 DUP2 DUP4 MCOPY PUSH0 DUP4 DUP4 ADD MSTORE POP POP POP JUMP JUMPDEST PUSH0 PUSH1 0x1F NOT PUSH1 0x1F DUP4 ADD AND SWAP1 POP SWAP2 SWAP1 POP JUMP JUMPDEST PUSH0 PUSH2 0x513 DUP3 PUSH2 0x4D1 JUMP JUMPDEST PUSH2 0x51D DUP2 DUP6 PUSH2 0x4DB JUMP JUMPDEST SWAP4 POP PUSH2 0x52D DUP2 DUP6 PUSH1 0x20 DUP7 ADD PUSH2 0x4EB JUMP JUMPDEST PUSH2 0x536 DUP2 PUSH2 0x4F9 JUMP JUMPDEST DUP5 ADD SWAP2 POP POP SWAP3 SWAP2 POP POP JUMP JUMPDEST PUSH0 PUSH1 0x20 DUP3 ADD SWAP1 POP DUP2 DUP2 SUB PUSH0 DUP4 ADD MSTORE PUSH2 0x559 DUP2 DUP5 PUSH2 0x509 JUMP JUMPDEST SWAP1 POP SWAP3 SWAP2 POP POP JUMP JUMPDEST PUSH0 DUP1 REVERT JUMPDEST PUSH32 0x4E487B7100000000000000000000000000000000000000000000000000000000 PUSH0 MSTORE PUSH1 0x41 PUSH1 0x4 MSTORE PUSH1 0x24 PUSH0 REVERT JUMPDEST PUSH2 0x59B DUP3 PUSH2 0x4F9 JUMP JUMPDEST DUP2 ADD DUP2 DUP2 LT PUSH8 0xFFFFFFFFFFFFFFFF DUP3 GT OR ISZERO PUSH2 0x5BA JUMPI PUSH2 0x5B9 PUSH2 0x565 JUMP JUMPDEST JUMPDEST DUP1 PUSH1 0x40 MSTORE POP POP POP JUMP JUMPDEST PUSH0 PUSH2 0x5CC PUSH2 0x414 JUMP JUMPDEST SWAP1 POP PUSH2 0x5D8 DUP3 DUP3 PUSH2 0x592 JUMP JUMPDEST SWAP2 SWAP1 POP JUMP JUMPDEST PUSH0 PUSH8 0xFFFFFFFFFFFFFFFF DUP3 GT ISZERO PUSH2 0x5F7 JUMPI PUSH2 0x5F6 PUSH2 0x565 JUMP JUMPDEST JUMPDEST PUSH2 0x600 DUP3 PUSH2 0x4F9 JUMP JUMPDEST SWAP1 POP PUSH1 0x20 DUP2 ADD SWAP1 POP SWAP2 SWAP1 POP JUMP JUMPDEST DUP3 DUP2 DUP4 CALLDATACOPY PUSH0 DUP4 DUP4 ADD MSTORE POP POP POP JUMP JUMPDEST PUSH0 PUSH2 0x62D PUSH2 0x628 DUP5 PUSH2 0x5DD JUMP JUMPDEST PUSH2 0x5C3 JUMP JUMPDEST SWAP1 POP DUP3 DUP2 MSTORE PUSH1 0x20 DUP2 ADD DUP5 DUP5 DUP5 ADD GT ISZERO PUSH2 0x649 JUMPI PUSH2 0x648 PUSH2 0x561 JUMP JUMPDEST JUMPDEST PUSH2 0x654 DUP5 DUP3 DUP6 PUSH2 0x60D JUMP JUMPDEST POP SWAP4 SWAP3 POP POP POP JUMP JUMPDEST PUSH0 DUP3 PUSH1 0x1F DUP4 ADD SLT PUSH2 0x670 JUMPI PUSH2 0x66F PUSH2 0x425 JUMP JUMPDEST JUMPDEST DUP2 CALLDATALOAD PUSH2 0x680 DUP5 DUP3 PUSH1 0x20 DUP7 ADD PUSH2 0x61B JUMP JUMPDEST SWAP2 POP POP SWAP3 SWAP2 POP POP JUMP JUMPDEST PUSH0 PUSH1 0x20 DUP3 DUP5 SUB SLT ISZERO PUSH2 0x69E JUMPI PUSH2 0x69D PUSH2 0x41D JUMP JUMPDEST JUMPDEST PUSH0 DUP3 ADD CALLDATALOAD PUSH8 0xFFFFFFFFFFFFFFFF DUP2 GT ISZERO PUSH2 0x6BB JUMPI PUSH2 0x6BA PUSH2 0x421 JUMP JUMPDEST JUMPDEST PUSH2 0x6C7 DUP5 DUP3 DUP6 ADD PUSH2 0x65C JUMP JUMPDEST SWAP2 POP POP SWAP3 SWAP2 POP POP JUMP JUMPDEST PUSH0 DUP2 SWAP1 POP SWAP2 SWAP1 POP JUMP JUMPDEST PUSH2 0x6E2 DUP2 PUSH2 0x6D0 JUMP JUMPDEST DUP3 MSTORE POP POP JUMP JUMPDEST PUSH0 PUSH1 0x20 DUP3 ADD SWAP1 POP PUSH2 0x6FB PUSH0 DUP4 ADD DUP5 PUSH2 0x6D9 JUMP JUMPDEST SWAP3 SWAP2 POP POP JUMP JUMPDEST PUSH0 DUP2 MLOAD SWAP1 POP SWAP2 SWAP1 POP JUMP JUMPDEST PUSH0 PUSH2 0x715 DUP3 PUSH2 0x701 JUMP JUMPDEST PUSH2 0x71F DUP2 DUP6 PUSH2 0x39C JUMP JUMPDEST SWAP4 POP PUSH2 0x72F DUP2 DUP6 PUSH1 0x20 DUP7 ADD PUSH2 0x4EB JUMP JUMPDEST PUSH2 0x738 DUP2 PUSH2 0x4F9 JUMP JUMPDEST DUP5 ADD SWAP2 POP POP SWAP3 SWAP2 POP POP JUMP JUMPDEST PUSH0 PUSH1 0x20 DUP3 ADD SWAP1 POP DUP2 DUP2 SUB PUSH0 DUP4 ADD MSTORE PUSH2 0x75B DUP2 DUP5 PUSH2 0x70B JUMP JUMPDEST SWAP1 POP SWAP3 SWAP2 POP POP JUMP JUMPDEST PUSH0 PUSH20 0xFFFFFFFFFFFFFFFFFFFFFFFFFFFFFFFFFFFFFFFF DUP3 AND SWAP1 POP SWAP2 SWAP1 POP JUMP JUMPDEST PUSH0 PUSH2 0x78C DUP3 PUSH2 0x763 JUMP JUMPDEST SWAP1 POP SWAP2 SWAP1 POP JUMP JUMPDEST PUSH2 0x79C DUP2 PUSH2 0x782 JUMP JUMPDEST DUP2 EQ PUSH2 0x7A6 JUMPI PUSH0 DUP1 REVERT JUMPDEST POP JUMP JUMPDEST PUSH0 DUP2 CALLDATALOAD SWAP1 POP PUSH2 0x7B7 DUP2 PUSH2 0x793 JUMP JUMPDEST SWAP3 SWAP2 POP POP JUMP JUMPDEST PUSH0 PUSH1 0x20 DUP3 DUP5 SUB SLT ISZERO PUSH2 0x7D2 JUMPI PUSH2 0x7D1 PUSH2 0x41D JUMP JUMPDEST JUMPDEST PUSH0 PUSH2 0x7DF DUP5 DUP3 DUP6 ADD PUSH2 0x7A9 JUMP JUMPDEST SWAP2 POP POP SWAP3 SWAP2 POP POP JUMP JUMPDEST PUSH2 0x7F1 DUP2 PUSH2 0x782 JUMP JUMPDEST DUP3 MSTORE POP POP JUMP JUMPDEST PUSH0 PUSH1 0x20 DUP3 ADD SWAP1 POP PUSH2 0x80A PUSH0 DUP4 ADD DUP5 PUSH2 0x7E8 JUMP JUMPDEST SWAP3 SWAP2 POP POP JUMP JUMPDEST PUSH0 PUSH2 0x81B DUP4 DUP6 PUSH2 0x39C JUMP JUMPDEST SWAP4 POP PUSH2 0x828 DUP4 DUP6 DUP5 PUSH2 0x60D JUMP JUMPDEST PUSH2 0x831 DUP4 PUSH2 0x4F9 JUMP JUMPDEST DUP5 ADD SWAP1 POP SWAP4 SWAP3 POP POP POP JUMP JUMPDEST PUSH0 PUSH1 0x20 DUP3 ADD SWAP1 POP DUP2 DUP2 SUB PUSH0 DUP4 ADD MSTORE PUSH2 0x855 DUP2 DUP5 DUP7 PUSH2 0x810 JUMP JUMPDEST SWAP1 POP SWAP4 SWAP3 POP POP POP JUMP JUMPDEST PUSH32 0x696E76616C696420616464726573730000000000000000000000000000000000 PUSH0 DUP3 ADD MSTORE POP JUMP JUMPDEST PUSH0 PUSH2 0x892 PUSH1 0xF DUP4 PUSH2 0x39C JUMP JUMPDEST SWAP2 POP PUSH2 0x89D DUP3 PUSH2 0x85E JUMP JUMPDEST PUSH1 0x20 DUP3 ADD SWAP1 POP SWAP2 SWAP1 POP JUMP JUMPDEST PUSH0 PUSH1 0x20 DUP3 ADD SWAP1 POP DUP2 DUP2 SUB PUSH0 DUP4 ADD MSTORE PUSH2 0x8BF DUP2 PUSH2 0x886 JUMP JUMPDEST SWAP1 POP SWAP2 SWAP1 POP JUMP JUMPDEST PUSH32 0x4E487B7100000000000000000000000000000000000000000000000000000000 PUSH0 MSTORE PUSH1 0x11 PUSH1 0x4 MSTORE PUSH1 0x24 PUSH0 REVERT JUMPDEST PUSH0 PUSH2 0x8FD DUP3 PUSH2 0x6D0 JUMP JUMPDEST SWAP2 POP PUSH2 0x908 DUP4 PUSH2 0x6D0 JUMP JUMPDEST SWAP3 POP DUP3 DUP3 ADD SWAP1 POP DUP1 DUP3 GT ISZERO PUSH2 0x920 JUMPI PUSH2 0x91F PUSH2 0x8C6 JUMP JUMPDEST JUMPDEST SWAP3 SWAP2 POP POP JUMP JUMPDEST PUSH32 0x4E487B7100000000000000000000000000000000000000000000000000000000 PUSH0 MSTORE PUSH1 0x22 PUSH1 0x4 MSTORE PUSH1 0x24 PUSH0 REVERT JUMPDEST PUSH0 PUSH1 0x2 DUP3 DIV SWAP1 POP PUSH1 0x1 DUP3 AND DUP1 PUSH2 0x96A JUMPI PUSH1 0x7F DUP3 AND SWAP2 POP JUMPDEST PUSH1 0x20 DUP3 LT DUP2 SUB PUSH2 0x97D JUMPI PUSH2 0x97C PUSH2 0x926 JUMP JUMPDEST JUMPDEST POP SWAP2 SWAP1 POP JUMP JUMPDEST PUSH0 DUP2 SWAP1 POP DUP2 PUSH0 MSTORE PUSH1 0x20 PUSH0 KECCAK256 SWAP1 POP SWAP2 SWAP1 POP JUMP JUMPDEST PUSH0 PUSH1 0x20 PUSH1 0x1F DUP4 ADD DIV SWAP1 POP SWAP2 SWAP1 POP JUMP JUMPDEST PUSH0 DUP3 DUP3 SHL SWAP1 POP SWAP3 SWAP2 POP POP JUMP JUMPDEST PUSH0 PUSH1 0x8 DUP4 MUL PUSH2 0x9DF PUSH32 0xFFFFFFFFFFFFFFFFFFFFFFFFFFFFFFFFFFFFFFFFFFFFFFFFFFFFFFFFFFFFFFFF DUP3 PUSH2 0x9A4 JUMP JUMPDEST PUSH2 0x9E9 DUP7 DUP4 PUSH2 0x9A4 JUMP JUMPDEST SWAP6 POP DUP1 NOT DUP5 AND SWAP4 POP DUP1 DUP7 AND DUP5 OR SWAP3 POP POP POP SWAP4 SWAP3 POP POP POP JUMP JUMPDEST PUSH0 DUP2 SWAP1 POP SWAP2 SWAP1 POP JUMP JUMPDEST PUSH0 PUSH2 0xA24 PUSH2 0xA1F PUSH2 0xA1A DUP5 PUSH2 0x6D0 JUMP JUMPDEST PUSH2 0xA01 JUMP JUMPDEST PUSH2 0x6D0 JUMP JUMPDEST SWAP1 POP SWAP2 SWAP1 POP JUMP JUMPDEST PUSH0 DUP2 SWAP1 POP SWAP2 SWAP1 POP JUMP JUMPDEST PUSH2 0xA3D DUP4 PUSH2 0xA0A JUMP JUMPDEST PUSH2 0xA51 PUSH2 0xA49 DUP3 PUSH2 0xA2B JUMP JUMPDEST DUP5 DUP5 SLOAD PUSH2 0x9B0 JUMP JUMPDEST DUP3 SSTORE POP POP POP POP JUMP JUMPDEST PUSH0 SWAP1 JUMP JUMPDEST PUSH2 0xA65 PUSH2 0xA59 JUMP JUMPDEST PUSH2 0xA70 DUP2 DUP5 DUP5 PUSH2 0xA34 JUMP JUMPDEST POP POP POP JUMP JUMPDEST JUMPDEST DUP2 DUP2 LT ISZERO PUSH2 0xA93 JUMPI PUSH2 0xA88 PUSH0 DUP3 PUSH2 0xA5D JUMP JUMPDEST PUSH1 0x1 DUP2 ADD SWAP1 POP PUSH2 0xA76 JUMP JUMPDEST POP POP JUMP JUMPDEST PUSH1 0x1F DUP3 GT ISZERO PUSH2 0xAD8 JUMPI PUSH2 0xAA9 DUP2 PUSH2 0x983 JUMP JUMPDEST PUSH2 0xAB2 DUP5 PUSH2 0x995 JUMP JUMPDEST DUP2 ADD PUSH1 0x20 DUP6 LT ISZERO PUSH2 0xAC1 JUMPI DUP2 SWAP1 POP JUMPDEST PUSH2 0xAD5 PUSH2 0xACD DUP6 PUSH2 0x995 JUMP JUMPDEST DUP4 ADD DUP3 PUSH2 0xA75 JUMP JUMPDEST POP POP JUMPDEST POP POP POP JUMP JUMPDEST PUSH0 DUP3 DUP3 SHR SWAP1 POP SWAP3 SWAP2 POP POP JUMP JUMPDEST PUSH0 PUSH2 0xAF8 PUSH0 NOT DUP5 PUSH1 0x8 MUL PUSH2 0xADD JUMP JUMPDEST NOT DUP1 DUP4 AND SWAP2 POP POP SWAP3 SWAP2 POP POP JUMP JUMPDEST PUSH0 PUSH2 0xB10 DUP4 DUP4 PUSH2 0xAE9 JUMP JUMPDEST SWAP2 POP DUP3 PUSH1 0x2 MUL DUP3 OR SWAP1 POP SWAP3 SWAP2 POP POP JUMP JUMPDEST PUSH2 0xB29 DUP3 PUSH2 0x701 JUMP JUMPDEST PUSH8 0xFFFFFFFFFFFFFFFF DUP2 GT ISZERO PUSH2 0xB42 JUMPI PUSH2 0xB41 PUSH2 0x565 JUMP JUMPDEST JUMPDEST PUSH2 0xB4C DUP3 SLOAD PUSH2 0x953 JUMP JUMPDEST PUSH2 0xB57 DUP3 DUP3 DUP6 PUSH2 0xA97 JUMP JUMPDEST PUSH0 PUSH1 0x20 SWAP1 POP PUSH1 0x1F DUP4 GT PUSH1 0x1 DUP2 EQ PUSH2 0xB88 JUMPI PUSH0 DUP5 ISZERO PUSH2 0xB76 JUMPI DUP3 DUP8 ADD MLOAD SWAP1 POP JUMPDEST PUSH2 0xB80 DUP6 DUP3 PUSH2 0xB05 JUMP JUMPDEST DUP7 SSTORE POP PUSH2 0xBE7 JUMP JUMPDEST PUSH1 0x1F NOT DUP5 AND PUSH2 0xB96 DUP7 PUSH2 0x983 JUMP JUMPDEST PUSH0 JUMPDEST DUP3 DUP2 LT ISZERO PUSH2 0xBBD JUMPI DUP5 DUP10 ADD MLOAD DUP3 SSTORE PUSH1 0x1 DUP3 ADD SWAP2 POP PUSH1 0x20 DUP6 ADD SWAP5 POP PUSH1 0x20 DUP2 ADD SWAP1 POP PUSH2 0xB98 JUMP JUMPDEST DUP7 DUP4 LT ISZERO PUSH2 0xBDA JUMPI DUP5 DUP10 ADD MLOAD PUSH2 0xBD6 PUSH1 0x1F DUP10 AND DUP3 PUSH2 0xAE9 JUMP JUMPDEST DUP4 SSTORE POP JUMPDEST PUSH1 0x1 PUSH1 0x2 DUP9 MUL ADD DUP9 SSTORE POP POP POP JUMPDEST POP POP POP POP POP POP JUMP INVALID LOG2 PUSH5 0x6970667358 0x22 SLT KECCAK256 CALLDATALOAD LOG2 STOP 0x1E DUP5 PUSH5 0x7A57A561D6 SHR SWAP7 EXTCODEHASH MULMOD 0x27 0xA7 BYTE LT LOG1 0xCB PUSH13 0xA533C28347231165E37A64736F PUSH13 0x634300081A0033000000000000 "
				},
				"gasEstimates": {
					"creation": {
						"codeDepositCost": "621800",
						"executionCost": "infinite",
						"totalCost": "infinite"
					},
					"external": {
						"": "488",
						"lock()": "2593",
						"message()": "infinite",
						"newTimestamp()": "infinite",
						"payments(address)": "2868",
						"prepareData(string)": "infinite",
						"run(string)": "infinite"
					}
				},
				"methodIdentifiers": {
					"lock()": "f83d08ba",
					"message()": "e21f37ce",
					"newTimestamp()": "9e0b54ee",
					"payments(address)": "e2982c21",
					"prepareData(string)": "6ba94afa",
					"run(string)": "9352fad2"
				}
			},
			"storageLayout": {
				"storage": [
					{
						"astId": 308,
						"contract": "timelock/Timelock.sol:Runner",
						"label": "lock",
						"offset": 0,
						"slot": "0",
						"type": "t_address"
					},
					{
						"astId": 310,
						"contract": "timelock/Timelock.sol:Runner",
						"label": "message",
						"offset": 0,
						"slot": "1",
						"type": "t_string_storage"
					},
					{
						"astId": 314,
						"contract": "timelock/Timelock.sol:Runner",
						"label": "payments",
						"offset": 0,
						"slot": "2",
						"type": "t_mapping(t_address,t_uint256)"
					}
				],
				"types": {
					"t_address": {
						"encoding": "inplace",
						"label": "address",
						"numberOfBytes": "20"
					},
					"t_mapping(t_address,t_uint256)": {
						"encoding": "mapping",
						"key": "t_address",
						"label": "mapping(address => uint256)",
						"numberOfBytes": "32",
						"value": "t_uint256"
					},
					"t_string_storage": {
						"encoding": "bytes",
						"label": "string",
						"numberOfBytes": "32"
					},
					"t_uint256": {
						"encoding": "inplace",
						"label": "uint256",
						"numberOfBytes": "32"
					}
				}
			},
			"userdoc": {
				"kind": "user",
				"methods": {
					"constructor": {
						"notice": "задаем ссылку на развенутый таймлок"
					},
					"newTimestamp()": {
						"notice": "служебная для получения отложенного времени транзакции"
					},
					"prepareData(string)": {
						"notice": "encode строки в байты для прокидывания из таймлока в run()"
					},
					"run(string)": {
						"notice": "эту функцию будет запускать из под контракта таймлоказадает переданный из таймлока message "
					}
				},
				"notice": "контракт для теста таймлока",
				"version": 1
			}
		}
	}
}