{
	"contracts/timelock/Timelock.sol": {
		"Runner": {
			"abi": [
				{
					"inputs": [
						{
							"internalType": "address",
							"name": "_lock",
							"type": "address"
						}
					],
					"stateMutability": "nonpayable",
					"type": "constructor"
				},
				{
					"inputs": [],
					"name": "lock",
					"outputs": [
						{
							"internalType": "address",
							"name": "",
							"type": "address"
						}
					],
					"stateMutability": "view",
					"type": "function"
				},
				{
					"inputs": [],
					"name": "message",
					"outputs": [
						{
							"internalType": "string",
							"name": "",
							"type": "string"
						}
					],
					"stateMutability": "view",
					"type": "function"
				},
				{
					"inputs": [],
					"name": "newTimestamp",
					"outputs": [
						{
							"internalType": "uint256",
							"name": "",
							"type": "uint256"
						}
					],
					"stateMutability": "view",
					"type": "function"
				},
				{
					"inputs": [
						{
							"internalType": "address",
							"name": "",
							"type": "address"
						}
					],
					"name": "payments",
					"outputs": [
						{
							"internalType": "uint256",
							"name": "",
							"type": "uint256"
						}
					],
					"stateMutability": "view",
					"type": "function"
				},
				{
					"inputs": [
						{
							"internalType": "string",
							"name": "_msg",
							"type": "string"
						}
					],
					"name": "prepareData",
					"outputs": [
						{
							"internalType": "bytes",
							"name": "",
							"type": "bytes"
						}
					],
					"stateMutability": "pure",
					"type": "function"
				},
				{
					"inputs": [
						{
							"internalType": "string",
							"name": "newMsg",
							"type": "string"
						}
					],
					"name": "run",
					"outputs": [],
					"stateMutability": "payable",
					"type": "function"
				}
			],
			"devdoc": {
				"kind": "dev",
				"methods": {},
				"version": 1
			},
			"evm": {
				"assembly": "    /* \"contracts/timelock/Timelock.sol\":2862:3459  contract Runner {... */\n  mstore(0x40, 0x80)\n    /* \"contracts/timelock/Timelock.sol\":2983:3039  constructor(address _lock) {... */\n  callvalue\n  dup1\n  iszero\n  tag_1\n  jumpi\n  0x00\n  dup1\n  revert\ntag_1:\n  pop\n  mload(0x40)\n  sub(codesize, bytecodeSize)\n  dup1\n  bytecodeSize\n  dup4\n  codecopy\n  dup2\n  dup2\n  add\n  0x40\n  mstore\n  dup2\n  add\n  swap1\n  tag_2\n  swap2\n  swap1\n  tag_3\n  jump\t// in\ntag_2:\n    /* \"contracts/timelock/Timelock.sol\":3027:3032  _lock */\n  dup1\n    /* \"contracts/timelock/Timelock.sol\":3020:3024  lock */\n  0x00\n  dup1\n    /* \"contracts/timelock/Timelock.sol\":3020:3032  lock = _lock */\n  0x0100\n  exp\n  dup2\n  sload\n  dup2\n  0xffffffffffffffffffffffffffffffffffffffff\n  mul\n  not\n  and\n  swap1\n  dup4\n  0xffffffffffffffffffffffffffffffffffffffff\n  and\n  mul\n  or\n  swap1\n  sstore\n  pop\n    /* \"contracts/timelock/Timelock.sol\":2983:3039  constructor(address _lock) {... */\n  pop\n    /* \"contracts/timelock/Timelock.sol\":2862:3459  contract Runner {... */\n  jump(tag_6)\n    /* \"#utility.yul\":88:205   */\ntag_8:\n    /* \"#utility.yul\":197:198   */\n  0x00\n    /* \"#utility.yul\":194:195   */\n  dup1\n    /* \"#utility.yul\":187:199   */\n  revert\n    /* \"#utility.yul\":334:460   */\ntag_10:\n    /* \"#utility.yul\":371:378   */\n  0x00\n    /* \"#utility.yul\":411:453   */\n  0xffffffffffffffffffffffffffffffffffffffff\n    /* \"#utility.yul\":404:409   */\n  dup3\n    /* \"#utility.yul\":400:454   */\n  and\n    /* \"#utility.yul\":389:454   */\n  swap1\n  pop\n    /* \"#utility.yul\":334:460   */\n  swap2\n  swap1\n  pop\n  jump\t// out\n    /* \"#utility.yul\":466:562   */\ntag_11:\n    /* \"#utility.yul\":503:510   */\n  0x00\n    /* \"#utility.yul\":532:556   */\n  tag_20\n    /* \"#utility.yul\":550:555   */\n  dup3\n    /* \"#utility.yul\":532:556   */\n  tag_10\n  jump\t// in\ntag_20:\n    /* \"#utility.yul\":521:556   */\n  swap1\n  pop\n    /* \"#utility.yul\":466:562   */\n  swap2\n  swap1\n  pop\n  jump\t// out\n    /* \"#utility.yul\":568:690   */\ntag_12:\n    /* \"#utility.yul\":641:665   */\n  tag_22\n    /* \"#utility.yul\":659:664   */\n  dup2\n    /* \"#utility.yul\":641:665   */\n  tag_11\n  jump\t// in\ntag_22:\n    /* \"#utility.yul\":634:639   */\n  dup2\n    /* \"#utility.yul\":631:666   */\n  eq\n    /* \"#utility.yul\":621:684   */\n  tag_23\n  jumpi\n    /* \"#utility.yul\":680:681   */\n  0x00\n    /* \"#utility.yul\":677:678   */\n  dup1\n    /* \"#utility.yul\":670:682   */\n  revert\n    /* \"#utility.yul\":621:684   */\ntag_23:\n    /* \"#utility.yul\":568:690   */\n  pop\n  jump\t// out\n    /* \"#utility.yul\":696:839   */\ntag_13:\n    /* \"#utility.yul\":753:758   */\n  0x00\n    /* \"#utility.yul\":784:790   */\n  dup2\n    /* \"#utility.yul\":778:791   */\n  mload\n    /* \"#utility.yul\":769:791   */\n  swap1\n  pop\n    /* \"#utility.yul\":800:833   */\n  tag_25\n    /* \"#utility.yul\":827:832   */\n  dup2\n    /* \"#utility.yul\":800:833   */\n  tag_12\n  jump\t// in\ntag_25:\n    /* \"#utility.yul\":696:839   */\n  swap3\n  swap2\n  pop\n  pop\n  jump\t// out\n    /* \"#utility.yul\":845:1196   */\ntag_3:\n    /* \"#utility.yul\":915:921   */\n  0x00\n    /* \"#utility.yul\":964:966   */\n  0x20\n    /* \"#utility.yul\":952:961   */\n  dup3\n    /* \"#utility.yul\":943:950   */\n  dup5\n    /* \"#utility.yul\":939:962   */\n  sub\n    /* \"#utility.yul\":935:967   */\n  slt\n    /* \"#utility.yul\":932:1051   */\n  iszero\n  tag_27\n  jumpi\n    /* \"#utility.yul\":970:1049   */\n  tag_28\n  tag_8\n  jump\t// in\ntag_28:\n    /* \"#utility.yul\":932:1051   */\ntag_27:\n    /* \"#utility.yul\":1090:1091   */\n  0x00\n    /* \"#utility.yul\":1115:1179   */\n  tag_29\n    /* \"#utility.yul\":1171:1178   */\n  dup5\n    /* \"#utility.yul\":1162:1168   */\n  dup3\n    /* \"#utility.yul\":1151:1160   */\n  dup6\n    /* \"#utility.yul\":1147:1169   */\n  add\n    /* \"#utility.yul\":1115:1179   */\n  tag_13\n  jump\t// in\ntag_29:\n    /* \"#utility.yul\":1105:1179   */\n  swap2\n  pop\n    /* \"#utility.yul\":1061:1189   */\n  pop\n    /* \"#utility.yul\":845:1196   */\n  swap3\n  swap2\n  pop\n  pop\n  jump\t// out\n    /* \"contracts/timelock/Timelock.sol\":2862:3459  contract Runner {... */\ntag_6:\n  dataSize(sub_0)\n  dup1\n  dataOffset(sub_0)\n  0x00\n  codecopy\n  0x00\n  return\nstop\n\nsub_0: assembly {\n        /* \"contracts/timelock/Timelock.sol\":2862:3459  contract Runner {... */\n      mstore(0x40, 0x80)\n      jumpi(tag_1, lt(calldatasize, 0x04))\n      shr(0xe0, calldataload(0x00))\n      dup1\n      0x6ba94afa\n      eq\n      tag_2\n      jumpi\n      dup1\n      0x9352fad2\n      eq\n      tag_3\n      jumpi\n      dup1\n      0x9e0b54ee\n      eq\n      tag_4\n      jumpi\n      dup1\n      0xe21f37ce\n      eq\n      tag_5\n      jumpi\n      dup1\n      0xe2982c21\n      eq\n      tag_6\n      jumpi\n      dup1\n      0xf83d08ba\n      eq\n      tag_7\n      jumpi\n    tag_1:\n      0x00\n      dup1\n      revert\n        /* \"contracts/timelock/Timelock.sol\":3338:3457  function prepareData(string calldata _msg) external pure returns(bytes memory) {... */\n    tag_2:\n      callvalue\n      dup1\n      iszero\n      tag_8\n      jumpi\n      0x00\n      dup1\n      revert\n    tag_8:\n      pop\n      tag_9\n      0x04\n      dup1\n      calldatasize\n      sub\n      dup2\n      add\n      swap1\n      tag_10\n      swap2\n      swap1\n      tag_11\n      jump\t// in\n    tag_10:\n      tag_12\n      jump\t// in\n    tag_9:\n      mload(0x40)\n      tag_13\n      swap2\n      swap1\n      tag_14\n      jump\t// in\n    tag_13:\n      mload(0x40)\n      dup1\n      swap2\n      sub\n      swap1\n      return\n        /* \"contracts/timelock/Timelock.sol\":3045:3230  function run(string memory newMsg) external payable {... */\n    tag_3:\n      tag_15\n      0x04\n      dup1\n      calldatasize\n      sub\n      dup2\n      add\n      swap1\n      tag_16\n      swap2\n      swap1\n      tag_17\n      jump\t// in\n    tag_16:\n      tag_18\n      jump\t// in\n    tag_15:\n      stop\n        /* \"contracts/timelock/Timelock.sol\":3236:3332  function newTimestamp() external view returns(uint) {... */\n    tag_4:\n      callvalue\n      dup1\n      iszero\n      tag_19\n      jumpi\n      0x00\n      dup1\n      revert\n    tag_19:\n      pop\n      tag_20\n      tag_21\n      jump\t// in\n    tag_20:\n      mload(0x40)\n      tag_22\n      swap2\n      swap1\n      tag_23\n      jump\t// in\n    tag_22:\n      mload(0x40)\n      dup1\n      swap2\n      sub\n      swap1\n      return\n        /* \"contracts/timelock/Timelock.sol\":2909:2930  string public message */\n    tag_5:\n      callvalue\n      dup1\n      iszero\n      tag_24\n      jumpi\n      0x00\n      dup1\n      revert\n    tag_24:\n      pop\n      tag_25\n      tag_26\n      jump\t// in\n    tag_25:\n      mload(0x40)\n      tag_27\n      swap2\n      swap1\n      tag_28\n      jump\t// in\n    tag_27:\n      mload(0x40)\n      dup1\n      swap2\n      sub\n      swap1\n      return\n        /* \"contracts/timelock/Timelock.sol\":2936:2976  mapping(address => uint) public payments */\n    tag_6:\n      callvalue\n      dup1\n      iszero\n      tag_29\n      jumpi\n      0x00\n      dup1\n      revert\n    tag_29:\n      pop\n      tag_30\n      0x04\n      dup1\n      calldatasize\n      sub\n      dup2\n      add\n      swap1\n      tag_31\n      swap2\n      swap1\n      tag_32\n      jump\t// in\n    tag_31:\n      tag_33\n      jump\t// in\n    tag_30:\n      mload(0x40)\n      tag_34\n      swap2\n      swap1\n      tag_23\n      jump\t// in\n    tag_34:\n      mload(0x40)\n      dup1\n      swap2\n      sub\n      swap1\n      return\n        /* \"contracts/timelock/Timelock.sol\":2884:2903  address public lock */\n    tag_7:\n      callvalue\n      dup1\n      iszero\n      tag_35\n      jumpi\n      0x00\n      dup1\n      revert\n    tag_35:\n      pop\n      tag_36\n      tag_37\n      jump\t// in\n    tag_36:\n      mload(0x40)\n      tag_38\n      swap2\n      swap1\n      tag_39\n      jump\t// in\n    tag_38:\n      mload(0x40)\n      dup1\n      swap2\n      sub\n      swap1\n      return\n        /* \"contracts/timelock/Timelock.sol\":3338:3457  function prepareData(string calldata _msg) external pure returns(bytes memory) {... */\n    tag_12:\n        /* \"contracts/timelock/Timelock.sol\":3403:3415  bytes memory */\n      0x60\n        /* \"contracts/timelock/Timelock.sol\":3445:3449  _msg */\n      dup3\n      dup3\n        /* \"contracts/timelock/Timelock.sol\":3434:3450  abi.encode(_msg) */\n      add(0x20, mload(0x40))\n      tag_41\n      swap3\n      swap2\n      swap1\n      tag_42\n      jump\t// in\n    tag_41:\n      mload(0x40)\n      0x20\n      dup2\n      dup4\n      sub\n      sub\n      dup2\n      mstore\n      swap1\n      0x40\n      mstore\n        /* \"contracts/timelock/Timelock.sol\":3427:3450  return abi.encode(_msg) */\n      swap1\n      pop\n        /* \"contracts/timelock/Timelock.sol\":3338:3457  function prepareData(string calldata _msg) external pure returns(bytes memory) {... */\n      swap3\n      swap2\n      pop\n      pop\n      jump\t// out\n        /* \"contracts/timelock/Timelock.sol\":3045:3230  function run(string memory newMsg) external payable {... */\n    tag_18:\n        /* \"contracts/timelock/Timelock.sol\":3129:3133  lock */\n      0x00\n      dup1\n      sload\n      swap1\n      0x0100\n      exp\n      swap1\n      div\n      0xffffffffffffffffffffffffffffffffffffffff\n      and\n        /* \"contracts/timelock/Timelock.sol\":3115:3133  msg.sender == lock */\n      0xffffffffffffffffffffffffffffffffffffffff\n      and\n        /* \"contracts/timelock/Timelock.sol\":3115:3125  msg.sender */\n      caller\n        /* \"contracts/timelock/Timelock.sol\":3115:3133  msg.sender == lock */\n      0xffffffffffffffffffffffffffffffffffffffff\n      and\n      eq\n        /* \"contracts/timelock/Timelock.sol\":3107:3153  require(msg.sender == lock, \"invalid address\") */\n      tag_44\n      jumpi\n      mload(0x40)\n      0x08c379a000000000000000000000000000000000000000000000000000000000\n      dup2\n      mstore\n      0x04\n      add\n      tag_45\n      swap1\n      tag_46\n      jump\t// in\n    tag_45:\n      mload(0x40)\n      dup1\n      swap2\n      sub\n      swap1\n      revert\n    tag_44:\n        /* \"contracts/timelock/Timelock.sol\":3188:3197  msg.value */\n      callvalue\n        /* \"contracts/timelock/Timelock.sol\":3164:3172  payments */\n      0x02\n        /* \"contracts/timelock/Timelock.sol\":3164:3184  payments[msg.sender] */\n      0x00\n        /* \"contracts/timelock/Timelock.sol\":3173:3183  msg.sender */\n      caller\n        /* \"contracts/timelock/Timelock.sol\":3164:3184  payments[msg.sender] */\n      0xffffffffffffffffffffffffffffffffffffffff\n      and\n      0xffffffffffffffffffffffffffffffffffffffff\n      and\n      dup2\n      mstore\n      0x20\n      add\n      swap1\n      dup2\n      mstore\n      0x20\n      add\n      0x00\n      keccak256\n      0x00\n        /* \"contracts/timelock/Timelock.sol\":3164:3197  payments[msg.sender] += msg.value */\n      dup3\n      dup3\n      sload\n      tag_47\n      swap2\n      swap1\n      tag_48\n      jump\t// in\n    tag_47:\n      swap3\n      pop\n      pop\n      dup2\n      swap1\n      sstore\n      pop\n        /* \"contracts/timelock/Timelock.sol\":3217:3223  newMsg */\n      dup1\n        /* \"contracts/timelock/Timelock.sol\":3207:3214  message */\n      0x01\n        /* \"contracts/timelock/Timelock.sol\":3207:3223  message = newMsg */\n      swap1\n      dup2\n      tag_49\n      swap2\n      swap1\n      tag_50\n      jump\t// in\n    tag_49:\n      pop\n        /* \"contracts/timelock/Timelock.sol\":3045:3230  function run(string memory newMsg) external payable {... */\n      pop\n      jump\t// out\n        /* \"contracts/timelock/Timelock.sol\":3236:3332  function newTimestamp() external view returns(uint) {... */\n    tag_21:\n        /* \"contracts/timelock/Timelock.sol\":3282:3286  uint */\n      0x00\n        /* \"contracts/timelock/Timelock.sol\":3323:3325  20 */\n      0x14\n        /* \"contracts/timelock/Timelock.sol\":3305:3320  block.timestamp */\n      timestamp\n        /* \"contracts/timelock/Timelock.sol\":3305:3325  block.timestamp + 20 */\n      tag_52\n      swap2\n      swap1\n      tag_48\n      jump\t// in\n    tag_52:\n        /* \"contracts/timelock/Timelock.sol\":3298:3325  return block.timestamp + 20 */\n      swap1\n      pop\n        /* \"contracts/timelock/Timelock.sol\":3236:3332  function newTimestamp() external view returns(uint) {... */\n      swap1\n      jump\t// out\n        /* \"contracts/timelock/Timelock.sol\":2909:2930  string public message */\n    tag_26:\n      0x01\n      dup1\n      sload\n      tag_53\n      swap1\n      tag_54\n      jump\t// in\n    tag_53:\n      dup1\n      0x1f\n      add\n      0x20\n      dup1\n      swap2\n      div\n      mul\n      0x20\n      add\n      mload(0x40)\n      swap1\n      dup2\n      add\n      0x40\n      mstore\n      dup1\n      swap3\n      swap2\n      swap1\n      dup2\n      dup2\n      mstore\n      0x20\n      add\n      dup3\n      dup1\n      sload\n      tag_55\n      swap1\n      tag_54\n      jump\t// in\n    tag_55:\n      dup1\n      iszero\n      tag_56\n      jumpi\n      dup1\n      0x1f\n      lt\n      tag_57\n      jumpi\n      0x0100\n      dup1\n      dup4\n      sload\n      div\n      mul\n      dup4\n      mstore\n      swap2\n      0x20\n      add\n      swap2\n      jump(tag_56)\n    tag_57:\n      dup3\n      add\n      swap2\n      swap1\n      0x00\n      mstore\n      keccak256(0x00, 0x20)\n      swap1\n    tag_58:\n      dup2\n      sload\n      dup2\n      mstore\n      swap1\n      0x01\n      add\n      swap1\n      0x20\n      add\n      dup1\n      dup4\n      gt\n      tag_58\n      jumpi\n      dup3\n      swap1\n      sub\n      0x1f\n      and\n      dup3\n      add\n      swap2\n    tag_56:\n      pop\n      pop\n      pop\n      pop\n      pop\n      dup2\n      jump\t// out\n        /* \"contracts/timelock/Timelock.sol\":2936:2976  mapping(address => uint) public payments */\n    tag_33:\n      mstore(0x20, 0x02)\n      dup1\n      0x00\n      mstore\n      keccak256(0x00, 0x40)\n      0x00\n      swap2\n      pop\n      swap1\n      pop\n      sload\n      dup2\n      jump\t// out\n        /* \"contracts/timelock/Timelock.sol\":2884:2903  address public lock */\n    tag_37:\n      0x00\n      dup1\n      sload\n      swap1\n      0x0100\n      exp\n      swap1\n      div\n      0xffffffffffffffffffffffffffffffffffffffff\n      and\n      dup2\n      jump\t// out\n        /* \"#utility.yul\":7:82   */\n    tag_59:\n        /* \"#utility.yul\":40:46   */\n      0x00\n        /* \"#utility.yul\":73:75   */\n      0x40\n        /* \"#utility.yul\":67:76   */\n      mload\n        /* \"#utility.yul\":57:76   */\n      swap1\n      pop\n        /* \"#utility.yul\":7:82   */\n      swap1\n      jump\t// out\n        /* \"#utility.yul\":88:205   */\n    tag_60:\n        /* \"#utility.yul\":197:198   */\n      0x00\n        /* \"#utility.yul\":194:195   */\n      dup1\n        /* \"#utility.yul\":187:199   */\n      revert\n        /* \"#utility.yul\":211:328   */\n    tag_61:\n        /* \"#utility.yul\":320:321   */\n      0x00\n        /* \"#utility.yul\":317:318   */\n      dup1\n        /* \"#utility.yul\":310:322   */\n      revert\n        /* \"#utility.yul\":334:451   */\n    tag_62:\n        /* \"#utility.yul\":443:444   */\n      0x00\n        /* \"#utility.yul\":440:441   */\n      dup1\n        /* \"#utility.yul\":433:445   */\n      revert\n        /* \"#utility.yul\":457:574   */\n    tag_63:\n        /* \"#utility.yul\":566:567   */\n      0x00\n        /* \"#utility.yul\":563:564   */\n      dup1\n        /* \"#utility.yul\":556:568   */\n      revert\n        /* \"#utility.yul\":580:697   */\n    tag_64:\n        /* \"#utility.yul\":689:690   */\n      0x00\n        /* \"#utility.yul\":686:687   */\n      dup1\n        /* \"#utility.yul\":679:691   */\n      revert\n        /* \"#utility.yul\":717:1270   */\n    tag_65:\n        /* \"#utility.yul\":775:783   */\n      0x00\n        /* \"#utility.yul\":785:791   */\n      dup1\n        /* \"#utility.yul\":835:838   */\n      dup4\n        /* \"#utility.yul\":828:832   */\n      0x1f\n        /* \"#utility.yul\":820:826   */\n      dup5\n        /* \"#utility.yul\":816:833   */\n      add\n        /* \"#utility.yul\":812:839   */\n      slt\n        /* \"#utility.yul\":802:924   */\n      tag_117\n      jumpi\n        /* \"#utility.yul\":843:922   */\n      tag_118\n      tag_62\n      jump\t// in\n    tag_118:\n        /* \"#utility.yul\":802:924   */\n    tag_117:\n        /* \"#utility.yul\":956:962   */\n      dup3\n        /* \"#utility.yul\":943:963   */\n      calldataload\n        /* \"#utility.yul\":933:963   */\n      swap1\n      pop\n        /* \"#utility.yul\":986:1004   */\n      0xffffffffffffffff\n        /* \"#utility.yul\":978:984   */\n      dup2\n        /* \"#utility.yul\":975:1005   */\n      gt\n        /* \"#utility.yul\":972:1089   */\n      iszero\n      tag_119\n      jumpi\n        /* \"#utility.yul\":1008:1087   */\n      tag_120\n      tag_63\n      jump\t// in\n    tag_120:\n        /* \"#utility.yul\":972:1089   */\n    tag_119:\n        /* \"#utility.yul\":1122:1126   */\n      0x20\n        /* \"#utility.yul\":1114:1120   */\n      dup4\n        /* \"#utility.yul\":1110:1127   */\n      add\n        /* \"#utility.yul\":1098:1127   */\n      swap2\n      pop\n        /* \"#utility.yul\":1176:1179   */\n      dup4\n        /* \"#utility.yul\":1168:1172   */\n      0x01\n        /* \"#utility.yul\":1160:1166   */\n      dup3\n        /* \"#utility.yul\":1156:1173   */\n      mul\n        /* \"#utility.yul\":1146:1154   */\n      dup4\n        /* \"#utility.yul\":1142:1174   */\n      add\n        /* \"#utility.yul\":1139:1180   */\n      gt\n        /* \"#utility.yul\":1136:1264   */\n      iszero\n      tag_121\n      jumpi\n        /* \"#utility.yul\":1183:1262   */\n      tag_122\n      tag_64\n      jump\t// in\n    tag_122:\n        /* \"#utility.yul\":1136:1264   */\n    tag_121:\n        /* \"#utility.yul\":717:1270   */\n      swap3\n      pop\n      swap3\n      swap1\n      pop\n      jump\t// out\n        /* \"#utility.yul\":1276:1805   */\n    tag_11:\n        /* \"#utility.yul\":1347:1353   */\n      0x00\n        /* \"#utility.yul\":1355:1361   */\n      dup1\n        /* \"#utility.yul\":1404:1406   */\n      0x20\n        /* \"#utility.yul\":1392:1401   */\n      dup4\n        /* \"#utility.yul\":1383:1390   */\n      dup6\n        /* \"#utility.yul\":1379:1402   */\n      sub\n        /* \"#utility.yul\":1375:1407   */\n      slt\n        /* \"#utility.yul\":1372:1491   */\n      iszero\n      tag_124\n      jumpi\n        /* \"#utility.yul\":1410:1489   */\n      tag_125\n      tag_60\n      jump\t// in\n    tag_125:\n        /* \"#utility.yul\":1372:1491   */\n    tag_124:\n        /* \"#utility.yul\":1558:1559   */\n      0x00\n        /* \"#utility.yul\":1547:1556   */\n      dup4\n        /* \"#utility.yul\":1543:1560   */\n      add\n        /* \"#utility.yul\":1530:1561   */\n      calldataload\n        /* \"#utility.yul\":1588:1606   */\n      0xffffffffffffffff\n        /* \"#utility.yul\":1580:1586   */\n      dup2\n        /* \"#utility.yul\":1577:1607   */\n      gt\n        /* \"#utility.yul\":1574:1691   */\n      iszero\n      tag_126\n      jumpi\n        /* \"#utility.yul\":1610:1689   */\n      tag_127\n      tag_61\n      jump\t// in\n    tag_127:\n        /* \"#utility.yul\":1574:1691   */\n    tag_126:\n        /* \"#utility.yul\":1723:1788   */\n      tag_128\n        /* \"#utility.yul\":1780:1787   */\n      dup6\n        /* \"#utility.yul\":1771:1777   */\n      dup3\n        /* \"#utility.yul\":1760:1769   */\n      dup7\n        /* \"#utility.yul\":1756:1778   */\n      add\n        /* \"#utility.yul\":1723:1788   */\n      tag_65\n      jump\t// in\n    tag_128:\n        /* \"#utility.yul\":1705:1788   */\n      swap3\n      pop\n      swap3\n      pop\n        /* \"#utility.yul\":1501:1798   */\n      pop\n        /* \"#utility.yul\":1276:1805   */\n      swap3\n      pop\n      swap3\n      swap1\n      pop\n      jump\t// out\n        /* \"#utility.yul\":1811:1909   */\n    tag_66:\n        /* \"#utility.yul\":1862:1868   */\n      0x00\n        /* \"#utility.yul\":1896:1901   */\n      dup2\n        /* \"#utility.yul\":1890:1902   */\n      mload\n        /* \"#utility.yul\":1880:1902   */\n      swap1\n      pop\n        /* \"#utility.yul\":1811:1909   */\n      swap2\n      swap1\n      pop\n      jump\t// out\n        /* \"#utility.yul\":1915:2083   */\n    tag_67:\n        /* \"#utility.yul\":1998:2009   */\n      0x00\n        /* \"#utility.yul\":2032:2038   */\n      dup3\n        /* \"#utility.yul\":2027:2030   */\n      dup3\n        /* \"#utility.yul\":2020:2039   */\n      mstore\n        /* \"#utility.yul\":2072:2076   */\n      0x20\n        /* \"#utility.yul\":2067:2070   */\n      dup3\n        /* \"#utility.yul\":2063:2077   */\n      add\n        /* \"#utility.yul\":2048:2077   */\n      swap1\n      pop\n        /* \"#utility.yul\":1915:2083   */\n      swap3\n      swap2\n      pop\n      pop\n      jump\t// out\n        /* \"#utility.yul\":2089:2228   */\n    tag_68:\n        /* \"#utility.yul\":2178:2184   */\n      dup3\n        /* \"#utility.yul\":2173:2176   */\n      dup2\n        /* \"#utility.yul\":2168:2171   */\n      dup4\n        /* \"#utility.yul\":2162:2185   */\n      mcopy\n        /* \"#utility.yul\":2219:2220   */\n      0x00\n        /* \"#utility.yul\":2210:2216   */\n      dup4\n        /* \"#utility.yul\":2205:2208   */\n      dup4\n        /* \"#utility.yul\":2201:2217   */\n      add\n        /* \"#utility.yul\":2194:2221   */\n      mstore\n        /* \"#utility.yul\":2089:2228   */\n      pop\n      pop\n      pop\n      jump\t// out\n        /* \"#utility.yul\":2234:2336   */\n    tag_69:\n        /* \"#utility.yul\":2275:2281   */\n      0x00\n        /* \"#utility.yul\":2326:2328   */\n      0x1f\n        /* \"#utility.yul\":2322:2329   */\n      not\n        /* \"#utility.yul\":2317:2319   */\n      0x1f\n        /* \"#utility.yul\":2310:2315   */\n      dup4\n        /* \"#utility.yul\":2306:2320   */\n      add\n        /* \"#utility.yul\":2302:2330   */\n      and\n        /* \"#utility.yul\":2292:2330   */\n      swap1\n      pop\n        /* \"#utility.yul\":2234:2336   */\n      swap2\n      swap1\n      pop\n      jump\t// out\n        /* \"#utility.yul\":2342:2715   */\n    tag_70:\n        /* \"#utility.yul\":2428:2431   */\n      0x00\n        /* \"#utility.yul\":2456:2494   */\n      tag_134\n        /* \"#utility.yul\":2488:2493   */\n      dup3\n        /* \"#utility.yul\":2456:2494   */\n      tag_66\n      jump\t// in\n    tag_134:\n        /* \"#utility.yul\":2510:2580   */\n      tag_135\n        /* \"#utility.yul\":2573:2579   */\n      dup2\n        /* \"#utility.yul\":2568:2571   */\n      dup6\n        /* \"#utility.yul\":2510:2580   */\n      tag_67\n      jump\t// in\n    tag_135:\n        /* \"#utility.yul\":2503:2580   */\n      swap4\n      pop\n        /* \"#utility.yul\":2589:2654   */\n      tag_136\n        /* \"#utility.yul\":2647:2653   */\n      dup2\n        /* \"#utility.yul\":2642:2645   */\n      dup6\n        /* \"#utility.yul\":2635:2639   */\n      0x20\n        /* \"#utility.yul\":2628:2633   */\n      dup7\n        /* \"#utility.yul\":2624:2640   */\n      add\n        /* \"#utility.yul\":2589:2654   */\n      tag_68\n      jump\t// in\n    tag_136:\n        /* \"#utility.yul\":2679:2708   */\n      tag_137\n        /* \"#utility.yul\":2701:2707   */\n      dup2\n        /* \"#utility.yul\":2679:2708   */\n      tag_69\n      jump\t// in\n    tag_137:\n        /* \"#utility.yul\":2674:2677   */\n      dup5\n        /* \"#utility.yul\":2670:2709   */\n      add\n        /* \"#utility.yul\":2663:2709   */\n      swap2\n      pop\n        /* \"#utility.yul\":2432:2715   */\n      pop\n        /* \"#utility.yul\":2342:2715   */\n      swap3\n      swap2\n      pop\n      pop\n      jump\t// out\n        /* \"#utility.yul\":2721:3030   */\n    tag_14:\n        /* \"#utility.yul\":2832:2836   */\n      0x00\n        /* \"#utility.yul\":2870:2872   */\n      0x20\n        /* \"#utility.yul\":2859:2868   */\n      dup3\n        /* \"#utility.yul\":2855:2873   */\n      add\n        /* \"#utility.yul\":2847:2873   */\n      swap1\n      pop\n        /* \"#utility.yul\":2919:2928   */\n      dup2\n        /* \"#utility.yul\":2913:2917   */\n      dup2\n        /* \"#utility.yul\":2909:2929   */\n      sub\n        /* \"#utility.yul\":2905:2906   */\n      0x00\n        /* \"#utility.yul\":2894:2903   */\n      dup4\n        /* \"#utility.yul\":2890:2907   */\n      add\n        /* \"#utility.yul\":2883:2930   */\n      mstore\n        /* \"#utility.yul\":2947:3023   */\n      tag_139\n        /* \"#utility.yul\":3018:3022   */\n      dup2\n        /* \"#utility.yul\":3009:3015   */\n      dup5\n        /* \"#utility.yul\":2947:3023   */\n      tag_70\n      jump\t// in\n    tag_139:\n        /* \"#utility.yul\":2939:3023   */\n      swap1\n      pop\n        /* \"#utility.yul\":2721:3030   */\n      swap3\n      swap2\n      pop\n      pop\n      jump\t// out\n        /* \"#utility.yul\":3036:3153   */\n    tag_71:\n        /* \"#utility.yul\":3145:3146   */\n      0x00\n        /* \"#utility.yul\":3142:3143   */\n      dup1\n        /* \"#utility.yul\":3135:3147   */\n      revert\n        /* \"#utility.yul\":3159:3339   */\n    tag_72:\n        /* \"#utility.yul\":3207:3284   */\n      0x4e487b7100000000000000000000000000000000000000000000000000000000\n        /* \"#utility.yul\":3204:3205   */\n      0x00\n        /* \"#utility.yul\":3197:3285   */\n      mstore\n        /* \"#utility.yul\":3304:3308   */\n      0x41\n        /* \"#utility.yul\":3301:3302   */\n      0x04\n        /* \"#utility.yul\":3294:3309   */\n      mstore\n        /* \"#utility.yul\":3328:3332   */\n      0x24\n        /* \"#utility.yul\":3325:3326   */\n      0x00\n        /* \"#utility.yul\":3318:3333   */\n      revert\n        /* \"#utility.yul\":3345:3626   */\n    tag_73:\n        /* \"#utility.yul\":3428:3455   */\n      tag_143\n        /* \"#utility.yul\":3450:3454   */\n      dup3\n        /* \"#utility.yul\":3428:3455   */\n      tag_69\n      jump\t// in\n    tag_143:\n        /* \"#utility.yul\":3420:3426   */\n      dup2\n        /* \"#utility.yul\":3416:3456   */\n      add\n        /* \"#utility.yul\":3558:3564   */\n      dup2\n        /* \"#utility.yul\":3546:3556   */\n      dup2\n        /* \"#utility.yul\":3543:3565   */\n      lt\n        /* \"#utility.yul\":3522:3540   */\n      0xffffffffffffffff\n        /* \"#utility.yul\":3510:3520   */\n      dup3\n        /* \"#utility.yul\":3507:3541   */\n      gt\n        /* \"#utility.yul\":3504:3566   */\n      or\n        /* \"#utility.yul\":3501:3589   */\n      iszero\n      tag_144\n      jumpi\n        /* \"#utility.yul\":3569:3587   */\n      tag_145\n      tag_72\n      jump\t// in\n    tag_145:\n        /* \"#utility.yul\":3501:3589   */\n    tag_144:\n        /* \"#utility.yul\":3609:3619   */\n      dup1\n        /* \"#utility.yul\":3605:3607   */\n      0x40\n        /* \"#utility.yul\":3598:3620   */\n      mstore\n        /* \"#utility.yul\":3388:3626   */\n      pop\n        /* \"#utility.yul\":3345:3626   */\n      pop\n      pop\n      jump\t// out\n        /* \"#utility.yul\":3632:3761   */\n    tag_74:\n        /* \"#utility.yul\":3666:3672   */\n      0x00\n        /* \"#utility.yul\":3693:3713   */\n      tag_147\n      tag_59\n      jump\t// in\n    tag_147:\n        /* \"#utility.yul\":3683:3713   */\n      swap1\n      pop\n        /* \"#utility.yul\":3722:3755   */\n      tag_148\n        /* \"#utility.yul\":3750:3754   */\n      dup3\n        /* \"#utility.yul\":3742:3748   */\n      dup3\n        /* \"#utility.yul\":3722:3755   */\n      tag_73\n      jump\t// in\n    tag_148:\n        /* \"#utility.yul\":3632:3761   */\n      swap2\n      swap1\n      pop\n      jump\t// out\n        /* \"#utility.yul\":3767:4075   */\n    tag_75:\n        /* \"#utility.yul\":3829:3833   */\n      0x00\n        /* \"#utility.yul\":3919:3937   */\n      0xffffffffffffffff\n        /* \"#utility.yul\":3911:3917   */\n      dup3\n        /* \"#utility.yul\":3908:3938   */\n      gt\n        /* \"#utility.yul\":3905:3961   */\n      iszero\n      tag_150\n      jumpi\n        /* \"#utility.yul\":3941:3959   */\n      tag_151\n      tag_72\n      jump\t// in\n    tag_151:\n        /* \"#utility.yul\":3905:3961   */\n    tag_150:\n        /* \"#utility.yul\":3979:4008   */\n      tag_152\n        /* \"#utility.yul\":4001:4007   */\n      dup3\n        /* \"#utility.yul\":3979:4008   */\n      tag_69\n      jump\t// in\n    tag_152:\n        /* \"#utility.yul\":3971:4008   */\n      swap1\n      pop\n        /* \"#utility.yul\":4063:4067   */\n      0x20\n        /* \"#utility.yul\":4057:4061   */\n      dup2\n        /* \"#utility.yul\":4053:4068   */\n      add\n        /* \"#utility.yul\":4045:4068   */\n      swap1\n      pop\n        /* \"#utility.yul\":3767:4075   */\n      swap2\n      swap1\n      pop\n      jump\t// out\n        /* \"#utility.yul\":4081:4229   */\n    tag_76:\n        /* \"#utility.yul\":4179:4185   */\n      dup3\n        /* \"#utility.yul\":4174:4177   */\n      dup2\n        /* \"#utility.yul\":4169:4172   */\n      dup4\n        /* \"#utility.yul\":4156:4186   */\n      calldatacopy\n        /* \"#utility.yul\":4220:4221   */\n      0x00\n        /* \"#utility.yul\":4211:4217   */\n      dup4\n        /* \"#utility.yul\":4206:4209   */\n      dup4\n        /* \"#utility.yul\":4202:4218   */\n      add\n        /* \"#utility.yul\":4195:4222   */\n      mstore\n        /* \"#utility.yul\":4081:4229   */\n      pop\n      pop\n      pop\n      jump\t// out\n        /* \"#utility.yul\":4235:4660   */\n    tag_77:\n        /* \"#utility.yul\":4313:4318   */\n      0x00\n        /* \"#utility.yul\":4338:4404   */\n      tag_155\n        /* \"#utility.yul\":4354:4403   */\n      tag_156\n        /* \"#utility.yul\":4396:4402   */\n      dup5\n        /* \"#utility.yul\":4354:4403   */\n      tag_75\n      jump\t// in\n    tag_156:\n        /* \"#utility.yul\":4338:4404   */\n      tag_74\n      jump\t// in\n    tag_155:\n        /* \"#utility.yul\":4329:4404   */\n      swap1\n      pop\n        /* \"#utility.yul\":4427:4433   */\n      dup3\n        /* \"#utility.yul\":4420:4425   */\n      dup2\n        /* \"#utility.yul\":4413:4434   */\n      mstore\n        /* \"#utility.yul\":4465:4469   */\n      0x20\n        /* \"#utility.yul\":4458:4463   */\n      dup2\n        /* \"#utility.yul\":4454:4470   */\n      add\n        /* \"#utility.yul\":4503:4506   */\n      dup5\n        /* \"#utility.yul\":4494:4500   */\n      dup5\n        /* \"#utility.yul\":4489:4492   */\n      dup5\n        /* \"#utility.yul\":4485:4501   */\n      add\n        /* \"#utility.yul\":4482:4507   */\n      gt\n        /* \"#utility.yul\":4479:4591   */\n      iszero\n      tag_157\n      jumpi\n        /* \"#utility.yul\":4510:4589   */\n      tag_158\n      tag_71\n      jump\t// in\n    tag_158:\n        /* \"#utility.yul\":4479:4591   */\n    tag_157:\n        /* \"#utility.yul\":4600:4654   */\n      tag_159\n        /* \"#utility.yul\":4647:4653   */\n      dup5\n        /* \"#utility.yul\":4642:4645   */\n      dup3\n        /* \"#utility.yul\":4637:4640   */\n      dup6\n        /* \"#utility.yul\":4600:4654   */\n      tag_76\n      jump\t// in\n    tag_159:\n        /* \"#utility.yul\":4319:4660   */\n      pop\n        /* \"#utility.yul\":4235:4660   */\n      swap4\n      swap3\n      pop\n      pop\n      pop\n      jump\t// out\n        /* \"#utility.yul\":4680:5020   */\n    tag_78:\n        /* \"#utility.yul\":4736:4741   */\n      0x00\n        /* \"#utility.yul\":4785:4788   */\n      dup3\n        /* \"#utility.yul\":4778:4782   */\n      0x1f\n        /* \"#utility.yul\":4770:4776   */\n      dup4\n        /* \"#utility.yul\":4766:4783   */\n      add\n        /* \"#utility.yul\":4762:4789   */\n      slt\n        /* \"#utility.yul\":4752:4874   */\n      tag_161\n      jumpi\n        /* \"#utility.yul\":4793:4872   */\n      tag_162\n      tag_62\n      jump\t// in\n    tag_162:\n        /* \"#utility.yul\":4752:4874   */\n    tag_161:\n        /* \"#utility.yul\":4910:4916   */\n      dup2\n        /* \"#utility.yul\":4897:4917   */\n      calldataload\n        /* \"#utility.yul\":4935:5014   */\n      tag_163\n        /* \"#utility.yul\":5010:5013   */\n      dup5\n        /* \"#utility.yul\":5002:5008   */\n      dup3\n        /* \"#utility.yul\":4995:4999   */\n      0x20\n        /* \"#utility.yul\":4987:4993   */\n      dup7\n        /* \"#utility.yul\":4983:5000   */\n      add\n        /* \"#utility.yul\":4935:5014   */\n      tag_77\n      jump\t// in\n    tag_163:\n        /* \"#utility.yul\":4926:5014   */\n      swap2\n      pop\n        /* \"#utility.yul\":4742:5020   */\n      pop\n        /* \"#utility.yul\":4680:5020   */\n      swap3\n      swap2\n      pop\n      pop\n      jump\t// out\n        /* \"#utility.yul\":5026:5535   */\n    tag_17:\n        /* \"#utility.yul\":5095:5101   */\n      0x00\n        /* \"#utility.yul\":5144:5146   */\n      0x20\n        /* \"#utility.yul\":5132:5141   */\n      dup3\n        /* \"#utility.yul\":5123:5130   */\n      dup5\n        /* \"#utility.yul\":5119:5142   */\n      sub\n        /* \"#utility.yul\":5115:5147   */\n      slt\n        /* \"#utility.yul\":5112:5231   */\n      iszero\n      tag_165\n      jumpi\n        /* \"#utility.yul\":5150:5229   */\n      tag_166\n      tag_60\n      jump\t// in\n    tag_166:\n        /* \"#utility.yul\":5112:5231   */\n    tag_165:\n        /* \"#utility.yul\":5298:5299   */\n      0x00\n        /* \"#utility.yul\":5287:5296   */\n      dup3\n        /* \"#utility.yul\":5283:5300   */\n      add\n        /* \"#utility.yul\":5270:5301   */\n      calldataload\n        /* \"#utility.yul\":5328:5346   */\n      0xffffffffffffffff\n        /* \"#utility.yul\":5320:5326   */\n      dup2\n        /* \"#utility.yul\":5317:5347   */\n      gt\n        /* \"#utility.yul\":5314:5431   */\n      iszero\n      tag_167\n      jumpi\n        /* \"#utility.yul\":5350:5429   */\n      tag_168\n      tag_61\n      jump\t// in\n    tag_168:\n        /* \"#utility.yul\":5314:5431   */\n    tag_167:\n        /* \"#utility.yul\":5455:5518   */\n      tag_169\n        /* \"#utility.yul\":5510:5517   */\n      dup5\n        /* \"#utility.yul\":5501:5507   */\n      dup3\n        /* \"#utility.yul\":5490:5499   */\n      dup6\n        /* \"#utility.yul\":5486:5508   */\n      add\n        /* \"#utility.yul\":5455:5518   */\n      tag_78\n      jump\t// in\n    tag_169:\n        /* \"#utility.yul\":5445:5518   */\n      swap2\n      pop\n        /* \"#utility.yul\":5241:5528   */\n      pop\n        /* \"#utility.yul\":5026:5535   */\n      swap3\n      swap2\n      pop\n      pop\n      jump\t// out\n        /* \"#utility.yul\":5541:5618   */\n    tag_79:\n        /* \"#utility.yul\":5578:5585   */\n      0x00\n        /* \"#utility.yul\":5607:5612   */\n      dup2\n        /* \"#utility.yul\":5596:5612   */\n      swap1\n      pop\n        /* \"#utility.yul\":5541:5618   */\n      swap2\n      swap1\n      pop\n      jump\t// out\n        /* \"#utility.yul\":5624:5742   */\n    tag_80:\n        /* \"#utility.yul\":5711:5735   */\n      tag_172\n        /* \"#utility.yul\":5729:5734   */\n      dup2\n        /* \"#utility.yul\":5711:5735   */\n      tag_79\n      jump\t// in\n    tag_172:\n        /* \"#utility.yul\":5706:5709   */\n      dup3\n        /* \"#utility.yul\":5699:5736   */\n      mstore\n        /* \"#utility.yul\":5624:5742   */\n      pop\n      pop\n      jump\t// out\n        /* \"#utility.yul\":5748:5970   */\n    tag_23:\n        /* \"#utility.yul\":5841:5845   */\n      0x00\n        /* \"#utility.yul\":5879:5881   */\n      0x20\n        /* \"#utility.yul\":5868:5877   */\n      dup3\n        /* \"#utility.yul\":5864:5882   */\n      add\n        /* \"#utility.yul\":5856:5882   */\n      swap1\n      pop\n        /* \"#utility.yul\":5892:5963   */\n      tag_174\n        /* \"#utility.yul\":5960:5961   */\n      0x00\n        /* \"#utility.yul\":5949:5958   */\n      dup4\n        /* \"#utility.yul\":5945:5962   */\n      add\n        /* \"#utility.yul\":5936:5942   */\n      dup5\n        /* \"#utility.yul\":5892:5963   */\n      tag_80\n      jump\t// in\n    tag_174:\n        /* \"#utility.yul\":5748:5970   */\n      swap3\n      swap2\n      pop\n      pop\n      jump\t// out\n        /* \"#utility.yul\":5976:6075   */\n    tag_81:\n        /* \"#utility.yul\":6028:6034   */\n      0x00\n        /* \"#utility.yul\":6062:6067   */\n      dup2\n        /* \"#utility.yul\":6056:6068   */\n      mload\n        /* \"#utility.yul\":6046:6068   */\n      swap1\n      pop\n        /* \"#utility.yul\":5976:6075   */\n      swap2\n      swap1\n      pop\n      jump\t// out\n        /* \"#utility.yul\":6081:6250   */\n    tag_82:\n        /* \"#utility.yul\":6165:6176   */\n      0x00\n        /* \"#utility.yul\":6199:6205   */\n      dup3\n        /* \"#utility.yul\":6194:6197   */\n      dup3\n        /* \"#utility.yul\":6187:6206   */\n      mstore\n        /* \"#utility.yul\":6239:6243   */\n      0x20\n        /* \"#utility.yul\":6234:6237   */\n      dup3\n        /* \"#utility.yul\":6230:6244   */\n      add\n        /* \"#utility.yul\":6215:6244   */\n      swap1\n      pop\n        /* \"#utility.yul\":6081:6250   */\n      swap3\n      swap2\n      pop\n      pop\n      jump\t// out\n        /* \"#utility.yul\":6256:6633   */\n    tag_83:\n        /* \"#utility.yul\":6344:6347   */\n      0x00\n        /* \"#utility.yul\":6372:6411   */\n      tag_178\n        /* \"#utility.yul\":6405:6410   */\n      dup3\n        /* \"#utility.yul\":6372:6411   */\n      tag_81\n      jump\t// in\n    tag_178:\n        /* \"#utility.yul\":6427:6498   */\n      tag_179\n        /* \"#utility.yul\":6491:6497   */\n      dup2\n        /* \"#utility.yul\":6486:6489   */\n      dup6\n        /* \"#utility.yul\":6427:6498   */\n      tag_82\n      jump\t// in\n    tag_179:\n        /* \"#utility.yul\":6420:6498   */\n      swap4\n      pop\n        /* \"#utility.yul\":6507:6572   */\n      tag_180\n        /* \"#utility.yul\":6565:6571   */\n      dup2\n        /* \"#utility.yul\":6560:6563   */\n      dup6\n        /* \"#utility.yul\":6553:6557   */\n      0x20\n        /* \"#utility.yul\":6546:6551   */\n      dup7\n        /* \"#utility.yul\":6542:6558   */\n      add\n        /* \"#utility.yul\":6507:6572   */\n      tag_68\n      jump\t// in\n    tag_180:\n        /* \"#utility.yul\":6597:6626   */\n      tag_181\n        /* \"#utility.yul\":6619:6625   */\n      dup2\n        /* \"#utility.yul\":6597:6626   */\n      tag_69\n      jump\t// in\n    tag_181:\n        /* \"#utility.yul\":6592:6595   */\n      dup5\n        /* \"#utility.yul\":6588:6627   */\n      add\n        /* \"#utility.yul\":6581:6627   */\n      swap2\n      pop\n        /* \"#utility.yul\":6348:6633   */\n      pop\n        /* \"#utility.yul\":6256:6633   */\n      swap3\n      swap2\n      pop\n      pop\n      jump\t// out\n        /* \"#utility.yul\":6639:6952   */\n    tag_28:\n        /* \"#utility.yul\":6752:6756   */\n      0x00\n        /* \"#utility.yul\":6790:6792   */\n      0x20\n        /* \"#utility.yul\":6779:6788   */\n      dup3\n        /* \"#utility.yul\":6775:6793   */\n      add\n        /* \"#utility.yul\":6767:6793   */\n      swap1\n      pop\n        /* \"#utility.yul\":6839:6848   */\n      dup2\n        /* \"#utility.yul\":6833:6837   */\n      dup2\n        /* \"#utility.yul\":6829:6849   */\n      sub\n        /* \"#utility.yul\":6825:6826   */\n      0x00\n        /* \"#utility.yul\":6814:6823   */\n      dup4\n        /* \"#utility.yul\":6810:6827   */\n      add\n        /* \"#utility.yul\":6803:6850   */\n      mstore\n        /* \"#utility.yul\":6867:6945   */\n      tag_183\n        /* \"#utility.yul\":6940:6944   */\n      dup2\n        /* \"#utility.yul\":6931:6937   */\n      dup5\n        /* \"#utility.yul\":6867:6945   */\n      tag_83\n      jump\t// in\n    tag_183:\n        /* \"#utility.yul\":6859:6945   */\n      swap1\n      pop\n        /* \"#utility.yul\":6639:6952   */\n      swap3\n      swap2\n      pop\n      pop\n      jump\t// out\n        /* \"#utility.yul\":6958:7084   */\n    tag_84:\n        /* \"#utility.yul\":6995:7002   */\n      0x00\n        /* \"#utility.yul\":7035:7077   */\n      0xffffffffffffffffffffffffffffffffffffffff\n        /* \"#utility.yul\":7028:7033   */\n      dup3\n        /* \"#utility.yul\":7024:7078   */\n      and\n        /* \"#utility.yul\":7013:7078   */\n      swap1\n      pop\n        /* \"#utility.yul\":6958:7084   */\n      swap2\n      swap1\n      pop\n      jump\t// out\n        /* \"#utility.yul\":7090:7186   */\n    tag_85:\n        /* \"#utility.yul\":7127:7134   */\n      0x00\n        /* \"#utility.yul\":7156:7180   */\n      tag_186\n        /* \"#utility.yul\":7174:7179   */\n      dup3\n        /* \"#utility.yul\":7156:7180   */\n      tag_84\n      jump\t// in\n    tag_186:\n        /* \"#utility.yul\":7145:7180   */\n      swap1\n      pop\n        /* \"#utility.yul\":7090:7186   */\n      swap2\n      swap1\n      pop\n      jump\t// out\n        /* \"#utility.yul\":7192:7314   */\n    tag_86:\n        /* \"#utility.yul\":7265:7289   */\n      tag_188\n        /* \"#utility.yul\":7283:7288   */\n      dup2\n        /* \"#utility.yul\":7265:7289   */\n      tag_85\n      jump\t// in\n    tag_188:\n        /* \"#utility.yul\":7258:7263   */\n      dup2\n        /* \"#utility.yul\":7255:7290   */\n      eq\n        /* \"#utility.yul\":7245:7308   */\n      tag_189\n      jumpi\n        /* \"#utility.yul\":7304:7305   */\n      0x00\n        /* \"#utility.yul\":7301:7302   */\n      dup1\n        /* \"#utility.yul\":7294:7306   */\n      revert\n        /* \"#utility.yul\":7245:7308   */\n    tag_189:\n        /* \"#utility.yul\":7192:7314   */\n      pop\n      jump\t// out\n        /* \"#utility.yul\":7320:7459   */\n    tag_87:\n        /* \"#utility.yul\":7366:7371   */\n      0x00\n        /* \"#utility.yul\":7404:7410   */\n      dup2\n        /* \"#utility.yul\":7391:7411   */\n      calldataload\n        /* \"#utility.yul\":7382:7411   */\n      swap1\n      pop\n        /* \"#utility.yul\":7420:7453   */\n      tag_191\n        /* \"#utility.yul\":7447:7452   */\n      dup2\n        /* \"#utility.yul\":7420:7453   */\n      tag_86\n      jump\t// in\n    tag_191:\n        /* \"#utility.yul\":7320:7459   */\n      swap3\n      swap2\n      pop\n      pop\n      jump\t// out\n        /* \"#utility.yul\":7465:7794   */\n    tag_32:\n        /* \"#utility.yul\":7524:7530   */\n      0x00\n        /* \"#utility.yul\":7573:7575   */\n      0x20\n        /* \"#utility.yul\":7561:7570   */\n      dup3\n        /* \"#utility.yul\":7552:7559   */\n      dup5\n        /* \"#utility.yul\":7548:7571   */\n      sub\n        /* \"#utility.yul\":7544:7576   */\n      slt\n        /* \"#utility.yul\":7541:7660   */\n      iszero\n      tag_193\n      jumpi\n        /* \"#utility.yul\":7579:7658   */\n      tag_194\n      tag_60\n      jump\t// in\n    tag_194:\n        /* \"#utility.yul\":7541:7660   */\n    tag_193:\n        /* \"#utility.yul\":7699:7700   */\n      0x00\n        /* \"#utility.yul\":7724:7777   */\n      tag_195\n        /* \"#utility.yul\":7769:7776   */\n      dup5\n        /* \"#utility.yul\":7760:7766   */\n      dup3\n        /* \"#utility.yul\":7749:7758   */\n      dup6\n        /* \"#utility.yul\":7745:7767   */\n      add\n        /* \"#utility.yul\":7724:7777   */\n      tag_87\n      jump\t// in\n    tag_195:\n        /* \"#utility.yul\":7714:7777   */\n      swap2\n      pop\n        /* \"#utility.yul\":7670:7787   */\n      pop\n        /* \"#utility.yul\":7465:7794   */\n      swap3\n      swap2\n      pop\n      pop\n      jump\t// out\n        /* \"#utility.yul\":7800:7918   */\n    tag_88:\n        /* \"#utility.yul\":7887:7911   */\n      tag_197\n        /* \"#utility.yul\":7905:7910   */\n      dup2\n        /* \"#utility.yul\":7887:7911   */\n      tag_85\n      jump\t// in\n    tag_197:\n        /* \"#utility.yul\":7882:7885   */\n      dup3\n        /* \"#utility.yul\":7875:7912   */\n      mstore\n        /* \"#utility.yul\":7800:7918   */\n      pop\n      pop\n      jump\t// out\n        /* \"#utility.yul\":7924:8146   */\n    tag_39:\n        /* \"#utility.yul\":8017:8021   */\n      0x00\n        /* \"#utility.yul\":8055:8057   */\n      0x20\n        /* \"#utility.yul\":8044:8053   */\n      dup3\n        /* \"#utility.yul\":8040:8058   */\n      add\n        /* \"#utility.yul\":8032:8058   */\n      swap1\n      pop\n        /* \"#utility.yul\":8068:8139   */\n      tag_199\n        /* \"#utility.yul\":8136:8137   */\n      0x00\n        /* \"#utility.yul\":8125:8134   */\n      dup4\n        /* \"#utility.yul\":8121:8138   */\n      add\n        /* \"#utility.yul\":8112:8118   */\n      dup5\n        /* \"#utility.yul\":8068:8139   */\n      tag_88\n      jump\t// in\n    tag_199:\n        /* \"#utility.yul\":7924:8146   */\n      swap3\n      swap2\n      pop\n      pop\n      jump\t// out\n        /* \"#utility.yul\":8176:8493   */\n    tag_89:\n        /* \"#utility.yul\":8274:8277   */\n      0x00\n        /* \"#utility.yul\":8295:8366   */\n      tag_201\n        /* \"#utility.yul\":8359:8365   */\n      dup4\n        /* \"#utility.yul\":8354:8357   */\n      dup6\n        /* \"#utility.yul\":8295:8366   */\n      tag_82\n      jump\t// in\n    tag_201:\n        /* \"#utility.yul\":8288:8366   */\n      swap4\n      pop\n        /* \"#utility.yul\":8376:8432   */\n      tag_202\n        /* \"#utility.yul\":8425:8431   */\n      dup4\n        /* \"#utility.yul\":8420:8423   */\n      dup6\n        /* \"#utility.yul\":8413:8418   */\n      dup5\n        /* \"#utility.yul\":8376:8432   */\n      tag_76\n      jump\t// in\n    tag_202:\n        /* \"#utility.yul\":8457:8486   */\n      tag_203\n        /* \"#utility.yul\":8479:8485   */\n      dup4\n        /* \"#utility.yul\":8457:8486   */\n      tag_69\n      jump\t// in\n    tag_203:\n        /* \"#utility.yul\":8452:8455   */\n      dup5\n        /* \"#utility.yul\":8448:8487   */\n      add\n        /* \"#utility.yul\":8441:8487   */\n      swap1\n      pop\n        /* \"#utility.yul\":8176:8493   */\n      swap4\n      swap3\n      pop\n      pop\n      pop\n      jump\t// out\n        /* \"#utility.yul\":8499:8832   */\n    tag_42:\n        /* \"#utility.yul\":8622:8626   */\n      0x00\n        /* \"#utility.yul\":8660:8662   */\n      0x20\n        /* \"#utility.yul\":8649:8658   */\n      dup3\n        /* \"#utility.yul\":8645:8663   */\n      add\n        /* \"#utility.yul\":8637:8663   */\n      swap1\n      pop\n        /* \"#utility.yul\":8709:8718   */\n      dup2\n        /* \"#utility.yul\":8703:8707   */\n      dup2\n        /* \"#utility.yul\":8699:8719   */\n      sub\n        /* \"#utility.yul\":8695:8696   */\n      0x00\n        /* \"#utility.yul\":8684:8693   */\n      dup4\n        /* \"#utility.yul\":8680:8697   */\n      add\n        /* \"#utility.yul\":8673:8720   */\n      mstore\n        /* \"#utility.yul\":8737:8825   */\n      tag_205\n        /* \"#utility.yul\":8820:8824   */\n      dup2\n        /* \"#utility.yul\":8811:8817   */\n      dup5\n        /* \"#utility.yul\":8803:8809   */\n      dup7\n        /* \"#utility.yul\":8737:8825   */\n      tag_89\n      jump\t// in\n    tag_205:\n        /* \"#utility.yul\":8729:8825   */\n      swap1\n      pop\n        /* \"#utility.yul\":8499:8832   */\n      swap4\n      swap3\n      pop\n      pop\n      pop\n      jump\t// out\n        /* \"#utility.yul\":8838:9003   */\n    tag_90:\n        /* \"#utility.yul\":8978:8995   */\n      0x696e76616c696420616464726573730000000000000000000000000000000000\n        /* \"#utility.yul\":8974:8975   */\n      0x00\n        /* \"#utility.yul\":8966:8972   */\n      dup3\n        /* \"#utility.yul\":8962:8976   */\n      add\n        /* \"#utility.yul\":8955:8996   */\n      mstore\n        /* \"#utility.yul\":8838:9003   */\n      pop\n      jump\t// out\n        /* \"#utility.yul\":9009:9375   */\n    tag_91:\n        /* \"#utility.yul\":9151:9154   */\n      0x00\n        /* \"#utility.yul\":9172:9239   */\n      tag_208\n        /* \"#utility.yul\":9236:9238   */\n      0x0f\n        /* \"#utility.yul\":9231:9234   */\n      dup4\n        /* \"#utility.yul\":9172:9239   */\n      tag_82\n      jump\t// in\n    tag_208:\n        /* \"#utility.yul\":9165:9239   */\n      swap2\n      pop\n        /* \"#utility.yul\":9248:9341   */\n      tag_209\n        /* \"#utility.yul\":9337:9340   */\n      dup3\n        /* \"#utility.yul\":9248:9341   */\n      tag_90\n      jump\t// in\n    tag_209:\n        /* \"#utility.yul\":9366:9368   */\n      0x20\n        /* \"#utility.yul\":9361:9364   */\n      dup3\n        /* \"#utility.yul\":9357:9369   */\n      add\n        /* \"#utility.yul\":9350:9369   */\n      swap1\n      pop\n        /* \"#utility.yul\":9009:9375   */\n      swap2\n      swap1\n      pop\n      jump\t// out\n        /* \"#utility.yul\":9381:9800   */\n    tag_46:\n        /* \"#utility.yul\":9547:9551   */\n      0x00\n        /* \"#utility.yul\":9585:9587   */\n      0x20\n        /* \"#utility.yul\":9574:9583   */\n      dup3\n        /* \"#utility.yul\":9570:9588   */\n      add\n        /* \"#utility.yul\":9562:9588   */\n      swap1\n      pop\n        /* \"#utility.yul\":9634:9643   */\n      dup2\n        /* \"#utility.yul\":9628:9632   */\n      dup2\n        /* \"#utility.yul\":9624:9644   */\n      sub\n        /* \"#utility.yul\":9620:9621   */\n      0x00\n        /* \"#utility.yul\":9609:9618   */\n      dup4\n        /* \"#utility.yul\":9605:9622   */\n      add\n        /* \"#utility.yul\":9598:9645   */\n      mstore\n        /* \"#utility.yul\":9662:9793   */\n      tag_211\n        /* \"#utility.yul\":9788:9792   */\n      dup2\n        /* \"#utility.yul\":9662:9793   */\n      tag_91\n      jump\t// in\n    tag_211:\n        /* \"#utility.yul\":9654:9793   */\n      swap1\n      pop\n        /* \"#utility.yul\":9381:9800   */\n      swap2\n      swap1\n      pop\n      jump\t// out\n        /* \"#utility.yul\":9806:9986   */\n    tag_92:\n        /* \"#utility.yul\":9854:9931   */\n      0x4e487b7100000000000000000000000000000000000000000000000000000000\n        /* \"#utility.yul\":9851:9852   */\n      0x00\n        /* \"#utility.yul\":9844:9932   */\n      mstore\n        /* \"#utility.yul\":9951:9955   */\n      0x11\n        /* \"#utility.yul\":9948:9949   */\n      0x04\n        /* \"#utility.yul\":9941:9956   */\n      mstore\n        /* \"#utility.yul\":9975:9979   */\n      0x24\n        /* \"#utility.yul\":9972:9973   */\n      0x00\n        /* \"#utility.yul\":9965:9980   */\n      revert\n        /* \"#utility.yul\":9992:10183   */\n    tag_48:\n        /* \"#utility.yul\":10032:10035   */\n      0x00\n        /* \"#utility.yul\":10051:10071   */\n      tag_214\n        /* \"#utility.yul\":10069:10070   */\n      dup3\n        /* \"#utility.yul\":10051:10071   */\n      tag_79\n      jump\t// in\n    tag_214:\n        /* \"#utility.yul\":10046:10071   */\n      swap2\n      pop\n        /* \"#utility.yul\":10085:10105   */\n      tag_215\n        /* \"#utility.yul\":10103:10104   */\n      dup4\n        /* \"#utility.yul\":10085:10105   */\n      tag_79\n      jump\t// in\n    tag_215:\n        /* \"#utility.yul\":10080:10105   */\n      swap3\n      pop\n        /* \"#utility.yul\":10128:10129   */\n      dup3\n        /* \"#utility.yul\":10125:10126   */\n      dup3\n        /* \"#utility.yul\":10121:10130   */\n      add\n        /* \"#utility.yul\":10114:10130   */\n      swap1\n      pop\n        /* \"#utility.yul\":10149:10152   */\n      dup1\n        /* \"#utility.yul\":10146:10147   */\n      dup3\n        /* \"#utility.yul\":10143:10153   */\n      gt\n        /* \"#utility.yul\":10140:10176   */\n      iszero\n      tag_216\n      jumpi\n        /* \"#utility.yul\":10156:10174   */\n      tag_217\n      tag_92\n      jump\t// in\n    tag_217:\n        /* \"#utility.yul\":10140:10176   */\n    tag_216:\n        /* \"#utility.yul\":9992:10183   */\n      swap3\n      swap2\n      pop\n      pop\n      jump\t// out\n        /* \"#utility.yul\":10189:10369   */\n    tag_93:\n        /* \"#utility.yul\":10237:10314   */\n      0x4e487b7100000000000000000000000000000000000000000000000000000000\n        /* \"#utility.yul\":10234:10235   */\n      0x00\n        /* \"#utility.yul\":10227:10315   */\n      mstore\n        /* \"#utility.yul\":10334:10338   */\n      0x22\n        /* \"#utility.yul\":10331:10332   */\n      0x04\n        /* \"#utility.yul\":10324:10339   */\n      mstore\n        /* \"#utility.yul\":10358:10362   */\n      0x24\n        /* \"#utility.yul\":10355:10356   */\n      0x00\n        /* \"#utility.yul\":10348:10363   */\n      revert\n        /* \"#utility.yul\":10375:10695   */\n    tag_54:\n        /* \"#utility.yul\":10419:10425   */\n      0x00\n        /* \"#utility.yul\":10456:10457   */\n      0x02\n        /* \"#utility.yul\":10450:10454   */\n      dup3\n        /* \"#utility.yul\":10446:10458   */\n      div\n        /* \"#utility.yul\":10436:10458   */\n      swap1\n      pop\n        /* \"#utility.yul\":10503:10504   */\n      0x01\n        /* \"#utility.yul\":10497:10501   */\n      dup3\n        /* \"#utility.yul\":10493:10505   */\n      and\n        /* \"#utility.yul\":10524:10542   */\n      dup1\n        /* \"#utility.yul\":10514:10595   */\n      tag_220\n      jumpi\n        /* \"#utility.yul\":10580:10584   */\n      0x7f\n        /* \"#utility.yul\":10572:10578   */\n      dup3\n        /* \"#utility.yul\":10568:10585   */\n      and\n        /* \"#utility.yul\":10558:10585   */\n      swap2\n      pop\n        /* \"#utility.yul\":10514:10595   */\n    tag_220:\n        /* \"#utility.yul\":10642:10644   */\n      0x20\n        /* \"#utility.yul\":10634:10640   */\n      dup3\n        /* \"#utility.yul\":10631:10645   */\n      lt\n        /* \"#utility.yul\":10611:10629   */\n      dup2\n        /* \"#utility.yul\":10608:10646   */\n      sub\n        /* \"#utility.yul\":10605:10689   */\n      tag_221\n      jumpi\n        /* \"#utility.yul\":10661:10679   */\n      tag_222\n      tag_93\n      jump\t// in\n    tag_222:\n        /* \"#utility.yul\":10605:10689   */\n    tag_221:\n        /* \"#utility.yul\":10426:10695   */\n      pop\n        /* \"#utility.yul\":10375:10695   */\n      swap2\n      swap1\n      pop\n      jump\t// out\n        /* \"#utility.yul\":10701:10842   */\n    tag_94:\n        /* \"#utility.yul\":10750:10754   */\n      0x00\n        /* \"#utility.yul\":10773:10776   */\n      dup2\n        /* \"#utility.yul\":10765:10776   */\n      swap1\n      pop\n        /* \"#utility.yul\":10796:10799   */\n      dup2\n        /* \"#utility.yul\":10793:10794   */\n      0x00\n        /* \"#utility.yul\":10786:10800   */\n      mstore\n        /* \"#utility.yul\":10830:10834   */\n      0x20\n        /* \"#utility.yul\":10827:10828   */\n      0x00\n        /* \"#utility.yul\":10817:10835   */\n      keccak256\n        /* \"#utility.yul\":10809:10835   */\n      swap1\n      pop\n        /* \"#utility.yul\":10701:10842   */\n      swap2\n      swap1\n      pop\n      jump\t// out\n        /* \"#utility.yul\":10848:10941   */\n    tag_95:\n        /* \"#utility.yul\":10885:10891   */\n      0x00\n        /* \"#utility.yul\":10932:10934   */\n      0x20\n        /* \"#utility.yul\":10927:10929   */\n      0x1f\n        /* \"#utility.yul\":10920:10925   */\n      dup4\n        /* \"#utility.yul\":10916:10930   */\n      add\n        /* \"#utility.yul\":10912:10935   */\n      div\n        /* \"#utility.yul\":10902:10935   */\n      swap1\n      pop\n        /* \"#utility.yul\":10848:10941   */\n      swap2\n      swap1\n      pop\n      jump\t// out\n        /* \"#utility.yul\":10947:11054   */\n    tag_96:\n        /* \"#utility.yul\":10991:10999   */\n      0x00\n        /* \"#utility.yul\":11041:11046   */\n      dup3\n        /* \"#utility.yul\":11035:11039   */\n      dup3\n        /* \"#utility.yul\":11031:11047   */\n      shl\n        /* \"#utility.yul\":11010:11047   */\n      swap1\n      pop\n        /* \"#utility.yul\":10947:11054   */\n      swap3\n      swap2\n      pop\n      pop\n      jump\t// out\n        /* \"#utility.yul\":11060:11453   */\n    tag_97:\n        /* \"#utility.yul\":11129:11135   */\n      0x00\n        /* \"#utility.yul\":11179:11180   */\n      0x08\n        /* \"#utility.yul\":11167:11177   */\n      dup4\n        /* \"#utility.yul\":11163:11181   */\n      mul\n        /* \"#utility.yul\":11202:11299   */\n      tag_227\n        /* \"#utility.yul\":11232:11298   */\n      0xffffffffffffffffffffffffffffffffffffffffffffffffffffffffffffffff\n        /* \"#utility.yul\":11221:11230   */\n      dup3\n        /* \"#utility.yul\":11202:11299   */\n      tag_96\n      jump\t// in\n    tag_227:\n        /* \"#utility.yul\":11320:11359   */\n      tag_228\n        /* \"#utility.yul\":11350:11358   */\n      dup7\n        /* \"#utility.yul\":11339:11348   */\n      dup4\n        /* \"#utility.yul\":11320:11359   */\n      tag_96\n      jump\t// in\n    tag_228:\n        /* \"#utility.yul\":11308:11359   */\n      swap6\n      pop\n        /* \"#utility.yul\":11392:11396   */\n      dup1\n        /* \"#utility.yul\":11388:11397   */\n      not\n        /* \"#utility.yul\":11381:11386   */\n      dup5\n        /* \"#utility.yul\":11377:11398   */\n      and\n        /* \"#utility.yul\":11368:11398   */\n      swap4\n      pop\n        /* \"#utility.yul\":11441:11445   */\n      dup1\n        /* \"#utility.yul\":11431:11439   */\n      dup7\n        /* \"#utility.yul\":11427:11446   */\n      and\n        /* \"#utility.yul\":11420:11425   */\n      dup5\n        /* \"#utility.yul\":11417:11447   */\n      or\n        /* \"#utility.yul\":11407:11447   */\n      swap3\n      pop\n        /* \"#utility.yul\":11136:11453   */\n      pop\n      pop\n        /* \"#utility.yul\":11060:11453   */\n      swap4\n      swap3\n      pop\n      pop\n      pop\n      jump\t// out\n        /* \"#utility.yul\":11459:11519   */\n    tag_98:\n        /* \"#utility.yul\":11487:11490   */\n      0x00\n        /* \"#utility.yul\":11508:11513   */\n      dup2\n        /* \"#utility.yul\":11501:11513   */\n      swap1\n      pop\n        /* \"#utility.yul\":11459:11519   */\n      swap2\n      swap1\n      pop\n      jump\t// out\n        /* \"#utility.yul\":11525:11667   */\n    tag_99:\n        /* \"#utility.yul\":11575:11584   */\n      0x00\n        /* \"#utility.yul\":11608:11661   */\n      tag_231\n        /* \"#utility.yul\":11626:11660   */\n      tag_232\n        /* \"#utility.yul\":11635:11659   */\n      tag_233\n        /* \"#utility.yul\":11653:11658   */\n      dup5\n        /* \"#utility.yul\":11635:11659   */\n      tag_79\n      jump\t// in\n    tag_233:\n        /* \"#utility.yul\":11626:11660   */\n      tag_98\n      jump\t// in\n    tag_232:\n        /* \"#utility.yul\":11608:11661   */\n      tag_79\n      jump\t// in\n    tag_231:\n        /* \"#utility.yul\":11595:11661   */\n      swap1\n      pop\n        /* \"#utility.yul\":11525:11667   */\n      swap2\n      swap1\n      pop\n      jump\t// out\n        /* \"#utility.yul\":11673:11748   */\n    tag_100:\n        /* \"#utility.yul\":11716:11719   */\n      0x00\n        /* \"#utility.yul\":11737:11742   */\n      dup2\n        /* \"#utility.yul\":11730:11742   */\n      swap1\n      pop\n        /* \"#utility.yul\":11673:11748   */\n      swap2\n      swap1\n      pop\n      jump\t// out\n        /* \"#utility.yul\":11754:12023   */\n    tag_101:\n        /* \"#utility.yul\":11864:11903   */\n      tag_236\n        /* \"#utility.yul\":11895:11902   */\n      dup4\n        /* \"#utility.yul\":11864:11903   */\n      tag_99\n      jump\t// in\n    tag_236:\n        /* \"#utility.yul\":11925:12016   */\n      tag_237\n        /* \"#utility.yul\":11974:12015   */\n      tag_238\n        /* \"#utility.yul\":11998:12014   */\n      dup3\n        /* \"#utility.yul\":11974:12015   */\n      tag_100\n      jump\t// in\n    tag_238:\n        /* \"#utility.yul\":11966:11972   */\n      dup5\n        /* \"#utility.yul\":11959:11963   */\n      dup5\n        /* \"#utility.yul\":11953:11964   */\n      sload\n        /* \"#utility.yul\":11925:12016   */\n      tag_97\n      jump\t// in\n    tag_237:\n        /* \"#utility.yul\":11919:11923   */\n      dup3\n        /* \"#utility.yul\":11912:12017   */\n      sstore\n        /* \"#utility.yul\":11830:12023   */\n      pop\n        /* \"#utility.yul\":11754:12023   */\n      pop\n      pop\n      pop\n      jump\t// out\n        /* \"#utility.yul\":12029:12102   */\n    tag_102:\n        /* \"#utility.yul\":12074:12077   */\n      0x00\n        /* \"#utility.yul\":12029:12102   */\n      swap1\n      jump\t// out\n        /* \"#utility.yul\":12108:12297   */\n    tag_103:\n        /* \"#utility.yul\":12185:12217   */\n      tag_241\n      tag_102\n      jump\t// in\n    tag_241:\n        /* \"#utility.yul\":12226:12291   */\n      tag_242\n        /* \"#utility.yul\":12284:12290   */\n      dup2\n        /* \"#utility.yul\":12276:12282   */\n      dup5\n        /* \"#utility.yul\":12270:12274   */\n      dup5\n        /* \"#utility.yul\":12226:12291   */\n      tag_101\n      jump\t// in\n    tag_242:\n        /* \"#utility.yul\":12161:12297   */\n      pop\n        /* \"#utility.yul\":12108:12297   */\n      pop\n      pop\n      jump\t// out\n        /* \"#utility.yul\":12303:12489   */\n    tag_104:\n        /* \"#utility.yul\":12363:12483   */\n    tag_244:\n        /* \"#utility.yul\":12380:12383   */\n      dup2\n        /* \"#utility.yul\":12373:12378   */\n      dup2\n        /* \"#utility.yul\":12370:12384   */\n      lt\n        /* \"#utility.yul\":12363:12483   */\n      iszero\n      tag_246\n      jumpi\n        /* \"#utility.yul\":12434:12473   */\n      tag_247\n        /* \"#utility.yul\":12471:12472   */\n      0x00\n        /* \"#utility.yul\":12464:12469   */\n      dup3\n        /* \"#utility.yul\":12434:12473   */\n      tag_103\n      jump\t// in\n    tag_247:\n        /* \"#utility.yul\":12407:12408   */\n      0x01\n        /* \"#utility.yul\":12400:12405   */\n      dup2\n        /* \"#utility.yul\":12396:12409   */\n      add\n        /* \"#utility.yul\":12387:12409   */\n      swap1\n      pop\n        /* \"#utility.yul\":12363:12483   */\n      jump(tag_244)\n    tag_246:\n        /* \"#utility.yul\":12303:12489   */\n      pop\n      pop\n      jump\t// out\n        /* \"#utility.yul\":12495:13038   */\n    tag_105:\n        /* \"#utility.yul\":12596:12598   */\n      0x1f\n        /* \"#utility.yul\":12591:12594   */\n      dup3\n        /* \"#utility.yul\":12588:12599   */\n      gt\n        /* \"#utility.yul\":12585:13031   */\n      iszero\n      tag_249\n      jumpi\n        /* \"#utility.yul\":12630:12668   */\n      tag_250\n        /* \"#utility.yul\":12662:12667   */\n      dup2\n        /* \"#utility.yul\":12630:12668   */\n      tag_94\n      jump\t// in\n    tag_250:\n        /* \"#utility.yul\":12714:12743   */\n      tag_251\n        /* \"#utility.yul\":12732:12742   */\n      dup5\n        /* \"#utility.yul\":12714:12743   */\n      tag_95\n      jump\t// in\n    tag_251:\n        /* \"#utility.yul\":12704:12712   */\n      dup2\n        /* \"#utility.yul\":12700:12744   */\n      add\n        /* \"#utility.yul\":12897:12899   */\n      0x20\n        /* \"#utility.yul\":12885:12895   */\n      dup6\n        /* \"#utility.yul\":12882:12900   */\n      lt\n        /* \"#utility.yul\":12879:12928   */\n      iszero\n      tag_252\n      jumpi\n        /* \"#utility.yul\":12918:12926   */\n      dup2\n        /* \"#utility.yul\":12903:12926   */\n      swap1\n      pop\n        /* \"#utility.yul\":12879:12928   */\n    tag_252:\n        /* \"#utility.yul\":12941:13021   */\n      tag_253\n        /* \"#utility.yul\":12997:13019   */\n      tag_254\n        /* \"#utility.yul\":13015:13018   */\n      dup6\n        /* \"#utility.yul\":12997:13019   */\n      tag_95\n      jump\t// in\n    tag_254:\n        /* \"#utility.yul\":12987:12995   */\n      dup4\n        /* \"#utility.yul\":12983:13020   */\n      add\n        /* \"#utility.yul\":12970:12981   */\n      dup3\n        /* \"#utility.yul\":12941:13021   */\n      tag_104\n      jump\t// in\n    tag_253:\n        /* \"#utility.yul\":12600:13031   */\n      pop\n      pop\n        /* \"#utility.yul\":12585:13031   */\n    tag_249:\n        /* \"#utility.yul\":12495:13038   */\n      pop\n      pop\n      pop\n      jump\t// out\n        /* \"#utility.yul\":13044:13161   */\n    tag_106:\n        /* \"#utility.yul\":13098:13106   */\n      0x00\n        /* \"#utility.yul\":13148:13153   */\n      dup3\n        /* \"#utility.yul\":13142:13146   */\n      dup3\n        /* \"#utility.yul\":13138:13154   */\n      shr\n        /* \"#utility.yul\":13117:13154   */\n      swap1\n      pop\n        /* \"#utility.yul\":13044:13161   */\n      swap3\n      swap2\n      pop\n      pop\n      jump\t// out\n        /* \"#utility.yul\":13167:13336   */\n    tag_107:\n        /* \"#utility.yul\":13211:13217   */\n      0x00\n        /* \"#utility.yul\":13244:13295   */\n      tag_257\n        /* \"#utility.yul\":13292:13293   */\n      0x00\n        /* \"#utility.yul\":13288:13294   */\n      not\n        /* \"#utility.yul\":13280:13285   */\n      dup5\n        /* \"#utility.yul\":13277:13278   */\n      0x08\n        /* \"#utility.yul\":13273:13286   */\n      mul\n        /* \"#utility.yul\":13244:13295   */\n      tag_106\n      jump\t// in\n    tag_257:\n        /* \"#utility.yul\":13240:13296   */\n      not\n        /* \"#utility.yul\":13325:13329   */\n      dup1\n        /* \"#utility.yul\":13319:13323   */\n      dup4\n        /* \"#utility.yul\":13315:13330   */\n      and\n        /* \"#utility.yul\":13305:13330   */\n      swap2\n      pop\n        /* \"#utility.yul\":13218:13336   */\n      pop\n        /* \"#utility.yul\":13167:13336   */\n      swap3\n      swap2\n      pop\n      pop\n      jump\t// out\n        /* \"#utility.yul\":13341:13636   */\n    tag_108:\n        /* \"#utility.yul\":13417:13421   */\n      0x00\n        /* \"#utility.yul\":13563:13592   */\n      tag_259\n        /* \"#utility.yul\":13588:13591   */\n      dup4\n        /* \"#utility.yul\":13582:13586   */\n      dup4\n        /* \"#utility.yul\":13563:13592   */\n      tag_107\n      jump\t// in\n    tag_259:\n        /* \"#utility.yul\":13555:13592   */\n      swap2\n      pop\n        /* \"#utility.yul\":13625:13628   */\n      dup3\n        /* \"#utility.yul\":13622:13623   */\n      0x02\n        /* \"#utility.yul\":13618:13629   */\n      mul\n        /* \"#utility.yul\":13612:13616   */\n      dup3\n        /* \"#utility.yul\":13609:13630   */\n      or\n        /* \"#utility.yul\":13601:13630   */\n      swap1\n      pop\n        /* \"#utility.yul\":13341:13636   */\n      swap3\n      swap2\n      pop\n      pop\n      jump\t// out\n        /* \"#utility.yul\":13641:15036   */\n    tag_50:\n        /* \"#utility.yul\":13758:13795   */\n      tag_261\n        /* \"#utility.yul\":13791:13794   */\n      dup3\n        /* \"#utility.yul\":13758:13795   */\n      tag_81\n      jump\t// in\n    tag_261:\n        /* \"#utility.yul\":13860:13878   */\n      0xffffffffffffffff\n        /* \"#utility.yul\":13852:13858   */\n      dup2\n        /* \"#utility.yul\":13849:13879   */\n      gt\n        /* \"#utility.yul\":13846:13902   */\n      iszero\n      tag_262\n      jumpi\n        /* \"#utility.yul\":13882:13900   */\n      tag_263\n      tag_72\n      jump\t// in\n    tag_263:\n        /* \"#utility.yul\":13846:13902   */\n    tag_262:\n        /* \"#utility.yul\":13926:13964   */\n      tag_264\n        /* \"#utility.yul\":13958:13962   */\n      dup3\n        /* \"#utility.yul\":13952:13963   */\n      sload\n        /* \"#utility.yul\":13926:13964   */\n      tag_54\n      jump\t// in\n    tag_264:\n        /* \"#utility.yul\":14011:14078   */\n      tag_265\n        /* \"#utility.yul\":14071:14077   */\n      dup3\n        /* \"#utility.yul\":14063:14069   */\n      dup3\n        /* \"#utility.yul\":14057:14061   */\n      dup6\n        /* \"#utility.yul\":14011:14078   */\n      tag_105\n      jump\t// in\n    tag_265:\n        /* \"#utility.yul\":14105:14106   */\n      0x00\n        /* \"#utility.yul\":14129:14133   */\n      0x20\n        /* \"#utility.yul\":14116:14133   */\n      swap1\n      pop\n        /* \"#utility.yul\":14161:14163   */\n      0x1f\n        /* \"#utility.yul\":14153:14159   */\n      dup4\n        /* \"#utility.yul\":14150:14164   */\n      gt\n        /* \"#utility.yul\":14178:14179   */\n      0x01\n        /* \"#utility.yul\":14173:14791   */\n      dup2\n      eq\n      tag_267\n      jumpi\n        /* \"#utility.yul\":14835:14836   */\n      0x00\n        /* \"#utility.yul\":14852:14858   */\n      dup5\n        /* \"#utility.yul\":14849:14926   */\n      iszero\n      tag_268\n      jumpi\n        /* \"#utility.yul\":14901:14910   */\n      dup3\n        /* \"#utility.yul\":14896:14899   */\n      dup8\n        /* \"#utility.yul\":14892:14911   */\n      add\n        /* \"#utility.yul\":14886:14912   */\n      mload\n        /* \"#utility.yul\":14877:14912   */\n      swap1\n      pop\n        /* \"#utility.yul\":14849:14926   */\n    tag_268:\n        /* \"#utility.yul\":14952:15019   */\n      tag_269\n        /* \"#utility.yul\":15012:15018   */\n      dup6\n        /* \"#utility.yul\":15005:15010   */\n      dup3\n        /* \"#utility.yul\":14952:15019   */\n      tag_108\n      jump\t// in\n    tag_269:\n        /* \"#utility.yul\":14946:14950   */\n      dup7\n        /* \"#utility.yul\":14939:15020   */\n      sstore\n        /* \"#utility.yul\":14808:15030   */\n      pop\n        /* \"#utility.yul\":14143:15030   */\n      jump(tag_266)\n        /* \"#utility.yul\":14173:14791   */\n    tag_267:\n        /* \"#utility.yul\":14225:14229   */\n      0x1f\n        /* \"#utility.yul\":14221:14230   */\n      not\n        /* \"#utility.yul\":14213:14219   */\n      dup5\n        /* \"#utility.yul\":14209:14231   */\n      and\n        /* \"#utility.yul\":14259:14296   */\n      tag_270\n        /* \"#utility.yul\":14291:14295   */\n      dup7\n        /* \"#utility.yul\":14259:14296   */\n      tag_94\n      jump\t// in\n    tag_270:\n        /* \"#utility.yul\":14318:14319   */\n      0x00\n        /* \"#utility.yul\":14332:14540   */\n    tag_271:\n        /* \"#utility.yul\":14346:14353   */\n      dup3\n        /* \"#utility.yul\":14343:14344   */\n      dup2\n        /* \"#utility.yul\":14340:14354   */\n      lt\n        /* \"#utility.yul\":14332:14540   */\n      iszero\n      tag_273\n      jumpi\n        /* \"#utility.yul\":14425:14434   */\n      dup5\n        /* \"#utility.yul\":14420:14423   */\n      dup10\n        /* \"#utility.yul\":14416:14435   */\n      add\n        /* \"#utility.yul\":14410:14436   */\n      mload\n        /* \"#utility.yul\":14402:14408   */\n      dup3\n        /* \"#utility.yul\":14395:14437   */\n      sstore\n        /* \"#utility.yul\":14476:14477   */\n      0x01\n        /* \"#utility.yul\":14468:14474   */\n      dup3\n        /* \"#utility.yul\":14464:14478   */\n      add\n        /* \"#utility.yul\":14454:14478   */\n      swap2\n      pop\n        /* \"#utility.yul\":14523:14525   */\n      0x20\n        /* \"#utility.yul\":14512:14521   */\n      dup6\n        /* \"#utility.yul\":14508:14526   */\n      add\n        /* \"#utility.yul\":14495:14526   */\n      swap5\n      pop\n        /* \"#utility.yul\":14369:14373   */\n      0x20\n        /* \"#utility.yul\":14366:14367   */\n      dup2\n        /* \"#utility.yul\":14362:14374   */\n      add\n        /* \"#utility.yul\":14357:14374   */\n      swap1\n      pop\n        /* \"#utility.yul\":14332:14540   */\n      jump(tag_271)\n    tag_273:\n        /* \"#utility.yul\":14568:14574   */\n      dup7\n        /* \"#utility.yul\":14559:14566   */\n      dup4\n        /* \"#utility.yul\":14556:14575   */\n      lt\n        /* \"#utility.yul\":14553:14732   */\n      iszero\n      tag_274\n      jumpi\n        /* \"#utility.yul\":14626:14635   */\n      dup5\n        /* \"#utility.yul\":14621:14624   */\n      dup10\n        /* \"#utility.yul\":14617:14636   */\n      add\n        /* \"#utility.yul\":14611:14637   */\n      mload\n        /* \"#utility.yul\":14669:14717   */\n      tag_275\n        /* \"#utility.yul\":14711:14715   */\n      0x1f\n        /* \"#utility.yul\":14703:14709   */\n      dup10\n        /* \"#utility.yul\":14699:14716   */\n      and\n        /* \"#utility.yul\":14688:14697   */\n      dup3\n        /* \"#utility.yul\":14669:14717   */\n      tag_107\n      jump\t// in\n    tag_275:\n        /* \"#utility.yul\":14661:14667   */\n      dup4\n        /* \"#utility.yul\":14654:14718   */\n      sstore\n        /* \"#utility.yul\":14576:14732   */\n      pop\n        /* \"#utility.yul\":14553:14732   */\n    tag_274:\n        /* \"#utility.yul\":14778:14779   */\n      0x01\n        /* \"#utility.yul\":14774:14775   */\n      0x02\n        /* \"#utility.yul\":14766:14772   */\n      dup9\n        /* \"#utility.yul\":14762:14776   */\n      mul\n        /* \"#utility.yul\":14758:14780   */\n      add\n        /* \"#utility.yul\":14752:14756   */\n      dup9\n        /* \"#utility.yul\":14745:14781   */\n      sstore\n        /* \"#utility.yul\":14180:14791   */\n      pop\n      pop\n      pop\n        /* \"#utility.yul\":14143:15030   */\n    tag_266:\n      pop\n        /* \"#utility.yul\":13733:15036   */\n      pop\n      pop\n      pop\n        /* \"#utility.yul\":13641:15036   */\n      pop\n      pop\n      jump\t// out\n\n    auxdata: 0xa26469706673582212207146f957030221dc80c4c713a780f64745d5ced87f52c1850cbba91129f1cd0664736f6c634300081a0033\n}\n",
				"bytecode": {
					"linkReferences": {},
					"object": "608060405234801561000f575f80fd5b50604051610c8d380380610c8d833981810160405281019061003191906100d4565b805f806101000a81548173ffffffffffffffffffffffffffffffffffffffff021916908373ffffffffffffffffffffffffffffffffffffffff160217905550506100ff565b5f80fd5b5f73ffffffffffffffffffffffffffffffffffffffff82169050919050565b5f6100a38261007a565b9050919050565b6100b381610099565b81146100bd575f80fd5b50565b5f815190506100ce816100aa565b92915050565b5f602082840312156100e9576100e8610076565b5b5f6100f6848285016100c0565b91505092915050565b610b818061010c5f395ff3fe608060405260043610610054575f3560e01c80636ba94afa146100585780639352fad2146100945780639e0b54ee146100b0578063e21f37ce146100da578063e2982c2114610104578063f83d08ba14610140575b5f80fd5b348015610063575f80fd5b5061007e600480360381019061007991906103d2565b61016a565b60405161008b919061048d565b60405180910390f35b6100ae60048036038101906100a991906105d5565b610196565b005b3480156100bb575f80fd5b506100c4610289565b6040516100d19190610634565b60405180910390f35b3480156100e5575f80fd5b506100ee61029c565b6040516100fb919061069f565b60405180910390f35b34801561010f575f80fd5b5061012a60048036038101906101259190610719565b610328565b6040516101379190610634565b60405180910390f35b34801561014b575f80fd5b5061015461033d565b6040516101619190610753565b60405180910390f35b6060828260405160200161017f929190610798565b604051602081830303815290604052905092915050565b5f8054906101000a900473ffffffffffffffffffffffffffffffffffffffff1673ffffffffffffffffffffffffffffffffffffffff163373ffffffffffffffffffffffffffffffffffffffff1614610223576040517f08c379a000000000000000000000000000000000000000000000000000000000815260040161021a90610804565b60405180910390fd5b3460025f3373ffffffffffffffffffffffffffffffffffffffff1673ffffffffffffffffffffffffffffffffffffffff1681526020019081526020015f205f82825461026f919061084f565b9250508190555080600190816102859190610a7c565b5050565b5f601442610297919061084f565b905090565b600180546102a9906108af565b80601f01602080910402602001604051908101604052809291908181526020018280546102d5906108af565b80156103205780601f106102f757610100808354040283529160200191610320565b820191905f5260205f20905b81548152906001019060200180831161030357829003601f168201915b505050505081565b6002602052805f5260405f205f915090505481565b5f8054906101000a900473ffffffffffffffffffffffffffffffffffffffff1681565b5f604051905090565b5f80fd5b5f80fd5b5f80fd5b5f80fd5b5f80fd5b5f8083601f84011261039257610391610371565b5b8235905067ffffffffffffffff8111156103af576103ae610375565b5b6020830191508360018202830111156103cb576103ca610379565b5b9250929050565b5f80602083850312156103e8576103e7610369565b5b5f83013567ffffffffffffffff8111156104055761040461036d565b5b6104118582860161037d565b92509250509250929050565b5f81519050919050565b5f82825260208201905092915050565b8281835e5f83830152505050565b5f601f19601f8301169050919050565b5f61045f8261041d565b6104698185610427565b9350610479818560208601610437565b61048281610445565b840191505092915050565b5f6020820190508181035f8301526104a58184610455565b905092915050565b5f80fd5b7f4e487b71000000000000000000000000000000000000000000000000000000005f52604160045260245ffd5b6104e782610445565b810181811067ffffffffffffffff82111715610506576105056104b1565b5b80604052505050565b5f610518610360565b905061052482826104de565b919050565b5f67ffffffffffffffff821115610543576105426104b1565b5b61054c82610445565b9050602081019050919050565b828183375f83830152505050565b5f61057961057484610529565b61050f565b905082815260208101848484011115610595576105946104ad565b5b6105a0848285610559565b509392505050565b5f82601f8301126105bc576105bb610371565b5b81356105cc848260208601610567565b91505092915050565b5f602082840312156105ea576105e9610369565b5b5f82013567ffffffffffffffff8111156106075761060661036d565b5b610613848285016105a8565b91505092915050565b5f819050919050565b61062e8161061c565b82525050565b5f6020820190506106475f830184610625565b92915050565b5f81519050919050565b5f82825260208201905092915050565b5f6106718261064d565b61067b8185610657565b935061068b818560208601610437565b61069481610445565b840191505092915050565b5f6020820190508181035f8301526106b78184610667565b905092915050565b5f73ffffffffffffffffffffffffffffffffffffffff82169050919050565b5f6106e8826106bf565b9050919050565b6106f8816106de565b8114610702575f80fd5b50565b5f81359050610713816106ef565b92915050565b5f6020828403121561072e5761072d610369565b5b5f61073b84828501610705565b91505092915050565b61074d816106de565b82525050565b5f6020820190506107665f830184610744565b92915050565b5f6107778385610657565b9350610784838584610559565b61078d83610445565b840190509392505050565b5f6020820190508181035f8301526107b181848661076c565b90509392505050565b7f696e76616c6964206164647265737300000000000000000000000000000000005f82015250565b5f6107ee600f83610657565b91506107f9826107ba565b602082019050919050565b5f6020820190508181035f83015261081b816107e2565b9050919050565b7f4e487b71000000000000000000000000000000000000000000000000000000005f52601160045260245ffd5b5f6108598261061c565b91506108648361061c565b925082820190508082111561087c5761087b610822565b5b92915050565b7f4e487b71000000000000000000000000000000000000000000000000000000005f52602260045260245ffd5b5f60028204905060018216806108c657607f821691505b6020821081036108d9576108d8610882565b5b50919050565b5f819050815f5260205f209050919050565b5f6020601f8301049050919050565b5f82821b905092915050565b5f6008830261093b7fffffffffffffffffffffffffffffffffffffffffffffffffffffffffffffffff82610900565b6109458683610900565b95508019841693508086168417925050509392505050565b5f819050919050565b5f61098061097b6109768461061c565b61095d565b61061c565b9050919050565b5f819050919050565b61099983610966565b6109ad6109a582610987565b84845461090c565b825550505050565b5f90565b6109c16109b5565b6109cc818484610990565b505050565b5b818110156109ef576109e45f826109b9565b6001810190506109d2565b5050565b601f821115610a3457610a05816108df565b610a0e846108f1565b81016020851015610a1d578190505b610a31610a29856108f1565b8301826109d1565b50505b505050565b5f82821c905092915050565b5f610a545f1984600802610a39565b1980831691505092915050565b5f610a6c8383610a45565b9150826002028217905092915050565b610a858261064d565b67ffffffffffffffff811115610a9e57610a9d6104b1565b5b610aa882546108af565b610ab38282856109f3565b5f60209050601f831160018114610ae4575f8415610ad2578287015190505b610adc8582610a61565b865550610b43565b601f198416610af2866108df565b5f5b82811015610b1957848901518255600182019150602085019450602081019050610af4565b86831015610b365784890151610b32601f891682610a45565b8355505b6001600288020188555050505b50505050505056fea26469706673582212207146f957030221dc80c4c713a780f64745d5ced87f52c1850cbba91129f1cd0664736f6c634300081a0033",
					"opcodes": "PUSH1 0x80 PUSH1 0x40 MSTORE CALLVALUE DUP1 ISZERO PUSH2 0xF JUMPI PUSH0 DUP1 REVERT JUMPDEST POP PUSH1 0x40 MLOAD PUSH2 0xC8D CODESIZE SUB DUP1 PUSH2 0xC8D DUP4 CODECOPY DUP2 DUP2 ADD PUSH1 0x40 MSTORE DUP2 ADD SWAP1 PUSH2 0x31 SWAP2 SWAP1 PUSH2 0xD4 JUMP JUMPDEST DUP1 PUSH0 DUP1 PUSH2 0x100 EXP DUP2 SLOAD DUP2 PUSH20 0xFFFFFFFFFFFFFFFFFFFFFFFFFFFFFFFFFFFFFFFF MUL NOT AND SWAP1 DUP4 PUSH20 0xFFFFFFFFFFFFFFFFFFFFFFFFFFFFFFFFFFFFFFFF AND MUL OR SWAP1 SSTORE POP POP PUSH2 0xFF JUMP JUMPDEST PUSH0 DUP1 REVERT JUMPDEST PUSH0 PUSH20 0xFFFFFFFFFFFFFFFFFFFFFFFFFFFFFFFFFFFFFFFF DUP3 AND SWAP1 POP SWAP2 SWAP1 POP JUMP JUMPDEST PUSH0 PUSH2 0xA3 DUP3 PUSH2 0x7A JUMP JUMPDEST SWAP1 POP SWAP2 SWAP1 POP JUMP JUMPDEST PUSH2 0xB3 DUP2 PUSH2 0x99 JUMP JUMPDEST DUP2 EQ PUSH2 0xBD JUMPI PUSH0 DUP1 REVERT JUMPDEST POP JUMP JUMPDEST PUSH0 DUP2 MLOAD SWAP1 POP PUSH2 0xCE DUP2 PUSH2 0xAA JUMP JUMPDEST SWAP3 SWAP2 POP POP JUMP JUMPDEST PUSH0 PUSH1 0x20 DUP3 DUP5 SUB SLT ISZERO PUSH2 0xE9 JUMPI PUSH2 0xE8 PUSH2 0x76 JUMP JUMPDEST JUMPDEST PUSH0 PUSH2 0xF6 DUP5 DUP3 DUP6 ADD PUSH2 0xC0 JUMP JUMPDEST SWAP2 POP POP SWAP3 SWAP2 POP POP JUMP JUMPDEST PUSH2 0xB81 DUP1 PUSH2 0x10C PUSH0 CODECOPY PUSH0 RETURN INVALID PUSH1 0x80 PUSH1 0x40 MSTORE PUSH1 0x4 CALLDATASIZE LT PUSH2 0x54 JUMPI PUSH0 CALLDATALOAD PUSH1 0xE0 SHR DUP1 PUSH4 0x6BA94AFA EQ PUSH2 0x58 JUMPI DUP1 PUSH4 0x9352FAD2 EQ PUSH2 0x94 JUMPI DUP1 PUSH4 0x9E0B54EE EQ PUSH2 0xB0 JUMPI DUP1 PUSH4 0xE21F37CE EQ PUSH2 0xDA JUMPI DUP1 PUSH4 0xE2982C21 EQ PUSH2 0x104 JUMPI DUP1 PUSH4 0xF83D08BA EQ PUSH2 0x140 JUMPI JUMPDEST PUSH0 DUP1 REVERT JUMPDEST CALLVALUE DUP1 ISZERO PUSH2 0x63 JUMPI PUSH0 DUP1 REVERT JUMPDEST POP PUSH2 0x7E PUSH1 0x4 DUP1 CALLDATASIZE SUB DUP2 ADD SWAP1 PUSH2 0x79 SWAP2 SWAP1 PUSH2 0x3D2 JUMP JUMPDEST PUSH2 0x16A JUMP JUMPDEST PUSH1 0x40 MLOAD PUSH2 0x8B SWAP2 SWAP1 PUSH2 0x48D JUMP JUMPDEST PUSH1 0x40 MLOAD DUP1 SWAP2 SUB SWAP1 RETURN JUMPDEST PUSH2 0xAE PUSH1 0x4 DUP1 CALLDATASIZE SUB DUP2 ADD SWAP1 PUSH2 0xA9 SWAP2 SWAP1 PUSH2 0x5D5 JUMP JUMPDEST PUSH2 0x196 JUMP JUMPDEST STOP JUMPDEST CALLVALUE DUP1 ISZERO PUSH2 0xBB JUMPI PUSH0 DUP1 REVERT JUMPDEST POP PUSH2 0xC4 PUSH2 0x289 JUMP JUMPDEST PUSH1 0x40 MLOAD PUSH2 0xD1 SWAP2 SWAP1 PUSH2 0x634 JUMP JUMPDEST PUSH1 0x40 MLOAD DUP1 SWAP2 SUB SWAP1 RETURN JUMPDEST CALLVALUE DUP1 ISZERO PUSH2 0xE5 JUMPI PUSH0 DUP1 REVERT JUMPDEST POP PUSH2 0xEE PUSH2 0x29C JUMP JUMPDEST PUSH1 0x40 MLOAD PUSH2 0xFB SWAP2 SWAP1 PUSH2 0x69F JUMP JUMPDEST PUSH1 0x40 MLOAD DUP1 SWAP2 SUB SWAP1 RETURN JUMPDEST CALLVALUE DUP1 ISZERO PUSH2 0x10F JUMPI PUSH0 DUP1 REVERT JUMPDEST POP PUSH2 0x12A PUSH1 0x4 DUP1 CALLDATASIZE SUB DUP2 ADD SWAP1 PUSH2 0x125 SWAP2 SWAP1 PUSH2 0x719 JUMP JUMPDEST PUSH2 0x328 JUMP JUMPDEST PUSH1 0x40 MLOAD PUSH2 0x137 SWAP2 SWAP1 PUSH2 0x634 JUMP JUMPDEST PUSH1 0x40 MLOAD DUP1 SWAP2 SUB SWAP1 RETURN JUMPDEST CALLVALUE DUP1 ISZERO PUSH2 0x14B JUMPI PUSH0 DUP1 REVERT JUMPDEST POP PUSH2 0x154 PUSH2 0x33D JUMP JUMPDEST PUSH1 0x40 MLOAD PUSH2 0x161 SWAP2 SWAP1 PUSH2 0x753 JUMP JUMPDEST PUSH1 0x40 MLOAD DUP1 SWAP2 SUB SWAP1 RETURN JUMPDEST PUSH1 0x60 DUP3 DUP3 PUSH1 0x40 MLOAD PUSH1 0x20 ADD PUSH2 0x17F SWAP3 SWAP2 SWAP1 PUSH2 0x798 JUMP JUMPDEST PUSH1 0x40 MLOAD PUSH1 0x20 DUP2 DUP4 SUB SUB DUP2 MSTORE SWAP1 PUSH1 0x40 MSTORE SWAP1 POP SWAP3 SWAP2 POP POP JUMP JUMPDEST PUSH0 DUP1 SLOAD SWAP1 PUSH2 0x100 EXP SWAP1 DIV PUSH20 0xFFFFFFFFFFFFFFFFFFFFFFFFFFFFFFFFFFFFFFFF AND PUSH20 0xFFFFFFFFFFFFFFFFFFFFFFFFFFFFFFFFFFFFFFFF AND CALLER PUSH20 0xFFFFFFFFFFFFFFFFFFFFFFFFFFFFFFFFFFFFFFFF AND EQ PUSH2 0x223 JUMPI PUSH1 0x40 MLOAD PUSH32 0x8C379A000000000000000000000000000000000000000000000000000000000 DUP2 MSTORE PUSH1 0x4 ADD PUSH2 0x21A SWAP1 PUSH2 0x804 JUMP JUMPDEST PUSH1 0x40 MLOAD DUP1 SWAP2 SUB SWAP1 REVERT JUMPDEST CALLVALUE PUSH1 0x2 PUSH0 CALLER PUSH20 0xFFFFFFFFFFFFFFFFFFFFFFFFFFFFFFFFFFFFFFFF AND PUSH20 0xFFFFFFFFFFFFFFFFFFFFFFFFFFFFFFFFFFFFFFFF AND DUP2 MSTORE PUSH1 0x20 ADD SWAP1 DUP2 MSTORE PUSH1 0x20 ADD PUSH0 KECCAK256 PUSH0 DUP3 DUP3 SLOAD PUSH2 0x26F SWAP2 SWAP1 PUSH2 0x84F JUMP JUMPDEST SWAP3 POP POP DUP2 SWAP1 SSTORE POP DUP1 PUSH1 0x1 SWAP1 DUP2 PUSH2 0x285 SWAP2 SWAP1 PUSH2 0xA7C JUMP JUMPDEST POP POP JUMP JUMPDEST PUSH0 PUSH1 0x14 TIMESTAMP PUSH2 0x297 SWAP2 SWAP1 PUSH2 0x84F JUMP JUMPDEST SWAP1 POP SWAP1 JUMP JUMPDEST PUSH1 0x1 DUP1 SLOAD PUSH2 0x2A9 SWAP1 PUSH2 0x8AF JUMP JUMPDEST DUP1 PUSH1 0x1F ADD PUSH1 0x20 DUP1 SWAP2 DIV MUL PUSH1 0x20 ADD PUSH1 0x40 MLOAD SWAP1 DUP2 ADD PUSH1 0x40 MSTORE DUP1 SWAP3 SWAP2 SWAP1 DUP2 DUP2 MSTORE PUSH1 0x20 ADD DUP3 DUP1 SLOAD PUSH2 0x2D5 SWAP1 PUSH2 0x8AF JUMP JUMPDEST DUP1 ISZERO PUSH2 0x320 JUMPI DUP1 PUSH1 0x1F LT PUSH2 0x2F7 JUMPI PUSH2 0x100 DUP1 DUP4 SLOAD DIV MUL DUP4 MSTORE SWAP2 PUSH1 0x20 ADD SWAP2 PUSH2 0x320 JUMP JUMPDEST DUP3 ADD SWAP2 SWAP1 PUSH0 MSTORE PUSH1 0x20 PUSH0 KECCAK256 SWAP1 JUMPDEST DUP2 SLOAD DUP2 MSTORE SWAP1 PUSH1 0x1 ADD SWAP1 PUSH1 0x20 ADD DUP1 DUP4 GT PUSH2 0x303 JUMPI DUP3 SWAP1 SUB PUSH1 0x1F AND DUP3 ADD SWAP2 JUMPDEST POP POP POP POP POP DUP2 JUMP JUMPDEST PUSH1 0x2 PUSH1 0x20 MSTORE DUP1 PUSH0 MSTORE PUSH1 0x40 PUSH0 KECCAK256 PUSH0 SWAP2 POP SWAP1 POP SLOAD DUP2 JUMP JUMPDEST PUSH0 DUP1 SLOAD SWAP1 PUSH2 0x100 EXP SWAP1 DIV PUSH20 0xFFFFFFFFFFFFFFFFFFFFFFFFFFFFFFFFFFFFFFFF AND DUP2 JUMP JUMPDEST PUSH0 PUSH1 0x40 MLOAD SWAP1 POP SWAP1 JUMP JUMPDEST PUSH0 DUP1 REVERT JUMPDEST PUSH0 DUP1 REVERT JUMPDEST PUSH0 DUP1 REVERT JUMPDEST PUSH0 DUP1 REVERT JUMPDEST PUSH0 DUP1 REVERT JUMPDEST PUSH0 DUP1 DUP4 PUSH1 0x1F DUP5 ADD SLT PUSH2 0x392 JUMPI PUSH2 0x391 PUSH2 0x371 JUMP JUMPDEST JUMPDEST DUP3 CALLDATALOAD SWAP1 POP PUSH8 0xFFFFFFFFFFFFFFFF DUP2 GT ISZERO PUSH2 0x3AF JUMPI PUSH2 0x3AE PUSH2 0x375 JUMP JUMPDEST JUMPDEST PUSH1 0x20 DUP4 ADD SWAP2 POP DUP4 PUSH1 0x1 DUP3 MUL DUP4 ADD GT ISZERO PUSH2 0x3CB JUMPI PUSH2 0x3CA PUSH2 0x379 JUMP JUMPDEST JUMPDEST SWAP3 POP SWAP3 SWAP1 POP JUMP JUMPDEST PUSH0 DUP1 PUSH1 0x20 DUP4 DUP6 SUB SLT ISZERO PUSH2 0x3E8 JUMPI PUSH2 0x3E7 PUSH2 0x369 JUMP JUMPDEST JUMPDEST PUSH0 DUP4 ADD CALLDATALOAD PUSH8 0xFFFFFFFFFFFFFFFF DUP2 GT ISZERO PUSH2 0x405 JUMPI PUSH2 0x404 PUSH2 0x36D JUMP JUMPDEST JUMPDEST PUSH2 0x411 DUP6 DUP3 DUP7 ADD PUSH2 0x37D JUMP JUMPDEST SWAP3 POP SWAP3 POP POP SWAP3 POP SWAP3 SWAP1 POP JUMP JUMPDEST PUSH0 DUP2 MLOAD SWAP1 POP SWAP2 SWAP1 POP JUMP JUMPDEST PUSH0 DUP3 DUP3 MSTORE PUSH1 0x20 DUP3 ADD SWAP1 POP SWAP3 SWAP2 POP POP JUMP JUMPDEST DUP3 DUP2 DUP4 MCOPY PUSH0 DUP4 DUP4 ADD MSTORE POP POP POP JUMP JUMPDEST PUSH0 PUSH1 0x1F NOT PUSH1 0x1F DUP4 ADD AND SWAP1 POP SWAP2 SWAP1 POP JUMP JUMPDEST PUSH0 PUSH2 0x45F DUP3 PUSH2 0x41D JUMP JUMPDEST PUSH2 0x469 DUP2 DUP6 PUSH2 0x427 JUMP JUMPDEST SWAP4 POP PUSH2 0x479 DUP2 DUP6 PUSH1 0x20 DUP7 ADD PUSH2 0x437 JUMP JUMPDEST PUSH2 0x482 DUP2 PUSH2 0x445 JUMP JUMPDEST DUP5 ADD SWAP2 POP POP SWAP3 SWAP2 POP POP JUMP JUMPDEST PUSH0 PUSH1 0x20 DUP3 ADD SWAP1 POP DUP2 DUP2 SUB PUSH0 DUP4 ADD MSTORE PUSH2 0x4A5 DUP2 DUP5 PUSH2 0x455 JUMP JUMPDEST SWAP1 POP SWAP3 SWAP2 POP POP JUMP JUMPDEST PUSH0 DUP1 REVERT JUMPDEST PUSH32 0x4E487B7100000000000000000000000000000000000000000000000000000000 PUSH0 MSTORE PUSH1 0x41 PUSH1 0x4 MSTORE PUSH1 0x24 PUSH0 REVERT JUMPDEST PUSH2 0x4E7 DUP3 PUSH2 0x445 JUMP JUMPDEST DUP2 ADD DUP2 DUP2 LT PUSH8 0xFFFFFFFFFFFFFFFF DUP3 GT OR ISZERO PUSH2 0x506 JUMPI PUSH2 0x505 PUSH2 0x4B1 JUMP JUMPDEST JUMPDEST DUP1 PUSH1 0x40 MSTORE POP POP POP JUMP JUMPDEST PUSH0 PUSH2 0x518 PUSH2 0x360 JUMP JUMPDEST SWAP1 POP PUSH2 0x524 DUP3 DUP3 PUSH2 0x4DE JUMP JUMPDEST SWAP2 SWAP1 POP JUMP JUMPDEST PUSH0 PUSH8 0xFFFFFFFFFFFFFFFF DUP3 GT ISZERO PUSH2 0x543 JUMPI PUSH2 0x542 PUSH2 0x4B1 JUMP JUMPDEST JUMPDEST PUSH2 0x54C DUP3 PUSH2 0x445 JUMP JUMPDEST SWAP1 POP PUSH1 0x20 DUP2 ADD SWAP1 POP SWAP2 SWAP1 POP JUMP JUMPDEST DUP3 DUP2 DUP4 CALLDATACOPY PUSH0 DUP4 DUP4 ADD MSTORE POP POP POP JUMP JUMPDEST PUSH0 PUSH2 0x579 PUSH2 0x574 DUP5 PUSH2 0x529 JUMP JUMPDEST PUSH2 0x50F JUMP JUMPDEST SWAP1 POP DUP3 DUP2 MSTORE PUSH1 0x20 DUP2 ADD DUP5 DUP5 DUP5 ADD GT ISZERO PUSH2 0x595 JUMPI PUSH2 0x594 PUSH2 0x4AD JUMP JUMPDEST JUMPDEST PUSH2 0x5A0 DUP5 DUP3 DUP6 PUSH2 0x559 JUMP JUMPDEST POP SWAP4 SWAP3 POP POP POP JUMP JUMPDEST PUSH0 DUP3 PUSH1 0x1F DUP4 ADD SLT PUSH2 0x5BC JUMPI PUSH2 0x5BB PUSH2 0x371 JUMP JUMPDEST JUMPDEST DUP2 CALLDATALOAD PUSH2 0x5CC DUP5 DUP3 PUSH1 0x20 DUP7 ADD PUSH2 0x567 JUMP JUMPDEST SWAP2 POP POP SWAP3 SWAP2 POP POP JUMP JUMPDEST PUSH0 PUSH1 0x20 DUP3 DUP5 SUB SLT ISZERO PUSH2 0x5EA JUMPI PUSH2 0x5E9 PUSH2 0x369 JUMP JUMPDEST JUMPDEST PUSH0 DUP3 ADD CALLDATALOAD PUSH8 0xFFFFFFFFFFFFFFFF DUP2 GT ISZERO PUSH2 0x607 JUMPI PUSH2 0x606 PUSH2 0x36D JUMP JUMPDEST JUMPDEST PUSH2 0x613 DUP5 DUP3 DUP6 ADD PUSH2 0x5A8 JUMP JUMPDEST SWAP2 POP POP SWAP3 SWAP2 POP POP JUMP JUMPDEST PUSH0 DUP2 SWAP1 POP SWAP2 SWAP1 POP JUMP JUMPDEST PUSH2 0x62E DUP2 PUSH2 0x61C JUMP JUMPDEST DUP3 MSTORE POP POP JUMP JUMPDEST PUSH0 PUSH1 0x20 DUP3 ADD SWAP1 POP PUSH2 0x647 PUSH0 DUP4 ADD DUP5 PUSH2 0x625 JUMP JUMPDEST SWAP3 SWAP2 POP POP JUMP JUMPDEST PUSH0 DUP2 MLOAD SWAP1 POP SWAP2 SWAP1 POP JUMP JUMPDEST PUSH0 DUP3 DUP3 MSTORE PUSH1 0x20 DUP3 ADD SWAP1 POP SWAP3 SWAP2 POP POP JUMP JUMPDEST PUSH0 PUSH2 0x671 DUP3 PUSH2 0x64D JUMP JUMPDEST PUSH2 0x67B DUP2 DUP6 PUSH2 0x657 JUMP JUMPDEST SWAP4 POP PUSH2 0x68B DUP2 DUP6 PUSH1 0x20 DUP7 ADD PUSH2 0x437 JUMP JUMPDEST PUSH2 0x694 DUP2 PUSH2 0x445 JUMP JUMPDEST DUP5 ADD SWAP2 POP POP SWAP3 SWAP2 POP POP JUMP JUMPDEST PUSH0 PUSH1 0x20 DUP3 ADD SWAP1 POP DUP2 DUP2 SUB PUSH0 DUP4 ADD MSTORE PUSH2 0x6B7 DUP2 DUP5 PUSH2 0x667 JUMP JUMPDEST SWAP1 POP SWAP3 SWAP2 POP POP JUMP JUMPDEST PUSH0 PUSH20 0xFFFFFFFFFFFFFFFFFFFFFFFFFFFFFFFFFFFFFFFF DUP3 AND SWAP1 POP SWAP2 SWAP1 POP JUMP JUMPDEST PUSH0 PUSH2 0x6E8 DUP3 PUSH2 0x6BF JUMP JUMPDEST SWAP1 POP SWAP2 SWAP1 POP JUMP JUMPDEST PUSH2 0x6F8 DUP2 PUSH2 0x6DE JUMP JUMPDEST DUP2 EQ PUSH2 0x702 JUMPI PUSH0 DUP1 REVERT JUMPDEST POP JUMP JUMPDEST PUSH0 DUP2 CALLDATALOAD SWAP1 POP PUSH2 0x713 DUP2 PUSH2 0x6EF JUMP JUMPDEST SWAP3 SWAP2 POP POP JUMP JUMPDEST PUSH0 PUSH1 0x20 DUP3 DUP5 SUB SLT ISZERO PUSH2 0x72E JUMPI PUSH2 0x72D PUSH2 0x369 JUMP JUMPDEST JUMPDEST PUSH0 PUSH2 0x73B DUP5 DUP3 DUP6 ADD PUSH2 0x705 JUMP JUMPDEST SWAP2 POP POP SWAP3 SWAP2 POP POP JUMP JUMPDEST PUSH2 0x74D DUP2 PUSH2 0x6DE JUMP JUMPDEST DUP3 MSTORE POP POP JUMP JUMPDEST PUSH0 PUSH1 0x20 DUP3 ADD SWAP1 POP PUSH2 0x766 PUSH0 DUP4 ADD DUP5 PUSH2 0x744 JUMP JUMPDEST SWAP3 SWAP2 POP POP JUMP JUMPDEST PUSH0 PUSH2 0x777 DUP4 DUP6 PUSH2 0x657 JUMP JUMPDEST SWAP4 POP PUSH2 0x784 DUP4 DUP6 DUP5 PUSH2 0x559 JUMP JUMPDEST PUSH2 0x78D DUP4 PUSH2 0x445 JUMP JUMPDEST DUP5 ADD SWAP1 POP SWAP4 SWAP3 POP POP POP JUMP JUMPDEST PUSH0 PUSH1 0x20 DUP3 ADD SWAP1 POP DUP2 DUP2 SUB PUSH0 DUP4 ADD MSTORE PUSH2 0x7B1 DUP2 DUP5 DUP7 PUSH2 0x76C JUMP JUMPDEST SWAP1 POP SWAP4 SWAP3 POP POP POP JUMP JUMPDEST PUSH32 0x696E76616C696420616464726573730000000000000000000000000000000000 PUSH0 DUP3 ADD MSTORE POP JUMP JUMPDEST PUSH0 PUSH2 0x7EE PUSH1 0xF DUP4 PUSH2 0x657 JUMP JUMPDEST SWAP2 POP PUSH2 0x7F9 DUP3 PUSH2 0x7BA JUMP JUMPDEST PUSH1 0x20 DUP3 ADD SWAP1 POP SWAP2 SWAP1 POP JUMP JUMPDEST PUSH0 PUSH1 0x20 DUP3 ADD SWAP1 POP DUP2 DUP2 SUB PUSH0 DUP4 ADD MSTORE PUSH2 0x81B DUP2 PUSH2 0x7E2 JUMP JUMPDEST SWAP1 POP SWAP2 SWAP1 POP JUMP JUMPDEST PUSH32 0x4E487B7100000000000000000000000000000000000000000000000000000000 PUSH0 MSTORE PUSH1 0x11 PUSH1 0x4 MSTORE PUSH1 0x24 PUSH0 REVERT JUMPDEST PUSH0 PUSH2 0x859 DUP3 PUSH2 0x61C JUMP JUMPDEST SWAP2 POP PUSH2 0x864 DUP4 PUSH2 0x61C JUMP JUMPDEST SWAP3 POP DUP3 DUP3 ADD SWAP1 POP DUP1 DUP3 GT ISZERO PUSH2 0x87C JUMPI PUSH2 0x87B PUSH2 0x822 JUMP JUMPDEST JUMPDEST SWAP3 SWAP2 POP POP JUMP JUMPDEST PUSH32 0x4E487B7100000000000000000000000000000000000000000000000000000000 PUSH0 MSTORE PUSH1 0x22 PUSH1 0x4 MSTORE PUSH1 0x24 PUSH0 REVERT JUMPDEST PUSH0 PUSH1 0x2 DUP3 DIV SWAP1 POP PUSH1 0x1 DUP3 AND DUP1 PUSH2 0x8C6 JUMPI PUSH1 0x7F DUP3 AND SWAP2 POP JUMPDEST PUSH1 0x20 DUP3 LT DUP2 SUB PUSH2 0x8D9 JUMPI PUSH2 0x8D8 PUSH2 0x882 JUMP JUMPDEST JUMPDEST POP SWAP2 SWAP1 POP JUMP JUMPDEST PUSH0 DUP2 SWAP1 POP DUP2 PUSH0 MSTORE PUSH1 0x20 PUSH0 KECCAK256 SWAP1 POP SWAP2 SWAP1 POP JUMP JUMPDEST PUSH0 PUSH1 0x20 PUSH1 0x1F DUP4 ADD DIV SWAP1 POP SWAP2 SWAP1 POP JUMP JUMPDEST PUSH0 DUP3 DUP3 SHL SWAP1 POP SWAP3 SWAP2 POP POP JUMP JUMPDEST PUSH0 PUSH1 0x8 DUP4 MUL PUSH2 0x93B PUSH32 0xFFFFFFFFFFFFFFFFFFFFFFFFFFFFFFFFFFFFFFFFFFFFFFFFFFFFFFFFFFFFFFFF DUP3 PUSH2 0x900 JUMP JUMPDEST PUSH2 0x945 DUP7 DUP4 PUSH2 0x900 JUMP JUMPDEST SWAP6 POP DUP1 NOT DUP5 AND SWAP4 POP DUP1 DUP7 AND DUP5 OR SWAP3 POP POP POP SWAP4 SWAP3 POP POP POP JUMP JUMPDEST PUSH0 DUP2 SWAP1 POP SWAP2 SWAP1 POP JUMP JUMPDEST PUSH0 PUSH2 0x980 PUSH2 0x97B PUSH2 0x976 DUP5 PUSH2 0x61C JUMP JUMPDEST PUSH2 0x95D JUMP JUMPDEST PUSH2 0x61C JUMP JUMPDEST SWAP1 POP SWAP2 SWAP1 POP JUMP JUMPDEST PUSH0 DUP2 SWAP1 POP SWAP2 SWAP1 POP JUMP JUMPDEST PUSH2 0x999 DUP4 PUSH2 0x966 JUMP JUMPDEST PUSH2 0x9AD PUSH2 0x9A5 DUP3 PUSH2 0x987 JUMP JUMPDEST DUP5 DUP5 SLOAD PUSH2 0x90C JUMP JUMPDEST DUP3 SSTORE POP POP POP POP JUMP JUMPDEST PUSH0 SWAP1 JUMP JUMPDEST PUSH2 0x9C1 PUSH2 0x9B5 JUMP JUMPDEST PUSH2 0x9CC DUP2 DUP5 DUP5 PUSH2 0x990 JUMP JUMPDEST POP POP POP JUMP JUMPDEST JUMPDEST DUP2 DUP2 LT ISZERO PUSH2 0x9EF JUMPI PUSH2 0x9E4 PUSH0 DUP3 PUSH2 0x9B9 JUMP JUMPDEST PUSH1 0x1 DUP2 ADD SWAP1 POP PUSH2 0x9D2 JUMP JUMPDEST POP POP JUMP JUMPDEST PUSH1 0x1F DUP3 GT ISZERO PUSH2 0xA34 JUMPI PUSH2 0xA05 DUP2 PUSH2 0x8DF JUMP JUMPDEST PUSH2 0xA0E DUP5 PUSH2 0x8F1 JUMP JUMPDEST DUP2 ADD PUSH1 0x20 DUP6 LT ISZERO PUSH2 0xA1D JUMPI DUP2 SWAP1 POP JUMPDEST PUSH2 0xA31 PUSH2 0xA29 DUP6 PUSH2 0x8F1 JUMP JUMPDEST DUP4 ADD DUP3 PUSH2 0x9D1 JUMP JUMPDEST POP POP JUMPDEST POP POP POP JUMP JUMPDEST PUSH0 DUP3 DUP3 SHR SWAP1 POP SWAP3 SWAP2 POP POP JUMP JUMPDEST PUSH0 PUSH2 0xA54 PUSH0 NOT DUP5 PUSH1 0x8 MUL PUSH2 0xA39 JUMP JUMPDEST NOT DUP1 DUP4 AND SWAP2 POP POP SWAP3 SWAP2 POP POP JUMP JUMPDEST PUSH0 PUSH2 0xA6C DUP4 DUP4 PUSH2 0xA45 JUMP JUMPDEST SWAP2 POP DUP3 PUSH1 0x2 MUL DUP3 OR SWAP1 POP SWAP3 SWAP2 POP POP JUMP JUMPDEST PUSH2 0xA85 DUP3 PUSH2 0x64D JUMP JUMPDEST PUSH8 0xFFFFFFFFFFFFFFFF DUP2 GT ISZERO PUSH2 0xA9E JUMPI PUSH2 0xA9D PUSH2 0x4B1 JUMP JUMPDEST JUMPDEST PUSH2 0xAA8 DUP3 SLOAD PUSH2 0x8AF JUMP JUMPDEST PUSH2 0xAB3 DUP3 DUP3 DUP6 PUSH2 0x9F3 JUMP JUMPDEST PUSH0 PUSH1 0x20 SWAP1 POP PUSH1 0x1F DUP4 GT PUSH1 0x1 DUP2 EQ PUSH2 0xAE4 JUMPI PUSH0 DUP5 ISZERO PUSH2 0xAD2 JUMPI DUP3 DUP8 ADD MLOAD SWAP1 POP JUMPDEST PUSH2 0xADC DUP6 DUP3 PUSH2 0xA61 JUMP JUMPDEST DUP7 SSTORE POP PUSH2 0xB43 JUMP JUMPDEST PUSH1 0x1F NOT DUP5 AND PUSH2 0xAF2 DUP7 PUSH2 0x8DF JUMP JUMPDEST PUSH0 JUMPDEST DUP3 DUP2 LT ISZERO PUSH2 0xB19 JUMPI DUP5 DUP10 ADD MLOAD DUP3 SSTORE PUSH1 0x1 DUP3 ADD SWAP2 POP PUSH1 0x20 DUP6 ADD SWAP5 POP PUSH1 0x20 DUP2 ADD SWAP1 POP PUSH2 0xAF4 JUMP JUMPDEST DUP7 DUP4 LT ISZERO PUSH2 0xB36 JUMPI DUP5 DUP10 ADD MLOAD PUSH2 0xB32 PUSH1 0x1F DUP10 AND DUP3 PUSH2 0xA45 JUMP JUMPDEST DUP4 SSTORE POP JUMPDEST PUSH1 0x1 PUSH1 0x2 DUP9 MUL ADD DUP9 SSTORE POP POP POP JUMPDEST POP POP POP POP POP POP JUMP INVALID LOG2 PUSH5 0x6970667358 0x22 SLT KECCAK256 PUSH18 0x46F957030221DC80C4C713A780F64745D5CE 0xD8 PUSH32 0x52C1850CBBA91129F1CD0664736F6C634300081A003300000000000000000000 "
				},
				"gasEstimates": {
					"creation": {
						"codeDepositCost": "589000",
						"executionCost": "infinite",
						"totalCost": "infinite"
					},
					"external": {
						"lock()": "2593",
						"message()": "infinite",
						"newTimestamp()": "infinite",
						"payments(address)": "2868",
						"prepareData(string)": "infinite",
						"run(string)": "infinite"
					}
				},
				"methodIdentifiers": {
					"lock()": "f83d08ba",
					"message()": "e21f37ce",
					"newTimestamp()": "9e0b54ee",
					"payments(address)": "e2982c21",
					"prepareData(string)": "6ba94afa",
					"run(string)": "9352fad2"
				}
			},
			"storageLayout": {
				"storage": [
					{
						"astId": 283,
						"contract": "contracts/timelock/Timelock.sol:Runner",
						"label": "lock",
						"offset": 0,
						"slot": "0",
						"type": "t_address"
					},
					{
						"astId": 285,
						"contract": "contracts/timelock/Timelock.sol:Runner",
						"label": "message",
						"offset": 0,
						"slot": "1",
						"type": "t_string_storage"
					},
					{
						"astId": 289,
						"contract": "contracts/timelock/Timelock.sol:Runner",
						"label": "payments",
						"offset": 0,
						"slot": "2",
						"type": "t_mapping(t_address,t_uint256)"
					}
				],
				"types": {
					"t_address": {
						"encoding": "inplace",
						"label": "address",
						"numberOfBytes": "20"
					},
					"t_mapping(t_address,t_uint256)": {
						"encoding": "mapping",
						"key": "t_address",
						"label": "mapping(address => uint256)",
						"numberOfBytes": "32",
						"value": "t_uint256"
					},
					"t_string_storage": {
						"encoding": "bytes",
						"label": "string",
						"numberOfBytes": "32"
					},
					"t_uint256": {
						"encoding": "inplace",
						"label": "uint256",
						"numberOfBytes": "32"
					}
				}
			},
			"userdoc": {
				"kind": "user",
				"methods": {},
				"notice": "контракт для теста таймлока",
				"version": 1
			}
		}
	}
}