{
	"contracts/timelock/Timelock.sol": {
		"Timelock": {
			"abi": [
				{
					"inputs": [],
					"stateMutability": "nonpayable",
					"type": "constructor"
				},
				{
					"anonymous": false,
					"inputs": [
						{
							"indexed": true,
							"internalType": "bytes32",
							"name": "txId",
							"type": "bytes32"
						},
						{
							"indexed": true,
							"internalType": "address",
							"name": "to",
							"type": "address"
						},
						{
							"indexed": false,
							"internalType": "uint256",
							"name": "value",
							"type": "uint256"
						},
						{
							"indexed": false,
							"internalType": "string",
							"name": "func",
							"type": "string"
						},
						{
							"indexed": false,
							"internalType": "bytes",
							"name": "data",
							"type": "bytes"
						},
						{
							"indexed": false,
							"internalType": "uint256",
							"name": "timestamp",
							"type": "uint256"
						}
					],
					"name": "Executed",
					"type": "event"
				},
				{
					"anonymous": false,
					"inputs": [
						{
							"indexed": true,
							"internalType": "bytes32",
							"name": "txId",
							"type": "bytes32"
						},
						{
							"indexed": true,
							"internalType": "address",
							"name": "to",
							"type": "address"
						},
						{
							"indexed": false,
							"internalType": "uint256",
							"name": "value",
							"type": "uint256"
						},
						{
							"indexed": false,
							"internalType": "string",
							"name": "func",
							"type": "string"
						},
						{
							"indexed": false,
							"internalType": "bytes",
							"name": "data",
							"type": "bytes"
						},
						{
							"indexed": false,
							"internalType": "uint256",
							"name": "timestamp",
							"type": "uint256"
						}
					],
					"name": "Queued",
					"type": "event"
				},
				{
					"inputs": [],
					"name": "EXPIRY_DELAY",
					"outputs": [
						{
							"internalType": "uint256",
							"name": "",
							"type": "uint256"
						}
					],
					"stateMutability": "view",
					"type": "function"
				},
				{
					"inputs": [],
					"name": "MAX_DELAY",
					"outputs": [
						{
							"internalType": "uint256",
							"name": "",
							"type": "uint256"
						}
					],
					"stateMutability": "view",
					"type": "function"
				},
				{
					"inputs": [],
					"name": "MIN_DELAY",
					"outputs": [
						{
							"internalType": "uint256",
							"name": "",
							"type": "uint256"
						}
					],
					"stateMutability": "view",
					"type": "function"
				},
				{
					"inputs": [
						{
							"internalType": "bytes32",
							"name": "_txId",
							"type": "bytes32"
						}
					],
					"name": "cancel",
					"outputs": [],
					"stateMutability": "nonpayable",
					"type": "function"
				},
				{
					"inputs": [
						{
							"internalType": "address",
							"name": "_to",
							"type": "address"
						},
						{
							"internalType": "uint256",
							"name": "_value",
							"type": "uint256"
						},
						{
							"internalType": "string",
							"name": "_func",
							"type": "string"
						},
						{
							"internalType": "bytes",
							"name": "_data",
							"type": "bytes"
						},
						{
							"internalType": "uint256",
							"name": "_timestamp",
							"type": "uint256"
						}
					],
					"name": "execute",
					"outputs": [
						{
							"internalType": "bytes",
							"name": "",
							"type": "bytes"
						}
					],
					"stateMutability": "payable",
					"type": "function"
				},
				{
					"inputs": [],
					"name": "owner",
					"outputs": [
						{
							"internalType": "address",
							"name": "",
							"type": "address"
						}
					],
					"stateMutability": "view",
					"type": "function"
				},
				{
					"inputs": [
						{
							"internalType": "address",
							"name": "_to",
							"type": "address"
						},
						{
							"internalType": "uint256",
							"name": "_value",
							"type": "uint256"
						},
						{
							"internalType": "string",
							"name": "_func",
							"type": "string"
						},
						{
							"internalType": "bytes",
							"name": "_data",
							"type": "bytes"
						},
						{
							"internalType": "uint256",
							"name": "_timestamp",
							"type": "uint256"
						}
					],
					"name": "queue",
					"outputs": [
						{
							"internalType": "bytes32",
							"name": "",
							"type": "bytes32"
						}
					],
					"stateMutability": "nonpayable",
					"type": "function"
				},
				{
					"inputs": [
						{
							"internalType": "bytes32",
							"name": "",
							"type": "bytes32"
						}
					],
					"name": "queuedTxs",
					"outputs": [
						{
							"internalType": "bool",
							"name": "",
							"type": "bool"
						}
					],
					"stateMutability": "view",
					"type": "function"
				}
			],
			"devdoc": {
				"kind": "dev",
				"methods": {},
				"version": 1
			},
			"evm": {
				"assembly": "    /* \"contracts/timelock/Timelock.sol\":57:2784  contract Timelock {... */\n  mstore(0x40, 0x80)\n    /* \"contracts/timelock/Timelock.sol\":624:673  constructor() {... */\n  callvalue\n  dup1\n  iszero\n  tag_1\n  jumpi\n  0x00\n  dup1\n  revert\ntag_1:\n  pop\n    /* \"contracts/timelock/Timelock.sol\":656:666  msg.sender */\n  caller\n    /* \"contracts/timelock/Timelock.sol\":648:653  owner */\n  0x00\n  dup1\n    /* \"contracts/timelock/Timelock.sol\":648:666  owner = msg.sender */\n  0x0100\n  exp\n  dup2\n  sload\n  dup2\n  0xffffffffffffffffffffffffffffffffffffffff\n  mul\n  not\n  and\n  swap1\n  dup4\n  0xffffffffffffffffffffffffffffffffffffffff\n  and\n  mul\n  or\n  swap1\n  sstore\n  pop\n    /* \"contracts/timelock/Timelock.sol\":57:2784  contract Timelock {... */\n  dataSize(sub_0)\n  dup1\n  dataOffset(sub_0)\n  0x00\n  codecopy\n  0x00\n  return\nstop\n\nsub_0: assembly {\n        /* \"contracts/timelock/Timelock.sol\":57:2784  contract Timelock {... */\n      mstore(0x40, 0x80)\n      jumpi(tag_1, lt(calldatasize, 0x04))\n      shr(0xe0, calldataload(0x00))\n      dup1\n      0x9f81aed7\n      gt\n      tag_10\n      jumpi\n      dup1\n      0x9f81aed7\n      eq\n      tag_6\n      jumpi\n      dup1\n      0xb0f8b142\n      eq\n      tag_7\n      jumpi\n      dup1\n      0xc4d252f5\n      eq\n      tag_8\n      jumpi\n      dup1\n      0xd783847c\n      eq\n      tag_9\n      jumpi\n      jump(tag_1)\n    tag_10:\n      dup1\n      0x4125ff90\n      eq\n      tag_2\n      jumpi\n      dup1\n      0x4b9915a5\n      eq\n      tag_3\n      jumpi\n      dup1\n      0x530534df\n      eq\n      tag_4\n      jumpi\n      dup1\n      0x8da5cb5b\n      eq\n      tag_5\n      jumpi\n    tag_1:\n      0x00\n      dup1\n      revert\n        /* \"contracts/timelock/Timelock.sol\":149:185  uint public constant MAX_DELAY = 100 */\n    tag_2:\n      callvalue\n      dup1\n      iszero\n      tag_11\n      jumpi\n      0x00\n      dup1\n      revert\n    tag_11:\n      pop\n      tag_12\n      tag_13\n      jump\t// in\n    tag_12:\n      mload(0x40)\n      tag_14\n      swap2\n      swap1\n      tag_15\n      jump\t// in\n    tag_14:\n      mload(0x40)\n      dup1\n      swap2\n      sub\n      swap1\n      return\n        /* \"contracts/timelock/Timelock.sol\":778:1542  function queue(... */\n    tag_3:\n      callvalue\n      dup1\n      iszero\n      tag_16\n      jumpi\n      0x00\n      dup1\n      revert\n    tag_16:\n      pop\n      tag_17\n      0x04\n      dup1\n      calldatasize\n      sub\n      dup2\n      add\n      swap1\n      tag_18\n      swap2\n      swap1\n      tag_19\n      jump\t// in\n    tag_18:\n      tag_20\n      jump\t// in\n    tag_17:\n      mload(0x40)\n      tag_21\n      swap2\n      swap1\n      tag_22\n      jump\t// in\n    tag_21:\n      mload(0x40)\n      dup1\n      swap2\n      sub\n      swap1\n      return\n        /* \"contracts/timelock/Timelock.sol\":238:279  mapping(bytes32 => bool) public queuedTxs */\n    tag_4:\n      callvalue\n      dup1\n      iszero\n      tag_23\n      jumpi\n      0x00\n      dup1\n      revert\n    tag_23:\n      pop\n      tag_24\n      0x04\n      dup1\n      calldatasize\n      sub\n      dup2\n      add\n      swap1\n      tag_25\n      swap2\n      swap1\n      tag_26\n      jump\t// in\n    tag_25:\n      tag_27\n      jump\t// in\n    tag_24:\n      mload(0x40)\n      tag_28\n      swap2\n      swap1\n      tag_29\n      jump\t// in\n    tag_28:\n      mload(0x40)\n      dup1\n      swap2\n      sub\n      swap1\n      return\n        /* \"contracts/timelock/Timelock.sol\":81:101  address public owner */\n    tag_5:\n      callvalue\n      dup1\n      iszero\n      tag_30\n      jumpi\n      0x00\n      dup1\n      revert\n    tag_30:\n      pop\n      tag_31\n      tag_32\n      jump\t// in\n    tag_31:\n      mload(0x40)\n      tag_33\n      swap2\n      swap1\n      tag_34\n      jump\t// in\n    tag_33:\n      mload(0x40)\n      dup1\n      swap2\n      sub\n      swap1\n      return\n        /* \"contracts/timelock/Timelock.sol\":108:143  uint public constant MIN_DELAY = 10 */\n    tag_6:\n      callvalue\n      dup1\n      iszero\n      tag_35\n      jumpi\n      0x00\n      dup1\n      revert\n    tag_35:\n      pop\n      tag_36\n      tag_37\n      jump\t// in\n    tag_36:\n      mload(0x40)\n      tag_38\n      swap2\n      swap1\n      tag_15\n      jump\t// in\n    tag_38:\n      mload(0x40)\n      dup1\n      swap2\n      sub\n      swap1\n      return\n        /* \"contracts/timelock/Timelock.sol\":1548:2636  function execute(... */\n    tag_7:\n      tag_39\n      0x04\n      dup1\n      calldatasize\n      sub\n      dup2\n      add\n      swap1\n      tag_40\n      swap2\n      swap1\n      tag_19\n      jump\t// in\n    tag_40:\n      tag_41\n      jump\t// in\n    tag_39:\n      mload(0x40)\n      tag_42\n      swap2\n      swap1\n      tag_43\n      jump\t// in\n    tag_42:\n      mload(0x40)\n      dup1\n      swap2\n      sub\n      swap1\n      return\n        /* \"contracts/timelock/Timelock.sol\":2642:2782  function cancel(bytes32 _txId) external onlyOwner {... */\n    tag_8:\n      callvalue\n      dup1\n      iszero\n      tag_44\n      jumpi\n      0x00\n      dup1\n      revert\n    tag_44:\n      pop\n      tag_45\n      0x04\n      dup1\n      calldatasize\n      sub\n      dup2\n      add\n      swap1\n      tag_46\n      swap2\n      swap1\n      tag_26\n      jump\t// in\n    tag_46:\n      tag_47\n      jump\t// in\n    tag_45:\n      stop\n        /* \"contracts/timelock/Timelock.sol\":191:231  uint public constant EXPIRY_DELAY = 1000 */\n    tag_9:\n      callvalue\n      dup1\n      iszero\n      tag_48\n      jumpi\n      0x00\n      dup1\n      revert\n    tag_48:\n      pop\n      tag_49\n      tag_50\n      jump\t// in\n    tag_49:\n      mload(0x40)\n      tag_51\n      swap2\n      swap1\n      tag_15\n      jump\t// in\n    tag_51:\n      mload(0x40)\n      dup1\n      swap2\n      sub\n      swap1\n      return\n        /* \"contracts/timelock/Timelock.sol\":149:185  uint public constant MAX_DELAY = 100 */\n    tag_13:\n        /* \"contracts/timelock/Timelock.sol\":182:185  100 */\n      0x64\n        /* \"contracts/timelock/Timelock.sol\":149:185  uint public constant MAX_DELAY = 100 */\n      dup2\n      jump\t// out\n        /* \"contracts/timelock/Timelock.sol\":778:1542  function queue(... */\n    tag_20:\n        /* \"contracts/timelock/Timelock.sol\":961:968  bytes32 */\n      0x00\n        /* \"contracts/timelock/Timelock.sol\":732:737  owner */\n      dup1\n      0x00\n      swap1\n      sload\n      swap1\n      0x0100\n      exp\n      swap1\n      div\n      0xffffffffffffffffffffffffffffffffffffffff\n      and\n        /* \"contracts/timelock/Timelock.sol\":718:737  msg.sender == owner */\n      0xffffffffffffffffffffffffffffffffffffffff\n      and\n        /* \"contracts/timelock/Timelock.sol\":718:728  msg.sender */\n      caller\n        /* \"contracts/timelock/Timelock.sol\":718:737  msg.sender == owner */\n      0xffffffffffffffffffffffffffffffffffffffff\n      and\n      eq\n        /* \"contracts/timelock/Timelock.sol\":710:754  require(msg.sender == owner, \"not an owner\") */\n      tag_53\n      jumpi\n      mload(0x40)\n      0x08c379a000000000000000000000000000000000000000000000000000000000\n      dup2\n      mstore\n      0x04\n      add\n      tag_54\n      swap1\n      tag_55\n      jump\t// in\n    tag_54:\n      mload(0x40)\n      dup1\n      swap2\n      sub\n      swap1\n      revert\n    tag_53:\n        /* \"contracts/timelock/Timelock.sol\":980:992  bytes32 txId */\n      0x00\n        /* \"contracts/timelock/Timelock.sol\":1046:1049  _to */\n      dup9\n        /* \"contracts/timelock/Timelock.sol\":1051:1057  _value */\n      dup9\n        /* \"contracts/timelock/Timelock.sol\":1059:1064  _func */\n      dup9\n      dup9\n        /* \"contracts/timelock/Timelock.sol\":1066:1071  _data */\n      dup9\n      dup9\n        /* \"contracts/timelock/Timelock.sol\":1073:1083  _timestamp */\n      dup9\n        /* \"contracts/timelock/Timelock.sol\":1018:1097  abi.encode(... */\n      add(0x20, mload(0x40))\n      tag_57\n      swap8\n      swap7\n      swap6\n      swap5\n      swap4\n      swap3\n      swap2\n      swap1\n      tag_58\n      jump\t// in\n    tag_57:\n      mload(0x40)\n      0x20\n      dup2\n      dup4\n      sub\n      sub\n      dup2\n      mstore\n      swap1\n      0x40\n      mstore\n        /* \"contracts/timelock/Timelock.sol\":995:1107  keccak256(... */\n      dup1\n      mload\n      swap1\n      0x20\n      add\n      keccak256\n        /* \"contracts/timelock/Timelock.sol\":980:1107  bytes32 txId = keccak256(... */\n      swap1\n      pop\n        /* \"contracts/timelock/Timelock.sol\":1126:1135  queuedTxs */\n      0x01\n        /* \"contracts/timelock/Timelock.sol\":1126:1141  queuedTxs[txId] */\n      0x00\n        /* \"contracts/timelock/Timelock.sol\":1136:1140  txId */\n      dup3\n        /* \"contracts/timelock/Timelock.sol\":1126:1141  queuedTxs[txId] */\n      dup2\n      mstore\n      0x20\n      add\n      swap1\n      dup2\n      mstore\n      0x20\n      add\n      0x00\n      keccak256\n      0x00\n      swap1\n      sload\n      swap1\n      0x0100\n      exp\n      swap1\n      div\n      0xff\n      and\n        /* \"contracts/timelock/Timelock.sol\":1125:1141  !queuedTxs[txId] */\n      iszero\n        /* \"contracts/timelock/Timelock.sol\":1117:1160  require(!queuedTxs[txId], \"already queued\") */\n      tag_59\n      jumpi\n      mload(0x40)\n      0x08c379a000000000000000000000000000000000000000000000000000000000\n      dup2\n      mstore\n      0x04\n      add\n      tag_60\n      swap1\n      tag_61\n      jump\t// in\n    tag_60:\n      mload(0x40)\n      dup1\n      swap2\n      sub\n      swap1\n      revert\n    tag_59:\n        /* \"contracts/timelock/Timelock.sol\":141:143  10 */\n      0x0a\n        /* \"contracts/timelock/Timelock.sol\":1205:1220  block.timestamp */\n      timestamp\n        /* \"contracts/timelock/Timelock.sol\":1205:1232  block.timestamp + MIN_DELAY */\n      tag_62\n      swap2\n      swap1\n      tag_63\n      jump\t// in\n    tag_62:\n        /* \"contracts/timelock/Timelock.sol\":1191:1201  _timestamp */\n      dup4\n        /* \"contracts/timelock/Timelock.sol\":1191:1232  _timestamp >= block.timestamp + MIN_DELAY */\n      lt\n      iszero\n        /* \"contracts/timelock/Timelock.sol\":1191:1289  _timestamp >= block.timestamp + MIN_DELAY &&... */\n      dup1\n      iszero\n      tag_64\n      jumpi\n      pop\n        /* \"contracts/timelock/Timelock.sol\":182:185  100 */\n      0x64\n        /* \"contracts/timelock/Timelock.sol\":1262:1277  block.timestamp */\n      timestamp\n        /* \"contracts/timelock/Timelock.sol\":1262:1289  block.timestamp + MAX_DELAY */\n      tag_65\n      swap2\n      swap1\n      tag_63\n      jump\t// in\n    tag_65:\n        /* \"contracts/timelock/Timelock.sol\":1248:1258  _timestamp */\n      dup4\n        /* \"contracts/timelock/Timelock.sol\":1248:1289  _timestamp <= block.timestamp + MAX_DELAY */\n      gt\n      iszero\n        /* \"contracts/timelock/Timelock.sol\":1191:1289  _timestamp >= block.timestamp + MIN_DELAY &&... */\n    tag_64:\n        /* \"contracts/timelock/Timelock.sol\":1170:1332  require(... */\n      tag_66\n      jumpi\n      mload(0x40)\n      0x08c379a000000000000000000000000000000000000000000000000000000000\n      dup2\n      mstore\n      0x04\n      add\n      tag_67\n      swap1\n      tag_68\n      jump\t// in\n    tag_67:\n      mload(0x40)\n      dup1\n      swap2\n      sub\n      swap1\n      revert\n    tag_66:\n        /* \"contracts/timelock/Timelock.sol\":1360:1364  true */\n      0x01\n        /* \"contracts/timelock/Timelock.sol\":1342:1351  queuedTxs */\n      dup1\n        /* \"contracts/timelock/Timelock.sol\":1342:1357  queuedTxs[txId] */\n      0x00\n        /* \"contracts/timelock/Timelock.sol\":1352:1356  txId */\n      dup4\n        /* \"contracts/timelock/Timelock.sol\":1342:1357  queuedTxs[txId] */\n      dup2\n      mstore\n      0x20\n      add\n      swap1\n      dup2\n      mstore\n      0x20\n      add\n      0x00\n      keccak256\n      0x00\n        /* \"contracts/timelock/Timelock.sol\":1342:1364  queuedTxs[txId] = true */\n      0x0100\n      exp\n      dup2\n      sload\n      dup2\n      0xff\n      mul\n      not\n      and\n      swap1\n      dup4\n      iszero\n      iszero\n      mul\n      or\n      swap1\n      sstore\n      pop\n        /* \"contracts/timelock/Timelock.sol\":1418:1421  _to */\n      dup9\n        /* \"contracts/timelock/Timelock.sol\":1380:1513  Queued(... */\n      0xffffffffffffffffffffffffffffffffffffffff\n      and\n        /* \"contracts/timelock/Timelock.sol\":1400:1404  txId */\n      dup2\n        /* \"contracts/timelock/Timelock.sol\":1380:1513  Queued(... */\n      0xe6078611738a572e481d24f65dac585d324038a1b65b3ac7e16ad2975278a86b\n        /* \"contracts/timelock/Timelock.sol\":1435:1441  _value */\n      dup11\n        /* \"contracts/timelock/Timelock.sol\":1455:1460  _func */\n      dup11\n      dup11\n        /* \"contracts/timelock/Timelock.sol\":1474:1479  _data */\n      dup11\n      dup11\n        /* \"contracts/timelock/Timelock.sol\":1493:1503  _timestamp */\n      dup11\n        /* \"contracts/timelock/Timelock.sol\":1380:1513  Queued(... */\n      mload(0x40)\n      tag_69\n      swap7\n      swap6\n      swap5\n      swap4\n      swap3\n      swap2\n      swap1\n      tag_70\n      jump\t// in\n    tag_69:\n      mload(0x40)\n      dup1\n      swap2\n      sub\n      swap1\n      log3\n        /* \"contracts/timelock/Timelock.sol\":1531:1535  txId */\n      dup1\n        /* \"contracts/timelock/Timelock.sol\":1524:1535  return txId */\n      swap2\n      pop\n      pop\n        /* \"contracts/timelock/Timelock.sol\":778:1542  function queue(... */\n      swap8\n      swap7\n      pop\n      pop\n      pop\n      pop\n      pop\n      pop\n      pop\n      jump\t// out\n        /* \"contracts/timelock/Timelock.sol\":238:279  mapping(bytes32 => bool) public queuedTxs */\n    tag_27:\n      mstore(0x20, 0x01)\n      dup1\n      0x00\n      mstore\n      keccak256(0x00, 0x40)\n      0x00\n      swap2\n      pop\n      sload\n      swap1\n      0x0100\n      exp\n      swap1\n      div\n      0xff\n      and\n      dup2\n      jump\t// out\n        /* \"contracts/timelock/Timelock.sol\":81:101  address public owner */\n    tag_32:\n      0x00\n      dup1\n      sload\n      swap1\n      0x0100\n      exp\n      swap1\n      div\n      0xffffffffffffffffffffffffffffffffffffffff\n      and\n      dup2\n      jump\t// out\n        /* \"contracts/timelock/Timelock.sol\":108:143  uint public constant MIN_DELAY = 10 */\n    tag_37:\n        /* \"contracts/timelock/Timelock.sol\":141:143  10 */\n      0x0a\n        /* \"contracts/timelock/Timelock.sol\":108:143  uint public constant MIN_DELAY = 10 */\n      dup2\n      jump\t// out\n        /* \"contracts/timelock/Timelock.sol\":1548:2636  function execute(... */\n    tag_41:\n        /* \"contracts/timelock/Timelock.sol\":1741:1753  bytes memory */\n      0x60\n        /* \"contracts/timelock/Timelock.sol\":732:737  owner */\n      0x00\n      dup1\n      sload\n      swap1\n      0x0100\n      exp\n      swap1\n      div\n      0xffffffffffffffffffffffffffffffffffffffff\n      and\n        /* \"contracts/timelock/Timelock.sol\":718:737  msg.sender == owner */\n      0xffffffffffffffffffffffffffffffffffffffff\n      and\n        /* \"contracts/timelock/Timelock.sol\":718:728  msg.sender */\n      caller\n        /* \"contracts/timelock/Timelock.sol\":718:737  msg.sender == owner */\n      0xffffffffffffffffffffffffffffffffffffffff\n      and\n      eq\n        /* \"contracts/timelock/Timelock.sol\":710:754  require(msg.sender == owner, \"not an owner\") */\n      tag_72\n      jumpi\n      mload(0x40)\n      0x08c379a000000000000000000000000000000000000000000000000000000000\n      dup2\n      mstore\n      0x04\n      add\n      tag_73\n      swap1\n      tag_55\n      jump\t// in\n    tag_73:\n      mload(0x40)\n      dup1\n      swap2\n      sub\n      swap1\n      revert\n    tag_72:\n        /* \"contracts/timelock/Timelock.sol\":1765:1777  bytes32 txId */\n      0x00\n        /* \"contracts/timelock/Timelock.sol\":1831:1834  _to */\n      dup9\n        /* \"contracts/timelock/Timelock.sol\":1836:1842  _value */\n      dup9\n        /* \"contracts/timelock/Timelock.sol\":1844:1849  _func */\n      dup9\n      dup9\n        /* \"contracts/timelock/Timelock.sol\":1851:1856  _data */\n      dup9\n      dup9\n        /* \"contracts/timelock/Timelock.sol\":1858:1868  _timestamp */\n      dup9\n        /* \"contracts/timelock/Timelock.sol\":1803:1882  abi.encode(... */\n      add(0x20, mload(0x40))\n      tag_75\n      swap8\n      swap7\n      swap6\n      swap5\n      swap4\n      swap3\n      swap2\n      swap1\n      tag_58\n      jump\t// in\n    tag_75:\n      mload(0x40)\n      0x20\n      dup2\n      dup4\n      sub\n      sub\n      dup2\n      mstore\n      swap1\n      0x40\n      mstore\n        /* \"contracts/timelock/Timelock.sol\":1780:1892  keccak256(... */\n      dup1\n      mload\n      swap1\n      0x20\n      add\n      keccak256\n        /* \"contracts/timelock/Timelock.sol\":1765:1892  bytes32 txId = keccak256(... */\n      swap1\n      pop\n        /* \"contracts/timelock/Timelock.sol\":1911:1920  queuedTxs */\n      0x01\n        /* \"contracts/timelock/Timelock.sol\":1911:1926  queuedTxs[txId] */\n      0x00\n        /* \"contracts/timelock/Timelock.sol\":1921:1925  txId */\n      dup3\n        /* \"contracts/timelock/Timelock.sol\":1911:1926  queuedTxs[txId] */\n      dup2\n      mstore\n      0x20\n      add\n      swap1\n      dup2\n      mstore\n      0x20\n      add\n      0x00\n      keccak256\n      0x00\n      swap1\n      sload\n      swap1\n      0x0100\n      exp\n      swap1\n      div\n      0xff\n      and\n        /* \"contracts/timelock/Timelock.sol\":1903:1942  require(queuedTxs[txId], \"not queued!\") */\n      tag_76\n      jumpi\n      mload(0x40)\n      0x08c379a000000000000000000000000000000000000000000000000000000000\n      dup2\n      mstore\n      0x04\n      add\n      tag_77\n      swap1\n      tag_78\n      jump\t// in\n    tag_77:\n      mload(0x40)\n      dup1\n      swap2\n      sub\n      swap1\n      revert\n    tag_76:\n        /* \"contracts/timelock/Timelock.sol\":1979:1989  _timestamp */\n      dup3\n        /* \"contracts/timelock/Timelock.sol\":1960:1975  block.timestamp */\n      timestamp\n        /* \"contracts/timelock/Timelock.sol\":1960:1989  block.timestamp >= _timestamp */\n      lt\n      iszero\n        /* \"contracts/timelock/Timelock.sol\":1952:2004  require(block.timestamp >= _timestamp, \"too early!\") */\n      tag_79\n      jumpi\n      mload(0x40)\n      0x08c379a000000000000000000000000000000000000000000000000000000000\n      dup2\n      mstore\n      0x04\n      add\n      tag_80\n      swap1\n      tag_81\n      jump\t// in\n    tag_80:\n      mload(0x40)\n      dup1\n      swap2\n      sub\n      swap1\n      revert\n    tag_79:\n        /* \"contracts/timelock/Timelock.sol\":227:231  1000 */\n      0x03e8\n        /* \"contracts/timelock/Timelock.sol\":2041:2051  _timestamp */\n      dup4\n        /* \"contracts/timelock/Timelock.sol\":2041:2066  _timestamp + EXPIRY_DELAY */\n      tag_82\n      swap2\n      swap1\n      tag_63\n      jump\t// in\n    tag_82:\n        /* \"contracts/timelock/Timelock.sol\":2022:2037  block.timestamp */\n      timestamp\n        /* \"contracts/timelock/Timelock.sol\":2022:2066  block.timestamp <= _timestamp + EXPIRY_DELAY */\n      gt\n      iszero\n        /* \"contracts/timelock/Timelock.sol\":2014:2080  require(block.timestamp <= _timestamp + EXPIRY_DELAY, \"too late!\") */\n      tag_83\n      jumpi\n      mload(0x40)\n      0x08c379a000000000000000000000000000000000000000000000000000000000\n      dup2\n      mstore\n      0x04\n      add\n      tag_84\n      swap1\n      tag_85\n      jump\t// in\n    tag_84:\n      mload(0x40)\n      dup1\n      swap2\n      sub\n      swap1\n      revert\n    tag_83:\n        /* \"contracts/timelock/Timelock.sol\":2098:2107  queuedTxs */\n      0x01\n        /* \"contracts/timelock/Timelock.sol\":2098:2113  queuedTxs[txId] */\n      0x00\n        /* \"contracts/timelock/Timelock.sol\":2108:2112  txId */\n      dup3\n        /* \"contracts/timelock/Timelock.sol\":2098:2113  queuedTxs[txId] */\n      dup2\n      mstore\n      0x20\n      add\n      swap1\n      dup2\n      mstore\n      0x20\n      add\n      0x00\n      keccak256\n      0x00\n        /* \"contracts/timelock/Timelock.sol\":2091:2113  delete queuedTxs[txId] */\n      0x0100\n      exp\n      dup2\n      sload\n      swap1\n      0xff\n      mul\n      not\n      and\n      swap1\n      sstore\n        /* \"contracts/timelock/Timelock.sol\":2124:2141  bytes memory data */\n      0x60\n        /* \"contracts/timelock/Timelock.sol\":2177:2178  0 */\n      0x00\n        /* \"contracts/timelock/Timelock.sol\":2161:2166  _func */\n      dup9\n      dup9\n        /* \"contracts/timelock/Timelock.sol\":2155:2174  bytes(_func).length */\n      swap1\n      pop\n        /* \"contracts/timelock/Timelock.sol\":2155:2178  bytes(_func).length > 0 */\n      gt\n        /* \"contracts/timelock/Timelock.sol\":2151:2341  if (bytes(_func).length > 0) {... */\n      iszero\n      tag_86\n      jumpi\n        /* \"contracts/timelock/Timelock.sol\":2258:2263  _func */\n      dup8\n      dup8\n        /* \"contracts/timelock/Timelock.sol\":2242:2265  keccak256(bytes(_func)) */\n      mload(0x40)\n      tag_87\n      swap3\n      swap2\n      swap1\n      tag_88\n      jump\t// in\n    tag_87:\n      mload(0x40)\n      dup1\n      swap2\n      sub\n      swap1\n      keccak256\n        /* \"contracts/timelock/Timelock.sol\":2268:2273  _data */\n      dup7\n      dup7\n        /* \"contracts/timelock/Timelock.sol\":2201:2287  abi.encodePacked(... */\n      add(0x20, mload(0x40))\n      tag_89\n      swap4\n      swap3\n      swap2\n      swap1\n      tag_90\n      jump\t// in\n    tag_89:\n      mload(0x40)\n      0x20\n      dup2\n      dup4\n      sub\n      sub\n      dup2\n      mstore\n      swap1\n      0x40\n      mstore\n        /* \"contracts/timelock/Timelock.sol\":2194:2287  data = abi.encodePacked(... */\n      swap1\n      pop\n        /* \"contracts/timelock/Timelock.sol\":2151:2341  if (bytes(_func).length > 0) {... */\n      jump(tag_91)\n    tag_86:\n        /* \"contracts/timelock/Timelock.sol\":2325:2330  _data */\n      dup6\n      dup6\n        /* \"contracts/timelock/Timelock.sol\":2318:2330  data = _data */\n      dup1\n      dup1\n      0x1f\n      add\n      0x20\n      dup1\n      swap2\n      div\n      mul\n      0x20\n      add\n      mload(0x40)\n      swap1\n      dup2\n      add\n      0x40\n      mstore\n      dup1\n      swap4\n      swap3\n      swap2\n      swap1\n      dup2\n      dup2\n      mstore\n      0x20\n      add\n      dup4\n      dup4\n      dup1\n      dup3\n      dup5\n      calldatacopy\n      0x00\n      dup2\n      dup5\n      add\n      mstore\n      not(0x1f)\n      0x1f\n      dup3\n      add\n      and\n      swap1\n      pop\n      dup1\n      dup4\n      add\n      swap3\n      pop\n      pop\n      pop\n      pop\n      pop\n      pop\n      pop\n      swap1\n      pop\n        /* \"contracts/timelock/Timelock.sol\":2151:2341  if (bytes(_func).length > 0) {... */\n    tag_91:\n        /* \"contracts/timelock/Timelock.sol\":2352:2364  bool success */\n      0x00\n        /* \"contracts/timelock/Timelock.sol\":2366:2383  bytes memory resp */\n      dup1\n        /* \"contracts/timelock/Timelock.sol\":2387:2390  _to */\n      dup12\n        /* \"contracts/timelock/Timelock.sol\":2387:2395  _to.call */\n      0xffffffffffffffffffffffffffffffffffffffff\n      and\n        /* \"contracts/timelock/Timelock.sol\":2403:2409  _value */\n      dup12\n        /* \"contracts/timelock/Timelock.sol\":2411:2415  data */\n      dup5\n        /* \"contracts/timelock/Timelock.sol\":2387:2416  _to.call{value: _value}(data) */\n      mload(0x40)\n      tag_92\n      swap2\n      swap1\n      tag_93\n      jump\t// in\n    tag_92:\n      0x00\n      mload(0x40)\n      dup1\n      dup4\n      sub\n      dup2\n      dup6\n      dup8\n      gas\n      call\n      swap3\n      pop\n      pop\n      pop\n      returndatasize\n      dup1\n      0x00\n      dup2\n      eq\n      tag_96\n      jumpi\n      mload(0x40)\n      swap2\n      pop\n      and(add(returndatasize, 0x3f), not(0x1f))\n      dup3\n      add\n      0x40\n      mstore\n      returndatasize\n      dup3\n      mstore\n      returndatasize\n      0x00\n      0x20\n      dup5\n      add\n      returndatacopy\n      jump(tag_95)\n    tag_96:\n      0x60\n      swap2\n      pop\n    tag_95:\n      pop\n        /* \"contracts/timelock/Timelock.sol\":2351:2416  (bool success, bytes memory resp) = _to.call{value: _value}(data) */\n      swap2\n      pop\n      swap2\n      pop\n        /* \"contracts/timelock/Timelock.sol\":2434:2441  success */\n      dup2\n        /* \"contracts/timelock/Timelock.sol\":2426:2456  require(success, \"tx failed!\") */\n      tag_97\n      jumpi\n      mload(0x40)\n      0x08c379a000000000000000000000000000000000000000000000000000000000\n      dup2\n      mstore\n      0x04\n      add\n      tag_98\n      swap1\n      tag_99\n      jump\t// in\n    tag_98:\n      mload(0x40)\n      dup1\n      swap2\n      sub\n      swap1\n      revert\n    tag_97:\n        /* \"contracts/timelock/Timelock.sol\":2512:2515  _to */\n      dup12\n        /* \"contracts/timelock/Timelock.sol\":2472:2607  Executed(... */\n      0xffffffffffffffffffffffffffffffffffffffff\n      and\n        /* \"contracts/timelock/Timelock.sol\":2494:2498  txId */\n      dup5\n        /* \"contracts/timelock/Timelock.sol\":2472:2607  Executed(... */\n      0x4d89696b1438d0f9c59a98b32692918d0505bb64c719b1f94f306b6333d7c77b\n        /* \"contracts/timelock/Timelock.sol\":2529:2535  _value */\n      dup14\n        /* \"contracts/timelock/Timelock.sol\":2549:2554  _func */\n      dup14\n      dup14\n        /* \"contracts/timelock/Timelock.sol\":2568:2573  _data */\n      dup14\n      dup14\n        /* \"contracts/timelock/Timelock.sol\":2587:2597  _timestamp */\n      dup14\n        /* \"contracts/timelock/Timelock.sol\":2472:2607  Executed(... */\n      mload(0x40)\n      tag_100\n      swap7\n      swap6\n      swap5\n      swap4\n      swap3\n      swap2\n      swap1\n      tag_70\n      jump\t// in\n    tag_100:\n      mload(0x40)\n      dup1\n      swap2\n      sub\n      swap1\n      log3\n        /* \"contracts/timelock/Timelock.sol\":2625:2629  resp */\n      dup1\n        /* \"contracts/timelock/Timelock.sol\":2618:2629  return resp */\n      swap5\n      pop\n      pop\n      pop\n      pop\n      pop\n        /* \"contracts/timelock/Timelock.sol\":1548:2636  function execute(... */\n      swap8\n      swap7\n      pop\n      pop\n      pop\n      pop\n      pop\n      pop\n      pop\n      jump\t// out\n        /* \"contracts/timelock/Timelock.sol\":2642:2782  function cancel(bytes32 _txId) external onlyOwner {... */\n    tag_47:\n        /* \"contracts/timelock/Timelock.sol\":732:737  owner */\n      0x00\n      dup1\n      sload\n      swap1\n      0x0100\n      exp\n      swap1\n      div\n      0xffffffffffffffffffffffffffffffffffffffff\n      and\n        /* \"contracts/timelock/Timelock.sol\":718:737  msg.sender == owner */\n      0xffffffffffffffffffffffffffffffffffffffff\n      and\n        /* \"contracts/timelock/Timelock.sol\":718:728  msg.sender */\n      caller\n        /* \"contracts/timelock/Timelock.sol\":718:737  msg.sender == owner */\n      0xffffffffffffffffffffffffffffffffffffffff\n      and\n      eq\n        /* \"contracts/timelock/Timelock.sol\":710:754  require(msg.sender == owner, \"not an owner\") */\n      tag_102\n      jumpi\n      mload(0x40)\n      0x08c379a000000000000000000000000000000000000000000000000000000000\n      dup2\n      mstore\n      0x04\n      add\n      tag_103\n      swap1\n      tag_55\n      jump\t// in\n    tag_103:\n      mload(0x40)\n      dup1\n      swap2\n      sub\n      swap1\n      revert\n    tag_102:\n        /* \"contracts/timelock/Timelock.sol\":2710:2719  queuedTxs */\n      0x01\n        /* \"contracts/timelock/Timelock.sol\":2710:2726  queuedTxs[_txId] */\n      0x00\n        /* \"contracts/timelock/Timelock.sol\":2720:2725  _txId */\n      dup3\n        /* \"contracts/timelock/Timelock.sol\":2710:2726  queuedTxs[_txId] */\n      dup2\n      mstore\n      0x20\n      add\n      swap1\n      dup2\n      mstore\n      0x20\n      add\n      0x00\n      keccak256\n      0x00\n      swap1\n      sload\n      swap1\n      0x0100\n      exp\n      swap1\n      div\n      0xff\n      and\n        /* \"contracts/timelock/Timelock.sol\":2702:2742  require(queuedTxs[_txId], \"not queued!\") */\n      tag_105\n      jumpi\n      mload(0x40)\n      0x08c379a000000000000000000000000000000000000000000000000000000000\n      dup2\n      mstore\n      0x04\n      add\n      tag_106\n      swap1\n      tag_78\n      jump\t// in\n    tag_106:\n      mload(0x40)\n      dup1\n      swap2\n      sub\n      swap1\n      revert\n    tag_105:\n        /* \"contracts/timelock/Timelock.sol\":2759:2768  queuedTxs */\n      0x01\n        /* \"contracts/timelock/Timelock.sol\":2759:2775  queuedTxs[_txId] */\n      0x00\n        /* \"contracts/timelock/Timelock.sol\":2769:2774  _txId */\n      dup3\n        /* \"contracts/timelock/Timelock.sol\":2759:2775  queuedTxs[_txId] */\n      dup2\n      mstore\n      0x20\n      add\n      swap1\n      dup2\n      mstore\n      0x20\n      add\n      0x00\n      keccak256\n      0x00\n        /* \"contracts/timelock/Timelock.sol\":2752:2775  delete queuedTxs[_txId] */\n      0x0100\n      exp\n      dup2\n      sload\n      swap1\n      0xff\n      mul\n      not\n      and\n      swap1\n      sstore\n        /* \"contracts/timelock/Timelock.sol\":2642:2782  function cancel(bytes32 _txId) external onlyOwner {... */\n      pop\n      jump\t// out\n        /* \"contracts/timelock/Timelock.sol\":191:231  uint public constant EXPIRY_DELAY = 1000 */\n    tag_50:\n        /* \"contracts/timelock/Timelock.sol\":227:231  1000 */\n      0x03e8\n        /* \"contracts/timelock/Timelock.sol\":191:231  uint public constant EXPIRY_DELAY = 1000 */\n      dup2\n      jump\t// out\n        /* \"#utility.yul\":7:84   */\n    tag_107:\n        /* \"#utility.yul\":44:51   */\n      0x00\n        /* \"#utility.yul\":73:78   */\n      dup2\n        /* \"#utility.yul\":62:78   */\n      swap1\n      pop\n        /* \"#utility.yul\":7:84   */\n      swap2\n      swap1\n      pop\n      jump\t// out\n        /* \"#utility.yul\":90:208   */\n    tag_108:\n        /* \"#utility.yul\":177:201   */\n      tag_163\n        /* \"#utility.yul\":195:200   */\n      dup2\n        /* \"#utility.yul\":177:201   */\n      tag_107\n      jump\t// in\n    tag_163:\n        /* \"#utility.yul\":172:175   */\n      dup3\n        /* \"#utility.yul\":165:202   */\n      mstore\n        /* \"#utility.yul\":90:208   */\n      pop\n      pop\n      jump\t// out\n        /* \"#utility.yul\":214:436   */\n    tag_15:\n        /* \"#utility.yul\":307:311   */\n      0x00\n        /* \"#utility.yul\":345:347   */\n      0x20\n        /* \"#utility.yul\":334:343   */\n      dup3\n        /* \"#utility.yul\":330:348   */\n      add\n        /* \"#utility.yul\":322:348   */\n      swap1\n      pop\n        /* \"#utility.yul\":358:429   */\n      tag_165\n        /* \"#utility.yul\":426:427   */\n      0x00\n        /* \"#utility.yul\":415:424   */\n      dup4\n        /* \"#utility.yul\":411:428   */\n      add\n        /* \"#utility.yul\":402:408   */\n      dup5\n        /* \"#utility.yul\":358:429   */\n      tag_108\n      jump\t// in\n    tag_165:\n        /* \"#utility.yul\":214:436   */\n      swap3\n      swap2\n      pop\n      pop\n      jump\t// out\n        /* \"#utility.yul\":523:640   */\n    tag_110:\n        /* \"#utility.yul\":632:633   */\n      0x00\n        /* \"#utility.yul\":629:630   */\n      dup1\n        /* \"#utility.yul\":622:634   */\n      revert\n        /* \"#utility.yul\":646:763   */\n    tag_111:\n        /* \"#utility.yul\":755:756   */\n      0x00\n        /* \"#utility.yul\":752:753   */\n      dup1\n        /* \"#utility.yul\":745:757   */\n      revert\n        /* \"#utility.yul\":769:895   */\n    tag_112:\n        /* \"#utility.yul\":806:813   */\n      0x00\n        /* \"#utility.yul\":846:888   */\n      0xffffffffffffffffffffffffffffffffffffffff\n        /* \"#utility.yul\":839:844   */\n      dup3\n        /* \"#utility.yul\":835:889   */\n      and\n        /* \"#utility.yul\":824:889   */\n      swap1\n      pop\n        /* \"#utility.yul\":769:895   */\n      swap2\n      swap1\n      pop\n      jump\t// out\n        /* \"#utility.yul\":901:997   */\n    tag_113:\n        /* \"#utility.yul\":938:945   */\n      0x00\n        /* \"#utility.yul\":967:991   */\n      tag_171\n        /* \"#utility.yul\":985:990   */\n      dup3\n        /* \"#utility.yul\":967:991   */\n      tag_112\n      jump\t// in\n    tag_171:\n        /* \"#utility.yul\":956:991   */\n      swap1\n      pop\n        /* \"#utility.yul\":901:997   */\n      swap2\n      swap1\n      pop\n      jump\t// out\n        /* \"#utility.yul\":1003:1125   */\n    tag_114:\n        /* \"#utility.yul\":1076:1100   */\n      tag_173\n        /* \"#utility.yul\":1094:1099   */\n      dup2\n        /* \"#utility.yul\":1076:1100   */\n      tag_113\n      jump\t// in\n    tag_173:\n        /* \"#utility.yul\":1069:1074   */\n      dup2\n        /* \"#utility.yul\":1066:1101   */\n      eq\n        /* \"#utility.yul\":1056:1119   */\n      tag_174\n      jumpi\n        /* \"#utility.yul\":1115:1116   */\n      0x00\n        /* \"#utility.yul\":1112:1113   */\n      dup1\n        /* \"#utility.yul\":1105:1117   */\n      revert\n        /* \"#utility.yul\":1056:1119   */\n    tag_174:\n        /* \"#utility.yul\":1003:1125   */\n      pop\n      jump\t// out\n        /* \"#utility.yul\":1131:1270   */\n    tag_115:\n        /* \"#utility.yul\":1177:1182   */\n      0x00\n        /* \"#utility.yul\":1215:1221   */\n      dup2\n        /* \"#utility.yul\":1202:1222   */\n      calldataload\n        /* \"#utility.yul\":1193:1222   */\n      swap1\n      pop\n        /* \"#utility.yul\":1231:1264   */\n      tag_176\n        /* \"#utility.yul\":1258:1263   */\n      dup2\n        /* \"#utility.yul\":1231:1264   */\n      tag_114\n      jump\t// in\n    tag_176:\n        /* \"#utility.yul\":1131:1270   */\n      swap3\n      swap2\n      pop\n      pop\n      jump\t// out\n        /* \"#utility.yul\":1276:1398   */\n    tag_116:\n        /* \"#utility.yul\":1349:1373   */\n      tag_178\n        /* \"#utility.yul\":1367:1372   */\n      dup2\n        /* \"#utility.yul\":1349:1373   */\n      tag_107\n      jump\t// in\n    tag_178:\n        /* \"#utility.yul\":1342:1347   */\n      dup2\n        /* \"#utility.yul\":1339:1374   */\n      eq\n        /* \"#utility.yul\":1329:1392   */\n      tag_179\n      jumpi\n        /* \"#utility.yul\":1388:1389   */\n      0x00\n        /* \"#utility.yul\":1385:1386   */\n      dup1\n        /* \"#utility.yul\":1378:1390   */\n      revert\n        /* \"#utility.yul\":1329:1392   */\n    tag_179:\n        /* \"#utility.yul\":1276:1398   */\n      pop\n      jump\t// out\n        /* \"#utility.yul\":1404:1543   */\n    tag_117:\n        /* \"#utility.yul\":1450:1455   */\n      0x00\n        /* \"#utility.yul\":1488:1494   */\n      dup2\n        /* \"#utility.yul\":1475:1495   */\n      calldataload\n        /* \"#utility.yul\":1466:1495   */\n      swap1\n      pop\n        /* \"#utility.yul\":1504:1537   */\n      tag_181\n        /* \"#utility.yul\":1531:1536   */\n      dup2\n        /* \"#utility.yul\":1504:1537   */\n      tag_116\n      jump\t// in\n    tag_181:\n        /* \"#utility.yul\":1404:1543   */\n      swap3\n      swap2\n      pop\n      pop\n      jump\t// out\n        /* \"#utility.yul\":1549:1666   */\n    tag_118:\n        /* \"#utility.yul\":1658:1659   */\n      0x00\n        /* \"#utility.yul\":1655:1656   */\n      dup1\n        /* \"#utility.yul\":1648:1660   */\n      revert\n        /* \"#utility.yul\":1672:1789   */\n    tag_119:\n        /* \"#utility.yul\":1781:1782   */\n      0x00\n        /* \"#utility.yul\":1778:1779   */\n      dup1\n        /* \"#utility.yul\":1771:1783   */\n      revert\n        /* \"#utility.yul\":1795:1912   */\n    tag_120:\n        /* \"#utility.yul\":1904:1905   */\n      0x00\n        /* \"#utility.yul\":1901:1902   */\n      dup1\n        /* \"#utility.yul\":1894:1906   */\n      revert\n        /* \"#utility.yul\":1932:2485   */\n    tag_121:\n        /* \"#utility.yul\":1990:1998   */\n      0x00\n        /* \"#utility.yul\":2000:2006   */\n      dup1\n        /* \"#utility.yul\":2050:2053   */\n      dup4\n        /* \"#utility.yul\":2043:2047   */\n      0x1f\n        /* \"#utility.yul\":2035:2041   */\n      dup5\n        /* \"#utility.yul\":2031:2048   */\n      add\n        /* \"#utility.yul\":2027:2054   */\n      slt\n        /* \"#utility.yul\":2017:2139   */\n      tag_186\n      jumpi\n        /* \"#utility.yul\":2058:2137   */\n      tag_187\n      tag_118\n      jump\t// in\n    tag_187:\n        /* \"#utility.yul\":2017:2139   */\n    tag_186:\n        /* \"#utility.yul\":2171:2177   */\n      dup3\n        /* \"#utility.yul\":2158:2178   */\n      calldataload\n        /* \"#utility.yul\":2148:2178   */\n      swap1\n      pop\n        /* \"#utility.yul\":2201:2219   */\n      0xffffffffffffffff\n        /* \"#utility.yul\":2193:2199   */\n      dup2\n        /* \"#utility.yul\":2190:2220   */\n      gt\n        /* \"#utility.yul\":2187:2304   */\n      iszero\n      tag_188\n      jumpi\n        /* \"#utility.yul\":2223:2302   */\n      tag_189\n      tag_119\n      jump\t// in\n    tag_189:\n        /* \"#utility.yul\":2187:2304   */\n    tag_188:\n        /* \"#utility.yul\":2337:2341   */\n      0x20\n        /* \"#utility.yul\":2329:2335   */\n      dup4\n        /* \"#utility.yul\":2325:2342   */\n      add\n        /* \"#utility.yul\":2313:2342   */\n      swap2\n      pop\n        /* \"#utility.yul\":2391:2394   */\n      dup4\n        /* \"#utility.yul\":2383:2387   */\n      0x01\n        /* \"#utility.yul\":2375:2381   */\n      dup3\n        /* \"#utility.yul\":2371:2388   */\n      mul\n        /* \"#utility.yul\":2361:2369   */\n      dup4\n        /* \"#utility.yul\":2357:2389   */\n      add\n        /* \"#utility.yul\":2354:2395   */\n      gt\n        /* \"#utility.yul\":2351:2479   */\n      iszero\n      tag_190\n      jumpi\n        /* \"#utility.yul\":2398:2477   */\n      tag_191\n      tag_120\n      jump\t// in\n    tag_191:\n        /* \"#utility.yul\":2351:2479   */\n    tag_190:\n        /* \"#utility.yul\":1932:2485   */\n      swap3\n      pop\n      swap3\n      swap1\n      pop\n      jump\t// out\n        /* \"#utility.yul\":2504:3056   */\n    tag_122:\n        /* \"#utility.yul\":2561:2569   */\n      0x00\n        /* \"#utility.yul\":2571:2577   */\n      dup1\n        /* \"#utility.yul\":2621:2624   */\n      dup4\n        /* \"#utility.yul\":2614:2618   */\n      0x1f\n        /* \"#utility.yul\":2606:2612   */\n      dup5\n        /* \"#utility.yul\":2602:2619   */\n      add\n        /* \"#utility.yul\":2598:2625   */\n      slt\n        /* \"#utility.yul\":2588:2710   */\n      tag_193\n      jumpi\n        /* \"#utility.yul\":2629:2708   */\n      tag_194\n      tag_118\n      jump\t// in\n    tag_194:\n        /* \"#utility.yul\":2588:2710   */\n    tag_193:\n        /* \"#utility.yul\":2742:2748   */\n      dup3\n        /* \"#utility.yul\":2729:2749   */\n      calldataload\n        /* \"#utility.yul\":2719:2749   */\n      swap1\n      pop\n        /* \"#utility.yul\":2772:2790   */\n      0xffffffffffffffff\n        /* \"#utility.yul\":2764:2770   */\n      dup2\n        /* \"#utility.yul\":2761:2791   */\n      gt\n        /* \"#utility.yul\":2758:2875   */\n      iszero\n      tag_195\n      jumpi\n        /* \"#utility.yul\":2794:2873   */\n      tag_196\n      tag_119\n      jump\t// in\n    tag_196:\n        /* \"#utility.yul\":2758:2875   */\n    tag_195:\n        /* \"#utility.yul\":2908:2912   */\n      0x20\n        /* \"#utility.yul\":2900:2906   */\n      dup4\n        /* \"#utility.yul\":2896:2913   */\n      add\n        /* \"#utility.yul\":2884:2913   */\n      swap2\n      pop\n        /* \"#utility.yul\":2962:2965   */\n      dup4\n        /* \"#utility.yul\":2954:2958   */\n      0x01\n        /* \"#utility.yul\":2946:2952   */\n      dup3\n        /* \"#utility.yul\":2942:2959   */\n      mul\n        /* \"#utility.yul\":2932:2940   */\n      dup4\n        /* \"#utility.yul\":2928:2960   */\n      add\n        /* \"#utility.yul\":2925:2966   */\n      gt\n        /* \"#utility.yul\":2922:3050   */\n      iszero\n      tag_197\n      jumpi\n        /* \"#utility.yul\":2969:3048   */\n      tag_198\n      tag_120\n      jump\t// in\n    tag_198:\n        /* \"#utility.yul\":2922:3050   */\n    tag_197:\n        /* \"#utility.yul\":2504:3056   */\n      swap3\n      pop\n      swap3\n      swap1\n      pop\n      jump\t// out\n        /* \"#utility.yul\":3062:4371   */\n    tag_19:\n        /* \"#utility.yul\":3180:3186   */\n      0x00\n        /* \"#utility.yul\":3188:3194   */\n      dup1\n        /* \"#utility.yul\":3196:3202   */\n      0x00\n        /* \"#utility.yul\":3204:3210   */\n      dup1\n        /* \"#utility.yul\":3212:3218   */\n      0x00\n        /* \"#utility.yul\":3220:3226   */\n      dup1\n        /* \"#utility.yul\":3228:3234   */\n      0x00\n        /* \"#utility.yul\":3277:3280   */\n      0xa0\n        /* \"#utility.yul\":3265:3274   */\n      dup9\n        /* \"#utility.yul\":3256:3263   */\n      dup11\n        /* \"#utility.yul\":3252:3275   */\n      sub\n        /* \"#utility.yul\":3248:3281   */\n      slt\n        /* \"#utility.yul\":3245:3365   */\n      iszero\n      tag_200\n      jumpi\n        /* \"#utility.yul\":3284:3363   */\n      tag_201\n      tag_110\n      jump\t// in\n    tag_201:\n        /* \"#utility.yul\":3245:3365   */\n    tag_200:\n        /* \"#utility.yul\":3404:3405   */\n      0x00\n        /* \"#utility.yul\":3429:3482   */\n      tag_202\n        /* \"#utility.yul\":3474:3481   */\n      dup11\n        /* \"#utility.yul\":3465:3471   */\n      dup3\n        /* \"#utility.yul\":3454:3463   */\n      dup12\n        /* \"#utility.yul\":3450:3472   */\n      add\n        /* \"#utility.yul\":3429:3482   */\n      tag_115\n      jump\t// in\n    tag_202:\n        /* \"#utility.yul\":3419:3482   */\n      swap8\n      pop\n        /* \"#utility.yul\":3375:3492   */\n      pop\n        /* \"#utility.yul\":3531:3533   */\n      0x20\n        /* \"#utility.yul\":3557:3610   */\n      tag_203\n        /* \"#utility.yul\":3602:3609   */\n      dup11\n        /* \"#utility.yul\":3593:3599   */\n      dup3\n        /* \"#utility.yul\":3582:3591   */\n      dup12\n        /* \"#utility.yul\":3578:3600   */\n      add\n        /* \"#utility.yul\":3557:3610   */\n      tag_117\n      jump\t// in\n    tag_203:\n        /* \"#utility.yul\":3547:3610   */\n      swap7\n      pop\n        /* \"#utility.yul\":3502:3620   */\n      pop\n        /* \"#utility.yul\":3687:3689   */\n      0x40\n        /* \"#utility.yul\":3676:3685   */\n      dup9\n        /* \"#utility.yul\":3672:3690   */\n      add\n        /* \"#utility.yul\":3659:3691   */\n      calldataload\n        /* \"#utility.yul\":3718:3736   */\n      0xffffffffffffffff\n        /* \"#utility.yul\":3710:3716   */\n      dup2\n        /* \"#utility.yul\":3707:3737   */\n      gt\n        /* \"#utility.yul\":3704:3821   */\n      iszero\n      tag_204\n      jumpi\n        /* \"#utility.yul\":3740:3819   */\n      tag_205\n      tag_111\n      jump\t// in\n    tag_205:\n        /* \"#utility.yul\":3704:3821   */\n    tag_204:\n        /* \"#utility.yul\":3853:3918   */\n      tag_206\n        /* \"#utility.yul\":3910:3917   */\n      dup11\n        /* \"#utility.yul\":3901:3907   */\n      dup3\n        /* \"#utility.yul\":3890:3899   */\n      dup12\n        /* \"#utility.yul\":3886:3908   */\n      add\n        /* \"#utility.yul\":3853:3918   */\n      tag_121\n      jump\t// in\n    tag_206:\n        /* \"#utility.yul\":3835:3918   */\n      swap6\n      pop\n      swap6\n      pop\n        /* \"#utility.yul\":3630:3928   */\n      pop\n        /* \"#utility.yul\":3995:3997   */\n      0x60\n        /* \"#utility.yul\":3984:3993   */\n      dup9\n        /* \"#utility.yul\":3980:3998   */\n      add\n        /* \"#utility.yul\":3967:3999   */\n      calldataload\n        /* \"#utility.yul\":4026:4044   */\n      0xffffffffffffffff\n        /* \"#utility.yul\":4018:4024   */\n      dup2\n        /* \"#utility.yul\":4015:4045   */\n      gt\n        /* \"#utility.yul\":4012:4129   */\n      iszero\n      tag_207\n      jumpi\n        /* \"#utility.yul\":4048:4127   */\n      tag_208\n      tag_111\n      jump\t// in\n    tag_208:\n        /* \"#utility.yul\":4012:4129   */\n    tag_207:\n        /* \"#utility.yul\":4161:4225   */\n      tag_209\n        /* \"#utility.yul\":4217:4224   */\n      dup11\n        /* \"#utility.yul\":4208:4214   */\n      dup3\n        /* \"#utility.yul\":4197:4206   */\n      dup12\n        /* \"#utility.yul\":4193:4215   */\n      add\n        /* \"#utility.yul\":4161:4225   */\n      tag_122\n      jump\t// in\n    tag_209:\n        /* \"#utility.yul\":4143:4225   */\n      swap4\n      pop\n      swap4\n      pop\n        /* \"#utility.yul\":3938:4235   */\n      pop\n        /* \"#utility.yul\":4274:4277   */\n      0x80\n        /* \"#utility.yul\":4301:4354   */\n      tag_210\n        /* \"#utility.yul\":4346:4353   */\n      dup11\n        /* \"#utility.yul\":4337:4343   */\n      dup3\n        /* \"#utility.yul\":4326:4335   */\n      dup12\n        /* \"#utility.yul\":4322:4344   */\n      add\n        /* \"#utility.yul\":4301:4354   */\n      tag_117\n      jump\t// in\n    tag_210:\n        /* \"#utility.yul\":4291:4354   */\n      swap2\n      pop\n        /* \"#utility.yul\":4245:4364   */\n      pop\n        /* \"#utility.yul\":3062:4371   */\n      swap3\n      swap6\n      swap9\n      swap2\n      swap5\n      swap8\n      pop\n      swap3\n      swap6\n      pop\n      jump\t// out\n        /* \"#utility.yul\":4377:4454   */\n    tag_123:\n        /* \"#utility.yul\":4414:4421   */\n      0x00\n        /* \"#utility.yul\":4443:4448   */\n      dup2\n        /* \"#utility.yul\":4432:4448   */\n      swap1\n      pop\n        /* \"#utility.yul\":4377:4454   */\n      swap2\n      swap1\n      pop\n      jump\t// out\n        /* \"#utility.yul\":4460:4578   */\n    tag_124:\n        /* \"#utility.yul\":4547:4571   */\n      tag_213\n        /* \"#utility.yul\":4565:4570   */\n      dup2\n        /* \"#utility.yul\":4547:4571   */\n      tag_123\n      jump\t// in\n    tag_213:\n        /* \"#utility.yul\":4542:4545   */\n      dup3\n        /* \"#utility.yul\":4535:4572   */\n      mstore\n        /* \"#utility.yul\":4460:4578   */\n      pop\n      pop\n      jump\t// out\n        /* \"#utility.yul\":4584:4806   */\n    tag_22:\n        /* \"#utility.yul\":4677:4681   */\n      0x00\n        /* \"#utility.yul\":4715:4717   */\n      0x20\n        /* \"#utility.yul\":4704:4713   */\n      dup3\n        /* \"#utility.yul\":4700:4718   */\n      add\n        /* \"#utility.yul\":4692:4718   */\n      swap1\n      pop\n        /* \"#utility.yul\":4728:4799   */\n      tag_215\n        /* \"#utility.yul\":4796:4797   */\n      0x00\n        /* \"#utility.yul\":4785:4794   */\n      dup4\n        /* \"#utility.yul\":4781:4798   */\n      add\n        /* \"#utility.yul\":4772:4778   */\n      dup5\n        /* \"#utility.yul\":4728:4799   */\n      tag_124\n      jump\t// in\n    tag_215:\n        /* \"#utility.yul\":4584:4806   */\n      swap3\n      swap2\n      pop\n      pop\n      jump\t// out\n        /* \"#utility.yul\":4812:4934   */\n    tag_125:\n        /* \"#utility.yul\":4885:4909   */\n      tag_217\n        /* \"#utility.yul\":4903:4908   */\n      dup2\n        /* \"#utility.yul\":4885:4909   */\n      tag_123\n      jump\t// in\n    tag_217:\n        /* \"#utility.yul\":4878:4883   */\n      dup2\n        /* \"#utility.yul\":4875:4910   */\n      eq\n        /* \"#utility.yul\":4865:4928   */\n      tag_218\n      jumpi\n        /* \"#utility.yul\":4924:4925   */\n      0x00\n        /* \"#utility.yul\":4921:4922   */\n      dup1\n        /* \"#utility.yul\":4914:4926   */\n      revert\n        /* \"#utility.yul\":4865:4928   */\n    tag_218:\n        /* \"#utility.yul\":4812:4934   */\n      pop\n      jump\t// out\n        /* \"#utility.yul\":4940:5079   */\n    tag_126:\n        /* \"#utility.yul\":4986:4991   */\n      0x00\n        /* \"#utility.yul\":5024:5030   */\n      dup2\n        /* \"#utility.yul\":5011:5031   */\n      calldataload\n        /* \"#utility.yul\":5002:5031   */\n      swap1\n      pop\n        /* \"#utility.yul\":5040:5073   */\n      tag_220\n        /* \"#utility.yul\":5067:5072   */\n      dup2\n        /* \"#utility.yul\":5040:5073   */\n      tag_125\n      jump\t// in\n    tag_220:\n        /* \"#utility.yul\":4940:5079   */\n      swap3\n      swap2\n      pop\n      pop\n      jump\t// out\n        /* \"#utility.yul\":5085:5414   */\n    tag_26:\n        /* \"#utility.yul\":5144:5150   */\n      0x00\n        /* \"#utility.yul\":5193:5195   */\n      0x20\n        /* \"#utility.yul\":5181:5190   */\n      dup3\n        /* \"#utility.yul\":5172:5179   */\n      dup5\n        /* \"#utility.yul\":5168:5191   */\n      sub\n        /* \"#utility.yul\":5164:5196   */\n      slt\n        /* \"#utility.yul\":5161:5280   */\n      iszero\n      tag_222\n      jumpi\n        /* \"#utility.yul\":5199:5278   */\n      tag_223\n      tag_110\n      jump\t// in\n    tag_223:\n        /* \"#utility.yul\":5161:5280   */\n    tag_222:\n        /* \"#utility.yul\":5319:5320   */\n      0x00\n        /* \"#utility.yul\":5344:5397   */\n      tag_224\n        /* \"#utility.yul\":5389:5396   */\n      dup5\n        /* \"#utility.yul\":5380:5386   */\n      dup3\n        /* \"#utility.yul\":5369:5378   */\n      dup6\n        /* \"#utility.yul\":5365:5387   */\n      add\n        /* \"#utility.yul\":5344:5397   */\n      tag_126\n      jump\t// in\n    tag_224:\n        /* \"#utility.yul\":5334:5397   */\n      swap2\n      pop\n        /* \"#utility.yul\":5290:5407   */\n      pop\n        /* \"#utility.yul\":5085:5414   */\n      swap3\n      swap2\n      pop\n      pop\n      jump\t// out\n        /* \"#utility.yul\":5420:5510   */\n    tag_127:\n        /* \"#utility.yul\":5454:5461   */\n      0x00\n        /* \"#utility.yul\":5497:5502   */\n      dup2\n        /* \"#utility.yul\":5490:5503   */\n      iszero\n        /* \"#utility.yul\":5483:5504   */\n      iszero\n        /* \"#utility.yul\":5472:5504   */\n      swap1\n      pop\n        /* \"#utility.yul\":5420:5510   */\n      swap2\n      swap1\n      pop\n      jump\t// out\n        /* \"#utility.yul\":5516:5625   */\n    tag_128:\n        /* \"#utility.yul\":5597:5618   */\n      tag_227\n        /* \"#utility.yul\":5612:5617   */\n      dup2\n        /* \"#utility.yul\":5597:5618   */\n      tag_127\n      jump\t// in\n    tag_227:\n        /* \"#utility.yul\":5592:5595   */\n      dup3\n        /* \"#utility.yul\":5585:5619   */\n      mstore\n        /* \"#utility.yul\":5516:5625   */\n      pop\n      pop\n      jump\t// out\n        /* \"#utility.yul\":5631:5841   */\n    tag_29:\n        /* \"#utility.yul\":5718:5722   */\n      0x00\n        /* \"#utility.yul\":5756:5758   */\n      0x20\n        /* \"#utility.yul\":5745:5754   */\n      dup3\n        /* \"#utility.yul\":5741:5759   */\n      add\n        /* \"#utility.yul\":5733:5759   */\n      swap1\n      pop\n        /* \"#utility.yul\":5769:5834   */\n      tag_229\n        /* \"#utility.yul\":5831:5832   */\n      0x00\n        /* \"#utility.yul\":5820:5829   */\n      dup4\n        /* \"#utility.yul\":5816:5833   */\n      add\n        /* \"#utility.yul\":5807:5813   */\n      dup5\n        /* \"#utility.yul\":5769:5834   */\n      tag_128\n      jump\t// in\n    tag_229:\n        /* \"#utility.yul\":5631:5841   */\n      swap3\n      swap2\n      pop\n      pop\n      jump\t// out\n        /* \"#utility.yul\":5847:5965   */\n    tag_129:\n        /* \"#utility.yul\":5934:5958   */\n      tag_231\n        /* \"#utility.yul\":5952:5957   */\n      dup2\n        /* \"#utility.yul\":5934:5958   */\n      tag_113\n      jump\t// in\n    tag_231:\n        /* \"#utility.yul\":5929:5932   */\n      dup3\n        /* \"#utility.yul\":5922:5959   */\n      mstore\n        /* \"#utility.yul\":5847:5965   */\n      pop\n      pop\n      jump\t// out\n        /* \"#utility.yul\":5971:6193   */\n    tag_34:\n        /* \"#utility.yul\":6064:6068   */\n      0x00\n        /* \"#utility.yul\":6102:6104   */\n      0x20\n        /* \"#utility.yul\":6091:6100   */\n      dup3\n        /* \"#utility.yul\":6087:6105   */\n      add\n        /* \"#utility.yul\":6079:6105   */\n      swap1\n      pop\n        /* \"#utility.yul\":6115:6186   */\n      tag_233\n        /* \"#utility.yul\":6183:6184   */\n      0x00\n        /* \"#utility.yul\":6172:6181   */\n      dup4\n        /* \"#utility.yul\":6168:6185   */\n      add\n        /* \"#utility.yul\":6159:6165   */\n      dup5\n        /* \"#utility.yul\":6115:6186   */\n      tag_129\n      jump\t// in\n    tag_233:\n        /* \"#utility.yul\":5971:6193   */\n      swap3\n      swap2\n      pop\n      pop\n      jump\t// out\n        /* \"#utility.yul\":6199:6297   */\n    tag_130:\n        /* \"#utility.yul\":6250:6256   */\n      0x00\n        /* \"#utility.yul\":6284:6289   */\n      dup2\n        /* \"#utility.yul\":6278:6290   */\n      mload\n        /* \"#utility.yul\":6268:6290   */\n      swap1\n      pop\n        /* \"#utility.yul\":6199:6297   */\n      swap2\n      swap1\n      pop\n      jump\t// out\n        /* \"#utility.yul\":6303:6471   */\n    tag_131:\n        /* \"#utility.yul\":6386:6397   */\n      0x00\n        /* \"#utility.yul\":6420:6426   */\n      dup3\n        /* \"#utility.yul\":6415:6418   */\n      dup3\n        /* \"#utility.yul\":6408:6427   */\n      mstore\n        /* \"#utility.yul\":6460:6464   */\n      0x20\n        /* \"#utility.yul\":6455:6458   */\n      dup3\n        /* \"#utility.yul\":6451:6465   */\n      add\n        /* \"#utility.yul\":6436:6465   */\n      swap1\n      pop\n        /* \"#utility.yul\":6303:6471   */\n      swap3\n      swap2\n      pop\n      pop\n      jump\t// out\n        /* \"#utility.yul\":6477:6616   */\n    tag_132:\n        /* \"#utility.yul\":6566:6572   */\n      dup3\n        /* \"#utility.yul\":6561:6564   */\n      dup2\n        /* \"#utility.yul\":6556:6559   */\n      dup4\n        /* \"#utility.yul\":6550:6573   */\n      mcopy\n        /* \"#utility.yul\":6607:6608   */\n      0x00\n        /* \"#utility.yul\":6598:6604   */\n      dup4\n        /* \"#utility.yul\":6593:6596   */\n      dup4\n        /* \"#utility.yul\":6589:6605   */\n      add\n        /* \"#utility.yul\":6582:6609   */\n      mstore\n        /* \"#utility.yul\":6477:6616   */\n      pop\n      pop\n      pop\n      jump\t// out\n        /* \"#utility.yul\":6622:6724   */\n    tag_133:\n        /* \"#utility.yul\":6663:6669   */\n      0x00\n        /* \"#utility.yul\":6714:6716   */\n      0x1f\n        /* \"#utility.yul\":6710:6717   */\n      not\n        /* \"#utility.yul\":6705:6707   */\n      0x1f\n        /* \"#utility.yul\":6698:6703   */\n      dup4\n        /* \"#utility.yul\":6694:6708   */\n      add\n        /* \"#utility.yul\":6690:6718   */\n      and\n        /* \"#utility.yul\":6680:6718   */\n      swap1\n      pop\n        /* \"#utility.yul\":6622:6724   */\n      swap2\n      swap1\n      pop\n      jump\t// out\n        /* \"#utility.yul\":6730:7103   */\n    tag_134:\n        /* \"#utility.yul\":6816:6819   */\n      0x00\n        /* \"#utility.yul\":6844:6882   */\n      tag_239\n        /* \"#utility.yul\":6876:6881   */\n      dup3\n        /* \"#utility.yul\":6844:6882   */\n      tag_130\n      jump\t// in\n    tag_239:\n        /* \"#utility.yul\":6898:6968   */\n      tag_240\n        /* \"#utility.yul\":6961:6967   */\n      dup2\n        /* \"#utility.yul\":6956:6959   */\n      dup6\n        /* \"#utility.yul\":6898:6968   */\n      tag_131\n      jump\t// in\n    tag_240:\n        /* \"#utility.yul\":6891:6968   */\n      swap4\n      pop\n        /* \"#utility.yul\":6977:7042   */\n      tag_241\n        /* \"#utility.yul\":7035:7041   */\n      dup2\n        /* \"#utility.yul\":7030:7033   */\n      dup6\n        /* \"#utility.yul\":7023:7027   */\n      0x20\n        /* \"#utility.yul\":7016:7021   */\n      dup7\n        /* \"#utility.yul\":7012:7028   */\n      add\n        /* \"#utility.yul\":6977:7042   */\n      tag_132\n      jump\t// in\n    tag_241:\n        /* \"#utility.yul\":7067:7096   */\n      tag_242\n        /* \"#utility.yul\":7089:7095   */\n      dup2\n        /* \"#utility.yul\":7067:7096   */\n      tag_133\n      jump\t// in\n    tag_242:\n        /* \"#utility.yul\":7062:7065   */\n      dup5\n        /* \"#utility.yul\":7058:7097   */\n      add\n        /* \"#utility.yul\":7051:7097   */\n      swap2\n      pop\n        /* \"#utility.yul\":6820:7103   */\n      pop\n        /* \"#utility.yul\":6730:7103   */\n      swap3\n      swap2\n      pop\n      pop\n      jump\t// out\n        /* \"#utility.yul\":7109:7418   */\n    tag_43:\n        /* \"#utility.yul\":7220:7224   */\n      0x00\n        /* \"#utility.yul\":7258:7260   */\n      0x20\n        /* \"#utility.yul\":7247:7256   */\n      dup3\n        /* \"#utility.yul\":7243:7261   */\n      add\n        /* \"#utility.yul\":7235:7261   */\n      swap1\n      pop\n        /* \"#utility.yul\":7307:7316   */\n      dup2\n        /* \"#utility.yul\":7301:7305   */\n      dup2\n        /* \"#utility.yul\":7297:7317   */\n      sub\n        /* \"#utility.yul\":7293:7294   */\n      0x00\n        /* \"#utility.yul\":7282:7291   */\n      dup4\n        /* \"#utility.yul\":7278:7295   */\n      add\n        /* \"#utility.yul\":7271:7318   */\n      mstore\n        /* \"#utility.yul\":7335:7411   */\n      tag_244\n        /* \"#utility.yul\":7406:7410   */\n      dup2\n        /* \"#utility.yul\":7397:7403   */\n      dup5\n        /* \"#utility.yul\":7335:7411   */\n      tag_134\n      jump\t// in\n    tag_244:\n        /* \"#utility.yul\":7327:7411   */\n      swap1\n      pop\n        /* \"#utility.yul\":7109:7418   */\n      swap3\n      swap2\n      pop\n      pop\n      jump\t// out\n        /* \"#utility.yul\":7424:7593   */\n    tag_135:\n        /* \"#utility.yul\":7508:7519   */\n      0x00\n        /* \"#utility.yul\":7542:7548   */\n      dup3\n        /* \"#utility.yul\":7537:7540   */\n      dup3\n        /* \"#utility.yul\":7530:7549   */\n      mstore\n        /* \"#utility.yul\":7582:7586   */\n      0x20\n        /* \"#utility.yul\":7577:7580   */\n      dup3\n        /* \"#utility.yul\":7573:7587   */\n      add\n        /* \"#utility.yul\":7558:7587   */\n      swap1\n      pop\n        /* \"#utility.yul\":7424:7593   */\n      swap3\n      swap2\n      pop\n      pop\n      jump\t// out\n        /* \"#utility.yul\":7599:7761   */\n    tag_136:\n        /* \"#utility.yul\":7739:7753   */\n      0x6e6f7420616e206f776e65720000000000000000000000000000000000000000\n        /* \"#utility.yul\":7735:7736   */\n      0x00\n        /* \"#utility.yul\":7727:7733   */\n      dup3\n        /* \"#utility.yul\":7723:7737   */\n      add\n        /* \"#utility.yul\":7716:7754   */\n      mstore\n        /* \"#utility.yul\":7599:7761   */\n      pop\n      jump\t// out\n        /* \"#utility.yul\":7767:8133   */\n    tag_137:\n        /* \"#utility.yul\":7909:7912   */\n      0x00\n        /* \"#utility.yul\":7930:7997   */\n      tag_248\n        /* \"#utility.yul\":7994:7996   */\n      0x0c\n        /* \"#utility.yul\":7989:7992   */\n      dup4\n        /* \"#utility.yul\":7930:7997   */\n      tag_135\n      jump\t// in\n    tag_248:\n        /* \"#utility.yul\":7923:7997   */\n      swap2\n      pop\n        /* \"#utility.yul\":8006:8099   */\n      tag_249\n        /* \"#utility.yul\":8095:8098   */\n      dup3\n        /* \"#utility.yul\":8006:8099   */\n      tag_136\n      jump\t// in\n    tag_249:\n        /* \"#utility.yul\":8124:8126   */\n      0x20\n        /* \"#utility.yul\":8119:8122   */\n      dup3\n        /* \"#utility.yul\":8115:8127   */\n      add\n        /* \"#utility.yul\":8108:8127   */\n      swap1\n      pop\n        /* \"#utility.yul\":7767:8133   */\n      swap2\n      swap1\n      pop\n      jump\t// out\n        /* \"#utility.yul\":8139:8558   */\n    tag_55:\n        /* \"#utility.yul\":8305:8309   */\n      0x00\n        /* \"#utility.yul\":8343:8345   */\n      0x20\n        /* \"#utility.yul\":8332:8341   */\n      dup3\n        /* \"#utility.yul\":8328:8346   */\n      add\n        /* \"#utility.yul\":8320:8346   */\n      swap1\n      pop\n        /* \"#utility.yul\":8392:8401   */\n      dup2\n        /* \"#utility.yul\":8386:8390   */\n      dup2\n        /* \"#utility.yul\":8382:8402   */\n      sub\n        /* \"#utility.yul\":8378:8379   */\n      0x00\n        /* \"#utility.yul\":8367:8376   */\n      dup4\n        /* \"#utility.yul\":8363:8380   */\n      add\n        /* \"#utility.yul\":8356:8403   */\n      mstore\n        /* \"#utility.yul\":8420:8551   */\n      tag_251\n        /* \"#utility.yul\":8546:8550   */\n      dup2\n        /* \"#utility.yul\":8420:8551   */\n      tag_137\n      jump\t// in\n    tag_251:\n        /* \"#utility.yul\":8412:8551   */\n      swap1\n      pop\n        /* \"#utility.yul\":8139:8558   */\n      swap2\n      swap1\n      pop\n      jump\t// out\n        /* \"#utility.yul\":8564:8712   */\n    tag_138:\n        /* \"#utility.yul\":8662:8668   */\n      dup3\n        /* \"#utility.yul\":8657:8660   */\n      dup2\n        /* \"#utility.yul\":8652:8655   */\n      dup4\n        /* \"#utility.yul\":8639:8669   */\n      calldatacopy\n        /* \"#utility.yul\":8703:8704   */\n      0x00\n        /* \"#utility.yul\":8694:8700   */\n      dup4\n        /* \"#utility.yul\":8689:8692   */\n      dup4\n        /* \"#utility.yul\":8685:8701   */\n      add\n        /* \"#utility.yul\":8678:8705   */\n      mstore\n        /* \"#utility.yul\":8564:8712   */\n      pop\n      pop\n      pop\n      jump\t// out\n        /* \"#utility.yul\":8742:9059   */\n    tag_139:\n        /* \"#utility.yul\":8840:8843   */\n      0x00\n        /* \"#utility.yul\":8861:8932   */\n      tag_254\n        /* \"#utility.yul\":8925:8931   */\n      dup4\n        /* \"#utility.yul\":8920:8923   */\n      dup6\n        /* \"#utility.yul\":8861:8932   */\n      tag_135\n      jump\t// in\n    tag_254:\n        /* \"#utility.yul\":8854:8932   */\n      swap4\n      pop\n        /* \"#utility.yul\":8942:8998   */\n      tag_255\n        /* \"#utility.yul\":8991:8997   */\n      dup4\n        /* \"#utility.yul\":8986:8989   */\n      dup6\n        /* \"#utility.yul\":8979:8984   */\n      dup5\n        /* \"#utility.yul\":8942:8998   */\n      tag_138\n      jump\t// in\n    tag_255:\n        /* \"#utility.yul\":9023:9052   */\n      tag_256\n        /* \"#utility.yul\":9045:9051   */\n      dup4\n        /* \"#utility.yul\":9023:9052   */\n      tag_133\n      jump\t// in\n    tag_256:\n        /* \"#utility.yul\":9018:9021   */\n      dup5\n        /* \"#utility.yul\":9014:9053   */\n      add\n        /* \"#utility.yul\":9007:9053   */\n      swap1\n      pop\n        /* \"#utility.yul\":8742:9059   */\n      swap4\n      swap3\n      pop\n      pop\n      pop\n      jump\t// out\n        /* \"#utility.yul\":9087:9401   */\n    tag_140:\n        /* \"#utility.yul\":9183:9186   */\n      0x00\n        /* \"#utility.yul\":9204:9274   */\n      tag_258\n        /* \"#utility.yul\":9267:9273   */\n      dup4\n        /* \"#utility.yul\":9262:9265   */\n      dup6\n        /* \"#utility.yul\":9204:9274   */\n      tag_131\n      jump\t// in\n    tag_258:\n        /* \"#utility.yul\":9197:9274   */\n      swap4\n      pop\n        /* \"#utility.yul\":9284:9340   */\n      tag_259\n        /* \"#utility.yul\":9333:9339   */\n      dup4\n        /* \"#utility.yul\":9328:9331   */\n      dup6\n        /* \"#utility.yul\":9321:9326   */\n      dup5\n        /* \"#utility.yul\":9284:9340   */\n      tag_138\n      jump\t// in\n    tag_259:\n        /* \"#utility.yul\":9365:9394   */\n      tag_260\n        /* \"#utility.yul\":9387:9393   */\n      dup4\n        /* \"#utility.yul\":9365:9394   */\n      tag_133\n      jump\t// in\n    tag_260:\n        /* \"#utility.yul\":9360:9363   */\n      dup5\n        /* \"#utility.yul\":9356:9395   */\n      add\n        /* \"#utility.yul\":9349:9395   */\n      swap1\n      pop\n        /* \"#utility.yul\":9087:9401   */\n      swap4\n      swap3\n      pop\n      pop\n      pop\n      jump\t// out\n        /* \"#utility.yul\":9407:10289   */\n    tag_58:\n        /* \"#utility.yul\":9670:9674   */\n      0x00\n        /* \"#utility.yul\":9708:9711   */\n      0xa0\n        /* \"#utility.yul\":9697:9706   */\n      dup3\n        /* \"#utility.yul\":9693:9712   */\n      add\n        /* \"#utility.yul\":9685:9712   */\n      swap1\n      pop\n        /* \"#utility.yul\":9722:9793   */\n      tag_262\n        /* \"#utility.yul\":9790:9791   */\n      0x00\n        /* \"#utility.yul\":9779:9788   */\n      dup4\n        /* \"#utility.yul\":9775:9792   */\n      add\n        /* \"#utility.yul\":9766:9772   */\n      dup11\n        /* \"#utility.yul\":9722:9793   */\n      tag_129\n      jump\t// in\n    tag_262:\n        /* \"#utility.yul\":9803:9875   */\n      tag_263\n        /* \"#utility.yul\":9871:9873   */\n      0x20\n        /* \"#utility.yul\":9860:9869   */\n      dup4\n        /* \"#utility.yul\":9856:9874   */\n      add\n        /* \"#utility.yul\":9847:9853   */\n      dup10\n        /* \"#utility.yul\":9803:9875   */\n      tag_108\n      jump\t// in\n    tag_263:\n        /* \"#utility.yul\":9922:9931   */\n      dup2\n        /* \"#utility.yul\":9916:9920   */\n      dup2\n        /* \"#utility.yul\":9912:9932   */\n      sub\n        /* \"#utility.yul\":9907:9909   */\n      0x40\n        /* \"#utility.yul\":9896:9905   */\n      dup4\n        /* \"#utility.yul\":9892:9910   */\n      add\n        /* \"#utility.yul\":9885:9933   */\n      mstore\n        /* \"#utility.yul\":9950:10038   */\n      tag_264\n        /* \"#utility.yul\":10033:10037   */\n      dup2\n        /* \"#utility.yul\":10024:10030   */\n      dup8\n        /* \"#utility.yul\":10016:10022   */\n      dup10\n        /* \"#utility.yul\":9950:10038   */\n      tag_139\n      jump\t// in\n    tag_264:\n        /* \"#utility.yul\":9942:10038   */\n      swap1\n      pop\n        /* \"#utility.yul\":10085:10094   */\n      dup2\n        /* \"#utility.yul\":10079:10083   */\n      dup2\n        /* \"#utility.yul\":10075:10095   */\n      sub\n        /* \"#utility.yul\":10070:10072   */\n      0x60\n        /* \"#utility.yul\":10059:10068   */\n      dup4\n        /* \"#utility.yul\":10055:10073   */\n      add\n        /* \"#utility.yul\":10048:10096   */\n      mstore\n        /* \"#utility.yul\":10113:10199   */\n      tag_265\n        /* \"#utility.yul\":10194:10198   */\n      dup2\n        /* \"#utility.yul\":10185:10191   */\n      dup6\n        /* \"#utility.yul\":10177:10183   */\n      dup8\n        /* \"#utility.yul\":10113:10199   */\n      tag_140\n      jump\t// in\n    tag_265:\n        /* \"#utility.yul\":10105:10199   */\n      swap1\n      pop\n        /* \"#utility.yul\":10209:10282   */\n      tag_266\n        /* \"#utility.yul\":10277:10280   */\n      0x80\n        /* \"#utility.yul\":10266:10275   */\n      dup4\n        /* \"#utility.yul\":10262:10281   */\n      add\n        /* \"#utility.yul\":10253:10259   */\n      dup5\n        /* \"#utility.yul\":10209:10282   */\n      tag_108\n      jump\t// in\n    tag_266:\n        /* \"#utility.yul\":9407:10289   */\n      swap9\n      swap8\n      pop\n      pop\n      pop\n      pop\n      pop\n      pop\n      pop\n      pop\n      jump\t// out\n        /* \"#utility.yul\":10295:10459   */\n    tag_141:\n        /* \"#utility.yul\":10435:10451   */\n      0x616c726561647920717565756564000000000000000000000000000000000000\n        /* \"#utility.yul\":10431:10432   */\n      0x00\n        /* \"#utility.yul\":10423:10429   */\n      dup3\n        /* \"#utility.yul\":10419:10433   */\n      add\n        /* \"#utility.yul\":10412:10452   */\n      mstore\n        /* \"#utility.yul\":10295:10459   */\n      pop\n      jump\t// out\n        /* \"#utility.yul\":10465:10831   */\n    tag_142:\n        /* \"#utility.yul\":10607:10610   */\n      0x00\n        /* \"#utility.yul\":10628:10695   */\n      tag_269\n        /* \"#utility.yul\":10692:10694   */\n      0x0e\n        /* \"#utility.yul\":10687:10690   */\n      dup4\n        /* \"#utility.yul\":10628:10695   */\n      tag_135\n      jump\t// in\n    tag_269:\n        /* \"#utility.yul\":10621:10695   */\n      swap2\n      pop\n        /* \"#utility.yul\":10704:10797   */\n      tag_270\n        /* \"#utility.yul\":10793:10796   */\n      dup3\n        /* \"#utility.yul\":10704:10797   */\n      tag_141\n      jump\t// in\n    tag_270:\n        /* \"#utility.yul\":10822:10824   */\n      0x20\n        /* \"#utility.yul\":10817:10820   */\n      dup3\n        /* \"#utility.yul\":10813:10825   */\n      add\n        /* \"#utility.yul\":10806:10825   */\n      swap1\n      pop\n        /* \"#utility.yul\":10465:10831   */\n      swap2\n      swap1\n      pop\n      jump\t// out\n        /* \"#utility.yul\":10837:11256   */\n    tag_61:\n        /* \"#utility.yul\":11003:11007   */\n      0x00\n        /* \"#utility.yul\":11041:11043   */\n      0x20\n        /* \"#utility.yul\":11030:11039   */\n      dup3\n        /* \"#utility.yul\":11026:11044   */\n      add\n        /* \"#utility.yul\":11018:11044   */\n      swap1\n      pop\n        /* \"#utility.yul\":11090:11099   */\n      dup2\n        /* \"#utility.yul\":11084:11088   */\n      dup2\n        /* \"#utility.yul\":11080:11100   */\n      sub\n        /* \"#utility.yul\":11076:11077   */\n      0x00\n        /* \"#utility.yul\":11065:11074   */\n      dup4\n        /* \"#utility.yul\":11061:11078   */\n      add\n        /* \"#utility.yul\":11054:11101   */\n      mstore\n        /* \"#utility.yul\":11118:11249   */\n      tag_272\n        /* \"#utility.yul\":11244:11248   */\n      dup2\n        /* \"#utility.yul\":11118:11249   */\n      tag_142\n      jump\t// in\n    tag_272:\n        /* \"#utility.yul\":11110:11249   */\n      swap1\n      pop\n        /* \"#utility.yul\":10837:11256   */\n      swap2\n      swap1\n      pop\n      jump\t// out\n        /* \"#utility.yul\":11262:11442   */\n    tag_143:\n        /* \"#utility.yul\":11310:11387   */\n      0x4e487b7100000000000000000000000000000000000000000000000000000000\n        /* \"#utility.yul\":11307:11308   */\n      0x00\n        /* \"#utility.yul\":11300:11388   */\n      mstore\n        /* \"#utility.yul\":11407:11411   */\n      0x11\n        /* \"#utility.yul\":11404:11405   */\n      0x04\n        /* \"#utility.yul\":11397:11412   */\n      mstore\n        /* \"#utility.yul\":11431:11435   */\n      0x24\n        /* \"#utility.yul\":11428:11429   */\n      0x00\n        /* \"#utility.yul\":11421:11436   */\n      revert\n        /* \"#utility.yul\":11448:11639   */\n    tag_63:\n        /* \"#utility.yul\":11488:11491   */\n      0x00\n        /* \"#utility.yul\":11507:11527   */\n      tag_275\n        /* \"#utility.yul\":11525:11526   */\n      dup3\n        /* \"#utility.yul\":11507:11527   */\n      tag_107\n      jump\t// in\n    tag_275:\n        /* \"#utility.yul\":11502:11527   */\n      swap2\n      pop\n        /* \"#utility.yul\":11541:11561   */\n      tag_276\n        /* \"#utility.yul\":11559:11560   */\n      dup4\n        /* \"#utility.yul\":11541:11561   */\n      tag_107\n      jump\t// in\n    tag_276:\n        /* \"#utility.yul\":11536:11561   */\n      swap3\n      pop\n        /* \"#utility.yul\":11584:11585   */\n      dup3\n        /* \"#utility.yul\":11581:11582   */\n      dup3\n        /* \"#utility.yul\":11577:11586   */\n      add\n        /* \"#utility.yul\":11570:11586   */\n      swap1\n      pop\n        /* \"#utility.yul\":11605:11608   */\n      dup1\n        /* \"#utility.yul\":11602:11603   */\n      dup3\n        /* \"#utility.yul\":11599:11609   */\n      gt\n        /* \"#utility.yul\":11596:11632   */\n      iszero\n      tag_277\n      jumpi\n        /* \"#utility.yul\":11612:11630   */\n      tag_278\n      tag_143\n      jump\t// in\n    tag_278:\n        /* \"#utility.yul\":11596:11632   */\n    tag_277:\n        /* \"#utility.yul\":11448:11639   */\n      swap3\n      swap2\n      pop\n      pop\n      jump\t// out\n        /* \"#utility.yul\":11645:11812   */\n    tag_144:\n        /* \"#utility.yul\":11785:11804   */\n      0x696e76616c69642074696d657374616d70000000000000000000000000000000\n        /* \"#utility.yul\":11781:11782   */\n      0x00\n        /* \"#utility.yul\":11773:11779   */\n      dup3\n        /* \"#utility.yul\":11769:11783   */\n      add\n        /* \"#utility.yul\":11762:11805   */\n      mstore\n        /* \"#utility.yul\":11645:11812   */\n      pop\n      jump\t// out\n        /* \"#utility.yul\":11818:12184   */\n    tag_145:\n        /* \"#utility.yul\":11960:11963   */\n      0x00\n        /* \"#utility.yul\":11981:12048   */\n      tag_281\n        /* \"#utility.yul\":12045:12047   */\n      0x11\n        /* \"#utility.yul\":12040:12043   */\n      dup4\n        /* \"#utility.yul\":11981:12048   */\n      tag_135\n      jump\t// in\n    tag_281:\n        /* \"#utility.yul\":11974:12048   */\n      swap2\n      pop\n        /* \"#utility.yul\":12057:12150   */\n      tag_282\n        /* \"#utility.yul\":12146:12149   */\n      dup3\n        /* \"#utility.yul\":12057:12150   */\n      tag_144\n      jump\t// in\n    tag_282:\n        /* \"#utility.yul\":12175:12177   */\n      0x20\n        /* \"#utility.yul\":12170:12173   */\n      dup3\n        /* \"#utility.yul\":12166:12178   */\n      add\n        /* \"#utility.yul\":12159:12178   */\n      swap1\n      pop\n        /* \"#utility.yul\":11818:12184   */\n      swap2\n      swap1\n      pop\n      jump\t// out\n        /* \"#utility.yul\":12190:12609   */\n    tag_68:\n        /* \"#utility.yul\":12356:12360   */\n      0x00\n        /* \"#utility.yul\":12394:12396   */\n      0x20\n        /* \"#utility.yul\":12383:12392   */\n      dup3\n        /* \"#utility.yul\":12379:12397   */\n      add\n        /* \"#utility.yul\":12371:12397   */\n      swap1\n      pop\n        /* \"#utility.yul\":12443:12452   */\n      dup2\n        /* \"#utility.yul\":12437:12441   */\n      dup2\n        /* \"#utility.yul\":12433:12453   */\n      sub\n        /* \"#utility.yul\":12429:12430   */\n      0x00\n        /* \"#utility.yul\":12418:12427   */\n      dup4\n        /* \"#utility.yul\":12414:12431   */\n      add\n        /* \"#utility.yul\":12407:12454   */\n      mstore\n        /* \"#utility.yul\":12471:12602   */\n      tag_284\n        /* \"#utility.yul\":12597:12601   */\n      dup2\n        /* \"#utility.yul\":12471:12602   */\n      tag_145\n      jump\t// in\n    tag_284:\n        /* \"#utility.yul\":12463:12602   */\n      swap1\n      pop\n        /* \"#utility.yul\":12190:12609   */\n      swap2\n      swap1\n      pop\n      jump\t// out\n        /* \"#utility.yul\":12615:13386   */\n    tag_70:\n        /* \"#utility.yul\":12850:12854   */\n      0x00\n        /* \"#utility.yul\":12888:12891   */\n      0x80\n        /* \"#utility.yul\":12877:12886   */\n      dup3\n        /* \"#utility.yul\":12873:12892   */\n      add\n        /* \"#utility.yul\":12865:12892   */\n      swap1\n      pop\n        /* \"#utility.yul\":12902:12973   */\n      tag_286\n        /* \"#utility.yul\":12970:12971   */\n      0x00\n        /* \"#utility.yul\":12959:12968   */\n      dup4\n        /* \"#utility.yul\":12955:12972   */\n      add\n        /* \"#utility.yul\":12946:12952   */\n      dup10\n        /* \"#utility.yul\":12902:12973   */\n      tag_108\n      jump\t// in\n    tag_286:\n        /* \"#utility.yul\":13020:13029   */\n      dup2\n        /* \"#utility.yul\":13014:13018   */\n      dup2\n        /* \"#utility.yul\":13010:13030   */\n      sub\n        /* \"#utility.yul\":13005:13007   */\n      0x20\n        /* \"#utility.yul\":12994:13003   */\n      dup4\n        /* \"#utility.yul\":12990:13008   */\n      add\n        /* \"#utility.yul\":12983:13031   */\n      mstore\n        /* \"#utility.yul\":13048:13136   */\n      tag_287\n        /* \"#utility.yul\":13131:13135   */\n      dup2\n        /* \"#utility.yul\":13122:13128   */\n      dup8\n        /* \"#utility.yul\":13114:13120   */\n      dup10\n        /* \"#utility.yul\":13048:13136   */\n      tag_139\n      jump\t// in\n    tag_287:\n        /* \"#utility.yul\":13040:13136   */\n      swap1\n      pop\n        /* \"#utility.yul\":13183:13192   */\n      dup2\n        /* \"#utility.yul\":13177:13181   */\n      dup2\n        /* \"#utility.yul\":13173:13193   */\n      sub\n        /* \"#utility.yul\":13168:13170   */\n      0x40\n        /* \"#utility.yul\":13157:13166   */\n      dup4\n        /* \"#utility.yul\":13153:13171   */\n      add\n        /* \"#utility.yul\":13146:13194   */\n      mstore\n        /* \"#utility.yul\":13211:13297   */\n      tag_288\n        /* \"#utility.yul\":13292:13296   */\n      dup2\n        /* \"#utility.yul\":13283:13289   */\n      dup6\n        /* \"#utility.yul\":13275:13281   */\n      dup8\n        /* \"#utility.yul\":13211:13297   */\n      tag_140\n      jump\t// in\n    tag_288:\n        /* \"#utility.yul\":13203:13297   */\n      swap1\n      pop\n        /* \"#utility.yul\":13307:13379   */\n      tag_289\n        /* \"#utility.yul\":13375:13377   */\n      0x60\n        /* \"#utility.yul\":13364:13373   */\n      dup4\n        /* \"#utility.yul\":13360:13378   */\n      add\n        /* \"#utility.yul\":13351:13357   */\n      dup5\n        /* \"#utility.yul\":13307:13379   */\n      tag_108\n      jump\t// in\n    tag_289:\n        /* \"#utility.yul\":12615:13386   */\n      swap8\n      swap7\n      pop\n      pop\n      pop\n      pop\n      pop\n      pop\n      pop\n      jump\t// out\n        /* \"#utility.yul\":13392:13553   */\n    tag_146:\n        /* \"#utility.yul\":13532:13545   */\n      0x6e6f742071756575656421000000000000000000000000000000000000000000\n        /* \"#utility.yul\":13528:13529   */\n      0x00\n        /* \"#utility.yul\":13520:13526   */\n      dup3\n        /* \"#utility.yul\":13516:13530   */\n      add\n        /* \"#utility.yul\":13509:13546   */\n      mstore\n        /* \"#utility.yul\":13392:13553   */\n      pop\n      jump\t// out\n        /* \"#utility.yul\":13559:13925   */\n    tag_147:\n        /* \"#utility.yul\":13701:13704   */\n      0x00\n        /* \"#utility.yul\":13722:13789   */\n      tag_292\n        /* \"#utility.yul\":13786:13788   */\n      0x0b\n        /* \"#utility.yul\":13781:13784   */\n      dup4\n        /* \"#utility.yul\":13722:13789   */\n      tag_135\n      jump\t// in\n    tag_292:\n        /* \"#utility.yul\":13715:13789   */\n      swap2\n      pop\n        /* \"#utility.yul\":13798:13891   */\n      tag_293\n        /* \"#utility.yul\":13887:13890   */\n      dup3\n        /* \"#utility.yul\":13798:13891   */\n      tag_146\n      jump\t// in\n    tag_293:\n        /* \"#utility.yul\":13916:13918   */\n      0x20\n        /* \"#utility.yul\":13911:13914   */\n      dup3\n        /* \"#utility.yul\":13907:13919   */\n      add\n        /* \"#utility.yul\":13900:13919   */\n      swap1\n      pop\n        /* \"#utility.yul\":13559:13925   */\n      swap2\n      swap1\n      pop\n      jump\t// out\n        /* \"#utility.yul\":13931:14350   */\n    tag_78:\n        /* \"#utility.yul\":14097:14101   */\n      0x00\n        /* \"#utility.yul\":14135:14137   */\n      0x20\n        /* \"#utility.yul\":14124:14133   */\n      dup3\n        /* \"#utility.yul\":14120:14138   */\n      add\n        /* \"#utility.yul\":14112:14138   */\n      swap1\n      pop\n        /* \"#utility.yul\":14184:14193   */\n      dup2\n        /* \"#utility.yul\":14178:14182   */\n      dup2\n        /* \"#utility.yul\":14174:14194   */\n      sub\n        /* \"#utility.yul\":14170:14171   */\n      0x00\n        /* \"#utility.yul\":14159:14168   */\n      dup4\n        /* \"#utility.yul\":14155:14172   */\n      add\n        /* \"#utility.yul\":14148:14195   */\n      mstore\n        /* \"#utility.yul\":14212:14343   */\n      tag_295\n        /* \"#utility.yul\":14338:14342   */\n      dup2\n        /* \"#utility.yul\":14212:14343   */\n      tag_147\n      jump\t// in\n    tag_295:\n        /* \"#utility.yul\":14204:14343   */\n      swap1\n      pop\n        /* \"#utility.yul\":13931:14350   */\n      swap2\n      swap1\n      pop\n      jump\t// out\n        /* \"#utility.yul\":14356:14516   */\n    tag_148:\n        /* \"#utility.yul\":14496:14508   */\n      0x746f6f206561726c792100000000000000000000000000000000000000000000\n        /* \"#utility.yul\":14492:14493   */\n      0x00\n        /* \"#utility.yul\":14484:14490   */\n      dup3\n        /* \"#utility.yul\":14480:14494   */\n      add\n        /* \"#utility.yul\":14473:14509   */\n      mstore\n        /* \"#utility.yul\":14356:14516   */\n      pop\n      jump\t// out\n        /* \"#utility.yul\":14522:14888   */\n    tag_149:\n        /* \"#utility.yul\":14664:14667   */\n      0x00\n        /* \"#utility.yul\":14685:14752   */\n      tag_298\n        /* \"#utility.yul\":14749:14751   */\n      0x0a\n        /* \"#utility.yul\":14744:14747   */\n      dup4\n        /* \"#utility.yul\":14685:14752   */\n      tag_135\n      jump\t// in\n    tag_298:\n        /* \"#utility.yul\":14678:14752   */\n      swap2\n      pop\n        /* \"#utility.yul\":14761:14854   */\n      tag_299\n        /* \"#utility.yul\":14850:14853   */\n      dup3\n        /* \"#utility.yul\":14761:14854   */\n      tag_148\n      jump\t// in\n    tag_299:\n        /* \"#utility.yul\":14879:14881   */\n      0x20\n        /* \"#utility.yul\":14874:14877   */\n      dup3\n        /* \"#utility.yul\":14870:14882   */\n      add\n        /* \"#utility.yul\":14863:14882   */\n      swap1\n      pop\n        /* \"#utility.yul\":14522:14888   */\n      swap2\n      swap1\n      pop\n      jump\t// out\n        /* \"#utility.yul\":14894:15313   */\n    tag_81:\n        /* \"#utility.yul\":15060:15064   */\n      0x00\n        /* \"#utility.yul\":15098:15100   */\n      0x20\n        /* \"#utility.yul\":15087:15096   */\n      dup3\n        /* \"#utility.yul\":15083:15101   */\n      add\n        /* \"#utility.yul\":15075:15101   */\n      swap1\n      pop\n        /* \"#utility.yul\":15147:15156   */\n      dup2\n        /* \"#utility.yul\":15141:15145   */\n      dup2\n        /* \"#utility.yul\":15137:15157   */\n      sub\n        /* \"#utility.yul\":15133:15134   */\n      0x00\n        /* \"#utility.yul\":15122:15131   */\n      dup4\n        /* \"#utility.yul\":15118:15135   */\n      add\n        /* \"#utility.yul\":15111:15158   */\n      mstore\n        /* \"#utility.yul\":15175:15306   */\n      tag_301\n        /* \"#utility.yul\":15301:15305   */\n      dup2\n        /* \"#utility.yul\":15175:15306   */\n      tag_149\n      jump\t// in\n    tag_301:\n        /* \"#utility.yul\":15167:15306   */\n      swap1\n      pop\n        /* \"#utility.yul\":14894:15313   */\n      swap2\n      swap1\n      pop\n      jump\t// out\n        /* \"#utility.yul\":15319:15478   */\n    tag_150:\n        /* \"#utility.yul\":15459:15470   */\n      0x746f6f206c617465210000000000000000000000000000000000000000000000\n        /* \"#utility.yul\":15455:15456   */\n      0x00\n        /* \"#utility.yul\":15447:15453   */\n      dup3\n        /* \"#utility.yul\":15443:15457   */\n      add\n        /* \"#utility.yul\":15436:15471   */\n      mstore\n        /* \"#utility.yul\":15319:15478   */\n      pop\n      jump\t// out\n        /* \"#utility.yul\":15484:15849   */\n    tag_151:\n        /* \"#utility.yul\":15626:15629   */\n      0x00\n        /* \"#utility.yul\":15647:15713   */\n      tag_304\n        /* \"#utility.yul\":15711:15712   */\n      0x09\n        /* \"#utility.yul\":15706:15709   */\n      dup4\n        /* \"#utility.yul\":15647:15713   */\n      tag_135\n      jump\t// in\n    tag_304:\n        /* \"#utility.yul\":15640:15713   */\n      swap2\n      pop\n        /* \"#utility.yul\":15722:15815   */\n      tag_305\n        /* \"#utility.yul\":15811:15814   */\n      dup3\n        /* \"#utility.yul\":15722:15815   */\n      tag_150\n      jump\t// in\n    tag_305:\n        /* \"#utility.yul\":15840:15842   */\n      0x20\n        /* \"#utility.yul\":15835:15838   */\n      dup3\n        /* \"#utility.yul\":15831:15843   */\n      add\n        /* \"#utility.yul\":15824:15843   */\n      swap1\n      pop\n        /* \"#utility.yul\":15484:15849   */\n      swap2\n      swap1\n      pop\n      jump\t// out\n        /* \"#utility.yul\":15855:16274   */\n    tag_85:\n        /* \"#utility.yul\":16021:16025   */\n      0x00\n        /* \"#utility.yul\":16059:16061   */\n      0x20\n        /* \"#utility.yul\":16048:16057   */\n      dup3\n        /* \"#utility.yul\":16044:16062   */\n      add\n        /* \"#utility.yul\":16036:16062   */\n      swap1\n      pop\n        /* \"#utility.yul\":16108:16117   */\n      dup2\n        /* \"#utility.yul\":16102:16106   */\n      dup2\n        /* \"#utility.yul\":16098:16118   */\n      sub\n        /* \"#utility.yul\":16094:16095   */\n      0x00\n        /* \"#utility.yul\":16083:16092   */\n      dup4\n        /* \"#utility.yul\":16079:16096   */\n      add\n        /* \"#utility.yul\":16072:16119   */\n      mstore\n        /* \"#utility.yul\":16136:16267   */\n      tag_307\n        /* \"#utility.yul\":16262:16266   */\n      dup2\n        /* \"#utility.yul\":16136:16267   */\n      tag_151\n      jump\t// in\n    tag_307:\n        /* \"#utility.yul\":16128:16267   */\n      swap1\n      pop\n        /* \"#utility.yul\":15855:16274   */\n      swap2\n      swap1\n      pop\n      jump\t// out\n        /* \"#utility.yul\":16280:16427   */\n    tag_152:\n        /* \"#utility.yul\":16381:16392   */\n      0x00\n        /* \"#utility.yul\":16418:16421   */\n      dup2\n        /* \"#utility.yul\":16403:16421   */\n      swap1\n      pop\n        /* \"#utility.yul\":16280:16427   */\n      swap3\n      swap2\n      pop\n      pop\n      jump\t// out\n        /* \"#utility.yul\":16455:16782   */\n    tag_153:\n        /* \"#utility.yul\":16569:16572   */\n      0x00\n        /* \"#utility.yul\":16590:16678   */\n      tag_310\n        /* \"#utility.yul\":16671:16677   */\n      dup4\n        /* \"#utility.yul\":16666:16669   */\n      dup6\n        /* \"#utility.yul\":16590:16678   */\n      tag_152\n      jump\t// in\n    tag_310:\n        /* \"#utility.yul\":16583:16678   */\n      swap4\n      pop\n        /* \"#utility.yul\":16688:16744   */\n      tag_311\n        /* \"#utility.yul\":16737:16743   */\n      dup4\n        /* \"#utility.yul\":16732:16735   */\n      dup6\n        /* \"#utility.yul\":16725:16730   */\n      dup5\n        /* \"#utility.yul\":16688:16744   */\n      tag_138\n      jump\t// in\n    tag_311:\n        /* \"#utility.yul\":16769:16775   */\n      dup3\n        /* \"#utility.yul\":16764:16767   */\n      dup5\n        /* \"#utility.yul\":16760:16776   */\n      add\n        /* \"#utility.yul\":16753:16776   */\n      swap1\n      pop\n        /* \"#utility.yul\":16455:16782   */\n      swap4\n      swap3\n      pop\n      pop\n      pop\n      jump\t// out\n        /* \"#utility.yul\":16788:17079   */\n    tag_88:\n        /* \"#utility.yul\":16928:16931   */\n      0x00\n        /* \"#utility.yul\":16950:17053   */\n      tag_313\n        /* \"#utility.yul\":17049:17052   */\n      dup3\n        /* \"#utility.yul\":17040:17046   */\n      dup5\n        /* \"#utility.yul\":17032:17038   */\n      dup7\n        /* \"#utility.yul\":16950:17053   */\n      tag_153\n      jump\t// in\n    tag_313:\n        /* \"#utility.yul\":16943:17053   */\n      swap2\n      pop\n        /* \"#utility.yul\":17070:17073   */\n      dup2\n        /* \"#utility.yul\":17063:17073   */\n      swap1\n      pop\n        /* \"#utility.yul\":16788:17079   */\n      swap4\n      swap3\n      pop\n      pop\n      pop\n      jump\t// out\n        /* \"#utility.yul\":17085:17234   */\n    tag_154:\n        /* \"#utility.yul\":17121:17128   */\n      0x00\n        /* \"#utility.yul\":17161:17227   */\n      0xffffffff00000000000000000000000000000000000000000000000000000000\n        /* \"#utility.yul\":17154:17159   */\n      dup3\n        /* \"#utility.yul\":17150:17228   */\n      and\n        /* \"#utility.yul\":17139:17228   */\n      swap1\n      pop\n        /* \"#utility.yul\":17085:17234   */\n      swap2\n      swap1\n      pop\n      jump\t// out\n        /* \"#utility.yul\":17240:17318   */\n    tag_155:\n        /* \"#utility.yul\":17278:17285   */\n      0x00\n        /* \"#utility.yul\":17307:17312   */\n      dup2\n        /* \"#utility.yul\":17296:17312   */\n      swap1\n      pop\n        /* \"#utility.yul\":17240:17318   */\n      swap2\n      swap1\n      pop\n      jump\t// out\n        /* \"#utility.yul\":17324:17477   */\n    tag_156:\n        /* \"#utility.yul\":17427:17470   */\n      tag_317\n        /* \"#utility.yul\":17446:17469   */\n      tag_318\n        /* \"#utility.yul\":17463:17468   */\n      dup3\n        /* \"#utility.yul\":17446:17469   */\n      tag_154\n      jump\t// in\n    tag_318:\n        /* \"#utility.yul\":17427:17470   */\n      tag_155\n      jump\t// in\n    tag_317:\n        /* \"#utility.yul\":17422:17425   */\n      dup3\n        /* \"#utility.yul\":17415:17471   */\n      mstore\n        /* \"#utility.yul\":17324:17477   */\n      pop\n      pop\n      jump\t// out\n        /* \"#utility.yul\":17483:17910   */\n    tag_90:\n        /* \"#utility.yul\":17649:17652   */\n      0x00\n        /* \"#utility.yul\":17664:17737   */\n      tag_320\n        /* \"#utility.yul\":17733:17736   */\n      dup3\n        /* \"#utility.yul\":17724:17730   */\n      dup7\n        /* \"#utility.yul\":17664:17737   */\n      tag_156\n      jump\t// in\n    tag_320:\n        /* \"#utility.yul\":17762:17763   */\n      0x04\n        /* \"#utility.yul\":17757:17760   */\n      dup3\n        /* \"#utility.yul\":17753:17764   */\n      add\n        /* \"#utility.yul\":17746:17764   */\n      swap2\n      pop\n        /* \"#utility.yul\":17781:17884   */\n      tag_321\n        /* \"#utility.yul\":17880:17883   */\n      dup3\n        /* \"#utility.yul\":17871:17877   */\n      dup5\n        /* \"#utility.yul\":17863:17869   */\n      dup7\n        /* \"#utility.yul\":17781:17884   */\n      tag_153\n      jump\t// in\n    tag_321:\n        /* \"#utility.yul\":17774:17884   */\n      swap2\n      pop\n        /* \"#utility.yul\":17901:17904   */\n      dup2\n        /* \"#utility.yul\":17894:17904   */\n      swap1\n      pop\n        /* \"#utility.yul\":17483:17910   */\n      swap5\n      swap4\n      pop\n      pop\n      pop\n      pop\n      jump\t// out\n        /* \"#utility.yul\":17916:18302   */\n    tag_157:\n        /* \"#utility.yul\":18020:18023   */\n      0x00\n        /* \"#utility.yul\":18048:18086   */\n      tag_323\n        /* \"#utility.yul\":18080:18085   */\n      dup3\n        /* \"#utility.yul\":18048:18086   */\n      tag_130\n      jump\t// in\n    tag_323:\n        /* \"#utility.yul\":18102:18190   */\n      tag_324\n        /* \"#utility.yul\":18183:18189   */\n      dup2\n        /* \"#utility.yul\":18178:18181   */\n      dup6\n        /* \"#utility.yul\":18102:18190   */\n      tag_152\n      jump\t// in\n    tag_324:\n        /* \"#utility.yul\":18095:18190   */\n      swap4\n      pop\n        /* \"#utility.yul\":18199:18264   */\n      tag_325\n        /* \"#utility.yul\":18257:18263   */\n      dup2\n        /* \"#utility.yul\":18252:18255   */\n      dup6\n        /* \"#utility.yul\":18245:18249   */\n      0x20\n        /* \"#utility.yul\":18238:18243   */\n      dup7\n        /* \"#utility.yul\":18234:18250   */\n      add\n        /* \"#utility.yul\":18199:18264   */\n      tag_132\n      jump\t// in\n    tag_325:\n        /* \"#utility.yul\":18289:18295   */\n      dup1\n        /* \"#utility.yul\":18284:18287   */\n      dup5\n        /* \"#utility.yul\":18280:18296   */\n      add\n        /* \"#utility.yul\":18273:18296   */\n      swap2\n      pop\n        /* \"#utility.yul\":18024:18302   */\n      pop\n        /* \"#utility.yul\":17916:18302   */\n      swap3\n      swap2\n      pop\n      pop\n      jump\t// out\n        /* \"#utility.yul\":18308:18579   */\n    tag_93:\n        /* \"#utility.yul\":18438:18441   */\n      0x00\n        /* \"#utility.yul\":18460:18553   */\n      tag_327\n        /* \"#utility.yul\":18549:18552   */\n      dup3\n        /* \"#utility.yul\":18540:18546   */\n      dup5\n        /* \"#utility.yul\":18460:18553   */\n      tag_157\n      jump\t// in\n    tag_327:\n        /* \"#utility.yul\":18453:18553   */\n      swap2\n      pop\n        /* \"#utility.yul\":18570:18573   */\n      dup2\n        /* \"#utility.yul\":18563:18573   */\n      swap1\n      pop\n        /* \"#utility.yul\":18308:18579   */\n      swap3\n      swap2\n      pop\n      pop\n      jump\t// out\n        /* \"#utility.yul\":18585:18745   */\n    tag_158:\n        /* \"#utility.yul\":18725:18737   */\n      0x7478206661696c65642100000000000000000000000000000000000000000000\n        /* \"#utility.yul\":18721:18722   */\n      0x00\n        /* \"#utility.yul\":18713:18719   */\n      dup3\n        /* \"#utility.yul\":18709:18723   */\n      add\n        /* \"#utility.yul\":18702:18738   */\n      mstore\n        /* \"#utility.yul\":18585:18745   */\n      pop\n      jump\t// out\n        /* \"#utility.yul\":18751:19117   */\n    tag_159:\n        /* \"#utility.yul\":18893:18896   */\n      0x00\n        /* \"#utility.yul\":18914:18981   */\n      tag_330\n        /* \"#utility.yul\":18978:18980   */\n      0x0a\n        /* \"#utility.yul\":18973:18976   */\n      dup4\n        /* \"#utility.yul\":18914:18981   */\n      tag_135\n      jump\t// in\n    tag_330:\n        /* \"#utility.yul\":18907:18981   */\n      swap2\n      pop\n        /* \"#utility.yul\":18990:19083   */\n      tag_331\n        /* \"#utility.yul\":19079:19082   */\n      dup3\n        /* \"#utility.yul\":18990:19083   */\n      tag_158\n      jump\t// in\n    tag_331:\n        /* \"#utility.yul\":19108:19110   */\n      0x20\n        /* \"#utility.yul\":19103:19106   */\n      dup3\n        /* \"#utility.yul\":19099:19111   */\n      add\n        /* \"#utility.yul\":19092:19111   */\n      swap1\n      pop\n        /* \"#utility.yul\":18751:19117   */\n      swap2\n      swap1\n      pop\n      jump\t// out\n        /* \"#utility.yul\":19123:19542   */\n    tag_99:\n        /* \"#utility.yul\":19289:19293   */\n      0x00\n        /* \"#utility.yul\":19327:19329   */\n      0x20\n        /* \"#utility.yul\":19316:19325   */\n      dup3\n        /* \"#utility.yul\":19312:19330   */\n      add\n        /* \"#utility.yul\":19304:19330   */\n      swap1\n      pop\n        /* \"#utility.yul\":19376:19385   */\n      dup2\n        /* \"#utility.yul\":19370:19374   */\n      dup2\n        /* \"#utility.yul\":19366:19386   */\n      sub\n        /* \"#utility.yul\":19362:19363   */\n      0x00\n        /* \"#utility.yul\":19351:19360   */\n      dup4\n        /* \"#utility.yul\":19347:19364   */\n      add\n        /* \"#utility.yul\":19340:19387   */\n      mstore\n        /* \"#utility.yul\":19404:19535   */\n      tag_333\n        /* \"#utility.yul\":19530:19534   */\n      dup2\n        /* \"#utility.yul\":19404:19535   */\n      tag_159\n      jump\t// in\n    tag_333:\n        /* \"#utility.yul\":19396:19535   */\n      swap1\n      pop\n        /* \"#utility.yul\":19123:19542   */\n      swap2\n      swap1\n      pop\n      jump\t// out\n\n    auxdata: 0xa264697066735822122036e6773c159b316e0e776f00ad4f491c48af4d2239ed004b313c4286255fbc7364736f6c634300081a0033\n}\n",
				"bytecode": {
					"linkReferences": {},
					"object": "6080604052348015600e575f80fd5b50335f806101000a81548173ffffffffffffffffffffffffffffffffffffffff021916908373ffffffffffffffffffffffffffffffffffffffff1602179055506112268061005b5f395ff3fe60806040526004361061007a575f3560e01c80639f81aed71161004d5780639f81aed71461014a578063b0f8b14214610174578063c4d252f5146101a4578063d783847c146101cc5761007a565b80634125ff901461007e5780634b9915a5146100a8578063530534df146100e45780638da5cb5b14610120575b5f80fd5b348015610089575f80fd5b506100926101f6565b60405161009f9190610907565b60405180910390f35b3480156100b3575f80fd5b506100ce60048036038101906100c99190610a62565b6101fb565b6040516100db9190610b31565b60405180910390f35b3480156100ef575f80fd5b5061010a60048036038101906101059190610b74565b610415565b6040516101179190610bb9565b60405180910390f35b34801561012b575f80fd5b50610134610432565b6040516101419190610be1565b60405180910390f35b348015610155575f80fd5b5061015e610455565b60405161016b9190610907565b60405180910390f35b61018e60048036038101906101899190610a62565b61045a565b60405161019b9190610c6a565b60405180910390f35b3480156101af575f80fd5b506101ca60048036038101906101c59190610b74565b6107dc565b005b3480156101d7575f80fd5b506101e06108e9565b6040516101ed9190610907565b60405180910390f35b606481565b5f805f9054906101000a900473ffffffffffffffffffffffffffffffffffffffff1673ffffffffffffffffffffffffffffffffffffffff163373ffffffffffffffffffffffffffffffffffffffff161461028a576040517f08c379a000000000000000000000000000000000000000000000000000000000815260040161028190610ce4565b60405180910390fd5b5f888888888888886040516020016102a89796959493929190610d68565b60405160208183030381529060405280519060200120905060015f8281526020019081526020015f205f9054906101000a900460ff161561031e576040517f08c379a000000000000000000000000000000000000000000000000000000000815260040161031590610e15565b60405180910390fd5b600a4261032b9190610e60565b831015801561034657506064426103429190610e60565b8311155b610385576040517f08c379a000000000000000000000000000000000000000000000000000000000815260040161037c90610edd565b60405180910390fd5b6001805f8381526020019081526020015f205f6101000a81548160ff0219169083151502179055508873ffffffffffffffffffffffffffffffffffffffff16817fe6078611738a572e481d24f65dac585d324038a1b65b3ac7e16ad2975278a86b8a8a8a8a8a8a6040516103fe96959493929190610efb565b60405180910390a380915050979650505050505050565b6001602052805f5260405f205f915054906101000a900460ff1681565b5f8054906101000a900473ffffffffffffffffffffffffffffffffffffffff1681565b600a81565b60605f8054906101000a900473ffffffffffffffffffffffffffffffffffffffff1673ffffffffffffffffffffffffffffffffffffffff163373ffffffffffffffffffffffffffffffffffffffff16146104e9576040517f08c379a00000000000000000000000000000000000000000000000000000000081526004016104e090610ce4565b60405180910390fd5b5f888888888888886040516020016105079796959493929190610d68565b60405160208183030381529060405280519060200120905060015f8281526020019081526020015f205f9054906101000a900460ff1661057c576040517f08c379a000000000000000000000000000000000000000000000000000000000815260040161057390610f9a565b60405180910390fd5b824210156105bf576040517f08c379a00000000000000000000000000000000000000000000000000000000081526004016105b690611002565b60405180910390fd5b6103e8836105cd9190610e60565b42111561060f576040517f08c379a00000000000000000000000000000000000000000000000000000000081526004016106069061106a565b60405180910390fd5b60015f8281526020019081526020015f205f6101000a81549060ff021916905560605f88889050111561067e57878760405161064c9291906110b6565b6040518091039020868660405160200161066893929190611119565b60405160208183030381529060405290506106c5565b85858080601f0160208091040260200160405190810160405280939291908181526020018383808284375f81840152601f19601f8201169050808301925050505050505090505b5f808b73ffffffffffffffffffffffffffffffffffffffff168b846040516106ed9190611172565b5f6040518083038185875af1925050503d805f8114610727576040519150601f19603f3d011682016040523d82523d5f602084013e61072c565b606091505b509150915081610771576040517f08c379a0000000000000000000000000000000000000000000000000000000008152600401610768906111d2565b60405180910390fd5b8b73ffffffffffffffffffffffffffffffffffffffff16847f4d89696b1438d0f9c59a98b32692918d0505bb64c719b1f94f306b6333d7c77b8d8d8d8d8d8d6040516107c296959493929190610efb565b60405180910390a380945050505050979650505050505050565b5f8054906101000a900473ffffffffffffffffffffffffffffffffffffffff1673ffffffffffffffffffffffffffffffffffffffff163373ffffffffffffffffffffffffffffffffffffffff1614610869576040517f08c379a000000000000000000000000000000000000000000000000000000000815260040161086090610ce4565b60405180910390fd5b60015f8281526020019081526020015f205f9054906101000a900460ff166108c6576040517f08c379a00000000000000000000000000000000000000000000000000000000081526004016108bd90610f9a565b60405180910390fd5b60015f8281526020019081526020015f205f6101000a81549060ff021916905550565b6103e881565b5f819050919050565b610901816108ef565b82525050565b5f60208201905061091a5f8301846108f8565b92915050565b5f80fd5b5f80fd5b5f73ffffffffffffffffffffffffffffffffffffffff82169050919050565b5f61095182610928565b9050919050565b61096181610947565b811461096b575f80fd5b50565b5f8135905061097c81610958565b92915050565b61098b816108ef565b8114610995575f80fd5b50565b5f813590506109a681610982565b92915050565b5f80fd5b5f80fd5b5f80fd5b5f8083601f8401126109cd576109cc6109ac565b5b8235905067ffffffffffffffff8111156109ea576109e96109b0565b5b602083019150836001820283011115610a0657610a056109b4565b5b9250929050565b5f8083601f840112610a2257610a216109ac565b5b8235905067ffffffffffffffff811115610a3f57610a3e6109b0565b5b602083019150836001820283011115610a5b57610a5a6109b4565b5b9250929050565b5f805f805f805f60a0888a031215610a7d57610a7c610920565b5b5f610a8a8a828b0161096e565b9750506020610a9b8a828b01610998565b965050604088013567ffffffffffffffff811115610abc57610abb610924565b5b610ac88a828b016109b8565b9550955050606088013567ffffffffffffffff811115610aeb57610aea610924565b5b610af78a828b01610a0d565b93509350506080610b0a8a828b01610998565b91505092959891949750929550565b5f819050919050565b610b2b81610b19565b82525050565b5f602082019050610b445f830184610b22565b92915050565b610b5381610b19565b8114610b5d575f80fd5b50565b5f81359050610b6e81610b4a565b92915050565b5f60208284031215610b8957610b88610920565b5b5f610b9684828501610b60565b91505092915050565b5f8115159050919050565b610bb381610b9f565b82525050565b5f602082019050610bcc5f830184610baa565b92915050565b610bdb81610947565b82525050565b5f602082019050610bf45f830184610bd2565b92915050565b5f81519050919050565b5f82825260208201905092915050565b8281835e5f83830152505050565b5f601f19601f8301169050919050565b5f610c3c82610bfa565b610c468185610c04565b9350610c56818560208601610c14565b610c5f81610c22565b840191505092915050565b5f6020820190508181035f830152610c828184610c32565b905092915050565b5f82825260208201905092915050565b7f6e6f7420616e206f776e657200000000000000000000000000000000000000005f82015250565b5f610cce600c83610c8a565b9150610cd982610c9a565b602082019050919050565b5f6020820190508181035f830152610cfb81610cc2565b9050919050565b828183375f83830152505050565b5f610d1b8385610c8a565b9350610d28838584610d02565b610d3183610c22565b840190509392505050565b5f610d478385610c04565b9350610d54838584610d02565b610d5d83610c22565b840190509392505050565b5f60a082019050610d7b5f83018a610bd2565b610d8860208301896108f8565b8181036040830152610d9b818789610d10565b90508181036060830152610db0818587610d3c565b9050610dbf60808301846108f8565b98975050505050505050565b7f616c7265616479207175657565640000000000000000000000000000000000005f82015250565b5f610dff600e83610c8a565b9150610e0a82610dcb565b602082019050919050565b5f6020820190508181035f830152610e2c81610df3565b9050919050565b7f4e487b71000000000000000000000000000000000000000000000000000000005f52601160045260245ffd5b5f610e6a826108ef565b9150610e75836108ef565b9250828201905080821115610e8d57610e8c610e33565b5b92915050565b7f696e76616c69642074696d657374616d700000000000000000000000000000005f82015250565b5f610ec7601183610c8a565b9150610ed282610e93565b602082019050919050565b5f6020820190508181035f830152610ef481610ebb565b9050919050565b5f608082019050610f0e5f8301896108f8565b8181036020830152610f21818789610d10565b90508181036040830152610f36818587610d3c565b9050610f4560608301846108f8565b979650505050505050565b7f6e6f7420717565756564210000000000000000000000000000000000000000005f82015250565b5f610f84600b83610c8a565b9150610f8f82610f50565b602082019050919050565b5f6020820190508181035f830152610fb181610f78565b9050919050565b7f746f6f206561726c7921000000000000000000000000000000000000000000005f82015250565b5f610fec600a83610c8a565b9150610ff782610fb8565b602082019050919050565b5f6020820190508181035f83015261101981610fe0565b9050919050565b7f746f6f206c6174652100000000000000000000000000000000000000000000005f82015250565b5f611054600983610c8a565b915061105f82611020565b602082019050919050565b5f6020820190508181035f83015261108181611048565b9050919050565b5f81905092915050565b5f61109d8385611088565b93506110aa838584610d02565b82840190509392505050565b5f6110c2828486611092565b91508190509392505050565b5f7fffffffff0000000000000000000000000000000000000000000000000000000082169050919050565b5f819050919050565b61111361110e826110ce565b6110f9565b82525050565b5f6111248286611102565b600482019150611135828486611092565b9150819050949350505050565b5f61114c82610bfa565b6111568185611088565b9350611166818560208601610c14565b80840191505092915050565b5f61117d8284611142565b915081905092915050565b7f7478206661696c656421000000000000000000000000000000000000000000005f82015250565b5f6111bc600a83610c8a565b91506111c782611188565b602082019050919050565b5f6020820190508181035f8301526111e9816111b0565b905091905056fea264697066735822122036e6773c159b316e0e776f00ad4f491c48af4d2239ed004b313c4286255fbc7364736f6c634300081a0033",
					"opcodes": "PUSH1 0x80 PUSH1 0x40 MSTORE CALLVALUE DUP1 ISZERO PUSH1 0xE JUMPI PUSH0 DUP1 REVERT JUMPDEST POP CALLER PUSH0 DUP1 PUSH2 0x100 EXP DUP2 SLOAD DUP2 PUSH20 0xFFFFFFFFFFFFFFFFFFFFFFFFFFFFFFFFFFFFFFFF MUL NOT AND SWAP1 DUP4 PUSH20 0xFFFFFFFFFFFFFFFFFFFFFFFFFFFFFFFFFFFFFFFF AND MUL OR SWAP1 SSTORE POP PUSH2 0x1226 DUP1 PUSH2 0x5B PUSH0 CODECOPY PUSH0 RETURN INVALID PUSH1 0x80 PUSH1 0x40 MSTORE PUSH1 0x4 CALLDATASIZE LT PUSH2 0x7A JUMPI PUSH0 CALLDATALOAD PUSH1 0xE0 SHR DUP1 PUSH4 0x9F81AED7 GT PUSH2 0x4D JUMPI DUP1 PUSH4 0x9F81AED7 EQ PUSH2 0x14A JUMPI DUP1 PUSH4 0xB0F8B142 EQ PUSH2 0x174 JUMPI DUP1 PUSH4 0xC4D252F5 EQ PUSH2 0x1A4 JUMPI DUP1 PUSH4 0xD783847C EQ PUSH2 0x1CC JUMPI PUSH2 0x7A JUMP JUMPDEST DUP1 PUSH4 0x4125FF90 EQ PUSH2 0x7E JUMPI DUP1 PUSH4 0x4B9915A5 EQ PUSH2 0xA8 JUMPI DUP1 PUSH4 0x530534DF EQ PUSH2 0xE4 JUMPI DUP1 PUSH4 0x8DA5CB5B EQ PUSH2 0x120 JUMPI JUMPDEST PUSH0 DUP1 REVERT JUMPDEST CALLVALUE DUP1 ISZERO PUSH2 0x89 JUMPI PUSH0 DUP1 REVERT JUMPDEST POP PUSH2 0x92 PUSH2 0x1F6 JUMP JUMPDEST PUSH1 0x40 MLOAD PUSH2 0x9F SWAP2 SWAP1 PUSH2 0x907 JUMP JUMPDEST PUSH1 0x40 MLOAD DUP1 SWAP2 SUB SWAP1 RETURN JUMPDEST CALLVALUE DUP1 ISZERO PUSH2 0xB3 JUMPI PUSH0 DUP1 REVERT JUMPDEST POP PUSH2 0xCE PUSH1 0x4 DUP1 CALLDATASIZE SUB DUP2 ADD SWAP1 PUSH2 0xC9 SWAP2 SWAP1 PUSH2 0xA62 JUMP JUMPDEST PUSH2 0x1FB JUMP JUMPDEST PUSH1 0x40 MLOAD PUSH2 0xDB SWAP2 SWAP1 PUSH2 0xB31 JUMP JUMPDEST PUSH1 0x40 MLOAD DUP1 SWAP2 SUB SWAP1 RETURN JUMPDEST CALLVALUE DUP1 ISZERO PUSH2 0xEF JUMPI PUSH0 DUP1 REVERT JUMPDEST POP PUSH2 0x10A PUSH1 0x4 DUP1 CALLDATASIZE SUB DUP2 ADD SWAP1 PUSH2 0x105 SWAP2 SWAP1 PUSH2 0xB74 JUMP JUMPDEST PUSH2 0x415 JUMP JUMPDEST PUSH1 0x40 MLOAD PUSH2 0x117 SWAP2 SWAP1 PUSH2 0xBB9 JUMP JUMPDEST PUSH1 0x40 MLOAD DUP1 SWAP2 SUB SWAP1 RETURN JUMPDEST CALLVALUE DUP1 ISZERO PUSH2 0x12B JUMPI PUSH0 DUP1 REVERT JUMPDEST POP PUSH2 0x134 PUSH2 0x432 JUMP JUMPDEST PUSH1 0x40 MLOAD PUSH2 0x141 SWAP2 SWAP1 PUSH2 0xBE1 JUMP JUMPDEST PUSH1 0x40 MLOAD DUP1 SWAP2 SUB SWAP1 RETURN JUMPDEST CALLVALUE DUP1 ISZERO PUSH2 0x155 JUMPI PUSH0 DUP1 REVERT JUMPDEST POP PUSH2 0x15E PUSH2 0x455 JUMP JUMPDEST PUSH1 0x40 MLOAD PUSH2 0x16B SWAP2 SWAP1 PUSH2 0x907 JUMP JUMPDEST PUSH1 0x40 MLOAD DUP1 SWAP2 SUB SWAP1 RETURN JUMPDEST PUSH2 0x18E PUSH1 0x4 DUP1 CALLDATASIZE SUB DUP2 ADD SWAP1 PUSH2 0x189 SWAP2 SWAP1 PUSH2 0xA62 JUMP JUMPDEST PUSH2 0x45A JUMP JUMPDEST PUSH1 0x40 MLOAD PUSH2 0x19B SWAP2 SWAP1 PUSH2 0xC6A JUMP JUMPDEST PUSH1 0x40 MLOAD DUP1 SWAP2 SUB SWAP1 RETURN JUMPDEST CALLVALUE DUP1 ISZERO PUSH2 0x1AF JUMPI PUSH0 DUP1 REVERT JUMPDEST POP PUSH2 0x1CA PUSH1 0x4 DUP1 CALLDATASIZE SUB DUP2 ADD SWAP1 PUSH2 0x1C5 SWAP2 SWAP1 PUSH2 0xB74 JUMP JUMPDEST PUSH2 0x7DC JUMP JUMPDEST STOP JUMPDEST CALLVALUE DUP1 ISZERO PUSH2 0x1D7 JUMPI PUSH0 DUP1 REVERT JUMPDEST POP PUSH2 0x1E0 PUSH2 0x8E9 JUMP JUMPDEST PUSH1 0x40 MLOAD PUSH2 0x1ED SWAP2 SWAP1 PUSH2 0x907 JUMP JUMPDEST PUSH1 0x40 MLOAD DUP1 SWAP2 SUB SWAP1 RETURN JUMPDEST PUSH1 0x64 DUP2 JUMP JUMPDEST PUSH0 DUP1 PUSH0 SWAP1 SLOAD SWAP1 PUSH2 0x100 EXP SWAP1 DIV PUSH20 0xFFFFFFFFFFFFFFFFFFFFFFFFFFFFFFFFFFFFFFFF AND PUSH20 0xFFFFFFFFFFFFFFFFFFFFFFFFFFFFFFFFFFFFFFFF AND CALLER PUSH20 0xFFFFFFFFFFFFFFFFFFFFFFFFFFFFFFFFFFFFFFFF AND EQ PUSH2 0x28A JUMPI PUSH1 0x40 MLOAD PUSH32 0x8C379A000000000000000000000000000000000000000000000000000000000 DUP2 MSTORE PUSH1 0x4 ADD PUSH2 0x281 SWAP1 PUSH2 0xCE4 JUMP JUMPDEST PUSH1 0x40 MLOAD DUP1 SWAP2 SUB SWAP1 REVERT JUMPDEST PUSH0 DUP9 DUP9 DUP9 DUP9 DUP9 DUP9 DUP9 PUSH1 0x40 MLOAD PUSH1 0x20 ADD PUSH2 0x2A8 SWAP8 SWAP7 SWAP6 SWAP5 SWAP4 SWAP3 SWAP2 SWAP1 PUSH2 0xD68 JUMP JUMPDEST PUSH1 0x40 MLOAD PUSH1 0x20 DUP2 DUP4 SUB SUB DUP2 MSTORE SWAP1 PUSH1 0x40 MSTORE DUP1 MLOAD SWAP1 PUSH1 0x20 ADD KECCAK256 SWAP1 POP PUSH1 0x1 PUSH0 DUP3 DUP2 MSTORE PUSH1 0x20 ADD SWAP1 DUP2 MSTORE PUSH1 0x20 ADD PUSH0 KECCAK256 PUSH0 SWAP1 SLOAD SWAP1 PUSH2 0x100 EXP SWAP1 DIV PUSH1 0xFF AND ISZERO PUSH2 0x31E JUMPI PUSH1 0x40 MLOAD PUSH32 0x8C379A000000000000000000000000000000000000000000000000000000000 DUP2 MSTORE PUSH1 0x4 ADD PUSH2 0x315 SWAP1 PUSH2 0xE15 JUMP JUMPDEST PUSH1 0x40 MLOAD DUP1 SWAP2 SUB SWAP1 REVERT JUMPDEST PUSH1 0xA TIMESTAMP PUSH2 0x32B SWAP2 SWAP1 PUSH2 0xE60 JUMP JUMPDEST DUP4 LT ISZERO DUP1 ISZERO PUSH2 0x346 JUMPI POP PUSH1 0x64 TIMESTAMP PUSH2 0x342 SWAP2 SWAP1 PUSH2 0xE60 JUMP JUMPDEST DUP4 GT ISZERO JUMPDEST PUSH2 0x385 JUMPI PUSH1 0x40 MLOAD PUSH32 0x8C379A000000000000000000000000000000000000000000000000000000000 DUP2 MSTORE PUSH1 0x4 ADD PUSH2 0x37C SWAP1 PUSH2 0xEDD JUMP JUMPDEST PUSH1 0x40 MLOAD DUP1 SWAP2 SUB SWAP1 REVERT JUMPDEST PUSH1 0x1 DUP1 PUSH0 DUP4 DUP2 MSTORE PUSH1 0x20 ADD SWAP1 DUP2 MSTORE PUSH1 0x20 ADD PUSH0 KECCAK256 PUSH0 PUSH2 0x100 EXP DUP2 SLOAD DUP2 PUSH1 0xFF MUL NOT AND SWAP1 DUP4 ISZERO ISZERO MUL OR SWAP1 SSTORE POP DUP9 PUSH20 0xFFFFFFFFFFFFFFFFFFFFFFFFFFFFFFFFFFFFFFFF AND DUP2 PUSH32 0xE6078611738A572E481D24F65DAC585D324038A1B65B3AC7E16AD2975278A86B DUP11 DUP11 DUP11 DUP11 DUP11 DUP11 PUSH1 0x40 MLOAD PUSH2 0x3FE SWAP7 SWAP6 SWAP5 SWAP4 SWAP3 SWAP2 SWAP1 PUSH2 0xEFB JUMP JUMPDEST PUSH1 0x40 MLOAD DUP1 SWAP2 SUB SWAP1 LOG3 DUP1 SWAP2 POP POP SWAP8 SWAP7 POP POP POP POP POP POP POP JUMP JUMPDEST PUSH1 0x1 PUSH1 0x20 MSTORE DUP1 PUSH0 MSTORE PUSH1 0x40 PUSH0 KECCAK256 PUSH0 SWAP2 POP SLOAD SWAP1 PUSH2 0x100 EXP SWAP1 DIV PUSH1 0xFF AND DUP2 JUMP JUMPDEST PUSH0 DUP1 SLOAD SWAP1 PUSH2 0x100 EXP SWAP1 DIV PUSH20 0xFFFFFFFFFFFFFFFFFFFFFFFFFFFFFFFFFFFFFFFF AND DUP2 JUMP JUMPDEST PUSH1 0xA DUP2 JUMP JUMPDEST PUSH1 0x60 PUSH0 DUP1 SLOAD SWAP1 PUSH2 0x100 EXP SWAP1 DIV PUSH20 0xFFFFFFFFFFFFFFFFFFFFFFFFFFFFFFFFFFFFFFFF AND PUSH20 0xFFFFFFFFFFFFFFFFFFFFFFFFFFFFFFFFFFFFFFFF AND CALLER PUSH20 0xFFFFFFFFFFFFFFFFFFFFFFFFFFFFFFFFFFFFFFFF AND EQ PUSH2 0x4E9 JUMPI PUSH1 0x40 MLOAD PUSH32 0x8C379A000000000000000000000000000000000000000000000000000000000 DUP2 MSTORE PUSH1 0x4 ADD PUSH2 0x4E0 SWAP1 PUSH2 0xCE4 JUMP JUMPDEST PUSH1 0x40 MLOAD DUP1 SWAP2 SUB SWAP1 REVERT JUMPDEST PUSH0 DUP9 DUP9 DUP9 DUP9 DUP9 DUP9 DUP9 PUSH1 0x40 MLOAD PUSH1 0x20 ADD PUSH2 0x507 SWAP8 SWAP7 SWAP6 SWAP5 SWAP4 SWAP3 SWAP2 SWAP1 PUSH2 0xD68 JUMP JUMPDEST PUSH1 0x40 MLOAD PUSH1 0x20 DUP2 DUP4 SUB SUB DUP2 MSTORE SWAP1 PUSH1 0x40 MSTORE DUP1 MLOAD SWAP1 PUSH1 0x20 ADD KECCAK256 SWAP1 POP PUSH1 0x1 PUSH0 DUP3 DUP2 MSTORE PUSH1 0x20 ADD SWAP1 DUP2 MSTORE PUSH1 0x20 ADD PUSH0 KECCAK256 PUSH0 SWAP1 SLOAD SWAP1 PUSH2 0x100 EXP SWAP1 DIV PUSH1 0xFF AND PUSH2 0x57C JUMPI PUSH1 0x40 MLOAD PUSH32 0x8C379A000000000000000000000000000000000000000000000000000000000 DUP2 MSTORE PUSH1 0x4 ADD PUSH2 0x573 SWAP1 PUSH2 0xF9A JUMP JUMPDEST PUSH1 0x40 MLOAD DUP1 SWAP2 SUB SWAP1 REVERT JUMPDEST DUP3 TIMESTAMP LT ISZERO PUSH2 0x5BF JUMPI PUSH1 0x40 MLOAD PUSH32 0x8C379A000000000000000000000000000000000000000000000000000000000 DUP2 MSTORE PUSH1 0x4 ADD PUSH2 0x5B6 SWAP1 PUSH2 0x1002 JUMP JUMPDEST PUSH1 0x40 MLOAD DUP1 SWAP2 SUB SWAP1 REVERT JUMPDEST PUSH2 0x3E8 DUP4 PUSH2 0x5CD SWAP2 SWAP1 PUSH2 0xE60 JUMP JUMPDEST TIMESTAMP GT ISZERO PUSH2 0x60F JUMPI PUSH1 0x40 MLOAD PUSH32 0x8C379A000000000000000000000000000000000000000000000000000000000 DUP2 MSTORE PUSH1 0x4 ADD PUSH2 0x606 SWAP1 PUSH2 0x106A JUMP JUMPDEST PUSH1 0x40 MLOAD DUP1 SWAP2 SUB SWAP1 REVERT JUMPDEST PUSH1 0x1 PUSH0 DUP3 DUP2 MSTORE PUSH1 0x20 ADD SWAP1 DUP2 MSTORE PUSH1 0x20 ADD PUSH0 KECCAK256 PUSH0 PUSH2 0x100 EXP DUP2 SLOAD SWAP1 PUSH1 0xFF MUL NOT AND SWAP1 SSTORE PUSH1 0x60 PUSH0 DUP9 DUP9 SWAP1 POP GT ISZERO PUSH2 0x67E JUMPI DUP8 DUP8 PUSH1 0x40 MLOAD PUSH2 0x64C SWAP3 SWAP2 SWAP1 PUSH2 0x10B6 JUMP JUMPDEST PUSH1 0x40 MLOAD DUP1 SWAP2 SUB SWAP1 KECCAK256 DUP7 DUP7 PUSH1 0x40 MLOAD PUSH1 0x20 ADD PUSH2 0x668 SWAP4 SWAP3 SWAP2 SWAP1 PUSH2 0x1119 JUMP JUMPDEST PUSH1 0x40 MLOAD PUSH1 0x20 DUP2 DUP4 SUB SUB DUP2 MSTORE SWAP1 PUSH1 0x40 MSTORE SWAP1 POP PUSH2 0x6C5 JUMP JUMPDEST DUP6 DUP6 DUP1 DUP1 PUSH1 0x1F ADD PUSH1 0x20 DUP1 SWAP2 DIV MUL PUSH1 0x20 ADD PUSH1 0x40 MLOAD SWAP1 DUP2 ADD PUSH1 0x40 MSTORE DUP1 SWAP4 SWAP3 SWAP2 SWAP1 DUP2 DUP2 MSTORE PUSH1 0x20 ADD DUP4 DUP4 DUP1 DUP3 DUP5 CALLDATACOPY PUSH0 DUP2 DUP5 ADD MSTORE PUSH1 0x1F NOT PUSH1 0x1F DUP3 ADD AND SWAP1 POP DUP1 DUP4 ADD SWAP3 POP POP POP POP POP POP POP SWAP1 POP JUMPDEST PUSH0 DUP1 DUP12 PUSH20 0xFFFFFFFFFFFFFFFFFFFFFFFFFFFFFFFFFFFFFFFF AND DUP12 DUP5 PUSH1 0x40 MLOAD PUSH2 0x6ED SWAP2 SWAP1 PUSH2 0x1172 JUMP JUMPDEST PUSH0 PUSH1 0x40 MLOAD DUP1 DUP4 SUB DUP2 DUP6 DUP8 GAS CALL SWAP3 POP POP POP RETURNDATASIZE DUP1 PUSH0 DUP2 EQ PUSH2 0x727 JUMPI PUSH1 0x40 MLOAD SWAP2 POP PUSH1 0x1F NOT PUSH1 0x3F RETURNDATASIZE ADD AND DUP3 ADD PUSH1 0x40 MSTORE RETURNDATASIZE DUP3 MSTORE RETURNDATASIZE PUSH0 PUSH1 0x20 DUP5 ADD RETURNDATACOPY PUSH2 0x72C JUMP JUMPDEST PUSH1 0x60 SWAP2 POP JUMPDEST POP SWAP2 POP SWAP2 POP DUP2 PUSH2 0x771 JUMPI PUSH1 0x40 MLOAD PUSH32 0x8C379A000000000000000000000000000000000000000000000000000000000 DUP2 MSTORE PUSH1 0x4 ADD PUSH2 0x768 SWAP1 PUSH2 0x11D2 JUMP JUMPDEST PUSH1 0x40 MLOAD DUP1 SWAP2 SUB SWAP1 REVERT JUMPDEST DUP12 PUSH20 0xFFFFFFFFFFFFFFFFFFFFFFFFFFFFFFFFFFFFFFFF AND DUP5 PUSH32 0x4D89696B1438D0F9C59A98B32692918D0505BB64C719B1F94F306B6333D7C77B DUP14 DUP14 DUP14 DUP14 DUP14 DUP14 PUSH1 0x40 MLOAD PUSH2 0x7C2 SWAP7 SWAP6 SWAP5 SWAP4 SWAP3 SWAP2 SWAP1 PUSH2 0xEFB JUMP JUMPDEST PUSH1 0x40 MLOAD DUP1 SWAP2 SUB SWAP1 LOG3 DUP1 SWAP5 POP POP POP POP POP SWAP8 SWAP7 POP POP POP POP POP POP POP JUMP JUMPDEST PUSH0 DUP1 SLOAD SWAP1 PUSH2 0x100 EXP SWAP1 DIV PUSH20 0xFFFFFFFFFFFFFFFFFFFFFFFFFFFFFFFFFFFFFFFF AND PUSH20 0xFFFFFFFFFFFFFFFFFFFFFFFFFFFFFFFFFFFFFFFF AND CALLER PUSH20 0xFFFFFFFFFFFFFFFFFFFFFFFFFFFFFFFFFFFFFFFF AND EQ PUSH2 0x869 JUMPI PUSH1 0x40 MLOAD PUSH32 0x8C379A000000000000000000000000000000000000000000000000000000000 DUP2 MSTORE PUSH1 0x4 ADD PUSH2 0x860 SWAP1 PUSH2 0xCE4 JUMP JUMPDEST PUSH1 0x40 MLOAD DUP1 SWAP2 SUB SWAP1 REVERT JUMPDEST PUSH1 0x1 PUSH0 DUP3 DUP2 MSTORE PUSH1 0x20 ADD SWAP1 DUP2 MSTORE PUSH1 0x20 ADD PUSH0 KECCAK256 PUSH0 SWAP1 SLOAD SWAP1 PUSH2 0x100 EXP SWAP1 DIV PUSH1 0xFF AND PUSH2 0x8C6 JUMPI PUSH1 0x40 MLOAD PUSH32 0x8C379A000000000000000000000000000000000000000000000000000000000 DUP2 MSTORE PUSH1 0x4 ADD PUSH2 0x8BD SWAP1 PUSH2 0xF9A JUMP JUMPDEST PUSH1 0x40 MLOAD DUP1 SWAP2 SUB SWAP1 REVERT JUMPDEST PUSH1 0x1 PUSH0 DUP3 DUP2 MSTORE PUSH1 0x20 ADD SWAP1 DUP2 MSTORE PUSH1 0x20 ADD PUSH0 KECCAK256 PUSH0 PUSH2 0x100 EXP DUP2 SLOAD SWAP1 PUSH1 0xFF MUL NOT AND SWAP1 SSTORE POP JUMP JUMPDEST PUSH2 0x3E8 DUP2 JUMP JUMPDEST PUSH0 DUP2 SWAP1 POP SWAP2 SWAP1 POP JUMP JUMPDEST PUSH2 0x901 DUP2 PUSH2 0x8EF JUMP JUMPDEST DUP3 MSTORE POP POP JUMP JUMPDEST PUSH0 PUSH1 0x20 DUP3 ADD SWAP1 POP PUSH2 0x91A PUSH0 DUP4 ADD DUP5 PUSH2 0x8F8 JUMP JUMPDEST SWAP3 SWAP2 POP POP JUMP JUMPDEST PUSH0 DUP1 REVERT JUMPDEST PUSH0 DUP1 REVERT JUMPDEST PUSH0 PUSH20 0xFFFFFFFFFFFFFFFFFFFFFFFFFFFFFFFFFFFFFFFF DUP3 AND SWAP1 POP SWAP2 SWAP1 POP JUMP JUMPDEST PUSH0 PUSH2 0x951 DUP3 PUSH2 0x928 JUMP JUMPDEST SWAP1 POP SWAP2 SWAP1 POP JUMP JUMPDEST PUSH2 0x961 DUP2 PUSH2 0x947 JUMP JUMPDEST DUP2 EQ PUSH2 0x96B JUMPI PUSH0 DUP1 REVERT JUMPDEST POP JUMP JUMPDEST PUSH0 DUP2 CALLDATALOAD SWAP1 POP PUSH2 0x97C DUP2 PUSH2 0x958 JUMP JUMPDEST SWAP3 SWAP2 POP POP JUMP JUMPDEST PUSH2 0x98B DUP2 PUSH2 0x8EF JUMP JUMPDEST DUP2 EQ PUSH2 0x995 JUMPI PUSH0 DUP1 REVERT JUMPDEST POP JUMP JUMPDEST PUSH0 DUP2 CALLDATALOAD SWAP1 POP PUSH2 0x9A6 DUP2 PUSH2 0x982 JUMP JUMPDEST SWAP3 SWAP2 POP POP JUMP JUMPDEST PUSH0 DUP1 REVERT JUMPDEST PUSH0 DUP1 REVERT JUMPDEST PUSH0 DUP1 REVERT JUMPDEST PUSH0 DUP1 DUP4 PUSH1 0x1F DUP5 ADD SLT PUSH2 0x9CD JUMPI PUSH2 0x9CC PUSH2 0x9AC JUMP JUMPDEST JUMPDEST DUP3 CALLDATALOAD SWAP1 POP PUSH8 0xFFFFFFFFFFFFFFFF DUP2 GT ISZERO PUSH2 0x9EA JUMPI PUSH2 0x9E9 PUSH2 0x9B0 JUMP JUMPDEST JUMPDEST PUSH1 0x20 DUP4 ADD SWAP2 POP DUP4 PUSH1 0x1 DUP3 MUL DUP4 ADD GT ISZERO PUSH2 0xA06 JUMPI PUSH2 0xA05 PUSH2 0x9B4 JUMP JUMPDEST JUMPDEST SWAP3 POP SWAP3 SWAP1 POP JUMP JUMPDEST PUSH0 DUP1 DUP4 PUSH1 0x1F DUP5 ADD SLT PUSH2 0xA22 JUMPI PUSH2 0xA21 PUSH2 0x9AC JUMP JUMPDEST JUMPDEST DUP3 CALLDATALOAD SWAP1 POP PUSH8 0xFFFFFFFFFFFFFFFF DUP2 GT ISZERO PUSH2 0xA3F JUMPI PUSH2 0xA3E PUSH2 0x9B0 JUMP JUMPDEST JUMPDEST PUSH1 0x20 DUP4 ADD SWAP2 POP DUP4 PUSH1 0x1 DUP3 MUL DUP4 ADD GT ISZERO PUSH2 0xA5B JUMPI PUSH2 0xA5A PUSH2 0x9B4 JUMP JUMPDEST JUMPDEST SWAP3 POP SWAP3 SWAP1 POP JUMP JUMPDEST PUSH0 DUP1 PUSH0 DUP1 PUSH0 DUP1 PUSH0 PUSH1 0xA0 DUP9 DUP11 SUB SLT ISZERO PUSH2 0xA7D JUMPI PUSH2 0xA7C PUSH2 0x920 JUMP JUMPDEST JUMPDEST PUSH0 PUSH2 0xA8A DUP11 DUP3 DUP12 ADD PUSH2 0x96E JUMP JUMPDEST SWAP8 POP POP PUSH1 0x20 PUSH2 0xA9B DUP11 DUP3 DUP12 ADD PUSH2 0x998 JUMP JUMPDEST SWAP7 POP POP PUSH1 0x40 DUP9 ADD CALLDATALOAD PUSH8 0xFFFFFFFFFFFFFFFF DUP2 GT ISZERO PUSH2 0xABC JUMPI PUSH2 0xABB PUSH2 0x924 JUMP JUMPDEST JUMPDEST PUSH2 0xAC8 DUP11 DUP3 DUP12 ADD PUSH2 0x9B8 JUMP JUMPDEST SWAP6 POP SWAP6 POP POP PUSH1 0x60 DUP9 ADD CALLDATALOAD PUSH8 0xFFFFFFFFFFFFFFFF DUP2 GT ISZERO PUSH2 0xAEB JUMPI PUSH2 0xAEA PUSH2 0x924 JUMP JUMPDEST JUMPDEST PUSH2 0xAF7 DUP11 DUP3 DUP12 ADD PUSH2 0xA0D JUMP JUMPDEST SWAP4 POP SWAP4 POP POP PUSH1 0x80 PUSH2 0xB0A DUP11 DUP3 DUP12 ADD PUSH2 0x998 JUMP JUMPDEST SWAP2 POP POP SWAP3 SWAP6 SWAP9 SWAP2 SWAP5 SWAP8 POP SWAP3 SWAP6 POP JUMP JUMPDEST PUSH0 DUP2 SWAP1 POP SWAP2 SWAP1 POP JUMP JUMPDEST PUSH2 0xB2B DUP2 PUSH2 0xB19 JUMP JUMPDEST DUP3 MSTORE POP POP JUMP JUMPDEST PUSH0 PUSH1 0x20 DUP3 ADD SWAP1 POP PUSH2 0xB44 PUSH0 DUP4 ADD DUP5 PUSH2 0xB22 JUMP JUMPDEST SWAP3 SWAP2 POP POP JUMP JUMPDEST PUSH2 0xB53 DUP2 PUSH2 0xB19 JUMP JUMPDEST DUP2 EQ PUSH2 0xB5D JUMPI PUSH0 DUP1 REVERT JUMPDEST POP JUMP JUMPDEST PUSH0 DUP2 CALLDATALOAD SWAP1 POP PUSH2 0xB6E DUP2 PUSH2 0xB4A JUMP JUMPDEST SWAP3 SWAP2 POP POP JUMP JUMPDEST PUSH0 PUSH1 0x20 DUP3 DUP5 SUB SLT ISZERO PUSH2 0xB89 JUMPI PUSH2 0xB88 PUSH2 0x920 JUMP JUMPDEST JUMPDEST PUSH0 PUSH2 0xB96 DUP5 DUP3 DUP6 ADD PUSH2 0xB60 JUMP JUMPDEST SWAP2 POP POP SWAP3 SWAP2 POP POP JUMP JUMPDEST PUSH0 DUP2 ISZERO ISZERO SWAP1 POP SWAP2 SWAP1 POP JUMP JUMPDEST PUSH2 0xBB3 DUP2 PUSH2 0xB9F JUMP JUMPDEST DUP3 MSTORE POP POP JUMP JUMPDEST PUSH0 PUSH1 0x20 DUP3 ADD SWAP1 POP PUSH2 0xBCC PUSH0 DUP4 ADD DUP5 PUSH2 0xBAA JUMP JUMPDEST SWAP3 SWAP2 POP POP JUMP JUMPDEST PUSH2 0xBDB DUP2 PUSH2 0x947 JUMP JUMPDEST DUP3 MSTORE POP POP JUMP JUMPDEST PUSH0 PUSH1 0x20 DUP3 ADD SWAP1 POP PUSH2 0xBF4 PUSH0 DUP4 ADD DUP5 PUSH2 0xBD2 JUMP JUMPDEST SWAP3 SWAP2 POP POP JUMP JUMPDEST PUSH0 DUP2 MLOAD SWAP1 POP SWAP2 SWAP1 POP JUMP JUMPDEST PUSH0 DUP3 DUP3 MSTORE PUSH1 0x20 DUP3 ADD SWAP1 POP SWAP3 SWAP2 POP POP JUMP JUMPDEST DUP3 DUP2 DUP4 MCOPY PUSH0 DUP4 DUP4 ADD MSTORE POP POP POP JUMP JUMPDEST PUSH0 PUSH1 0x1F NOT PUSH1 0x1F DUP4 ADD AND SWAP1 POP SWAP2 SWAP1 POP JUMP JUMPDEST PUSH0 PUSH2 0xC3C DUP3 PUSH2 0xBFA JUMP JUMPDEST PUSH2 0xC46 DUP2 DUP6 PUSH2 0xC04 JUMP JUMPDEST SWAP4 POP PUSH2 0xC56 DUP2 DUP6 PUSH1 0x20 DUP7 ADD PUSH2 0xC14 JUMP JUMPDEST PUSH2 0xC5F DUP2 PUSH2 0xC22 JUMP JUMPDEST DUP5 ADD SWAP2 POP POP SWAP3 SWAP2 POP POP JUMP JUMPDEST PUSH0 PUSH1 0x20 DUP3 ADD SWAP1 POP DUP2 DUP2 SUB PUSH0 DUP4 ADD MSTORE PUSH2 0xC82 DUP2 DUP5 PUSH2 0xC32 JUMP JUMPDEST SWAP1 POP SWAP3 SWAP2 POP POP JUMP JUMPDEST PUSH0 DUP3 DUP3 MSTORE PUSH1 0x20 DUP3 ADD SWAP1 POP SWAP3 SWAP2 POP POP JUMP JUMPDEST PUSH32 0x6E6F7420616E206F776E65720000000000000000000000000000000000000000 PUSH0 DUP3 ADD MSTORE POP JUMP JUMPDEST PUSH0 PUSH2 0xCCE PUSH1 0xC DUP4 PUSH2 0xC8A JUMP JUMPDEST SWAP2 POP PUSH2 0xCD9 DUP3 PUSH2 0xC9A JUMP JUMPDEST PUSH1 0x20 DUP3 ADD SWAP1 POP SWAP2 SWAP1 POP JUMP JUMPDEST PUSH0 PUSH1 0x20 DUP3 ADD SWAP1 POP DUP2 DUP2 SUB PUSH0 DUP4 ADD MSTORE PUSH2 0xCFB DUP2 PUSH2 0xCC2 JUMP JUMPDEST SWAP1 POP SWAP2 SWAP1 POP JUMP JUMPDEST DUP3 DUP2 DUP4 CALLDATACOPY PUSH0 DUP4 DUP4 ADD MSTORE POP POP POP JUMP JUMPDEST PUSH0 PUSH2 0xD1B DUP4 DUP6 PUSH2 0xC8A JUMP JUMPDEST SWAP4 POP PUSH2 0xD28 DUP4 DUP6 DUP5 PUSH2 0xD02 JUMP JUMPDEST PUSH2 0xD31 DUP4 PUSH2 0xC22 JUMP JUMPDEST DUP5 ADD SWAP1 POP SWAP4 SWAP3 POP POP POP JUMP JUMPDEST PUSH0 PUSH2 0xD47 DUP4 DUP6 PUSH2 0xC04 JUMP JUMPDEST SWAP4 POP PUSH2 0xD54 DUP4 DUP6 DUP5 PUSH2 0xD02 JUMP JUMPDEST PUSH2 0xD5D DUP4 PUSH2 0xC22 JUMP JUMPDEST DUP5 ADD SWAP1 POP SWAP4 SWAP3 POP POP POP JUMP JUMPDEST PUSH0 PUSH1 0xA0 DUP3 ADD SWAP1 POP PUSH2 0xD7B PUSH0 DUP4 ADD DUP11 PUSH2 0xBD2 JUMP JUMPDEST PUSH2 0xD88 PUSH1 0x20 DUP4 ADD DUP10 PUSH2 0x8F8 JUMP JUMPDEST DUP2 DUP2 SUB PUSH1 0x40 DUP4 ADD MSTORE PUSH2 0xD9B DUP2 DUP8 DUP10 PUSH2 0xD10 JUMP JUMPDEST SWAP1 POP DUP2 DUP2 SUB PUSH1 0x60 DUP4 ADD MSTORE PUSH2 0xDB0 DUP2 DUP6 DUP8 PUSH2 0xD3C JUMP JUMPDEST SWAP1 POP PUSH2 0xDBF PUSH1 0x80 DUP4 ADD DUP5 PUSH2 0x8F8 JUMP JUMPDEST SWAP9 SWAP8 POP POP POP POP POP POP POP POP JUMP JUMPDEST PUSH32 0x616C726561647920717565756564000000000000000000000000000000000000 PUSH0 DUP3 ADD MSTORE POP JUMP JUMPDEST PUSH0 PUSH2 0xDFF PUSH1 0xE DUP4 PUSH2 0xC8A JUMP JUMPDEST SWAP2 POP PUSH2 0xE0A DUP3 PUSH2 0xDCB JUMP JUMPDEST PUSH1 0x20 DUP3 ADD SWAP1 POP SWAP2 SWAP1 POP JUMP JUMPDEST PUSH0 PUSH1 0x20 DUP3 ADD SWAP1 POP DUP2 DUP2 SUB PUSH0 DUP4 ADD MSTORE PUSH2 0xE2C DUP2 PUSH2 0xDF3 JUMP JUMPDEST SWAP1 POP SWAP2 SWAP1 POP JUMP JUMPDEST PUSH32 0x4E487B7100000000000000000000000000000000000000000000000000000000 PUSH0 MSTORE PUSH1 0x11 PUSH1 0x4 MSTORE PUSH1 0x24 PUSH0 REVERT JUMPDEST PUSH0 PUSH2 0xE6A DUP3 PUSH2 0x8EF JUMP JUMPDEST SWAP2 POP PUSH2 0xE75 DUP4 PUSH2 0x8EF JUMP JUMPDEST SWAP3 POP DUP3 DUP3 ADD SWAP1 POP DUP1 DUP3 GT ISZERO PUSH2 0xE8D JUMPI PUSH2 0xE8C PUSH2 0xE33 JUMP JUMPDEST JUMPDEST SWAP3 SWAP2 POP POP JUMP JUMPDEST PUSH32 0x696E76616C69642074696D657374616D70000000000000000000000000000000 PUSH0 DUP3 ADD MSTORE POP JUMP JUMPDEST PUSH0 PUSH2 0xEC7 PUSH1 0x11 DUP4 PUSH2 0xC8A JUMP JUMPDEST SWAP2 POP PUSH2 0xED2 DUP3 PUSH2 0xE93 JUMP JUMPDEST PUSH1 0x20 DUP3 ADD SWAP1 POP SWAP2 SWAP1 POP JUMP JUMPDEST PUSH0 PUSH1 0x20 DUP3 ADD SWAP1 POP DUP2 DUP2 SUB PUSH0 DUP4 ADD MSTORE PUSH2 0xEF4 DUP2 PUSH2 0xEBB JUMP JUMPDEST SWAP1 POP SWAP2 SWAP1 POP JUMP JUMPDEST PUSH0 PUSH1 0x80 DUP3 ADD SWAP1 POP PUSH2 0xF0E PUSH0 DUP4 ADD DUP10 PUSH2 0x8F8 JUMP JUMPDEST DUP2 DUP2 SUB PUSH1 0x20 DUP4 ADD MSTORE PUSH2 0xF21 DUP2 DUP8 DUP10 PUSH2 0xD10 JUMP JUMPDEST SWAP1 POP DUP2 DUP2 SUB PUSH1 0x40 DUP4 ADD MSTORE PUSH2 0xF36 DUP2 DUP6 DUP8 PUSH2 0xD3C JUMP JUMPDEST SWAP1 POP PUSH2 0xF45 PUSH1 0x60 DUP4 ADD DUP5 PUSH2 0x8F8 JUMP JUMPDEST SWAP8 SWAP7 POP POP POP POP POP POP POP JUMP JUMPDEST PUSH32 0x6E6F742071756575656421000000000000000000000000000000000000000000 PUSH0 DUP3 ADD MSTORE POP JUMP JUMPDEST PUSH0 PUSH2 0xF84 PUSH1 0xB DUP4 PUSH2 0xC8A JUMP JUMPDEST SWAP2 POP PUSH2 0xF8F DUP3 PUSH2 0xF50 JUMP JUMPDEST PUSH1 0x20 DUP3 ADD SWAP1 POP SWAP2 SWAP1 POP JUMP JUMPDEST PUSH0 PUSH1 0x20 DUP3 ADD SWAP1 POP DUP2 DUP2 SUB PUSH0 DUP4 ADD MSTORE PUSH2 0xFB1 DUP2 PUSH2 0xF78 JUMP JUMPDEST SWAP1 POP SWAP2 SWAP1 POP JUMP JUMPDEST PUSH32 0x746F6F206561726C792100000000000000000000000000000000000000000000 PUSH0 DUP3 ADD MSTORE POP JUMP JUMPDEST PUSH0 PUSH2 0xFEC PUSH1 0xA DUP4 PUSH2 0xC8A JUMP JUMPDEST SWAP2 POP PUSH2 0xFF7 DUP3 PUSH2 0xFB8 JUMP JUMPDEST PUSH1 0x20 DUP3 ADD SWAP1 POP SWAP2 SWAP1 POP JUMP JUMPDEST PUSH0 PUSH1 0x20 DUP3 ADD SWAP1 POP DUP2 DUP2 SUB PUSH0 DUP4 ADD MSTORE PUSH2 0x1019 DUP2 PUSH2 0xFE0 JUMP JUMPDEST SWAP1 POP SWAP2 SWAP1 POP JUMP JUMPDEST PUSH32 0x746F6F206C617465210000000000000000000000000000000000000000000000 PUSH0 DUP3 ADD MSTORE POP JUMP JUMPDEST PUSH0 PUSH2 0x1054 PUSH1 0x9 DUP4 PUSH2 0xC8A JUMP JUMPDEST SWAP2 POP PUSH2 0x105F DUP3 PUSH2 0x1020 JUMP JUMPDEST PUSH1 0x20 DUP3 ADD SWAP1 POP SWAP2 SWAP1 POP JUMP JUMPDEST PUSH0 PUSH1 0x20 DUP3 ADD SWAP1 POP DUP2 DUP2 SUB PUSH0 DUP4 ADD MSTORE PUSH2 0x1081 DUP2 PUSH2 0x1048 JUMP JUMPDEST SWAP1 POP SWAP2 SWAP1 POP JUMP JUMPDEST PUSH0 DUP2 SWAP1 POP SWAP3 SWAP2 POP POP JUMP JUMPDEST PUSH0 PUSH2 0x109D DUP4 DUP6 PUSH2 0x1088 JUMP JUMPDEST SWAP4 POP PUSH2 0x10AA DUP4 DUP6 DUP5 PUSH2 0xD02 JUMP JUMPDEST DUP3 DUP5 ADD SWAP1 POP SWAP4 SWAP3 POP POP POP JUMP JUMPDEST PUSH0 PUSH2 0x10C2 DUP3 DUP5 DUP7 PUSH2 0x1092 JUMP JUMPDEST SWAP2 POP DUP2 SWAP1 POP SWAP4 SWAP3 POP POP POP JUMP JUMPDEST PUSH0 PUSH32 0xFFFFFFFF00000000000000000000000000000000000000000000000000000000 DUP3 AND SWAP1 POP SWAP2 SWAP1 POP JUMP JUMPDEST PUSH0 DUP2 SWAP1 POP SWAP2 SWAP1 POP JUMP JUMPDEST PUSH2 0x1113 PUSH2 0x110E DUP3 PUSH2 0x10CE JUMP JUMPDEST PUSH2 0x10F9 JUMP JUMPDEST DUP3 MSTORE POP POP JUMP JUMPDEST PUSH0 PUSH2 0x1124 DUP3 DUP7 PUSH2 0x1102 JUMP JUMPDEST PUSH1 0x4 DUP3 ADD SWAP2 POP PUSH2 0x1135 DUP3 DUP5 DUP7 PUSH2 0x1092 JUMP JUMPDEST SWAP2 POP DUP2 SWAP1 POP SWAP5 SWAP4 POP POP POP POP JUMP JUMPDEST PUSH0 PUSH2 0x114C DUP3 PUSH2 0xBFA JUMP JUMPDEST PUSH2 0x1156 DUP2 DUP6 PUSH2 0x1088 JUMP JUMPDEST SWAP4 POP PUSH2 0x1166 DUP2 DUP6 PUSH1 0x20 DUP7 ADD PUSH2 0xC14 JUMP JUMPDEST DUP1 DUP5 ADD SWAP2 POP POP SWAP3 SWAP2 POP POP JUMP JUMPDEST PUSH0 PUSH2 0x117D DUP3 DUP5 PUSH2 0x1142 JUMP JUMPDEST SWAP2 POP DUP2 SWAP1 POP SWAP3 SWAP2 POP POP JUMP JUMPDEST PUSH32 0x7478206661696C65642100000000000000000000000000000000000000000000 PUSH0 DUP3 ADD MSTORE POP JUMP JUMPDEST PUSH0 PUSH2 0x11BC PUSH1 0xA DUP4 PUSH2 0xC8A JUMP JUMPDEST SWAP2 POP PUSH2 0x11C7 DUP3 PUSH2 0x1188 JUMP JUMPDEST PUSH1 0x20 DUP3 ADD SWAP1 POP SWAP2 SWAP1 POP JUMP JUMPDEST PUSH0 PUSH1 0x20 DUP3 ADD SWAP1 POP DUP2 DUP2 SUB PUSH0 DUP4 ADD MSTORE PUSH2 0x11E9 DUP2 PUSH2 0x11B0 JUMP JUMPDEST SWAP1 POP SWAP2 SWAP1 POP JUMP INVALID LOG2 PUSH5 0x6970667358 0x22 SLT KECCAK256 CALLDATASIZE 0xE6 PUSH24 0x3C159B316E0E776F00AD4F491C48AF4D2239ED004B313C42 DUP7 0x25 PUSH0 0xBC PUSH20 0x64736F6C634300081A0033000000000000000000 "
				},
				"gasEstimates": {
					"creation": {
						"codeDepositCost": "929200",
						"executionCost": "25231",
						"totalCost": "954431"
					},
					"external": {
						"EXPIRY_DELAY()": "391",
						"MAX_DELAY()": "326",
						"MIN_DELAY()": "325",
						"cancel(bytes32)": "29156",
						"execute(address,uint256,string,bytes,uint256)": "infinite",
						"owner()": "2572",
						"queue(address,uint256,string,bytes,uint256)": "infinite",
						"queuedTxs(bytes32)": "2830"
					}
				},
				"methodIdentifiers": {
					"EXPIRY_DELAY()": "d783847c",
					"MAX_DELAY()": "4125ff90",
					"MIN_DELAY()": "9f81aed7",
					"cancel(bytes32)": "c4d252f5",
					"execute(address,uint256,string,bytes,uint256)": "b0f8b142",
					"owner()": "8da5cb5b",
					"queue(address,uint256,string,bytes,uint256)": "4b9915a5",
					"queuedTxs(bytes32)": "530534df"
				}
			},
			"storageLayout": {
				"storage": [
					{
						"astId": 3,
						"contract": "contracts/timelock/Timelock.sol:Timelock",
						"label": "owner",
						"offset": 0,
						"slot": "0",
						"type": "t_address"
					},
					{
						"astId": 16,
						"contract": "contracts/timelock/Timelock.sol:Timelock",
						"label": "queuedTxs",
						"offset": 0,
						"slot": "1",
						"type": "t_mapping(t_bytes32,t_bool)"
					}
				],
				"types": {
					"t_address": {
						"encoding": "inplace",
						"label": "address",
						"numberOfBytes": "20"
					},
					"t_bool": {
						"encoding": "inplace",
						"label": "bool",
						"numberOfBytes": "1"
					},
					"t_bytes32": {
						"encoding": "inplace",
						"label": "bytes32",
						"numberOfBytes": "32"
					},
					"t_mapping(t_bytes32,t_bool)": {
						"encoding": "mapping",
						"key": "t_bytes32",
						"label": "mapping(bytes32 => bool)",
						"numberOfBytes": "32",
						"value": "t_bool"
					}
				}
			},
			"userdoc": {
				"kind": "user",
				"methods": {},
				"version": 1
			}
		}
	}
}