{
	"crowdfunding/Crowdfunding.sol": {
		"Crowdfunding": {
			"abi": [
				{
					"inputs": [
						{
							"internalType": "address",
							"name": "_token",
							"type": "address"
						}
					],
					"stateMutability": "nonpayable",
					"type": "constructor"
				},
				{
					"anonymous": false,
					"inputs": [
						{
							"indexed": false,
							"internalType": "uint256",
							"name": "id",
							"type": "uint256"
						}
					],
					"name": "Canceled",
					"type": "event"
				},
				{
					"anonymous": false,
					"inputs": [
						{
							"indexed": false,
							"internalType": "uint256",
							"name": "id",
							"type": "uint256"
						}
					],
					"name": "Claimed",
					"type": "event"
				},
				{
					"anonymous": false,
					"inputs": [
						{
							"indexed": false,
							"internalType": "uint256",
							"name": "id",
							"type": "uint256"
						},
						{
							"indexed": false,
							"internalType": "address",
							"name": "owner",
							"type": "address"
						},
						{
							"indexed": false,
							"internalType": "uint256",
							"name": "goal",
							"type": "uint256"
						},
						{
							"indexed": false,
							"internalType": "uint256",
							"name": "startAt",
							"type": "uint256"
						},
						{
							"indexed": false,
							"internalType": "uint256",
							"name": "endAt",
							"type": "uint256"
						}
					],
					"name": "Launched",
					"type": "event"
				},
				{
					"anonymous": false,
					"inputs": [
						{
							"indexed": false,
							"internalType": "uint256",
							"name": "id",
							"type": "uint256"
						},
						{
							"indexed": false,
							"internalType": "address",
							"name": "pledger",
							"type": "address"
						},
						{
							"indexed": false,
							"internalType": "uint256",
							"name": "amount",
							"type": "uint256"
						}
					],
					"name": "Pledged",
					"type": "event"
				},
				{
					"anonymous": false,
					"inputs": [
						{
							"indexed": false,
							"internalType": "uint256",
							"name": "id",
							"type": "uint256"
						},
						{
							"indexed": false,
							"internalType": "address",
							"name": "pledget",
							"type": "address"
						},
						{
							"indexed": false,
							"internalType": "uint256",
							"name": "amount",
							"type": "uint256"
						}
					],
					"name": "Refunded",
					"type": "event"
				},
				{
					"anonymous": false,
					"inputs": [
						{
							"indexed": false,
							"internalType": "uint256",
							"name": "id",
							"type": "uint256"
						},
						{
							"indexed": false,
							"internalType": "address",
							"name": "pledger",
							"type": "address"
						},
						{
							"indexed": false,
							"internalType": "uint256",
							"name": "amount",
							"type": "uint256"
						}
					],
					"name": "Unpledged",
					"type": "event"
				},
				{
					"inputs": [],
					"name": "MAX_DURATION",
					"outputs": [
						{
							"internalType": "uint256",
							"name": "",
							"type": "uint256"
						}
					],
					"stateMutability": "view",
					"type": "function"
				},
				{
					"inputs": [],
					"name": "MIN_DURATION",
					"outputs": [
						{
							"internalType": "uint256",
							"name": "",
							"type": "uint256"
						}
					],
					"stateMutability": "view",
					"type": "function"
				},
				{
					"inputs": [
						{
							"internalType": "uint256",
							"name": "_id",
							"type": "uint256"
						}
					],
					"name": "cancel",
					"outputs": [],
					"stateMutability": "nonpayable",
					"type": "function"
				},
				{
					"inputs": [
						{
							"internalType": "uint256",
							"name": "_id",
							"type": "uint256"
						}
					],
					"name": "claim",
					"outputs": [],
					"stateMutability": "nonpayable",
					"type": "function"
				},
				{
					"inputs": [
						{
							"internalType": "uint256",
							"name": "",
							"type": "uint256"
						}
					],
					"name": "companies",
					"outputs": [
						{
							"internalType": "address",
							"name": "owner",
							"type": "address"
						},
						{
							"internalType": "uint256",
							"name": "goal",
							"type": "uint256"
						},
						{
							"internalType": "uint256",
							"name": "pledged",
							"type": "uint256"
						},
						{
							"internalType": "uint256",
							"name": "startAt",
							"type": "uint256"
						},
						{
							"internalType": "uint256",
							"name": "endAt",
							"type": "uint256"
						},
						{
							"internalType": "bool",
							"name": "claimed",
							"type": "bool"
						}
					],
					"stateMutability": "view",
					"type": "function"
				},
				{
					"inputs": [],
					"name": "currentId",
					"outputs": [
						{
							"internalType": "uint256",
							"name": "",
							"type": "uint256"
						}
					],
					"stateMutability": "view",
					"type": "function"
				},
				{
					"inputs": [],
					"name": "getTestTime",
					"outputs": [
						{
							"internalType": "uint256",
							"name": "",
							"type": "uint256"
						},
						{
							"internalType": "uint256",
							"name": "",
							"type": "uint256"
						}
					],
					"stateMutability": "view",
					"type": "function"
				},
				{
					"inputs": [
						{
							"internalType": "uint256",
							"name": "_goal",
							"type": "uint256"
						},
						{
							"internalType": "uint256",
							"name": "_startAt",
							"type": "uint256"
						},
						{
							"internalType": "uint256",
							"name": "_endAt",
							"type": "uint256"
						}
					],
					"name": "launch",
					"outputs": [],
					"stateMutability": "nonpayable",
					"type": "function"
				},
				{
					"inputs": [
						{
							"internalType": "uint256",
							"name": "_id",
							"type": "uint256"
						},
						{
							"internalType": "uint256",
							"name": "_amount",
							"type": "uint256"
						}
					],
					"name": "pledge",
					"outputs": [],
					"stateMutability": "nonpayable",
					"type": "function"
				},
				{
					"inputs": [
						{
							"internalType": "uint256",
							"name": "_id",
							"type": "uint256"
						}
					],
					"name": "refund",
					"outputs": [],
					"stateMutability": "nonpayable",
					"type": "function"
				},
				{
					"inputs": [],
					"name": "token",
					"outputs": [
						{
							"internalType": "contract IERC20",
							"name": "",
							"type": "address"
						}
					],
					"stateMutability": "view",
					"type": "function"
				},
				{
					"inputs": [
						{
							"internalType": "uint256",
							"name": "_id",
							"type": "uint256"
						},
						{
							"internalType": "uint256",
							"name": "_amount",
							"type": "uint256"
						}
					],
					"name": "unpledge",
					"outputs": [],
					"stateMutability": "nonpayable",
					"type": "function"
				}
			],
			"devdoc": {
				"kind": "dev",
				"methods": {},
				"version": 1
			},
			"evm": {
				"assembly": "    /* \"crowdfunding/Crowdfunding.sol\":130:3829  contract Crowdfunding {... */\n  mstore(0x40, 0xa0)\n    /* \"crowdfunding/Crowdfunding.sol\":892:959  constructor(address _token) {... */\n  callvalue\n  dup1\n  iszero\n  tag_1\n  jumpi\n  0x00\n  dup1\n  revert\ntag_1:\n  pop\n  mload(0x40)\n  sub(codesize, bytecodeSize)\n  dup1\n  bytecodeSize\n  dup4\n  codecopy\n  dup2\n  dup2\n  add\n  0x40\n  mstore\n  dup2\n  add\n  swap1\n  tag_2\n  swap2\n  swap1\n  tag_3\n  jump\t// in\ntag_2:\n    /* \"crowdfunding/Crowdfunding.sol\":945:951  _token */\n  dup1\n    /* \"crowdfunding/Crowdfunding.sol\":930:952  token = IERC20(_token) */\n  0xffffffffffffffffffffffffffffffffffffffff\n  and\n  0x80\n  dup2\n  0xffffffffffffffffffffffffffffffffffffffff\n  and\n  dup2\n  mstore\n  pop\n  pop\n    /* \"crowdfunding/Crowdfunding.sol\":892:959  constructor(address _token) {... */\n  pop\n    /* \"crowdfunding/Crowdfunding.sol\":130:3829  contract Crowdfunding {... */\n  jump(tag_6)\n    /* \"#utility.yul\":88:205   */\ntag_8:\n    /* \"#utility.yul\":197:198   */\n  0x00\n    /* \"#utility.yul\":194:195   */\n  dup1\n    /* \"#utility.yul\":187:199   */\n  revert\n    /* \"#utility.yul\":334:460   */\ntag_10:\n    /* \"#utility.yul\":371:378   */\n  0x00\n    /* \"#utility.yul\":411:453   */\n  0xffffffffffffffffffffffffffffffffffffffff\n    /* \"#utility.yul\":404:409   */\n  dup3\n    /* \"#utility.yul\":400:454   */\n  and\n    /* \"#utility.yul\":389:454   */\n  swap1\n  pop\n    /* \"#utility.yul\":334:460   */\n  swap2\n  swap1\n  pop\n  jump\t// out\n    /* \"#utility.yul\":466:562   */\ntag_11:\n    /* \"#utility.yul\":503:510   */\n  0x00\n    /* \"#utility.yul\":532:556   */\n  tag_20\n    /* \"#utility.yul\":550:555   */\n  dup3\n    /* \"#utility.yul\":532:556   */\n  tag_10\n  jump\t// in\ntag_20:\n    /* \"#utility.yul\":521:556   */\n  swap1\n  pop\n    /* \"#utility.yul\":466:562   */\n  swap2\n  swap1\n  pop\n  jump\t// out\n    /* \"#utility.yul\":568:690   */\ntag_12:\n    /* \"#utility.yul\":641:665   */\n  tag_22\n    /* \"#utility.yul\":659:664   */\n  dup2\n    /* \"#utility.yul\":641:665   */\n  tag_11\n  jump\t// in\ntag_22:\n    /* \"#utility.yul\":634:639   */\n  dup2\n    /* \"#utility.yul\":631:666   */\n  eq\n    /* \"#utility.yul\":621:684   */\n  tag_23\n  jumpi\n    /* \"#utility.yul\":680:681   */\n  0x00\n    /* \"#utility.yul\":677:678   */\n  dup1\n    /* \"#utility.yul\":670:682   */\n  revert\n    /* \"#utility.yul\":621:684   */\ntag_23:\n    /* \"#utility.yul\":568:690   */\n  pop\n  jump\t// out\n    /* \"#utility.yul\":696:839   */\ntag_13:\n    /* \"#utility.yul\":753:758   */\n  0x00\n    /* \"#utility.yul\":784:790   */\n  dup2\n    /* \"#utility.yul\":778:791   */\n  mload\n    /* \"#utility.yul\":769:791   */\n  swap1\n  pop\n    /* \"#utility.yul\":800:833   */\n  tag_25\n    /* \"#utility.yul\":827:832   */\n  dup2\n    /* \"#utility.yul\":800:833   */\n  tag_12\n  jump\t// in\ntag_25:\n    /* \"#utility.yul\":696:839   */\n  swap3\n  swap2\n  pop\n  pop\n  jump\t// out\n    /* \"#utility.yul\":845:1196   */\ntag_3:\n    /* \"#utility.yul\":915:921   */\n  0x00\n    /* \"#utility.yul\":964:966   */\n  0x20\n    /* \"#utility.yul\":952:961   */\n  dup3\n    /* \"#utility.yul\":943:950   */\n  dup5\n    /* \"#utility.yul\":939:962   */\n  sub\n    /* \"#utility.yul\":935:967   */\n  slt\n    /* \"#utility.yul\":932:1051   */\n  iszero\n  tag_27\n  jumpi\n    /* \"#utility.yul\":970:1049   */\n  tag_28\n  tag_8\n  jump\t// in\ntag_28:\n    /* \"#utility.yul\":932:1051   */\ntag_27:\n    /* \"#utility.yul\":1090:1091   */\n  0x00\n    /* \"#utility.yul\":1115:1179   */\n  tag_29\n    /* \"#utility.yul\":1171:1178   */\n  dup5\n    /* \"#utility.yul\":1162:1168   */\n  dup3\n    /* \"#utility.yul\":1151:1160   */\n  dup6\n    /* \"#utility.yul\":1147:1169   */\n  add\n    /* \"#utility.yul\":1115:1179   */\n  tag_13\n  jump\t// in\ntag_29:\n    /* \"#utility.yul\":1105:1179   */\n  swap2\n  pop\n    /* \"#utility.yul\":1061:1189   */\n  pop\n    /* \"#utility.yul\":845:1196   */\n  swap3\n  swap2\n  pop\n  pop\n  jump\t// out\n    /* \"crowdfunding/Crowdfunding.sol\":130:3829  contract Crowdfunding {... */\ntag_6:\n  mload(0x80)\n  codecopy(0x00, dataOffset(sub_0), dataSize(sub_0))\n  0x00\n  assignImmutable(\"0x8fef2229291b68be841adf029e58b87f39ba144b2d3b0af1760243d0a9bc6a1c\")\n  return(0x00, dataSize(sub_0))\nstop\n\nsub_0: assembly {\n        /* \"crowdfunding/Crowdfunding.sol\":130:3829  contract Crowdfunding {... */\n      mstore(0x40, 0x80)\n      callvalue\n      dup1\n      iszero\n      tag_1\n      jumpi\n      0x00\n      dup1\n      revert\n    tag_1:\n      pop\n      jumpi(tag_2, lt(calldatasize, 0x04))\n      shr(0xe0, calldataload(0x00))\n      dup1\n      0x8736c179\n      gt\n      tag_15\n      jumpi\n      dup1\n      0x8736c179\n      eq\n      tag_9\n      jumpi\n      dup1\n      0xb1724b46\n      eq\n      tag_10\n      jumpi\n      dup1\n      0xb6a6d177\n      eq\n      tag_11\n      jumpi\n      dup1\n      0xe00dd161\n      eq\n      tag_12\n      jumpi\n      dup1\n      0xfc0c546a\n      eq\n      tag_13\n      jumpi\n      dup1\n      0xfde327be\n      eq\n      tag_14\n      jumpi\n      jump(tag_2)\n    tag_15:\n      dup1\n      0x23c9f684\n      eq\n      tag_3\n      jumpi\n      dup1\n      0x278ecde1\n      eq\n      tag_4\n      jumpi\n      dup1\n      0x2813d19d\n      eq\n      tag_5\n      jumpi\n      dup1\n      0x379607f5\n      eq\n      tag_6\n      jumpi\n      dup1\n      0x40e58ee5\n      eq\n      tag_7\n      jumpi\n      dup1\n      0x711853ab\n      eq\n      tag_8\n      jumpi\n    tag_2:\n      0x00\n      dup1\n      revert\n        /* \"crowdfunding/Crowdfunding.sol\":3702:3827  function getTestTime() public view returns (uint256, uint256) {... */\n    tag_3:\n      tag_16\n      tag_17\n      jump\t// in\n    tag_16:\n      mload(0x40)\n      tag_18\n      swap3\n      swap2\n      swap1\n      tag_19\n      jump\t// in\n    tag_18:\n      mload(0x40)\n      dup1\n      swap2\n      sub\n      swap1\n      return\n        /* \"crowdfunding/Crowdfunding.sol\":3181:3601  function refund(uint _id) external {... */\n    tag_4:\n      tag_20\n      0x04\n      dup1\n      calldatasize\n      sub\n      dup2\n      add\n      swap1\n      tag_21\n      swap2\n      swap1\n      tag_22\n      jump\t// in\n    tag_21:\n      tag_23\n      jump\t// in\n    tag_20:\n      stop\n        /* \"crowdfunding/Crowdfunding.sol\":405:446  mapping(uint => Company) public companies */\n    tag_5:\n      tag_24\n      0x04\n      dup1\n      calldatasize\n      sub\n      dup2\n      add\n      swap1\n      tag_25\n      swap2\n      swap1\n      tag_22\n      jump\t// in\n    tag_25:\n      tag_26\n      jump\t// in\n    tag_24:\n      mload(0x40)\n      tag_27\n      swap7\n      swap6\n      swap5\n      swap4\n      swap3\n      swap2\n      swap1\n      tag_28\n      jump\t// in\n    tag_27:\n      mload(0x40)\n      dup1\n      swap2\n      sub\n      swap1\n      return\n        /* \"crowdfunding/Crowdfunding.sol\":2712:3175  function claim(uint _id) external {... */\n    tag_6:\n      tag_29\n      0x04\n      dup1\n      calldatasize\n      sub\n      dup2\n      add\n      swap1\n      tag_30\n      swap2\n      swap1\n      tag_22\n      jump\t// in\n    tag_30:\n      tag_31\n      jump\t// in\n    tag_29:\n      stop\n        /* \"crowdfunding/Crowdfunding.sol\":1638:1922  function cancel(uint _id) external {... */\n    tag_7:\n      tag_32\n      0x04\n      dup1\n      calldatasize\n      sub\n      dup2\n      add\n      swap1\n      tag_33\n      swap2\n      swap1\n      tag_22\n      jump\t// in\n    tag_33:\n      tag_34\n      jump\t// in\n    tag_32:\n      stop\n        /* \"crowdfunding/Crowdfunding.sol\":2362:2706  function unpledge(uint _id, uint _amount) external {... */\n    tag_8:\n      tag_35\n      0x04\n      dup1\n      calldatasize\n      sub\n      dup2\n      add\n      swap1\n      tag_36\n      swap2\n      swap1\n      tag_37\n      jump\t// in\n    tag_36:\n      tag_38\n      jump\t// in\n    tag_35:\n      stop\n        /* \"crowdfunding/Crowdfunding.sol\":965:1632  function launch(uint _goal, uint _startAt, uint _endAt) external {... */\n    tag_9:\n      tag_39\n      0x04\n      dup1\n      calldatasize\n      sub\n      dup2\n      add\n      swap1\n      tag_40\n      swap2\n      swap1\n      tag_41\n      jump\t// in\n    tag_40:\n      tag_42\n      jump\t// in\n    tag_39:\n      stop\n        /* \"crowdfunding/Crowdfunding.sol\":481:525  uint public constant MAX_DURATION = 100 days */\n    tag_10:\n      tag_43\n      tag_44\n      jump\t// in\n    tag_43:\n      mload(0x40)\n      tag_45\n      swap2\n      swap1\n      tag_46\n      jump\t// in\n    tag_45:\n      mload(0x40)\n      dup1\n      swap2\n      sub\n      swap1\n      return\n        /* \"crowdfunding/Crowdfunding.sol\":531:569  uint public constant MIN_DURATION = 10 */\n    tag_11:\n      tag_47\n      tag_48\n      jump\t// in\n    tag_47:\n      mload(0x40)\n      tag_49\n      swap2\n      swap1\n      tag_46\n      jump\t// in\n    tag_49:\n      mload(0x40)\n      dup1\n      swap2\n      sub\n      swap1\n      return\n        /* \"crowdfunding/Crowdfunding.sol\":453:474  uint public currentId */\n    tag_12:\n      tag_50\n      tag_51\n      jump\t// in\n    tag_50:\n      mload(0x40)\n      tag_52\n      swap2\n      swap1\n      tag_46\n      jump\t// in\n    tag_52:\n      mload(0x40)\n      dup1\n      swap2\n      sub\n      swap1\n      return\n        /* \"crowdfunding/Crowdfunding.sol\":314:343  IERC20 public immutable token */\n    tag_13:\n      tag_53\n      tag_54\n      jump\t// in\n    tag_53:\n      mload(0x40)\n      tag_55\n      swap2\n      swap1\n      tag_56\n      jump\t// in\n    tag_55:\n      mload(0x40)\n      dup1\n      swap2\n      sub\n      swap1\n      return\n        /* \"crowdfunding/Crowdfunding.sol\":1928:2356  function pledge(uint _id, uint _amount) external {... */\n    tag_14:\n      tag_57\n      0x04\n      dup1\n      calldatasize\n      sub\n      dup2\n      add\n      swap1\n      tag_58\n      swap2\n      swap1\n      tag_37\n      jump\t// in\n    tag_58:\n      tag_59\n      jump\t// in\n    tag_57:\n      stop\n        /* \"crowdfunding/Crowdfunding.sol\":3702:3827  function getTestTime() public view returns (uint256, uint256) {... */\n    tag_17:\n        /* \"crowdfunding/Crowdfunding.sol\":3746:3753  uint256 */\n      0x00\n        /* \"crowdfunding/Crowdfunding.sol\":3755:3762  uint256 */\n      dup1\n        /* \"crowdfunding/Crowdfunding.sol\":3782:3797  block.timestamp */\n      timestamp\n        /* \"crowdfunding/Crowdfunding.sol\":3817:3819  40 */\n      0x28\n        /* \"crowdfunding/Crowdfunding.sol\":3799:3814  block.timestamp */\n      timestamp\n        /* \"crowdfunding/Crowdfunding.sol\":3799:3819  block.timestamp + 40 */\n      tag_61\n      swap2\n      swap1\n      tag_62\n      jump\t// in\n    tag_61:\n        /* \"crowdfunding/Crowdfunding.sol\":3774:3820  return (block.timestamp, block.timestamp + 40) */\n      swap2\n      pop\n      swap2\n      pop\n        /* \"crowdfunding/Crowdfunding.sol\":3702:3827  function getTestTime() public view returns (uint256, uint256) {... */\n      swap1\n      swap2\n      jump\t// out\n        /* \"crowdfunding/Crowdfunding.sol\":3181:3601  function refund(uint _id) external {... */\n    tag_23:\n        /* \"crowdfunding/Crowdfunding.sol\":3226:3249  Company storage company */\n      0x00\n        /* \"crowdfunding/Crowdfunding.sol\":3252:3261  companies */\n      0x01\n        /* \"crowdfunding/Crowdfunding.sol\":3252:3266  companies[_id] */\n      0x00\n        /* \"crowdfunding/Crowdfunding.sol\":3262:3265  _id */\n      dup4\n        /* \"crowdfunding/Crowdfunding.sol\":3252:3266  companies[_id] */\n      dup2\n      mstore\n      0x20\n      add\n      swap1\n      dup2\n      mstore\n      0x20\n      add\n      0x00\n      keccak256\n        /* \"crowdfunding/Crowdfunding.sol\":3226:3266  Company storage company = companies[_id] */\n      swap1\n      pop\n        /* \"crowdfunding/Crowdfunding.sol\":3302:3309  company */\n      dup1\n        /* \"crowdfunding/Crowdfunding.sol\":3302:3315  company.endAt */\n      0x04\n      add\n      sload\n        /* \"crowdfunding/Crowdfunding.sol\":3284:3299  block.timestamp */\n      timestamp\n        /* \"crowdfunding/Crowdfunding.sol\":3284:3315  block.timestamp > company.endAt */\n      gt\n        /* \"crowdfunding/Crowdfunding.sol\":3276:3329  require(block.timestamp > company.endAt, \"not ended\") */\n      tag_64\n      jumpi\n      mload(0x40)\n      0x08c379a000000000000000000000000000000000000000000000000000000000\n      dup2\n      mstore\n      0x04\n      add\n      tag_65\n      swap1\n      tag_66\n      jump\t// in\n    tag_65:\n      mload(0x40)\n      dup1\n      swap2\n      sub\n      swap1\n      revert\n    tag_64:\n        /* \"crowdfunding/Crowdfunding.sol\":3365:3372  company */\n      dup1\n        /* \"crowdfunding/Crowdfunding.sol\":3365:3377  company.goal */\n      0x01\n      add\n      sload\n        /* \"crowdfunding/Crowdfunding.sol\":3347:3354  company */\n      dup2\n        /* \"crowdfunding/Crowdfunding.sol\":3347:3362  company.pledged */\n      0x02\n      add\n      sload\n        /* \"crowdfunding/Crowdfunding.sol\":3347:3377  company.pledged < company.goal */\n      lt\n        /* \"crowdfunding/Crowdfunding.sol\":3339:3394  require(company.pledged < company.goal, \"reached goal\") */\n      tag_67\n      jumpi\n      mload(0x40)\n      0x08c379a000000000000000000000000000000000000000000000000000000000\n      dup2\n      mstore\n      0x04\n      add\n      tag_68\n      swap1\n      tag_69\n      jump\t// in\n    tag_68:\n      mload(0x40)\n      dup1\n      swap2\n      sub\n      swap1\n      revert\n    tag_67:\n        /* \"crowdfunding/Crowdfunding.sol\":3405:3423  uint pledgedAmount */\n      0x00\n        /* \"crowdfunding/Crowdfunding.sol\":3426:3433  pledges */\n      dup1\n        /* \"crowdfunding/Crowdfunding.sol\":3426:3438  pledges[_id] */\n      0x00\n        /* \"crowdfunding/Crowdfunding.sol\":3434:3437  _id */\n      dup5\n        /* \"crowdfunding/Crowdfunding.sol\":3426:3438  pledges[_id] */\n      dup2\n      mstore\n      0x20\n      add\n      swap1\n      dup2\n      mstore\n      0x20\n      add\n      0x00\n      keccak256\n        /* \"crowdfunding/Crowdfunding.sol\":3426:3450  pledges[_id][msg.sender] */\n      0x00\n        /* \"crowdfunding/Crowdfunding.sol\":3439:3449  msg.sender */\n      caller\n        /* \"crowdfunding/Crowdfunding.sol\":3426:3450  pledges[_id][msg.sender] */\n      0xffffffffffffffffffffffffffffffffffffffff\n      and\n      0xffffffffffffffffffffffffffffffffffffffff\n      and\n      dup2\n      mstore\n      0x20\n      add\n      swap1\n      dup2\n      mstore\n      0x20\n      add\n      0x00\n      keccak256\n      sload\n        /* \"crowdfunding/Crowdfunding.sol\":3405:3450  uint pledgedAmount = pledges[_id][msg.sender] */\n      swap1\n      pop\n        /* \"crowdfunding/Crowdfunding.sol\":3487:3488  0 */\n      0x00\n        /* \"crowdfunding/Crowdfunding.sol\":3460:3467  pledges */\n      dup1\n        /* \"crowdfunding/Crowdfunding.sol\":3460:3472  pledges[_id] */\n      0x00\n        /* \"crowdfunding/Crowdfunding.sol\":3468:3471  _id */\n      dup6\n        /* \"crowdfunding/Crowdfunding.sol\":3460:3472  pledges[_id] */\n      dup2\n      mstore\n      0x20\n      add\n      swap1\n      dup2\n      mstore\n      0x20\n      add\n      0x00\n      keccak256\n        /* \"crowdfunding/Crowdfunding.sol\":3460:3484  pledges[_id][msg.sender] */\n      0x00\n        /* \"crowdfunding/Crowdfunding.sol\":3473:3483  msg.sender */\n      caller\n        /* \"crowdfunding/Crowdfunding.sol\":3460:3484  pledges[_id][msg.sender] */\n      0xffffffffffffffffffffffffffffffffffffffff\n      and\n      0xffffffffffffffffffffffffffffffffffffffff\n      and\n      dup2\n      mstore\n      0x20\n      add\n      swap1\n      dup2\n      mstore\n      0x20\n      add\n      0x00\n      keccak256\n        /* \"crowdfunding/Crowdfunding.sol\":3460:3488  pledges[_id][msg.sender] = 0 */\n      dup2\n      swap1\n      sstore\n      pop\n        /* \"crowdfunding/Crowdfunding.sol\":3498:3503  token */\n      immutable(\"0x8fef2229291b68be841adf029e58b87f39ba144b2d3b0af1760243d0a9bc6a1c\")\n        /* \"crowdfunding/Crowdfunding.sol\":3498:3512  token.transfer */\n      0xffffffffffffffffffffffffffffffffffffffff\n      and\n      0xa9059cbb\n        /* \"crowdfunding/Crowdfunding.sol\":3513:3523  msg.sender */\n      caller\n        /* \"crowdfunding/Crowdfunding.sol\":3525:3538  pledgedAmount */\n      dup4\n        /* \"crowdfunding/Crowdfunding.sol\":3498:3539  token.transfer(msg.sender, pledgedAmount) */\n      mload(0x40)\n      dup4\n      0xffffffff\n      and\n      0xe0\n      shl\n      dup2\n      mstore\n      0x04\n      add\n      tag_70\n      swap3\n      swap2\n      swap1\n      tag_71\n      jump\t// in\n    tag_70:\n      0x20\n      mload(0x40)\n      dup1\n      dup4\n      sub\n      dup2\n      0x00\n      dup8\n      gas\n      call\n      iszero\n      dup1\n      iszero\n      tag_73\n      jumpi\n      returndatasize\n      0x00\n      dup1\n      returndatacopy\n      revert(0x00, returndatasize)\n    tag_73:\n      pop\n      pop\n      pop\n      pop\n      mload(0x40)\n      returndatasize\n      not(0x1f)\n      0x1f\n      dup3\n      add\n      and\n      dup3\n      add\n      dup1\n      0x40\n      mstore\n      pop\n      dup2\n      add\n      swap1\n      tag_74\n      swap2\n      swap1\n      tag_75\n      jump\t// in\n    tag_74:\n      pop\n        /* \"crowdfunding/Crowdfunding.sol\":3554:3594  Refunded(_id, msg.sender, pledgedAmount) */\n      0x7ca5472b7ea78c2c0141c5a12ee6d170cf4ce8ed06be3d22c8252ddfc7a6a2c4\n        /* \"crowdfunding/Crowdfunding.sol\":3563:3566  _id */\n      dup4\n        /* \"crowdfunding/Crowdfunding.sol\":3568:3578  msg.sender */\n      caller\n        /* \"crowdfunding/Crowdfunding.sol\":3580:3593  pledgedAmount */\n      dup4\n        /* \"crowdfunding/Crowdfunding.sol\":3554:3594  Refunded(_id, msg.sender, pledgedAmount) */\n      mload(0x40)\n      tag_76\n      swap4\n      swap3\n      swap2\n      swap1\n      tag_77\n      jump\t// in\n    tag_76:\n      mload(0x40)\n      dup1\n      swap2\n      sub\n      swap1\n      log1\n        /* \"crowdfunding/Crowdfunding.sol\":3216:3601  {... */\n      pop\n      pop\n        /* \"crowdfunding/Crowdfunding.sol\":3181:3601  function refund(uint _id) external {... */\n      pop\n      jump\t// out\n        /* \"crowdfunding/Crowdfunding.sol\":405:446  mapping(uint => Company) public companies */\n    tag_26:\n      mstore(0x20, 0x01)\n      dup1\n      0x00\n      mstore\n      keccak256(0x00, 0x40)\n      0x00\n      swap2\n      pop\n      swap1\n      pop\n      dup1\n      0x00\n      add\n      0x00\n      swap1\n      sload\n      swap1\n      0x0100\n      exp\n      swap1\n      div\n      0xffffffffffffffffffffffffffffffffffffffff\n      and\n      swap1\n      dup1\n      0x01\n      add\n      sload\n      swap1\n      dup1\n      0x02\n      add\n      sload\n      swap1\n      dup1\n      0x03\n      add\n      sload\n      swap1\n      dup1\n      0x04\n      add\n      sload\n      swap1\n      dup1\n      0x05\n      add\n      0x00\n      swap1\n      sload\n      swap1\n      0x0100\n      exp\n      swap1\n      div\n      0xff\n      and\n      swap1\n      pop\n      dup7\n      jump\t// out\n        /* \"crowdfunding/Crowdfunding.sol\":2712:3175  function claim(uint _id) external {... */\n    tag_31:\n        /* \"crowdfunding/Crowdfunding.sol\":2756:2779  Company storage company */\n      0x00\n        /* \"crowdfunding/Crowdfunding.sol\":2782:2791  companies */\n      0x01\n        /* \"crowdfunding/Crowdfunding.sol\":2782:2796  companies[_id] */\n      0x00\n        /* \"crowdfunding/Crowdfunding.sol\":2792:2795  _id */\n      dup4\n        /* \"crowdfunding/Crowdfunding.sol\":2782:2796  companies[_id] */\n      dup2\n      mstore\n      0x20\n      add\n      swap1\n      dup2\n      mstore\n      0x20\n      add\n      0x00\n      keccak256\n        /* \"crowdfunding/Crowdfunding.sol\":2756:2796  Company storage company = companies[_id] */\n      swap1\n      pop\n        /* \"crowdfunding/Crowdfunding.sol\":2828:2835  company */\n      dup1\n        /* \"crowdfunding/Crowdfunding.sol\":2828:2841  company.owner */\n      0x00\n      add\n      0x00\n      swap1\n      sload\n      swap1\n      0x0100\n      exp\n      swap1\n      div\n      0xffffffffffffffffffffffffffffffffffffffff\n      and\n        /* \"crowdfunding/Crowdfunding.sol\":2814:2841  msg.sender == company.owner */\n      0xffffffffffffffffffffffffffffffffffffffff\n      and\n        /* \"crowdfunding/Crowdfunding.sol\":2814:2824  msg.sender */\n      caller\n        /* \"crowdfunding/Crowdfunding.sol\":2814:2841  msg.sender == company.owner */\n      0xffffffffffffffffffffffffffffffffffffffff\n      and\n      eq\n        /* \"crowdfunding/Crowdfunding.sol\":2806:2858  require(msg.sender == company.owner, \"not an owner\") */\n      tag_79\n      jumpi\n      mload(0x40)\n      0x08c379a000000000000000000000000000000000000000000000000000000000\n      dup2\n      mstore\n      0x04\n      add\n      tag_80\n      swap1\n      tag_81\n      jump\t// in\n    tag_80:\n      mload(0x40)\n      dup1\n      swap2\n      sub\n      swap1\n      revert\n    tag_79:\n        /* \"crowdfunding/Crowdfunding.sol\":2894:2901  company */\n      dup1\n        /* \"crowdfunding/Crowdfunding.sol\":2894:2907  company.endAt */\n      0x04\n      add\n      sload\n        /* \"crowdfunding/Crowdfunding.sol\":2876:2891  block.timestamp */\n      timestamp\n        /* \"crowdfunding/Crowdfunding.sol\":2876:2907  block.timestamp > company.endAt */\n      gt\n        /* \"crowdfunding/Crowdfunding.sol\":2868:2921  require(block.timestamp > company.endAt, \"not ended\") */\n      tag_82\n      jumpi\n      mload(0x40)\n      0x08c379a000000000000000000000000000000000000000000000000000000000\n      dup2\n      mstore\n      0x04\n      add\n      tag_83\n      swap1\n      tag_66\n      jump\t// in\n    tag_83:\n      mload(0x40)\n      dup1\n      swap2\n      sub\n      swap1\n      revert\n    tag_82:\n        /* \"crowdfunding/Crowdfunding.sol\":2958:2965  company */\n      dup1\n        /* \"crowdfunding/Crowdfunding.sol\":2958:2970  company.goal */\n      0x01\n      add\n      sload\n        /* \"crowdfunding/Crowdfunding.sol\":2939:2946  company */\n      dup2\n        /* \"crowdfunding/Crowdfunding.sol\":2939:2954  company.pledged */\n      0x02\n      add\n      sload\n        /* \"crowdfunding/Crowdfunding.sol\":2939:2970  company.pledged >= company.goal */\n      lt\n      iszero\n        /* \"crowdfunding/Crowdfunding.sol\":2931:2993  require(company.pledged >= company.goal, \"pledged is too low\") */\n      tag_84\n      jumpi\n      mload(0x40)\n      0x08c379a000000000000000000000000000000000000000000000000000000000\n      dup2\n      mstore\n      0x04\n      add\n      tag_85\n      swap1\n      tag_86\n      jump\t// in\n    tag_85:\n      mload(0x40)\n      dup1\n      swap2\n      sub\n      swap1\n      revert\n    tag_84:\n        /* \"crowdfunding/Crowdfunding.sol\":3012:3019  company */\n      dup1\n        /* \"crowdfunding/Crowdfunding.sol\":3012:3027  company.claimed */\n      0x05\n      add\n      0x00\n      swap1\n      sload\n      swap1\n      0x0100\n      exp\n      swap1\n      div\n      0xff\n      and\n        /* \"crowdfunding/Crowdfunding.sol\":3011:3027  !company.claimed */\n      iszero\n        /* \"crowdfunding/Crowdfunding.sol\":3003:3047  require(!company.claimed, \"already claimed\") */\n      tag_87\n      jumpi\n      mload(0x40)\n      0x08c379a000000000000000000000000000000000000000000000000000000000\n      dup2\n      mstore\n      0x04\n      add\n      tag_88\n      swap1\n      tag_89\n      jump\t// in\n    tag_88:\n      mload(0x40)\n      dup1\n      swap2\n      sub\n      swap1\n      revert\n    tag_87:\n        /* \"crowdfunding/Crowdfunding.sol\":3084:3088  true */\n      0x01\n        /* \"crowdfunding/Crowdfunding.sol\":3066:3073  company */\n      dup2\n        /* \"crowdfunding/Crowdfunding.sol\":3066:3081  company.claimed */\n      0x05\n      add\n      0x00\n        /* \"crowdfunding/Crowdfunding.sol\":3066:3088  company.claimed = true */\n      0x0100\n      exp\n      dup2\n      sload\n      dup2\n      0xff\n      mul\n      not\n      and\n      swap1\n      dup4\n      iszero\n      iszero\n      mul\n      or\n      swap1\n      sstore\n      pop\n        /* \"crowdfunding/Crowdfunding.sol\":3098:3103  token */\n      immutable(\"0x8fef2229291b68be841adf029e58b87f39ba144b2d3b0af1760243d0a9bc6a1c\")\n        /* \"crowdfunding/Crowdfunding.sol\":3098:3112  token.transfer */\n      0xffffffffffffffffffffffffffffffffffffffff\n      and\n      0xa9059cbb\n        /* \"crowdfunding/Crowdfunding.sol\":3113:3123  msg.sender */\n      caller\n        /* \"crowdfunding/Crowdfunding.sol\":3125:3132  company */\n      dup4\n        /* \"crowdfunding/Crowdfunding.sol\":3125:3140  company.pledged */\n      0x02\n      add\n      sload\n        /* \"crowdfunding/Crowdfunding.sol\":3098:3141  token.transfer(msg.sender, company.pledged) */\n      mload(0x40)\n      dup4\n      0xffffffff\n      and\n      0xe0\n      shl\n      dup2\n      mstore\n      0x04\n      add\n      tag_90\n      swap3\n      swap2\n      swap1\n      tag_71\n      jump\t// in\n    tag_90:\n      0x20\n      mload(0x40)\n      dup1\n      dup4\n      sub\n      dup2\n      0x00\n      dup8\n      gas\n      call\n      iszero\n      dup1\n      iszero\n      tag_92\n      jumpi\n      returndatasize\n      0x00\n      dup1\n      returndatacopy\n      revert(0x00, returndatasize)\n    tag_92:\n      pop\n      pop\n      pop\n      pop\n      mload(0x40)\n      returndatasize\n      not(0x1f)\n      0x1f\n      dup3\n      add\n      and\n      dup3\n      add\n      dup1\n      0x40\n      mstore\n      pop\n      dup2\n      add\n      swap1\n      tag_93\n      swap2\n      swap1\n      tag_75\n      jump\t// in\n    tag_93:\n      pop\n        /* \"crowdfunding/Crowdfunding.sol\":3156:3168  Claimed(_id) */\n      0x7a355715549cfe7c1cba26304350343fbddc4b4f72d3ce3e7c27117dd20b5cb8\n        /* \"crowdfunding/Crowdfunding.sol\":3164:3167  _id */\n      dup3\n        /* \"crowdfunding/Crowdfunding.sol\":3156:3168  Claimed(_id) */\n      mload(0x40)\n      tag_94\n      swap2\n      swap1\n      tag_46\n      jump\t// in\n    tag_94:\n      mload(0x40)\n      dup1\n      swap2\n      sub\n      swap1\n      log1\n        /* \"crowdfunding/Crowdfunding.sol\":2746:3175  {... */\n      pop\n        /* \"crowdfunding/Crowdfunding.sol\":2712:3175  function claim(uint _id) external {... */\n      pop\n      jump\t// out\n        /* \"crowdfunding/Crowdfunding.sol\":1638:1922  function cancel(uint _id) external {... */\n    tag_34:\n        /* \"crowdfunding/Crowdfunding.sol\":1683:1705  Company memory company */\n      0x00\n        /* \"crowdfunding/Crowdfunding.sol\":1708:1717  companies */\n      0x01\n        /* \"crowdfunding/Crowdfunding.sol\":1708:1722  companies[_id] */\n      0x00\n        /* \"crowdfunding/Crowdfunding.sol\":1718:1721  _id */\n      dup4\n        /* \"crowdfunding/Crowdfunding.sol\":1708:1722  companies[_id] */\n      dup2\n      mstore\n      0x20\n      add\n      swap1\n      dup2\n      mstore\n      0x20\n      add\n      0x00\n      keccak256\n        /* \"crowdfunding/Crowdfunding.sol\":1683:1722  Company memory company = companies[_id] */\n      mload(0x40)\n      dup1\n      0xc0\n      add\n      0x40\n      mstore\n      swap1\n      dup2\n      0x00\n      dup3\n      add\n      0x00\n      swap1\n      sload\n      swap1\n      0x0100\n      exp\n      swap1\n      div\n      0xffffffffffffffffffffffffffffffffffffffff\n      and\n      0xffffffffffffffffffffffffffffffffffffffff\n      and\n      0xffffffffffffffffffffffffffffffffffffffff\n      and\n      dup2\n      mstore\n      0x20\n      add\n      0x01\n      dup3\n      add\n      sload\n      dup2\n      mstore\n      0x20\n      add\n      0x02\n      dup3\n      add\n      sload\n      dup2\n      mstore\n      0x20\n      add\n      0x03\n      dup3\n      add\n      sload\n      dup2\n      mstore\n      0x20\n      add\n      0x04\n      dup3\n      add\n      sload\n      dup2\n      mstore\n      0x20\n      add\n      0x05\n      dup3\n      add\n      0x00\n      swap1\n      sload\n      swap1\n      0x0100\n      exp\n      swap1\n      div\n      0xff\n      and\n      iszero\n      iszero\n      iszero\n      iszero\n      dup2\n      mstore\n      pop\n      pop\n      swap1\n      pop\n        /* \"crowdfunding/Crowdfunding.sol\":1754:1761  company */\n      dup1\n        /* \"crowdfunding/Crowdfunding.sol\":1754:1767  company.owner */\n      0x00\n      add\n      mload\n        /* \"crowdfunding/Crowdfunding.sol\":1740:1767  msg.sender == company.owner */\n      0xffffffffffffffffffffffffffffffffffffffff\n      and\n        /* \"crowdfunding/Crowdfunding.sol\":1740:1750  msg.sender */\n      caller\n        /* \"crowdfunding/Crowdfunding.sol\":1740:1767  msg.sender == company.owner */\n      0xffffffffffffffffffffffffffffffffffffffff\n      and\n      eq\n        /* \"crowdfunding/Crowdfunding.sol\":1732:1784  require(msg.sender == company.owner, \"not an owner\") */\n      tag_96\n      jumpi\n      mload(0x40)\n      0x08c379a000000000000000000000000000000000000000000000000000000000\n      dup2\n      mstore\n      0x04\n      add\n      tag_97\n      swap1\n      tag_81\n      jump\t// in\n    tag_97:\n      mload(0x40)\n      dup1\n      swap2\n      sub\n      swap1\n      revert\n    tag_96:\n        /* \"crowdfunding/Crowdfunding.sol\":1820:1827  company */\n      dup1\n        /* \"crowdfunding/Crowdfunding.sol\":1820:1835  company.startAt */\n      0x60\n      add\n      mload\n        /* \"crowdfunding/Crowdfunding.sol\":1802:1817  block.timestamp */\n      timestamp\n        /* \"crowdfunding/Crowdfunding.sol\":1802:1835  block.timestamp < company.startAt */\n      lt\n        /* \"crowdfunding/Crowdfunding.sol\":1794:1855  require(block.timestamp < company.startAt, \"already started\") */\n      tag_98\n      jumpi\n      mload(0x40)\n      0x08c379a000000000000000000000000000000000000000000000000000000000\n      dup2\n      mstore\n      0x04\n      add\n      tag_99\n      swap1\n      tag_100\n      jump\t// in\n    tag_99:\n      mload(0x40)\n      dup1\n      swap2\n      sub\n      swap1\n      revert\n    tag_98:\n        /* \"crowdfunding/Crowdfunding.sol\":1873:1882  companies */\n      0x01\n        /* \"crowdfunding/Crowdfunding.sol\":1873:1887  companies[_id] */\n      0x00\n        /* \"crowdfunding/Crowdfunding.sol\":1883:1886  _id */\n      dup4\n        /* \"crowdfunding/Crowdfunding.sol\":1873:1887  companies[_id] */\n      dup2\n      mstore\n      0x20\n      add\n      swap1\n      dup2\n      mstore\n      0x20\n      add\n      0x00\n      keccak256\n      0x00\n        /* \"crowdfunding/Crowdfunding.sol\":1866:1887  delete companies[_id] */\n      dup1\n      dup3\n      add\n      exp(0x0100, 0x00)\n      dup2\n      sload\n      swap1\n      0xffffffffffffffffffffffffffffffffffffffff\n      mul\n      not\n      and\n      swap1\n      sstore\n      0x01\n      dup3\n      add\n      0x00\n      swap1\n      sstore\n      0x02\n      dup3\n      add\n      0x00\n      swap1\n      sstore\n      0x03\n      dup3\n      add\n      0x00\n      swap1\n      sstore\n      0x04\n      dup3\n      add\n      0x00\n      swap1\n      sstore\n      0x05\n      dup3\n      add\n      exp(0x0100, 0x00)\n      dup2\n      sload\n      swap1\n      0xff\n      mul\n      not\n      and\n      swap1\n      sstore\n      pop\n      pop\n        /* \"crowdfunding/Crowdfunding.sol\":1902:1915  Canceled(_id) */\n      0x829a8683c544ad289ce92d3ce06e9ebad69b18a6916e60ec766c2c217461d8e9\n        /* \"crowdfunding/Crowdfunding.sol\":1911:1914  _id */\n      dup3\n        /* \"crowdfunding/Crowdfunding.sol\":1902:1915  Canceled(_id) */\n      mload(0x40)\n      tag_101\n      swap2\n      swap1\n      tag_46\n      jump\t// in\n    tag_101:\n      mload(0x40)\n      dup1\n      swap2\n      sub\n      swap1\n      log1\n        /* \"crowdfunding/Crowdfunding.sol\":1673:1922  {... */\n      pop\n        /* \"crowdfunding/Crowdfunding.sol\":1638:1922  function cancel(uint _id) external {... */\n      pop\n      jump\t// out\n        /* \"crowdfunding/Crowdfunding.sol\":2362:2706  function unpledge(uint _id, uint _amount) external {... */\n    tag_38:\n        /* \"crowdfunding/Crowdfunding.sol\":2423:2446  Company storage company */\n      0x00\n        /* \"crowdfunding/Crowdfunding.sol\":2449:2458  companies */\n      0x01\n        /* \"crowdfunding/Crowdfunding.sol\":2449:2463  companies[_id] */\n      0x00\n        /* \"crowdfunding/Crowdfunding.sol\":2459:2462  _id */\n      dup5\n        /* \"crowdfunding/Crowdfunding.sol\":2449:2463  companies[_id] */\n      dup2\n      mstore\n      0x20\n      add\n      swap1\n      dup2\n      mstore\n      0x20\n      add\n      0x00\n      keccak256\n        /* \"crowdfunding/Crowdfunding.sol\":2423:2463  Company storage company = companies[_id] */\n      swap1\n      pop\n        /* \"crowdfunding/Crowdfunding.sol\":2499:2506  company */\n      dup1\n        /* \"crowdfunding/Crowdfunding.sol\":2499:2512  company.endAt */\n      0x04\n      add\n      sload\n        /* \"crowdfunding/Crowdfunding.sol\":2481:2496  block.timestamp */\n      timestamp\n        /* \"crowdfunding/Crowdfunding.sol\":2481:2512  block.timestamp < company.endAt */\n      lt\n        /* \"crowdfunding/Crowdfunding.sol\":2473:2522  require(block.timestamp < company.endAt, \"ended\") */\n      tag_103\n      jumpi\n      mload(0x40)\n      0x08c379a000000000000000000000000000000000000000000000000000000000\n      dup2\n      mstore\n      0x04\n      add\n      tag_104\n      swap1\n      tag_105\n      jump\t// in\n    tag_104:\n      mload(0x40)\n      dup1\n      swap2\n      sub\n      swap1\n      revert\n    tag_103:\n        /* \"crowdfunding/Crowdfunding.sol\":2552:2559  _amount */\n      dup2\n        /* \"crowdfunding/Crowdfunding.sol\":2533:2540  company */\n      dup2\n        /* \"crowdfunding/Crowdfunding.sol\":2533:2548  company.pledged */\n      0x02\n      add\n      0x00\n        /* \"crowdfunding/Crowdfunding.sol\":2533:2559  company.pledged -= _amount */\n      dup3\n      dup3\n      sload\n      tag_106\n      swap2\n      swap1\n      tag_107\n      jump\t// in\n    tag_106:\n      swap3\n      pop\n      pop\n      dup2\n      swap1\n      sstore\n      pop\n        /* \"crowdfunding/Crowdfunding.sol\":2597:2604  _amount */\n      dup2\n        /* \"crowdfunding/Crowdfunding.sol\":2569:2576  pledges */\n      0x00\n        /* \"crowdfunding/Crowdfunding.sol\":2569:2581  pledges[_id] */\n      dup1\n        /* \"crowdfunding/Crowdfunding.sol\":2577:2580  _id */\n      dup6\n        /* \"crowdfunding/Crowdfunding.sol\":2569:2581  pledges[_id] */\n      dup2\n      mstore\n      0x20\n      add\n      swap1\n      dup2\n      mstore\n      0x20\n      add\n      0x00\n      keccak256\n        /* \"crowdfunding/Crowdfunding.sol\":2569:2593  pledges[_id][msg.sender] */\n      0x00\n        /* \"crowdfunding/Crowdfunding.sol\":2582:2592  msg.sender */\n      caller\n        /* \"crowdfunding/Crowdfunding.sol\":2569:2593  pledges[_id][msg.sender] */\n      0xffffffffffffffffffffffffffffffffffffffff\n      and\n      0xffffffffffffffffffffffffffffffffffffffff\n      and\n      dup2\n      mstore\n      0x20\n      add\n      swap1\n      dup2\n      mstore\n      0x20\n      add\n      0x00\n      keccak256\n      0x00\n        /* \"crowdfunding/Crowdfunding.sol\":2569:2604  pledges[_id][msg.sender] -= _amount */\n      dup3\n      dup3\n      sload\n      tag_108\n      swap2\n      swap1\n      tag_107\n      jump\t// in\n    tag_108:\n      swap3\n      pop\n      pop\n      dup2\n      swap1\n      sstore\n      pop\n        /* \"crowdfunding/Crowdfunding.sol\":2614:2619  token */\n      immutable(\"0x8fef2229291b68be841adf029e58b87f39ba144b2d3b0af1760243d0a9bc6a1c\")\n        /* \"crowdfunding/Crowdfunding.sol\":2614:2628  token.transfer */\n      0xffffffffffffffffffffffffffffffffffffffff\n      and\n      0xa9059cbb\n        /* \"crowdfunding/Crowdfunding.sol\":2629:2639  msg.sender */\n      caller\n        /* \"crowdfunding/Crowdfunding.sol\":2641:2648  _amount */\n      dup5\n        /* \"crowdfunding/Crowdfunding.sol\":2614:2649  token.transfer(msg.sender, _amount) */\n      mload(0x40)\n      dup4\n      0xffffffff\n      and\n      0xe0\n      shl\n      dup2\n      mstore\n      0x04\n      add\n      tag_109\n      swap3\n      swap2\n      swap1\n      tag_71\n      jump\t// in\n    tag_109:\n      0x20\n      mload(0x40)\n      dup1\n      dup4\n      sub\n      dup2\n      0x00\n      dup8\n      gas\n      call\n      iszero\n      dup1\n      iszero\n      tag_111\n      jumpi\n      returndatasize\n      0x00\n      dup1\n      returndatacopy\n      revert(0x00, returndatasize)\n    tag_111:\n      pop\n      pop\n      pop\n      pop\n      mload(0x40)\n      returndatasize\n      not(0x1f)\n      0x1f\n      dup3\n      add\n      and\n      dup3\n      add\n      dup1\n      0x40\n      mstore\n      pop\n      dup2\n      add\n      swap1\n      tag_112\n      swap2\n      swap1\n      tag_75\n      jump\t// in\n    tag_112:\n      pop\n        /* \"crowdfunding/Crowdfunding.sol\":2664:2699  Unpledged(_id, msg.sender, _amount) */\n      0xfcd29b1632c6748a9a4bb9b4cd5c6486c3c84a8550dce2368f83fef3969d9685\n        /* \"crowdfunding/Crowdfunding.sol\":2674:2677  _id */\n      dup4\n        /* \"crowdfunding/Crowdfunding.sol\":2679:2689  msg.sender */\n      caller\n        /* \"crowdfunding/Crowdfunding.sol\":2691:2698  _amount */\n      dup5\n        /* \"crowdfunding/Crowdfunding.sol\":2664:2699  Unpledged(_id, msg.sender, _amount) */\n      mload(0x40)\n      tag_113\n      swap4\n      swap3\n      swap2\n      swap1\n      tag_77\n      jump\t// in\n    tag_113:\n      mload(0x40)\n      dup1\n      swap2\n      sub\n      swap1\n      log1\n        /* \"crowdfunding/Crowdfunding.sol\":2413:2706  {... */\n      pop\n        /* \"crowdfunding/Crowdfunding.sol\":2362:2706  function unpledge(uint _id, uint _amount) external {... */\n      pop\n      pop\n      jump\t// out\n        /* \"crowdfunding/Crowdfunding.sol\":965:1632  function launch(uint _goal, uint _startAt, uint _endAt) external {... */\n    tag_42:\n        /* \"crowdfunding/Crowdfunding.sol\":1060:1075  block.timestamp */\n      timestamp\n        /* \"crowdfunding/Crowdfunding.sol\":1048:1056  _startAt */\n      dup3\n        /* \"crowdfunding/Crowdfunding.sol\":1048:1075  _startAt >= block.timestamp */\n      lt\n      iszero\n        /* \"crowdfunding/Crowdfunding.sol\":1040:1098  require(_startAt >= block.timestamp, \"incorrect start at\") */\n      tag_115\n      jumpi\n      mload(0x40)\n      0x08c379a000000000000000000000000000000000000000000000000000000000\n      dup2\n      mstore\n      0x04\n      add\n      tag_116\n      swap1\n      tag_117\n      jump\t// in\n    tag_116:\n      mload(0x40)\n      dup1\n      swap2\n      sub\n      swap1\n      revert\n    tag_115:\n        /* \"crowdfunding/Crowdfunding.sol\":567:569  10 */\n      0x0a\n        /* \"crowdfunding/Crowdfunding.sol\":1126:1134  _startAt */\n      dup3\n        /* \"crowdfunding/Crowdfunding.sol\":1126:1149  _startAt + MIN_DURATION */\n      tag_118\n      swap2\n      swap1\n      tag_62\n      jump\t// in\n    tag_118:\n        /* \"crowdfunding/Crowdfunding.sol\":1116:1122  _endAt */\n      dup2\n        /* \"crowdfunding/Crowdfunding.sol\":1116:1149  _endAt >= _startAt + MIN_DURATION */\n      lt\n      iszero\n        /* \"crowdfunding/Crowdfunding.sol\":1108:1170  require(_endAt >= _startAt + MIN_DURATION, \"incorrect end at\") */\n      tag_119\n      jumpi\n      mload(0x40)\n      0x08c379a000000000000000000000000000000000000000000000000000000000\n      dup2\n      mstore\n      0x04\n      add\n      tag_120\n      swap1\n      tag_121\n      jump\t// in\n    tag_120:\n      mload(0x40)\n      dup1\n      swap2\n      sub\n      swap1\n      revert\n    tag_119:\n        /* \"crowdfunding/Crowdfunding.sol\":517:525  100 days */\n      0x83d600\n        /* \"crowdfunding/Crowdfunding.sol\":1198:1206  _startAt */\n      dup3\n        /* \"crowdfunding/Crowdfunding.sol\":1198:1221  _startAt + MAX_DURATION */\n      tag_122\n      swap2\n      swap1\n      tag_62\n      jump\t// in\n    tag_122:\n        /* \"crowdfunding/Crowdfunding.sol\":1188:1194  _endAt */\n      dup2\n        /* \"crowdfunding/Crowdfunding.sol\":1188:1221  _endAt <= _startAt + MAX_DURATION */\n      gt\n      iszero\n        /* \"crowdfunding/Crowdfunding.sol\":1180:1234  require(_endAt <= _startAt + MAX_DURATION, \"too long\") */\n      tag_123\n      jumpi\n      mload(0x40)\n      0x08c379a000000000000000000000000000000000000000000000000000000000\n      dup2\n      mstore\n      0x04\n      add\n      tag_124\n      swap1\n      tag_125\n      jump\t// in\n    tag_124:\n      mload(0x40)\n      dup1\n      swap2\n      sub\n      swap1\n      revert\n    tag_123:\n        /* \"crowdfunding/Crowdfunding.sol\":1276:1461  Company({... */\n      mload(0x40)\n      dup1\n      0xc0\n      add\n      0x40\n      mstore\n      dup1\n        /* \"crowdfunding/Crowdfunding.sol\":1305:1315  msg.sender */\n      caller\n        /* \"crowdfunding/Crowdfunding.sol\":1276:1461  Company({... */\n      0xffffffffffffffffffffffffffffffffffffffff\n      and\n      dup2\n      mstore\n      0x20\n      add\n        /* \"crowdfunding/Crowdfunding.sol\":1335:1340  _goal */\n      dup5\n        /* \"crowdfunding/Crowdfunding.sol\":1276:1461  Company({... */\n      dup2\n      mstore\n      0x20\n      add\n        /* \"crowdfunding/Crowdfunding.sol\":1363:1364  0 */\n      0x00\n        /* \"crowdfunding/Crowdfunding.sol\":1276:1461  Company({... */\n      dup2\n      mstore\n      0x20\n      add\n        /* \"crowdfunding/Crowdfunding.sol\":1387:1395  _startAt */\n      dup4\n        /* \"crowdfunding/Crowdfunding.sol\":1276:1461  Company({... */\n      dup2\n      mstore\n      0x20\n      add\n        /* \"crowdfunding/Crowdfunding.sol\":1416:1422  _endAt */\n      dup3\n        /* \"crowdfunding/Crowdfunding.sol\":1276:1461  Company({... */\n      dup2\n      mstore\n      0x20\n      add\n        /* \"crowdfunding/Crowdfunding.sol\":1445:1450  false */\n      0x00\n        /* \"crowdfunding/Crowdfunding.sol\":1276:1461  Company({... */\n      iszero\n      iszero\n      dup2\n      mstore\n      pop\n        /* \"crowdfunding/Crowdfunding.sol\":1253:1262  companies */\n      0x01\n        /* \"crowdfunding/Crowdfunding.sol\":1253:1273  companies[currentId] */\n      0x00\n        /* \"crowdfunding/Crowdfunding.sol\":1263:1272  currentId */\n      sload(0x02)\n        /* \"crowdfunding/Crowdfunding.sol\":1253:1273  companies[currentId] */\n      dup2\n      mstore\n      0x20\n      add\n      swap1\n      dup2\n      mstore\n      0x20\n      add\n      0x00\n      keccak256\n        /* \"crowdfunding/Crowdfunding.sol\":1253:1461  companies[currentId] = Company({... */\n      0x00\n      dup3\n      add\n      mload\n      dup2\n      0x00\n      add\n      exp(0x0100, 0x00)\n      dup2\n      sload\n      dup2\n      0xffffffffffffffffffffffffffffffffffffffff\n      mul\n      not\n      and\n      swap1\n      dup4\n      0xffffffffffffffffffffffffffffffffffffffff\n      and\n      mul\n      or\n      swap1\n      sstore\n      pop\n      0x20\n      dup3\n      add\n      mload\n      dup2\n      0x01\n      add\n      sstore\n      0x40\n      dup3\n      add\n      mload\n      dup2\n      0x02\n      add\n      sstore\n      0x60\n      dup3\n      add\n      mload\n      dup2\n      0x03\n      add\n      sstore\n      0x80\n      dup3\n      add\n      mload\n      dup2\n      0x04\n      add\n      sstore\n      0xa0\n      dup3\n      add\n      mload\n      dup2\n      0x05\n      add\n      exp(0x0100, 0x00)\n      dup2\n      sload\n      dup2\n      0xff\n      mul\n      not\n      and\n      swap1\n      dup4\n      iszero\n      iszero\n      mul\n      or\n      swap1\n      sstore\n      pop\n      swap1\n      pop\n      pop\n        /* \"crowdfunding/Crowdfunding.sol\":1477:1603  Launched(... */\n      0xea7dc5be41326789a621aaa33d671281d0a54aa87610751def19f8544c2004c3\n        /* \"crowdfunding/Crowdfunding.sol\":1499:1508  currentId */\n      sload(0x02)\n        /* \"crowdfunding/Crowdfunding.sol\":1522:1532  msg.sender */\n      caller\n        /* \"crowdfunding/Crowdfunding.sol\":1546:1551  _goal */\n      dup6\n        /* \"crowdfunding/Crowdfunding.sol\":1565:1573  _startAt */\n      dup6\n        /* \"crowdfunding/Crowdfunding.sol\":1587:1593  _endAt */\n      dup6\n        /* \"crowdfunding/Crowdfunding.sol\":1477:1603  Launched(... */\n      mload(0x40)\n      tag_126\n      swap6\n      swap5\n      swap4\n      swap3\n      swap2\n      swap1\n      tag_127\n      jump\t// in\n    tag_126:\n      mload(0x40)\n      dup1\n      swap2\n      sub\n      swap1\n      log1\n        /* \"crowdfunding/Crowdfunding.sol\":1614:1623  currentId */\n      0x02\n      0x00\n        /* \"crowdfunding/Crowdfunding.sol\":1614:1625  currentId++ */\n      dup2\n      sload\n      dup1\n      swap3\n      swap2\n      swap1\n      tag_128\n      swap1\n      tag_129\n      jump\t// in\n    tag_128:\n      swap2\n      swap1\n      pop\n      sstore\n      pop\n        /* \"crowdfunding/Crowdfunding.sol\":965:1632  function launch(uint _goal, uint _startAt, uint _endAt) external {... */\n      pop\n      pop\n      pop\n      jump\t// out\n        /* \"crowdfunding/Crowdfunding.sol\":481:525  uint public constant MAX_DURATION = 100 days */\n    tag_44:\n        /* \"crowdfunding/Crowdfunding.sol\":517:525  100 days */\n      0x83d600\n        /* \"crowdfunding/Crowdfunding.sol\":481:525  uint public constant MAX_DURATION = 100 days */\n      dup2\n      jump\t// out\n        /* \"crowdfunding/Crowdfunding.sol\":531:569  uint public constant MIN_DURATION = 10 */\n    tag_48:\n        /* \"crowdfunding/Crowdfunding.sol\":567:569  10 */\n      0x0a\n        /* \"crowdfunding/Crowdfunding.sol\":531:569  uint public constant MIN_DURATION = 10 */\n      dup2\n      jump\t// out\n        /* \"crowdfunding/Crowdfunding.sol\":453:474  uint public currentId */\n    tag_51:\n      sload(0x02)\n      dup2\n      jump\t// out\n        /* \"crowdfunding/Crowdfunding.sol\":314:343  IERC20 public immutable token */\n    tag_54:\n      immutable(\"0x8fef2229291b68be841adf029e58b87f39ba144b2d3b0af1760243d0a9bc6a1c\")\n      dup2\n      jump\t// out\n        /* \"crowdfunding/Crowdfunding.sol\":1928:2356  function pledge(uint _id, uint _amount) external {... */\n    tag_59:\n        /* \"crowdfunding/Crowdfunding.sol\":1987:2010  Company storage company */\n      0x00\n        /* \"crowdfunding/Crowdfunding.sol\":2013:2022  companies */\n      0x01\n        /* \"crowdfunding/Crowdfunding.sol\":2013:2027  companies[_id] */\n      0x00\n        /* \"crowdfunding/Crowdfunding.sol\":2023:2026  _id */\n      dup5\n        /* \"crowdfunding/Crowdfunding.sol\":2013:2027  companies[_id] */\n      dup2\n      mstore\n      0x20\n      add\n      swap1\n      dup2\n      mstore\n      0x20\n      add\n      0x00\n      keccak256\n        /* \"crowdfunding/Crowdfunding.sol\":1987:2027  Company storage company = companies[_id] */\n      swap1\n      pop\n        /* \"crowdfunding/Crowdfunding.sol\":2064:2071  company */\n      dup1\n        /* \"crowdfunding/Crowdfunding.sol\":2064:2079  company.startAt */\n      0x03\n      add\n      sload\n        /* \"crowdfunding/Crowdfunding.sol\":2045:2060  block.timestamp */\n      timestamp\n        /* \"crowdfunding/Crowdfunding.sol\":2045:2079  block.timestamp >= company.startAt */\n      lt\n      iszero\n        /* \"crowdfunding/Crowdfunding.sol\":2037:2095  require(block.timestamp >= company.startAt, \"not started\") */\n      tag_131\n      jumpi\n      mload(0x40)\n      0x08c379a000000000000000000000000000000000000000000000000000000000\n      dup2\n      mstore\n      0x04\n      add\n      tag_132\n      swap1\n      tag_133\n      jump\t// in\n    tag_132:\n      mload(0x40)\n      dup1\n      swap2\n      sub\n      swap1\n      revert\n    tag_131:\n        /* \"crowdfunding/Crowdfunding.sol\":2131:2138  company */\n      dup1\n        /* \"crowdfunding/Crowdfunding.sol\":2131:2144  company.endAt */\n      0x04\n      add\n      sload\n        /* \"crowdfunding/Crowdfunding.sol\":2113:2128  block.timestamp */\n      timestamp\n        /* \"crowdfunding/Crowdfunding.sol\":2113:2144  block.timestamp < company.endAt */\n      lt\n        /* \"crowdfunding/Crowdfunding.sol\":2105:2154  require(block.timestamp < company.endAt, \"ended\") */\n      tag_134\n      jumpi\n      mload(0x40)\n      0x08c379a000000000000000000000000000000000000000000000000000000000\n      dup2\n      mstore\n      0x04\n      add\n      tag_135\n      swap1\n      tag_105\n      jump\t// in\n    tag_135:\n      mload(0x40)\n      dup1\n      swap2\n      sub\n      swap1\n      revert\n    tag_134:\n        /* \"crowdfunding/Crowdfunding.sol\":2184:2191  _amount */\n      dup2\n        /* \"crowdfunding/Crowdfunding.sol\":2165:2172  company */\n      dup2\n        /* \"crowdfunding/Crowdfunding.sol\":2165:2180  company.pledged */\n      0x02\n      add\n      0x00\n        /* \"crowdfunding/Crowdfunding.sol\":2165:2191  company.pledged += _amount */\n      dup3\n      dup3\n      sload\n      tag_136\n      swap2\n      swap1\n      tag_62\n      jump\t// in\n    tag_136:\n      swap3\n      pop\n      pop\n      dup2\n      swap1\n      sstore\n      pop\n        /* \"crowdfunding/Crowdfunding.sol\":2230:2237  _amount */\n      dup2\n        /* \"crowdfunding/Crowdfunding.sol\":2201:2208  pledges */\n      0x00\n        /* \"crowdfunding/Crowdfunding.sol\":2201:2213  pledges[_id] */\n      dup1\n        /* \"crowdfunding/Crowdfunding.sol\":2209:2212  _id */\n      dup6\n        /* \"crowdfunding/Crowdfunding.sol\":2201:2213  pledges[_id] */\n      dup2\n      mstore\n      0x20\n      add\n      swap1\n      dup2\n      mstore\n      0x20\n      add\n      0x00\n      keccak256\n        /* \"crowdfunding/Crowdfunding.sol\":2201:2225  pledges[_id][msg.sender] */\n      0x00\n        /* \"crowdfunding/Crowdfunding.sol\":2214:2224  msg.sender */\n      caller\n        /* \"crowdfunding/Crowdfunding.sol\":2201:2225  pledges[_id][msg.sender] */\n      0xffffffffffffffffffffffffffffffffffffffff\n      and\n      0xffffffffffffffffffffffffffffffffffffffff\n      and\n      dup2\n      mstore\n      0x20\n      add\n      swap1\n      dup2\n      mstore\n      0x20\n      add\n      0x00\n      keccak256\n      0x00\n        /* \"crowdfunding/Crowdfunding.sol\":2201:2237  pledges[_id][msg.sender]  += _amount */\n      dup3\n      dup3\n      sload\n      tag_137\n      swap2\n      swap1\n      tag_62\n      jump\t// in\n    tag_137:\n      swap3\n      pop\n      pop\n      dup2\n      swap1\n      sstore\n      pop\n        /* \"crowdfunding/Crowdfunding.sol\":2247:2252  token */\n      immutable(\"0x8fef2229291b68be841adf029e58b87f39ba144b2d3b0af1760243d0a9bc6a1c\")\n        /* \"crowdfunding/Crowdfunding.sol\":2247:2265  token.transferFrom */\n      0xffffffffffffffffffffffffffffffffffffffff\n      and\n      0x23b872dd\n        /* \"crowdfunding/Crowdfunding.sol\":2266:2276  msg.sender */\n      caller\n        /* \"crowdfunding/Crowdfunding.sol\":2286:2290  this */\n      address\n        /* \"crowdfunding/Crowdfunding.sol\":2293:2300  _amount */\n      dup6\n        /* \"crowdfunding/Crowdfunding.sol\":2247:2301  token.transferFrom(msg.sender, address(this), _amount) */\n      mload(0x40)\n      dup5\n      0xffffffff\n      and\n      0xe0\n      shl\n      dup2\n      mstore\n      0x04\n      add\n      tag_138\n      swap4\n      swap3\n      swap2\n      swap1\n      tag_139\n      jump\t// in\n    tag_138:\n      0x20\n      mload(0x40)\n      dup1\n      dup4\n      sub\n      dup2\n      0x00\n      dup8\n      gas\n      call\n      iszero\n      dup1\n      iszero\n      tag_141\n      jumpi\n      returndatasize\n      0x00\n      dup1\n      returndatacopy\n      revert(0x00, returndatasize)\n    tag_141:\n      pop\n      pop\n      pop\n      pop\n      mload(0x40)\n      returndatasize\n      not(0x1f)\n      0x1f\n      dup3\n      add\n      and\n      dup3\n      add\n      dup1\n      0x40\n      mstore\n      pop\n      dup2\n      add\n      swap1\n      tag_142\n      swap2\n      swap1\n      tag_75\n      jump\t// in\n    tag_142:\n      pop\n        /* \"crowdfunding/Crowdfunding.sol\":2316:2349  Pledged(_id, msg.sender, _amount) */\n      0x2757ac6a40883f4491cc56930ae964df9034e343e660d5179eb01e198336756b\n        /* \"crowdfunding/Crowdfunding.sol\":2324:2327  _id */\n      dup4\n        /* \"crowdfunding/Crowdfunding.sol\":2329:2339  msg.sender */\n      caller\n        /* \"crowdfunding/Crowdfunding.sol\":2341:2348  _amount */\n      dup5\n        /* \"crowdfunding/Crowdfunding.sol\":2316:2349  Pledged(_id, msg.sender, _amount) */\n      mload(0x40)\n      tag_143\n      swap4\n      swap3\n      swap2\n      swap1\n      tag_77\n      jump\t// in\n    tag_143:\n      mload(0x40)\n      dup1\n      swap2\n      sub\n      swap1\n      log1\n        /* \"crowdfunding/Crowdfunding.sol\":1977:2356  {... */\n      pop\n        /* \"crowdfunding/Crowdfunding.sol\":1928:2356  function pledge(uint _id, uint _amount) external {... */\n      pop\n      pop\n      jump\t// out\n        /* \"#utility.yul\":7:84   */\n    tag_144:\n        /* \"#utility.yul\":44:51   */\n      0x00\n        /* \"#utility.yul\":73:78   */\n      dup2\n        /* \"#utility.yul\":62:78   */\n      swap1\n      pop\n        /* \"#utility.yul\":7:84   */\n      swap2\n      swap1\n      pop\n      jump\t// out\n        /* \"#utility.yul\":90:208   */\n    tag_145:\n        /* \"#utility.yul\":177:201   */\n      tag_190\n        /* \"#utility.yul\":195:200   */\n      dup2\n        /* \"#utility.yul\":177:201   */\n      tag_144\n      jump\t// in\n    tag_190:\n        /* \"#utility.yul\":172:175   */\n      dup3\n        /* \"#utility.yul\":165:202   */\n      mstore\n        /* \"#utility.yul\":90:208   */\n      pop\n      pop\n      jump\t// out\n        /* \"#utility.yul\":214:546   */\n    tag_19:\n        /* \"#utility.yul\":335:339   */\n      0x00\n        /* \"#utility.yul\":373:375   */\n      0x40\n        /* \"#utility.yul\":362:371   */\n      dup3\n        /* \"#utility.yul\":358:376   */\n      add\n        /* \"#utility.yul\":350:376   */\n      swap1\n      pop\n        /* \"#utility.yul\":386:457   */\n      tag_192\n        /* \"#utility.yul\":454:455   */\n      0x00\n        /* \"#utility.yul\":443:452   */\n      dup4\n        /* \"#utility.yul\":439:456   */\n      add\n        /* \"#utility.yul\":430:436   */\n      dup6\n        /* \"#utility.yul\":386:457   */\n      tag_145\n      jump\t// in\n    tag_192:\n        /* \"#utility.yul\":467:539   */\n      tag_193\n        /* \"#utility.yul\":535:537   */\n      0x20\n        /* \"#utility.yul\":524:533   */\n      dup4\n        /* \"#utility.yul\":520:538   */\n      add\n        /* \"#utility.yul\":511:517   */\n      dup5\n        /* \"#utility.yul\":467:539   */\n      tag_145\n      jump\t// in\n    tag_193:\n        /* \"#utility.yul\":214:546   */\n      swap4\n      swap3\n      pop\n      pop\n      pop\n      jump\t// out\n        /* \"#utility.yul\":633:750   */\n    tag_147:\n        /* \"#utility.yul\":742:743   */\n      0x00\n        /* \"#utility.yul\":739:740   */\n      dup1\n        /* \"#utility.yul\":732:744   */\n      revert\n        /* \"#utility.yul\":879:1001   */\n    tag_149:\n        /* \"#utility.yul\":952:976   */\n      tag_198\n        /* \"#utility.yul\":970:975   */\n      dup2\n        /* \"#utility.yul\":952:976   */\n      tag_144\n      jump\t// in\n    tag_198:\n        /* \"#utility.yul\":945:950   */\n      dup2\n        /* \"#utility.yul\":942:977   */\n      eq\n        /* \"#utility.yul\":932:995   */\n      tag_199\n      jumpi\n        /* \"#utility.yul\":991:992   */\n      0x00\n        /* \"#utility.yul\":988:989   */\n      dup1\n        /* \"#utility.yul\":981:993   */\n      revert\n        /* \"#utility.yul\":932:995   */\n    tag_199:\n        /* \"#utility.yul\":879:1001   */\n      pop\n      jump\t// out\n        /* \"#utility.yul\":1007:1146   */\n    tag_150:\n        /* \"#utility.yul\":1053:1058   */\n      0x00\n        /* \"#utility.yul\":1091:1097   */\n      dup2\n        /* \"#utility.yul\":1078:1098   */\n      calldataload\n        /* \"#utility.yul\":1069:1098   */\n      swap1\n      pop\n        /* \"#utility.yul\":1107:1140   */\n      tag_201\n        /* \"#utility.yul\":1134:1139   */\n      dup2\n        /* \"#utility.yul\":1107:1140   */\n      tag_149\n      jump\t// in\n    tag_201:\n        /* \"#utility.yul\":1007:1146   */\n      swap3\n      swap2\n      pop\n      pop\n      jump\t// out\n        /* \"#utility.yul\":1152:1481   */\n    tag_22:\n        /* \"#utility.yul\":1211:1217   */\n      0x00\n        /* \"#utility.yul\":1260:1262   */\n      0x20\n        /* \"#utility.yul\":1248:1257   */\n      dup3\n        /* \"#utility.yul\":1239:1246   */\n      dup5\n        /* \"#utility.yul\":1235:1258   */\n      sub\n        /* \"#utility.yul\":1231:1263   */\n      slt\n        /* \"#utility.yul\":1228:1347   */\n      iszero\n      tag_203\n      jumpi\n        /* \"#utility.yul\":1266:1345   */\n      tag_204\n      tag_147\n      jump\t// in\n    tag_204:\n        /* \"#utility.yul\":1228:1347   */\n    tag_203:\n        /* \"#utility.yul\":1386:1387   */\n      0x00\n        /* \"#utility.yul\":1411:1464   */\n      tag_205\n        /* \"#utility.yul\":1456:1463   */\n      dup5\n        /* \"#utility.yul\":1447:1453   */\n      dup3\n        /* \"#utility.yul\":1436:1445   */\n      dup6\n        /* \"#utility.yul\":1432:1454   */\n      add\n        /* \"#utility.yul\":1411:1464   */\n      tag_150\n      jump\t// in\n    tag_205:\n        /* \"#utility.yul\":1401:1464   */\n      swap2\n      pop\n        /* \"#utility.yul\":1357:1474   */\n      pop\n        /* \"#utility.yul\":1152:1481   */\n      swap3\n      swap2\n      pop\n      pop\n      jump\t// out\n        /* \"#utility.yul\":1487:1613   */\n    tag_151:\n        /* \"#utility.yul\":1524:1531   */\n      0x00\n        /* \"#utility.yul\":1564:1606   */\n      0xffffffffffffffffffffffffffffffffffffffff\n        /* \"#utility.yul\":1557:1562   */\n      dup3\n        /* \"#utility.yul\":1553:1607   */\n      and\n        /* \"#utility.yul\":1542:1607   */\n      swap1\n      pop\n        /* \"#utility.yul\":1487:1613   */\n      swap2\n      swap1\n      pop\n      jump\t// out\n        /* \"#utility.yul\":1619:1715   */\n    tag_152:\n        /* \"#utility.yul\":1656:1663   */\n      0x00\n        /* \"#utility.yul\":1685:1709   */\n      tag_208\n        /* \"#utility.yul\":1703:1708   */\n      dup3\n        /* \"#utility.yul\":1685:1709   */\n      tag_151\n      jump\t// in\n    tag_208:\n        /* \"#utility.yul\":1674:1709   */\n      swap1\n      pop\n        /* \"#utility.yul\":1619:1715   */\n      swap2\n      swap1\n      pop\n      jump\t// out\n        /* \"#utility.yul\":1721:1839   */\n    tag_153:\n        /* \"#utility.yul\":1808:1832   */\n      tag_210\n        /* \"#utility.yul\":1826:1831   */\n      dup2\n        /* \"#utility.yul\":1808:1832   */\n      tag_152\n      jump\t// in\n    tag_210:\n        /* \"#utility.yul\":1803:1806   */\n      dup3\n        /* \"#utility.yul\":1796:1833   */\n      mstore\n        /* \"#utility.yul\":1721:1839   */\n      pop\n      pop\n      jump\t// out\n        /* \"#utility.yul\":1845:1935   */\n    tag_154:\n        /* \"#utility.yul\":1879:1886   */\n      0x00\n        /* \"#utility.yul\":1922:1927   */\n      dup2\n        /* \"#utility.yul\":1915:1928   */\n      iszero\n        /* \"#utility.yul\":1908:1929   */\n      iszero\n        /* \"#utility.yul\":1897:1929   */\n      swap1\n      pop\n        /* \"#utility.yul\":1845:1935   */\n      swap2\n      swap1\n      pop\n      jump\t// out\n        /* \"#utility.yul\":1941:2050   */\n    tag_155:\n        /* \"#utility.yul\":2022:2043   */\n      tag_213\n        /* \"#utility.yul\":2037:2042   */\n      dup2\n        /* \"#utility.yul\":2022:2043   */\n      tag_154\n      jump\t// in\n    tag_213:\n        /* \"#utility.yul\":2017:2020   */\n      dup3\n        /* \"#utility.yul\":2010:2044   */\n      mstore\n        /* \"#utility.yul\":1941:2050   */\n      pop\n      pop\n      jump\t// out\n        /* \"#utility.yul\":2056:2819   */\n    tag_28:\n        /* \"#utility.yul\":2283:2287   */\n      0x00\n        /* \"#utility.yul\":2321:2324   */\n      0xc0\n        /* \"#utility.yul\":2310:2319   */\n      dup3\n        /* \"#utility.yul\":2306:2325   */\n      add\n        /* \"#utility.yul\":2298:2325   */\n      swap1\n      pop\n        /* \"#utility.yul\":2335:2406   */\n      tag_215\n        /* \"#utility.yul\":2403:2404   */\n      0x00\n        /* \"#utility.yul\":2392:2401   */\n      dup4\n        /* \"#utility.yul\":2388:2405   */\n      add\n        /* \"#utility.yul\":2379:2385   */\n      dup10\n        /* \"#utility.yul\":2335:2406   */\n      tag_153\n      jump\t// in\n    tag_215:\n        /* \"#utility.yul\":2416:2488   */\n      tag_216\n        /* \"#utility.yul\":2484:2486   */\n      0x20\n        /* \"#utility.yul\":2473:2482   */\n      dup4\n        /* \"#utility.yul\":2469:2487   */\n      add\n        /* \"#utility.yul\":2460:2466   */\n      dup9\n        /* \"#utility.yul\":2416:2488   */\n      tag_145\n      jump\t// in\n    tag_216:\n        /* \"#utility.yul\":2498:2570   */\n      tag_217\n        /* \"#utility.yul\":2566:2568   */\n      0x40\n        /* \"#utility.yul\":2555:2564   */\n      dup4\n        /* \"#utility.yul\":2551:2569   */\n      add\n        /* \"#utility.yul\":2542:2548   */\n      dup8\n        /* \"#utility.yul\":2498:2570   */\n      tag_145\n      jump\t// in\n    tag_217:\n        /* \"#utility.yul\":2580:2652   */\n      tag_218\n        /* \"#utility.yul\":2648:2650   */\n      0x60\n        /* \"#utility.yul\":2637:2646   */\n      dup4\n        /* \"#utility.yul\":2633:2651   */\n      add\n        /* \"#utility.yul\":2624:2630   */\n      dup7\n        /* \"#utility.yul\":2580:2652   */\n      tag_145\n      jump\t// in\n    tag_218:\n        /* \"#utility.yul\":2662:2735   */\n      tag_219\n        /* \"#utility.yul\":2730:2733   */\n      0x80\n        /* \"#utility.yul\":2719:2728   */\n      dup4\n        /* \"#utility.yul\":2715:2734   */\n      add\n        /* \"#utility.yul\":2706:2712   */\n      dup6\n        /* \"#utility.yul\":2662:2735   */\n      tag_145\n      jump\t// in\n    tag_219:\n        /* \"#utility.yul\":2745:2812   */\n      tag_220\n        /* \"#utility.yul\":2807:2810   */\n      0xa0\n        /* \"#utility.yul\":2796:2805   */\n      dup4\n        /* \"#utility.yul\":2792:2811   */\n      add\n        /* \"#utility.yul\":2783:2789   */\n      dup5\n        /* \"#utility.yul\":2745:2812   */\n      tag_155\n      jump\t// in\n    tag_220:\n        /* \"#utility.yul\":2056:2819   */\n      swap8\n      swap7\n      pop\n      pop\n      pop\n      pop\n      pop\n      pop\n      pop\n      jump\t// out\n        /* \"#utility.yul\":2825:3299   */\n    tag_37:\n        /* \"#utility.yul\":2893:2899   */\n      0x00\n        /* \"#utility.yul\":2901:2907   */\n      dup1\n        /* \"#utility.yul\":2950:2952   */\n      0x40\n        /* \"#utility.yul\":2938:2947   */\n      dup4\n        /* \"#utility.yul\":2929:2936   */\n      dup6\n        /* \"#utility.yul\":2925:2948   */\n      sub\n        /* \"#utility.yul\":2921:2953   */\n      slt\n        /* \"#utility.yul\":2918:3037   */\n      iszero\n      tag_222\n      jumpi\n        /* \"#utility.yul\":2956:3035   */\n      tag_223\n      tag_147\n      jump\t// in\n    tag_223:\n        /* \"#utility.yul\":2918:3037   */\n    tag_222:\n        /* \"#utility.yul\":3076:3077   */\n      0x00\n        /* \"#utility.yul\":3101:3154   */\n      tag_224\n        /* \"#utility.yul\":3146:3153   */\n      dup6\n        /* \"#utility.yul\":3137:3143   */\n      dup3\n        /* \"#utility.yul\":3126:3135   */\n      dup7\n        /* \"#utility.yul\":3122:3144   */\n      add\n        /* \"#utility.yul\":3101:3154   */\n      tag_150\n      jump\t// in\n    tag_224:\n        /* \"#utility.yul\":3091:3154   */\n      swap3\n      pop\n        /* \"#utility.yul\":3047:3164   */\n      pop\n        /* \"#utility.yul\":3203:3205   */\n      0x20\n        /* \"#utility.yul\":3229:3282   */\n      tag_225\n        /* \"#utility.yul\":3274:3281   */\n      dup6\n        /* \"#utility.yul\":3265:3271   */\n      dup3\n        /* \"#utility.yul\":3254:3263   */\n      dup7\n        /* \"#utility.yul\":3250:3272   */\n      add\n        /* \"#utility.yul\":3229:3282   */\n      tag_150\n      jump\t// in\n    tag_225:\n        /* \"#utility.yul\":3219:3282   */\n      swap2\n      pop\n        /* \"#utility.yul\":3174:3292   */\n      pop\n        /* \"#utility.yul\":2825:3299   */\n      swap3\n      pop\n      swap3\n      swap1\n      pop\n      jump\t// out\n        /* \"#utility.yul\":3305:3924   */\n    tag_41:\n        /* \"#utility.yul\":3382:3388   */\n      0x00\n        /* \"#utility.yul\":3390:3396   */\n      dup1\n        /* \"#utility.yul\":3398:3404   */\n      0x00\n        /* \"#utility.yul\":3447:3449   */\n      0x60\n        /* \"#utility.yul\":3435:3444   */\n      dup5\n        /* \"#utility.yul\":3426:3433   */\n      dup7\n        /* \"#utility.yul\":3422:3445   */\n      sub\n        /* \"#utility.yul\":3418:3450   */\n      slt\n        /* \"#utility.yul\":3415:3534   */\n      iszero\n      tag_227\n      jumpi\n        /* \"#utility.yul\":3453:3532   */\n      tag_228\n      tag_147\n      jump\t// in\n    tag_228:\n        /* \"#utility.yul\":3415:3534   */\n    tag_227:\n        /* \"#utility.yul\":3573:3574   */\n      0x00\n        /* \"#utility.yul\":3598:3651   */\n      tag_229\n        /* \"#utility.yul\":3643:3650   */\n      dup7\n        /* \"#utility.yul\":3634:3640   */\n      dup3\n        /* \"#utility.yul\":3623:3632   */\n      dup8\n        /* \"#utility.yul\":3619:3641   */\n      add\n        /* \"#utility.yul\":3598:3651   */\n      tag_150\n      jump\t// in\n    tag_229:\n        /* \"#utility.yul\":3588:3651   */\n      swap4\n      pop\n        /* \"#utility.yul\":3544:3661   */\n      pop\n        /* \"#utility.yul\":3700:3702   */\n      0x20\n        /* \"#utility.yul\":3726:3779   */\n      tag_230\n        /* \"#utility.yul\":3771:3778   */\n      dup7\n        /* \"#utility.yul\":3762:3768   */\n      dup3\n        /* \"#utility.yul\":3751:3760   */\n      dup8\n        /* \"#utility.yul\":3747:3769   */\n      add\n        /* \"#utility.yul\":3726:3779   */\n      tag_150\n      jump\t// in\n    tag_230:\n        /* \"#utility.yul\":3716:3779   */\n      swap3\n      pop\n        /* \"#utility.yul\":3671:3789   */\n      pop\n        /* \"#utility.yul\":3828:3830   */\n      0x40\n        /* \"#utility.yul\":3854:3907   */\n      tag_231\n        /* \"#utility.yul\":3899:3906   */\n      dup7\n        /* \"#utility.yul\":3890:3896   */\n      dup3\n        /* \"#utility.yul\":3879:3888   */\n      dup8\n        /* \"#utility.yul\":3875:3897   */\n      add\n        /* \"#utility.yul\":3854:3907   */\n      tag_150\n      jump\t// in\n    tag_231:\n        /* \"#utility.yul\":3844:3907   */\n      swap2\n      pop\n        /* \"#utility.yul\":3799:3917   */\n      pop\n        /* \"#utility.yul\":3305:3924   */\n      swap3\n      pop\n      swap3\n      pop\n      swap3\n      jump\t// out\n        /* \"#utility.yul\":3930:4152   */\n    tag_46:\n        /* \"#utility.yul\":4023:4027   */\n      0x00\n        /* \"#utility.yul\":4061:4063   */\n      0x20\n        /* \"#utility.yul\":4050:4059   */\n      dup3\n        /* \"#utility.yul\":4046:4064   */\n      add\n        /* \"#utility.yul\":4038:4064   */\n      swap1\n      pop\n        /* \"#utility.yul\":4074:4145   */\n      tag_233\n        /* \"#utility.yul\":4142:4143   */\n      0x00\n        /* \"#utility.yul\":4131:4140   */\n      dup4\n        /* \"#utility.yul\":4127:4144   */\n      add\n        /* \"#utility.yul\":4118:4124   */\n      dup5\n        /* \"#utility.yul\":4074:4145   */\n      tag_145\n      jump\t// in\n    tag_233:\n        /* \"#utility.yul\":3930:4152   */\n      swap3\n      swap2\n      pop\n      pop\n      jump\t// out\n        /* \"#utility.yul\":4158:4218   */\n    tag_156:\n        /* \"#utility.yul\":4186:4189   */\n      0x00\n        /* \"#utility.yul\":4207:4212   */\n      dup2\n        /* \"#utility.yul\":4200:4212   */\n      swap1\n      pop\n        /* \"#utility.yul\":4158:4218   */\n      swap2\n      swap1\n      pop\n      jump\t// out\n        /* \"#utility.yul\":4224:4366   */\n    tag_157:\n        /* \"#utility.yul\":4274:4283   */\n      0x00\n        /* \"#utility.yul\":4307:4360   */\n      tag_236\n        /* \"#utility.yul\":4325:4359   */\n      tag_237\n        /* \"#utility.yul\":4334:4358   */\n      tag_238\n        /* \"#utility.yul\":4352:4357   */\n      dup5\n        /* \"#utility.yul\":4334:4358   */\n      tag_151\n      jump\t// in\n    tag_238:\n        /* \"#utility.yul\":4325:4359   */\n      tag_156\n      jump\t// in\n    tag_237:\n        /* \"#utility.yul\":4307:4360   */\n      tag_151\n      jump\t// in\n    tag_236:\n        /* \"#utility.yul\":4294:4360   */\n      swap1\n      pop\n        /* \"#utility.yul\":4224:4366   */\n      swap2\n      swap1\n      pop\n      jump\t// out\n        /* \"#utility.yul\":4372:4498   */\n    tag_158:\n        /* \"#utility.yul\":4422:4431   */\n      0x00\n        /* \"#utility.yul\":4455:4492   */\n      tag_240\n        /* \"#utility.yul\":4486:4491   */\n      dup3\n        /* \"#utility.yul\":4455:4492   */\n      tag_157\n      jump\t// in\n    tag_240:\n        /* \"#utility.yul\":4442:4492   */\n      swap1\n      pop\n        /* \"#utility.yul\":4372:4498   */\n      swap2\n      swap1\n      pop\n      jump\t// out\n        /* \"#utility.yul\":4504:4644   */\n    tag_159:\n        /* \"#utility.yul\":4568:4577   */\n      0x00\n        /* \"#utility.yul\":4601:4638   */\n      tag_242\n        /* \"#utility.yul\":4632:4637   */\n      dup3\n        /* \"#utility.yul\":4601:4638   */\n      tag_158\n      jump\t// in\n    tag_242:\n        /* \"#utility.yul\":4588:4638   */\n      swap1\n      pop\n        /* \"#utility.yul\":4504:4644   */\n      swap2\n      swap1\n      pop\n      jump\t// out\n        /* \"#utility.yul\":4650:4809   */\n    tag_160:\n        /* \"#utility.yul\":4751:4802   */\n      tag_244\n        /* \"#utility.yul\":4796:4801   */\n      dup2\n        /* \"#utility.yul\":4751:4802   */\n      tag_159\n      jump\t// in\n    tag_244:\n        /* \"#utility.yul\":4746:4749   */\n      dup3\n        /* \"#utility.yul\":4739:4803   */\n      mstore\n        /* \"#utility.yul\":4650:4809   */\n      pop\n      pop\n      jump\t// out\n        /* \"#utility.yul\":4815:5065   */\n    tag_56:\n        /* \"#utility.yul\":4922:4926   */\n      0x00\n        /* \"#utility.yul\":4960:4962   */\n      0x20\n        /* \"#utility.yul\":4949:4958   */\n      dup3\n        /* \"#utility.yul\":4945:4963   */\n      add\n        /* \"#utility.yul\":4937:4963   */\n      swap1\n      pop\n        /* \"#utility.yul\":4973:5058   */\n      tag_246\n        /* \"#utility.yul\":5055:5056   */\n      0x00\n        /* \"#utility.yul\":5044:5053   */\n      dup4\n        /* \"#utility.yul\":5040:5057   */\n      add\n        /* \"#utility.yul\":5031:5037   */\n      dup5\n        /* \"#utility.yul\":4973:5058   */\n      tag_160\n      jump\t// in\n    tag_246:\n        /* \"#utility.yul\":4815:5065   */\n      swap3\n      swap2\n      pop\n      pop\n      jump\t// out\n        /* \"#utility.yul\":5071:5251   */\n    tag_161:\n        /* \"#utility.yul\":5119:5196   */\n      0x4e487b7100000000000000000000000000000000000000000000000000000000\n        /* \"#utility.yul\":5116:5117   */\n      0x00\n        /* \"#utility.yul\":5109:5197   */\n      mstore\n        /* \"#utility.yul\":5216:5220   */\n      0x11\n        /* \"#utility.yul\":5213:5214   */\n      0x04\n        /* \"#utility.yul\":5206:5221   */\n      mstore\n        /* \"#utility.yul\":5240:5244   */\n      0x24\n        /* \"#utility.yul\":5237:5238   */\n      0x00\n        /* \"#utility.yul\":5230:5245   */\n      revert\n        /* \"#utility.yul\":5257:5448   */\n    tag_62:\n        /* \"#utility.yul\":5297:5300   */\n      0x00\n        /* \"#utility.yul\":5316:5336   */\n      tag_249\n        /* \"#utility.yul\":5334:5335   */\n      dup3\n        /* \"#utility.yul\":5316:5336   */\n      tag_144\n      jump\t// in\n    tag_249:\n        /* \"#utility.yul\":5311:5336   */\n      swap2\n      pop\n        /* \"#utility.yul\":5350:5370   */\n      tag_250\n        /* \"#utility.yul\":5368:5369   */\n      dup4\n        /* \"#utility.yul\":5350:5370   */\n      tag_144\n      jump\t// in\n    tag_250:\n        /* \"#utility.yul\":5345:5370   */\n      swap3\n      pop\n        /* \"#utility.yul\":5393:5394   */\n      dup3\n        /* \"#utility.yul\":5390:5391   */\n      dup3\n        /* \"#utility.yul\":5386:5395   */\n      add\n        /* \"#utility.yul\":5379:5395   */\n      swap1\n      pop\n        /* \"#utility.yul\":5414:5417   */\n      dup1\n        /* \"#utility.yul\":5411:5412   */\n      dup3\n        /* \"#utility.yul\":5408:5418   */\n      gt\n        /* \"#utility.yul\":5405:5441   */\n      iszero\n      tag_251\n      jumpi\n        /* \"#utility.yul\":5421:5439   */\n      tag_252\n      tag_161\n      jump\t// in\n    tag_252:\n        /* \"#utility.yul\":5405:5441   */\n    tag_251:\n        /* \"#utility.yul\":5257:5448   */\n      swap3\n      swap2\n      pop\n      pop\n      jump\t// out\n        /* \"#utility.yul\":5454:5623   */\n    tag_162:\n        /* \"#utility.yul\":5538:5549   */\n      0x00\n        /* \"#utility.yul\":5572:5578   */\n      dup3\n        /* \"#utility.yul\":5567:5570   */\n      dup3\n        /* \"#utility.yul\":5560:5579   */\n      mstore\n        /* \"#utility.yul\":5612:5616   */\n      0x20\n        /* \"#utility.yul\":5607:5610   */\n      dup3\n        /* \"#utility.yul\":5603:5617   */\n      add\n        /* \"#utility.yul\":5588:5617   */\n      swap1\n      pop\n        /* \"#utility.yul\":5454:5623   */\n      swap3\n      swap2\n      pop\n      pop\n      jump\t// out\n        /* \"#utility.yul\":5629:5788   */\n    tag_163:\n        /* \"#utility.yul\":5769:5780   */\n      0x6e6f7420656e6465640000000000000000000000000000000000000000000000\n        /* \"#utility.yul\":5765:5766   */\n      0x00\n        /* \"#utility.yul\":5757:5763   */\n      dup3\n        /* \"#utility.yul\":5753:5767   */\n      add\n        /* \"#utility.yul\":5746:5781   */\n      mstore\n        /* \"#utility.yul\":5629:5788   */\n      pop\n      jump\t// out\n        /* \"#utility.yul\":5794:6159   */\n    tag_164:\n        /* \"#utility.yul\":5936:5939   */\n      0x00\n        /* \"#utility.yul\":5957:6023   */\n      tag_256\n        /* \"#utility.yul\":6021:6022   */\n      0x09\n        /* \"#utility.yul\":6016:6019   */\n      dup4\n        /* \"#utility.yul\":5957:6023   */\n      tag_162\n      jump\t// in\n    tag_256:\n        /* \"#utility.yul\":5950:6023   */\n      swap2\n      pop\n        /* \"#utility.yul\":6032:6125   */\n      tag_257\n        /* \"#utility.yul\":6121:6124   */\n      dup3\n        /* \"#utility.yul\":6032:6125   */\n      tag_163\n      jump\t// in\n    tag_257:\n        /* \"#utility.yul\":6150:6152   */\n      0x20\n        /* \"#utility.yul\":6145:6148   */\n      dup3\n        /* \"#utility.yul\":6141:6153   */\n      add\n        /* \"#utility.yul\":6134:6153   */\n      swap1\n      pop\n        /* \"#utility.yul\":5794:6159   */\n      swap2\n      swap1\n      pop\n      jump\t// out\n        /* \"#utility.yul\":6165:6584   */\n    tag_66:\n        /* \"#utility.yul\":6331:6335   */\n      0x00\n        /* \"#utility.yul\":6369:6371   */\n      0x20\n        /* \"#utility.yul\":6358:6367   */\n      dup3\n        /* \"#utility.yul\":6354:6372   */\n      add\n        /* \"#utility.yul\":6346:6372   */\n      swap1\n      pop\n        /* \"#utility.yul\":6418:6427   */\n      dup2\n        /* \"#utility.yul\":6412:6416   */\n      dup2\n        /* \"#utility.yul\":6408:6428   */\n      sub\n        /* \"#utility.yul\":6404:6405   */\n      0x00\n        /* \"#utility.yul\":6393:6402   */\n      dup4\n        /* \"#utility.yul\":6389:6406   */\n      add\n        /* \"#utility.yul\":6382:6429   */\n      mstore\n        /* \"#utility.yul\":6446:6577   */\n      tag_259\n        /* \"#utility.yul\":6572:6576   */\n      dup2\n        /* \"#utility.yul\":6446:6577   */\n      tag_164\n      jump\t// in\n    tag_259:\n        /* \"#utility.yul\":6438:6577   */\n      swap1\n      pop\n        /* \"#utility.yul\":6165:6584   */\n      swap2\n      swap1\n      pop\n      jump\t// out\n        /* \"#utility.yul\":6590:6752   */\n    tag_165:\n        /* \"#utility.yul\":6730:6744   */\n      0x7265616368656420676f616c0000000000000000000000000000000000000000\n        /* \"#utility.yul\":6726:6727   */\n      0x00\n        /* \"#utility.yul\":6718:6724   */\n      dup3\n        /* \"#utility.yul\":6714:6728   */\n      add\n        /* \"#utility.yul\":6707:6745   */\n      mstore\n        /* \"#utility.yul\":6590:6752   */\n      pop\n      jump\t// out\n        /* \"#utility.yul\":6758:7124   */\n    tag_166:\n        /* \"#utility.yul\":6900:6903   */\n      0x00\n        /* \"#utility.yul\":6921:6988   */\n      tag_262\n        /* \"#utility.yul\":6985:6987   */\n      0x0c\n        /* \"#utility.yul\":6980:6983   */\n      dup4\n        /* \"#utility.yul\":6921:6988   */\n      tag_162\n      jump\t// in\n    tag_262:\n        /* \"#utility.yul\":6914:6988   */\n      swap2\n      pop\n        /* \"#utility.yul\":6997:7090   */\n      tag_263\n        /* \"#utility.yul\":7086:7089   */\n      dup3\n        /* \"#utility.yul\":6997:7090   */\n      tag_165\n      jump\t// in\n    tag_263:\n        /* \"#utility.yul\":7115:7117   */\n      0x20\n        /* \"#utility.yul\":7110:7113   */\n      dup3\n        /* \"#utility.yul\":7106:7118   */\n      add\n        /* \"#utility.yul\":7099:7118   */\n      swap1\n      pop\n        /* \"#utility.yul\":6758:7124   */\n      swap2\n      swap1\n      pop\n      jump\t// out\n        /* \"#utility.yul\":7130:7549   */\n    tag_69:\n        /* \"#utility.yul\":7296:7300   */\n      0x00\n        /* \"#utility.yul\":7334:7336   */\n      0x20\n        /* \"#utility.yul\":7323:7332   */\n      dup3\n        /* \"#utility.yul\":7319:7337   */\n      add\n        /* \"#utility.yul\":7311:7337   */\n      swap1\n      pop\n        /* \"#utility.yul\":7383:7392   */\n      dup2\n        /* \"#utility.yul\":7377:7381   */\n      dup2\n        /* \"#utility.yul\":7373:7393   */\n      sub\n        /* \"#utility.yul\":7369:7370   */\n      0x00\n        /* \"#utility.yul\":7358:7367   */\n      dup4\n        /* \"#utility.yul\":7354:7371   */\n      add\n        /* \"#utility.yul\":7347:7394   */\n      mstore\n        /* \"#utility.yul\":7411:7542   */\n      tag_265\n        /* \"#utility.yul\":7537:7541   */\n      dup2\n        /* \"#utility.yul\":7411:7542   */\n      tag_166\n      jump\t// in\n    tag_265:\n        /* \"#utility.yul\":7403:7542   */\n      swap1\n      pop\n        /* \"#utility.yul\":7130:7549   */\n      swap2\n      swap1\n      pop\n      jump\t// out\n        /* \"#utility.yul\":7555:7887   */\n    tag_71:\n        /* \"#utility.yul\":7676:7680   */\n      0x00\n        /* \"#utility.yul\":7714:7716   */\n      0x40\n        /* \"#utility.yul\":7703:7712   */\n      dup3\n        /* \"#utility.yul\":7699:7717   */\n      add\n        /* \"#utility.yul\":7691:7717   */\n      swap1\n      pop\n        /* \"#utility.yul\":7727:7798   */\n      tag_267\n        /* \"#utility.yul\":7795:7796   */\n      0x00\n        /* \"#utility.yul\":7784:7793   */\n      dup4\n        /* \"#utility.yul\":7780:7797   */\n      add\n        /* \"#utility.yul\":7771:7777   */\n      dup6\n        /* \"#utility.yul\":7727:7798   */\n      tag_153\n      jump\t// in\n    tag_267:\n        /* \"#utility.yul\":7808:7880   */\n      tag_268\n        /* \"#utility.yul\":7876:7878   */\n      0x20\n        /* \"#utility.yul\":7865:7874   */\n      dup4\n        /* \"#utility.yul\":7861:7879   */\n      add\n        /* \"#utility.yul\":7852:7858   */\n      dup5\n        /* \"#utility.yul\":7808:7880   */\n      tag_145\n      jump\t// in\n    tag_268:\n        /* \"#utility.yul\":7555:7887   */\n      swap4\n      swap3\n      pop\n      pop\n      pop\n      jump\t// out\n        /* \"#utility.yul\":7893:8009   */\n    tag_167:\n        /* \"#utility.yul\":7963:7984   */\n      tag_270\n        /* \"#utility.yul\":7978:7983   */\n      dup2\n        /* \"#utility.yul\":7963:7984   */\n      tag_154\n      jump\t// in\n    tag_270:\n        /* \"#utility.yul\":7956:7961   */\n      dup2\n        /* \"#utility.yul\":7953:7985   */\n      eq\n        /* \"#utility.yul\":7943:8003   */\n      tag_271\n      jumpi\n        /* \"#utility.yul\":7999:8000   */\n      0x00\n        /* \"#utility.yul\":7996:7997   */\n      dup1\n        /* \"#utility.yul\":7989:8001   */\n      revert\n        /* \"#utility.yul\":7943:8003   */\n    tag_271:\n        /* \"#utility.yul\":7893:8009   */\n      pop\n      jump\t// out\n        /* \"#utility.yul\":8015:8152   */\n    tag_168:\n        /* \"#utility.yul\":8069:8074   */\n      0x00\n        /* \"#utility.yul\":8100:8106   */\n      dup2\n        /* \"#utility.yul\":8094:8107   */\n      mload\n        /* \"#utility.yul\":8085:8107   */\n      swap1\n      pop\n        /* \"#utility.yul\":8116:8146   */\n      tag_273\n        /* \"#utility.yul\":8140:8145   */\n      dup2\n        /* \"#utility.yul\":8116:8146   */\n      tag_167\n      jump\t// in\n    tag_273:\n        /* \"#utility.yul\":8015:8152   */\n      swap3\n      swap2\n      pop\n      pop\n      jump\t// out\n        /* \"#utility.yul\":8158:8503   */\n    tag_75:\n        /* \"#utility.yul\":8225:8231   */\n      0x00\n        /* \"#utility.yul\":8274:8276   */\n      0x20\n        /* \"#utility.yul\":8262:8271   */\n      dup3\n        /* \"#utility.yul\":8253:8260   */\n      dup5\n        /* \"#utility.yul\":8249:8272   */\n      sub\n        /* \"#utility.yul\":8245:8277   */\n      slt\n        /* \"#utility.yul\":8242:8361   */\n      iszero\n      tag_275\n      jumpi\n        /* \"#utility.yul\":8280:8359   */\n      tag_276\n      tag_147\n      jump\t// in\n    tag_276:\n        /* \"#utility.yul\":8242:8361   */\n    tag_275:\n        /* \"#utility.yul\":8400:8401   */\n      0x00\n        /* \"#utility.yul\":8425:8486   */\n      tag_277\n        /* \"#utility.yul\":8478:8485   */\n      dup5\n        /* \"#utility.yul\":8469:8475   */\n      dup3\n        /* \"#utility.yul\":8458:8467   */\n      dup6\n        /* \"#utility.yul\":8454:8476   */\n      add\n        /* \"#utility.yul\":8425:8486   */\n      tag_168\n      jump\t// in\n    tag_277:\n        /* \"#utility.yul\":8415:8486   */\n      swap2\n      pop\n        /* \"#utility.yul\":8371:8496   */\n      pop\n        /* \"#utility.yul\":8158:8503   */\n      swap3\n      swap2\n      pop\n      pop\n      jump\t// out\n        /* \"#utility.yul\":8509:8951   */\n    tag_77:\n        /* \"#utility.yul\":8658:8662   */\n      0x00\n        /* \"#utility.yul\":8696:8698   */\n      0x60\n        /* \"#utility.yul\":8685:8694   */\n      dup3\n        /* \"#utility.yul\":8681:8699   */\n      add\n        /* \"#utility.yul\":8673:8699   */\n      swap1\n      pop\n        /* \"#utility.yul\":8709:8780   */\n      tag_279\n        /* \"#utility.yul\":8777:8778   */\n      0x00\n        /* \"#utility.yul\":8766:8775   */\n      dup4\n        /* \"#utility.yul\":8762:8779   */\n      add\n        /* \"#utility.yul\":8753:8759   */\n      dup7\n        /* \"#utility.yul\":8709:8780   */\n      tag_145\n      jump\t// in\n    tag_279:\n        /* \"#utility.yul\":8790:8862   */\n      tag_280\n        /* \"#utility.yul\":8858:8860   */\n      0x20\n        /* \"#utility.yul\":8847:8856   */\n      dup4\n        /* \"#utility.yul\":8843:8861   */\n      add\n        /* \"#utility.yul\":8834:8840   */\n      dup6\n        /* \"#utility.yul\":8790:8862   */\n      tag_153\n      jump\t// in\n    tag_280:\n        /* \"#utility.yul\":8872:8944   */\n      tag_281\n        /* \"#utility.yul\":8940:8942   */\n      0x40\n        /* \"#utility.yul\":8929:8938   */\n      dup4\n        /* \"#utility.yul\":8925:8943   */\n      add\n        /* \"#utility.yul\":8916:8922   */\n      dup5\n        /* \"#utility.yul\":8872:8944   */\n      tag_145\n      jump\t// in\n    tag_281:\n        /* \"#utility.yul\":8509:8951   */\n      swap5\n      swap4\n      pop\n      pop\n      pop\n      pop\n      jump\t// out\n        /* \"#utility.yul\":8957:9119   */\n    tag_169:\n        /* \"#utility.yul\":9097:9111   */\n      0x6e6f7420616e206f776e65720000000000000000000000000000000000000000\n        /* \"#utility.yul\":9093:9094   */\n      0x00\n        /* \"#utility.yul\":9085:9091   */\n      dup3\n        /* \"#utility.yul\":9081:9095   */\n      add\n        /* \"#utility.yul\":9074:9112   */\n      mstore\n        /* \"#utility.yul\":8957:9119   */\n      pop\n      jump\t// out\n        /* \"#utility.yul\":9125:9491   */\n    tag_170:\n        /* \"#utility.yul\":9267:9270   */\n      0x00\n        /* \"#utility.yul\":9288:9355   */\n      tag_284\n        /* \"#utility.yul\":9352:9354   */\n      0x0c\n        /* \"#utility.yul\":9347:9350   */\n      dup4\n        /* \"#utility.yul\":9288:9355   */\n      tag_162\n      jump\t// in\n    tag_284:\n        /* \"#utility.yul\":9281:9355   */\n      swap2\n      pop\n        /* \"#utility.yul\":9364:9457   */\n      tag_285\n        /* \"#utility.yul\":9453:9456   */\n      dup3\n        /* \"#utility.yul\":9364:9457   */\n      tag_169\n      jump\t// in\n    tag_285:\n        /* \"#utility.yul\":9482:9484   */\n      0x20\n        /* \"#utility.yul\":9477:9480   */\n      dup3\n        /* \"#utility.yul\":9473:9485   */\n      add\n        /* \"#utility.yul\":9466:9485   */\n      swap1\n      pop\n        /* \"#utility.yul\":9125:9491   */\n      swap2\n      swap1\n      pop\n      jump\t// out\n        /* \"#utility.yul\":9497:9916   */\n    tag_81:\n        /* \"#utility.yul\":9663:9667   */\n      0x00\n        /* \"#utility.yul\":9701:9703   */\n      0x20\n        /* \"#utility.yul\":9690:9699   */\n      dup3\n        /* \"#utility.yul\":9686:9704   */\n      add\n        /* \"#utility.yul\":9678:9704   */\n      swap1\n      pop\n        /* \"#utility.yul\":9750:9759   */\n      dup2\n        /* \"#utility.yul\":9744:9748   */\n      dup2\n        /* \"#utility.yul\":9740:9760   */\n      sub\n        /* \"#utility.yul\":9736:9737   */\n      0x00\n        /* \"#utility.yul\":9725:9734   */\n      dup4\n        /* \"#utility.yul\":9721:9738   */\n      add\n        /* \"#utility.yul\":9714:9761   */\n      mstore\n        /* \"#utility.yul\":9778:9909   */\n      tag_287\n        /* \"#utility.yul\":9904:9908   */\n      dup2\n        /* \"#utility.yul\":9778:9909   */\n      tag_170\n      jump\t// in\n    tag_287:\n        /* \"#utility.yul\":9770:9909   */\n      swap1\n      pop\n        /* \"#utility.yul\":9497:9916   */\n      swap2\n      swap1\n      pop\n      jump\t// out\n        /* \"#utility.yul\":9922:10090   */\n    tag_171:\n        /* \"#utility.yul\":10062:10082   */\n      0x706c656467656420697320746f6f206c6f770000000000000000000000000000\n        /* \"#utility.yul\":10058:10059   */\n      0x00\n        /* \"#utility.yul\":10050:10056   */\n      dup3\n        /* \"#utility.yul\":10046:10060   */\n      add\n        /* \"#utility.yul\":10039:10083   */\n      mstore\n        /* \"#utility.yul\":9922:10090   */\n      pop\n      jump\t// out\n        /* \"#utility.yul\":10096:10462   */\n    tag_172:\n        /* \"#utility.yul\":10238:10241   */\n      0x00\n        /* \"#utility.yul\":10259:10326   */\n      tag_290\n        /* \"#utility.yul\":10323:10325   */\n      0x12\n        /* \"#utility.yul\":10318:10321   */\n      dup4\n        /* \"#utility.yul\":10259:10326   */\n      tag_162\n      jump\t// in\n    tag_290:\n        /* \"#utility.yul\":10252:10326   */\n      swap2\n      pop\n        /* \"#utility.yul\":10335:10428   */\n      tag_291\n        /* \"#utility.yul\":10424:10427   */\n      dup3\n        /* \"#utility.yul\":10335:10428   */\n      tag_171\n      jump\t// in\n    tag_291:\n        /* \"#utility.yul\":10453:10455   */\n      0x20\n        /* \"#utility.yul\":10448:10451   */\n      dup3\n        /* \"#utility.yul\":10444:10456   */\n      add\n        /* \"#utility.yul\":10437:10456   */\n      swap1\n      pop\n        /* \"#utility.yul\":10096:10462   */\n      swap2\n      swap1\n      pop\n      jump\t// out\n        /* \"#utility.yul\":10468:10887   */\n    tag_86:\n        /* \"#utility.yul\":10634:10638   */\n      0x00\n        /* \"#utility.yul\":10672:10674   */\n      0x20\n        /* \"#utility.yul\":10661:10670   */\n      dup3\n        /* \"#utility.yul\":10657:10675   */\n      add\n        /* \"#utility.yul\":10649:10675   */\n      swap1\n      pop\n        /* \"#utility.yul\":10721:10730   */\n      dup2\n        /* \"#utility.yul\":10715:10719   */\n      dup2\n        /* \"#utility.yul\":10711:10731   */\n      sub\n        /* \"#utility.yul\":10707:10708   */\n      0x00\n        /* \"#utility.yul\":10696:10705   */\n      dup4\n        /* \"#utility.yul\":10692:10709   */\n      add\n        /* \"#utility.yul\":10685:10732   */\n      mstore\n        /* \"#utility.yul\":10749:10880   */\n      tag_293\n        /* \"#utility.yul\":10875:10879   */\n      dup2\n        /* \"#utility.yul\":10749:10880   */\n      tag_172\n      jump\t// in\n    tag_293:\n        /* \"#utility.yul\":10741:10880   */\n      swap1\n      pop\n        /* \"#utility.yul\":10468:10887   */\n      swap2\n      swap1\n      pop\n      jump\t// out\n        /* \"#utility.yul\":10893:11058   */\n    tag_173:\n        /* \"#utility.yul\":11033:11050   */\n      0x616c726561647920636c61696d65640000000000000000000000000000000000\n        /* \"#utility.yul\":11029:11030   */\n      0x00\n        /* \"#utility.yul\":11021:11027   */\n      dup3\n        /* \"#utility.yul\":11017:11031   */\n      add\n        /* \"#utility.yul\":11010:11051   */\n      mstore\n        /* \"#utility.yul\":10893:11058   */\n      pop\n      jump\t// out\n        /* \"#utility.yul\":11064:11430   */\n    tag_174:\n        /* \"#utility.yul\":11206:11209   */\n      0x00\n        /* \"#utility.yul\":11227:11294   */\n      tag_296\n        /* \"#utility.yul\":11291:11293   */\n      0x0f\n        /* \"#utility.yul\":11286:11289   */\n      dup4\n        /* \"#utility.yul\":11227:11294   */\n      tag_162\n      jump\t// in\n    tag_296:\n        /* \"#utility.yul\":11220:11294   */\n      swap2\n      pop\n        /* \"#utility.yul\":11303:11396   */\n      tag_297\n        /* \"#utility.yul\":11392:11395   */\n      dup3\n        /* \"#utility.yul\":11303:11396   */\n      tag_173\n      jump\t// in\n    tag_297:\n        /* \"#utility.yul\":11421:11423   */\n      0x20\n        /* \"#utility.yul\":11416:11419   */\n      dup3\n        /* \"#utility.yul\":11412:11424   */\n      add\n        /* \"#utility.yul\":11405:11424   */\n      swap1\n      pop\n        /* \"#utility.yul\":11064:11430   */\n      swap2\n      swap1\n      pop\n      jump\t// out\n        /* \"#utility.yul\":11436:11855   */\n    tag_89:\n        /* \"#utility.yul\":11602:11606   */\n      0x00\n        /* \"#utility.yul\":11640:11642   */\n      0x20\n        /* \"#utility.yul\":11629:11638   */\n      dup3\n        /* \"#utility.yul\":11625:11643   */\n      add\n        /* \"#utility.yul\":11617:11643   */\n      swap1\n      pop\n        /* \"#utility.yul\":11689:11698   */\n      dup2\n        /* \"#utility.yul\":11683:11687   */\n      dup2\n        /* \"#utility.yul\":11679:11699   */\n      sub\n        /* \"#utility.yul\":11675:11676   */\n      0x00\n        /* \"#utility.yul\":11664:11673   */\n      dup4\n        /* \"#utility.yul\":11660:11677   */\n      add\n        /* \"#utility.yul\":11653:11700   */\n      mstore\n        /* \"#utility.yul\":11717:11848   */\n      tag_299\n        /* \"#utility.yul\":11843:11847   */\n      dup2\n        /* \"#utility.yul\":11717:11848   */\n      tag_174\n      jump\t// in\n    tag_299:\n        /* \"#utility.yul\":11709:11848   */\n      swap1\n      pop\n        /* \"#utility.yul\":11436:11855   */\n      swap2\n      swap1\n      pop\n      jump\t// out\n        /* \"#utility.yul\":11861:12026   */\n    tag_175:\n        /* \"#utility.yul\":12001:12018   */\n      0x616c726561647920737461727465640000000000000000000000000000000000\n        /* \"#utility.yul\":11997:11998   */\n      0x00\n        /* \"#utility.yul\":11989:11995   */\n      dup3\n        /* \"#utility.yul\":11985:11999   */\n      add\n        /* \"#utility.yul\":11978:12019   */\n      mstore\n        /* \"#utility.yul\":11861:12026   */\n      pop\n      jump\t// out\n        /* \"#utility.yul\":12032:12398   */\n    tag_176:\n        /* \"#utility.yul\":12174:12177   */\n      0x00\n        /* \"#utility.yul\":12195:12262   */\n      tag_302\n        /* \"#utility.yul\":12259:12261   */\n      0x0f\n        /* \"#utility.yul\":12254:12257   */\n      dup4\n        /* \"#utility.yul\":12195:12262   */\n      tag_162\n      jump\t// in\n    tag_302:\n        /* \"#utility.yul\":12188:12262   */\n      swap2\n      pop\n        /* \"#utility.yul\":12271:12364   */\n      tag_303\n        /* \"#utility.yul\":12360:12363   */\n      dup3\n        /* \"#utility.yul\":12271:12364   */\n      tag_175\n      jump\t// in\n    tag_303:\n        /* \"#utility.yul\":12389:12391   */\n      0x20\n        /* \"#utility.yul\":12384:12387   */\n      dup3\n        /* \"#utility.yul\":12380:12392   */\n      add\n        /* \"#utility.yul\":12373:12392   */\n      swap1\n      pop\n        /* \"#utility.yul\":12032:12398   */\n      swap2\n      swap1\n      pop\n      jump\t// out\n        /* \"#utility.yul\":12404:12823   */\n    tag_100:\n        /* \"#utility.yul\":12570:12574   */\n      0x00\n        /* \"#utility.yul\":12608:12610   */\n      0x20\n        /* \"#utility.yul\":12597:12606   */\n      dup3\n        /* \"#utility.yul\":12593:12611   */\n      add\n        /* \"#utility.yul\":12585:12611   */\n      swap1\n      pop\n        /* \"#utility.yul\":12657:12666   */\n      dup2\n        /* \"#utility.yul\":12651:12655   */\n      dup2\n        /* \"#utility.yul\":12647:12667   */\n      sub\n        /* \"#utility.yul\":12643:12644   */\n      0x00\n        /* \"#utility.yul\":12632:12641   */\n      dup4\n        /* \"#utility.yul\":12628:12645   */\n      add\n        /* \"#utility.yul\":12621:12668   */\n      mstore\n        /* \"#utility.yul\":12685:12816   */\n      tag_305\n        /* \"#utility.yul\":12811:12815   */\n      dup2\n        /* \"#utility.yul\":12685:12816   */\n      tag_176\n      jump\t// in\n    tag_305:\n        /* \"#utility.yul\":12677:12816   */\n      swap1\n      pop\n        /* \"#utility.yul\":12404:12823   */\n      swap2\n      swap1\n      pop\n      jump\t// out\n        /* \"#utility.yul\":12829:12984   */\n    tag_177:\n        /* \"#utility.yul\":12969:12976   */\n      0x656e646564000000000000000000000000000000000000000000000000000000\n        /* \"#utility.yul\":12965:12966   */\n      0x00\n        /* \"#utility.yul\":12957:12963   */\n      dup3\n        /* \"#utility.yul\":12953:12967   */\n      add\n        /* \"#utility.yul\":12946:12977   */\n      mstore\n        /* \"#utility.yul\":12829:12984   */\n      pop\n      jump\t// out\n        /* \"#utility.yul\":12990:13355   */\n    tag_178:\n        /* \"#utility.yul\":13132:13135   */\n      0x00\n        /* \"#utility.yul\":13153:13219   */\n      tag_308\n        /* \"#utility.yul\":13217:13218   */\n      0x05\n        /* \"#utility.yul\":13212:13215   */\n      dup4\n        /* \"#utility.yul\":13153:13219   */\n      tag_162\n      jump\t// in\n    tag_308:\n        /* \"#utility.yul\":13146:13219   */\n      swap2\n      pop\n        /* \"#utility.yul\":13228:13321   */\n      tag_309\n        /* \"#utility.yul\":13317:13320   */\n      dup3\n        /* \"#utility.yul\":13228:13321   */\n      tag_177\n      jump\t// in\n    tag_309:\n        /* \"#utility.yul\":13346:13348   */\n      0x20\n        /* \"#utility.yul\":13341:13344   */\n      dup3\n        /* \"#utility.yul\":13337:13349   */\n      add\n        /* \"#utility.yul\":13330:13349   */\n      swap1\n      pop\n        /* \"#utility.yul\":12990:13355   */\n      swap2\n      swap1\n      pop\n      jump\t// out\n        /* \"#utility.yul\":13361:13780   */\n    tag_105:\n        /* \"#utility.yul\":13527:13531   */\n      0x00\n        /* \"#utility.yul\":13565:13567   */\n      0x20\n        /* \"#utility.yul\":13554:13563   */\n      dup3\n        /* \"#utility.yul\":13550:13568   */\n      add\n        /* \"#utility.yul\":13542:13568   */\n      swap1\n      pop\n        /* \"#utility.yul\":13614:13623   */\n      dup2\n        /* \"#utility.yul\":13608:13612   */\n      dup2\n        /* \"#utility.yul\":13604:13624   */\n      sub\n        /* \"#utility.yul\":13600:13601   */\n      0x00\n        /* \"#utility.yul\":13589:13598   */\n      dup4\n        /* \"#utility.yul\":13585:13602   */\n      add\n        /* \"#utility.yul\":13578:13625   */\n      mstore\n        /* \"#utility.yul\":13642:13773   */\n      tag_311\n        /* \"#utility.yul\":13768:13772   */\n      dup2\n        /* \"#utility.yul\":13642:13773   */\n      tag_178\n      jump\t// in\n    tag_311:\n        /* \"#utility.yul\":13634:13773   */\n      swap1\n      pop\n        /* \"#utility.yul\":13361:13780   */\n      swap2\n      swap1\n      pop\n      jump\t// out\n        /* \"#utility.yul\":13786:13980   */\n    tag_107:\n        /* \"#utility.yul\":13826:13830   */\n      0x00\n        /* \"#utility.yul\":13846:13866   */\n      tag_313\n        /* \"#utility.yul\":13864:13865   */\n      dup3\n        /* \"#utility.yul\":13846:13866   */\n      tag_144\n      jump\t// in\n    tag_313:\n        /* \"#utility.yul\":13841:13866   */\n      swap2\n      pop\n        /* \"#utility.yul\":13880:13900   */\n      tag_314\n        /* \"#utility.yul\":13898:13899   */\n      dup4\n        /* \"#utility.yul\":13880:13900   */\n      tag_144\n      jump\t// in\n    tag_314:\n        /* \"#utility.yul\":13875:13900   */\n      swap3\n      pop\n        /* \"#utility.yul\":13924:13925   */\n      dup3\n        /* \"#utility.yul\":13921:13922   */\n      dup3\n        /* \"#utility.yul\":13917:13926   */\n      sub\n        /* \"#utility.yul\":13909:13926   */\n      swap1\n      pop\n        /* \"#utility.yul\":13948:13949   */\n      dup2\n        /* \"#utility.yul\":13942:13946   */\n      dup2\n        /* \"#utility.yul\":13939:13950   */\n      gt\n        /* \"#utility.yul\":13936:13973   */\n      iszero\n      tag_315\n      jumpi\n        /* \"#utility.yul\":13953:13971   */\n      tag_316\n      tag_161\n      jump\t// in\n    tag_316:\n        /* \"#utility.yul\":13936:13973   */\n    tag_315:\n        /* \"#utility.yul\":13786:13980   */\n      swap3\n      swap2\n      pop\n      pop\n      jump\t// out\n        /* \"#utility.yul\":13986:14154   */\n    tag_179:\n        /* \"#utility.yul\":14126:14146   */\n      0x696e636f72726563742073746172742061740000000000000000000000000000\n        /* \"#utility.yul\":14122:14123   */\n      0x00\n        /* \"#utility.yul\":14114:14120   */\n      dup3\n        /* \"#utility.yul\":14110:14124   */\n      add\n        /* \"#utility.yul\":14103:14147   */\n      mstore\n        /* \"#utility.yul\":13986:14154   */\n      pop\n      jump\t// out\n        /* \"#utility.yul\":14160:14526   */\n    tag_180:\n        /* \"#utility.yul\":14302:14305   */\n      0x00\n        /* \"#utility.yul\":14323:14390   */\n      tag_319\n        /* \"#utility.yul\":14387:14389   */\n      0x12\n        /* \"#utility.yul\":14382:14385   */\n      dup4\n        /* \"#utility.yul\":14323:14390   */\n      tag_162\n      jump\t// in\n    tag_319:\n        /* \"#utility.yul\":14316:14390   */\n      swap2\n      pop\n        /* \"#utility.yul\":14399:14492   */\n      tag_320\n        /* \"#utility.yul\":14488:14491   */\n      dup3\n        /* \"#utility.yul\":14399:14492   */\n      tag_179\n      jump\t// in\n    tag_320:\n        /* \"#utility.yul\":14517:14519   */\n      0x20\n        /* \"#utility.yul\":14512:14515   */\n      dup3\n        /* \"#utility.yul\":14508:14520   */\n      add\n        /* \"#utility.yul\":14501:14520   */\n      swap1\n      pop\n        /* \"#utility.yul\":14160:14526   */\n      swap2\n      swap1\n      pop\n      jump\t// out\n        /* \"#utility.yul\":14532:14951   */\n    tag_117:\n        /* \"#utility.yul\":14698:14702   */\n      0x00\n        /* \"#utility.yul\":14736:14738   */\n      0x20\n        /* \"#utility.yul\":14725:14734   */\n      dup3\n        /* \"#utility.yul\":14721:14739   */\n      add\n        /* \"#utility.yul\":14713:14739   */\n      swap1\n      pop\n        /* \"#utility.yul\":14785:14794   */\n      dup2\n        /* \"#utility.yul\":14779:14783   */\n      dup2\n        /* \"#utility.yul\":14775:14795   */\n      sub\n        /* \"#utility.yul\":14771:14772   */\n      0x00\n        /* \"#utility.yul\":14760:14769   */\n      dup4\n        /* \"#utility.yul\":14756:14773   */\n      add\n        /* \"#utility.yul\":14749:14796   */\n      mstore\n        /* \"#utility.yul\":14813:14944   */\n      tag_322\n        /* \"#utility.yul\":14939:14943   */\n      dup2\n        /* \"#utility.yul\":14813:14944   */\n      tag_180\n      jump\t// in\n    tag_322:\n        /* \"#utility.yul\":14805:14944   */\n      swap1\n      pop\n        /* \"#utility.yul\":14532:14951   */\n      swap2\n      swap1\n      pop\n      jump\t// out\n        /* \"#utility.yul\":14957:15123   */\n    tag_181:\n        /* \"#utility.yul\":15097:15115   */\n      0x696e636f727265637420656e6420617400000000000000000000000000000000\n        /* \"#utility.yul\":15093:15094   */\n      0x00\n        /* \"#utility.yul\":15085:15091   */\n      dup3\n        /* \"#utility.yul\":15081:15095   */\n      add\n        /* \"#utility.yul\":15074:15116   */\n      mstore\n        /* \"#utility.yul\":14957:15123   */\n      pop\n      jump\t// out\n        /* \"#utility.yul\":15129:15495   */\n    tag_182:\n        /* \"#utility.yul\":15271:15274   */\n      0x00\n        /* \"#utility.yul\":15292:15359   */\n      tag_325\n        /* \"#utility.yul\":15356:15358   */\n      0x10\n        /* \"#utility.yul\":15351:15354   */\n      dup4\n        /* \"#utility.yul\":15292:15359   */\n      tag_162\n      jump\t// in\n    tag_325:\n        /* \"#utility.yul\":15285:15359   */\n      swap2\n      pop\n        /* \"#utility.yul\":15368:15461   */\n      tag_326\n        /* \"#utility.yul\":15457:15460   */\n      dup3\n        /* \"#utility.yul\":15368:15461   */\n      tag_181\n      jump\t// in\n    tag_326:\n        /* \"#utility.yul\":15486:15488   */\n      0x20\n        /* \"#utility.yul\":15481:15484   */\n      dup3\n        /* \"#utility.yul\":15477:15489   */\n      add\n        /* \"#utility.yul\":15470:15489   */\n      swap1\n      pop\n        /* \"#utility.yul\":15129:15495   */\n      swap2\n      swap1\n      pop\n      jump\t// out\n        /* \"#utility.yul\":15501:15920   */\n    tag_121:\n        /* \"#utility.yul\":15667:15671   */\n      0x00\n        /* \"#utility.yul\":15705:15707   */\n      0x20\n        /* \"#utility.yul\":15694:15703   */\n      dup3\n        /* \"#utility.yul\":15690:15708   */\n      add\n        /* \"#utility.yul\":15682:15708   */\n      swap1\n      pop\n        /* \"#utility.yul\":15754:15763   */\n      dup2\n        /* \"#utility.yul\":15748:15752   */\n      dup2\n        /* \"#utility.yul\":15744:15764   */\n      sub\n        /* \"#utility.yul\":15740:15741   */\n      0x00\n        /* \"#utility.yul\":15729:15738   */\n      dup4\n        /* \"#utility.yul\":15725:15742   */\n      add\n        /* \"#utility.yul\":15718:15765   */\n      mstore\n        /* \"#utility.yul\":15782:15913   */\n      tag_328\n        /* \"#utility.yul\":15908:15912   */\n      dup2\n        /* \"#utility.yul\":15782:15913   */\n      tag_182\n      jump\t// in\n    tag_328:\n        /* \"#utility.yul\":15774:15913   */\n      swap1\n      pop\n        /* \"#utility.yul\":15501:15920   */\n      swap2\n      swap1\n      pop\n      jump\t// out\n        /* \"#utility.yul\":15926:16084   */\n    tag_183:\n        /* \"#utility.yul\":16066:16076   */\n      0x746f6f206c6f6e67000000000000000000000000000000000000000000000000\n        /* \"#utility.yul\":16062:16063   */\n      0x00\n        /* \"#utility.yul\":16054:16060   */\n      dup3\n        /* \"#utility.yul\":16050:16064   */\n      add\n        /* \"#utility.yul\":16043:16077   */\n      mstore\n        /* \"#utility.yul\":15926:16084   */\n      pop\n      jump\t// out\n        /* \"#utility.yul\":16090:16455   */\n    tag_184:\n        /* \"#utility.yul\":16232:16235   */\n      0x00\n        /* \"#utility.yul\":16253:16319   */\n      tag_331\n        /* \"#utility.yul\":16317:16318   */\n      0x08\n        /* \"#utility.yul\":16312:16315   */\n      dup4\n        /* \"#utility.yul\":16253:16319   */\n      tag_162\n      jump\t// in\n    tag_331:\n        /* \"#utility.yul\":16246:16319   */\n      swap2\n      pop\n        /* \"#utility.yul\":16328:16421   */\n      tag_332\n        /* \"#utility.yul\":16417:16420   */\n      dup3\n        /* \"#utility.yul\":16328:16421   */\n      tag_183\n      jump\t// in\n    tag_332:\n        /* \"#utility.yul\":16446:16448   */\n      0x20\n        /* \"#utility.yul\":16441:16444   */\n      dup3\n        /* \"#utility.yul\":16437:16449   */\n      add\n        /* \"#utility.yul\":16430:16449   */\n      swap1\n      pop\n        /* \"#utility.yul\":16090:16455   */\n      swap2\n      swap1\n      pop\n      jump\t// out\n        /* \"#utility.yul\":16461:16880   */\n    tag_125:\n        /* \"#utility.yul\":16627:16631   */\n      0x00\n        /* \"#utility.yul\":16665:16667   */\n      0x20\n        /* \"#utility.yul\":16654:16663   */\n      dup3\n        /* \"#utility.yul\":16650:16668   */\n      add\n        /* \"#utility.yul\":16642:16668   */\n      swap1\n      pop\n        /* \"#utility.yul\":16714:16723   */\n      dup2\n        /* \"#utility.yul\":16708:16712   */\n      dup2\n        /* \"#utility.yul\":16704:16724   */\n      sub\n        /* \"#utility.yul\":16700:16701   */\n      0x00\n        /* \"#utility.yul\":16689:16698   */\n      dup4\n        /* \"#utility.yul\":16685:16702   */\n      add\n        /* \"#utility.yul\":16678:16725   */\n      mstore\n        /* \"#utility.yul\":16742:16873   */\n      tag_334\n        /* \"#utility.yul\":16868:16872   */\n      dup2\n        /* \"#utility.yul\":16742:16873   */\n      tag_184\n      jump\t// in\n    tag_334:\n        /* \"#utility.yul\":16734:16873   */\n      swap1\n      pop\n        /* \"#utility.yul\":16461:16880   */\n      swap2\n      swap1\n      pop\n      jump\t// out\n        /* \"#utility.yul\":16886:17550   */\n    tag_127:\n        /* \"#utility.yul\":17091:17095   */\n      0x00\n        /* \"#utility.yul\":17129:17132   */\n      0xa0\n        /* \"#utility.yul\":17118:17127   */\n      dup3\n        /* \"#utility.yul\":17114:17133   */\n      add\n        /* \"#utility.yul\":17106:17133   */\n      swap1\n      pop\n        /* \"#utility.yul\":17143:17214   */\n      tag_336\n        /* \"#utility.yul\":17211:17212   */\n      0x00\n        /* \"#utility.yul\":17200:17209   */\n      dup4\n        /* \"#utility.yul\":17196:17213   */\n      add\n        /* \"#utility.yul\":17187:17193   */\n      dup9\n        /* \"#utility.yul\":17143:17214   */\n      tag_145\n      jump\t// in\n    tag_336:\n        /* \"#utility.yul\":17224:17296   */\n      tag_337\n        /* \"#utility.yul\":17292:17294   */\n      0x20\n        /* \"#utility.yul\":17281:17290   */\n      dup4\n        /* \"#utility.yul\":17277:17295   */\n      add\n        /* \"#utility.yul\":17268:17274   */\n      dup8\n        /* \"#utility.yul\":17224:17296   */\n      tag_153\n      jump\t// in\n    tag_337:\n        /* \"#utility.yul\":17306:17378   */\n      tag_338\n        /* \"#utility.yul\":17374:17376   */\n      0x40\n        /* \"#utility.yul\":17363:17372   */\n      dup4\n        /* \"#utility.yul\":17359:17377   */\n      add\n        /* \"#utility.yul\":17350:17356   */\n      dup7\n        /* \"#utility.yul\":17306:17378   */\n      tag_145\n      jump\t// in\n    tag_338:\n        /* \"#utility.yul\":17388:17460   */\n      tag_339\n        /* \"#utility.yul\":17456:17458   */\n      0x60\n        /* \"#utility.yul\":17445:17454   */\n      dup4\n        /* \"#utility.yul\":17441:17459   */\n      add\n        /* \"#utility.yul\":17432:17438   */\n      dup6\n        /* \"#utility.yul\":17388:17460   */\n      tag_145\n      jump\t// in\n    tag_339:\n        /* \"#utility.yul\":17470:17543   */\n      tag_340\n        /* \"#utility.yul\":17538:17541   */\n      0x80\n        /* \"#utility.yul\":17527:17536   */\n      dup4\n        /* \"#utility.yul\":17523:17542   */\n      add\n        /* \"#utility.yul\":17514:17520   */\n      dup5\n        /* \"#utility.yul\":17470:17543   */\n      tag_145\n      jump\t// in\n    tag_340:\n        /* \"#utility.yul\":16886:17550   */\n      swap7\n      swap6\n      pop\n      pop\n      pop\n      pop\n      pop\n      pop\n      jump\t// out\n        /* \"#utility.yul\":17556:17789   */\n    tag_129:\n        /* \"#utility.yul\":17595:17598   */\n      0x00\n        /* \"#utility.yul\":17618:17642   */\n      tag_342\n        /* \"#utility.yul\":17636:17641   */\n      dup3\n        /* \"#utility.yul\":17618:17642   */\n      tag_144\n      jump\t// in\n    tag_342:\n        /* \"#utility.yul\":17609:17642   */\n      swap2\n      pop\n        /* \"#utility.yul\":17664:17730   */\n      0xffffffffffffffffffffffffffffffffffffffffffffffffffffffffffffffff\n        /* \"#utility.yul\":17657:17662   */\n      dup3\n        /* \"#utility.yul\":17654:17731   */\n      sub\n        /* \"#utility.yul\":17651:17754   */\n      tag_343\n      jumpi\n        /* \"#utility.yul\":17734:17752   */\n      tag_344\n      tag_161\n      jump\t// in\n    tag_344:\n        /* \"#utility.yul\":17651:17754   */\n    tag_343:\n        /* \"#utility.yul\":17781:17782   */\n      0x01\n        /* \"#utility.yul\":17774:17779   */\n      dup3\n        /* \"#utility.yul\":17770:17783   */\n      add\n        /* \"#utility.yul\":17763:17783   */\n      swap1\n      pop\n        /* \"#utility.yul\":17556:17789   */\n      swap2\n      swap1\n      pop\n      jump\t// out\n        /* \"#utility.yul\":17795:17956   */\n    tag_185:\n        /* \"#utility.yul\":17935:17948   */\n      0x6e6f742073746172746564000000000000000000000000000000000000000000\n        /* \"#utility.yul\":17931:17932   */\n      0x00\n        /* \"#utility.yul\":17923:17929   */\n      dup3\n        /* \"#utility.yul\":17919:17933   */\n      add\n        /* \"#utility.yul\":17912:17949   */\n      mstore\n        /* \"#utility.yul\":17795:17956   */\n      pop\n      jump\t// out\n        /* \"#utility.yul\":17962:18328   */\n    tag_186:\n        /* \"#utility.yul\":18104:18107   */\n      0x00\n        /* \"#utility.yul\":18125:18192   */\n      tag_347\n        /* \"#utility.yul\":18189:18191   */\n      0x0b\n        /* \"#utility.yul\":18184:18187   */\n      dup4\n        /* \"#utility.yul\":18125:18192   */\n      tag_162\n      jump\t// in\n    tag_347:\n        /* \"#utility.yul\":18118:18192   */\n      swap2\n      pop\n        /* \"#utility.yul\":18201:18294   */\n      tag_348\n        /* \"#utility.yul\":18290:18293   */\n      dup3\n        /* \"#utility.yul\":18201:18294   */\n      tag_185\n      jump\t// in\n    tag_348:\n        /* \"#utility.yul\":18319:18321   */\n      0x20\n        /* \"#utility.yul\":18314:18317   */\n      dup3\n        /* \"#utility.yul\":18310:18322   */\n      add\n        /* \"#utility.yul\":18303:18322   */\n      swap1\n      pop\n        /* \"#utility.yul\":17962:18328   */\n      swap2\n      swap1\n      pop\n      jump\t// out\n        /* \"#utility.yul\":18334:18753   */\n    tag_133:\n        /* \"#utility.yul\":18500:18504   */\n      0x00\n        /* \"#utility.yul\":18538:18540   */\n      0x20\n        /* \"#utility.yul\":18527:18536   */\n      dup3\n        /* \"#utility.yul\":18523:18541   */\n      add\n        /* \"#utility.yul\":18515:18541   */\n      swap1\n      pop\n        /* \"#utility.yul\":18587:18596   */\n      dup2\n        /* \"#utility.yul\":18581:18585   */\n      dup2\n        /* \"#utility.yul\":18577:18597   */\n      sub\n        /* \"#utility.yul\":18573:18574   */\n      0x00\n        /* \"#utility.yul\":18562:18571   */\n      dup4\n        /* \"#utility.yul\":18558:18575   */\n      add\n        /* \"#utility.yul\":18551:18598   */\n      mstore\n        /* \"#utility.yul\":18615:18746   */\n      tag_350\n        /* \"#utility.yul\":18741:18745   */\n      dup2\n        /* \"#utility.yul\":18615:18746   */\n      tag_186\n      jump\t// in\n    tag_350:\n        /* \"#utility.yul\":18607:18746   */\n      swap1\n      pop\n        /* \"#utility.yul\":18334:18753   */\n      swap2\n      swap1\n      pop\n      jump\t// out\n        /* \"#utility.yul\":18759:19201   */\n    tag_139:\n        /* \"#utility.yul\":18908:18912   */\n      0x00\n        /* \"#utility.yul\":18946:18948   */\n      0x60\n        /* \"#utility.yul\":18935:18944   */\n      dup3\n        /* \"#utility.yul\":18931:18949   */\n      add\n        /* \"#utility.yul\":18923:18949   */\n      swap1\n      pop\n        /* \"#utility.yul\":18959:19030   */\n      tag_352\n        /* \"#utility.yul\":19027:19028   */\n      0x00\n        /* \"#utility.yul\":19016:19025   */\n      dup4\n        /* \"#utility.yul\":19012:19029   */\n      add\n        /* \"#utility.yul\":19003:19009   */\n      dup7\n        /* \"#utility.yul\":18959:19030   */\n      tag_153\n      jump\t// in\n    tag_352:\n        /* \"#utility.yul\":19040:19112   */\n      tag_353\n        /* \"#utility.yul\":19108:19110   */\n      0x20\n        /* \"#utility.yul\":19097:19106   */\n      dup4\n        /* \"#utility.yul\":19093:19111   */\n      add\n        /* \"#utility.yul\":19084:19090   */\n      dup6\n        /* \"#utility.yul\":19040:19112   */\n      tag_153\n      jump\t// in\n    tag_353:\n        /* \"#utility.yul\":19122:19194   */\n      tag_354\n        /* \"#utility.yul\":19190:19192   */\n      0x40\n        /* \"#utility.yul\":19179:19188   */\n      dup4\n        /* \"#utility.yul\":19175:19193   */\n      add\n        /* \"#utility.yul\":19166:19172   */\n      dup5\n        /* \"#utility.yul\":19122:19194   */\n      tag_145\n      jump\t// in\n    tag_354:\n        /* \"#utility.yul\":18759:19201   */\n      swap5\n      swap4\n      pop\n      pop\n      pop\n      pop\n      jump\t// out\n\n    auxdata: 0xa26469706673582212206ef8ff8daef1da2d0743f2b64c7e3355a76acace63f466f4183b93419427610a64736f6c634300081a0033\n}\n",
				"bytecode": {
					"linkReferences": {},
					"object": "60a060405234801561000f575f80fd5b506040516119b93803806119b9833981810160405281019061003191906100c9565b8073ffffffffffffffffffffffffffffffffffffffff1660808173ffffffffffffffffffffffffffffffffffffffff1681525050506100f4565b5f80fd5b5f73ffffffffffffffffffffffffffffffffffffffff82169050919050565b5f6100988261006f565b9050919050565b6100a88161008e565b81146100b2575f80fd5b50565b5f815190506100c38161009f565b92915050565b5f602082840312156100de576100dd61006b565b5b5f6100eb848285016100b5565b91505092915050565b6080516118916101285f395f81816103870152818161066801528181610a2701528181610d3b0152610e7b01526118915ff3fe608060405234801561000f575f80fd5b50600436106100b2575f3560e01c80638736c1791161006f5780638736c1791461017a578063b1724b4614610196578063b6a6d177146101b4578063e00dd161146101d2578063fc0c546a146101f0578063fde327be1461020e576100b2565b806323c9f684146100b6578063278ecde1146100d55780632813d19d146100f1578063379607f51461012657806340e58ee514610142578063711853ab1461015e575b5f80fd5b6100be61022a565b6040516100cc929190610f6f565b60405180910390f35b6100ef60048036038101906100ea9190610fc4565b610242565b005b61010b60048036038101906101069190610fc4565b610461565b60405161011d96959493929190611048565b60405180910390f35b610140600480360381019061013b9190610fc4565b6104c4565b005b61015c60048036038101906101579190610fc4565b610741565b005b610178600480360381019061017391906110a7565b610950565b005b610194600480360381019061018f91906110e5565b610b01565b005b61019e610d27565b6040516101ab9190611135565b60405180910390f35b6101bc610d2e565b6040516101c99190611135565b60405180910390f35b6101da610d33565b6040516101e79190611135565b60405180910390f35b6101f8610d39565b60405161020591906111a9565b60405180910390f35b610228600480360381019061022391906110a7565b610d5d565b005b5f804260284261023a91906111ef565b915091509091565b5f60015f8381526020019081526020015f2090508060040154421161029c576040517f08c379a00000000000000000000000000000000000000000000000000000000081526004016102939061127c565b60405180910390fd5b80600101548160020154106102e6576040517f08c379a00000000000000000000000000000000000000000000000000000000081526004016102dd906112e4565b60405180910390fd5b5f805f8481526020019081526020015f205f3373ffffffffffffffffffffffffffffffffffffffff1673ffffffffffffffffffffffffffffffffffffffff1681526020019081526020015f205490505f805f8581526020019081526020015f205f3373ffffffffffffffffffffffffffffffffffffffff1673ffffffffffffffffffffffffffffffffffffffff1681526020019081526020015f20819055507f000000000000000000000000000000000000000000000000000000000000000073ffffffffffffffffffffffffffffffffffffffff1663a9059cbb33836040518363ffffffff1660e01b81526004016103e0929190611302565b6020604051808303815f875af11580156103fc573d5f803e3d5ffd5b505050506040513d601f19601f820116820180604052508101906104209190611353565b507f7ca5472b7ea78c2c0141c5a12ee6d170cf4ce8ed06be3d22c8252ddfc7a6a2c48333836040516104549392919061137e565b60405180910390a1505050565b6001602052805f5260405f205f91509050805f015f9054906101000a900473ffffffffffffffffffffffffffffffffffffffff1690806001015490806002015490806003015490806004015490806005015f9054906101000a900460ff16905086565b5f60015f8381526020019081526020015f209050805f015f9054906101000a900473ffffffffffffffffffffffffffffffffffffffff1673ffffffffffffffffffffffffffffffffffffffff163373ffffffffffffffffffffffffffffffffffffffff1614610568576040517f08c379a000000000000000000000000000000000000000000000000000000000815260040161055f906113fd565b60405180910390fd5b806004015442116105ae576040517f08c379a00000000000000000000000000000000000000000000000000000000081526004016105a59061127c565b60405180910390fd5b8060010154816002015410156105f9576040517f08c379a00000000000000000000000000000000000000000000000000000000081526004016105f090611465565b60405180910390fd5b806005015f9054906101000a900460ff161561064a576040517f08c379a0000000000000000000000000000000000000000000000000000000008152600401610641906114cd565b60405180910390fd5b6001816005015f6101000a81548160ff0219169083151502179055507f000000000000000000000000000000000000000000000000000000000000000073ffffffffffffffffffffffffffffffffffffffff1663a9059cbb3383600201546040518363ffffffff1660e01b81526004016106c5929190611302565b6020604051808303815f875af11580156106e1573d5f803e3d5ffd5b505050506040513d601f19601f820116820180604052508101906107059190611353565b507f7a355715549cfe7c1cba26304350343fbddc4b4f72d3ce3e7c27117dd20b5cb8826040516107359190611135565b60405180910390a15050565b5f60015f8381526020019081526020015f206040518060c00160405290815f82015f9054906101000a900473ffffffffffffffffffffffffffffffffffffffff1673ffffffffffffffffffffffffffffffffffffffff1673ffffffffffffffffffffffffffffffffffffffff16815260200160018201548152602001600282015481526020016003820154815260200160048201548152602001600582015f9054906101000a900460ff1615151515815250509050805f015173ffffffffffffffffffffffffffffffffffffffff163373ffffffffffffffffffffffffffffffffffffffff1614610867576040517f08c379a000000000000000000000000000000000000000000000000000000000815260040161085e906113fd565b60405180910390fd5b806060015142106108ad576040517f08c379a00000000000000000000000000000000000000000000000000000000081526004016108a490611535565b60405180910390fd5b60015f8381526020019081526020015f205f8082015f6101000a81549073ffffffffffffffffffffffffffffffffffffffff0219169055600182015f9055600282015f9055600382015f9055600482015f9055600582015f6101000a81549060ff021916905550507f829a8683c544ad289ce92d3ce06e9ebad69b18a6916e60ec766c2c217461d8e9826040516109449190611135565b60405180910390a15050565b5f60015f8481526020019081526020015f209050806004015442106109aa576040517f08c379a00000000000000000000000000000000000000000000000000000000081526004016109a19061159d565b60405180910390fd5b81816002015f8282546109bd91906115bb565b92505081905550815f808581526020019081526020015f205f3373ffffffffffffffffffffffffffffffffffffffff1673ffffffffffffffffffffffffffffffffffffffff1681526020019081526020015f205f828254610a1e91906115bb565b925050819055507f000000000000000000000000000000000000000000000000000000000000000073ffffffffffffffffffffffffffffffffffffffff1663a9059cbb33846040518363ffffffff1660e01b8152600401610a80929190611302565b6020604051808303815f875af1158015610a9c573d5f803e3d5ffd5b505050506040513d601f19601f82011682018060405250810190610ac09190611353565b507ffcd29b1632c6748a9a4bb9b4cd5c6486c3c84a8550dce2368f83fef3969d9685833384604051610af49392919061137e565b60405180910390a1505050565b42821015610b44576040517f08c379a0000000000000000000000000000000000000000000000000000000008152600401610b3b90611638565b60405180910390fd5b600a82610b5191906111ef565b811015610b93576040517f08c379a0000000000000000000000000000000000000000000000000000000008152600401610b8a906116a0565b60405180910390fd5b6283d60082610ba291906111ef565b811115610be4576040517f08c379a0000000000000000000000000000000000000000000000000000000008152600401610bdb90611708565b60405180910390fd5b6040518060c001604052803373ffffffffffffffffffffffffffffffffffffffff1681526020018481526020015f81526020018381526020018281526020015f151581525060015f60025481526020019081526020015f205f820151815f015f6101000a81548173ffffffffffffffffffffffffffffffffffffffff021916908373ffffffffffffffffffffffffffffffffffffffff1602179055506020820151816001015560408201518160020155606082015181600301556080820151816004015560a0820151816005015f6101000a81548160ff0219169083151502179055509050507fea7dc5be41326789a621aaa33d671281d0a54aa87610751def19f8544c2004c360025433858585604051610d03959493929190611726565b60405180910390a160025f815480929190610d1d90611777565b9190505550505050565b6283d60081565b600a81565b60025481565b7f000000000000000000000000000000000000000000000000000000000000000081565b5f60015f8481526020019081526020015f2090508060030154421015610db8576040517f08c379a0000000000000000000000000000000000000000000000000000000008152600401610daf90611808565b60405180910390fd5b80600401544210610dfe576040517f08c379a0000000000000000000000000000000000000000000000000000000008152600401610df59061159d565b60405180910390fd5b81816002015f828254610e1191906111ef565b92505081905550815f808581526020019081526020015f205f3373ffffffffffffffffffffffffffffffffffffffff1673ffffffffffffffffffffffffffffffffffffffff1681526020019081526020015f205f828254610e7291906111ef565b925050819055507f000000000000000000000000000000000000000000000000000000000000000073ffffffffffffffffffffffffffffffffffffffff166323b872dd3330856040518463ffffffff1660e01b8152600401610ed693929190611826565b6020604051808303815f875af1158015610ef2573d5f803e3d5ffd5b505050506040513d601f19601f82011682018060405250810190610f169190611353565b507f2757ac6a40883f4491cc56930ae964df9034e343e660d5179eb01e198336756b833384604051610f4a9392919061137e565b60405180910390a1505050565b5f819050919050565b610f6981610f57565b82525050565b5f604082019050610f825f830185610f60565b610f8f6020830184610f60565b9392505050565b5f80fd5b610fa381610f57565b8114610fad575f80fd5b50565b5f81359050610fbe81610f9a565b92915050565b5f60208284031215610fd957610fd8610f96565b5b5f610fe684828501610fb0565b91505092915050565b5f73ffffffffffffffffffffffffffffffffffffffff82169050919050565b5f61101882610fef565b9050919050565b6110288161100e565b82525050565b5f8115159050919050565b6110428161102e565b82525050565b5f60c08201905061105b5f83018961101f565b6110686020830188610f60565b6110756040830187610f60565b6110826060830186610f60565b61108f6080830185610f60565b61109c60a0830184611039565b979650505050505050565b5f80604083850312156110bd576110bc610f96565b5b5f6110ca85828601610fb0565b92505060206110db85828601610fb0565b9150509250929050565b5f805f606084860312156110fc576110fb610f96565b5b5f61110986828701610fb0565b935050602061111a86828701610fb0565b925050604061112b86828701610fb0565b9150509250925092565b5f6020820190506111485f830184610f60565b92915050565b5f819050919050565b5f61117161116c61116784610fef565b61114e565b610fef565b9050919050565b5f61118282611157565b9050919050565b5f61119382611178565b9050919050565b6111a381611189565b82525050565b5f6020820190506111bc5f83018461119a565b92915050565b7f4e487b71000000000000000000000000000000000000000000000000000000005f52601160045260245ffd5b5f6111f982610f57565b915061120483610f57565b925082820190508082111561121c5761121b6111c2565b5b92915050565b5f82825260208201905092915050565b7f6e6f7420656e64656400000000000000000000000000000000000000000000005f82015250565b5f611266600983611222565b915061127182611232565b602082019050919050565b5f6020820190508181035f8301526112938161125a565b9050919050565b7f7265616368656420676f616c00000000000000000000000000000000000000005f82015250565b5f6112ce600c83611222565b91506112d98261129a565b602082019050919050565b5f6020820190508181035f8301526112fb816112c2565b9050919050565b5f6040820190506113155f83018561101f565b6113226020830184610f60565b9392505050565b6113328161102e565b811461133c575f80fd5b50565b5f8151905061134d81611329565b92915050565b5f6020828403121561136857611367610f96565b5b5f6113758482850161133f565b91505092915050565b5f6060820190506113915f830186610f60565b61139e602083018561101f565b6113ab6040830184610f60565b949350505050565b7f6e6f7420616e206f776e657200000000000000000000000000000000000000005f82015250565b5f6113e7600c83611222565b91506113f2826113b3565b602082019050919050565b5f6020820190508181035f830152611414816113db565b9050919050565b7f706c656467656420697320746f6f206c6f7700000000000000000000000000005f82015250565b5f61144f601283611222565b915061145a8261141b565b602082019050919050565b5f6020820190508181035f83015261147c81611443565b9050919050565b7f616c726561647920636c61696d656400000000000000000000000000000000005f82015250565b5f6114b7600f83611222565b91506114c282611483565b602082019050919050565b5f6020820190508181035f8301526114e4816114ab565b9050919050565b7f616c7265616479207374617274656400000000000000000000000000000000005f82015250565b5f61151f600f83611222565b915061152a826114eb565b602082019050919050565b5f6020820190508181035f83015261154c81611513565b9050919050565b7f656e6465640000000000000000000000000000000000000000000000000000005f82015250565b5f611587600583611222565b915061159282611553565b602082019050919050565b5f6020820190508181035f8301526115b48161157b565b9050919050565b5f6115c582610f57565b91506115d083610f57565b92508282039050818111156115e8576115e76111c2565b5b92915050565b7f696e636f727265637420737461727420617400000000000000000000000000005f82015250565b5f611622601283611222565b915061162d826115ee565b602082019050919050565b5f6020820190508181035f83015261164f81611616565b9050919050565b7f696e636f727265637420656e64206174000000000000000000000000000000005f82015250565b5f61168a601083611222565b915061169582611656565b602082019050919050565b5f6020820190508181035f8301526116b78161167e565b9050919050565b7f746f6f206c6f6e670000000000000000000000000000000000000000000000005f82015250565b5f6116f2600883611222565b91506116fd826116be565b602082019050919050565b5f6020820190508181035f83015261171f816116e6565b9050919050565b5f60a0820190506117395f830188610f60565b611746602083018761101f565b6117536040830186610f60565b6117606060830185610f60565b61176d6080830184610f60565b9695505050505050565b5f61178182610f57565b91507fffffffffffffffffffffffffffffffffffffffffffffffffffffffffffffffff82036117b3576117b26111c2565b5b600182019050919050565b7f6e6f7420737461727465640000000000000000000000000000000000000000005f82015250565b5f6117f2600b83611222565b91506117fd826117be565b602082019050919050565b5f6020820190508181035f83015261181f816117e6565b9050919050565b5f6060820190506118395f83018661101f565b611846602083018561101f565b6118536040830184610f60565b94935050505056fea26469706673582212206ef8ff8daef1da2d0743f2b64c7e3355a76acace63f466f4183b93419427610a64736f6c634300081a0033",
					"opcodes": "PUSH1 0xA0 PUSH1 0x40 MSTORE CALLVALUE DUP1 ISZERO PUSH2 0xF JUMPI PUSH0 DUP1 REVERT JUMPDEST POP PUSH1 0x40 MLOAD PUSH2 0x19B9 CODESIZE SUB DUP1 PUSH2 0x19B9 DUP4 CODECOPY DUP2 DUP2 ADD PUSH1 0x40 MSTORE DUP2 ADD SWAP1 PUSH2 0x31 SWAP2 SWAP1 PUSH2 0xC9 JUMP JUMPDEST DUP1 PUSH20 0xFFFFFFFFFFFFFFFFFFFFFFFFFFFFFFFFFFFFFFFF AND PUSH1 0x80 DUP2 PUSH20 0xFFFFFFFFFFFFFFFFFFFFFFFFFFFFFFFFFFFFFFFF AND DUP2 MSTORE POP POP POP PUSH2 0xF4 JUMP JUMPDEST PUSH0 DUP1 REVERT JUMPDEST PUSH0 PUSH20 0xFFFFFFFFFFFFFFFFFFFFFFFFFFFFFFFFFFFFFFFF DUP3 AND SWAP1 POP SWAP2 SWAP1 POP JUMP JUMPDEST PUSH0 PUSH2 0x98 DUP3 PUSH2 0x6F JUMP JUMPDEST SWAP1 POP SWAP2 SWAP1 POP JUMP JUMPDEST PUSH2 0xA8 DUP2 PUSH2 0x8E JUMP JUMPDEST DUP2 EQ PUSH2 0xB2 JUMPI PUSH0 DUP1 REVERT JUMPDEST POP JUMP JUMPDEST PUSH0 DUP2 MLOAD SWAP1 POP PUSH2 0xC3 DUP2 PUSH2 0x9F JUMP JUMPDEST SWAP3 SWAP2 POP POP JUMP JUMPDEST PUSH0 PUSH1 0x20 DUP3 DUP5 SUB SLT ISZERO PUSH2 0xDE JUMPI PUSH2 0xDD PUSH2 0x6B JUMP JUMPDEST JUMPDEST PUSH0 PUSH2 0xEB DUP5 DUP3 DUP6 ADD PUSH2 0xB5 JUMP JUMPDEST SWAP2 POP POP SWAP3 SWAP2 POP POP JUMP JUMPDEST PUSH1 0x80 MLOAD PUSH2 0x1891 PUSH2 0x128 PUSH0 CODECOPY PUSH0 DUP2 DUP2 PUSH2 0x387 ADD MSTORE DUP2 DUP2 PUSH2 0x668 ADD MSTORE DUP2 DUP2 PUSH2 0xA27 ADD MSTORE DUP2 DUP2 PUSH2 0xD3B ADD MSTORE PUSH2 0xE7B ADD MSTORE PUSH2 0x1891 PUSH0 RETURN INVALID PUSH1 0x80 PUSH1 0x40 MSTORE CALLVALUE DUP1 ISZERO PUSH2 0xF JUMPI PUSH0 DUP1 REVERT JUMPDEST POP PUSH1 0x4 CALLDATASIZE LT PUSH2 0xB2 JUMPI PUSH0 CALLDATALOAD PUSH1 0xE0 SHR DUP1 PUSH4 0x8736C179 GT PUSH2 0x6F JUMPI DUP1 PUSH4 0x8736C179 EQ PUSH2 0x17A JUMPI DUP1 PUSH4 0xB1724B46 EQ PUSH2 0x196 JUMPI DUP1 PUSH4 0xB6A6D177 EQ PUSH2 0x1B4 JUMPI DUP1 PUSH4 0xE00DD161 EQ PUSH2 0x1D2 JUMPI DUP1 PUSH4 0xFC0C546A EQ PUSH2 0x1F0 JUMPI DUP1 PUSH4 0xFDE327BE EQ PUSH2 0x20E JUMPI PUSH2 0xB2 JUMP JUMPDEST DUP1 PUSH4 0x23C9F684 EQ PUSH2 0xB6 JUMPI DUP1 PUSH4 0x278ECDE1 EQ PUSH2 0xD5 JUMPI DUP1 PUSH4 0x2813D19D EQ PUSH2 0xF1 JUMPI DUP1 PUSH4 0x379607F5 EQ PUSH2 0x126 JUMPI DUP1 PUSH4 0x40E58EE5 EQ PUSH2 0x142 JUMPI DUP1 PUSH4 0x711853AB EQ PUSH2 0x15E JUMPI JUMPDEST PUSH0 DUP1 REVERT JUMPDEST PUSH2 0xBE PUSH2 0x22A JUMP JUMPDEST PUSH1 0x40 MLOAD PUSH2 0xCC SWAP3 SWAP2 SWAP1 PUSH2 0xF6F JUMP JUMPDEST PUSH1 0x40 MLOAD DUP1 SWAP2 SUB SWAP1 RETURN JUMPDEST PUSH2 0xEF PUSH1 0x4 DUP1 CALLDATASIZE SUB DUP2 ADD SWAP1 PUSH2 0xEA SWAP2 SWAP1 PUSH2 0xFC4 JUMP JUMPDEST PUSH2 0x242 JUMP JUMPDEST STOP JUMPDEST PUSH2 0x10B PUSH1 0x4 DUP1 CALLDATASIZE SUB DUP2 ADD SWAP1 PUSH2 0x106 SWAP2 SWAP1 PUSH2 0xFC4 JUMP JUMPDEST PUSH2 0x461 JUMP JUMPDEST PUSH1 0x40 MLOAD PUSH2 0x11D SWAP7 SWAP6 SWAP5 SWAP4 SWAP3 SWAP2 SWAP1 PUSH2 0x1048 JUMP JUMPDEST PUSH1 0x40 MLOAD DUP1 SWAP2 SUB SWAP1 RETURN JUMPDEST PUSH2 0x140 PUSH1 0x4 DUP1 CALLDATASIZE SUB DUP2 ADD SWAP1 PUSH2 0x13B SWAP2 SWAP1 PUSH2 0xFC4 JUMP JUMPDEST PUSH2 0x4C4 JUMP JUMPDEST STOP JUMPDEST PUSH2 0x15C PUSH1 0x4 DUP1 CALLDATASIZE SUB DUP2 ADD SWAP1 PUSH2 0x157 SWAP2 SWAP1 PUSH2 0xFC4 JUMP JUMPDEST PUSH2 0x741 JUMP JUMPDEST STOP JUMPDEST PUSH2 0x178 PUSH1 0x4 DUP1 CALLDATASIZE SUB DUP2 ADD SWAP1 PUSH2 0x173 SWAP2 SWAP1 PUSH2 0x10A7 JUMP JUMPDEST PUSH2 0x950 JUMP JUMPDEST STOP JUMPDEST PUSH2 0x194 PUSH1 0x4 DUP1 CALLDATASIZE SUB DUP2 ADD SWAP1 PUSH2 0x18F SWAP2 SWAP1 PUSH2 0x10E5 JUMP JUMPDEST PUSH2 0xB01 JUMP JUMPDEST STOP JUMPDEST PUSH2 0x19E PUSH2 0xD27 JUMP JUMPDEST PUSH1 0x40 MLOAD PUSH2 0x1AB SWAP2 SWAP1 PUSH2 0x1135 JUMP JUMPDEST PUSH1 0x40 MLOAD DUP1 SWAP2 SUB SWAP1 RETURN JUMPDEST PUSH2 0x1BC PUSH2 0xD2E JUMP JUMPDEST PUSH1 0x40 MLOAD PUSH2 0x1C9 SWAP2 SWAP1 PUSH2 0x1135 JUMP JUMPDEST PUSH1 0x40 MLOAD DUP1 SWAP2 SUB SWAP1 RETURN JUMPDEST PUSH2 0x1DA PUSH2 0xD33 JUMP JUMPDEST PUSH1 0x40 MLOAD PUSH2 0x1E7 SWAP2 SWAP1 PUSH2 0x1135 JUMP JUMPDEST PUSH1 0x40 MLOAD DUP1 SWAP2 SUB SWAP1 RETURN JUMPDEST PUSH2 0x1F8 PUSH2 0xD39 JUMP JUMPDEST PUSH1 0x40 MLOAD PUSH2 0x205 SWAP2 SWAP1 PUSH2 0x11A9 JUMP JUMPDEST PUSH1 0x40 MLOAD DUP1 SWAP2 SUB SWAP1 RETURN JUMPDEST PUSH2 0x228 PUSH1 0x4 DUP1 CALLDATASIZE SUB DUP2 ADD SWAP1 PUSH2 0x223 SWAP2 SWAP1 PUSH2 0x10A7 JUMP JUMPDEST PUSH2 0xD5D JUMP JUMPDEST STOP JUMPDEST PUSH0 DUP1 TIMESTAMP PUSH1 0x28 TIMESTAMP PUSH2 0x23A SWAP2 SWAP1 PUSH2 0x11EF JUMP JUMPDEST SWAP2 POP SWAP2 POP SWAP1 SWAP2 JUMP JUMPDEST PUSH0 PUSH1 0x1 PUSH0 DUP4 DUP2 MSTORE PUSH1 0x20 ADD SWAP1 DUP2 MSTORE PUSH1 0x20 ADD PUSH0 KECCAK256 SWAP1 POP DUP1 PUSH1 0x4 ADD SLOAD TIMESTAMP GT PUSH2 0x29C JUMPI PUSH1 0x40 MLOAD PUSH32 0x8C379A000000000000000000000000000000000000000000000000000000000 DUP2 MSTORE PUSH1 0x4 ADD PUSH2 0x293 SWAP1 PUSH2 0x127C JUMP JUMPDEST PUSH1 0x40 MLOAD DUP1 SWAP2 SUB SWAP1 REVERT JUMPDEST DUP1 PUSH1 0x1 ADD SLOAD DUP2 PUSH1 0x2 ADD SLOAD LT PUSH2 0x2E6 JUMPI PUSH1 0x40 MLOAD PUSH32 0x8C379A000000000000000000000000000000000000000000000000000000000 DUP2 MSTORE PUSH1 0x4 ADD PUSH2 0x2DD SWAP1 PUSH2 0x12E4 JUMP JUMPDEST PUSH1 0x40 MLOAD DUP1 SWAP2 SUB SWAP1 REVERT JUMPDEST PUSH0 DUP1 PUSH0 DUP5 DUP2 MSTORE PUSH1 0x20 ADD SWAP1 DUP2 MSTORE PUSH1 0x20 ADD PUSH0 KECCAK256 PUSH0 CALLER PUSH20 0xFFFFFFFFFFFFFFFFFFFFFFFFFFFFFFFFFFFFFFFF AND PUSH20 0xFFFFFFFFFFFFFFFFFFFFFFFFFFFFFFFFFFFFFFFF AND DUP2 MSTORE PUSH1 0x20 ADD SWAP1 DUP2 MSTORE PUSH1 0x20 ADD PUSH0 KECCAK256 SLOAD SWAP1 POP PUSH0 DUP1 PUSH0 DUP6 DUP2 MSTORE PUSH1 0x20 ADD SWAP1 DUP2 MSTORE PUSH1 0x20 ADD PUSH0 KECCAK256 PUSH0 CALLER PUSH20 0xFFFFFFFFFFFFFFFFFFFFFFFFFFFFFFFFFFFFFFFF AND PUSH20 0xFFFFFFFFFFFFFFFFFFFFFFFFFFFFFFFFFFFFFFFF AND DUP2 MSTORE PUSH1 0x20 ADD SWAP1 DUP2 MSTORE PUSH1 0x20 ADD PUSH0 KECCAK256 DUP2 SWAP1 SSTORE POP PUSH32 0x0 PUSH20 0xFFFFFFFFFFFFFFFFFFFFFFFFFFFFFFFFFFFFFFFF AND PUSH4 0xA9059CBB CALLER DUP4 PUSH1 0x40 MLOAD DUP4 PUSH4 0xFFFFFFFF AND PUSH1 0xE0 SHL DUP2 MSTORE PUSH1 0x4 ADD PUSH2 0x3E0 SWAP3 SWAP2 SWAP1 PUSH2 0x1302 JUMP JUMPDEST PUSH1 0x20 PUSH1 0x40 MLOAD DUP1 DUP4 SUB DUP2 PUSH0 DUP8 GAS CALL ISZERO DUP1 ISZERO PUSH2 0x3FC JUMPI RETURNDATASIZE PUSH0 DUP1 RETURNDATACOPY RETURNDATASIZE PUSH0 REVERT JUMPDEST POP POP POP POP PUSH1 0x40 MLOAD RETURNDATASIZE PUSH1 0x1F NOT PUSH1 0x1F DUP3 ADD AND DUP3 ADD DUP1 PUSH1 0x40 MSTORE POP DUP2 ADD SWAP1 PUSH2 0x420 SWAP2 SWAP1 PUSH2 0x1353 JUMP JUMPDEST POP PUSH32 0x7CA5472B7EA78C2C0141C5A12EE6D170CF4CE8ED06BE3D22C8252DDFC7A6A2C4 DUP4 CALLER DUP4 PUSH1 0x40 MLOAD PUSH2 0x454 SWAP4 SWAP3 SWAP2 SWAP1 PUSH2 0x137E JUMP JUMPDEST PUSH1 0x40 MLOAD DUP1 SWAP2 SUB SWAP1 LOG1 POP POP POP JUMP JUMPDEST PUSH1 0x1 PUSH1 0x20 MSTORE DUP1 PUSH0 MSTORE PUSH1 0x40 PUSH0 KECCAK256 PUSH0 SWAP2 POP SWAP1 POP DUP1 PUSH0 ADD PUSH0 SWAP1 SLOAD SWAP1 PUSH2 0x100 EXP SWAP1 DIV PUSH20 0xFFFFFFFFFFFFFFFFFFFFFFFFFFFFFFFFFFFFFFFF AND SWAP1 DUP1 PUSH1 0x1 ADD SLOAD SWAP1 DUP1 PUSH1 0x2 ADD SLOAD SWAP1 DUP1 PUSH1 0x3 ADD SLOAD SWAP1 DUP1 PUSH1 0x4 ADD SLOAD SWAP1 DUP1 PUSH1 0x5 ADD PUSH0 SWAP1 SLOAD SWAP1 PUSH2 0x100 EXP SWAP1 DIV PUSH1 0xFF AND SWAP1 POP DUP7 JUMP JUMPDEST PUSH0 PUSH1 0x1 PUSH0 DUP4 DUP2 MSTORE PUSH1 0x20 ADD SWAP1 DUP2 MSTORE PUSH1 0x20 ADD PUSH0 KECCAK256 SWAP1 POP DUP1 PUSH0 ADD PUSH0 SWAP1 SLOAD SWAP1 PUSH2 0x100 EXP SWAP1 DIV PUSH20 0xFFFFFFFFFFFFFFFFFFFFFFFFFFFFFFFFFFFFFFFF AND PUSH20 0xFFFFFFFFFFFFFFFFFFFFFFFFFFFFFFFFFFFFFFFF AND CALLER PUSH20 0xFFFFFFFFFFFFFFFFFFFFFFFFFFFFFFFFFFFFFFFF AND EQ PUSH2 0x568 JUMPI PUSH1 0x40 MLOAD PUSH32 0x8C379A000000000000000000000000000000000000000000000000000000000 DUP2 MSTORE PUSH1 0x4 ADD PUSH2 0x55F SWAP1 PUSH2 0x13FD JUMP JUMPDEST PUSH1 0x40 MLOAD DUP1 SWAP2 SUB SWAP1 REVERT JUMPDEST DUP1 PUSH1 0x4 ADD SLOAD TIMESTAMP GT PUSH2 0x5AE JUMPI PUSH1 0x40 MLOAD PUSH32 0x8C379A000000000000000000000000000000000000000000000000000000000 DUP2 MSTORE PUSH1 0x4 ADD PUSH2 0x5A5 SWAP1 PUSH2 0x127C JUMP JUMPDEST PUSH1 0x40 MLOAD DUP1 SWAP2 SUB SWAP1 REVERT JUMPDEST DUP1 PUSH1 0x1 ADD SLOAD DUP2 PUSH1 0x2 ADD SLOAD LT ISZERO PUSH2 0x5F9 JUMPI PUSH1 0x40 MLOAD PUSH32 0x8C379A000000000000000000000000000000000000000000000000000000000 DUP2 MSTORE PUSH1 0x4 ADD PUSH2 0x5F0 SWAP1 PUSH2 0x1465 JUMP JUMPDEST PUSH1 0x40 MLOAD DUP1 SWAP2 SUB SWAP1 REVERT JUMPDEST DUP1 PUSH1 0x5 ADD PUSH0 SWAP1 SLOAD SWAP1 PUSH2 0x100 EXP SWAP1 DIV PUSH1 0xFF AND ISZERO PUSH2 0x64A JUMPI PUSH1 0x40 MLOAD PUSH32 0x8C379A000000000000000000000000000000000000000000000000000000000 DUP2 MSTORE PUSH1 0x4 ADD PUSH2 0x641 SWAP1 PUSH2 0x14CD JUMP JUMPDEST PUSH1 0x40 MLOAD DUP1 SWAP2 SUB SWAP1 REVERT JUMPDEST PUSH1 0x1 DUP2 PUSH1 0x5 ADD PUSH0 PUSH2 0x100 EXP DUP2 SLOAD DUP2 PUSH1 0xFF MUL NOT AND SWAP1 DUP4 ISZERO ISZERO MUL OR SWAP1 SSTORE POP PUSH32 0x0 PUSH20 0xFFFFFFFFFFFFFFFFFFFFFFFFFFFFFFFFFFFFFFFF AND PUSH4 0xA9059CBB CALLER DUP4 PUSH1 0x2 ADD SLOAD PUSH1 0x40 MLOAD DUP4 PUSH4 0xFFFFFFFF AND PUSH1 0xE0 SHL DUP2 MSTORE PUSH1 0x4 ADD PUSH2 0x6C5 SWAP3 SWAP2 SWAP1 PUSH2 0x1302 JUMP JUMPDEST PUSH1 0x20 PUSH1 0x40 MLOAD DUP1 DUP4 SUB DUP2 PUSH0 DUP8 GAS CALL ISZERO DUP1 ISZERO PUSH2 0x6E1 JUMPI RETURNDATASIZE PUSH0 DUP1 RETURNDATACOPY RETURNDATASIZE PUSH0 REVERT JUMPDEST POP POP POP POP PUSH1 0x40 MLOAD RETURNDATASIZE PUSH1 0x1F NOT PUSH1 0x1F DUP3 ADD AND DUP3 ADD DUP1 PUSH1 0x40 MSTORE POP DUP2 ADD SWAP1 PUSH2 0x705 SWAP2 SWAP1 PUSH2 0x1353 JUMP JUMPDEST POP PUSH32 0x7A355715549CFE7C1CBA26304350343FBDDC4B4F72D3CE3E7C27117DD20B5CB8 DUP3 PUSH1 0x40 MLOAD PUSH2 0x735 SWAP2 SWAP1 PUSH2 0x1135 JUMP JUMPDEST PUSH1 0x40 MLOAD DUP1 SWAP2 SUB SWAP1 LOG1 POP POP JUMP JUMPDEST PUSH0 PUSH1 0x1 PUSH0 DUP4 DUP2 MSTORE PUSH1 0x20 ADD SWAP1 DUP2 MSTORE PUSH1 0x20 ADD PUSH0 KECCAK256 PUSH1 0x40 MLOAD DUP1 PUSH1 0xC0 ADD PUSH1 0x40 MSTORE SWAP1 DUP2 PUSH0 DUP3 ADD PUSH0 SWAP1 SLOAD SWAP1 PUSH2 0x100 EXP SWAP1 DIV PUSH20 0xFFFFFFFFFFFFFFFFFFFFFFFFFFFFFFFFFFFFFFFF AND PUSH20 0xFFFFFFFFFFFFFFFFFFFFFFFFFFFFFFFFFFFFFFFF AND PUSH20 0xFFFFFFFFFFFFFFFFFFFFFFFFFFFFFFFFFFFFFFFF AND DUP2 MSTORE PUSH1 0x20 ADD PUSH1 0x1 DUP3 ADD SLOAD DUP2 MSTORE PUSH1 0x20 ADD PUSH1 0x2 DUP3 ADD SLOAD DUP2 MSTORE PUSH1 0x20 ADD PUSH1 0x3 DUP3 ADD SLOAD DUP2 MSTORE PUSH1 0x20 ADD PUSH1 0x4 DUP3 ADD SLOAD DUP2 MSTORE PUSH1 0x20 ADD PUSH1 0x5 DUP3 ADD PUSH0 SWAP1 SLOAD SWAP1 PUSH2 0x100 EXP SWAP1 DIV PUSH1 0xFF AND ISZERO ISZERO ISZERO ISZERO DUP2 MSTORE POP POP SWAP1 POP DUP1 PUSH0 ADD MLOAD PUSH20 0xFFFFFFFFFFFFFFFFFFFFFFFFFFFFFFFFFFFFFFFF AND CALLER PUSH20 0xFFFFFFFFFFFFFFFFFFFFFFFFFFFFFFFFFFFFFFFF AND EQ PUSH2 0x867 JUMPI PUSH1 0x40 MLOAD PUSH32 0x8C379A000000000000000000000000000000000000000000000000000000000 DUP2 MSTORE PUSH1 0x4 ADD PUSH2 0x85E SWAP1 PUSH2 0x13FD JUMP JUMPDEST PUSH1 0x40 MLOAD DUP1 SWAP2 SUB SWAP1 REVERT JUMPDEST DUP1 PUSH1 0x60 ADD MLOAD TIMESTAMP LT PUSH2 0x8AD JUMPI PUSH1 0x40 MLOAD PUSH32 0x8C379A000000000000000000000000000000000000000000000000000000000 DUP2 MSTORE PUSH1 0x4 ADD PUSH2 0x8A4 SWAP1 PUSH2 0x1535 JUMP JUMPDEST PUSH1 0x40 MLOAD DUP1 SWAP2 SUB SWAP1 REVERT JUMPDEST PUSH1 0x1 PUSH0 DUP4 DUP2 MSTORE PUSH1 0x20 ADD SWAP1 DUP2 MSTORE PUSH1 0x20 ADD PUSH0 KECCAK256 PUSH0 DUP1 DUP3 ADD PUSH0 PUSH2 0x100 EXP DUP2 SLOAD SWAP1 PUSH20 0xFFFFFFFFFFFFFFFFFFFFFFFFFFFFFFFFFFFFFFFF MUL NOT AND SWAP1 SSTORE PUSH1 0x1 DUP3 ADD PUSH0 SWAP1 SSTORE PUSH1 0x2 DUP3 ADD PUSH0 SWAP1 SSTORE PUSH1 0x3 DUP3 ADD PUSH0 SWAP1 SSTORE PUSH1 0x4 DUP3 ADD PUSH0 SWAP1 SSTORE PUSH1 0x5 DUP3 ADD PUSH0 PUSH2 0x100 EXP DUP2 SLOAD SWAP1 PUSH1 0xFF MUL NOT AND SWAP1 SSTORE POP POP PUSH32 0x829A8683C544AD289CE92D3CE06E9EBAD69B18A6916E60EC766C2C217461D8E9 DUP3 PUSH1 0x40 MLOAD PUSH2 0x944 SWAP2 SWAP1 PUSH2 0x1135 JUMP JUMPDEST PUSH1 0x40 MLOAD DUP1 SWAP2 SUB SWAP1 LOG1 POP POP JUMP JUMPDEST PUSH0 PUSH1 0x1 PUSH0 DUP5 DUP2 MSTORE PUSH1 0x20 ADD SWAP1 DUP2 MSTORE PUSH1 0x20 ADD PUSH0 KECCAK256 SWAP1 POP DUP1 PUSH1 0x4 ADD SLOAD TIMESTAMP LT PUSH2 0x9AA JUMPI PUSH1 0x40 MLOAD PUSH32 0x8C379A000000000000000000000000000000000000000000000000000000000 DUP2 MSTORE PUSH1 0x4 ADD PUSH2 0x9A1 SWAP1 PUSH2 0x159D JUMP JUMPDEST PUSH1 0x40 MLOAD DUP1 SWAP2 SUB SWAP1 REVERT JUMPDEST DUP2 DUP2 PUSH1 0x2 ADD PUSH0 DUP3 DUP3 SLOAD PUSH2 0x9BD SWAP2 SWAP1 PUSH2 0x15BB JUMP JUMPDEST SWAP3 POP POP DUP2 SWAP1 SSTORE POP DUP2 PUSH0 DUP1 DUP6 DUP2 MSTORE PUSH1 0x20 ADD SWAP1 DUP2 MSTORE PUSH1 0x20 ADD PUSH0 KECCAK256 PUSH0 CALLER PUSH20 0xFFFFFFFFFFFFFFFFFFFFFFFFFFFFFFFFFFFFFFFF AND PUSH20 0xFFFFFFFFFFFFFFFFFFFFFFFFFFFFFFFFFFFFFFFF AND DUP2 MSTORE PUSH1 0x20 ADD SWAP1 DUP2 MSTORE PUSH1 0x20 ADD PUSH0 KECCAK256 PUSH0 DUP3 DUP3 SLOAD PUSH2 0xA1E SWAP2 SWAP1 PUSH2 0x15BB JUMP JUMPDEST SWAP3 POP POP DUP2 SWAP1 SSTORE POP PUSH32 0x0 PUSH20 0xFFFFFFFFFFFFFFFFFFFFFFFFFFFFFFFFFFFFFFFF AND PUSH4 0xA9059CBB CALLER DUP5 PUSH1 0x40 MLOAD DUP4 PUSH4 0xFFFFFFFF AND PUSH1 0xE0 SHL DUP2 MSTORE PUSH1 0x4 ADD PUSH2 0xA80 SWAP3 SWAP2 SWAP1 PUSH2 0x1302 JUMP JUMPDEST PUSH1 0x20 PUSH1 0x40 MLOAD DUP1 DUP4 SUB DUP2 PUSH0 DUP8 GAS CALL ISZERO DUP1 ISZERO PUSH2 0xA9C JUMPI RETURNDATASIZE PUSH0 DUP1 RETURNDATACOPY RETURNDATASIZE PUSH0 REVERT JUMPDEST POP POP POP POP PUSH1 0x40 MLOAD RETURNDATASIZE PUSH1 0x1F NOT PUSH1 0x1F DUP3 ADD AND DUP3 ADD DUP1 PUSH1 0x40 MSTORE POP DUP2 ADD SWAP1 PUSH2 0xAC0 SWAP2 SWAP1 PUSH2 0x1353 JUMP JUMPDEST POP PUSH32 0xFCD29B1632C6748A9A4BB9B4CD5C6486C3C84A8550DCE2368F83FEF3969D9685 DUP4 CALLER DUP5 PUSH1 0x40 MLOAD PUSH2 0xAF4 SWAP4 SWAP3 SWAP2 SWAP1 PUSH2 0x137E JUMP JUMPDEST PUSH1 0x40 MLOAD DUP1 SWAP2 SUB SWAP1 LOG1 POP POP POP JUMP JUMPDEST TIMESTAMP DUP3 LT ISZERO PUSH2 0xB44 JUMPI PUSH1 0x40 MLOAD PUSH32 0x8C379A000000000000000000000000000000000000000000000000000000000 DUP2 MSTORE PUSH1 0x4 ADD PUSH2 0xB3B SWAP1 PUSH2 0x1638 JUMP JUMPDEST PUSH1 0x40 MLOAD DUP1 SWAP2 SUB SWAP1 REVERT JUMPDEST PUSH1 0xA DUP3 PUSH2 0xB51 SWAP2 SWAP1 PUSH2 0x11EF JUMP JUMPDEST DUP2 LT ISZERO PUSH2 0xB93 JUMPI PUSH1 0x40 MLOAD PUSH32 0x8C379A000000000000000000000000000000000000000000000000000000000 DUP2 MSTORE PUSH1 0x4 ADD PUSH2 0xB8A SWAP1 PUSH2 0x16A0 JUMP JUMPDEST PUSH1 0x40 MLOAD DUP1 SWAP2 SUB SWAP1 REVERT JUMPDEST PUSH3 0x83D600 DUP3 PUSH2 0xBA2 SWAP2 SWAP1 PUSH2 0x11EF JUMP JUMPDEST DUP2 GT ISZERO PUSH2 0xBE4 JUMPI PUSH1 0x40 MLOAD PUSH32 0x8C379A000000000000000000000000000000000000000000000000000000000 DUP2 MSTORE PUSH1 0x4 ADD PUSH2 0xBDB SWAP1 PUSH2 0x1708 JUMP JUMPDEST PUSH1 0x40 MLOAD DUP1 SWAP2 SUB SWAP1 REVERT JUMPDEST PUSH1 0x40 MLOAD DUP1 PUSH1 0xC0 ADD PUSH1 0x40 MSTORE DUP1 CALLER PUSH20 0xFFFFFFFFFFFFFFFFFFFFFFFFFFFFFFFFFFFFFFFF AND DUP2 MSTORE PUSH1 0x20 ADD DUP5 DUP2 MSTORE PUSH1 0x20 ADD PUSH0 DUP2 MSTORE PUSH1 0x20 ADD DUP4 DUP2 MSTORE PUSH1 0x20 ADD DUP3 DUP2 MSTORE PUSH1 0x20 ADD PUSH0 ISZERO ISZERO DUP2 MSTORE POP PUSH1 0x1 PUSH0 PUSH1 0x2 SLOAD DUP2 MSTORE PUSH1 0x20 ADD SWAP1 DUP2 MSTORE PUSH1 0x20 ADD PUSH0 KECCAK256 PUSH0 DUP3 ADD MLOAD DUP2 PUSH0 ADD PUSH0 PUSH2 0x100 EXP DUP2 SLOAD DUP2 PUSH20 0xFFFFFFFFFFFFFFFFFFFFFFFFFFFFFFFFFFFFFFFF MUL NOT AND SWAP1 DUP4 PUSH20 0xFFFFFFFFFFFFFFFFFFFFFFFFFFFFFFFFFFFFFFFF AND MUL OR SWAP1 SSTORE POP PUSH1 0x20 DUP3 ADD MLOAD DUP2 PUSH1 0x1 ADD SSTORE PUSH1 0x40 DUP3 ADD MLOAD DUP2 PUSH1 0x2 ADD SSTORE PUSH1 0x60 DUP3 ADD MLOAD DUP2 PUSH1 0x3 ADD SSTORE PUSH1 0x80 DUP3 ADD MLOAD DUP2 PUSH1 0x4 ADD SSTORE PUSH1 0xA0 DUP3 ADD MLOAD DUP2 PUSH1 0x5 ADD PUSH0 PUSH2 0x100 EXP DUP2 SLOAD DUP2 PUSH1 0xFF MUL NOT AND SWAP1 DUP4 ISZERO ISZERO MUL OR SWAP1 SSTORE POP SWAP1 POP POP PUSH32 0xEA7DC5BE41326789A621AAA33D671281D0A54AA87610751DEF19F8544C2004C3 PUSH1 0x2 SLOAD CALLER DUP6 DUP6 DUP6 PUSH1 0x40 MLOAD PUSH2 0xD03 SWAP6 SWAP5 SWAP4 SWAP3 SWAP2 SWAP1 PUSH2 0x1726 JUMP JUMPDEST PUSH1 0x40 MLOAD DUP1 SWAP2 SUB SWAP1 LOG1 PUSH1 0x2 PUSH0 DUP2 SLOAD DUP1 SWAP3 SWAP2 SWAP1 PUSH2 0xD1D SWAP1 PUSH2 0x1777 JUMP JUMPDEST SWAP2 SWAP1 POP SSTORE POP POP POP POP JUMP JUMPDEST PUSH3 0x83D600 DUP2 JUMP JUMPDEST PUSH1 0xA DUP2 JUMP JUMPDEST PUSH1 0x2 SLOAD DUP2 JUMP JUMPDEST PUSH32 0x0 DUP2 JUMP JUMPDEST PUSH0 PUSH1 0x1 PUSH0 DUP5 DUP2 MSTORE PUSH1 0x20 ADD SWAP1 DUP2 MSTORE PUSH1 0x20 ADD PUSH0 KECCAK256 SWAP1 POP DUP1 PUSH1 0x3 ADD SLOAD TIMESTAMP LT ISZERO PUSH2 0xDB8 JUMPI PUSH1 0x40 MLOAD PUSH32 0x8C379A000000000000000000000000000000000000000000000000000000000 DUP2 MSTORE PUSH1 0x4 ADD PUSH2 0xDAF SWAP1 PUSH2 0x1808 JUMP JUMPDEST PUSH1 0x40 MLOAD DUP1 SWAP2 SUB SWAP1 REVERT JUMPDEST DUP1 PUSH1 0x4 ADD SLOAD TIMESTAMP LT PUSH2 0xDFE JUMPI PUSH1 0x40 MLOAD PUSH32 0x8C379A000000000000000000000000000000000000000000000000000000000 DUP2 MSTORE PUSH1 0x4 ADD PUSH2 0xDF5 SWAP1 PUSH2 0x159D JUMP JUMPDEST PUSH1 0x40 MLOAD DUP1 SWAP2 SUB SWAP1 REVERT JUMPDEST DUP2 DUP2 PUSH1 0x2 ADD PUSH0 DUP3 DUP3 SLOAD PUSH2 0xE11 SWAP2 SWAP1 PUSH2 0x11EF JUMP JUMPDEST SWAP3 POP POP DUP2 SWAP1 SSTORE POP DUP2 PUSH0 DUP1 DUP6 DUP2 MSTORE PUSH1 0x20 ADD SWAP1 DUP2 MSTORE PUSH1 0x20 ADD PUSH0 KECCAK256 PUSH0 CALLER PUSH20 0xFFFFFFFFFFFFFFFFFFFFFFFFFFFFFFFFFFFFFFFF AND PUSH20 0xFFFFFFFFFFFFFFFFFFFFFFFFFFFFFFFFFFFFFFFF AND DUP2 MSTORE PUSH1 0x20 ADD SWAP1 DUP2 MSTORE PUSH1 0x20 ADD PUSH0 KECCAK256 PUSH0 DUP3 DUP3 SLOAD PUSH2 0xE72 SWAP2 SWAP1 PUSH2 0x11EF JUMP JUMPDEST SWAP3 POP POP DUP2 SWAP1 SSTORE POP PUSH32 0x0 PUSH20 0xFFFFFFFFFFFFFFFFFFFFFFFFFFFFFFFFFFFFFFFF AND PUSH4 0x23B872DD CALLER ADDRESS DUP6 PUSH1 0x40 MLOAD DUP5 PUSH4 0xFFFFFFFF AND PUSH1 0xE0 SHL DUP2 MSTORE PUSH1 0x4 ADD PUSH2 0xED6 SWAP4 SWAP3 SWAP2 SWAP1 PUSH2 0x1826 JUMP JUMPDEST PUSH1 0x20 PUSH1 0x40 MLOAD DUP1 DUP4 SUB DUP2 PUSH0 DUP8 GAS CALL ISZERO DUP1 ISZERO PUSH2 0xEF2 JUMPI RETURNDATASIZE PUSH0 DUP1 RETURNDATACOPY RETURNDATASIZE PUSH0 REVERT JUMPDEST POP POP POP POP PUSH1 0x40 MLOAD RETURNDATASIZE PUSH1 0x1F NOT PUSH1 0x1F DUP3 ADD AND DUP3 ADD DUP1 PUSH1 0x40 MSTORE POP DUP2 ADD SWAP1 PUSH2 0xF16 SWAP2 SWAP1 PUSH2 0x1353 JUMP JUMPDEST POP PUSH32 0x2757AC6A40883F4491CC56930AE964DF9034E343E660D5179EB01E198336756B DUP4 CALLER DUP5 PUSH1 0x40 MLOAD PUSH2 0xF4A SWAP4 SWAP3 SWAP2 SWAP1 PUSH2 0x137E JUMP JUMPDEST PUSH1 0x40 MLOAD DUP1 SWAP2 SUB SWAP1 LOG1 POP POP POP JUMP JUMPDEST PUSH0 DUP2 SWAP1 POP SWAP2 SWAP1 POP JUMP JUMPDEST PUSH2 0xF69 DUP2 PUSH2 0xF57 JUMP JUMPDEST DUP3 MSTORE POP POP JUMP JUMPDEST PUSH0 PUSH1 0x40 DUP3 ADD SWAP1 POP PUSH2 0xF82 PUSH0 DUP4 ADD DUP6 PUSH2 0xF60 JUMP JUMPDEST PUSH2 0xF8F PUSH1 0x20 DUP4 ADD DUP5 PUSH2 0xF60 JUMP JUMPDEST SWAP4 SWAP3 POP POP POP JUMP JUMPDEST PUSH0 DUP1 REVERT JUMPDEST PUSH2 0xFA3 DUP2 PUSH2 0xF57 JUMP JUMPDEST DUP2 EQ PUSH2 0xFAD JUMPI PUSH0 DUP1 REVERT JUMPDEST POP JUMP JUMPDEST PUSH0 DUP2 CALLDATALOAD SWAP1 POP PUSH2 0xFBE DUP2 PUSH2 0xF9A JUMP JUMPDEST SWAP3 SWAP2 POP POP JUMP JUMPDEST PUSH0 PUSH1 0x20 DUP3 DUP5 SUB SLT ISZERO PUSH2 0xFD9 JUMPI PUSH2 0xFD8 PUSH2 0xF96 JUMP JUMPDEST JUMPDEST PUSH0 PUSH2 0xFE6 DUP5 DUP3 DUP6 ADD PUSH2 0xFB0 JUMP JUMPDEST SWAP2 POP POP SWAP3 SWAP2 POP POP JUMP JUMPDEST PUSH0 PUSH20 0xFFFFFFFFFFFFFFFFFFFFFFFFFFFFFFFFFFFFFFFF DUP3 AND SWAP1 POP SWAP2 SWAP1 POP JUMP JUMPDEST PUSH0 PUSH2 0x1018 DUP3 PUSH2 0xFEF JUMP JUMPDEST SWAP1 POP SWAP2 SWAP1 POP JUMP JUMPDEST PUSH2 0x1028 DUP2 PUSH2 0x100E JUMP JUMPDEST DUP3 MSTORE POP POP JUMP JUMPDEST PUSH0 DUP2 ISZERO ISZERO SWAP1 POP SWAP2 SWAP1 POP JUMP JUMPDEST PUSH2 0x1042 DUP2 PUSH2 0x102E JUMP JUMPDEST DUP3 MSTORE POP POP JUMP JUMPDEST PUSH0 PUSH1 0xC0 DUP3 ADD SWAP1 POP PUSH2 0x105B PUSH0 DUP4 ADD DUP10 PUSH2 0x101F JUMP JUMPDEST PUSH2 0x1068 PUSH1 0x20 DUP4 ADD DUP9 PUSH2 0xF60 JUMP JUMPDEST PUSH2 0x1075 PUSH1 0x40 DUP4 ADD DUP8 PUSH2 0xF60 JUMP JUMPDEST PUSH2 0x1082 PUSH1 0x60 DUP4 ADD DUP7 PUSH2 0xF60 JUMP JUMPDEST PUSH2 0x108F PUSH1 0x80 DUP4 ADD DUP6 PUSH2 0xF60 JUMP JUMPDEST PUSH2 0x109C PUSH1 0xA0 DUP4 ADD DUP5 PUSH2 0x1039 JUMP JUMPDEST SWAP8 SWAP7 POP POP POP POP POP POP POP JUMP JUMPDEST PUSH0 DUP1 PUSH1 0x40 DUP4 DUP6 SUB SLT ISZERO PUSH2 0x10BD JUMPI PUSH2 0x10BC PUSH2 0xF96 JUMP JUMPDEST JUMPDEST PUSH0 PUSH2 0x10CA DUP6 DUP3 DUP7 ADD PUSH2 0xFB0 JUMP JUMPDEST SWAP3 POP POP PUSH1 0x20 PUSH2 0x10DB DUP6 DUP3 DUP7 ADD PUSH2 0xFB0 JUMP JUMPDEST SWAP2 POP POP SWAP3 POP SWAP3 SWAP1 POP JUMP JUMPDEST PUSH0 DUP1 PUSH0 PUSH1 0x60 DUP5 DUP7 SUB SLT ISZERO PUSH2 0x10FC JUMPI PUSH2 0x10FB PUSH2 0xF96 JUMP JUMPDEST JUMPDEST PUSH0 PUSH2 0x1109 DUP7 DUP3 DUP8 ADD PUSH2 0xFB0 JUMP JUMPDEST SWAP4 POP POP PUSH1 0x20 PUSH2 0x111A DUP7 DUP3 DUP8 ADD PUSH2 0xFB0 JUMP JUMPDEST SWAP3 POP POP PUSH1 0x40 PUSH2 0x112B DUP7 DUP3 DUP8 ADD PUSH2 0xFB0 JUMP JUMPDEST SWAP2 POP POP SWAP3 POP SWAP3 POP SWAP3 JUMP JUMPDEST PUSH0 PUSH1 0x20 DUP3 ADD SWAP1 POP PUSH2 0x1148 PUSH0 DUP4 ADD DUP5 PUSH2 0xF60 JUMP JUMPDEST SWAP3 SWAP2 POP POP JUMP JUMPDEST PUSH0 DUP2 SWAP1 POP SWAP2 SWAP1 POP JUMP JUMPDEST PUSH0 PUSH2 0x1171 PUSH2 0x116C PUSH2 0x1167 DUP5 PUSH2 0xFEF JUMP JUMPDEST PUSH2 0x114E JUMP JUMPDEST PUSH2 0xFEF JUMP JUMPDEST SWAP1 POP SWAP2 SWAP1 POP JUMP JUMPDEST PUSH0 PUSH2 0x1182 DUP3 PUSH2 0x1157 JUMP JUMPDEST SWAP1 POP SWAP2 SWAP1 POP JUMP JUMPDEST PUSH0 PUSH2 0x1193 DUP3 PUSH2 0x1178 JUMP JUMPDEST SWAP1 POP SWAP2 SWAP1 POP JUMP JUMPDEST PUSH2 0x11A3 DUP2 PUSH2 0x1189 JUMP JUMPDEST DUP3 MSTORE POP POP JUMP JUMPDEST PUSH0 PUSH1 0x20 DUP3 ADD SWAP1 POP PUSH2 0x11BC PUSH0 DUP4 ADD DUP5 PUSH2 0x119A JUMP JUMPDEST SWAP3 SWAP2 POP POP JUMP JUMPDEST PUSH32 0x4E487B7100000000000000000000000000000000000000000000000000000000 PUSH0 MSTORE PUSH1 0x11 PUSH1 0x4 MSTORE PUSH1 0x24 PUSH0 REVERT JUMPDEST PUSH0 PUSH2 0x11F9 DUP3 PUSH2 0xF57 JUMP JUMPDEST SWAP2 POP PUSH2 0x1204 DUP4 PUSH2 0xF57 JUMP JUMPDEST SWAP3 POP DUP3 DUP3 ADD SWAP1 POP DUP1 DUP3 GT ISZERO PUSH2 0x121C JUMPI PUSH2 0x121B PUSH2 0x11C2 JUMP JUMPDEST JUMPDEST SWAP3 SWAP2 POP POP JUMP JUMPDEST PUSH0 DUP3 DUP3 MSTORE PUSH1 0x20 DUP3 ADD SWAP1 POP SWAP3 SWAP2 POP POP JUMP JUMPDEST PUSH32 0x6E6F7420656E6465640000000000000000000000000000000000000000000000 PUSH0 DUP3 ADD MSTORE POP JUMP JUMPDEST PUSH0 PUSH2 0x1266 PUSH1 0x9 DUP4 PUSH2 0x1222 JUMP JUMPDEST SWAP2 POP PUSH2 0x1271 DUP3 PUSH2 0x1232 JUMP JUMPDEST PUSH1 0x20 DUP3 ADD SWAP1 POP SWAP2 SWAP1 POP JUMP JUMPDEST PUSH0 PUSH1 0x20 DUP3 ADD SWAP1 POP DUP2 DUP2 SUB PUSH0 DUP4 ADD MSTORE PUSH2 0x1293 DUP2 PUSH2 0x125A JUMP JUMPDEST SWAP1 POP SWAP2 SWAP1 POP JUMP JUMPDEST PUSH32 0x7265616368656420676F616C0000000000000000000000000000000000000000 PUSH0 DUP3 ADD MSTORE POP JUMP JUMPDEST PUSH0 PUSH2 0x12CE PUSH1 0xC DUP4 PUSH2 0x1222 JUMP JUMPDEST SWAP2 POP PUSH2 0x12D9 DUP3 PUSH2 0x129A JUMP JUMPDEST PUSH1 0x20 DUP3 ADD SWAP1 POP SWAP2 SWAP1 POP JUMP JUMPDEST PUSH0 PUSH1 0x20 DUP3 ADD SWAP1 POP DUP2 DUP2 SUB PUSH0 DUP4 ADD MSTORE PUSH2 0x12FB DUP2 PUSH2 0x12C2 JUMP JUMPDEST SWAP1 POP SWAP2 SWAP1 POP JUMP JUMPDEST PUSH0 PUSH1 0x40 DUP3 ADD SWAP1 POP PUSH2 0x1315 PUSH0 DUP4 ADD DUP6 PUSH2 0x101F JUMP JUMPDEST PUSH2 0x1322 PUSH1 0x20 DUP4 ADD DUP5 PUSH2 0xF60 JUMP JUMPDEST SWAP4 SWAP3 POP POP POP JUMP JUMPDEST PUSH2 0x1332 DUP2 PUSH2 0x102E JUMP JUMPDEST DUP2 EQ PUSH2 0x133C JUMPI PUSH0 DUP1 REVERT JUMPDEST POP JUMP JUMPDEST PUSH0 DUP2 MLOAD SWAP1 POP PUSH2 0x134D DUP2 PUSH2 0x1329 JUMP JUMPDEST SWAP3 SWAP2 POP POP JUMP JUMPDEST PUSH0 PUSH1 0x20 DUP3 DUP5 SUB SLT ISZERO PUSH2 0x1368 JUMPI PUSH2 0x1367 PUSH2 0xF96 JUMP JUMPDEST JUMPDEST PUSH0 PUSH2 0x1375 DUP5 DUP3 DUP6 ADD PUSH2 0x133F JUMP JUMPDEST SWAP2 POP POP SWAP3 SWAP2 POP POP JUMP JUMPDEST PUSH0 PUSH1 0x60 DUP3 ADD SWAP1 POP PUSH2 0x1391 PUSH0 DUP4 ADD DUP7 PUSH2 0xF60 JUMP JUMPDEST PUSH2 0x139E PUSH1 0x20 DUP4 ADD DUP6 PUSH2 0x101F JUMP JUMPDEST PUSH2 0x13AB PUSH1 0x40 DUP4 ADD DUP5 PUSH2 0xF60 JUMP JUMPDEST SWAP5 SWAP4 POP POP POP POP JUMP JUMPDEST PUSH32 0x6E6F7420616E206F776E65720000000000000000000000000000000000000000 PUSH0 DUP3 ADD MSTORE POP JUMP JUMPDEST PUSH0 PUSH2 0x13E7 PUSH1 0xC DUP4 PUSH2 0x1222 JUMP JUMPDEST SWAP2 POP PUSH2 0x13F2 DUP3 PUSH2 0x13B3 JUMP JUMPDEST PUSH1 0x20 DUP3 ADD SWAP1 POP SWAP2 SWAP1 POP JUMP JUMPDEST PUSH0 PUSH1 0x20 DUP3 ADD SWAP1 POP DUP2 DUP2 SUB PUSH0 DUP4 ADD MSTORE PUSH2 0x1414 DUP2 PUSH2 0x13DB JUMP JUMPDEST SWAP1 POP SWAP2 SWAP1 POP JUMP JUMPDEST PUSH32 0x706C656467656420697320746F6F206C6F770000000000000000000000000000 PUSH0 DUP3 ADD MSTORE POP JUMP JUMPDEST PUSH0 PUSH2 0x144F PUSH1 0x12 DUP4 PUSH2 0x1222 JUMP JUMPDEST SWAP2 POP PUSH2 0x145A DUP3 PUSH2 0x141B JUMP JUMPDEST PUSH1 0x20 DUP3 ADD SWAP1 POP SWAP2 SWAP1 POP JUMP JUMPDEST PUSH0 PUSH1 0x20 DUP3 ADD SWAP1 POP DUP2 DUP2 SUB PUSH0 DUP4 ADD MSTORE PUSH2 0x147C DUP2 PUSH2 0x1443 JUMP JUMPDEST SWAP1 POP SWAP2 SWAP1 POP JUMP JUMPDEST PUSH32 0x616C726561647920636C61696D65640000000000000000000000000000000000 PUSH0 DUP3 ADD MSTORE POP JUMP JUMPDEST PUSH0 PUSH2 0x14B7 PUSH1 0xF DUP4 PUSH2 0x1222 JUMP JUMPDEST SWAP2 POP PUSH2 0x14C2 DUP3 PUSH2 0x1483 JUMP JUMPDEST PUSH1 0x20 DUP3 ADD SWAP1 POP SWAP2 SWAP1 POP JUMP JUMPDEST PUSH0 PUSH1 0x20 DUP3 ADD SWAP1 POP DUP2 DUP2 SUB PUSH0 DUP4 ADD MSTORE PUSH2 0x14E4 DUP2 PUSH2 0x14AB JUMP JUMPDEST SWAP1 POP SWAP2 SWAP1 POP JUMP JUMPDEST PUSH32 0x616C726561647920737461727465640000000000000000000000000000000000 PUSH0 DUP3 ADD MSTORE POP JUMP JUMPDEST PUSH0 PUSH2 0x151F PUSH1 0xF DUP4 PUSH2 0x1222 JUMP JUMPDEST SWAP2 POP PUSH2 0x152A DUP3 PUSH2 0x14EB JUMP JUMPDEST PUSH1 0x20 DUP3 ADD SWAP1 POP SWAP2 SWAP1 POP JUMP JUMPDEST PUSH0 PUSH1 0x20 DUP3 ADD SWAP1 POP DUP2 DUP2 SUB PUSH0 DUP4 ADD MSTORE PUSH2 0x154C DUP2 PUSH2 0x1513 JUMP JUMPDEST SWAP1 POP SWAP2 SWAP1 POP JUMP JUMPDEST PUSH32 0x656E646564000000000000000000000000000000000000000000000000000000 PUSH0 DUP3 ADD MSTORE POP JUMP JUMPDEST PUSH0 PUSH2 0x1587 PUSH1 0x5 DUP4 PUSH2 0x1222 JUMP JUMPDEST SWAP2 POP PUSH2 0x1592 DUP3 PUSH2 0x1553 JUMP JUMPDEST PUSH1 0x20 DUP3 ADD SWAP1 POP SWAP2 SWAP1 POP JUMP JUMPDEST PUSH0 PUSH1 0x20 DUP3 ADD SWAP1 POP DUP2 DUP2 SUB PUSH0 DUP4 ADD MSTORE PUSH2 0x15B4 DUP2 PUSH2 0x157B JUMP JUMPDEST SWAP1 POP SWAP2 SWAP1 POP JUMP JUMPDEST PUSH0 PUSH2 0x15C5 DUP3 PUSH2 0xF57 JUMP JUMPDEST SWAP2 POP PUSH2 0x15D0 DUP4 PUSH2 0xF57 JUMP JUMPDEST SWAP3 POP DUP3 DUP3 SUB SWAP1 POP DUP2 DUP2 GT ISZERO PUSH2 0x15E8 JUMPI PUSH2 0x15E7 PUSH2 0x11C2 JUMP JUMPDEST JUMPDEST SWAP3 SWAP2 POP POP JUMP JUMPDEST PUSH32 0x696E636F72726563742073746172742061740000000000000000000000000000 PUSH0 DUP3 ADD MSTORE POP JUMP JUMPDEST PUSH0 PUSH2 0x1622 PUSH1 0x12 DUP4 PUSH2 0x1222 JUMP JUMPDEST SWAP2 POP PUSH2 0x162D DUP3 PUSH2 0x15EE JUMP JUMPDEST PUSH1 0x20 DUP3 ADD SWAP1 POP SWAP2 SWAP1 POP JUMP JUMPDEST PUSH0 PUSH1 0x20 DUP3 ADD SWAP1 POP DUP2 DUP2 SUB PUSH0 DUP4 ADD MSTORE PUSH2 0x164F DUP2 PUSH2 0x1616 JUMP JUMPDEST SWAP1 POP SWAP2 SWAP1 POP JUMP JUMPDEST PUSH32 0x696E636F727265637420656E6420617400000000000000000000000000000000 PUSH0 DUP3 ADD MSTORE POP JUMP JUMPDEST PUSH0 PUSH2 0x168A PUSH1 0x10 DUP4 PUSH2 0x1222 JUMP JUMPDEST SWAP2 POP PUSH2 0x1695 DUP3 PUSH2 0x1656 JUMP JUMPDEST PUSH1 0x20 DUP3 ADD SWAP1 POP SWAP2 SWAP1 POP JUMP JUMPDEST PUSH0 PUSH1 0x20 DUP3 ADD SWAP1 POP DUP2 DUP2 SUB PUSH0 DUP4 ADD MSTORE PUSH2 0x16B7 DUP2 PUSH2 0x167E JUMP JUMPDEST SWAP1 POP SWAP2 SWAP1 POP JUMP JUMPDEST PUSH32 0x746F6F206C6F6E67000000000000000000000000000000000000000000000000 PUSH0 DUP3 ADD MSTORE POP JUMP JUMPDEST PUSH0 PUSH2 0x16F2 PUSH1 0x8 DUP4 PUSH2 0x1222 JUMP JUMPDEST SWAP2 POP PUSH2 0x16FD DUP3 PUSH2 0x16BE JUMP JUMPDEST PUSH1 0x20 DUP3 ADD SWAP1 POP SWAP2 SWAP1 POP JUMP JUMPDEST PUSH0 PUSH1 0x20 DUP3 ADD SWAP1 POP DUP2 DUP2 SUB PUSH0 DUP4 ADD MSTORE PUSH2 0x171F DUP2 PUSH2 0x16E6 JUMP JUMPDEST SWAP1 POP SWAP2 SWAP1 POP JUMP JUMPDEST PUSH0 PUSH1 0xA0 DUP3 ADD SWAP1 POP PUSH2 0x1739 PUSH0 DUP4 ADD DUP9 PUSH2 0xF60 JUMP JUMPDEST PUSH2 0x1746 PUSH1 0x20 DUP4 ADD DUP8 PUSH2 0x101F JUMP JUMPDEST PUSH2 0x1753 PUSH1 0x40 DUP4 ADD DUP7 PUSH2 0xF60 JUMP JUMPDEST PUSH2 0x1760 PUSH1 0x60 DUP4 ADD DUP6 PUSH2 0xF60 JUMP JUMPDEST PUSH2 0x176D PUSH1 0x80 DUP4 ADD DUP5 PUSH2 0xF60 JUMP JUMPDEST SWAP7 SWAP6 POP POP POP POP POP POP JUMP JUMPDEST PUSH0 PUSH2 0x1781 DUP3 PUSH2 0xF57 JUMP JUMPDEST SWAP2 POP PUSH32 0xFFFFFFFFFFFFFFFFFFFFFFFFFFFFFFFFFFFFFFFFFFFFFFFFFFFFFFFFFFFFFFFF DUP3 SUB PUSH2 0x17B3 JUMPI PUSH2 0x17B2 PUSH2 0x11C2 JUMP JUMPDEST JUMPDEST PUSH1 0x1 DUP3 ADD SWAP1 POP SWAP2 SWAP1 POP JUMP JUMPDEST PUSH32 0x6E6F742073746172746564000000000000000000000000000000000000000000 PUSH0 DUP3 ADD MSTORE POP JUMP JUMPDEST PUSH0 PUSH2 0x17F2 PUSH1 0xB DUP4 PUSH2 0x1222 JUMP JUMPDEST SWAP2 POP PUSH2 0x17FD DUP3 PUSH2 0x17BE JUMP JUMPDEST PUSH1 0x20 DUP3 ADD SWAP1 POP SWAP2 SWAP1 POP JUMP JUMPDEST PUSH0 PUSH1 0x20 DUP3 ADD SWAP1 POP DUP2 DUP2 SUB PUSH0 DUP4 ADD MSTORE PUSH2 0x181F DUP2 PUSH2 0x17E6 JUMP JUMPDEST SWAP1 POP SWAP2 SWAP1 POP JUMP JUMPDEST PUSH0 PUSH1 0x60 DUP3 ADD SWAP1 POP PUSH2 0x1839 PUSH0 DUP4 ADD DUP7 PUSH2 0x101F JUMP JUMPDEST PUSH2 0x1846 PUSH1 0x20 DUP4 ADD DUP6 PUSH2 0x101F JUMP JUMPDEST PUSH2 0x1853 PUSH1 0x40 DUP4 ADD DUP5 PUSH2 0xF60 JUMP JUMPDEST SWAP5 SWAP4 POP POP POP POP JUMP INVALID LOG2 PUSH5 0x6970667358 0x22 SLT KECCAK256 PUSH15 0xF8FF8DAEF1DA2D0743F2B64C7E3355 0xA7 PUSH11 0xCACE63F466F4183B934194 0x27 PUSH2 0xA64 PUSH20 0x6F6C634300081A00330000000000000000000000 "
				},
				"gasEstimates": {
					"creation": {
						"codeDepositCost": "1257800",
						"executionCost": "infinite",
						"totalCost": "infinite"
					},
					"external": {
						"MAX_DURATION()": "347",
						"MIN_DURATION()": "369",
						"cancel(uint256)": "infinite",
						"claim(uint256)": "infinite",
						"companies(uint256)": "infinite",
						"currentId()": "2491",
						"getTestTime()": "infinite",
						"launch(uint256,uint256,uint256)": "infinite",
						"pledge(uint256,uint256)": "infinite",
						"refund(uint256)": "infinite",
						"token()": "infinite",
						"unpledge(uint256,uint256)": "infinite"
					}
				},
				"methodIdentifiers": {
					"MAX_DURATION()": "b1724b46",
					"MIN_DURATION()": "b6a6d177",
					"cancel(uint256)": "40e58ee5",
					"claim(uint256)": "379607f5",
					"companies(uint256)": "2813d19d",
					"currentId()": "e00dd161",
					"getTestTime()": "23c9f684",
					"launch(uint256,uint256,uint256)": "8736c179",
					"pledge(uint256,uint256)": "fde327be",
					"refund(uint256)": "278ecde1",
					"token()": "fc0c546a",
					"unpledge(uint256,uint256)": "711853ab"
				}
			},
			"storageLayout": {
				"storage": [
					{
						"astId": 24,
						"contract": "crowdfunding/Crowdfunding.sol:Crowdfunding",
						"label": "pledges",
						"offset": 0,
						"slot": "0",
						"type": "t_mapping(t_uint256,t_mapping(t_address,t_uint256))"
					},
					{
						"astId": 29,
						"contract": "crowdfunding/Crowdfunding.sol:Crowdfunding",
						"label": "companies",
						"offset": 0,
						"slot": "1",
						"type": "t_mapping(t_uint256,t_struct(Company)15_storage)"
					},
					{
						"astId": 31,
						"contract": "crowdfunding/Crowdfunding.sol:Crowdfunding",
						"label": "currentId",
						"offset": 0,
						"slot": "2",
						"type": "t_uint256"
					}
				],
				"types": {
					"t_address": {
						"encoding": "inplace",
						"label": "address",
						"numberOfBytes": "20"
					},
					"t_bool": {
						"encoding": "inplace",
						"label": "bool",
						"numberOfBytes": "1"
					},
					"t_mapping(t_address,t_uint256)": {
						"encoding": "mapping",
						"key": "t_address",
						"label": "mapping(address => uint256)",
						"numberOfBytes": "32",
						"value": "t_uint256"
					},
					"t_mapping(t_uint256,t_mapping(t_address,t_uint256))": {
						"encoding": "mapping",
						"key": "t_uint256",
						"label": "mapping(uint256 => mapping(address => uint256))",
						"numberOfBytes": "32",
						"value": "t_mapping(t_address,t_uint256)"
					},
					"t_mapping(t_uint256,t_struct(Company)15_storage)": {
						"encoding": "mapping",
						"key": "t_uint256",
						"label": "mapping(uint256 => struct Crowdfunding.Company)",
						"numberOfBytes": "32",
						"value": "t_struct(Company)15_storage"
					},
					"t_struct(Company)15_storage": {
						"encoding": "inplace",
						"label": "struct Crowdfunding.Company",
						"members": [
							{
								"astId": 4,
								"contract": "crowdfunding/Crowdfunding.sol:Crowdfunding",
								"label": "owner",
								"offset": 0,
								"slot": "0",
								"type": "t_address"
							},
							{
								"astId": 6,
								"contract": "crowdfunding/Crowdfunding.sol:Crowdfunding",
								"label": "goal",
								"offset": 0,
								"slot": "1",
								"type": "t_uint256"
							},
							{
								"astId": 8,
								"contract": "crowdfunding/Crowdfunding.sol:Crowdfunding",
								"label": "pledged",
								"offset": 0,
								"slot": "2",
								"type": "t_uint256"
							},
							{
								"astId": 10,
								"contract": "crowdfunding/Crowdfunding.sol:Crowdfunding",
								"label": "startAt",
								"offset": 0,
								"slot": "3",
								"type": "t_uint256"
							},
							{
								"astId": 12,
								"contract": "crowdfunding/Crowdfunding.sol:Crowdfunding",
								"label": "endAt",
								"offset": 0,
								"slot": "4",
								"type": "t_uint256"
							},
							{
								"astId": 14,
								"contract": "crowdfunding/Crowdfunding.sol:Crowdfunding",
								"label": "claimed",
								"offset": 0,
								"slot": "5",
								"type": "t_bool"
							}
						],
						"numberOfBytes": "192"
					},
					"t_uint256": {
						"encoding": "inplace",
						"label": "uint256",
						"numberOfBytes": "32"
					}
				}
			},
			"userdoc": {
				"kind": "user",
				"methods": {
					"getTestTime()": {
						"notice": "для ручного теста развернуть ERC20???"
					}
				},
				"version": 1
			}
		}
	}
}