{
	"crowdfunding/Crowdfunding.sol": {
		"Crowdfunding": {
			"abi": [
				{
					"inputs": [
						{
							"internalType": "address",
							"name": "_token",
							"type": "address"
						}
					],
					"stateMutability": "nonpayable",
					"type": "constructor"
				},
				{
					"anonymous": false,
					"inputs": [
						{
							"indexed": false,
							"internalType": "uint256",
							"name": "id",
							"type": "uint256"
						}
					],
					"name": "Canceled",
					"type": "event"
				},
				{
					"anonymous": false,
					"inputs": [
						{
							"indexed": false,
							"internalType": "uint256",
							"name": "id",
							"type": "uint256"
						}
					],
					"name": "Claimed",
					"type": "event"
				},
				{
					"anonymous": false,
					"inputs": [
						{
							"indexed": false,
							"internalType": "uint256",
							"name": "id",
							"type": "uint256"
						},
						{
							"indexed": false,
							"internalType": "address",
							"name": "owner",
							"type": "address"
						},
						{
							"indexed": false,
							"internalType": "uint256",
							"name": "goal",
							"type": "uint256"
						},
						{
							"indexed": false,
							"internalType": "uint256",
							"name": "startAt",
							"type": "uint256"
						},
						{
							"indexed": false,
							"internalType": "uint256",
							"name": "endAt",
							"type": "uint256"
						}
					],
					"name": "Launched",
					"type": "event"
				},
				{
					"anonymous": false,
					"inputs": [
						{
							"indexed": false,
							"internalType": "uint256",
							"name": "id",
							"type": "uint256"
						},
						{
							"indexed": false,
							"internalType": "address",
							"name": "pledger",
							"type": "address"
						},
						{
							"indexed": false,
							"internalType": "uint256",
							"name": "amount",
							"type": "uint256"
						}
					],
					"name": "Pledged",
					"type": "event"
				},
				{
					"anonymous": false,
					"inputs": [
						{
							"indexed": false,
							"internalType": "uint256",
							"name": "id",
							"type": "uint256"
						},
						{
							"indexed": false,
							"internalType": "address",
							"name": "pledger",
							"type": "address"
						},
						{
							"indexed": false,
							"internalType": "uint256",
							"name": "amount",
							"type": "uint256"
						}
					],
					"name": "Refunded",
					"type": "event"
				},
				{
					"anonymous": false,
					"inputs": [
						{
							"indexed": false,
							"internalType": "uint256",
							"name": "id",
							"type": "uint256"
						},
						{
							"indexed": false,
							"internalType": "address",
							"name": "pledger",
							"type": "address"
						},
						{
							"indexed": false,
							"internalType": "uint256",
							"name": "amount",
							"type": "uint256"
						}
					],
					"name": "Unpledged",
					"type": "event"
				},
				{
					"inputs": [],
					"name": "MAX_DURATION",
					"outputs": [
						{
							"internalType": "uint256",
							"name": "",
							"type": "uint256"
						}
					],
					"stateMutability": "view",
					"type": "function"
				},
				{
					"inputs": [],
					"name": "MIN_DURATION",
					"outputs": [
						{
							"internalType": "uint256",
							"name": "",
							"type": "uint256"
						}
					],
					"stateMutability": "view",
					"type": "function"
				},
				{
					"inputs": [
						{
							"internalType": "uint256",
							"name": "_id",
							"type": "uint256"
						}
					],
					"name": "cancel",
					"outputs": [],
					"stateMutability": "nonpayable",
					"type": "function"
				},
				{
					"inputs": [
						{
							"internalType": "uint256",
							"name": "_id",
							"type": "uint256"
						}
					],
					"name": "claim",
					"outputs": [],
					"stateMutability": "nonpayable",
					"type": "function"
				},
				{
					"inputs": [
						{
							"internalType": "uint256",
							"name": "",
							"type": "uint256"
						}
					],
					"name": "companies",
					"outputs": [
						{
							"internalType": "address",
							"name": "owner",
							"type": "address"
						},
						{
							"internalType": "uint256",
							"name": "goal",
							"type": "uint256"
						},
						{
							"internalType": "uint256",
							"name": "pledged",
							"type": "uint256"
						},
						{
							"internalType": "uint256",
							"name": "startAt",
							"type": "uint256"
						},
						{
							"internalType": "uint256",
							"name": "endAt",
							"type": "uint256"
						},
						{
							"internalType": "bool",
							"name": "claimed",
							"type": "bool"
						}
					],
					"stateMutability": "view",
					"type": "function"
				},
				{
					"inputs": [],
					"name": "currentId",
					"outputs": [
						{
							"internalType": "uint256",
							"name": "",
							"type": "uint256"
						}
					],
					"stateMutability": "view",
					"type": "function"
				},
				{
					"inputs": [
						{
							"internalType": "uint256",
							"name": "_id",
							"type": "uint256"
						}
					],
					"name": "endCompany",
					"outputs": [],
					"stateMutability": "nonpayable",
					"type": "function"
				},
				{
					"inputs": [],
					"name": "getLongTestTime",
					"outputs": [
						{
							"internalType": "uint256",
							"name": "",
							"type": "uint256"
						},
						{
							"internalType": "uint256",
							"name": "",
							"type": "uint256"
						}
					],
					"stateMutability": "view",
					"type": "function"
				},
				{
					"inputs": [],
					"name": "getShortTestTime",
					"outputs": [
						{
							"internalType": "uint256",
							"name": "",
							"type": "uint256"
						},
						{
							"internalType": "uint256",
							"name": "",
							"type": "uint256"
						}
					],
					"stateMutability": "view",
					"type": "function"
				},
				{
					"inputs": [
						{
							"internalType": "uint256",
							"name": "_goal",
							"type": "uint256"
						},
						{
							"internalType": "uint256",
							"name": "_startAt",
							"type": "uint256"
						},
						{
							"internalType": "uint256",
							"name": "_endAt",
							"type": "uint256"
						}
					],
					"name": "launch",
					"outputs": [],
					"stateMutability": "nonpayable",
					"type": "function"
				},
				{
					"inputs": [
						{
							"internalType": "uint256",
							"name": "_id",
							"type": "uint256"
						},
						{
							"internalType": "uint256",
							"name": "_amount",
							"type": "uint256"
						}
					],
					"name": "pledge",
					"outputs": [],
					"stateMutability": "nonpayable",
					"type": "function"
				},
				{
					"inputs": [
						{
							"internalType": "uint256",
							"name": "_id",
							"type": "uint256"
						}
					],
					"name": "refund",
					"outputs": [],
					"stateMutability": "nonpayable",
					"type": "function"
				},
				{
					"inputs": [],
					"name": "token",
					"outputs": [
						{
							"internalType": "contract IERC20",
							"name": "",
							"type": "address"
						}
					],
					"stateMutability": "view",
					"type": "function"
				},
				{
					"inputs": [
						{
							"internalType": "uint256",
							"name": "_id",
							"type": "uint256"
						},
						{
							"internalType": "uint256",
							"name": "_amount",
							"type": "uint256"
						}
					],
					"name": "unpledge",
					"outputs": [],
					"stateMutability": "nonpayable",
					"type": "function"
				}
			],
			"devdoc": {
				"kind": "dev",
				"methods": {
					"cancel(uint256)": {
						"params": {
							"_id": "id компании"
						}
					},
					"claim(uint256)": {
						"params": {
							"_id": "id компании"
						}
					},
					"endCompany(uint256)": {
						"details": "чтобы завершить компанию для ручного теста"
					},
					"getLongTestTime()": {
						"details": "начальное время должно быть больше либо равно текущему (когда запускается launch) время окончания должно быть в диапазоне от начального времени + мин длительность и до до начального времени + макс длительность"
					},
					"launch(uint256,uint256,uint256)": {
						"params": {
							"_endAt": "когда заканчивается",
							"_goal": "цель сумма",
							"_startAt": "когда начинается"
						}
					},
					"pledge(uint256,uint256)": {
						"params": {
							"_amount": "сумма",
							"_id": "id компании"
						}
					},
					"unpledge(uint256,uint256)": {
						"params": {
							"_amount": "сумма",
							"_id": "id компании"
						}
					}
				},
				"version": 1
			},
			"evm": {
				"assembly": "    /* \"crowdfunding/Crowdfunding.sol\":451:6699  contract Crowdfunding {... */\n  mstore(0x40, 0xa0)\n    /* \"crowdfunding/Crowdfunding.sol\":1322:1389  constructor(address _token) {... */\n  callvalue\n  dup1\n  iszero\n  tag_1\n  jumpi\n  0x00\n  dup1\n  revert\ntag_1:\n  pop\n  mload(0x40)\n  sub(codesize, bytecodeSize)\n  dup1\n  bytecodeSize\n  dup4\n  codecopy\n  dup2\n  dup2\n  add\n  0x40\n  mstore\n  dup2\n  add\n  swap1\n  tag_2\n  swap2\n  swap1\n  tag_3\n  jump\t// in\ntag_2:\n    /* \"crowdfunding/Crowdfunding.sol\":1375:1381  _token */\n  dup1\n    /* \"crowdfunding/Crowdfunding.sol\":1360:1382  token = IERC20(_token) */\n  0xffffffffffffffffffffffffffffffffffffffff\n  and\n  0x80\n  dup2\n  0xffffffffffffffffffffffffffffffffffffffff\n  and\n  dup2\n  mstore\n  pop\n  pop\n    /* \"crowdfunding/Crowdfunding.sol\":1322:1389  constructor(address _token) {... */\n  pop\n    /* \"crowdfunding/Crowdfunding.sol\":451:6699  contract Crowdfunding {... */\n  jump(tag_6)\n    /* \"#utility.yul\":88:205   */\ntag_8:\n    /* \"#utility.yul\":197:198   */\n  0x00\n    /* \"#utility.yul\":194:195   */\n  dup1\n    /* \"#utility.yul\":187:199   */\n  revert\n    /* \"#utility.yul\":334:460   */\ntag_10:\n    /* \"#utility.yul\":371:378   */\n  0x00\n    /* \"#utility.yul\":411:453   */\n  0xffffffffffffffffffffffffffffffffffffffff\n    /* \"#utility.yul\":404:409   */\n  dup3\n    /* \"#utility.yul\":400:454   */\n  and\n    /* \"#utility.yul\":389:454   */\n  swap1\n  pop\n    /* \"#utility.yul\":334:460   */\n  swap2\n  swap1\n  pop\n  jump\t// out\n    /* \"#utility.yul\":466:562   */\ntag_11:\n    /* \"#utility.yul\":503:510   */\n  0x00\n    /* \"#utility.yul\":532:556   */\n  tag_20\n    /* \"#utility.yul\":550:555   */\n  dup3\n    /* \"#utility.yul\":532:556   */\n  tag_10\n  jump\t// in\ntag_20:\n    /* \"#utility.yul\":521:556   */\n  swap1\n  pop\n    /* \"#utility.yul\":466:562   */\n  swap2\n  swap1\n  pop\n  jump\t// out\n    /* \"#utility.yul\":568:690   */\ntag_12:\n    /* \"#utility.yul\":641:665   */\n  tag_22\n    /* \"#utility.yul\":659:664   */\n  dup2\n    /* \"#utility.yul\":641:665   */\n  tag_11\n  jump\t// in\ntag_22:\n    /* \"#utility.yul\":634:639   */\n  dup2\n    /* \"#utility.yul\":631:666   */\n  eq\n    /* \"#utility.yul\":621:684   */\n  tag_23\n  jumpi\n    /* \"#utility.yul\":680:681   */\n  0x00\n    /* \"#utility.yul\":677:678   */\n  dup1\n    /* \"#utility.yul\":670:682   */\n  revert\n    /* \"#utility.yul\":621:684   */\ntag_23:\n    /* \"#utility.yul\":568:690   */\n  pop\n  jump\t// out\n    /* \"#utility.yul\":696:839   */\ntag_13:\n    /* \"#utility.yul\":753:758   */\n  0x00\n    /* \"#utility.yul\":784:790   */\n  dup2\n    /* \"#utility.yul\":778:791   */\n  mload\n    /* \"#utility.yul\":769:791   */\n  swap1\n  pop\n    /* \"#utility.yul\":800:833   */\n  tag_25\n    /* \"#utility.yul\":827:832   */\n  dup2\n    /* \"#utility.yul\":800:833   */\n  tag_12\n  jump\t// in\ntag_25:\n    /* \"#utility.yul\":696:839   */\n  swap3\n  swap2\n  pop\n  pop\n  jump\t// out\n    /* \"#utility.yul\":845:1196   */\ntag_3:\n    /* \"#utility.yul\":915:921   */\n  0x00\n    /* \"#utility.yul\":964:966   */\n  0x20\n    /* \"#utility.yul\":952:961   */\n  dup3\n    /* \"#utility.yul\":943:950   */\n  dup5\n    /* \"#utility.yul\":939:962   */\n  sub\n    /* \"#utility.yul\":935:967   */\n  slt\n    /* \"#utility.yul\":932:1051   */\n  iszero\n  tag_27\n  jumpi\n    /* \"#utility.yul\":970:1049   */\n  tag_28\n  tag_8\n  jump\t// in\ntag_28:\n    /* \"#utility.yul\":932:1051   */\ntag_27:\n    /* \"#utility.yul\":1090:1091   */\n  0x00\n    /* \"#utility.yul\":1115:1179   */\n  tag_29\n    /* \"#utility.yul\":1171:1178   */\n  dup5\n    /* \"#utility.yul\":1162:1168   */\n  dup3\n    /* \"#utility.yul\":1151:1160   */\n  dup6\n    /* \"#utility.yul\":1147:1169   */\n  add\n    /* \"#utility.yul\":1115:1179   */\n  tag_13\n  jump\t// in\ntag_29:\n    /* \"#utility.yul\":1105:1179   */\n  swap2\n  pop\n    /* \"#utility.yul\":1061:1189   */\n  pop\n    /* \"#utility.yul\":845:1196   */\n  swap3\n  swap2\n  pop\n  pop\n  jump\t// out\n    /* \"crowdfunding/Crowdfunding.sol\":451:6699  contract Crowdfunding {... */\ntag_6:\n  mload(0x80)\n  codecopy(0x00, dataOffset(sub_0), dataSize(sub_0))\n  0x00\n  assignImmutable(\"0x939eb54753ed0cc7e2272bfb34cbe098308c93936ed54d79078f76ade0b2e789\")\n  return(0x00, dataSize(sub_0))\nstop\n\nsub_0: assembly {\n        /* \"crowdfunding/Crowdfunding.sol\":451:6699  contract Crowdfunding {... */\n      mstore(0x40, 0x80)\n      callvalue\n      dup1\n      iszero\n      tag_1\n      jumpi\n      0x00\n      dup1\n      revert\n    tag_1:\n      pop\n      jumpi(tag_2, lt(calldatasize, 0x04))\n      shr(0xe0, calldataload(0x00))\n      dup1\n      0xb1724b46\n      gt\n      tag_17\n      jumpi\n      dup1\n      0xe00dd161\n      gt\n      tag_18\n      jumpi\n      dup1\n      0xe00dd161\n      eq\n      tag_13\n      jumpi\n      dup1\n      0xfa3c196b\n      eq\n      tag_14\n      jumpi\n      dup1\n      0xfc0c546a\n      eq\n      tag_15\n      jumpi\n      dup1\n      0xfde327be\n      eq\n      tag_16\n      jumpi\n      jump(tag_2)\n    tag_18:\n      dup1\n      0xb1724b46\n      eq\n      tag_10\n      jumpi\n      dup1\n      0xb6a6d177\n      eq\n      tag_11\n      jumpi\n      dup1\n      0xd99b1db7\n      eq\n      tag_12\n      jumpi\n      jump(tag_2)\n    tag_17:\n      dup1\n      0x379607f5\n      gt\n      tag_19\n      jumpi\n      dup1\n      0x379607f5\n      eq\n      tag_6\n      jumpi\n      dup1\n      0x40e58ee5\n      eq\n      tag_7\n      jumpi\n      dup1\n      0x711853ab\n      eq\n      tag_8\n      jumpi\n      dup1\n      0x8736c179\n      eq\n      tag_9\n      jumpi\n      jump(tag_2)\n    tag_19:\n      dup1\n      0x0833317b\n      eq\n      tag_3\n      jumpi\n      dup1\n      0x278ecde1\n      eq\n      tag_4\n      jumpi\n      dup1\n      0x2813d19d\n      eq\n      tag_5\n      jumpi\n    tag_2:\n      0x00\n      dup1\n      revert\n        /* \"crowdfunding/Crowdfunding.sol\":6278:6440  function getShortTestTime() public view returns (uint256, uint256) {... */\n    tag_3:\n      tag_20\n      tag_21\n      jump\t// in\n    tag_20:\n      mload(0x40)\n      tag_22\n      swap3\n      swap2\n      swap1\n      tag_23\n      jump\t// in\n    tag_22:\n      mload(0x40)\n      dup1\n      swap2\n      sub\n      swap1\n      return\n        /* \"crowdfunding/Crowdfunding.sol\":5183:5676  function refund(uint _id) external {... */\n    tag_4:\n      tag_24\n      0x04\n      dup1\n      calldatasize\n      sub\n      dup2\n      add\n      swap1\n      tag_25\n      swap2\n      swap1\n      tag_26\n      jump\t// in\n    tag_25:\n      tag_27\n      jump\t// in\n    tag_24:\n      stop\n        /* \"crowdfunding/Crowdfunding.sol\":797:838  mapping(uint => Company) public companies */\n    tag_5:\n      tag_28\n      0x04\n      dup1\n      calldatasize\n      sub\n      dup2\n      add\n      swap1\n      tag_29\n      swap2\n      swap1\n      tag_26\n      jump\t// in\n    tag_29:\n      tag_30\n      jump\t// in\n    tag_28:\n      mload(0x40)\n      tag_31\n      swap7\n      swap6\n      swap5\n      swap4\n      swap3\n      swap2\n      swap1\n      tag_32\n      jump\t// in\n    tag_31:\n      mload(0x40)\n      dup1\n      swap2\n      sub\n      swap1\n      return\n        /* \"crowdfunding/Crowdfunding.sol\":4411:5016  function claim(uint _id) external {... */\n    tag_6:\n      tag_33\n      0x04\n      dup1\n      calldatasize\n      sub\n      dup2\n      add\n      swap1\n      tag_34\n      swap2\n      swap1\n      tag_26\n      jump\t// in\n    tag_34:\n      tag_35\n      jump\t// in\n    tag_33:\n      stop\n        /* \"crowdfunding/Crowdfunding.sol\":2396:2680  function cancel(uint _id) external {... */\n    tag_7:\n      tag_36\n      0x04\n      dup1\n      calldatasize\n      sub\n      dup2\n      add\n      swap1\n      tag_37\n      swap2\n      swap1\n      tag_26\n      jump\t// in\n    tag_37:\n      tag_38\n      jump\t// in\n    tag_36:\n      stop\n        /* \"crowdfunding/Crowdfunding.sol\":3755:4203  function unpledge(uint _id, uint _amount) external {... */\n    tag_8:\n      tag_39\n      0x04\n      dup1\n      calldatasize\n      sub\n      dup2\n      add\n      swap1\n      tag_40\n      swap2\n      swap1\n      tag_41\n      jump\t// in\n    tag_40:\n      tag_42\n      jump\t// in\n    tag_39:\n      stop\n        /* \"crowdfunding/Crowdfunding.sol\":1614:2281  function launch(uint _goal, uint _startAt, uint _endAt) external {... */\n    tag_9:\n      tag_43\n      0x04\n      dup1\n      calldatasize\n      sub\n      dup2\n      add\n      swap1\n      tag_44\n      swap2\n      swap1\n      tag_45\n      jump\t// in\n    tag_44:\n      tag_46\n      jump\t// in\n    tag_43:\n      stop\n        /* \"crowdfunding/Crowdfunding.sol\":911:955  uint public constant MAX_DURATION = 100 days */\n    tag_10:\n      tag_47\n      tag_48\n      jump\t// in\n    tag_47:\n      mload(0x40)\n      tag_49\n      swap2\n      swap1\n      tag_50\n      jump\t// in\n    tag_49:\n      mload(0x40)\n      dup1\n      swap2\n      sub\n      swap1\n      return\n        /* \"crowdfunding/Crowdfunding.sol\":961:999  uint public constant MIN_DURATION = 10 */\n    tag_11:\n      tag_51\n      tag_52\n      jump\t// in\n    tag_51:\n      mload(0x40)\n      tag_53\n      swap2\n      swap1\n      tag_50\n      jump\t// in\n    tag_53:\n      mload(0x40)\n      dup1\n      swap2\n      sub\n      swap1\n      return\n        /* \"crowdfunding/Crowdfunding.sol\":6555:6697  function endCompany(uint256 _id) public {... */\n    tag_12:\n      tag_54\n      0x04\n      dup1\n      calldatasize\n      sub\n      dup2\n      add\n      swap1\n      tag_55\n      swap2\n      swap1\n      tag_26\n      jump\t// in\n    tag_55:\n      tag_56\n      jump\t// in\n    tag_54:\n      stop\n        /* \"crowdfunding/Crowdfunding.sol\":883:904  uint public currentId */\n    tag_13:\n      tag_57\n      tag_58\n      jump\t// in\n    tag_57:\n      mload(0x40)\n      tag_59\n      swap2\n      swap1\n      tag_50\n      jump\t// in\n    tag_59:\n      mload(0x40)\n      dup1\n      swap2\n      sub\n      swap1\n      return\n        /* \"crowdfunding/Crowdfunding.sol\":6106:6272  function getLongTestTime() public view returns (uint256, uint256) {... */\n    tag_14:\n      tag_60\n      tag_61\n      jump\t// in\n    tag_60:\n      mload(0x40)\n      tag_62\n      swap3\n      swap2\n      swap1\n      tag_23\n      jump\t// in\n    tag_62:\n      mload(0x40)\n      dup1\n      swap2\n      sub\n      swap1\n      return\n        /* \"crowdfunding/Crowdfunding.sol\":635:664  IERC20 public immutable token */\n    tag_15:\n      tag_63\n      tag_64\n      jump\t// in\n    tag_63:\n      mload(0x40)\n      tag_65\n      swap2\n      swap1\n      tag_66\n      jump\t// in\n    tag_65:\n      mload(0x40)\n      dup1\n      swap2\n      sub\n      swap1\n      return\n        /* \"crowdfunding/Crowdfunding.sol\":2988:3503  function pledge(uint _id, uint _amount) external {... */\n    tag_16:\n      tag_67\n      0x04\n      dup1\n      calldatasize\n      sub\n      dup2\n      add\n      swap1\n      tag_68\n      swap2\n      swap1\n      tag_41\n      jump\t// in\n    tag_68:\n      tag_69\n      jump\t// in\n    tag_67:\n      stop\n        /* \"crowdfunding/Crowdfunding.sol\":6278:6440  function getShortTestTime() public view returns (uint256, uint256) {... */\n    tag_21:\n        /* \"crowdfunding/Crowdfunding.sol\":6327:6334  uint256 */\n      0x00\n        /* \"crowdfunding/Crowdfunding.sol\":6336:6343  uint256 */\n      dup1\n        /* \"crowdfunding/Crowdfunding.sol\":6355:6370  uint256 current */\n      0x00\n        /* \"crowdfunding/Crowdfunding.sol\":6373:6388  block.timestamp */\n      timestamp\n        /* \"crowdfunding/Crowdfunding.sol\":6355:6388  uint256 current = block.timestamp */\n      swap1\n      pop\n        /* \"crowdfunding/Crowdfunding.sol\":6416:6418  20 */\n      0x14\n        /* \"crowdfunding/Crowdfunding.sol\":6406:6413  current */\n      dup2\n        /* \"crowdfunding/Crowdfunding.sol\":6406:6418  current + 20 */\n      tag_71\n      swap2\n      swap1\n      tag_72\n      jump\t// in\n    tag_71:\n        /* \"crowdfunding/Crowdfunding.sol\":6430:6432  40 */\n      0x28\n        /* \"crowdfunding/Crowdfunding.sol\":6420:6427  current */\n      dup3\n        /* \"crowdfunding/Crowdfunding.sol\":6420:6432  current + 40 */\n      tag_73\n      swap2\n      swap1\n      tag_72\n      jump\t// in\n    tag_73:\n        /* \"crowdfunding/Crowdfunding.sol\":6398:6433  return (current + 20, current + 40) */\n      swap3\n      pop\n      swap3\n      pop\n      pop\n        /* \"crowdfunding/Crowdfunding.sol\":6278:6440  function getShortTestTime() public view returns (uint256, uint256) {... */\n      swap1\n      swap2\n      jump\t// out\n        /* \"crowdfunding/Crowdfunding.sol\":5183:5676  function refund(uint _id) external {... */\n    tag_27:\n        /* \"crowdfunding/Crowdfunding.sol\":5228:5251  Company storage company */\n      0x00\n        /* \"crowdfunding/Crowdfunding.sol\":5254:5263  companies */\n      0x01\n        /* \"crowdfunding/Crowdfunding.sol\":5254:5268  companies[_id] */\n      0x00\n        /* \"crowdfunding/Crowdfunding.sol\":5264:5267  _id */\n      dup4\n        /* \"crowdfunding/Crowdfunding.sol\":5254:5268  companies[_id] */\n      dup2\n      mstore\n      0x20\n      add\n      swap1\n      dup2\n      mstore\n      0x20\n      add\n      0x00\n      keccak256\n        /* \"crowdfunding/Crowdfunding.sol\":5228:5268  Company storage company = companies[_id] */\n      swap1\n      pop\n        /* \"crowdfunding/Crowdfunding.sol\":5304:5311  company */\n      dup1\n        /* \"crowdfunding/Crowdfunding.sol\":5304:5317  company.endAt */\n      0x04\n      add\n      sload\n        /* \"crowdfunding/Crowdfunding.sol\":5286:5301  block.timestamp */\n      timestamp\n        /* \"crowdfunding/Crowdfunding.sol\":5286:5317  block.timestamp > company.endAt */\n      gt\n        /* \"crowdfunding/Crowdfunding.sol\":5278:5331  require(block.timestamp > company.endAt, \"not ended\") */\n      tag_75\n      jumpi\n      mload(0x40)\n      0x08c379a000000000000000000000000000000000000000000000000000000000\n      dup2\n      mstore\n      0x04\n      add\n      tag_76\n      swap1\n      tag_77\n      jump\t// in\n    tag_76:\n      mload(0x40)\n      dup1\n      swap2\n      sub\n      swap1\n      revert\n    tag_75:\n        /* \"crowdfunding/Crowdfunding.sol\":5367:5374  company */\n      dup1\n        /* \"crowdfunding/Crowdfunding.sol\":5367:5379  company.goal */\n      0x01\n      add\n      sload\n        /* \"crowdfunding/Crowdfunding.sol\":5349:5356  company */\n      dup2\n        /* \"crowdfunding/Crowdfunding.sol\":5349:5364  company.pledged */\n      0x02\n      add\n      sload\n        /* \"crowdfunding/Crowdfunding.sol\":5349:5379  company.pledged < company.goal */\n      lt\n        /* \"crowdfunding/Crowdfunding.sol\":5341:5396  require(company.pledged < company.goal, \"reached goal\") */\n      tag_78\n      jumpi\n      mload(0x40)\n      0x08c379a000000000000000000000000000000000000000000000000000000000\n      dup2\n      mstore\n      0x04\n      add\n      tag_79\n      swap1\n      tag_80\n      jump\t// in\n    tag_79:\n      mload(0x40)\n      dup1\n      swap2\n      sub\n      swap1\n      revert\n    tag_78:\n        /* \"crowdfunding/Crowdfunding.sol\":5407:5425  uint pledgedAmount */\n      0x00\n        /* \"crowdfunding/Crowdfunding.sol\":5428:5435  pledges */\n      dup1\n        /* \"crowdfunding/Crowdfunding.sol\":5428:5440  pledges[_id] */\n      0x00\n        /* \"crowdfunding/Crowdfunding.sol\":5436:5439  _id */\n      dup5\n        /* \"crowdfunding/Crowdfunding.sol\":5428:5440  pledges[_id] */\n      dup2\n      mstore\n      0x20\n      add\n      swap1\n      dup2\n      mstore\n      0x20\n      add\n      0x00\n      keccak256\n        /* \"crowdfunding/Crowdfunding.sol\":5428:5452  pledges[_id][msg.sender] */\n      0x00\n        /* \"crowdfunding/Crowdfunding.sol\":5441:5451  msg.sender */\n      caller\n        /* \"crowdfunding/Crowdfunding.sol\":5428:5452  pledges[_id][msg.sender] */\n      0xffffffffffffffffffffffffffffffffffffffff\n      and\n      0xffffffffffffffffffffffffffffffffffffffff\n      and\n      dup2\n      mstore\n      0x20\n      add\n      swap1\n      dup2\n      mstore\n      0x20\n      add\n      0x00\n      keccak256\n      sload\n        /* \"crowdfunding/Crowdfunding.sol\":5407:5452  uint pledgedAmount = pledges[_id][msg.sender] */\n      swap1\n      pop\n        /* \"crowdfunding/Crowdfunding.sol\":5489:5490  0 */\n      0x00\n        /* \"crowdfunding/Crowdfunding.sol\":5462:5469  pledges */\n      dup1\n        /* \"crowdfunding/Crowdfunding.sol\":5462:5474  pledges[_id] */\n      0x00\n        /* \"crowdfunding/Crowdfunding.sol\":5470:5473  _id */\n      dup6\n        /* \"crowdfunding/Crowdfunding.sol\":5462:5474  pledges[_id] */\n      dup2\n      mstore\n      0x20\n      add\n      swap1\n      dup2\n      mstore\n      0x20\n      add\n      0x00\n      keccak256\n        /* \"crowdfunding/Crowdfunding.sol\":5462:5486  pledges[_id][msg.sender] */\n      0x00\n        /* \"crowdfunding/Crowdfunding.sol\":5475:5485  msg.sender */\n      caller\n        /* \"crowdfunding/Crowdfunding.sol\":5462:5486  pledges[_id][msg.sender] */\n      0xffffffffffffffffffffffffffffffffffffffff\n      and\n      0xffffffffffffffffffffffffffffffffffffffff\n      and\n      dup2\n      mstore\n      0x20\n      add\n      swap1\n      dup2\n      mstore\n      0x20\n      add\n      0x00\n      keccak256\n        /* \"crowdfunding/Crowdfunding.sol\":5462:5490  pledges[_id][msg.sender] = 0 */\n      dup2\n      swap1\n      sstore\n      pop\n        /* \"crowdfunding/Crowdfunding.sol\":5573:5578  token */\n      immutable(\"0x939eb54753ed0cc7e2272bfb34cbe098308c93936ed54d79078f76ade0b2e789\")\n        /* \"crowdfunding/Crowdfunding.sol\":5573:5587  token.transfer */\n      0xffffffffffffffffffffffffffffffffffffffff\n      and\n      0xa9059cbb\n        /* \"crowdfunding/Crowdfunding.sol\":5588:5598  msg.sender */\n      caller\n        /* \"crowdfunding/Crowdfunding.sol\":5600:5613  pledgedAmount */\n      dup4\n        /* \"crowdfunding/Crowdfunding.sol\":5573:5614  token.transfer(msg.sender, pledgedAmount) */\n      mload(0x40)\n      dup4\n      0xffffffff\n      and\n      0xe0\n      shl\n      dup2\n      mstore\n      0x04\n      add\n      tag_81\n      swap3\n      swap2\n      swap1\n      tag_82\n      jump\t// in\n    tag_81:\n      0x20\n      mload(0x40)\n      dup1\n      dup4\n      sub\n      dup2\n      0x00\n      dup8\n      gas\n      call\n      iszero\n      dup1\n      iszero\n      tag_84\n      jumpi\n      returndatasize\n      0x00\n      dup1\n      returndatacopy\n      revert(0x00, returndatasize)\n    tag_84:\n      pop\n      pop\n      pop\n      pop\n      mload(0x40)\n      returndatasize\n      not(0x1f)\n      0x1f\n      dup3\n      add\n      and\n      dup3\n      add\n      dup1\n      0x40\n      mstore\n      pop\n      dup2\n      add\n      swap1\n      tag_85\n      swap2\n      swap1\n      tag_86\n      jump\t// in\n    tag_85:\n      pop\n        /* \"crowdfunding/Crowdfunding.sol\":5629:5669  Refunded(_id, msg.sender, pledgedAmount) */\n      0x7ca5472b7ea78c2c0141c5a12ee6d170cf4ce8ed06be3d22c8252ddfc7a6a2c4\n        /* \"crowdfunding/Crowdfunding.sol\":5638:5641  _id */\n      dup4\n        /* \"crowdfunding/Crowdfunding.sol\":5643:5653  msg.sender */\n      caller\n        /* \"crowdfunding/Crowdfunding.sol\":5655:5668  pledgedAmount */\n      dup4\n        /* \"crowdfunding/Crowdfunding.sol\":5629:5669  Refunded(_id, msg.sender, pledgedAmount) */\n      mload(0x40)\n      tag_87\n      swap4\n      swap3\n      swap2\n      swap1\n      tag_88\n      jump\t// in\n    tag_87:\n      mload(0x40)\n      dup1\n      swap2\n      sub\n      swap1\n      log1\n        /* \"crowdfunding/Crowdfunding.sol\":5218:5676  {... */\n      pop\n      pop\n        /* \"crowdfunding/Crowdfunding.sol\":5183:5676  function refund(uint _id) external {... */\n      pop\n      jump\t// out\n        /* \"crowdfunding/Crowdfunding.sol\":797:838  mapping(uint => Company) public companies */\n    tag_30:\n      mstore(0x20, 0x01)\n      dup1\n      0x00\n      mstore\n      keccak256(0x00, 0x40)\n      0x00\n      swap2\n      pop\n      swap1\n      pop\n      dup1\n      0x00\n      add\n      0x00\n      swap1\n      sload\n      swap1\n      0x0100\n      exp\n      swap1\n      div\n      0xffffffffffffffffffffffffffffffffffffffff\n      and\n      swap1\n      dup1\n      0x01\n      add\n      sload\n      swap1\n      dup1\n      0x02\n      add\n      sload\n      swap1\n      dup1\n      0x03\n      add\n      sload\n      swap1\n      dup1\n      0x04\n      add\n      sload\n      swap1\n      dup1\n      0x05\n      add\n      0x00\n      swap1\n      sload\n      swap1\n      0x0100\n      exp\n      swap1\n      div\n      0xff\n      and\n      swap1\n      pop\n      dup7\n      jump\t// out\n        /* \"crowdfunding/Crowdfunding.sol\":4411:5016  function claim(uint _id) external {... */\n    tag_35:\n        /* \"crowdfunding/Crowdfunding.sol\":4455:4478  Company storage company */\n      0x00\n        /* \"crowdfunding/Crowdfunding.sol\":4481:4490  companies */\n      0x01\n        /* \"crowdfunding/Crowdfunding.sol\":4481:4495  companies[_id] */\n      0x00\n        /* \"crowdfunding/Crowdfunding.sol\":4491:4494  _id */\n      dup4\n        /* \"crowdfunding/Crowdfunding.sol\":4481:4495  companies[_id] */\n      dup2\n      mstore\n      0x20\n      add\n      swap1\n      dup2\n      mstore\n      0x20\n      add\n      0x00\n      keccak256\n        /* \"crowdfunding/Crowdfunding.sol\":4455:4495  Company storage company = companies[_id] */\n      swap1\n      pop\n        /* \"crowdfunding/Crowdfunding.sol\":4527:4534  company */\n      dup1\n        /* \"crowdfunding/Crowdfunding.sol\":4527:4540  company.owner */\n      0x00\n      add\n      0x00\n      swap1\n      sload\n      swap1\n      0x0100\n      exp\n      swap1\n      div\n      0xffffffffffffffffffffffffffffffffffffffff\n      and\n        /* \"crowdfunding/Crowdfunding.sol\":4513:4540  msg.sender == company.owner */\n      0xffffffffffffffffffffffffffffffffffffffff\n      and\n        /* \"crowdfunding/Crowdfunding.sol\":4513:4523  msg.sender */\n      caller\n        /* \"crowdfunding/Crowdfunding.sol\":4513:4540  msg.sender == company.owner */\n      0xffffffffffffffffffffffffffffffffffffffff\n      and\n      eq\n        /* \"crowdfunding/Crowdfunding.sol\":4505:4565  require(msg.sender == company.owner, \"not an company owner\") */\n      tag_90\n      jumpi\n      mload(0x40)\n      0x08c379a000000000000000000000000000000000000000000000000000000000\n      dup2\n      mstore\n      0x04\n      add\n      tag_91\n      swap1\n      tag_92\n      jump\t// in\n    tag_91:\n      mload(0x40)\n      dup1\n      swap2\n      sub\n      swap1\n      revert\n    tag_90:\n        /* \"crowdfunding/Crowdfunding.sol\":4601:4608  company */\n      dup1\n        /* \"crowdfunding/Crowdfunding.sol\":4601:4614  company.endAt */\n      0x04\n      add\n      sload\n        /* \"crowdfunding/Crowdfunding.sol\":4583:4598  block.timestamp */\n      timestamp\n        /* \"crowdfunding/Crowdfunding.sol\":4583:4614  block.timestamp > company.endAt */\n      gt\n        /* \"crowdfunding/Crowdfunding.sol\":4575:4628  require(block.timestamp > company.endAt, \"not ended\") */\n      tag_93\n      jumpi\n      mload(0x40)\n      0x08c379a000000000000000000000000000000000000000000000000000000000\n      dup2\n      mstore\n      0x04\n      add\n      tag_94\n      swap1\n      tag_77\n      jump\t// in\n    tag_94:\n      mload(0x40)\n      dup1\n      swap2\n      sub\n      swap1\n      revert\n    tag_93:\n        /* \"crowdfunding/Crowdfunding.sol\":4665:4672  company */\n      dup1\n        /* \"crowdfunding/Crowdfunding.sol\":4665:4677  company.goal */\n      0x01\n      add\n      sload\n        /* \"crowdfunding/Crowdfunding.sol\":4646:4653  company */\n      dup2\n        /* \"crowdfunding/Crowdfunding.sol\":4646:4661  company.pledged */\n      0x02\n      add\n      sload\n        /* \"crowdfunding/Crowdfunding.sol\":4646:4677  company.pledged >= company.goal */\n      lt\n      iszero\n        /* \"crowdfunding/Crowdfunding.sol\":4638:4700  require(company.pledged >= company.goal, \"pledged is too low\") */\n      tag_95\n      jumpi\n      mload(0x40)\n      0x08c379a000000000000000000000000000000000000000000000000000000000\n      dup2\n      mstore\n      0x04\n      add\n      tag_96\n      swap1\n      tag_97\n      jump\t// in\n    tag_96:\n      mload(0x40)\n      dup1\n      swap2\n      sub\n      swap1\n      revert\n    tag_95:\n        /* \"crowdfunding/Crowdfunding.sol\":4719:4726  company */\n      dup1\n        /* \"crowdfunding/Crowdfunding.sol\":4719:4734  company.claimed */\n      0x05\n      add\n      0x00\n      swap1\n      sload\n      swap1\n      0x0100\n      exp\n      swap1\n      div\n      0xff\n      and\n        /* \"crowdfunding/Crowdfunding.sol\":4718:4734  !company.claimed */\n      iszero\n        /* \"crowdfunding/Crowdfunding.sol\":4710:4754  require(!company.claimed, \"already claimed\") */\n      tag_98\n      jumpi\n      mload(0x40)\n      0x08c379a000000000000000000000000000000000000000000000000000000000\n      dup2\n      mstore\n      0x04\n      add\n      tag_99\n      swap1\n      tag_100\n      jump\t// in\n    tag_99:\n      mload(0x40)\n      dup1\n      swap2\n      sub\n      swap1\n      revert\n    tag_98:\n        /* \"crowdfunding/Crowdfunding.sol\":4791:4795  true */\n      0x01\n        /* \"crowdfunding/Crowdfunding.sol\":4773:4780  company */\n      dup2\n        /* \"crowdfunding/Crowdfunding.sol\":4773:4788  company.claimed */\n      0x05\n      add\n      0x00\n        /* \"crowdfunding/Crowdfunding.sol\":4773:4795  company.claimed = true */\n      0x0100\n      exp\n      dup2\n      sload\n      dup2\n      0xff\n      mul\n      not\n      and\n      swap1\n      dup4\n      iszero\n      iszero\n      mul\n      or\n      swap1\n      sstore\n      pop\n        /* \"crowdfunding/Crowdfunding.sol\":4939:4944  token */\n      immutable(\"0x939eb54753ed0cc7e2272bfb34cbe098308c93936ed54d79078f76ade0b2e789\")\n        /* \"crowdfunding/Crowdfunding.sol\":4939:4953  token.transfer */\n      0xffffffffffffffffffffffffffffffffffffffff\n      and\n      0xa9059cbb\n        /* \"crowdfunding/Crowdfunding.sol\":4954:4964  msg.sender */\n      caller\n        /* \"crowdfunding/Crowdfunding.sol\":4966:4973  company */\n      dup4\n        /* \"crowdfunding/Crowdfunding.sol\":4966:4981  company.pledged */\n      0x02\n      add\n      sload\n        /* \"crowdfunding/Crowdfunding.sol\":4939:4982  token.transfer(msg.sender, company.pledged) */\n      mload(0x40)\n      dup4\n      0xffffffff\n      and\n      0xe0\n      shl\n      dup2\n      mstore\n      0x04\n      add\n      tag_101\n      swap3\n      swap2\n      swap1\n      tag_82\n      jump\t// in\n    tag_101:\n      0x20\n      mload(0x40)\n      dup1\n      dup4\n      sub\n      dup2\n      0x00\n      dup8\n      gas\n      call\n      iszero\n      dup1\n      iszero\n      tag_103\n      jumpi\n      returndatasize\n      0x00\n      dup1\n      returndatacopy\n      revert(0x00, returndatasize)\n    tag_103:\n      pop\n      pop\n      pop\n      pop\n      mload(0x40)\n      returndatasize\n      not(0x1f)\n      0x1f\n      dup3\n      add\n      and\n      dup3\n      add\n      dup1\n      0x40\n      mstore\n      pop\n      dup2\n      add\n      swap1\n      tag_104\n      swap2\n      swap1\n      tag_86\n      jump\t// in\n    tag_104:\n      pop\n        /* \"crowdfunding/Crowdfunding.sol\":4997:5009  Claimed(_id) */\n      0x7a355715549cfe7c1cba26304350343fbddc4b4f72d3ce3e7c27117dd20b5cb8\n        /* \"crowdfunding/Crowdfunding.sol\":5005:5008  _id */\n      dup3\n        /* \"crowdfunding/Crowdfunding.sol\":4997:5009  Claimed(_id) */\n      mload(0x40)\n      tag_105\n      swap2\n      swap1\n      tag_50\n      jump\t// in\n    tag_105:\n      mload(0x40)\n      dup1\n      swap2\n      sub\n      swap1\n      log1\n        /* \"crowdfunding/Crowdfunding.sol\":4445:5016  {... */\n      pop\n        /* \"crowdfunding/Crowdfunding.sol\":4411:5016  function claim(uint _id) external {... */\n      pop\n      jump\t// out\n        /* \"crowdfunding/Crowdfunding.sol\":2396:2680  function cancel(uint _id) external {... */\n    tag_38:\n        /* \"crowdfunding/Crowdfunding.sol\":2441:2463  Company memory company */\n      0x00\n        /* \"crowdfunding/Crowdfunding.sol\":2466:2475  companies */\n      0x01\n        /* \"crowdfunding/Crowdfunding.sol\":2466:2480  companies[_id] */\n      0x00\n        /* \"crowdfunding/Crowdfunding.sol\":2476:2479  _id */\n      dup4\n        /* \"crowdfunding/Crowdfunding.sol\":2466:2480  companies[_id] */\n      dup2\n      mstore\n      0x20\n      add\n      swap1\n      dup2\n      mstore\n      0x20\n      add\n      0x00\n      keccak256\n        /* \"crowdfunding/Crowdfunding.sol\":2441:2480  Company memory company = companies[_id] */\n      mload(0x40)\n      dup1\n      0xc0\n      add\n      0x40\n      mstore\n      swap1\n      dup2\n      0x00\n      dup3\n      add\n      0x00\n      swap1\n      sload\n      swap1\n      0x0100\n      exp\n      swap1\n      div\n      0xffffffffffffffffffffffffffffffffffffffff\n      and\n      0xffffffffffffffffffffffffffffffffffffffff\n      and\n      0xffffffffffffffffffffffffffffffffffffffff\n      and\n      dup2\n      mstore\n      0x20\n      add\n      0x01\n      dup3\n      add\n      sload\n      dup2\n      mstore\n      0x20\n      add\n      0x02\n      dup3\n      add\n      sload\n      dup2\n      mstore\n      0x20\n      add\n      0x03\n      dup3\n      add\n      sload\n      dup2\n      mstore\n      0x20\n      add\n      0x04\n      dup3\n      add\n      sload\n      dup2\n      mstore\n      0x20\n      add\n      0x05\n      dup3\n      add\n      0x00\n      swap1\n      sload\n      swap1\n      0x0100\n      exp\n      swap1\n      div\n      0xff\n      and\n      iszero\n      iszero\n      iszero\n      iszero\n      dup2\n      mstore\n      pop\n      pop\n      swap1\n      pop\n        /* \"crowdfunding/Crowdfunding.sol\":2512:2519  company */\n      dup1\n        /* \"crowdfunding/Crowdfunding.sol\":2512:2525  company.owner */\n      0x00\n      add\n      mload\n        /* \"crowdfunding/Crowdfunding.sol\":2498:2525  msg.sender == company.owner */\n      0xffffffffffffffffffffffffffffffffffffffff\n      and\n        /* \"crowdfunding/Crowdfunding.sol\":2498:2508  msg.sender */\n      caller\n        /* \"crowdfunding/Crowdfunding.sol\":2498:2525  msg.sender == company.owner */\n      0xffffffffffffffffffffffffffffffffffffffff\n      and\n      eq\n        /* \"crowdfunding/Crowdfunding.sol\":2490:2542  require(msg.sender == company.owner, \"not an owner\") */\n      tag_107\n      jumpi\n      mload(0x40)\n      0x08c379a000000000000000000000000000000000000000000000000000000000\n      dup2\n      mstore\n      0x04\n      add\n      tag_108\n      swap1\n      tag_109\n      jump\t// in\n    tag_108:\n      mload(0x40)\n      dup1\n      swap2\n      sub\n      swap1\n      revert\n    tag_107:\n        /* \"crowdfunding/Crowdfunding.sol\":2578:2585  company */\n      dup1\n        /* \"crowdfunding/Crowdfunding.sol\":2578:2593  company.startAt */\n      0x60\n      add\n      mload\n        /* \"crowdfunding/Crowdfunding.sol\":2560:2575  block.timestamp */\n      timestamp\n        /* \"crowdfunding/Crowdfunding.sol\":2560:2593  block.timestamp < company.startAt */\n      lt\n        /* \"crowdfunding/Crowdfunding.sol\":2552:2613  require(block.timestamp < company.startAt, \"already started\") */\n      tag_110\n      jumpi\n      mload(0x40)\n      0x08c379a000000000000000000000000000000000000000000000000000000000\n      dup2\n      mstore\n      0x04\n      add\n      tag_111\n      swap1\n      tag_112\n      jump\t// in\n    tag_111:\n      mload(0x40)\n      dup1\n      swap2\n      sub\n      swap1\n      revert\n    tag_110:\n        /* \"crowdfunding/Crowdfunding.sol\":2631:2640  companies */\n      0x01\n        /* \"crowdfunding/Crowdfunding.sol\":2631:2645  companies[_id] */\n      0x00\n        /* \"crowdfunding/Crowdfunding.sol\":2641:2644  _id */\n      dup4\n        /* \"crowdfunding/Crowdfunding.sol\":2631:2645  companies[_id] */\n      dup2\n      mstore\n      0x20\n      add\n      swap1\n      dup2\n      mstore\n      0x20\n      add\n      0x00\n      keccak256\n      0x00\n        /* \"crowdfunding/Crowdfunding.sol\":2624:2645  delete companies[_id] */\n      dup1\n      dup3\n      add\n      exp(0x0100, 0x00)\n      dup2\n      sload\n      swap1\n      0xffffffffffffffffffffffffffffffffffffffff\n      mul\n      not\n      and\n      swap1\n      sstore\n      0x01\n      dup3\n      add\n      0x00\n      swap1\n      sstore\n      0x02\n      dup3\n      add\n      0x00\n      swap1\n      sstore\n      0x03\n      dup3\n      add\n      0x00\n      swap1\n      sstore\n      0x04\n      dup3\n      add\n      0x00\n      swap1\n      sstore\n      0x05\n      dup3\n      add\n      exp(0x0100, 0x00)\n      dup2\n      sload\n      swap1\n      0xff\n      mul\n      not\n      and\n      swap1\n      sstore\n      pop\n      pop\n        /* \"crowdfunding/Crowdfunding.sol\":2660:2673  Canceled(_id) */\n      0x829a8683c544ad289ce92d3ce06e9ebad69b18a6916e60ec766c2c217461d8e9\n        /* \"crowdfunding/Crowdfunding.sol\":2669:2672  _id */\n      dup3\n        /* \"crowdfunding/Crowdfunding.sol\":2660:2673  Canceled(_id) */\n      mload(0x40)\n      tag_113\n      swap2\n      swap1\n      tag_50\n      jump\t// in\n    tag_113:\n      mload(0x40)\n      dup1\n      swap2\n      sub\n      swap1\n      log1\n        /* \"crowdfunding/Crowdfunding.sol\":2431:2680  {... */\n      pop\n        /* \"crowdfunding/Crowdfunding.sol\":2396:2680  function cancel(uint _id) external {... */\n      pop\n      jump\t// out\n        /* \"crowdfunding/Crowdfunding.sol\":3755:4203  function unpledge(uint _id, uint _amount) external {... */\n    tag_42:\n        /* \"crowdfunding/Crowdfunding.sol\":3816:3839  Company storage company */\n      0x00\n        /* \"crowdfunding/Crowdfunding.sol\":3842:3851  companies */\n      0x01\n        /* \"crowdfunding/Crowdfunding.sol\":3842:3856  companies[_id] */\n      0x00\n        /* \"crowdfunding/Crowdfunding.sol\":3852:3855  _id */\n      dup5\n        /* \"crowdfunding/Crowdfunding.sol\":3842:3856  companies[_id] */\n      dup2\n      mstore\n      0x20\n      add\n      swap1\n      dup2\n      mstore\n      0x20\n      add\n      0x00\n      keccak256\n        /* \"crowdfunding/Crowdfunding.sol\":3816:3856  Company storage company = companies[_id] */\n      swap1\n      pop\n        /* \"crowdfunding/Crowdfunding.sol\":3892:3899  company */\n      dup1\n        /* \"crowdfunding/Crowdfunding.sol\":3892:3905  company.endAt */\n      0x04\n      add\n      sload\n        /* \"crowdfunding/Crowdfunding.sol\":3874:3889  block.timestamp */\n      timestamp\n        /* \"crowdfunding/Crowdfunding.sol\":3874:3905  block.timestamp < company.endAt */\n      lt\n        /* \"crowdfunding/Crowdfunding.sol\":3866:3915  require(block.timestamp < company.endAt, \"ended\") */\n      tag_115\n      jumpi\n      mload(0x40)\n      0x08c379a000000000000000000000000000000000000000000000000000000000\n      dup2\n      mstore\n      0x04\n      add\n      tag_116\n      swap1\n      tag_117\n      jump\t// in\n    tag_116:\n      mload(0x40)\n      dup1\n      swap2\n      sub\n      swap1\n      revert\n    tag_115:\n        /* \"crowdfunding/Crowdfunding.sol\":3945:3952  _amount */\n      dup2\n        /* \"crowdfunding/Crowdfunding.sol\":3926:3933  company */\n      dup2\n        /* \"crowdfunding/Crowdfunding.sol\":3926:3941  company.pledged */\n      0x02\n      add\n      0x00\n        /* \"crowdfunding/Crowdfunding.sol\":3926:3952  company.pledged -= _amount */\n      dup3\n      dup3\n      sload\n      tag_118\n      swap2\n      swap1\n      tag_119\n      jump\t// in\n    tag_118:\n      swap3\n      pop\n      pop\n      dup2\n      swap1\n      sstore\n      pop\n        /* \"crowdfunding/Crowdfunding.sol\":3990:3997  _amount */\n      dup2\n        /* \"crowdfunding/Crowdfunding.sol\":3962:3969  pledges */\n      0x00\n        /* \"crowdfunding/Crowdfunding.sol\":3962:3974  pledges[_id] */\n      dup1\n        /* \"crowdfunding/Crowdfunding.sol\":3970:3973  _id */\n      dup6\n        /* \"crowdfunding/Crowdfunding.sol\":3962:3974  pledges[_id] */\n      dup2\n      mstore\n      0x20\n      add\n      swap1\n      dup2\n      mstore\n      0x20\n      add\n      0x00\n      keccak256\n        /* \"crowdfunding/Crowdfunding.sol\":3962:3986  pledges[_id][msg.sender] */\n      0x00\n        /* \"crowdfunding/Crowdfunding.sol\":3975:3985  msg.sender */\n      caller\n        /* \"crowdfunding/Crowdfunding.sol\":3962:3986  pledges[_id][msg.sender] */\n      0xffffffffffffffffffffffffffffffffffffffff\n      and\n      0xffffffffffffffffffffffffffffffffffffffff\n      and\n      dup2\n      mstore\n      0x20\n      add\n      swap1\n      dup2\n      mstore\n      0x20\n      add\n      0x00\n      keccak256\n      0x00\n        /* \"crowdfunding/Crowdfunding.sol\":3962:3997  pledges[_id][msg.sender] -= _amount */\n      dup3\n      dup3\n      sload\n      tag_120\n      swap2\n      swap1\n      tag_119\n      jump\t// in\n    tag_120:\n      swap3\n      pop\n      pop\n      dup2\n      swap1\n      sstore\n      pop\n        /* \"crowdfunding/Crowdfunding.sol\":4111:4116  token */\n      immutable(\"0x939eb54753ed0cc7e2272bfb34cbe098308c93936ed54d79078f76ade0b2e789\")\n        /* \"crowdfunding/Crowdfunding.sol\":4111:4125  token.transfer */\n      0xffffffffffffffffffffffffffffffffffffffff\n      and\n      0xa9059cbb\n        /* \"crowdfunding/Crowdfunding.sol\":4126:4136  msg.sender */\n      caller\n        /* \"crowdfunding/Crowdfunding.sol\":4138:4145  _amount */\n      dup5\n        /* \"crowdfunding/Crowdfunding.sol\":4111:4146  token.transfer(msg.sender, _amount) */\n      mload(0x40)\n      dup4\n      0xffffffff\n      and\n      0xe0\n      shl\n      dup2\n      mstore\n      0x04\n      add\n      tag_121\n      swap3\n      swap2\n      swap1\n      tag_82\n      jump\t// in\n    tag_121:\n      0x20\n      mload(0x40)\n      dup1\n      dup4\n      sub\n      dup2\n      0x00\n      dup8\n      gas\n      call\n      iszero\n      dup1\n      iszero\n      tag_123\n      jumpi\n      returndatasize\n      0x00\n      dup1\n      returndatacopy\n      revert(0x00, returndatasize)\n    tag_123:\n      pop\n      pop\n      pop\n      pop\n      mload(0x40)\n      returndatasize\n      not(0x1f)\n      0x1f\n      dup3\n      add\n      and\n      dup3\n      add\n      dup1\n      0x40\n      mstore\n      pop\n      dup2\n      add\n      swap1\n      tag_124\n      swap2\n      swap1\n      tag_86\n      jump\t// in\n    tag_124:\n      pop\n        /* \"crowdfunding/Crowdfunding.sol\":4161:4196  Unpledged(_id, msg.sender, _amount) */\n      0xfcd29b1632c6748a9a4bb9b4cd5c6486c3c84a8550dce2368f83fef3969d9685\n        /* \"crowdfunding/Crowdfunding.sol\":4171:4174  _id */\n      dup4\n        /* \"crowdfunding/Crowdfunding.sol\":4176:4186  msg.sender */\n      caller\n        /* \"crowdfunding/Crowdfunding.sol\":4188:4195  _amount */\n      dup5\n        /* \"crowdfunding/Crowdfunding.sol\":4161:4196  Unpledged(_id, msg.sender, _amount) */\n      mload(0x40)\n      tag_125\n      swap4\n      swap3\n      swap2\n      swap1\n      tag_88\n      jump\t// in\n    tag_125:\n      mload(0x40)\n      dup1\n      swap2\n      sub\n      swap1\n      log1\n        /* \"crowdfunding/Crowdfunding.sol\":3806:4203  {... */\n      pop\n        /* \"crowdfunding/Crowdfunding.sol\":3755:4203  function unpledge(uint _id, uint _amount) external {... */\n      pop\n      pop\n      jump\t// out\n        /* \"crowdfunding/Crowdfunding.sol\":1614:2281  function launch(uint _goal, uint _startAt, uint _endAt) external {... */\n    tag_46:\n        /* \"crowdfunding/Crowdfunding.sol\":1709:1724  block.timestamp */\n      timestamp\n        /* \"crowdfunding/Crowdfunding.sol\":1697:1705  _startAt */\n      dup3\n        /* \"crowdfunding/Crowdfunding.sol\":1697:1724  _startAt >= block.timestamp */\n      lt\n      iszero\n        /* \"crowdfunding/Crowdfunding.sol\":1689:1747  require(_startAt >= block.timestamp, \"incorrect start at\") */\n      tag_127\n      jumpi\n      mload(0x40)\n      0x08c379a000000000000000000000000000000000000000000000000000000000\n      dup2\n      mstore\n      0x04\n      add\n      tag_128\n      swap1\n      tag_129\n      jump\t// in\n    tag_128:\n      mload(0x40)\n      dup1\n      swap2\n      sub\n      swap1\n      revert\n    tag_127:\n        /* \"crowdfunding/Crowdfunding.sol\":997:999  10 */\n      0x0a\n        /* \"crowdfunding/Crowdfunding.sol\":1775:1783  _startAt */\n      dup3\n        /* \"crowdfunding/Crowdfunding.sol\":1775:1798  _startAt + MIN_DURATION */\n      tag_130\n      swap2\n      swap1\n      tag_72\n      jump\t// in\n    tag_130:\n        /* \"crowdfunding/Crowdfunding.sol\":1765:1771  _endAt */\n      dup2\n        /* \"crowdfunding/Crowdfunding.sol\":1765:1798  _endAt >= _startAt + MIN_DURATION */\n      lt\n      iszero\n        /* \"crowdfunding/Crowdfunding.sol\":1757:1819  require(_endAt >= _startAt + MIN_DURATION, \"incorrect end at\") */\n      tag_131\n      jumpi\n      mload(0x40)\n      0x08c379a000000000000000000000000000000000000000000000000000000000\n      dup2\n      mstore\n      0x04\n      add\n      tag_132\n      swap1\n      tag_133\n      jump\t// in\n    tag_132:\n      mload(0x40)\n      dup1\n      swap2\n      sub\n      swap1\n      revert\n    tag_131:\n        /* \"crowdfunding/Crowdfunding.sol\":947:955  100 days */\n      0x83d600\n        /* \"crowdfunding/Crowdfunding.sol\":1847:1855  _startAt */\n      dup3\n        /* \"crowdfunding/Crowdfunding.sol\":1847:1870  _startAt + MAX_DURATION */\n      tag_134\n      swap2\n      swap1\n      tag_72\n      jump\t// in\n    tag_134:\n        /* \"crowdfunding/Crowdfunding.sol\":1837:1843  _endAt */\n      dup2\n        /* \"crowdfunding/Crowdfunding.sol\":1837:1870  _endAt <= _startAt + MAX_DURATION */\n      gt\n      iszero\n        /* \"crowdfunding/Crowdfunding.sol\":1829:1883  require(_endAt <= _startAt + MAX_DURATION, \"too long\") */\n      tag_135\n      jumpi\n      mload(0x40)\n      0x08c379a000000000000000000000000000000000000000000000000000000000\n      dup2\n      mstore\n      0x04\n      add\n      tag_136\n      swap1\n      tag_137\n      jump\t// in\n    tag_136:\n      mload(0x40)\n      dup1\n      swap2\n      sub\n      swap1\n      revert\n    tag_135:\n        /* \"crowdfunding/Crowdfunding.sol\":1925:2110  Company({... */\n      mload(0x40)\n      dup1\n      0xc0\n      add\n      0x40\n      mstore\n      dup1\n        /* \"crowdfunding/Crowdfunding.sol\":1954:1964  msg.sender */\n      caller\n        /* \"crowdfunding/Crowdfunding.sol\":1925:2110  Company({... */\n      0xffffffffffffffffffffffffffffffffffffffff\n      and\n      dup2\n      mstore\n      0x20\n      add\n        /* \"crowdfunding/Crowdfunding.sol\":1984:1989  _goal */\n      dup5\n        /* \"crowdfunding/Crowdfunding.sol\":1925:2110  Company({... */\n      dup2\n      mstore\n      0x20\n      add\n        /* \"crowdfunding/Crowdfunding.sol\":2012:2013  0 */\n      0x00\n        /* \"crowdfunding/Crowdfunding.sol\":1925:2110  Company({... */\n      dup2\n      mstore\n      0x20\n      add\n        /* \"crowdfunding/Crowdfunding.sol\":2036:2044  _startAt */\n      dup4\n        /* \"crowdfunding/Crowdfunding.sol\":1925:2110  Company({... */\n      dup2\n      mstore\n      0x20\n      add\n        /* \"crowdfunding/Crowdfunding.sol\":2065:2071  _endAt */\n      dup3\n        /* \"crowdfunding/Crowdfunding.sol\":1925:2110  Company({... */\n      dup2\n      mstore\n      0x20\n      add\n        /* \"crowdfunding/Crowdfunding.sol\":2094:2099  false */\n      0x00\n        /* \"crowdfunding/Crowdfunding.sol\":1925:2110  Company({... */\n      iszero\n      iszero\n      dup2\n      mstore\n      pop\n        /* \"crowdfunding/Crowdfunding.sol\":1902:1911  companies */\n      0x01\n        /* \"crowdfunding/Crowdfunding.sol\":1902:1922  companies[currentId] */\n      0x00\n        /* \"crowdfunding/Crowdfunding.sol\":1912:1921  currentId */\n      sload(0x02)\n        /* \"crowdfunding/Crowdfunding.sol\":1902:1922  companies[currentId] */\n      dup2\n      mstore\n      0x20\n      add\n      swap1\n      dup2\n      mstore\n      0x20\n      add\n      0x00\n      keccak256\n        /* \"crowdfunding/Crowdfunding.sol\":1902:2110  companies[currentId] = Company({... */\n      0x00\n      dup3\n      add\n      mload\n      dup2\n      0x00\n      add\n      exp(0x0100, 0x00)\n      dup2\n      sload\n      dup2\n      0xffffffffffffffffffffffffffffffffffffffff\n      mul\n      not\n      and\n      swap1\n      dup4\n      0xffffffffffffffffffffffffffffffffffffffff\n      and\n      mul\n      or\n      swap1\n      sstore\n      pop\n      0x20\n      dup3\n      add\n      mload\n      dup2\n      0x01\n      add\n      sstore\n      0x40\n      dup3\n      add\n      mload\n      dup2\n      0x02\n      add\n      sstore\n      0x60\n      dup3\n      add\n      mload\n      dup2\n      0x03\n      add\n      sstore\n      0x80\n      dup3\n      add\n      mload\n      dup2\n      0x04\n      add\n      sstore\n      0xa0\n      dup3\n      add\n      mload\n      dup2\n      0x05\n      add\n      exp(0x0100, 0x00)\n      dup2\n      sload\n      dup2\n      0xff\n      mul\n      not\n      and\n      swap1\n      dup4\n      iszero\n      iszero\n      mul\n      or\n      swap1\n      sstore\n      pop\n      swap1\n      pop\n      pop\n        /* \"crowdfunding/Crowdfunding.sol\":2126:2252  Launched(... */\n      0xea7dc5be41326789a621aaa33d671281d0a54aa87610751def19f8544c2004c3\n        /* \"crowdfunding/Crowdfunding.sol\":2148:2157  currentId */\n      sload(0x02)\n        /* \"crowdfunding/Crowdfunding.sol\":2171:2181  msg.sender */\n      caller\n        /* \"crowdfunding/Crowdfunding.sol\":2195:2200  _goal */\n      dup6\n        /* \"crowdfunding/Crowdfunding.sol\":2214:2222  _startAt */\n      dup6\n        /* \"crowdfunding/Crowdfunding.sol\":2236:2242  _endAt */\n      dup6\n        /* \"crowdfunding/Crowdfunding.sol\":2126:2252  Launched(... */\n      mload(0x40)\n      tag_138\n      swap6\n      swap5\n      swap4\n      swap3\n      swap2\n      swap1\n      tag_139\n      jump\t// in\n    tag_138:\n      mload(0x40)\n      dup1\n      swap2\n      sub\n      swap1\n      log1\n        /* \"crowdfunding/Crowdfunding.sol\":2263:2272  currentId */\n      0x02\n      0x00\n        /* \"crowdfunding/Crowdfunding.sol\":2263:2274  currentId++ */\n      dup2\n      sload\n      dup1\n      swap3\n      swap2\n      swap1\n      tag_140\n      swap1\n      tag_141\n      jump\t// in\n    tag_140:\n      swap2\n      swap1\n      pop\n      sstore\n      pop\n        /* \"crowdfunding/Crowdfunding.sol\":1614:2281  function launch(uint _goal, uint _startAt, uint _endAt) external {... */\n      pop\n      pop\n      pop\n      jump\t// out\n        /* \"crowdfunding/Crowdfunding.sol\":911:955  uint public constant MAX_DURATION = 100 days */\n    tag_48:\n        /* \"crowdfunding/Crowdfunding.sol\":947:955  100 days */\n      0x83d600\n        /* \"crowdfunding/Crowdfunding.sol\":911:955  uint public constant MAX_DURATION = 100 days */\n      dup2\n      jump\t// out\n        /* \"crowdfunding/Crowdfunding.sol\":961:999  uint public constant MIN_DURATION = 10 */\n    tag_52:\n        /* \"crowdfunding/Crowdfunding.sol\":997:999  10 */\n      0x0a\n        /* \"crowdfunding/Crowdfunding.sol\":961:999  uint public constant MIN_DURATION = 10 */\n      dup2\n      jump\t// out\n        /* \"crowdfunding/Crowdfunding.sol\":6555:6697  function endCompany(uint256 _id) public {... */\n    tag_56:\n        /* \"crowdfunding/Crowdfunding.sol\":6605:6628  Company storage company */\n      0x00\n        /* \"crowdfunding/Crowdfunding.sol\":6631:6640  companies */\n      0x01\n        /* \"crowdfunding/Crowdfunding.sol\":6631:6645  companies[_id] */\n      0x00\n        /* \"crowdfunding/Crowdfunding.sol\":6641:6644  _id */\n      dup4\n        /* \"crowdfunding/Crowdfunding.sol\":6631:6645  companies[_id] */\n      dup2\n      mstore\n      0x20\n      add\n      swap1\n      dup2\n      mstore\n      0x20\n      add\n      0x00\n      keccak256\n        /* \"crowdfunding/Crowdfunding.sol\":6605:6645  Company storage company = companies[_id] */\n      swap1\n      pop\n        /* \"crowdfunding/Crowdfunding.sol\":6689:6690  5 */\n      0x05\n        /* \"crowdfunding/Crowdfunding.sol\":6671:6686  block.timestamp */\n      timestamp\n        /* \"crowdfunding/Crowdfunding.sol\":6671:6690  block.timestamp - 5 */\n      tag_143\n      swap2\n      swap1\n      tag_119\n      jump\t// in\n    tag_143:\n        /* \"crowdfunding/Crowdfunding.sol\":6655:6662  company */\n      dup2\n        /* \"crowdfunding/Crowdfunding.sol\":6655:6668  company.endAt */\n      0x04\n      add\n        /* \"crowdfunding/Crowdfunding.sol\":6655:6690  company.endAt = block.timestamp - 5 */\n      dup2\n      swap1\n      sstore\n      pop\n        /* \"crowdfunding/Crowdfunding.sol\":6595:6697  {... */\n      pop\n        /* \"crowdfunding/Crowdfunding.sol\":6555:6697  function endCompany(uint256 _id) public {... */\n      pop\n      jump\t// out\n        /* \"crowdfunding/Crowdfunding.sol\":883:904  uint public currentId */\n    tag_58:\n      sload(0x02)\n      dup2\n      jump\t// out\n        /* \"crowdfunding/Crowdfunding.sol\":6106:6272  function getLongTestTime() public view returns (uint256, uint256) {... */\n    tag_61:\n        /* \"crowdfunding/Crowdfunding.sol\":6154:6161  uint256 */\n      0x00\n        /* \"crowdfunding/Crowdfunding.sol\":6163:6170  uint256 */\n      dup1\n        /* \"crowdfunding/Crowdfunding.sol\":6182:6197  uint256 current */\n      0x00\n        /* \"crowdfunding/Crowdfunding.sol\":6200:6215  block.timestamp */\n      timestamp\n        /* \"crowdfunding/Crowdfunding.sol\":6182:6215  uint256 current = block.timestamp */\n      swap1\n      pop\n        /* \"crowdfunding/Crowdfunding.sol\":6243:6245  20 */\n      0x14\n        /* \"crowdfunding/Crowdfunding.sol\":6233:6240  current */\n      dup2\n        /* \"crowdfunding/Crowdfunding.sol\":6233:6245  current + 20 */\n      tag_145\n      swap2\n      swap1\n      tag_72\n      jump\t// in\n    tag_145:\n        /* \"crowdfunding/Crowdfunding.sol\":6257:6264  90 days */\n      0x76a700\n        /* \"crowdfunding/Crowdfunding.sol\":6247:6254  current */\n      dup3\n        /* \"crowdfunding/Crowdfunding.sol\":6247:6264  current + 90 days */\n      tag_146\n      swap2\n      swap1\n      tag_72\n      jump\t// in\n    tag_146:\n        /* \"crowdfunding/Crowdfunding.sol\":6225:6265  return (current + 20, current + 90 days) */\n      swap3\n      pop\n      swap3\n      pop\n      pop\n        /* \"crowdfunding/Crowdfunding.sol\":6106:6272  function getLongTestTime() public view returns (uint256, uint256) {... */\n      swap1\n      swap2\n      jump\t// out\n        /* \"crowdfunding/Crowdfunding.sol\":635:664  IERC20 public immutable token */\n    tag_64:\n      immutable(\"0x939eb54753ed0cc7e2272bfb34cbe098308c93936ed54d79078f76ade0b2e789\")\n      dup2\n      jump\t// out\n        /* \"crowdfunding/Crowdfunding.sol\":2988:3503  function pledge(uint _id, uint _amount) external {... */\n    tag_69:\n        /* \"crowdfunding/Crowdfunding.sol\":3047:3070  Company storage company */\n      0x00\n        /* \"crowdfunding/Crowdfunding.sol\":3073:3082  companies */\n      0x01\n        /* \"crowdfunding/Crowdfunding.sol\":3073:3087  companies[_id] */\n      0x00\n        /* \"crowdfunding/Crowdfunding.sol\":3083:3086  _id */\n      dup5\n        /* \"crowdfunding/Crowdfunding.sol\":3073:3087  companies[_id] */\n      dup2\n      mstore\n      0x20\n      add\n      swap1\n      dup2\n      mstore\n      0x20\n      add\n      0x00\n      keccak256\n        /* \"crowdfunding/Crowdfunding.sol\":3047:3087  Company storage company = companies[_id] */\n      swap1\n      pop\n        /* \"crowdfunding/Crowdfunding.sol\":3124:3131  company */\n      dup1\n        /* \"crowdfunding/Crowdfunding.sol\":3124:3139  company.startAt */\n      0x03\n      add\n      sload\n        /* \"crowdfunding/Crowdfunding.sol\":3105:3120  block.timestamp */\n      timestamp\n        /* \"crowdfunding/Crowdfunding.sol\":3105:3139  block.timestamp >= company.startAt */\n      lt\n      iszero\n        /* \"crowdfunding/Crowdfunding.sol\":3097:3155  require(block.timestamp >= company.startAt, \"not started\") */\n      tag_148\n      jumpi\n      mload(0x40)\n      0x08c379a000000000000000000000000000000000000000000000000000000000\n      dup2\n      mstore\n      0x04\n      add\n      tag_149\n      swap1\n      tag_150\n      jump\t// in\n    tag_149:\n      mload(0x40)\n      dup1\n      swap2\n      sub\n      swap1\n      revert\n    tag_148:\n        /* \"crowdfunding/Crowdfunding.sol\":3191:3198  company */\n      dup1\n        /* \"crowdfunding/Crowdfunding.sol\":3191:3204  company.endAt */\n      0x04\n      add\n      sload\n        /* \"crowdfunding/Crowdfunding.sol\":3173:3188  block.timestamp */\n      timestamp\n        /* \"crowdfunding/Crowdfunding.sol\":3173:3204  block.timestamp < company.endAt */\n      lt\n        /* \"crowdfunding/Crowdfunding.sol\":3165:3214  require(block.timestamp < company.endAt, \"ended\") */\n      tag_151\n      jumpi\n      mload(0x40)\n      0x08c379a000000000000000000000000000000000000000000000000000000000\n      dup2\n      mstore\n      0x04\n      add\n      tag_152\n      swap1\n      tag_117\n      jump\t// in\n    tag_152:\n      mload(0x40)\n      dup1\n      swap2\n      sub\n      swap1\n      revert\n    tag_151:\n        /* \"crowdfunding/Crowdfunding.sol\":3244:3251  _amount */\n      dup2\n        /* \"crowdfunding/Crowdfunding.sol\":3225:3232  company */\n      dup2\n        /* \"crowdfunding/Crowdfunding.sol\":3225:3240  company.pledged */\n      0x02\n      add\n      0x00\n        /* \"crowdfunding/Crowdfunding.sol\":3225:3251  company.pledged += _amount */\n      dup3\n      dup3\n      sload\n      tag_153\n      swap2\n      swap1\n      tag_72\n      jump\t// in\n    tag_153:\n      swap3\n      pop\n      pop\n      dup2\n      swap1\n      sstore\n      pop\n        /* \"crowdfunding/Crowdfunding.sol\":3290:3297  _amount */\n      dup2\n        /* \"crowdfunding/Crowdfunding.sol\":3261:3268  pledges */\n      0x00\n        /* \"crowdfunding/Crowdfunding.sol\":3261:3273  pledges[_id] */\n      dup1\n        /* \"crowdfunding/Crowdfunding.sol\":3269:3272  _id */\n      dup6\n        /* \"crowdfunding/Crowdfunding.sol\":3261:3273  pledges[_id] */\n      dup2\n      mstore\n      0x20\n      add\n      swap1\n      dup2\n      mstore\n      0x20\n      add\n      0x00\n      keccak256\n        /* \"crowdfunding/Crowdfunding.sol\":3261:3285  pledges[_id][msg.sender] */\n      0x00\n        /* \"crowdfunding/Crowdfunding.sol\":3274:3284  msg.sender */\n      caller\n        /* \"crowdfunding/Crowdfunding.sol\":3261:3285  pledges[_id][msg.sender] */\n      0xffffffffffffffffffffffffffffffffffffffff\n      and\n      0xffffffffffffffffffffffffffffffffffffffff\n      and\n      dup2\n      mstore\n      0x20\n      add\n      swap1\n      dup2\n      mstore\n      0x20\n      add\n      0x00\n      keccak256\n      0x00\n        /* \"crowdfunding/Crowdfunding.sol\":3261:3297  pledges[_id][msg.sender]  += _amount */\n      dup3\n      dup3\n      sload\n      tag_154\n      swap2\n      swap1\n      tag_72\n      jump\t// in\n    tag_154:\n      swap3\n      pop\n      pop\n      dup2\n      swap1\n      sstore\n      pop\n        /* \"crowdfunding/Crowdfunding.sol\":3394:3399  token */\n      immutable(\"0x939eb54753ed0cc7e2272bfb34cbe098308c93936ed54d79078f76ade0b2e789\")\n        /* \"crowdfunding/Crowdfunding.sol\":3394:3412  token.transferFrom */\n      0xffffffffffffffffffffffffffffffffffffffff\n      and\n      0x23b872dd\n        /* \"crowdfunding/Crowdfunding.sol\":3413:3423  msg.sender */\n      caller\n        /* \"crowdfunding/Crowdfunding.sol\":3433:3437  this */\n      address\n        /* \"crowdfunding/Crowdfunding.sol\":3440:3447  _amount */\n      dup6\n        /* \"crowdfunding/Crowdfunding.sol\":3394:3448  token.transferFrom(msg.sender, address(this), _amount) */\n      mload(0x40)\n      dup5\n      0xffffffff\n      and\n      0xe0\n      shl\n      dup2\n      mstore\n      0x04\n      add\n      tag_155\n      swap4\n      swap3\n      swap2\n      swap1\n      tag_156\n      jump\t// in\n    tag_155:\n      0x20\n      mload(0x40)\n      dup1\n      dup4\n      sub\n      dup2\n      0x00\n      dup8\n      gas\n      call\n      iszero\n      dup1\n      iszero\n      tag_158\n      jumpi\n      returndatasize\n      0x00\n      dup1\n      returndatacopy\n      revert(0x00, returndatasize)\n    tag_158:\n      pop\n      pop\n      pop\n      pop\n      mload(0x40)\n      returndatasize\n      not(0x1f)\n      0x1f\n      dup3\n      add\n      and\n      dup3\n      add\n      dup1\n      0x40\n      mstore\n      pop\n      dup2\n      add\n      swap1\n      tag_159\n      swap2\n      swap1\n      tag_86\n      jump\t// in\n    tag_159:\n      pop\n        /* \"crowdfunding/Crowdfunding.sol\":3463:3496  Pledged(_id, msg.sender, _amount) */\n      0x2757ac6a40883f4491cc56930ae964df9034e343e660d5179eb01e198336756b\n        /* \"crowdfunding/Crowdfunding.sol\":3471:3474  _id */\n      dup4\n        /* \"crowdfunding/Crowdfunding.sol\":3476:3486  msg.sender */\n      caller\n        /* \"crowdfunding/Crowdfunding.sol\":3488:3495  _amount */\n      dup5\n        /* \"crowdfunding/Crowdfunding.sol\":3463:3496  Pledged(_id, msg.sender, _amount) */\n      mload(0x40)\n      tag_160\n      swap4\n      swap3\n      swap2\n      swap1\n      tag_88\n      jump\t// in\n    tag_160:\n      mload(0x40)\n      dup1\n      swap2\n      sub\n      swap1\n      log1\n        /* \"crowdfunding/Crowdfunding.sol\":3037:3503  {... */\n      pop\n        /* \"crowdfunding/Crowdfunding.sol\":2988:3503  function pledge(uint _id, uint _amount) external {... */\n      pop\n      pop\n      jump\t// out\n        /* \"#utility.yul\":7:84   */\n    tag_161:\n        /* \"#utility.yul\":44:51   */\n      0x00\n        /* \"#utility.yul\":73:78   */\n      dup2\n        /* \"#utility.yul\":62:78   */\n      swap1\n      pop\n        /* \"#utility.yul\":7:84   */\n      swap2\n      swap1\n      pop\n      jump\t// out\n        /* \"#utility.yul\":90:208   */\n    tag_162:\n        /* \"#utility.yul\":177:201   */\n      tag_209\n        /* \"#utility.yul\":195:200   */\n      dup2\n        /* \"#utility.yul\":177:201   */\n      tag_161\n      jump\t// in\n    tag_209:\n        /* \"#utility.yul\":172:175   */\n      dup3\n        /* \"#utility.yul\":165:202   */\n      mstore\n        /* \"#utility.yul\":90:208   */\n      pop\n      pop\n      jump\t// out\n        /* \"#utility.yul\":214:546   */\n    tag_23:\n        /* \"#utility.yul\":335:339   */\n      0x00\n        /* \"#utility.yul\":373:375   */\n      0x40\n        /* \"#utility.yul\":362:371   */\n      dup3\n        /* \"#utility.yul\":358:376   */\n      add\n        /* \"#utility.yul\":350:376   */\n      swap1\n      pop\n        /* \"#utility.yul\":386:457   */\n      tag_211\n        /* \"#utility.yul\":454:455   */\n      0x00\n        /* \"#utility.yul\":443:452   */\n      dup4\n        /* \"#utility.yul\":439:456   */\n      add\n        /* \"#utility.yul\":430:436   */\n      dup6\n        /* \"#utility.yul\":386:457   */\n      tag_162\n      jump\t// in\n    tag_211:\n        /* \"#utility.yul\":467:539   */\n      tag_212\n        /* \"#utility.yul\":535:537   */\n      0x20\n        /* \"#utility.yul\":524:533   */\n      dup4\n        /* \"#utility.yul\":520:538   */\n      add\n        /* \"#utility.yul\":511:517   */\n      dup5\n        /* \"#utility.yul\":467:539   */\n      tag_162\n      jump\t// in\n    tag_212:\n        /* \"#utility.yul\":214:546   */\n      swap4\n      swap3\n      pop\n      pop\n      pop\n      jump\t// out\n        /* \"#utility.yul\":633:750   */\n    tag_164:\n        /* \"#utility.yul\":742:743   */\n      0x00\n        /* \"#utility.yul\":739:740   */\n      dup1\n        /* \"#utility.yul\":732:744   */\n      revert\n        /* \"#utility.yul\":879:1001   */\n    tag_166:\n        /* \"#utility.yul\":952:976   */\n      tag_217\n        /* \"#utility.yul\":970:975   */\n      dup2\n        /* \"#utility.yul\":952:976   */\n      tag_161\n      jump\t// in\n    tag_217:\n        /* \"#utility.yul\":945:950   */\n      dup2\n        /* \"#utility.yul\":942:977   */\n      eq\n        /* \"#utility.yul\":932:995   */\n      tag_218\n      jumpi\n        /* \"#utility.yul\":991:992   */\n      0x00\n        /* \"#utility.yul\":988:989   */\n      dup1\n        /* \"#utility.yul\":981:993   */\n      revert\n        /* \"#utility.yul\":932:995   */\n    tag_218:\n        /* \"#utility.yul\":879:1001   */\n      pop\n      jump\t// out\n        /* \"#utility.yul\":1007:1146   */\n    tag_167:\n        /* \"#utility.yul\":1053:1058   */\n      0x00\n        /* \"#utility.yul\":1091:1097   */\n      dup2\n        /* \"#utility.yul\":1078:1098   */\n      calldataload\n        /* \"#utility.yul\":1069:1098   */\n      swap1\n      pop\n        /* \"#utility.yul\":1107:1140   */\n      tag_220\n        /* \"#utility.yul\":1134:1139   */\n      dup2\n        /* \"#utility.yul\":1107:1140   */\n      tag_166\n      jump\t// in\n    tag_220:\n        /* \"#utility.yul\":1007:1146   */\n      swap3\n      swap2\n      pop\n      pop\n      jump\t// out\n        /* \"#utility.yul\":1152:1481   */\n    tag_26:\n        /* \"#utility.yul\":1211:1217   */\n      0x00\n        /* \"#utility.yul\":1260:1262   */\n      0x20\n        /* \"#utility.yul\":1248:1257   */\n      dup3\n        /* \"#utility.yul\":1239:1246   */\n      dup5\n        /* \"#utility.yul\":1235:1258   */\n      sub\n        /* \"#utility.yul\":1231:1263   */\n      slt\n        /* \"#utility.yul\":1228:1347   */\n      iszero\n      tag_222\n      jumpi\n        /* \"#utility.yul\":1266:1345   */\n      tag_223\n      tag_164\n      jump\t// in\n    tag_223:\n        /* \"#utility.yul\":1228:1347   */\n    tag_222:\n        /* \"#utility.yul\":1386:1387   */\n      0x00\n        /* \"#utility.yul\":1411:1464   */\n      tag_224\n        /* \"#utility.yul\":1456:1463   */\n      dup5\n        /* \"#utility.yul\":1447:1453   */\n      dup3\n        /* \"#utility.yul\":1436:1445   */\n      dup6\n        /* \"#utility.yul\":1432:1454   */\n      add\n        /* \"#utility.yul\":1411:1464   */\n      tag_167\n      jump\t// in\n    tag_224:\n        /* \"#utility.yul\":1401:1464   */\n      swap2\n      pop\n        /* \"#utility.yul\":1357:1474   */\n      pop\n        /* \"#utility.yul\":1152:1481   */\n      swap3\n      swap2\n      pop\n      pop\n      jump\t// out\n        /* \"#utility.yul\":1487:1613   */\n    tag_168:\n        /* \"#utility.yul\":1524:1531   */\n      0x00\n        /* \"#utility.yul\":1564:1606   */\n      0xffffffffffffffffffffffffffffffffffffffff\n        /* \"#utility.yul\":1557:1562   */\n      dup3\n        /* \"#utility.yul\":1553:1607   */\n      and\n        /* \"#utility.yul\":1542:1607   */\n      swap1\n      pop\n        /* \"#utility.yul\":1487:1613   */\n      swap2\n      swap1\n      pop\n      jump\t// out\n        /* \"#utility.yul\":1619:1715   */\n    tag_169:\n        /* \"#utility.yul\":1656:1663   */\n      0x00\n        /* \"#utility.yul\":1685:1709   */\n      tag_227\n        /* \"#utility.yul\":1703:1708   */\n      dup3\n        /* \"#utility.yul\":1685:1709   */\n      tag_168\n      jump\t// in\n    tag_227:\n        /* \"#utility.yul\":1674:1709   */\n      swap1\n      pop\n        /* \"#utility.yul\":1619:1715   */\n      swap2\n      swap1\n      pop\n      jump\t// out\n        /* \"#utility.yul\":1721:1839   */\n    tag_170:\n        /* \"#utility.yul\":1808:1832   */\n      tag_229\n        /* \"#utility.yul\":1826:1831   */\n      dup2\n        /* \"#utility.yul\":1808:1832   */\n      tag_169\n      jump\t// in\n    tag_229:\n        /* \"#utility.yul\":1803:1806   */\n      dup3\n        /* \"#utility.yul\":1796:1833   */\n      mstore\n        /* \"#utility.yul\":1721:1839   */\n      pop\n      pop\n      jump\t// out\n        /* \"#utility.yul\":1845:1935   */\n    tag_171:\n        /* \"#utility.yul\":1879:1886   */\n      0x00\n        /* \"#utility.yul\":1922:1927   */\n      dup2\n        /* \"#utility.yul\":1915:1928   */\n      iszero\n        /* \"#utility.yul\":1908:1929   */\n      iszero\n        /* \"#utility.yul\":1897:1929   */\n      swap1\n      pop\n        /* \"#utility.yul\":1845:1935   */\n      swap2\n      swap1\n      pop\n      jump\t// out\n        /* \"#utility.yul\":1941:2050   */\n    tag_172:\n        /* \"#utility.yul\":2022:2043   */\n      tag_232\n        /* \"#utility.yul\":2037:2042   */\n      dup2\n        /* \"#utility.yul\":2022:2043   */\n      tag_171\n      jump\t// in\n    tag_232:\n        /* \"#utility.yul\":2017:2020   */\n      dup3\n        /* \"#utility.yul\":2010:2044   */\n      mstore\n        /* \"#utility.yul\":1941:2050   */\n      pop\n      pop\n      jump\t// out\n        /* \"#utility.yul\":2056:2819   */\n    tag_32:\n        /* \"#utility.yul\":2283:2287   */\n      0x00\n        /* \"#utility.yul\":2321:2324   */\n      0xc0\n        /* \"#utility.yul\":2310:2319   */\n      dup3\n        /* \"#utility.yul\":2306:2325   */\n      add\n        /* \"#utility.yul\":2298:2325   */\n      swap1\n      pop\n        /* \"#utility.yul\":2335:2406   */\n      tag_234\n        /* \"#utility.yul\":2403:2404   */\n      0x00\n        /* \"#utility.yul\":2392:2401   */\n      dup4\n        /* \"#utility.yul\":2388:2405   */\n      add\n        /* \"#utility.yul\":2379:2385   */\n      dup10\n        /* \"#utility.yul\":2335:2406   */\n      tag_170\n      jump\t// in\n    tag_234:\n        /* \"#utility.yul\":2416:2488   */\n      tag_235\n        /* \"#utility.yul\":2484:2486   */\n      0x20\n        /* \"#utility.yul\":2473:2482   */\n      dup4\n        /* \"#utility.yul\":2469:2487   */\n      add\n        /* \"#utility.yul\":2460:2466   */\n      dup9\n        /* \"#utility.yul\":2416:2488   */\n      tag_162\n      jump\t// in\n    tag_235:\n        /* \"#utility.yul\":2498:2570   */\n      tag_236\n        /* \"#utility.yul\":2566:2568   */\n      0x40\n        /* \"#utility.yul\":2555:2564   */\n      dup4\n        /* \"#utility.yul\":2551:2569   */\n      add\n        /* \"#utility.yul\":2542:2548   */\n      dup8\n        /* \"#utility.yul\":2498:2570   */\n      tag_162\n      jump\t// in\n    tag_236:\n        /* \"#utility.yul\":2580:2652   */\n      tag_237\n        /* \"#utility.yul\":2648:2650   */\n      0x60\n        /* \"#utility.yul\":2637:2646   */\n      dup4\n        /* \"#utility.yul\":2633:2651   */\n      add\n        /* \"#utility.yul\":2624:2630   */\n      dup7\n        /* \"#utility.yul\":2580:2652   */\n      tag_162\n      jump\t// in\n    tag_237:\n        /* \"#utility.yul\":2662:2735   */\n      tag_238\n        /* \"#utility.yul\":2730:2733   */\n      0x80\n        /* \"#utility.yul\":2719:2728   */\n      dup4\n        /* \"#utility.yul\":2715:2734   */\n      add\n        /* \"#utility.yul\":2706:2712   */\n      dup6\n        /* \"#utility.yul\":2662:2735   */\n      tag_162\n      jump\t// in\n    tag_238:\n        /* \"#utility.yul\":2745:2812   */\n      tag_239\n        /* \"#utility.yul\":2807:2810   */\n      0xa0\n        /* \"#utility.yul\":2796:2805   */\n      dup4\n        /* \"#utility.yul\":2792:2811   */\n      add\n        /* \"#utility.yul\":2783:2789   */\n      dup5\n        /* \"#utility.yul\":2745:2812   */\n      tag_172\n      jump\t// in\n    tag_239:\n        /* \"#utility.yul\":2056:2819   */\n      swap8\n      swap7\n      pop\n      pop\n      pop\n      pop\n      pop\n      pop\n      pop\n      jump\t// out\n        /* \"#utility.yul\":2825:3299   */\n    tag_41:\n        /* \"#utility.yul\":2893:2899   */\n      0x00\n        /* \"#utility.yul\":2901:2907   */\n      dup1\n        /* \"#utility.yul\":2950:2952   */\n      0x40\n        /* \"#utility.yul\":2938:2947   */\n      dup4\n        /* \"#utility.yul\":2929:2936   */\n      dup6\n        /* \"#utility.yul\":2925:2948   */\n      sub\n        /* \"#utility.yul\":2921:2953   */\n      slt\n        /* \"#utility.yul\":2918:3037   */\n      iszero\n      tag_241\n      jumpi\n        /* \"#utility.yul\":2956:3035   */\n      tag_242\n      tag_164\n      jump\t// in\n    tag_242:\n        /* \"#utility.yul\":2918:3037   */\n    tag_241:\n        /* \"#utility.yul\":3076:3077   */\n      0x00\n        /* \"#utility.yul\":3101:3154   */\n      tag_243\n        /* \"#utility.yul\":3146:3153   */\n      dup6\n        /* \"#utility.yul\":3137:3143   */\n      dup3\n        /* \"#utility.yul\":3126:3135   */\n      dup7\n        /* \"#utility.yul\":3122:3144   */\n      add\n        /* \"#utility.yul\":3101:3154   */\n      tag_167\n      jump\t// in\n    tag_243:\n        /* \"#utility.yul\":3091:3154   */\n      swap3\n      pop\n        /* \"#utility.yul\":3047:3164   */\n      pop\n        /* \"#utility.yul\":3203:3205   */\n      0x20\n        /* \"#utility.yul\":3229:3282   */\n      tag_244\n        /* \"#utility.yul\":3274:3281   */\n      dup6\n        /* \"#utility.yul\":3265:3271   */\n      dup3\n        /* \"#utility.yul\":3254:3263   */\n      dup7\n        /* \"#utility.yul\":3250:3272   */\n      add\n        /* \"#utility.yul\":3229:3282   */\n      tag_167\n      jump\t// in\n    tag_244:\n        /* \"#utility.yul\":3219:3282   */\n      swap2\n      pop\n        /* \"#utility.yul\":3174:3292   */\n      pop\n        /* \"#utility.yul\":2825:3299   */\n      swap3\n      pop\n      swap3\n      swap1\n      pop\n      jump\t// out\n        /* \"#utility.yul\":3305:3924   */\n    tag_45:\n        /* \"#utility.yul\":3382:3388   */\n      0x00\n        /* \"#utility.yul\":3390:3396   */\n      dup1\n        /* \"#utility.yul\":3398:3404   */\n      0x00\n        /* \"#utility.yul\":3447:3449   */\n      0x60\n        /* \"#utility.yul\":3435:3444   */\n      dup5\n        /* \"#utility.yul\":3426:3433   */\n      dup7\n        /* \"#utility.yul\":3422:3445   */\n      sub\n        /* \"#utility.yul\":3418:3450   */\n      slt\n        /* \"#utility.yul\":3415:3534   */\n      iszero\n      tag_246\n      jumpi\n        /* \"#utility.yul\":3453:3532   */\n      tag_247\n      tag_164\n      jump\t// in\n    tag_247:\n        /* \"#utility.yul\":3415:3534   */\n    tag_246:\n        /* \"#utility.yul\":3573:3574   */\n      0x00\n        /* \"#utility.yul\":3598:3651   */\n      tag_248\n        /* \"#utility.yul\":3643:3650   */\n      dup7\n        /* \"#utility.yul\":3634:3640   */\n      dup3\n        /* \"#utility.yul\":3623:3632   */\n      dup8\n        /* \"#utility.yul\":3619:3641   */\n      add\n        /* \"#utility.yul\":3598:3651   */\n      tag_167\n      jump\t// in\n    tag_248:\n        /* \"#utility.yul\":3588:3651   */\n      swap4\n      pop\n        /* \"#utility.yul\":3544:3661   */\n      pop\n        /* \"#utility.yul\":3700:3702   */\n      0x20\n        /* \"#utility.yul\":3726:3779   */\n      tag_249\n        /* \"#utility.yul\":3771:3778   */\n      dup7\n        /* \"#utility.yul\":3762:3768   */\n      dup3\n        /* \"#utility.yul\":3751:3760   */\n      dup8\n        /* \"#utility.yul\":3747:3769   */\n      add\n        /* \"#utility.yul\":3726:3779   */\n      tag_167\n      jump\t// in\n    tag_249:\n        /* \"#utility.yul\":3716:3779   */\n      swap3\n      pop\n        /* \"#utility.yul\":3671:3789   */\n      pop\n        /* \"#utility.yul\":3828:3830   */\n      0x40\n        /* \"#utility.yul\":3854:3907   */\n      tag_250\n        /* \"#utility.yul\":3899:3906   */\n      dup7\n        /* \"#utility.yul\":3890:3896   */\n      dup3\n        /* \"#utility.yul\":3879:3888   */\n      dup8\n        /* \"#utility.yul\":3875:3897   */\n      add\n        /* \"#utility.yul\":3854:3907   */\n      tag_167\n      jump\t// in\n    tag_250:\n        /* \"#utility.yul\":3844:3907   */\n      swap2\n      pop\n        /* \"#utility.yul\":3799:3917   */\n      pop\n        /* \"#utility.yul\":3305:3924   */\n      swap3\n      pop\n      swap3\n      pop\n      swap3\n      jump\t// out\n        /* \"#utility.yul\":3930:4152   */\n    tag_50:\n        /* \"#utility.yul\":4023:4027   */\n      0x00\n        /* \"#utility.yul\":4061:4063   */\n      0x20\n        /* \"#utility.yul\":4050:4059   */\n      dup3\n        /* \"#utility.yul\":4046:4064   */\n      add\n        /* \"#utility.yul\":4038:4064   */\n      swap1\n      pop\n        /* \"#utility.yul\":4074:4145   */\n      tag_252\n        /* \"#utility.yul\":4142:4143   */\n      0x00\n        /* \"#utility.yul\":4131:4140   */\n      dup4\n        /* \"#utility.yul\":4127:4144   */\n      add\n        /* \"#utility.yul\":4118:4124   */\n      dup5\n        /* \"#utility.yul\":4074:4145   */\n      tag_162\n      jump\t// in\n    tag_252:\n        /* \"#utility.yul\":3930:4152   */\n      swap3\n      swap2\n      pop\n      pop\n      jump\t// out\n        /* \"#utility.yul\":4158:4218   */\n    tag_173:\n        /* \"#utility.yul\":4186:4189   */\n      0x00\n        /* \"#utility.yul\":4207:4212   */\n      dup2\n        /* \"#utility.yul\":4200:4212   */\n      swap1\n      pop\n        /* \"#utility.yul\":4158:4218   */\n      swap2\n      swap1\n      pop\n      jump\t// out\n        /* \"#utility.yul\":4224:4366   */\n    tag_174:\n        /* \"#utility.yul\":4274:4283   */\n      0x00\n        /* \"#utility.yul\":4307:4360   */\n      tag_255\n        /* \"#utility.yul\":4325:4359   */\n      tag_256\n        /* \"#utility.yul\":4334:4358   */\n      tag_257\n        /* \"#utility.yul\":4352:4357   */\n      dup5\n        /* \"#utility.yul\":4334:4358   */\n      tag_168\n      jump\t// in\n    tag_257:\n        /* \"#utility.yul\":4325:4359   */\n      tag_173\n      jump\t// in\n    tag_256:\n        /* \"#utility.yul\":4307:4360   */\n      tag_168\n      jump\t// in\n    tag_255:\n        /* \"#utility.yul\":4294:4360   */\n      swap1\n      pop\n        /* \"#utility.yul\":4224:4366   */\n      swap2\n      swap1\n      pop\n      jump\t// out\n        /* \"#utility.yul\":4372:4498   */\n    tag_175:\n        /* \"#utility.yul\":4422:4431   */\n      0x00\n        /* \"#utility.yul\":4455:4492   */\n      tag_259\n        /* \"#utility.yul\":4486:4491   */\n      dup3\n        /* \"#utility.yul\":4455:4492   */\n      tag_174\n      jump\t// in\n    tag_259:\n        /* \"#utility.yul\":4442:4492   */\n      swap1\n      pop\n        /* \"#utility.yul\":4372:4498   */\n      swap2\n      swap1\n      pop\n      jump\t// out\n        /* \"#utility.yul\":4504:4644   */\n    tag_176:\n        /* \"#utility.yul\":4568:4577   */\n      0x00\n        /* \"#utility.yul\":4601:4638   */\n      tag_261\n        /* \"#utility.yul\":4632:4637   */\n      dup3\n        /* \"#utility.yul\":4601:4638   */\n      tag_175\n      jump\t// in\n    tag_261:\n        /* \"#utility.yul\":4588:4638   */\n      swap1\n      pop\n        /* \"#utility.yul\":4504:4644   */\n      swap2\n      swap1\n      pop\n      jump\t// out\n        /* \"#utility.yul\":4650:4809   */\n    tag_177:\n        /* \"#utility.yul\":4751:4802   */\n      tag_263\n        /* \"#utility.yul\":4796:4801   */\n      dup2\n        /* \"#utility.yul\":4751:4802   */\n      tag_176\n      jump\t// in\n    tag_263:\n        /* \"#utility.yul\":4746:4749   */\n      dup3\n        /* \"#utility.yul\":4739:4803   */\n      mstore\n        /* \"#utility.yul\":4650:4809   */\n      pop\n      pop\n      jump\t// out\n        /* \"#utility.yul\":4815:5065   */\n    tag_66:\n        /* \"#utility.yul\":4922:4926   */\n      0x00\n        /* \"#utility.yul\":4960:4962   */\n      0x20\n        /* \"#utility.yul\":4949:4958   */\n      dup3\n        /* \"#utility.yul\":4945:4963   */\n      add\n        /* \"#utility.yul\":4937:4963   */\n      swap1\n      pop\n        /* \"#utility.yul\":4973:5058   */\n      tag_265\n        /* \"#utility.yul\":5055:5056   */\n      0x00\n        /* \"#utility.yul\":5044:5053   */\n      dup4\n        /* \"#utility.yul\":5040:5057   */\n      add\n        /* \"#utility.yul\":5031:5037   */\n      dup5\n        /* \"#utility.yul\":4973:5058   */\n      tag_177\n      jump\t// in\n    tag_265:\n        /* \"#utility.yul\":4815:5065   */\n      swap3\n      swap2\n      pop\n      pop\n      jump\t// out\n        /* \"#utility.yul\":5071:5251   */\n    tag_178:\n        /* \"#utility.yul\":5119:5196   */\n      0x4e487b7100000000000000000000000000000000000000000000000000000000\n        /* \"#utility.yul\":5116:5117   */\n      0x00\n        /* \"#utility.yul\":5109:5197   */\n      mstore\n        /* \"#utility.yul\":5216:5220   */\n      0x11\n        /* \"#utility.yul\":5213:5214   */\n      0x04\n        /* \"#utility.yul\":5206:5221   */\n      mstore\n        /* \"#utility.yul\":5240:5244   */\n      0x24\n        /* \"#utility.yul\":5237:5238   */\n      0x00\n        /* \"#utility.yul\":5230:5245   */\n      revert\n        /* \"#utility.yul\":5257:5448   */\n    tag_72:\n        /* \"#utility.yul\":5297:5300   */\n      0x00\n        /* \"#utility.yul\":5316:5336   */\n      tag_268\n        /* \"#utility.yul\":5334:5335   */\n      dup3\n        /* \"#utility.yul\":5316:5336   */\n      tag_161\n      jump\t// in\n    tag_268:\n        /* \"#utility.yul\":5311:5336   */\n      swap2\n      pop\n        /* \"#utility.yul\":5350:5370   */\n      tag_269\n        /* \"#utility.yul\":5368:5369   */\n      dup4\n        /* \"#utility.yul\":5350:5370   */\n      tag_161\n      jump\t// in\n    tag_269:\n        /* \"#utility.yul\":5345:5370   */\n      swap3\n      pop\n        /* \"#utility.yul\":5393:5394   */\n      dup3\n        /* \"#utility.yul\":5390:5391   */\n      dup3\n        /* \"#utility.yul\":5386:5395   */\n      add\n        /* \"#utility.yul\":5379:5395   */\n      swap1\n      pop\n        /* \"#utility.yul\":5414:5417   */\n      dup1\n        /* \"#utility.yul\":5411:5412   */\n      dup3\n        /* \"#utility.yul\":5408:5418   */\n      gt\n        /* \"#utility.yul\":5405:5441   */\n      iszero\n      tag_270\n      jumpi\n        /* \"#utility.yul\":5421:5439   */\n      tag_271\n      tag_178\n      jump\t// in\n    tag_271:\n        /* \"#utility.yul\":5405:5441   */\n    tag_270:\n        /* \"#utility.yul\":5257:5448   */\n      swap3\n      swap2\n      pop\n      pop\n      jump\t// out\n        /* \"#utility.yul\":5454:5623   */\n    tag_179:\n        /* \"#utility.yul\":5538:5549   */\n      0x00\n        /* \"#utility.yul\":5572:5578   */\n      dup3\n        /* \"#utility.yul\":5567:5570   */\n      dup3\n        /* \"#utility.yul\":5560:5579   */\n      mstore\n        /* \"#utility.yul\":5612:5616   */\n      0x20\n        /* \"#utility.yul\":5607:5610   */\n      dup3\n        /* \"#utility.yul\":5603:5617   */\n      add\n        /* \"#utility.yul\":5588:5617   */\n      swap1\n      pop\n        /* \"#utility.yul\":5454:5623   */\n      swap3\n      swap2\n      pop\n      pop\n      jump\t// out\n        /* \"#utility.yul\":5629:5788   */\n    tag_180:\n        /* \"#utility.yul\":5769:5780   */\n      0x6e6f7420656e6465640000000000000000000000000000000000000000000000\n        /* \"#utility.yul\":5765:5766   */\n      0x00\n        /* \"#utility.yul\":5757:5763   */\n      dup3\n        /* \"#utility.yul\":5753:5767   */\n      add\n        /* \"#utility.yul\":5746:5781   */\n      mstore\n        /* \"#utility.yul\":5629:5788   */\n      pop\n      jump\t// out\n        /* \"#utility.yul\":5794:6159   */\n    tag_181:\n        /* \"#utility.yul\":5936:5939   */\n      0x00\n        /* \"#utility.yul\":5957:6023   */\n      tag_275\n        /* \"#utility.yul\":6021:6022   */\n      0x09\n        /* \"#utility.yul\":6016:6019   */\n      dup4\n        /* \"#utility.yul\":5957:6023   */\n      tag_179\n      jump\t// in\n    tag_275:\n        /* \"#utility.yul\":5950:6023   */\n      swap2\n      pop\n        /* \"#utility.yul\":6032:6125   */\n      tag_276\n        /* \"#utility.yul\":6121:6124   */\n      dup3\n        /* \"#utility.yul\":6032:6125   */\n      tag_180\n      jump\t// in\n    tag_276:\n        /* \"#utility.yul\":6150:6152   */\n      0x20\n        /* \"#utility.yul\":6145:6148   */\n      dup3\n        /* \"#utility.yul\":6141:6153   */\n      add\n        /* \"#utility.yul\":6134:6153   */\n      swap1\n      pop\n        /* \"#utility.yul\":5794:6159   */\n      swap2\n      swap1\n      pop\n      jump\t// out\n        /* \"#utility.yul\":6165:6584   */\n    tag_77:\n        /* \"#utility.yul\":6331:6335   */\n      0x00\n        /* \"#utility.yul\":6369:6371   */\n      0x20\n        /* \"#utility.yul\":6358:6367   */\n      dup3\n        /* \"#utility.yul\":6354:6372   */\n      add\n        /* \"#utility.yul\":6346:6372   */\n      swap1\n      pop\n        /* \"#utility.yul\":6418:6427   */\n      dup2\n        /* \"#utility.yul\":6412:6416   */\n      dup2\n        /* \"#utility.yul\":6408:6428   */\n      sub\n        /* \"#utility.yul\":6404:6405   */\n      0x00\n        /* \"#utility.yul\":6393:6402   */\n      dup4\n        /* \"#utility.yul\":6389:6406   */\n      add\n        /* \"#utility.yul\":6382:6429   */\n      mstore\n        /* \"#utility.yul\":6446:6577   */\n      tag_278\n        /* \"#utility.yul\":6572:6576   */\n      dup2\n        /* \"#utility.yul\":6446:6577   */\n      tag_181\n      jump\t// in\n    tag_278:\n        /* \"#utility.yul\":6438:6577   */\n      swap1\n      pop\n        /* \"#utility.yul\":6165:6584   */\n      swap2\n      swap1\n      pop\n      jump\t// out\n        /* \"#utility.yul\":6590:6752   */\n    tag_182:\n        /* \"#utility.yul\":6730:6744   */\n      0x7265616368656420676f616c0000000000000000000000000000000000000000\n        /* \"#utility.yul\":6726:6727   */\n      0x00\n        /* \"#utility.yul\":6718:6724   */\n      dup3\n        /* \"#utility.yul\":6714:6728   */\n      add\n        /* \"#utility.yul\":6707:6745   */\n      mstore\n        /* \"#utility.yul\":6590:6752   */\n      pop\n      jump\t// out\n        /* \"#utility.yul\":6758:7124   */\n    tag_183:\n        /* \"#utility.yul\":6900:6903   */\n      0x00\n        /* \"#utility.yul\":6921:6988   */\n      tag_281\n        /* \"#utility.yul\":6985:6987   */\n      0x0c\n        /* \"#utility.yul\":6980:6983   */\n      dup4\n        /* \"#utility.yul\":6921:6988   */\n      tag_179\n      jump\t// in\n    tag_281:\n        /* \"#utility.yul\":6914:6988   */\n      swap2\n      pop\n        /* \"#utility.yul\":6997:7090   */\n      tag_282\n        /* \"#utility.yul\":7086:7089   */\n      dup3\n        /* \"#utility.yul\":6997:7090   */\n      tag_182\n      jump\t// in\n    tag_282:\n        /* \"#utility.yul\":7115:7117   */\n      0x20\n        /* \"#utility.yul\":7110:7113   */\n      dup3\n        /* \"#utility.yul\":7106:7118   */\n      add\n        /* \"#utility.yul\":7099:7118   */\n      swap1\n      pop\n        /* \"#utility.yul\":6758:7124   */\n      swap2\n      swap1\n      pop\n      jump\t// out\n        /* \"#utility.yul\":7130:7549   */\n    tag_80:\n        /* \"#utility.yul\":7296:7300   */\n      0x00\n        /* \"#utility.yul\":7334:7336   */\n      0x20\n        /* \"#utility.yul\":7323:7332   */\n      dup3\n        /* \"#utility.yul\":7319:7337   */\n      add\n        /* \"#utility.yul\":7311:7337   */\n      swap1\n      pop\n        /* \"#utility.yul\":7383:7392   */\n      dup2\n        /* \"#utility.yul\":7377:7381   */\n      dup2\n        /* \"#utility.yul\":7373:7393   */\n      sub\n        /* \"#utility.yul\":7369:7370   */\n      0x00\n        /* \"#utility.yul\":7358:7367   */\n      dup4\n        /* \"#utility.yul\":7354:7371   */\n      add\n        /* \"#utility.yul\":7347:7394   */\n      mstore\n        /* \"#utility.yul\":7411:7542   */\n      tag_284\n        /* \"#utility.yul\":7537:7541   */\n      dup2\n        /* \"#utility.yul\":7411:7542   */\n      tag_183\n      jump\t// in\n    tag_284:\n        /* \"#utility.yul\":7403:7542   */\n      swap1\n      pop\n        /* \"#utility.yul\":7130:7549   */\n      swap2\n      swap1\n      pop\n      jump\t// out\n        /* \"#utility.yul\":7555:7887   */\n    tag_82:\n        /* \"#utility.yul\":7676:7680   */\n      0x00\n        /* \"#utility.yul\":7714:7716   */\n      0x40\n        /* \"#utility.yul\":7703:7712   */\n      dup3\n        /* \"#utility.yul\":7699:7717   */\n      add\n        /* \"#utility.yul\":7691:7717   */\n      swap1\n      pop\n        /* \"#utility.yul\":7727:7798   */\n      tag_286\n        /* \"#utility.yul\":7795:7796   */\n      0x00\n        /* \"#utility.yul\":7784:7793   */\n      dup4\n        /* \"#utility.yul\":7780:7797   */\n      add\n        /* \"#utility.yul\":7771:7777   */\n      dup6\n        /* \"#utility.yul\":7727:7798   */\n      tag_170\n      jump\t// in\n    tag_286:\n        /* \"#utility.yul\":7808:7880   */\n      tag_287\n        /* \"#utility.yul\":7876:7878   */\n      0x20\n        /* \"#utility.yul\":7865:7874   */\n      dup4\n        /* \"#utility.yul\":7861:7879   */\n      add\n        /* \"#utility.yul\":7852:7858   */\n      dup5\n        /* \"#utility.yul\":7808:7880   */\n      tag_162\n      jump\t// in\n    tag_287:\n        /* \"#utility.yul\":7555:7887   */\n      swap4\n      swap3\n      pop\n      pop\n      pop\n      jump\t// out\n        /* \"#utility.yul\":7893:8009   */\n    tag_184:\n        /* \"#utility.yul\":7963:7984   */\n      tag_289\n        /* \"#utility.yul\":7978:7983   */\n      dup2\n        /* \"#utility.yul\":7963:7984   */\n      tag_171\n      jump\t// in\n    tag_289:\n        /* \"#utility.yul\":7956:7961   */\n      dup2\n        /* \"#utility.yul\":7953:7985   */\n      eq\n        /* \"#utility.yul\":7943:8003   */\n      tag_290\n      jumpi\n        /* \"#utility.yul\":7999:8000   */\n      0x00\n        /* \"#utility.yul\":7996:7997   */\n      dup1\n        /* \"#utility.yul\":7989:8001   */\n      revert\n        /* \"#utility.yul\":7943:8003   */\n    tag_290:\n        /* \"#utility.yul\":7893:8009   */\n      pop\n      jump\t// out\n        /* \"#utility.yul\":8015:8152   */\n    tag_185:\n        /* \"#utility.yul\":8069:8074   */\n      0x00\n        /* \"#utility.yul\":8100:8106   */\n      dup2\n        /* \"#utility.yul\":8094:8107   */\n      mload\n        /* \"#utility.yul\":8085:8107   */\n      swap1\n      pop\n        /* \"#utility.yul\":8116:8146   */\n      tag_292\n        /* \"#utility.yul\":8140:8145   */\n      dup2\n        /* \"#utility.yul\":8116:8146   */\n      tag_184\n      jump\t// in\n    tag_292:\n        /* \"#utility.yul\":8015:8152   */\n      swap3\n      swap2\n      pop\n      pop\n      jump\t// out\n        /* \"#utility.yul\":8158:8503   */\n    tag_86:\n        /* \"#utility.yul\":8225:8231   */\n      0x00\n        /* \"#utility.yul\":8274:8276   */\n      0x20\n        /* \"#utility.yul\":8262:8271   */\n      dup3\n        /* \"#utility.yul\":8253:8260   */\n      dup5\n        /* \"#utility.yul\":8249:8272   */\n      sub\n        /* \"#utility.yul\":8245:8277   */\n      slt\n        /* \"#utility.yul\":8242:8361   */\n      iszero\n      tag_294\n      jumpi\n        /* \"#utility.yul\":8280:8359   */\n      tag_295\n      tag_164\n      jump\t// in\n    tag_295:\n        /* \"#utility.yul\":8242:8361   */\n    tag_294:\n        /* \"#utility.yul\":8400:8401   */\n      0x00\n        /* \"#utility.yul\":8425:8486   */\n      tag_296\n        /* \"#utility.yul\":8478:8485   */\n      dup5\n        /* \"#utility.yul\":8469:8475   */\n      dup3\n        /* \"#utility.yul\":8458:8467   */\n      dup6\n        /* \"#utility.yul\":8454:8476   */\n      add\n        /* \"#utility.yul\":8425:8486   */\n      tag_185\n      jump\t// in\n    tag_296:\n        /* \"#utility.yul\":8415:8486   */\n      swap2\n      pop\n        /* \"#utility.yul\":8371:8496   */\n      pop\n        /* \"#utility.yul\":8158:8503   */\n      swap3\n      swap2\n      pop\n      pop\n      jump\t// out\n        /* \"#utility.yul\":8509:8951   */\n    tag_88:\n        /* \"#utility.yul\":8658:8662   */\n      0x00\n        /* \"#utility.yul\":8696:8698   */\n      0x60\n        /* \"#utility.yul\":8685:8694   */\n      dup3\n        /* \"#utility.yul\":8681:8699   */\n      add\n        /* \"#utility.yul\":8673:8699   */\n      swap1\n      pop\n        /* \"#utility.yul\":8709:8780   */\n      tag_298\n        /* \"#utility.yul\":8777:8778   */\n      0x00\n        /* \"#utility.yul\":8766:8775   */\n      dup4\n        /* \"#utility.yul\":8762:8779   */\n      add\n        /* \"#utility.yul\":8753:8759   */\n      dup7\n        /* \"#utility.yul\":8709:8780   */\n      tag_162\n      jump\t// in\n    tag_298:\n        /* \"#utility.yul\":8790:8862   */\n      tag_299\n        /* \"#utility.yul\":8858:8860   */\n      0x20\n        /* \"#utility.yul\":8847:8856   */\n      dup4\n        /* \"#utility.yul\":8843:8861   */\n      add\n        /* \"#utility.yul\":8834:8840   */\n      dup6\n        /* \"#utility.yul\":8790:8862   */\n      tag_170\n      jump\t// in\n    tag_299:\n        /* \"#utility.yul\":8872:8944   */\n      tag_300\n        /* \"#utility.yul\":8940:8942   */\n      0x40\n        /* \"#utility.yul\":8929:8938   */\n      dup4\n        /* \"#utility.yul\":8925:8943   */\n      add\n        /* \"#utility.yul\":8916:8922   */\n      dup5\n        /* \"#utility.yul\":8872:8944   */\n      tag_162\n      jump\t// in\n    tag_300:\n        /* \"#utility.yul\":8509:8951   */\n      swap5\n      swap4\n      pop\n      pop\n      pop\n      pop\n      jump\t// out\n        /* \"#utility.yul\":8957:9127   */\n    tag_186:\n        /* \"#utility.yul\":9097:9119   */\n      0x6e6f7420616e20636f6d70616e79206f776e6572000000000000000000000000\n        /* \"#utility.yul\":9093:9094   */\n      0x00\n        /* \"#utility.yul\":9085:9091   */\n      dup3\n        /* \"#utility.yul\":9081:9095   */\n      add\n        /* \"#utility.yul\":9074:9120   */\n      mstore\n        /* \"#utility.yul\":8957:9127   */\n      pop\n      jump\t// out\n        /* \"#utility.yul\":9133:9499   */\n    tag_187:\n        /* \"#utility.yul\":9275:9278   */\n      0x00\n        /* \"#utility.yul\":9296:9363   */\n      tag_303\n        /* \"#utility.yul\":9360:9362   */\n      0x14\n        /* \"#utility.yul\":9355:9358   */\n      dup4\n        /* \"#utility.yul\":9296:9363   */\n      tag_179\n      jump\t// in\n    tag_303:\n        /* \"#utility.yul\":9289:9363   */\n      swap2\n      pop\n        /* \"#utility.yul\":9372:9465   */\n      tag_304\n        /* \"#utility.yul\":9461:9464   */\n      dup3\n        /* \"#utility.yul\":9372:9465   */\n      tag_186\n      jump\t// in\n    tag_304:\n        /* \"#utility.yul\":9490:9492   */\n      0x20\n        /* \"#utility.yul\":9485:9488   */\n      dup3\n        /* \"#utility.yul\":9481:9493   */\n      add\n        /* \"#utility.yul\":9474:9493   */\n      swap1\n      pop\n        /* \"#utility.yul\":9133:9499   */\n      swap2\n      swap1\n      pop\n      jump\t// out\n        /* \"#utility.yul\":9505:9924   */\n    tag_92:\n        /* \"#utility.yul\":9671:9675   */\n      0x00\n        /* \"#utility.yul\":9709:9711   */\n      0x20\n        /* \"#utility.yul\":9698:9707   */\n      dup3\n        /* \"#utility.yul\":9694:9712   */\n      add\n        /* \"#utility.yul\":9686:9712   */\n      swap1\n      pop\n        /* \"#utility.yul\":9758:9767   */\n      dup2\n        /* \"#utility.yul\":9752:9756   */\n      dup2\n        /* \"#utility.yul\":9748:9768   */\n      sub\n        /* \"#utility.yul\":9744:9745   */\n      0x00\n        /* \"#utility.yul\":9733:9742   */\n      dup4\n        /* \"#utility.yul\":9729:9746   */\n      add\n        /* \"#utility.yul\":9722:9769   */\n      mstore\n        /* \"#utility.yul\":9786:9917   */\n      tag_306\n        /* \"#utility.yul\":9912:9916   */\n      dup2\n        /* \"#utility.yul\":9786:9917   */\n      tag_187\n      jump\t// in\n    tag_306:\n        /* \"#utility.yul\":9778:9917   */\n      swap1\n      pop\n        /* \"#utility.yul\":9505:9924   */\n      swap2\n      swap1\n      pop\n      jump\t// out\n        /* \"#utility.yul\":9930:10098   */\n    tag_188:\n        /* \"#utility.yul\":10070:10090   */\n      0x706c656467656420697320746f6f206c6f770000000000000000000000000000\n        /* \"#utility.yul\":10066:10067   */\n      0x00\n        /* \"#utility.yul\":10058:10064   */\n      dup3\n        /* \"#utility.yul\":10054:10068   */\n      add\n        /* \"#utility.yul\":10047:10091   */\n      mstore\n        /* \"#utility.yul\":9930:10098   */\n      pop\n      jump\t// out\n        /* \"#utility.yul\":10104:10470   */\n    tag_189:\n        /* \"#utility.yul\":10246:10249   */\n      0x00\n        /* \"#utility.yul\":10267:10334   */\n      tag_309\n        /* \"#utility.yul\":10331:10333   */\n      0x12\n        /* \"#utility.yul\":10326:10329   */\n      dup4\n        /* \"#utility.yul\":10267:10334   */\n      tag_179\n      jump\t// in\n    tag_309:\n        /* \"#utility.yul\":10260:10334   */\n      swap2\n      pop\n        /* \"#utility.yul\":10343:10436   */\n      tag_310\n        /* \"#utility.yul\":10432:10435   */\n      dup3\n        /* \"#utility.yul\":10343:10436   */\n      tag_188\n      jump\t// in\n    tag_310:\n        /* \"#utility.yul\":10461:10463   */\n      0x20\n        /* \"#utility.yul\":10456:10459   */\n      dup3\n        /* \"#utility.yul\":10452:10464   */\n      add\n        /* \"#utility.yul\":10445:10464   */\n      swap1\n      pop\n        /* \"#utility.yul\":10104:10470   */\n      swap2\n      swap1\n      pop\n      jump\t// out\n        /* \"#utility.yul\":10476:10895   */\n    tag_97:\n        /* \"#utility.yul\":10642:10646   */\n      0x00\n        /* \"#utility.yul\":10680:10682   */\n      0x20\n        /* \"#utility.yul\":10669:10678   */\n      dup3\n        /* \"#utility.yul\":10665:10683   */\n      add\n        /* \"#utility.yul\":10657:10683   */\n      swap1\n      pop\n        /* \"#utility.yul\":10729:10738   */\n      dup2\n        /* \"#utility.yul\":10723:10727   */\n      dup2\n        /* \"#utility.yul\":10719:10739   */\n      sub\n        /* \"#utility.yul\":10715:10716   */\n      0x00\n        /* \"#utility.yul\":10704:10713   */\n      dup4\n        /* \"#utility.yul\":10700:10717   */\n      add\n        /* \"#utility.yul\":10693:10740   */\n      mstore\n        /* \"#utility.yul\":10757:10888   */\n      tag_312\n        /* \"#utility.yul\":10883:10887   */\n      dup2\n        /* \"#utility.yul\":10757:10888   */\n      tag_189\n      jump\t// in\n    tag_312:\n        /* \"#utility.yul\":10749:10888   */\n      swap1\n      pop\n        /* \"#utility.yul\":10476:10895   */\n      swap2\n      swap1\n      pop\n      jump\t// out\n        /* \"#utility.yul\":10901:11066   */\n    tag_190:\n        /* \"#utility.yul\":11041:11058   */\n      0x616c726561647920636c61696d65640000000000000000000000000000000000\n        /* \"#utility.yul\":11037:11038   */\n      0x00\n        /* \"#utility.yul\":11029:11035   */\n      dup3\n        /* \"#utility.yul\":11025:11039   */\n      add\n        /* \"#utility.yul\":11018:11059   */\n      mstore\n        /* \"#utility.yul\":10901:11066   */\n      pop\n      jump\t// out\n        /* \"#utility.yul\":11072:11438   */\n    tag_191:\n        /* \"#utility.yul\":11214:11217   */\n      0x00\n        /* \"#utility.yul\":11235:11302   */\n      tag_315\n        /* \"#utility.yul\":11299:11301   */\n      0x0f\n        /* \"#utility.yul\":11294:11297   */\n      dup4\n        /* \"#utility.yul\":11235:11302   */\n      tag_179\n      jump\t// in\n    tag_315:\n        /* \"#utility.yul\":11228:11302   */\n      swap2\n      pop\n        /* \"#utility.yul\":11311:11404   */\n      tag_316\n        /* \"#utility.yul\":11400:11403   */\n      dup3\n        /* \"#utility.yul\":11311:11404   */\n      tag_190\n      jump\t// in\n    tag_316:\n        /* \"#utility.yul\":11429:11431   */\n      0x20\n        /* \"#utility.yul\":11424:11427   */\n      dup3\n        /* \"#utility.yul\":11420:11432   */\n      add\n        /* \"#utility.yul\":11413:11432   */\n      swap1\n      pop\n        /* \"#utility.yul\":11072:11438   */\n      swap2\n      swap1\n      pop\n      jump\t// out\n        /* \"#utility.yul\":11444:11863   */\n    tag_100:\n        /* \"#utility.yul\":11610:11614   */\n      0x00\n        /* \"#utility.yul\":11648:11650   */\n      0x20\n        /* \"#utility.yul\":11637:11646   */\n      dup3\n        /* \"#utility.yul\":11633:11651   */\n      add\n        /* \"#utility.yul\":11625:11651   */\n      swap1\n      pop\n        /* \"#utility.yul\":11697:11706   */\n      dup2\n        /* \"#utility.yul\":11691:11695   */\n      dup2\n        /* \"#utility.yul\":11687:11707   */\n      sub\n        /* \"#utility.yul\":11683:11684   */\n      0x00\n        /* \"#utility.yul\":11672:11681   */\n      dup4\n        /* \"#utility.yul\":11668:11685   */\n      add\n        /* \"#utility.yul\":11661:11708   */\n      mstore\n        /* \"#utility.yul\":11725:11856   */\n      tag_318\n        /* \"#utility.yul\":11851:11855   */\n      dup2\n        /* \"#utility.yul\":11725:11856   */\n      tag_191\n      jump\t// in\n    tag_318:\n        /* \"#utility.yul\":11717:11856   */\n      swap1\n      pop\n        /* \"#utility.yul\":11444:11863   */\n      swap2\n      swap1\n      pop\n      jump\t// out\n        /* \"#utility.yul\":11869:12031   */\n    tag_192:\n        /* \"#utility.yul\":12009:12023   */\n      0x6e6f7420616e206f776e65720000000000000000000000000000000000000000\n        /* \"#utility.yul\":12005:12006   */\n      0x00\n        /* \"#utility.yul\":11997:12003   */\n      dup3\n        /* \"#utility.yul\":11993:12007   */\n      add\n        /* \"#utility.yul\":11986:12024   */\n      mstore\n        /* \"#utility.yul\":11869:12031   */\n      pop\n      jump\t// out\n        /* \"#utility.yul\":12037:12403   */\n    tag_193:\n        /* \"#utility.yul\":12179:12182   */\n      0x00\n        /* \"#utility.yul\":12200:12267   */\n      tag_321\n        /* \"#utility.yul\":12264:12266   */\n      0x0c\n        /* \"#utility.yul\":12259:12262   */\n      dup4\n        /* \"#utility.yul\":12200:12267   */\n      tag_179\n      jump\t// in\n    tag_321:\n        /* \"#utility.yul\":12193:12267   */\n      swap2\n      pop\n        /* \"#utility.yul\":12276:12369   */\n      tag_322\n        /* \"#utility.yul\":12365:12368   */\n      dup3\n        /* \"#utility.yul\":12276:12369   */\n      tag_192\n      jump\t// in\n    tag_322:\n        /* \"#utility.yul\":12394:12396   */\n      0x20\n        /* \"#utility.yul\":12389:12392   */\n      dup3\n        /* \"#utility.yul\":12385:12397   */\n      add\n        /* \"#utility.yul\":12378:12397   */\n      swap1\n      pop\n        /* \"#utility.yul\":12037:12403   */\n      swap2\n      swap1\n      pop\n      jump\t// out\n        /* \"#utility.yul\":12409:12828   */\n    tag_109:\n        /* \"#utility.yul\":12575:12579   */\n      0x00\n        /* \"#utility.yul\":12613:12615   */\n      0x20\n        /* \"#utility.yul\":12602:12611   */\n      dup3\n        /* \"#utility.yul\":12598:12616   */\n      add\n        /* \"#utility.yul\":12590:12616   */\n      swap1\n      pop\n        /* \"#utility.yul\":12662:12671   */\n      dup2\n        /* \"#utility.yul\":12656:12660   */\n      dup2\n        /* \"#utility.yul\":12652:12672   */\n      sub\n        /* \"#utility.yul\":12648:12649   */\n      0x00\n        /* \"#utility.yul\":12637:12646   */\n      dup4\n        /* \"#utility.yul\":12633:12650   */\n      add\n        /* \"#utility.yul\":12626:12673   */\n      mstore\n        /* \"#utility.yul\":12690:12821   */\n      tag_324\n        /* \"#utility.yul\":12816:12820   */\n      dup2\n        /* \"#utility.yul\":12690:12821   */\n      tag_193\n      jump\t// in\n    tag_324:\n        /* \"#utility.yul\":12682:12821   */\n      swap1\n      pop\n        /* \"#utility.yul\":12409:12828   */\n      swap2\n      swap1\n      pop\n      jump\t// out\n        /* \"#utility.yul\":12834:12999   */\n    tag_194:\n        /* \"#utility.yul\":12974:12991   */\n      0x616c726561647920737461727465640000000000000000000000000000000000\n        /* \"#utility.yul\":12970:12971   */\n      0x00\n        /* \"#utility.yul\":12962:12968   */\n      dup3\n        /* \"#utility.yul\":12958:12972   */\n      add\n        /* \"#utility.yul\":12951:12992   */\n      mstore\n        /* \"#utility.yul\":12834:12999   */\n      pop\n      jump\t// out\n        /* \"#utility.yul\":13005:13371   */\n    tag_195:\n        /* \"#utility.yul\":13147:13150   */\n      0x00\n        /* \"#utility.yul\":13168:13235   */\n      tag_327\n        /* \"#utility.yul\":13232:13234   */\n      0x0f\n        /* \"#utility.yul\":13227:13230   */\n      dup4\n        /* \"#utility.yul\":13168:13235   */\n      tag_179\n      jump\t// in\n    tag_327:\n        /* \"#utility.yul\":13161:13235   */\n      swap2\n      pop\n        /* \"#utility.yul\":13244:13337   */\n      tag_328\n        /* \"#utility.yul\":13333:13336   */\n      dup3\n        /* \"#utility.yul\":13244:13337   */\n      tag_194\n      jump\t// in\n    tag_328:\n        /* \"#utility.yul\":13362:13364   */\n      0x20\n        /* \"#utility.yul\":13357:13360   */\n      dup3\n        /* \"#utility.yul\":13353:13365   */\n      add\n        /* \"#utility.yul\":13346:13365   */\n      swap1\n      pop\n        /* \"#utility.yul\":13005:13371   */\n      swap2\n      swap1\n      pop\n      jump\t// out\n        /* \"#utility.yul\":13377:13796   */\n    tag_112:\n        /* \"#utility.yul\":13543:13547   */\n      0x00\n        /* \"#utility.yul\":13581:13583   */\n      0x20\n        /* \"#utility.yul\":13570:13579   */\n      dup3\n        /* \"#utility.yul\":13566:13584   */\n      add\n        /* \"#utility.yul\":13558:13584   */\n      swap1\n      pop\n        /* \"#utility.yul\":13630:13639   */\n      dup2\n        /* \"#utility.yul\":13624:13628   */\n      dup2\n        /* \"#utility.yul\":13620:13640   */\n      sub\n        /* \"#utility.yul\":13616:13617   */\n      0x00\n        /* \"#utility.yul\":13605:13614   */\n      dup4\n        /* \"#utility.yul\":13601:13618   */\n      add\n        /* \"#utility.yul\":13594:13641   */\n      mstore\n        /* \"#utility.yul\":13658:13789   */\n      tag_330\n        /* \"#utility.yul\":13784:13788   */\n      dup2\n        /* \"#utility.yul\":13658:13789   */\n      tag_195\n      jump\t// in\n    tag_330:\n        /* \"#utility.yul\":13650:13789   */\n      swap1\n      pop\n        /* \"#utility.yul\":13377:13796   */\n      swap2\n      swap1\n      pop\n      jump\t// out\n        /* \"#utility.yul\":13802:13957   */\n    tag_196:\n        /* \"#utility.yul\":13942:13949   */\n      0x656e646564000000000000000000000000000000000000000000000000000000\n        /* \"#utility.yul\":13938:13939   */\n      0x00\n        /* \"#utility.yul\":13930:13936   */\n      dup3\n        /* \"#utility.yul\":13926:13940   */\n      add\n        /* \"#utility.yul\":13919:13950   */\n      mstore\n        /* \"#utility.yul\":13802:13957   */\n      pop\n      jump\t// out\n        /* \"#utility.yul\":13963:14328   */\n    tag_197:\n        /* \"#utility.yul\":14105:14108   */\n      0x00\n        /* \"#utility.yul\":14126:14192   */\n      tag_333\n        /* \"#utility.yul\":14190:14191   */\n      0x05\n        /* \"#utility.yul\":14185:14188   */\n      dup4\n        /* \"#utility.yul\":14126:14192   */\n      tag_179\n      jump\t// in\n    tag_333:\n        /* \"#utility.yul\":14119:14192   */\n      swap2\n      pop\n        /* \"#utility.yul\":14201:14294   */\n      tag_334\n        /* \"#utility.yul\":14290:14293   */\n      dup3\n        /* \"#utility.yul\":14201:14294   */\n      tag_196\n      jump\t// in\n    tag_334:\n        /* \"#utility.yul\":14319:14321   */\n      0x20\n        /* \"#utility.yul\":14314:14317   */\n      dup3\n        /* \"#utility.yul\":14310:14322   */\n      add\n        /* \"#utility.yul\":14303:14322   */\n      swap1\n      pop\n        /* \"#utility.yul\":13963:14328   */\n      swap2\n      swap1\n      pop\n      jump\t// out\n        /* \"#utility.yul\":14334:14753   */\n    tag_117:\n        /* \"#utility.yul\":14500:14504   */\n      0x00\n        /* \"#utility.yul\":14538:14540   */\n      0x20\n        /* \"#utility.yul\":14527:14536   */\n      dup3\n        /* \"#utility.yul\":14523:14541   */\n      add\n        /* \"#utility.yul\":14515:14541   */\n      swap1\n      pop\n        /* \"#utility.yul\":14587:14596   */\n      dup2\n        /* \"#utility.yul\":14581:14585   */\n      dup2\n        /* \"#utility.yul\":14577:14597   */\n      sub\n        /* \"#utility.yul\":14573:14574   */\n      0x00\n        /* \"#utility.yul\":14562:14571   */\n      dup4\n        /* \"#utility.yul\":14558:14575   */\n      add\n        /* \"#utility.yul\":14551:14598   */\n      mstore\n        /* \"#utility.yul\":14615:14746   */\n      tag_336\n        /* \"#utility.yul\":14741:14745   */\n      dup2\n        /* \"#utility.yul\":14615:14746   */\n      tag_197\n      jump\t// in\n    tag_336:\n        /* \"#utility.yul\":14607:14746   */\n      swap1\n      pop\n        /* \"#utility.yul\":14334:14753   */\n      swap2\n      swap1\n      pop\n      jump\t// out\n        /* \"#utility.yul\":14759:14953   */\n    tag_119:\n        /* \"#utility.yul\":14799:14803   */\n      0x00\n        /* \"#utility.yul\":14819:14839   */\n      tag_338\n        /* \"#utility.yul\":14837:14838   */\n      dup3\n        /* \"#utility.yul\":14819:14839   */\n      tag_161\n      jump\t// in\n    tag_338:\n        /* \"#utility.yul\":14814:14839   */\n      swap2\n      pop\n        /* \"#utility.yul\":14853:14873   */\n      tag_339\n        /* \"#utility.yul\":14871:14872   */\n      dup4\n        /* \"#utility.yul\":14853:14873   */\n      tag_161\n      jump\t// in\n    tag_339:\n        /* \"#utility.yul\":14848:14873   */\n      swap3\n      pop\n        /* \"#utility.yul\":14897:14898   */\n      dup3\n        /* \"#utility.yul\":14894:14895   */\n      dup3\n        /* \"#utility.yul\":14890:14899   */\n      sub\n        /* \"#utility.yul\":14882:14899   */\n      swap1\n      pop\n        /* \"#utility.yul\":14921:14922   */\n      dup2\n        /* \"#utility.yul\":14915:14919   */\n      dup2\n        /* \"#utility.yul\":14912:14923   */\n      gt\n        /* \"#utility.yul\":14909:14946   */\n      iszero\n      tag_340\n      jumpi\n        /* \"#utility.yul\":14926:14944   */\n      tag_341\n      tag_178\n      jump\t// in\n    tag_341:\n        /* \"#utility.yul\":14909:14946   */\n    tag_340:\n        /* \"#utility.yul\":14759:14953   */\n      swap3\n      swap2\n      pop\n      pop\n      jump\t// out\n        /* \"#utility.yul\":14959:15127   */\n    tag_198:\n        /* \"#utility.yul\":15099:15119   */\n      0x696e636f72726563742073746172742061740000000000000000000000000000\n        /* \"#utility.yul\":15095:15096   */\n      0x00\n        /* \"#utility.yul\":15087:15093   */\n      dup3\n        /* \"#utility.yul\":15083:15097   */\n      add\n        /* \"#utility.yul\":15076:15120   */\n      mstore\n        /* \"#utility.yul\":14959:15127   */\n      pop\n      jump\t// out\n        /* \"#utility.yul\":15133:15499   */\n    tag_199:\n        /* \"#utility.yul\":15275:15278   */\n      0x00\n        /* \"#utility.yul\":15296:15363   */\n      tag_344\n        /* \"#utility.yul\":15360:15362   */\n      0x12\n        /* \"#utility.yul\":15355:15358   */\n      dup4\n        /* \"#utility.yul\":15296:15363   */\n      tag_179\n      jump\t// in\n    tag_344:\n        /* \"#utility.yul\":15289:15363   */\n      swap2\n      pop\n        /* \"#utility.yul\":15372:15465   */\n      tag_345\n        /* \"#utility.yul\":15461:15464   */\n      dup3\n        /* \"#utility.yul\":15372:15465   */\n      tag_198\n      jump\t// in\n    tag_345:\n        /* \"#utility.yul\":15490:15492   */\n      0x20\n        /* \"#utility.yul\":15485:15488   */\n      dup3\n        /* \"#utility.yul\":15481:15493   */\n      add\n        /* \"#utility.yul\":15474:15493   */\n      swap1\n      pop\n        /* \"#utility.yul\":15133:15499   */\n      swap2\n      swap1\n      pop\n      jump\t// out\n        /* \"#utility.yul\":15505:15924   */\n    tag_129:\n        /* \"#utility.yul\":15671:15675   */\n      0x00\n        /* \"#utility.yul\":15709:15711   */\n      0x20\n        /* \"#utility.yul\":15698:15707   */\n      dup3\n        /* \"#utility.yul\":15694:15712   */\n      add\n        /* \"#utility.yul\":15686:15712   */\n      swap1\n      pop\n        /* \"#utility.yul\":15758:15767   */\n      dup2\n        /* \"#utility.yul\":15752:15756   */\n      dup2\n        /* \"#utility.yul\":15748:15768   */\n      sub\n        /* \"#utility.yul\":15744:15745   */\n      0x00\n        /* \"#utility.yul\":15733:15742   */\n      dup4\n        /* \"#utility.yul\":15729:15746   */\n      add\n        /* \"#utility.yul\":15722:15769   */\n      mstore\n        /* \"#utility.yul\":15786:15917   */\n      tag_347\n        /* \"#utility.yul\":15912:15916   */\n      dup2\n        /* \"#utility.yul\":15786:15917   */\n      tag_199\n      jump\t// in\n    tag_347:\n        /* \"#utility.yul\":15778:15917   */\n      swap1\n      pop\n        /* \"#utility.yul\":15505:15924   */\n      swap2\n      swap1\n      pop\n      jump\t// out\n        /* \"#utility.yul\":15930:16096   */\n    tag_200:\n        /* \"#utility.yul\":16070:16088   */\n      0x696e636f727265637420656e6420617400000000000000000000000000000000\n        /* \"#utility.yul\":16066:16067   */\n      0x00\n        /* \"#utility.yul\":16058:16064   */\n      dup3\n        /* \"#utility.yul\":16054:16068   */\n      add\n        /* \"#utility.yul\":16047:16089   */\n      mstore\n        /* \"#utility.yul\":15930:16096   */\n      pop\n      jump\t// out\n        /* \"#utility.yul\":16102:16468   */\n    tag_201:\n        /* \"#utility.yul\":16244:16247   */\n      0x00\n        /* \"#utility.yul\":16265:16332   */\n      tag_350\n        /* \"#utility.yul\":16329:16331   */\n      0x10\n        /* \"#utility.yul\":16324:16327   */\n      dup4\n        /* \"#utility.yul\":16265:16332   */\n      tag_179\n      jump\t// in\n    tag_350:\n        /* \"#utility.yul\":16258:16332   */\n      swap2\n      pop\n        /* \"#utility.yul\":16341:16434   */\n      tag_351\n        /* \"#utility.yul\":16430:16433   */\n      dup3\n        /* \"#utility.yul\":16341:16434   */\n      tag_200\n      jump\t// in\n    tag_351:\n        /* \"#utility.yul\":16459:16461   */\n      0x20\n        /* \"#utility.yul\":16454:16457   */\n      dup3\n        /* \"#utility.yul\":16450:16462   */\n      add\n        /* \"#utility.yul\":16443:16462   */\n      swap1\n      pop\n        /* \"#utility.yul\":16102:16468   */\n      swap2\n      swap1\n      pop\n      jump\t// out\n        /* \"#utility.yul\":16474:16893   */\n    tag_133:\n        /* \"#utility.yul\":16640:16644   */\n      0x00\n        /* \"#utility.yul\":16678:16680   */\n      0x20\n        /* \"#utility.yul\":16667:16676   */\n      dup3\n        /* \"#utility.yul\":16663:16681   */\n      add\n        /* \"#utility.yul\":16655:16681   */\n      swap1\n      pop\n        /* \"#utility.yul\":16727:16736   */\n      dup2\n        /* \"#utility.yul\":16721:16725   */\n      dup2\n        /* \"#utility.yul\":16717:16737   */\n      sub\n        /* \"#utility.yul\":16713:16714   */\n      0x00\n        /* \"#utility.yul\":16702:16711   */\n      dup4\n        /* \"#utility.yul\":16698:16715   */\n      add\n        /* \"#utility.yul\":16691:16738   */\n      mstore\n        /* \"#utility.yul\":16755:16886   */\n      tag_353\n        /* \"#utility.yul\":16881:16885   */\n      dup2\n        /* \"#utility.yul\":16755:16886   */\n      tag_201\n      jump\t// in\n    tag_353:\n        /* \"#utility.yul\":16747:16886   */\n      swap1\n      pop\n        /* \"#utility.yul\":16474:16893   */\n      swap2\n      swap1\n      pop\n      jump\t// out\n        /* \"#utility.yul\":16899:17057   */\n    tag_202:\n        /* \"#utility.yul\":17039:17049   */\n      0x746f6f206c6f6e67000000000000000000000000000000000000000000000000\n        /* \"#utility.yul\":17035:17036   */\n      0x00\n        /* \"#utility.yul\":17027:17033   */\n      dup3\n        /* \"#utility.yul\":17023:17037   */\n      add\n        /* \"#utility.yul\":17016:17050   */\n      mstore\n        /* \"#utility.yul\":16899:17057   */\n      pop\n      jump\t// out\n        /* \"#utility.yul\":17063:17428   */\n    tag_203:\n        /* \"#utility.yul\":17205:17208   */\n      0x00\n        /* \"#utility.yul\":17226:17292   */\n      tag_356\n        /* \"#utility.yul\":17290:17291   */\n      0x08\n        /* \"#utility.yul\":17285:17288   */\n      dup4\n        /* \"#utility.yul\":17226:17292   */\n      tag_179\n      jump\t// in\n    tag_356:\n        /* \"#utility.yul\":17219:17292   */\n      swap2\n      pop\n        /* \"#utility.yul\":17301:17394   */\n      tag_357\n        /* \"#utility.yul\":17390:17393   */\n      dup3\n        /* \"#utility.yul\":17301:17394   */\n      tag_202\n      jump\t// in\n    tag_357:\n        /* \"#utility.yul\":17419:17421   */\n      0x20\n        /* \"#utility.yul\":17414:17417   */\n      dup3\n        /* \"#utility.yul\":17410:17422   */\n      add\n        /* \"#utility.yul\":17403:17422   */\n      swap1\n      pop\n        /* \"#utility.yul\":17063:17428   */\n      swap2\n      swap1\n      pop\n      jump\t// out\n        /* \"#utility.yul\":17434:17853   */\n    tag_137:\n        /* \"#utility.yul\":17600:17604   */\n      0x00\n        /* \"#utility.yul\":17638:17640   */\n      0x20\n        /* \"#utility.yul\":17627:17636   */\n      dup3\n        /* \"#utility.yul\":17623:17641   */\n      add\n        /* \"#utility.yul\":17615:17641   */\n      swap1\n      pop\n        /* \"#utility.yul\":17687:17696   */\n      dup2\n        /* \"#utility.yul\":17681:17685   */\n      dup2\n        /* \"#utility.yul\":17677:17697   */\n      sub\n        /* \"#utility.yul\":17673:17674   */\n      0x00\n        /* \"#utility.yul\":17662:17671   */\n      dup4\n        /* \"#utility.yul\":17658:17675   */\n      add\n        /* \"#utility.yul\":17651:17698   */\n      mstore\n        /* \"#utility.yul\":17715:17846   */\n      tag_359\n        /* \"#utility.yul\":17841:17845   */\n      dup2\n        /* \"#utility.yul\":17715:17846   */\n      tag_203\n      jump\t// in\n    tag_359:\n        /* \"#utility.yul\":17707:17846   */\n      swap1\n      pop\n        /* \"#utility.yul\":17434:17853   */\n      swap2\n      swap1\n      pop\n      jump\t// out\n        /* \"#utility.yul\":17859:18523   */\n    tag_139:\n        /* \"#utility.yul\":18064:18068   */\n      0x00\n        /* \"#utility.yul\":18102:18105   */\n      0xa0\n        /* \"#utility.yul\":18091:18100   */\n      dup3\n        /* \"#utility.yul\":18087:18106   */\n      add\n        /* \"#utility.yul\":18079:18106   */\n      swap1\n      pop\n        /* \"#utility.yul\":18116:18187   */\n      tag_361\n        /* \"#utility.yul\":18184:18185   */\n      0x00\n        /* \"#utility.yul\":18173:18182   */\n      dup4\n        /* \"#utility.yul\":18169:18186   */\n      add\n        /* \"#utility.yul\":18160:18166   */\n      dup9\n        /* \"#utility.yul\":18116:18187   */\n      tag_162\n      jump\t// in\n    tag_361:\n        /* \"#utility.yul\":18197:18269   */\n      tag_362\n        /* \"#utility.yul\":18265:18267   */\n      0x20\n        /* \"#utility.yul\":18254:18263   */\n      dup4\n        /* \"#utility.yul\":18250:18268   */\n      add\n        /* \"#utility.yul\":18241:18247   */\n      dup8\n        /* \"#utility.yul\":18197:18269   */\n      tag_170\n      jump\t// in\n    tag_362:\n        /* \"#utility.yul\":18279:18351   */\n      tag_363\n        /* \"#utility.yul\":18347:18349   */\n      0x40\n        /* \"#utility.yul\":18336:18345   */\n      dup4\n        /* \"#utility.yul\":18332:18350   */\n      add\n        /* \"#utility.yul\":18323:18329   */\n      dup7\n        /* \"#utility.yul\":18279:18351   */\n      tag_162\n      jump\t// in\n    tag_363:\n        /* \"#utility.yul\":18361:18433   */\n      tag_364\n        /* \"#utility.yul\":18429:18431   */\n      0x60\n        /* \"#utility.yul\":18418:18427   */\n      dup4\n        /* \"#utility.yul\":18414:18432   */\n      add\n        /* \"#utility.yul\":18405:18411   */\n      dup6\n        /* \"#utility.yul\":18361:18433   */\n      tag_162\n      jump\t// in\n    tag_364:\n        /* \"#utility.yul\":18443:18516   */\n      tag_365\n        /* \"#utility.yul\":18511:18514   */\n      0x80\n        /* \"#utility.yul\":18500:18509   */\n      dup4\n        /* \"#utility.yul\":18496:18515   */\n      add\n        /* \"#utility.yul\":18487:18493   */\n      dup5\n        /* \"#utility.yul\":18443:18516   */\n      tag_162\n      jump\t// in\n    tag_365:\n        /* \"#utility.yul\":17859:18523   */\n      swap7\n      swap6\n      pop\n      pop\n      pop\n      pop\n      pop\n      pop\n      jump\t// out\n        /* \"#utility.yul\":18529:18762   */\n    tag_141:\n        /* \"#utility.yul\":18568:18571   */\n      0x00\n        /* \"#utility.yul\":18591:18615   */\n      tag_367\n        /* \"#utility.yul\":18609:18614   */\n      dup3\n        /* \"#utility.yul\":18591:18615   */\n      tag_161\n      jump\t// in\n    tag_367:\n        /* \"#utility.yul\":18582:18615   */\n      swap2\n      pop\n        /* \"#utility.yul\":18637:18703   */\n      0xffffffffffffffffffffffffffffffffffffffffffffffffffffffffffffffff\n        /* \"#utility.yul\":18630:18635   */\n      dup3\n        /* \"#utility.yul\":18627:18704   */\n      sub\n        /* \"#utility.yul\":18624:18727   */\n      tag_368\n      jumpi\n        /* \"#utility.yul\":18707:18725   */\n      tag_369\n      tag_178\n      jump\t// in\n    tag_369:\n        /* \"#utility.yul\":18624:18727   */\n    tag_368:\n        /* \"#utility.yul\":18754:18755   */\n      0x01\n        /* \"#utility.yul\":18747:18752   */\n      dup3\n        /* \"#utility.yul\":18743:18756   */\n      add\n        /* \"#utility.yul\":18736:18756   */\n      swap1\n      pop\n        /* \"#utility.yul\":18529:18762   */\n      swap2\n      swap1\n      pop\n      jump\t// out\n        /* \"#utility.yul\":18768:18929   */\n    tag_204:\n        /* \"#utility.yul\":18908:18921   */\n      0x6e6f742073746172746564000000000000000000000000000000000000000000\n        /* \"#utility.yul\":18904:18905   */\n      0x00\n        /* \"#utility.yul\":18896:18902   */\n      dup3\n        /* \"#utility.yul\":18892:18906   */\n      add\n        /* \"#utility.yul\":18885:18922   */\n      mstore\n        /* \"#utility.yul\":18768:18929   */\n      pop\n      jump\t// out\n        /* \"#utility.yul\":18935:19301   */\n    tag_205:\n        /* \"#utility.yul\":19077:19080   */\n      0x00\n        /* \"#utility.yul\":19098:19165   */\n      tag_372\n        /* \"#utility.yul\":19162:19164   */\n      0x0b\n        /* \"#utility.yul\":19157:19160   */\n      dup4\n        /* \"#utility.yul\":19098:19165   */\n      tag_179\n      jump\t// in\n    tag_372:\n        /* \"#utility.yul\":19091:19165   */\n      swap2\n      pop\n        /* \"#utility.yul\":19174:19267   */\n      tag_373\n        /* \"#utility.yul\":19263:19266   */\n      dup3\n        /* \"#utility.yul\":19174:19267   */\n      tag_204\n      jump\t// in\n    tag_373:\n        /* \"#utility.yul\":19292:19294   */\n      0x20\n        /* \"#utility.yul\":19287:19290   */\n      dup3\n        /* \"#utility.yul\":19283:19295   */\n      add\n        /* \"#utility.yul\":19276:19295   */\n      swap1\n      pop\n        /* \"#utility.yul\":18935:19301   */\n      swap2\n      swap1\n      pop\n      jump\t// out\n        /* \"#utility.yul\":19307:19726   */\n    tag_150:\n        /* \"#utility.yul\":19473:19477   */\n      0x00\n        /* \"#utility.yul\":19511:19513   */\n      0x20\n        /* \"#utility.yul\":19500:19509   */\n      dup3\n        /* \"#utility.yul\":19496:19514   */\n      add\n        /* \"#utility.yul\":19488:19514   */\n      swap1\n      pop\n        /* \"#utility.yul\":19560:19569   */\n      dup2\n        /* \"#utility.yul\":19554:19558   */\n      dup2\n        /* \"#utility.yul\":19550:19570   */\n      sub\n        /* \"#utility.yul\":19546:19547   */\n      0x00\n        /* \"#utility.yul\":19535:19544   */\n      dup4\n        /* \"#utility.yul\":19531:19548   */\n      add\n        /* \"#utility.yul\":19524:19571   */\n      mstore\n        /* \"#utility.yul\":19588:19719   */\n      tag_375\n        /* \"#utility.yul\":19714:19718   */\n      dup2\n        /* \"#utility.yul\":19588:19719   */\n      tag_205\n      jump\t// in\n    tag_375:\n        /* \"#utility.yul\":19580:19719   */\n      swap1\n      pop\n        /* \"#utility.yul\":19307:19726   */\n      swap2\n      swap1\n      pop\n      jump\t// out\n        /* \"#utility.yul\":19732:20174   */\n    tag_156:\n        /* \"#utility.yul\":19881:19885   */\n      0x00\n        /* \"#utility.yul\":19919:19921   */\n      0x60\n        /* \"#utility.yul\":19908:19917   */\n      dup3\n        /* \"#utility.yul\":19904:19922   */\n      add\n        /* \"#utility.yul\":19896:19922   */\n      swap1\n      pop\n        /* \"#utility.yul\":19932:20003   */\n      tag_377\n        /* \"#utility.yul\":20000:20001   */\n      0x00\n        /* \"#utility.yul\":19989:19998   */\n      dup4\n        /* \"#utility.yul\":19985:20002   */\n      add\n        /* \"#utility.yul\":19976:19982   */\n      dup7\n        /* \"#utility.yul\":19932:20003   */\n      tag_170\n      jump\t// in\n    tag_377:\n        /* \"#utility.yul\":20013:20085   */\n      tag_378\n        /* \"#utility.yul\":20081:20083   */\n      0x20\n        /* \"#utility.yul\":20070:20079   */\n      dup4\n        /* \"#utility.yul\":20066:20084   */\n      add\n        /* \"#utility.yul\":20057:20063   */\n      dup6\n        /* \"#utility.yul\":20013:20085   */\n      tag_170\n      jump\t// in\n    tag_378:\n        /* \"#utility.yul\":20095:20167   */\n      tag_379\n        /* \"#utility.yul\":20163:20165   */\n      0x40\n        /* \"#utility.yul\":20152:20161   */\n      dup4\n        /* \"#utility.yul\":20148:20166   */\n      add\n        /* \"#utility.yul\":20139:20145   */\n      dup5\n        /* \"#utility.yul\":20095:20167   */\n      tag_162\n      jump\t// in\n    tag_379:\n        /* \"#utility.yul\":19732:20174   */\n      swap5\n      swap4\n      pop\n      pop\n      pop\n      pop\n      jump\t// out\n\n    auxdata: 0xa264697066735822122018ee0019b543df19f95a891390c1b991d776c4d585419edfca21569b0a323af864736f6c634300081a0033\n}\n",
				"bytecode": {
					"linkReferences": {},
					"object": "60a060405234801561000f575f80fd5b50604051611afb380380611afb833981810160405281019061003191906100c9565b8073ffffffffffffffffffffffffffffffffffffffff1660808173ffffffffffffffffffffffffffffffffffffffff1681525050506100f4565b5f80fd5b5f73ffffffffffffffffffffffffffffffffffffffff82169050919050565b5f6100988261006f565b9050919050565b6100a88161008e565b81146100b2575f80fd5b50565b5f815190506100c38161009f565b92915050565b5f602082840312156100de576100dd61006b565b5b5f6100eb848285016100b5565b91505092915050565b6080516119d36101285f395f8181610409015281816106ea01528181610aa901528181610e150152610f5501526119d35ff3fe608060405234801561000f575f80fd5b50600436106100e8575f3560e01c8063b1724b461161008a578063e00dd16111610064578063e00dd16114610224578063fa3c196b14610242578063fc0c546a14610261578063fde327be1461027f576100e8565b8063b1724b46146101cc578063b6a6d177146101ea578063d99b1db714610208576100e8565b8063379607f5116100c6578063379607f51461015c57806340e58ee514610178578063711853ab146101945780638736c179146101b0576100e8565b80630833317b146100ec578063278ecde11461010b5780632813d19d14610127575b5f80fd5b6100f461029b565b604051610102929190611049565b60405180910390f35b6101256004803603810190610120919061109e565b6102c4565b005b610141600480360381019061013c919061109e565b6104e3565b60405161015396959493929190611122565b60405180910390f35b6101766004803603810190610171919061109e565b610546565b005b610192600480360381019061018d919061109e565b6107c3565b005b6101ae60048036038101906101a99190611181565b6109d2565b005b6101ca60048036038101906101c591906111bf565b610b83565b005b6101d4610da9565b6040516101e1919061120f565b60405180910390f35b6101f2610db0565b6040516101ff919061120f565b60405180910390f35b610222600480360381019061021d919061109e565b610db5565b005b61022c610de2565b604051610239919061120f565b60405180910390f35b61024a610de8565b604051610258929190611049565b60405180910390f35b610269610e13565b6040516102769190611283565b60405180910390f35b61029960048036038101906102949190611181565b610e37565b005b5f805f4290506014816102ae91906112c9565b6028826102bb91906112c9565b92509250509091565b5f60015f8381526020019081526020015f2090508060040154421161031e576040517f08c379a000000000000000000000000000000000000000000000000000000000815260040161031590611356565b60405180910390fd5b8060010154816002015410610368576040517f08c379a000000000000000000000000000000000000000000000000000000000815260040161035f906113be565b60405180910390fd5b5f805f8481526020019081526020015f205f3373ffffffffffffffffffffffffffffffffffffffff1673ffffffffffffffffffffffffffffffffffffffff1681526020019081526020015f205490505f805f8581526020019081526020015f205f3373ffffffffffffffffffffffffffffffffffffffff1673ffffffffffffffffffffffffffffffffffffffff1681526020019081526020015f20819055507f000000000000000000000000000000000000000000000000000000000000000073ffffffffffffffffffffffffffffffffffffffff1663a9059cbb33836040518363ffffffff1660e01b81526004016104629291906113dc565b6020604051808303815f875af115801561047e573d5f803e3d5ffd5b505050506040513d601f19601f820116820180604052508101906104a2919061142d565b507f7ca5472b7ea78c2c0141c5a12ee6d170cf4ce8ed06be3d22c8252ddfc7a6a2c48333836040516104d693929190611458565b60405180910390a1505050565b6001602052805f5260405f205f91509050805f015f9054906101000a900473ffffffffffffffffffffffffffffffffffffffff1690806001015490806002015490806003015490806004015490806005015f9054906101000a900460ff16905086565b5f60015f8381526020019081526020015f209050805f015f9054906101000a900473ffffffffffffffffffffffffffffffffffffffff1673ffffffffffffffffffffffffffffffffffffffff163373ffffffffffffffffffffffffffffffffffffffff16146105ea576040517f08c379a00000000000000000000000000000000000000000000000000000000081526004016105e1906114d7565b60405180910390fd5b80600401544211610630576040517f08c379a000000000000000000000000000000000000000000000000000000000815260040161062790611356565b60405180910390fd5b80600101548160020154101561067b576040517f08c379a00000000000000000000000000000000000000000000000000000000081526004016106729061153f565b60405180910390fd5b806005015f9054906101000a900460ff16156106cc576040517f08c379a00000000000000000000000000000000000000000000000000000000081526004016106c3906115a7565b60405180910390fd5b6001816005015f6101000a81548160ff0219169083151502179055507f000000000000000000000000000000000000000000000000000000000000000073ffffffffffffffffffffffffffffffffffffffff1663a9059cbb3383600201546040518363ffffffff1660e01b81526004016107479291906113dc565b6020604051808303815f875af1158015610763573d5f803e3d5ffd5b505050506040513d601f19601f82011682018060405250810190610787919061142d565b507f7a355715549cfe7c1cba26304350343fbddc4b4f72d3ce3e7c27117dd20b5cb8826040516107b7919061120f565b60405180910390a15050565b5f60015f8381526020019081526020015f206040518060c00160405290815f82015f9054906101000a900473ffffffffffffffffffffffffffffffffffffffff1673ffffffffffffffffffffffffffffffffffffffff1673ffffffffffffffffffffffffffffffffffffffff16815260200160018201548152602001600282015481526020016003820154815260200160048201548152602001600582015f9054906101000a900460ff1615151515815250509050805f015173ffffffffffffffffffffffffffffffffffffffff163373ffffffffffffffffffffffffffffffffffffffff16146108e9576040517f08c379a00000000000000000000000000000000000000000000000000000000081526004016108e09061160f565b60405180910390fd5b8060600151421061092f576040517f08c379a000000000000000000000000000000000000000000000000000000000815260040161092690611677565b60405180910390fd5b60015f8381526020019081526020015f205f8082015f6101000a81549073ffffffffffffffffffffffffffffffffffffffff0219169055600182015f9055600282015f9055600382015f9055600482015f9055600582015f6101000a81549060ff021916905550507f829a8683c544ad289ce92d3ce06e9ebad69b18a6916e60ec766c2c217461d8e9826040516109c6919061120f565b60405180910390a15050565b5f60015f8481526020019081526020015f20905080600401544210610a2c576040517f08c379a0000000000000000000000000000000000000000000000000000000008152600401610a23906116df565b60405180910390fd5b81816002015f828254610a3f91906116fd565b92505081905550815f808581526020019081526020015f205f3373ffffffffffffffffffffffffffffffffffffffff1673ffffffffffffffffffffffffffffffffffffffff1681526020019081526020015f205f828254610aa091906116fd565b925050819055507f000000000000000000000000000000000000000000000000000000000000000073ffffffffffffffffffffffffffffffffffffffff1663a9059cbb33846040518363ffffffff1660e01b8152600401610b029291906113dc565b6020604051808303815f875af1158015610b1e573d5f803e3d5ffd5b505050506040513d601f19601f82011682018060405250810190610b42919061142d565b507ffcd29b1632c6748a9a4bb9b4cd5c6486c3c84a8550dce2368f83fef3969d9685833384604051610b7693929190611458565b60405180910390a1505050565b42821015610bc6576040517f08c379a0000000000000000000000000000000000000000000000000000000008152600401610bbd9061177a565b60405180910390fd5b600a82610bd391906112c9565b811015610c15576040517f08c379a0000000000000000000000000000000000000000000000000000000008152600401610c0c906117e2565b60405180910390fd5b6283d60082610c2491906112c9565b811115610c66576040517f08c379a0000000000000000000000000000000000000000000000000000000008152600401610c5d9061184a565b60405180910390fd5b6040518060c001604052803373ffffffffffffffffffffffffffffffffffffffff1681526020018481526020015f81526020018381526020018281526020015f151581525060015f60025481526020019081526020015f205f820151815f015f6101000a81548173ffffffffffffffffffffffffffffffffffffffff021916908373ffffffffffffffffffffffffffffffffffffffff1602179055506020820151816001015560408201518160020155606082015181600301556080820151816004015560a0820151816005015f6101000a81548160ff0219169083151502179055509050507fea7dc5be41326789a621aaa33d671281d0a54aa87610751def19f8544c2004c360025433858585604051610d85959493929190611868565b60405180910390a160025f815480929190610d9f906118b9565b9190505550505050565b6283d60081565b600a81565b5f60015f8381526020019081526020015f209050600542610dd691906116fd565b81600401819055505050565b60025481565b5f805f429050601481610dfb91906112c9565b6276a70082610e0a91906112c9565b92509250509091565b7f000000000000000000000000000000000000000000000000000000000000000081565b5f60015f8481526020019081526020015f2090508060030154421015610e92576040517f08c379a0000000000000000000000000000000000000000000000000000000008152600401610e899061194a565b60405180910390fd5b80600401544210610ed8576040517f08c379a0000000000000000000000000000000000000000000000000000000008152600401610ecf906116df565b60405180910390fd5b81816002015f828254610eeb91906112c9565b92505081905550815f808581526020019081526020015f205f3373ffffffffffffffffffffffffffffffffffffffff1673ffffffffffffffffffffffffffffffffffffffff1681526020019081526020015f205f828254610f4c91906112c9565b925050819055507f000000000000000000000000000000000000000000000000000000000000000073ffffffffffffffffffffffffffffffffffffffff166323b872dd3330856040518463ffffffff1660e01b8152600401610fb093929190611968565b6020604051808303815f875af1158015610fcc573d5f803e3d5ffd5b505050506040513d601f19601f82011682018060405250810190610ff0919061142d565b507f2757ac6a40883f4491cc56930ae964df9034e343e660d5179eb01e198336756b83338460405161102493929190611458565b60405180910390a1505050565b5f819050919050565b61104381611031565b82525050565b5f60408201905061105c5f83018561103a565b611069602083018461103a565b9392505050565b5f80fd5b61107d81611031565b8114611087575f80fd5b50565b5f8135905061109881611074565b92915050565b5f602082840312156110b3576110b2611070565b5b5f6110c08482850161108a565b91505092915050565b5f73ffffffffffffffffffffffffffffffffffffffff82169050919050565b5f6110f2826110c9565b9050919050565b611102816110e8565b82525050565b5f8115159050919050565b61111c81611108565b82525050565b5f60c0820190506111355f8301896110f9565b611142602083018861103a565b61114f604083018761103a565b61115c606083018661103a565b611169608083018561103a565b61117660a0830184611113565b979650505050505050565b5f806040838503121561119757611196611070565b5b5f6111a48582860161108a565b92505060206111b58582860161108a565b9150509250929050565b5f805f606084860312156111d6576111d5611070565b5b5f6111e38682870161108a565b93505060206111f48682870161108a565b92505060406112058682870161108a565b9150509250925092565b5f6020820190506112225f83018461103a565b92915050565b5f819050919050565b5f61124b611246611241846110c9565b611228565b6110c9565b9050919050565b5f61125c82611231565b9050919050565b5f61126d82611252565b9050919050565b61127d81611263565b82525050565b5f6020820190506112965f830184611274565b92915050565b7f4e487b71000000000000000000000000000000000000000000000000000000005f52601160045260245ffd5b5f6112d382611031565b91506112de83611031565b92508282019050808211156112f6576112f561129c565b5b92915050565b5f82825260208201905092915050565b7f6e6f7420656e64656400000000000000000000000000000000000000000000005f82015250565b5f6113406009836112fc565b915061134b8261130c565b602082019050919050565b5f6020820190508181035f83015261136d81611334565b9050919050565b7f7265616368656420676f616c00000000000000000000000000000000000000005f82015250565b5f6113a8600c836112fc565b91506113b382611374565b602082019050919050565b5f6020820190508181035f8301526113d58161139c565b9050919050565b5f6040820190506113ef5f8301856110f9565b6113fc602083018461103a565b9392505050565b61140c81611108565b8114611416575f80fd5b50565b5f8151905061142781611403565b92915050565b5f6020828403121561144257611441611070565b5b5f61144f84828501611419565b91505092915050565b5f60608201905061146b5f83018661103a565b61147860208301856110f9565b611485604083018461103a565b949350505050565b7f6e6f7420616e20636f6d70616e79206f776e65720000000000000000000000005f82015250565b5f6114c16014836112fc565b91506114cc8261148d565b602082019050919050565b5f6020820190508181035f8301526114ee816114b5565b9050919050565b7f706c656467656420697320746f6f206c6f7700000000000000000000000000005f82015250565b5f6115296012836112fc565b9150611534826114f5565b602082019050919050565b5f6020820190508181035f8301526115568161151d565b9050919050565b7f616c726561647920636c61696d656400000000000000000000000000000000005f82015250565b5f611591600f836112fc565b915061159c8261155d565b602082019050919050565b5f6020820190508181035f8301526115be81611585565b9050919050565b7f6e6f7420616e206f776e657200000000000000000000000000000000000000005f82015250565b5f6115f9600c836112fc565b9150611604826115c5565b602082019050919050565b5f6020820190508181035f830152611626816115ed565b9050919050565b7f616c7265616479207374617274656400000000000000000000000000000000005f82015250565b5f611661600f836112fc565b915061166c8261162d565b602082019050919050565b5f6020820190508181035f83015261168e81611655565b9050919050565b7f656e6465640000000000000000000000000000000000000000000000000000005f82015250565b5f6116c96005836112fc565b91506116d482611695565b602082019050919050565b5f6020820190508181035f8301526116f6816116bd565b9050919050565b5f61170782611031565b915061171283611031565b925082820390508181111561172a5761172961129c565b5b92915050565b7f696e636f727265637420737461727420617400000000000000000000000000005f82015250565b5f6117646012836112fc565b915061176f82611730565b602082019050919050565b5f6020820190508181035f83015261179181611758565b9050919050565b7f696e636f727265637420656e64206174000000000000000000000000000000005f82015250565b5f6117cc6010836112fc565b91506117d782611798565b602082019050919050565b5f6020820190508181035f8301526117f9816117c0565b9050919050565b7f746f6f206c6f6e670000000000000000000000000000000000000000000000005f82015250565b5f6118346008836112fc565b915061183f82611800565b602082019050919050565b5f6020820190508181035f83015261186181611828565b9050919050565b5f60a08201905061187b5f83018861103a565b61188860208301876110f9565b611895604083018661103a565b6118a2606083018561103a565b6118af608083018461103a565b9695505050505050565b5f6118c382611031565b91507fffffffffffffffffffffffffffffffffffffffffffffffffffffffffffffffff82036118f5576118f461129c565b5b600182019050919050565b7f6e6f7420737461727465640000000000000000000000000000000000000000005f82015250565b5f611934600b836112fc565b915061193f82611900565b602082019050919050565b5f6020820190508181035f83015261196181611928565b9050919050565b5f60608201905061197b5f8301866110f9565b61198860208301856110f9565b611995604083018461103a565b94935050505056fea264697066735822122018ee0019b543df19f95a891390c1b991d776c4d585419edfca21569b0a323af864736f6c634300081a0033",
					"opcodes": "PUSH1 0xA0 PUSH1 0x40 MSTORE CALLVALUE DUP1 ISZERO PUSH2 0xF JUMPI PUSH0 DUP1 REVERT JUMPDEST POP PUSH1 0x40 MLOAD PUSH2 0x1AFB CODESIZE SUB DUP1 PUSH2 0x1AFB DUP4 CODECOPY DUP2 DUP2 ADD PUSH1 0x40 MSTORE DUP2 ADD SWAP1 PUSH2 0x31 SWAP2 SWAP1 PUSH2 0xC9 JUMP JUMPDEST DUP1 PUSH20 0xFFFFFFFFFFFFFFFFFFFFFFFFFFFFFFFFFFFFFFFF AND PUSH1 0x80 DUP2 PUSH20 0xFFFFFFFFFFFFFFFFFFFFFFFFFFFFFFFFFFFFFFFF AND DUP2 MSTORE POP POP POP PUSH2 0xF4 JUMP JUMPDEST PUSH0 DUP1 REVERT JUMPDEST PUSH0 PUSH20 0xFFFFFFFFFFFFFFFFFFFFFFFFFFFFFFFFFFFFFFFF DUP3 AND SWAP1 POP SWAP2 SWAP1 POP JUMP JUMPDEST PUSH0 PUSH2 0x98 DUP3 PUSH2 0x6F JUMP JUMPDEST SWAP1 POP SWAP2 SWAP1 POP JUMP JUMPDEST PUSH2 0xA8 DUP2 PUSH2 0x8E JUMP JUMPDEST DUP2 EQ PUSH2 0xB2 JUMPI PUSH0 DUP1 REVERT JUMPDEST POP JUMP JUMPDEST PUSH0 DUP2 MLOAD SWAP1 POP PUSH2 0xC3 DUP2 PUSH2 0x9F JUMP JUMPDEST SWAP3 SWAP2 POP POP JUMP JUMPDEST PUSH0 PUSH1 0x20 DUP3 DUP5 SUB SLT ISZERO PUSH2 0xDE JUMPI PUSH2 0xDD PUSH2 0x6B JUMP JUMPDEST JUMPDEST PUSH0 PUSH2 0xEB DUP5 DUP3 DUP6 ADD PUSH2 0xB5 JUMP JUMPDEST SWAP2 POP POP SWAP3 SWAP2 POP POP JUMP JUMPDEST PUSH1 0x80 MLOAD PUSH2 0x19D3 PUSH2 0x128 PUSH0 CODECOPY PUSH0 DUP2 DUP2 PUSH2 0x409 ADD MSTORE DUP2 DUP2 PUSH2 0x6EA ADD MSTORE DUP2 DUP2 PUSH2 0xAA9 ADD MSTORE DUP2 DUP2 PUSH2 0xE15 ADD MSTORE PUSH2 0xF55 ADD MSTORE PUSH2 0x19D3 PUSH0 RETURN INVALID PUSH1 0x80 PUSH1 0x40 MSTORE CALLVALUE DUP1 ISZERO PUSH2 0xF JUMPI PUSH0 DUP1 REVERT JUMPDEST POP PUSH1 0x4 CALLDATASIZE LT PUSH2 0xE8 JUMPI PUSH0 CALLDATALOAD PUSH1 0xE0 SHR DUP1 PUSH4 0xB1724B46 GT PUSH2 0x8A JUMPI DUP1 PUSH4 0xE00DD161 GT PUSH2 0x64 JUMPI DUP1 PUSH4 0xE00DD161 EQ PUSH2 0x224 JUMPI DUP1 PUSH4 0xFA3C196B EQ PUSH2 0x242 JUMPI DUP1 PUSH4 0xFC0C546A EQ PUSH2 0x261 JUMPI DUP1 PUSH4 0xFDE327BE EQ PUSH2 0x27F JUMPI PUSH2 0xE8 JUMP JUMPDEST DUP1 PUSH4 0xB1724B46 EQ PUSH2 0x1CC JUMPI DUP1 PUSH4 0xB6A6D177 EQ PUSH2 0x1EA JUMPI DUP1 PUSH4 0xD99B1DB7 EQ PUSH2 0x208 JUMPI PUSH2 0xE8 JUMP JUMPDEST DUP1 PUSH4 0x379607F5 GT PUSH2 0xC6 JUMPI DUP1 PUSH4 0x379607F5 EQ PUSH2 0x15C JUMPI DUP1 PUSH4 0x40E58EE5 EQ PUSH2 0x178 JUMPI DUP1 PUSH4 0x711853AB EQ PUSH2 0x194 JUMPI DUP1 PUSH4 0x8736C179 EQ PUSH2 0x1B0 JUMPI PUSH2 0xE8 JUMP JUMPDEST DUP1 PUSH4 0x833317B EQ PUSH2 0xEC JUMPI DUP1 PUSH4 0x278ECDE1 EQ PUSH2 0x10B JUMPI DUP1 PUSH4 0x2813D19D EQ PUSH2 0x127 JUMPI JUMPDEST PUSH0 DUP1 REVERT JUMPDEST PUSH2 0xF4 PUSH2 0x29B JUMP JUMPDEST PUSH1 0x40 MLOAD PUSH2 0x102 SWAP3 SWAP2 SWAP1 PUSH2 0x1049 JUMP JUMPDEST PUSH1 0x40 MLOAD DUP1 SWAP2 SUB SWAP1 RETURN JUMPDEST PUSH2 0x125 PUSH1 0x4 DUP1 CALLDATASIZE SUB DUP2 ADD SWAP1 PUSH2 0x120 SWAP2 SWAP1 PUSH2 0x109E JUMP JUMPDEST PUSH2 0x2C4 JUMP JUMPDEST STOP JUMPDEST PUSH2 0x141 PUSH1 0x4 DUP1 CALLDATASIZE SUB DUP2 ADD SWAP1 PUSH2 0x13C SWAP2 SWAP1 PUSH2 0x109E JUMP JUMPDEST PUSH2 0x4E3 JUMP JUMPDEST PUSH1 0x40 MLOAD PUSH2 0x153 SWAP7 SWAP6 SWAP5 SWAP4 SWAP3 SWAP2 SWAP1 PUSH2 0x1122 JUMP JUMPDEST PUSH1 0x40 MLOAD DUP1 SWAP2 SUB SWAP1 RETURN JUMPDEST PUSH2 0x176 PUSH1 0x4 DUP1 CALLDATASIZE SUB DUP2 ADD SWAP1 PUSH2 0x171 SWAP2 SWAP1 PUSH2 0x109E JUMP JUMPDEST PUSH2 0x546 JUMP JUMPDEST STOP JUMPDEST PUSH2 0x192 PUSH1 0x4 DUP1 CALLDATASIZE SUB DUP2 ADD SWAP1 PUSH2 0x18D SWAP2 SWAP1 PUSH2 0x109E JUMP JUMPDEST PUSH2 0x7C3 JUMP JUMPDEST STOP JUMPDEST PUSH2 0x1AE PUSH1 0x4 DUP1 CALLDATASIZE SUB DUP2 ADD SWAP1 PUSH2 0x1A9 SWAP2 SWAP1 PUSH2 0x1181 JUMP JUMPDEST PUSH2 0x9D2 JUMP JUMPDEST STOP JUMPDEST PUSH2 0x1CA PUSH1 0x4 DUP1 CALLDATASIZE SUB DUP2 ADD SWAP1 PUSH2 0x1C5 SWAP2 SWAP1 PUSH2 0x11BF JUMP JUMPDEST PUSH2 0xB83 JUMP JUMPDEST STOP JUMPDEST PUSH2 0x1D4 PUSH2 0xDA9 JUMP JUMPDEST PUSH1 0x40 MLOAD PUSH2 0x1E1 SWAP2 SWAP1 PUSH2 0x120F JUMP JUMPDEST PUSH1 0x40 MLOAD DUP1 SWAP2 SUB SWAP1 RETURN JUMPDEST PUSH2 0x1F2 PUSH2 0xDB0 JUMP JUMPDEST PUSH1 0x40 MLOAD PUSH2 0x1FF SWAP2 SWAP1 PUSH2 0x120F JUMP JUMPDEST PUSH1 0x40 MLOAD DUP1 SWAP2 SUB SWAP1 RETURN JUMPDEST PUSH2 0x222 PUSH1 0x4 DUP1 CALLDATASIZE SUB DUP2 ADD SWAP1 PUSH2 0x21D SWAP2 SWAP1 PUSH2 0x109E JUMP JUMPDEST PUSH2 0xDB5 JUMP JUMPDEST STOP JUMPDEST PUSH2 0x22C PUSH2 0xDE2 JUMP JUMPDEST PUSH1 0x40 MLOAD PUSH2 0x239 SWAP2 SWAP1 PUSH2 0x120F JUMP JUMPDEST PUSH1 0x40 MLOAD DUP1 SWAP2 SUB SWAP1 RETURN JUMPDEST PUSH2 0x24A PUSH2 0xDE8 JUMP JUMPDEST PUSH1 0x40 MLOAD PUSH2 0x258 SWAP3 SWAP2 SWAP1 PUSH2 0x1049 JUMP JUMPDEST PUSH1 0x40 MLOAD DUP1 SWAP2 SUB SWAP1 RETURN JUMPDEST PUSH2 0x269 PUSH2 0xE13 JUMP JUMPDEST PUSH1 0x40 MLOAD PUSH2 0x276 SWAP2 SWAP1 PUSH2 0x1283 JUMP JUMPDEST PUSH1 0x40 MLOAD DUP1 SWAP2 SUB SWAP1 RETURN JUMPDEST PUSH2 0x299 PUSH1 0x4 DUP1 CALLDATASIZE SUB DUP2 ADD SWAP1 PUSH2 0x294 SWAP2 SWAP1 PUSH2 0x1181 JUMP JUMPDEST PUSH2 0xE37 JUMP JUMPDEST STOP JUMPDEST PUSH0 DUP1 PUSH0 TIMESTAMP SWAP1 POP PUSH1 0x14 DUP2 PUSH2 0x2AE SWAP2 SWAP1 PUSH2 0x12C9 JUMP JUMPDEST PUSH1 0x28 DUP3 PUSH2 0x2BB SWAP2 SWAP1 PUSH2 0x12C9 JUMP JUMPDEST SWAP3 POP SWAP3 POP POP SWAP1 SWAP2 JUMP JUMPDEST PUSH0 PUSH1 0x1 PUSH0 DUP4 DUP2 MSTORE PUSH1 0x20 ADD SWAP1 DUP2 MSTORE PUSH1 0x20 ADD PUSH0 KECCAK256 SWAP1 POP DUP1 PUSH1 0x4 ADD SLOAD TIMESTAMP GT PUSH2 0x31E JUMPI PUSH1 0x40 MLOAD PUSH32 0x8C379A000000000000000000000000000000000000000000000000000000000 DUP2 MSTORE PUSH1 0x4 ADD PUSH2 0x315 SWAP1 PUSH2 0x1356 JUMP JUMPDEST PUSH1 0x40 MLOAD DUP1 SWAP2 SUB SWAP1 REVERT JUMPDEST DUP1 PUSH1 0x1 ADD SLOAD DUP2 PUSH1 0x2 ADD SLOAD LT PUSH2 0x368 JUMPI PUSH1 0x40 MLOAD PUSH32 0x8C379A000000000000000000000000000000000000000000000000000000000 DUP2 MSTORE PUSH1 0x4 ADD PUSH2 0x35F SWAP1 PUSH2 0x13BE JUMP JUMPDEST PUSH1 0x40 MLOAD DUP1 SWAP2 SUB SWAP1 REVERT JUMPDEST PUSH0 DUP1 PUSH0 DUP5 DUP2 MSTORE PUSH1 0x20 ADD SWAP1 DUP2 MSTORE PUSH1 0x20 ADD PUSH0 KECCAK256 PUSH0 CALLER PUSH20 0xFFFFFFFFFFFFFFFFFFFFFFFFFFFFFFFFFFFFFFFF AND PUSH20 0xFFFFFFFFFFFFFFFFFFFFFFFFFFFFFFFFFFFFFFFF AND DUP2 MSTORE PUSH1 0x20 ADD SWAP1 DUP2 MSTORE PUSH1 0x20 ADD PUSH0 KECCAK256 SLOAD SWAP1 POP PUSH0 DUP1 PUSH0 DUP6 DUP2 MSTORE PUSH1 0x20 ADD SWAP1 DUP2 MSTORE PUSH1 0x20 ADD PUSH0 KECCAK256 PUSH0 CALLER PUSH20 0xFFFFFFFFFFFFFFFFFFFFFFFFFFFFFFFFFFFFFFFF AND PUSH20 0xFFFFFFFFFFFFFFFFFFFFFFFFFFFFFFFFFFFFFFFF AND DUP2 MSTORE PUSH1 0x20 ADD SWAP1 DUP2 MSTORE PUSH1 0x20 ADD PUSH0 KECCAK256 DUP2 SWAP1 SSTORE POP PUSH32 0x0 PUSH20 0xFFFFFFFFFFFFFFFFFFFFFFFFFFFFFFFFFFFFFFFF AND PUSH4 0xA9059CBB CALLER DUP4 PUSH1 0x40 MLOAD DUP4 PUSH4 0xFFFFFFFF AND PUSH1 0xE0 SHL DUP2 MSTORE PUSH1 0x4 ADD PUSH2 0x462 SWAP3 SWAP2 SWAP1 PUSH2 0x13DC JUMP JUMPDEST PUSH1 0x20 PUSH1 0x40 MLOAD DUP1 DUP4 SUB DUP2 PUSH0 DUP8 GAS CALL ISZERO DUP1 ISZERO PUSH2 0x47E JUMPI RETURNDATASIZE PUSH0 DUP1 RETURNDATACOPY RETURNDATASIZE PUSH0 REVERT JUMPDEST POP POP POP POP PUSH1 0x40 MLOAD RETURNDATASIZE PUSH1 0x1F NOT PUSH1 0x1F DUP3 ADD AND DUP3 ADD DUP1 PUSH1 0x40 MSTORE POP DUP2 ADD SWAP1 PUSH2 0x4A2 SWAP2 SWAP1 PUSH2 0x142D JUMP JUMPDEST POP PUSH32 0x7CA5472B7EA78C2C0141C5A12EE6D170CF4CE8ED06BE3D22C8252DDFC7A6A2C4 DUP4 CALLER DUP4 PUSH1 0x40 MLOAD PUSH2 0x4D6 SWAP4 SWAP3 SWAP2 SWAP1 PUSH2 0x1458 JUMP JUMPDEST PUSH1 0x40 MLOAD DUP1 SWAP2 SUB SWAP1 LOG1 POP POP POP JUMP JUMPDEST PUSH1 0x1 PUSH1 0x20 MSTORE DUP1 PUSH0 MSTORE PUSH1 0x40 PUSH0 KECCAK256 PUSH0 SWAP2 POP SWAP1 POP DUP1 PUSH0 ADD PUSH0 SWAP1 SLOAD SWAP1 PUSH2 0x100 EXP SWAP1 DIV PUSH20 0xFFFFFFFFFFFFFFFFFFFFFFFFFFFFFFFFFFFFFFFF AND SWAP1 DUP1 PUSH1 0x1 ADD SLOAD SWAP1 DUP1 PUSH1 0x2 ADD SLOAD SWAP1 DUP1 PUSH1 0x3 ADD SLOAD SWAP1 DUP1 PUSH1 0x4 ADD SLOAD SWAP1 DUP1 PUSH1 0x5 ADD PUSH0 SWAP1 SLOAD SWAP1 PUSH2 0x100 EXP SWAP1 DIV PUSH1 0xFF AND SWAP1 POP DUP7 JUMP JUMPDEST PUSH0 PUSH1 0x1 PUSH0 DUP4 DUP2 MSTORE PUSH1 0x20 ADD SWAP1 DUP2 MSTORE PUSH1 0x20 ADD PUSH0 KECCAK256 SWAP1 POP DUP1 PUSH0 ADD PUSH0 SWAP1 SLOAD SWAP1 PUSH2 0x100 EXP SWAP1 DIV PUSH20 0xFFFFFFFFFFFFFFFFFFFFFFFFFFFFFFFFFFFFFFFF AND PUSH20 0xFFFFFFFFFFFFFFFFFFFFFFFFFFFFFFFFFFFFFFFF AND CALLER PUSH20 0xFFFFFFFFFFFFFFFFFFFFFFFFFFFFFFFFFFFFFFFF AND EQ PUSH2 0x5EA JUMPI PUSH1 0x40 MLOAD PUSH32 0x8C379A000000000000000000000000000000000000000000000000000000000 DUP2 MSTORE PUSH1 0x4 ADD PUSH2 0x5E1 SWAP1 PUSH2 0x14D7 JUMP JUMPDEST PUSH1 0x40 MLOAD DUP1 SWAP2 SUB SWAP1 REVERT JUMPDEST DUP1 PUSH1 0x4 ADD SLOAD TIMESTAMP GT PUSH2 0x630 JUMPI PUSH1 0x40 MLOAD PUSH32 0x8C379A000000000000000000000000000000000000000000000000000000000 DUP2 MSTORE PUSH1 0x4 ADD PUSH2 0x627 SWAP1 PUSH2 0x1356 JUMP JUMPDEST PUSH1 0x40 MLOAD DUP1 SWAP2 SUB SWAP1 REVERT JUMPDEST DUP1 PUSH1 0x1 ADD SLOAD DUP2 PUSH1 0x2 ADD SLOAD LT ISZERO PUSH2 0x67B JUMPI PUSH1 0x40 MLOAD PUSH32 0x8C379A000000000000000000000000000000000000000000000000000000000 DUP2 MSTORE PUSH1 0x4 ADD PUSH2 0x672 SWAP1 PUSH2 0x153F JUMP JUMPDEST PUSH1 0x40 MLOAD DUP1 SWAP2 SUB SWAP1 REVERT JUMPDEST DUP1 PUSH1 0x5 ADD PUSH0 SWAP1 SLOAD SWAP1 PUSH2 0x100 EXP SWAP1 DIV PUSH1 0xFF AND ISZERO PUSH2 0x6CC JUMPI PUSH1 0x40 MLOAD PUSH32 0x8C379A000000000000000000000000000000000000000000000000000000000 DUP2 MSTORE PUSH1 0x4 ADD PUSH2 0x6C3 SWAP1 PUSH2 0x15A7 JUMP JUMPDEST PUSH1 0x40 MLOAD DUP1 SWAP2 SUB SWAP1 REVERT JUMPDEST PUSH1 0x1 DUP2 PUSH1 0x5 ADD PUSH0 PUSH2 0x100 EXP DUP2 SLOAD DUP2 PUSH1 0xFF MUL NOT AND SWAP1 DUP4 ISZERO ISZERO MUL OR SWAP1 SSTORE POP PUSH32 0x0 PUSH20 0xFFFFFFFFFFFFFFFFFFFFFFFFFFFFFFFFFFFFFFFF AND PUSH4 0xA9059CBB CALLER DUP4 PUSH1 0x2 ADD SLOAD PUSH1 0x40 MLOAD DUP4 PUSH4 0xFFFFFFFF AND PUSH1 0xE0 SHL DUP2 MSTORE PUSH1 0x4 ADD PUSH2 0x747 SWAP3 SWAP2 SWAP1 PUSH2 0x13DC JUMP JUMPDEST PUSH1 0x20 PUSH1 0x40 MLOAD DUP1 DUP4 SUB DUP2 PUSH0 DUP8 GAS CALL ISZERO DUP1 ISZERO PUSH2 0x763 JUMPI RETURNDATASIZE PUSH0 DUP1 RETURNDATACOPY RETURNDATASIZE PUSH0 REVERT JUMPDEST POP POP POP POP PUSH1 0x40 MLOAD RETURNDATASIZE PUSH1 0x1F NOT PUSH1 0x1F DUP3 ADD AND DUP3 ADD DUP1 PUSH1 0x40 MSTORE POP DUP2 ADD SWAP1 PUSH2 0x787 SWAP2 SWAP1 PUSH2 0x142D JUMP JUMPDEST POP PUSH32 0x7A355715549CFE7C1CBA26304350343FBDDC4B4F72D3CE3E7C27117DD20B5CB8 DUP3 PUSH1 0x40 MLOAD PUSH2 0x7B7 SWAP2 SWAP1 PUSH2 0x120F JUMP JUMPDEST PUSH1 0x40 MLOAD DUP1 SWAP2 SUB SWAP1 LOG1 POP POP JUMP JUMPDEST PUSH0 PUSH1 0x1 PUSH0 DUP4 DUP2 MSTORE PUSH1 0x20 ADD SWAP1 DUP2 MSTORE PUSH1 0x20 ADD PUSH0 KECCAK256 PUSH1 0x40 MLOAD DUP1 PUSH1 0xC0 ADD PUSH1 0x40 MSTORE SWAP1 DUP2 PUSH0 DUP3 ADD PUSH0 SWAP1 SLOAD SWAP1 PUSH2 0x100 EXP SWAP1 DIV PUSH20 0xFFFFFFFFFFFFFFFFFFFFFFFFFFFFFFFFFFFFFFFF AND PUSH20 0xFFFFFFFFFFFFFFFFFFFFFFFFFFFFFFFFFFFFFFFF AND PUSH20 0xFFFFFFFFFFFFFFFFFFFFFFFFFFFFFFFFFFFFFFFF AND DUP2 MSTORE PUSH1 0x20 ADD PUSH1 0x1 DUP3 ADD SLOAD DUP2 MSTORE PUSH1 0x20 ADD PUSH1 0x2 DUP3 ADD SLOAD DUP2 MSTORE PUSH1 0x20 ADD PUSH1 0x3 DUP3 ADD SLOAD DUP2 MSTORE PUSH1 0x20 ADD PUSH1 0x4 DUP3 ADD SLOAD DUP2 MSTORE PUSH1 0x20 ADD PUSH1 0x5 DUP3 ADD PUSH0 SWAP1 SLOAD SWAP1 PUSH2 0x100 EXP SWAP1 DIV PUSH1 0xFF AND ISZERO ISZERO ISZERO ISZERO DUP2 MSTORE POP POP SWAP1 POP DUP1 PUSH0 ADD MLOAD PUSH20 0xFFFFFFFFFFFFFFFFFFFFFFFFFFFFFFFFFFFFFFFF AND CALLER PUSH20 0xFFFFFFFFFFFFFFFFFFFFFFFFFFFFFFFFFFFFFFFF AND EQ PUSH2 0x8E9 JUMPI PUSH1 0x40 MLOAD PUSH32 0x8C379A000000000000000000000000000000000000000000000000000000000 DUP2 MSTORE PUSH1 0x4 ADD PUSH2 0x8E0 SWAP1 PUSH2 0x160F JUMP JUMPDEST PUSH1 0x40 MLOAD DUP1 SWAP2 SUB SWAP1 REVERT JUMPDEST DUP1 PUSH1 0x60 ADD MLOAD TIMESTAMP LT PUSH2 0x92F JUMPI PUSH1 0x40 MLOAD PUSH32 0x8C379A000000000000000000000000000000000000000000000000000000000 DUP2 MSTORE PUSH1 0x4 ADD PUSH2 0x926 SWAP1 PUSH2 0x1677 JUMP JUMPDEST PUSH1 0x40 MLOAD DUP1 SWAP2 SUB SWAP1 REVERT JUMPDEST PUSH1 0x1 PUSH0 DUP4 DUP2 MSTORE PUSH1 0x20 ADD SWAP1 DUP2 MSTORE PUSH1 0x20 ADD PUSH0 KECCAK256 PUSH0 DUP1 DUP3 ADD PUSH0 PUSH2 0x100 EXP DUP2 SLOAD SWAP1 PUSH20 0xFFFFFFFFFFFFFFFFFFFFFFFFFFFFFFFFFFFFFFFF MUL NOT AND SWAP1 SSTORE PUSH1 0x1 DUP3 ADD PUSH0 SWAP1 SSTORE PUSH1 0x2 DUP3 ADD PUSH0 SWAP1 SSTORE PUSH1 0x3 DUP3 ADD PUSH0 SWAP1 SSTORE PUSH1 0x4 DUP3 ADD PUSH0 SWAP1 SSTORE PUSH1 0x5 DUP3 ADD PUSH0 PUSH2 0x100 EXP DUP2 SLOAD SWAP1 PUSH1 0xFF MUL NOT AND SWAP1 SSTORE POP POP PUSH32 0x829A8683C544AD289CE92D3CE06E9EBAD69B18A6916E60EC766C2C217461D8E9 DUP3 PUSH1 0x40 MLOAD PUSH2 0x9C6 SWAP2 SWAP1 PUSH2 0x120F JUMP JUMPDEST PUSH1 0x40 MLOAD DUP1 SWAP2 SUB SWAP1 LOG1 POP POP JUMP JUMPDEST PUSH0 PUSH1 0x1 PUSH0 DUP5 DUP2 MSTORE PUSH1 0x20 ADD SWAP1 DUP2 MSTORE PUSH1 0x20 ADD PUSH0 KECCAK256 SWAP1 POP DUP1 PUSH1 0x4 ADD SLOAD TIMESTAMP LT PUSH2 0xA2C JUMPI PUSH1 0x40 MLOAD PUSH32 0x8C379A000000000000000000000000000000000000000000000000000000000 DUP2 MSTORE PUSH1 0x4 ADD PUSH2 0xA23 SWAP1 PUSH2 0x16DF JUMP JUMPDEST PUSH1 0x40 MLOAD DUP1 SWAP2 SUB SWAP1 REVERT JUMPDEST DUP2 DUP2 PUSH1 0x2 ADD PUSH0 DUP3 DUP3 SLOAD PUSH2 0xA3F SWAP2 SWAP1 PUSH2 0x16FD JUMP JUMPDEST SWAP3 POP POP DUP2 SWAP1 SSTORE POP DUP2 PUSH0 DUP1 DUP6 DUP2 MSTORE PUSH1 0x20 ADD SWAP1 DUP2 MSTORE PUSH1 0x20 ADD PUSH0 KECCAK256 PUSH0 CALLER PUSH20 0xFFFFFFFFFFFFFFFFFFFFFFFFFFFFFFFFFFFFFFFF AND PUSH20 0xFFFFFFFFFFFFFFFFFFFFFFFFFFFFFFFFFFFFFFFF AND DUP2 MSTORE PUSH1 0x20 ADD SWAP1 DUP2 MSTORE PUSH1 0x20 ADD PUSH0 KECCAK256 PUSH0 DUP3 DUP3 SLOAD PUSH2 0xAA0 SWAP2 SWAP1 PUSH2 0x16FD JUMP JUMPDEST SWAP3 POP POP DUP2 SWAP1 SSTORE POP PUSH32 0x0 PUSH20 0xFFFFFFFFFFFFFFFFFFFFFFFFFFFFFFFFFFFFFFFF AND PUSH4 0xA9059CBB CALLER DUP5 PUSH1 0x40 MLOAD DUP4 PUSH4 0xFFFFFFFF AND PUSH1 0xE0 SHL DUP2 MSTORE PUSH1 0x4 ADD PUSH2 0xB02 SWAP3 SWAP2 SWAP1 PUSH2 0x13DC JUMP JUMPDEST PUSH1 0x20 PUSH1 0x40 MLOAD DUP1 DUP4 SUB DUP2 PUSH0 DUP8 GAS CALL ISZERO DUP1 ISZERO PUSH2 0xB1E JUMPI RETURNDATASIZE PUSH0 DUP1 RETURNDATACOPY RETURNDATASIZE PUSH0 REVERT JUMPDEST POP POP POP POP PUSH1 0x40 MLOAD RETURNDATASIZE PUSH1 0x1F NOT PUSH1 0x1F DUP3 ADD AND DUP3 ADD DUP1 PUSH1 0x40 MSTORE POP DUP2 ADD SWAP1 PUSH2 0xB42 SWAP2 SWAP1 PUSH2 0x142D JUMP JUMPDEST POP PUSH32 0xFCD29B1632C6748A9A4BB9B4CD5C6486C3C84A8550DCE2368F83FEF3969D9685 DUP4 CALLER DUP5 PUSH1 0x40 MLOAD PUSH2 0xB76 SWAP4 SWAP3 SWAP2 SWAP1 PUSH2 0x1458 JUMP JUMPDEST PUSH1 0x40 MLOAD DUP1 SWAP2 SUB SWAP1 LOG1 POP POP POP JUMP JUMPDEST TIMESTAMP DUP3 LT ISZERO PUSH2 0xBC6 JUMPI PUSH1 0x40 MLOAD PUSH32 0x8C379A000000000000000000000000000000000000000000000000000000000 DUP2 MSTORE PUSH1 0x4 ADD PUSH2 0xBBD SWAP1 PUSH2 0x177A JUMP JUMPDEST PUSH1 0x40 MLOAD DUP1 SWAP2 SUB SWAP1 REVERT JUMPDEST PUSH1 0xA DUP3 PUSH2 0xBD3 SWAP2 SWAP1 PUSH2 0x12C9 JUMP JUMPDEST DUP2 LT ISZERO PUSH2 0xC15 JUMPI PUSH1 0x40 MLOAD PUSH32 0x8C379A000000000000000000000000000000000000000000000000000000000 DUP2 MSTORE PUSH1 0x4 ADD PUSH2 0xC0C SWAP1 PUSH2 0x17E2 JUMP JUMPDEST PUSH1 0x40 MLOAD DUP1 SWAP2 SUB SWAP1 REVERT JUMPDEST PUSH3 0x83D600 DUP3 PUSH2 0xC24 SWAP2 SWAP1 PUSH2 0x12C9 JUMP JUMPDEST DUP2 GT ISZERO PUSH2 0xC66 JUMPI PUSH1 0x40 MLOAD PUSH32 0x8C379A000000000000000000000000000000000000000000000000000000000 DUP2 MSTORE PUSH1 0x4 ADD PUSH2 0xC5D SWAP1 PUSH2 0x184A JUMP JUMPDEST PUSH1 0x40 MLOAD DUP1 SWAP2 SUB SWAP1 REVERT JUMPDEST PUSH1 0x40 MLOAD DUP1 PUSH1 0xC0 ADD PUSH1 0x40 MSTORE DUP1 CALLER PUSH20 0xFFFFFFFFFFFFFFFFFFFFFFFFFFFFFFFFFFFFFFFF AND DUP2 MSTORE PUSH1 0x20 ADD DUP5 DUP2 MSTORE PUSH1 0x20 ADD PUSH0 DUP2 MSTORE PUSH1 0x20 ADD DUP4 DUP2 MSTORE PUSH1 0x20 ADD DUP3 DUP2 MSTORE PUSH1 0x20 ADD PUSH0 ISZERO ISZERO DUP2 MSTORE POP PUSH1 0x1 PUSH0 PUSH1 0x2 SLOAD DUP2 MSTORE PUSH1 0x20 ADD SWAP1 DUP2 MSTORE PUSH1 0x20 ADD PUSH0 KECCAK256 PUSH0 DUP3 ADD MLOAD DUP2 PUSH0 ADD PUSH0 PUSH2 0x100 EXP DUP2 SLOAD DUP2 PUSH20 0xFFFFFFFFFFFFFFFFFFFFFFFFFFFFFFFFFFFFFFFF MUL NOT AND SWAP1 DUP4 PUSH20 0xFFFFFFFFFFFFFFFFFFFFFFFFFFFFFFFFFFFFFFFF AND MUL OR SWAP1 SSTORE POP PUSH1 0x20 DUP3 ADD MLOAD DUP2 PUSH1 0x1 ADD SSTORE PUSH1 0x40 DUP3 ADD MLOAD DUP2 PUSH1 0x2 ADD SSTORE PUSH1 0x60 DUP3 ADD MLOAD DUP2 PUSH1 0x3 ADD SSTORE PUSH1 0x80 DUP3 ADD MLOAD DUP2 PUSH1 0x4 ADD SSTORE PUSH1 0xA0 DUP3 ADD MLOAD DUP2 PUSH1 0x5 ADD PUSH0 PUSH2 0x100 EXP DUP2 SLOAD DUP2 PUSH1 0xFF MUL NOT AND SWAP1 DUP4 ISZERO ISZERO MUL OR SWAP1 SSTORE POP SWAP1 POP POP PUSH32 0xEA7DC5BE41326789A621AAA33D671281D0A54AA87610751DEF19F8544C2004C3 PUSH1 0x2 SLOAD CALLER DUP6 DUP6 DUP6 PUSH1 0x40 MLOAD PUSH2 0xD85 SWAP6 SWAP5 SWAP4 SWAP3 SWAP2 SWAP1 PUSH2 0x1868 JUMP JUMPDEST PUSH1 0x40 MLOAD DUP1 SWAP2 SUB SWAP1 LOG1 PUSH1 0x2 PUSH0 DUP2 SLOAD DUP1 SWAP3 SWAP2 SWAP1 PUSH2 0xD9F SWAP1 PUSH2 0x18B9 JUMP JUMPDEST SWAP2 SWAP1 POP SSTORE POP POP POP POP JUMP JUMPDEST PUSH3 0x83D600 DUP2 JUMP JUMPDEST PUSH1 0xA DUP2 JUMP JUMPDEST PUSH0 PUSH1 0x1 PUSH0 DUP4 DUP2 MSTORE PUSH1 0x20 ADD SWAP1 DUP2 MSTORE PUSH1 0x20 ADD PUSH0 KECCAK256 SWAP1 POP PUSH1 0x5 TIMESTAMP PUSH2 0xDD6 SWAP2 SWAP1 PUSH2 0x16FD JUMP JUMPDEST DUP2 PUSH1 0x4 ADD DUP2 SWAP1 SSTORE POP POP POP JUMP JUMPDEST PUSH1 0x2 SLOAD DUP2 JUMP JUMPDEST PUSH0 DUP1 PUSH0 TIMESTAMP SWAP1 POP PUSH1 0x14 DUP2 PUSH2 0xDFB SWAP2 SWAP1 PUSH2 0x12C9 JUMP JUMPDEST PUSH3 0x76A700 DUP3 PUSH2 0xE0A SWAP2 SWAP1 PUSH2 0x12C9 JUMP JUMPDEST SWAP3 POP SWAP3 POP POP SWAP1 SWAP2 JUMP JUMPDEST PUSH32 0x0 DUP2 JUMP JUMPDEST PUSH0 PUSH1 0x1 PUSH0 DUP5 DUP2 MSTORE PUSH1 0x20 ADD SWAP1 DUP2 MSTORE PUSH1 0x20 ADD PUSH0 KECCAK256 SWAP1 POP DUP1 PUSH1 0x3 ADD SLOAD TIMESTAMP LT ISZERO PUSH2 0xE92 JUMPI PUSH1 0x40 MLOAD PUSH32 0x8C379A000000000000000000000000000000000000000000000000000000000 DUP2 MSTORE PUSH1 0x4 ADD PUSH2 0xE89 SWAP1 PUSH2 0x194A JUMP JUMPDEST PUSH1 0x40 MLOAD DUP1 SWAP2 SUB SWAP1 REVERT JUMPDEST DUP1 PUSH1 0x4 ADD SLOAD TIMESTAMP LT PUSH2 0xED8 JUMPI PUSH1 0x40 MLOAD PUSH32 0x8C379A000000000000000000000000000000000000000000000000000000000 DUP2 MSTORE PUSH1 0x4 ADD PUSH2 0xECF SWAP1 PUSH2 0x16DF JUMP JUMPDEST PUSH1 0x40 MLOAD DUP1 SWAP2 SUB SWAP1 REVERT JUMPDEST DUP2 DUP2 PUSH1 0x2 ADD PUSH0 DUP3 DUP3 SLOAD PUSH2 0xEEB SWAP2 SWAP1 PUSH2 0x12C9 JUMP JUMPDEST SWAP3 POP POP DUP2 SWAP1 SSTORE POP DUP2 PUSH0 DUP1 DUP6 DUP2 MSTORE PUSH1 0x20 ADD SWAP1 DUP2 MSTORE PUSH1 0x20 ADD PUSH0 KECCAK256 PUSH0 CALLER PUSH20 0xFFFFFFFFFFFFFFFFFFFFFFFFFFFFFFFFFFFFFFFF AND PUSH20 0xFFFFFFFFFFFFFFFFFFFFFFFFFFFFFFFFFFFFFFFF AND DUP2 MSTORE PUSH1 0x20 ADD SWAP1 DUP2 MSTORE PUSH1 0x20 ADD PUSH0 KECCAK256 PUSH0 DUP3 DUP3 SLOAD PUSH2 0xF4C SWAP2 SWAP1 PUSH2 0x12C9 JUMP JUMPDEST SWAP3 POP POP DUP2 SWAP1 SSTORE POP PUSH32 0x0 PUSH20 0xFFFFFFFFFFFFFFFFFFFFFFFFFFFFFFFFFFFFFFFF AND PUSH4 0x23B872DD CALLER ADDRESS DUP6 PUSH1 0x40 MLOAD DUP5 PUSH4 0xFFFFFFFF AND PUSH1 0xE0 SHL DUP2 MSTORE PUSH1 0x4 ADD PUSH2 0xFB0 SWAP4 SWAP3 SWAP2 SWAP1 PUSH2 0x1968 JUMP JUMPDEST PUSH1 0x20 PUSH1 0x40 MLOAD DUP1 DUP4 SUB DUP2 PUSH0 DUP8 GAS CALL ISZERO DUP1 ISZERO PUSH2 0xFCC JUMPI RETURNDATASIZE PUSH0 DUP1 RETURNDATACOPY RETURNDATASIZE PUSH0 REVERT JUMPDEST POP POP POP POP PUSH1 0x40 MLOAD RETURNDATASIZE PUSH1 0x1F NOT PUSH1 0x1F DUP3 ADD AND DUP3 ADD DUP1 PUSH1 0x40 MSTORE POP DUP2 ADD SWAP1 PUSH2 0xFF0 SWAP2 SWAP1 PUSH2 0x142D JUMP JUMPDEST POP PUSH32 0x2757AC6A40883F4491CC56930AE964DF9034E343E660D5179EB01E198336756B DUP4 CALLER DUP5 PUSH1 0x40 MLOAD PUSH2 0x1024 SWAP4 SWAP3 SWAP2 SWAP1 PUSH2 0x1458 JUMP JUMPDEST PUSH1 0x40 MLOAD DUP1 SWAP2 SUB SWAP1 LOG1 POP POP POP JUMP JUMPDEST PUSH0 DUP2 SWAP1 POP SWAP2 SWAP1 POP JUMP JUMPDEST PUSH2 0x1043 DUP2 PUSH2 0x1031 JUMP JUMPDEST DUP3 MSTORE POP POP JUMP JUMPDEST PUSH0 PUSH1 0x40 DUP3 ADD SWAP1 POP PUSH2 0x105C PUSH0 DUP4 ADD DUP6 PUSH2 0x103A JUMP JUMPDEST PUSH2 0x1069 PUSH1 0x20 DUP4 ADD DUP5 PUSH2 0x103A JUMP JUMPDEST SWAP4 SWAP3 POP POP POP JUMP JUMPDEST PUSH0 DUP1 REVERT JUMPDEST PUSH2 0x107D DUP2 PUSH2 0x1031 JUMP JUMPDEST DUP2 EQ PUSH2 0x1087 JUMPI PUSH0 DUP1 REVERT JUMPDEST POP JUMP JUMPDEST PUSH0 DUP2 CALLDATALOAD SWAP1 POP PUSH2 0x1098 DUP2 PUSH2 0x1074 JUMP JUMPDEST SWAP3 SWAP2 POP POP JUMP JUMPDEST PUSH0 PUSH1 0x20 DUP3 DUP5 SUB SLT ISZERO PUSH2 0x10B3 JUMPI PUSH2 0x10B2 PUSH2 0x1070 JUMP JUMPDEST JUMPDEST PUSH0 PUSH2 0x10C0 DUP5 DUP3 DUP6 ADD PUSH2 0x108A JUMP JUMPDEST SWAP2 POP POP SWAP3 SWAP2 POP POP JUMP JUMPDEST PUSH0 PUSH20 0xFFFFFFFFFFFFFFFFFFFFFFFFFFFFFFFFFFFFFFFF DUP3 AND SWAP1 POP SWAP2 SWAP1 POP JUMP JUMPDEST PUSH0 PUSH2 0x10F2 DUP3 PUSH2 0x10C9 JUMP JUMPDEST SWAP1 POP SWAP2 SWAP1 POP JUMP JUMPDEST PUSH2 0x1102 DUP2 PUSH2 0x10E8 JUMP JUMPDEST DUP3 MSTORE POP POP JUMP JUMPDEST PUSH0 DUP2 ISZERO ISZERO SWAP1 POP SWAP2 SWAP1 POP JUMP JUMPDEST PUSH2 0x111C DUP2 PUSH2 0x1108 JUMP JUMPDEST DUP3 MSTORE POP POP JUMP JUMPDEST PUSH0 PUSH1 0xC0 DUP3 ADD SWAP1 POP PUSH2 0x1135 PUSH0 DUP4 ADD DUP10 PUSH2 0x10F9 JUMP JUMPDEST PUSH2 0x1142 PUSH1 0x20 DUP4 ADD DUP9 PUSH2 0x103A JUMP JUMPDEST PUSH2 0x114F PUSH1 0x40 DUP4 ADD DUP8 PUSH2 0x103A JUMP JUMPDEST PUSH2 0x115C PUSH1 0x60 DUP4 ADD DUP7 PUSH2 0x103A JUMP JUMPDEST PUSH2 0x1169 PUSH1 0x80 DUP4 ADD DUP6 PUSH2 0x103A JUMP JUMPDEST PUSH2 0x1176 PUSH1 0xA0 DUP4 ADD DUP5 PUSH2 0x1113 JUMP JUMPDEST SWAP8 SWAP7 POP POP POP POP POP POP POP JUMP JUMPDEST PUSH0 DUP1 PUSH1 0x40 DUP4 DUP6 SUB SLT ISZERO PUSH2 0x1197 JUMPI PUSH2 0x1196 PUSH2 0x1070 JUMP JUMPDEST JUMPDEST PUSH0 PUSH2 0x11A4 DUP6 DUP3 DUP7 ADD PUSH2 0x108A JUMP JUMPDEST SWAP3 POP POP PUSH1 0x20 PUSH2 0x11B5 DUP6 DUP3 DUP7 ADD PUSH2 0x108A JUMP JUMPDEST SWAP2 POP POP SWAP3 POP SWAP3 SWAP1 POP JUMP JUMPDEST PUSH0 DUP1 PUSH0 PUSH1 0x60 DUP5 DUP7 SUB SLT ISZERO PUSH2 0x11D6 JUMPI PUSH2 0x11D5 PUSH2 0x1070 JUMP JUMPDEST JUMPDEST PUSH0 PUSH2 0x11E3 DUP7 DUP3 DUP8 ADD PUSH2 0x108A JUMP JUMPDEST SWAP4 POP POP PUSH1 0x20 PUSH2 0x11F4 DUP7 DUP3 DUP8 ADD PUSH2 0x108A JUMP JUMPDEST SWAP3 POP POP PUSH1 0x40 PUSH2 0x1205 DUP7 DUP3 DUP8 ADD PUSH2 0x108A JUMP JUMPDEST SWAP2 POP POP SWAP3 POP SWAP3 POP SWAP3 JUMP JUMPDEST PUSH0 PUSH1 0x20 DUP3 ADD SWAP1 POP PUSH2 0x1222 PUSH0 DUP4 ADD DUP5 PUSH2 0x103A JUMP JUMPDEST SWAP3 SWAP2 POP POP JUMP JUMPDEST PUSH0 DUP2 SWAP1 POP SWAP2 SWAP1 POP JUMP JUMPDEST PUSH0 PUSH2 0x124B PUSH2 0x1246 PUSH2 0x1241 DUP5 PUSH2 0x10C9 JUMP JUMPDEST PUSH2 0x1228 JUMP JUMPDEST PUSH2 0x10C9 JUMP JUMPDEST SWAP1 POP SWAP2 SWAP1 POP JUMP JUMPDEST PUSH0 PUSH2 0x125C DUP3 PUSH2 0x1231 JUMP JUMPDEST SWAP1 POP SWAP2 SWAP1 POP JUMP JUMPDEST PUSH0 PUSH2 0x126D DUP3 PUSH2 0x1252 JUMP JUMPDEST SWAP1 POP SWAP2 SWAP1 POP JUMP JUMPDEST PUSH2 0x127D DUP2 PUSH2 0x1263 JUMP JUMPDEST DUP3 MSTORE POP POP JUMP JUMPDEST PUSH0 PUSH1 0x20 DUP3 ADD SWAP1 POP PUSH2 0x1296 PUSH0 DUP4 ADD DUP5 PUSH2 0x1274 JUMP JUMPDEST SWAP3 SWAP2 POP POP JUMP JUMPDEST PUSH32 0x4E487B7100000000000000000000000000000000000000000000000000000000 PUSH0 MSTORE PUSH1 0x11 PUSH1 0x4 MSTORE PUSH1 0x24 PUSH0 REVERT JUMPDEST PUSH0 PUSH2 0x12D3 DUP3 PUSH2 0x1031 JUMP JUMPDEST SWAP2 POP PUSH2 0x12DE DUP4 PUSH2 0x1031 JUMP JUMPDEST SWAP3 POP DUP3 DUP3 ADD SWAP1 POP DUP1 DUP3 GT ISZERO PUSH2 0x12F6 JUMPI PUSH2 0x12F5 PUSH2 0x129C JUMP JUMPDEST JUMPDEST SWAP3 SWAP2 POP POP JUMP JUMPDEST PUSH0 DUP3 DUP3 MSTORE PUSH1 0x20 DUP3 ADD SWAP1 POP SWAP3 SWAP2 POP POP JUMP JUMPDEST PUSH32 0x6E6F7420656E6465640000000000000000000000000000000000000000000000 PUSH0 DUP3 ADD MSTORE POP JUMP JUMPDEST PUSH0 PUSH2 0x1340 PUSH1 0x9 DUP4 PUSH2 0x12FC JUMP JUMPDEST SWAP2 POP PUSH2 0x134B DUP3 PUSH2 0x130C JUMP JUMPDEST PUSH1 0x20 DUP3 ADD SWAP1 POP SWAP2 SWAP1 POP JUMP JUMPDEST PUSH0 PUSH1 0x20 DUP3 ADD SWAP1 POP DUP2 DUP2 SUB PUSH0 DUP4 ADD MSTORE PUSH2 0x136D DUP2 PUSH2 0x1334 JUMP JUMPDEST SWAP1 POP SWAP2 SWAP1 POP JUMP JUMPDEST PUSH32 0x7265616368656420676F616C0000000000000000000000000000000000000000 PUSH0 DUP3 ADD MSTORE POP JUMP JUMPDEST PUSH0 PUSH2 0x13A8 PUSH1 0xC DUP4 PUSH2 0x12FC JUMP JUMPDEST SWAP2 POP PUSH2 0x13B3 DUP3 PUSH2 0x1374 JUMP JUMPDEST PUSH1 0x20 DUP3 ADD SWAP1 POP SWAP2 SWAP1 POP JUMP JUMPDEST PUSH0 PUSH1 0x20 DUP3 ADD SWAP1 POP DUP2 DUP2 SUB PUSH0 DUP4 ADD MSTORE PUSH2 0x13D5 DUP2 PUSH2 0x139C JUMP JUMPDEST SWAP1 POP SWAP2 SWAP1 POP JUMP JUMPDEST PUSH0 PUSH1 0x40 DUP3 ADD SWAP1 POP PUSH2 0x13EF PUSH0 DUP4 ADD DUP6 PUSH2 0x10F9 JUMP JUMPDEST PUSH2 0x13FC PUSH1 0x20 DUP4 ADD DUP5 PUSH2 0x103A JUMP JUMPDEST SWAP4 SWAP3 POP POP POP JUMP JUMPDEST PUSH2 0x140C DUP2 PUSH2 0x1108 JUMP JUMPDEST DUP2 EQ PUSH2 0x1416 JUMPI PUSH0 DUP1 REVERT JUMPDEST POP JUMP JUMPDEST PUSH0 DUP2 MLOAD SWAP1 POP PUSH2 0x1427 DUP2 PUSH2 0x1403 JUMP JUMPDEST SWAP3 SWAP2 POP POP JUMP JUMPDEST PUSH0 PUSH1 0x20 DUP3 DUP5 SUB SLT ISZERO PUSH2 0x1442 JUMPI PUSH2 0x1441 PUSH2 0x1070 JUMP JUMPDEST JUMPDEST PUSH0 PUSH2 0x144F DUP5 DUP3 DUP6 ADD PUSH2 0x1419 JUMP JUMPDEST SWAP2 POP POP SWAP3 SWAP2 POP POP JUMP JUMPDEST PUSH0 PUSH1 0x60 DUP3 ADD SWAP1 POP PUSH2 0x146B PUSH0 DUP4 ADD DUP7 PUSH2 0x103A JUMP JUMPDEST PUSH2 0x1478 PUSH1 0x20 DUP4 ADD DUP6 PUSH2 0x10F9 JUMP JUMPDEST PUSH2 0x1485 PUSH1 0x40 DUP4 ADD DUP5 PUSH2 0x103A JUMP JUMPDEST SWAP5 SWAP4 POP POP POP POP JUMP JUMPDEST PUSH32 0x6E6F7420616E20636F6D70616E79206F776E6572000000000000000000000000 PUSH0 DUP3 ADD MSTORE POP JUMP JUMPDEST PUSH0 PUSH2 0x14C1 PUSH1 0x14 DUP4 PUSH2 0x12FC JUMP JUMPDEST SWAP2 POP PUSH2 0x14CC DUP3 PUSH2 0x148D JUMP JUMPDEST PUSH1 0x20 DUP3 ADD SWAP1 POP SWAP2 SWAP1 POP JUMP JUMPDEST PUSH0 PUSH1 0x20 DUP3 ADD SWAP1 POP DUP2 DUP2 SUB PUSH0 DUP4 ADD MSTORE PUSH2 0x14EE DUP2 PUSH2 0x14B5 JUMP JUMPDEST SWAP1 POP SWAP2 SWAP1 POP JUMP JUMPDEST PUSH32 0x706C656467656420697320746F6F206C6F770000000000000000000000000000 PUSH0 DUP3 ADD MSTORE POP JUMP JUMPDEST PUSH0 PUSH2 0x1529 PUSH1 0x12 DUP4 PUSH2 0x12FC JUMP JUMPDEST SWAP2 POP PUSH2 0x1534 DUP3 PUSH2 0x14F5 JUMP JUMPDEST PUSH1 0x20 DUP3 ADD SWAP1 POP SWAP2 SWAP1 POP JUMP JUMPDEST PUSH0 PUSH1 0x20 DUP3 ADD SWAP1 POP DUP2 DUP2 SUB PUSH0 DUP4 ADD MSTORE PUSH2 0x1556 DUP2 PUSH2 0x151D JUMP JUMPDEST SWAP1 POP SWAP2 SWAP1 POP JUMP JUMPDEST PUSH32 0x616C726561647920636C61696D65640000000000000000000000000000000000 PUSH0 DUP3 ADD MSTORE POP JUMP JUMPDEST PUSH0 PUSH2 0x1591 PUSH1 0xF DUP4 PUSH2 0x12FC JUMP JUMPDEST SWAP2 POP PUSH2 0x159C DUP3 PUSH2 0x155D JUMP JUMPDEST PUSH1 0x20 DUP3 ADD SWAP1 POP SWAP2 SWAP1 POP JUMP JUMPDEST PUSH0 PUSH1 0x20 DUP3 ADD SWAP1 POP DUP2 DUP2 SUB PUSH0 DUP4 ADD MSTORE PUSH2 0x15BE DUP2 PUSH2 0x1585 JUMP JUMPDEST SWAP1 POP SWAP2 SWAP1 POP JUMP JUMPDEST PUSH32 0x6E6F7420616E206F776E65720000000000000000000000000000000000000000 PUSH0 DUP3 ADD MSTORE POP JUMP JUMPDEST PUSH0 PUSH2 0x15F9 PUSH1 0xC DUP4 PUSH2 0x12FC JUMP JUMPDEST SWAP2 POP PUSH2 0x1604 DUP3 PUSH2 0x15C5 JUMP JUMPDEST PUSH1 0x20 DUP3 ADD SWAP1 POP SWAP2 SWAP1 POP JUMP JUMPDEST PUSH0 PUSH1 0x20 DUP3 ADD SWAP1 POP DUP2 DUP2 SUB PUSH0 DUP4 ADD MSTORE PUSH2 0x1626 DUP2 PUSH2 0x15ED JUMP JUMPDEST SWAP1 POP SWAP2 SWAP1 POP JUMP JUMPDEST PUSH32 0x616C726561647920737461727465640000000000000000000000000000000000 PUSH0 DUP3 ADD MSTORE POP JUMP JUMPDEST PUSH0 PUSH2 0x1661 PUSH1 0xF DUP4 PUSH2 0x12FC JUMP JUMPDEST SWAP2 POP PUSH2 0x166C DUP3 PUSH2 0x162D JUMP JUMPDEST PUSH1 0x20 DUP3 ADD SWAP1 POP SWAP2 SWAP1 POP JUMP JUMPDEST PUSH0 PUSH1 0x20 DUP3 ADD SWAP1 POP DUP2 DUP2 SUB PUSH0 DUP4 ADD MSTORE PUSH2 0x168E DUP2 PUSH2 0x1655 JUMP JUMPDEST SWAP1 POP SWAP2 SWAP1 POP JUMP JUMPDEST PUSH32 0x656E646564000000000000000000000000000000000000000000000000000000 PUSH0 DUP3 ADD MSTORE POP JUMP JUMPDEST PUSH0 PUSH2 0x16C9 PUSH1 0x5 DUP4 PUSH2 0x12FC JUMP JUMPDEST SWAP2 POP PUSH2 0x16D4 DUP3 PUSH2 0x1695 JUMP JUMPDEST PUSH1 0x20 DUP3 ADD SWAP1 POP SWAP2 SWAP1 POP JUMP JUMPDEST PUSH0 PUSH1 0x20 DUP3 ADD SWAP1 POP DUP2 DUP2 SUB PUSH0 DUP4 ADD MSTORE PUSH2 0x16F6 DUP2 PUSH2 0x16BD JUMP JUMPDEST SWAP1 POP SWAP2 SWAP1 POP JUMP JUMPDEST PUSH0 PUSH2 0x1707 DUP3 PUSH2 0x1031 JUMP JUMPDEST SWAP2 POP PUSH2 0x1712 DUP4 PUSH2 0x1031 JUMP JUMPDEST SWAP3 POP DUP3 DUP3 SUB SWAP1 POP DUP2 DUP2 GT ISZERO PUSH2 0x172A JUMPI PUSH2 0x1729 PUSH2 0x129C JUMP JUMPDEST JUMPDEST SWAP3 SWAP2 POP POP JUMP JUMPDEST PUSH32 0x696E636F72726563742073746172742061740000000000000000000000000000 PUSH0 DUP3 ADD MSTORE POP JUMP JUMPDEST PUSH0 PUSH2 0x1764 PUSH1 0x12 DUP4 PUSH2 0x12FC JUMP JUMPDEST SWAP2 POP PUSH2 0x176F DUP3 PUSH2 0x1730 JUMP JUMPDEST PUSH1 0x20 DUP3 ADD SWAP1 POP SWAP2 SWAP1 POP JUMP JUMPDEST PUSH0 PUSH1 0x20 DUP3 ADD SWAP1 POP DUP2 DUP2 SUB PUSH0 DUP4 ADD MSTORE PUSH2 0x1791 DUP2 PUSH2 0x1758 JUMP JUMPDEST SWAP1 POP SWAP2 SWAP1 POP JUMP JUMPDEST PUSH32 0x696E636F727265637420656E6420617400000000000000000000000000000000 PUSH0 DUP3 ADD MSTORE POP JUMP JUMPDEST PUSH0 PUSH2 0x17CC PUSH1 0x10 DUP4 PUSH2 0x12FC JUMP JUMPDEST SWAP2 POP PUSH2 0x17D7 DUP3 PUSH2 0x1798 JUMP JUMPDEST PUSH1 0x20 DUP3 ADD SWAP1 POP SWAP2 SWAP1 POP JUMP JUMPDEST PUSH0 PUSH1 0x20 DUP3 ADD SWAP1 POP DUP2 DUP2 SUB PUSH0 DUP4 ADD MSTORE PUSH2 0x17F9 DUP2 PUSH2 0x17C0 JUMP JUMPDEST SWAP1 POP SWAP2 SWAP1 POP JUMP JUMPDEST PUSH32 0x746F6F206C6F6E67000000000000000000000000000000000000000000000000 PUSH0 DUP3 ADD MSTORE POP JUMP JUMPDEST PUSH0 PUSH2 0x1834 PUSH1 0x8 DUP4 PUSH2 0x12FC JUMP JUMPDEST SWAP2 POP PUSH2 0x183F DUP3 PUSH2 0x1800 JUMP JUMPDEST PUSH1 0x20 DUP3 ADD SWAP1 POP SWAP2 SWAP1 POP JUMP JUMPDEST PUSH0 PUSH1 0x20 DUP3 ADD SWAP1 POP DUP2 DUP2 SUB PUSH0 DUP4 ADD MSTORE PUSH2 0x1861 DUP2 PUSH2 0x1828 JUMP JUMPDEST SWAP1 POP SWAP2 SWAP1 POP JUMP JUMPDEST PUSH0 PUSH1 0xA0 DUP3 ADD SWAP1 POP PUSH2 0x187B PUSH0 DUP4 ADD DUP9 PUSH2 0x103A JUMP JUMPDEST PUSH2 0x1888 PUSH1 0x20 DUP4 ADD DUP8 PUSH2 0x10F9 JUMP JUMPDEST PUSH2 0x1895 PUSH1 0x40 DUP4 ADD DUP7 PUSH2 0x103A JUMP JUMPDEST PUSH2 0x18A2 PUSH1 0x60 DUP4 ADD DUP6 PUSH2 0x103A JUMP JUMPDEST PUSH2 0x18AF PUSH1 0x80 DUP4 ADD DUP5 PUSH2 0x103A JUMP JUMPDEST SWAP7 SWAP6 POP POP POP POP POP POP JUMP JUMPDEST PUSH0 PUSH2 0x18C3 DUP3 PUSH2 0x1031 JUMP JUMPDEST SWAP2 POP PUSH32 0xFFFFFFFFFFFFFFFFFFFFFFFFFFFFFFFFFFFFFFFFFFFFFFFFFFFFFFFFFFFFFFFF DUP3 SUB PUSH2 0x18F5 JUMPI PUSH2 0x18F4 PUSH2 0x129C JUMP JUMPDEST JUMPDEST PUSH1 0x1 DUP3 ADD SWAP1 POP SWAP2 SWAP1 POP JUMP JUMPDEST PUSH32 0x6E6F742073746172746564000000000000000000000000000000000000000000 PUSH0 DUP3 ADD MSTORE POP JUMP JUMPDEST PUSH0 PUSH2 0x1934 PUSH1 0xB DUP4 PUSH2 0x12FC JUMP JUMPDEST SWAP2 POP PUSH2 0x193F DUP3 PUSH2 0x1900 JUMP JUMPDEST PUSH1 0x20 DUP3 ADD SWAP1 POP SWAP2 SWAP1 POP JUMP JUMPDEST PUSH0 PUSH1 0x20 DUP3 ADD SWAP1 POP DUP2 DUP2 SUB PUSH0 DUP4 ADD MSTORE PUSH2 0x1961 DUP2 PUSH2 0x1928 JUMP JUMPDEST SWAP1 POP SWAP2 SWAP1 POP JUMP JUMPDEST PUSH0 PUSH1 0x60 DUP3 ADD SWAP1 POP PUSH2 0x197B PUSH0 DUP4 ADD DUP7 PUSH2 0x10F9 JUMP JUMPDEST PUSH2 0x1988 PUSH1 0x20 DUP4 ADD DUP6 PUSH2 0x10F9 JUMP JUMPDEST PUSH2 0x1995 PUSH1 0x40 DUP4 ADD DUP5 PUSH2 0x103A JUMP JUMPDEST SWAP5 SWAP4 POP POP POP POP JUMP INVALID LOG2 PUSH5 0x6970667358 0x22 SLT KECCAK256 XOR 0xEE STOP NOT 0xB5 NUMBER 0xDF NOT 0xF9 GAS DUP10 SGT SWAP1 0xC1 0xB9 SWAP2 0xD7 PUSH23 0xC4D585419EDFCA21569B0A323AF864736F6C634300081A STOP CALLER "
				},
				"gasEstimates": {
					"creation": {
						"codeDepositCost": "1322200",
						"executionCost": "infinite",
						"totalCost": "infinite"
					},
					"external": {
						"MAX_DURATION()": "348",
						"MIN_DURATION()": "370",
						"cancel(uint256)": "infinite",
						"claim(uint256)": "infinite",
						"companies(uint256)": "infinite",
						"currentId()": "2447",
						"endCompany(uint256)": "infinite",
						"getLongTestTime()": "infinite",
						"getShortTestTime()": "infinite",
						"launch(uint256,uint256,uint256)": "infinite",
						"pledge(uint256,uint256)": "infinite",
						"refund(uint256)": "infinite",
						"token()": "infinite",
						"unpledge(uint256,uint256)": "infinite"
					}
				},
				"methodIdentifiers": {
					"MAX_DURATION()": "b1724b46",
					"MIN_DURATION()": "b6a6d177",
					"cancel(uint256)": "40e58ee5",
					"claim(uint256)": "379607f5",
					"companies(uint256)": "2813d19d",
					"currentId()": "e00dd161",
					"endCompany(uint256)": "d99b1db7",
					"getLongTestTime()": "fa3c196b",
					"getShortTestTime()": "0833317b",
					"launch(uint256,uint256,uint256)": "8736c179",
					"pledge(uint256,uint256)": "fde327be",
					"refund(uint256)": "278ecde1",
					"token()": "fc0c546a",
					"unpledge(uint256,uint256)": "711853ab"
				}
			},
			"storageLayout": {
				"storage": [
					{
						"astId": 25,
						"contract": "crowdfunding/Crowdfunding.sol:Crowdfunding",
						"label": "pledges",
						"offset": 0,
						"slot": "0",
						"type": "t_mapping(t_uint256,t_mapping(t_address,t_uint256))"
					},
					{
						"astId": 30,
						"contract": "crowdfunding/Crowdfunding.sol:Crowdfunding",
						"label": "companies",
						"offset": 0,
						"slot": "1",
						"type": "t_mapping(t_uint256,t_struct(Company)16_storage)"
					},
					{
						"astId": 32,
						"contract": "crowdfunding/Crowdfunding.sol:Crowdfunding",
						"label": "currentId",
						"offset": 0,
						"slot": "2",
						"type": "t_uint256"
					}
				],
				"types": {
					"t_address": {
						"encoding": "inplace",
						"label": "address",
						"numberOfBytes": "20"
					},
					"t_bool": {
						"encoding": "inplace",
						"label": "bool",
						"numberOfBytes": "1"
					},
					"t_mapping(t_address,t_uint256)": {
						"encoding": "mapping",
						"key": "t_address",
						"label": "mapping(address => uint256)",
						"numberOfBytes": "32",
						"value": "t_uint256"
					},
					"t_mapping(t_uint256,t_mapping(t_address,t_uint256))": {
						"encoding": "mapping",
						"key": "t_uint256",
						"label": "mapping(uint256 => mapping(address => uint256))",
						"numberOfBytes": "32",
						"value": "t_mapping(t_address,t_uint256)"
					},
					"t_mapping(t_uint256,t_struct(Company)16_storage)": {
						"encoding": "mapping",
						"key": "t_uint256",
						"label": "mapping(uint256 => struct Crowdfunding.Company)",
						"numberOfBytes": "32",
						"value": "t_struct(Company)16_storage"
					},
					"t_struct(Company)16_storage": {
						"encoding": "inplace",
						"label": "struct Crowdfunding.Company",
						"members": [
							{
								"astId": 5,
								"contract": "crowdfunding/Crowdfunding.sol:Crowdfunding",
								"label": "owner",
								"offset": 0,
								"slot": "0",
								"type": "t_address"
							},
							{
								"astId": 7,
								"contract": "crowdfunding/Crowdfunding.sol:Crowdfunding",
								"label": "goal",
								"offset": 0,
								"slot": "1",
								"type": "t_uint256"
							},
							{
								"astId": 9,
								"contract": "crowdfunding/Crowdfunding.sol:Crowdfunding",
								"label": "pledged",
								"offset": 0,
								"slot": "2",
								"type": "t_uint256"
							},
							{
								"astId": 11,
								"contract": "crowdfunding/Crowdfunding.sol:Crowdfunding",
								"label": "startAt",
								"offset": 0,
								"slot": "3",
								"type": "t_uint256"
							},
							{
								"astId": 13,
								"contract": "crowdfunding/Crowdfunding.sol:Crowdfunding",
								"label": "endAt",
								"offset": 0,
								"slot": "4",
								"type": "t_uint256"
							},
							{
								"astId": 15,
								"contract": "crowdfunding/Crowdfunding.sol:Crowdfunding",
								"label": "claimed",
								"offset": 0,
								"slot": "5",
								"type": "t_bool"
							}
						],
						"numberOfBytes": "192"
					},
					"t_uint256": {
						"encoding": "inplace",
						"label": "uint256",
						"numberOfBytes": "32"
					}
				}
			},
			"userdoc": {
				"kind": "user",
				"methods": {
					"cancel(uint256)": {
						"notice": "отмена компании по id"
					},
					"claim(uint256)": {
						"notice": "вывести при удале компании средства только для владельца компании"
					},
					"launch(uint256,uint256,uint256)": {
						"notice": "запуск компании"
					},
					"pledge(uint256,uint256)": {
						"notice": "пожертвовать компании по id для использования функции нужно сделать allowance на адрес этого контракта"
					},
					"refund(uint256)": {
						"notice": "вывести средства жертвователем при неудачном окончании компании"
					},
					"unpledge(uint256,uint256)": {
						"notice": "вывести свои пожертвования (можно часть) по окончании компании (неудаче)"
					}
				},
				"notice": "краудфандинг на erc20, хранит компании с пожертвованиями возможность закинуть в компанию, вывести забрать деньги при успехе комании и вернуть средства при неудаче",
				"version": 1
			}
		}
	}
}