{
	"crowdfunding/Crowdfunding.sol": {
		"Crowdfunding": {
			"abi": [
				{
					"inputs": [
						{
							"internalType": "address",
							"name": "_token",
							"type": "address"
						}
					],
					"stateMutability": "nonpayable",
					"type": "constructor"
				},
				{
					"anonymous": false,
					"inputs": [
						{
							"indexed": false,
							"internalType": "uint256",
							"name": "id",
							"type": "uint256"
						}
					],
					"name": "Canceled",
					"type": "event"
				},
				{
					"anonymous": false,
					"inputs": [
						{
							"indexed": false,
							"internalType": "uint256",
							"name": "id",
							"type": "uint256"
						}
					],
					"name": "Claimed",
					"type": "event"
				},
				{
					"anonymous": false,
					"inputs": [
						{
							"indexed": false,
							"internalType": "uint256",
							"name": "id",
							"type": "uint256"
						},
						{
							"indexed": false,
							"internalType": "address",
							"name": "owner",
							"type": "address"
						},
						{
							"indexed": false,
							"internalType": "uint256",
							"name": "goal",
							"type": "uint256"
						},
						{
							"indexed": false,
							"internalType": "uint256",
							"name": "startAt",
							"type": "uint256"
						},
						{
							"indexed": false,
							"internalType": "uint256",
							"name": "endAt",
							"type": "uint256"
						}
					],
					"name": "Launched",
					"type": "event"
				},
				{
					"anonymous": false,
					"inputs": [
						{
							"indexed": false,
							"internalType": "uint256",
							"name": "id",
							"type": "uint256"
						},
						{
							"indexed": false,
							"internalType": "address",
							"name": "pledger",
							"type": "address"
						},
						{
							"indexed": false,
							"internalType": "uint256",
							"name": "amount",
							"type": "uint256"
						}
					],
					"name": "Pledged",
					"type": "event"
				},
				{
					"anonymous": false,
					"inputs": [
						{
							"indexed": false,
							"internalType": "uint256",
							"name": "id",
							"type": "uint256"
						},
						{
							"indexed": false,
							"internalType": "address",
							"name": "pledger",
							"type": "address"
						},
						{
							"indexed": false,
							"internalType": "uint256",
							"name": "amount",
							"type": "uint256"
						}
					],
					"name": "Refunded",
					"type": "event"
				},
				{
					"anonymous": false,
					"inputs": [
						{
							"indexed": false,
							"internalType": "uint256",
							"name": "id",
							"type": "uint256"
						},
						{
							"indexed": false,
							"internalType": "address",
							"name": "pledger",
							"type": "address"
						},
						{
							"indexed": false,
							"internalType": "uint256",
							"name": "amount",
							"type": "uint256"
						}
					],
					"name": "Unpledged",
					"type": "event"
				},
				{
					"inputs": [],
					"name": "MAX_DURATION",
					"outputs": [
						{
							"internalType": "uint256",
							"name": "",
							"type": "uint256"
						}
					],
					"stateMutability": "view",
					"type": "function"
				},
				{
					"inputs": [],
					"name": "MIN_DURATION",
					"outputs": [
						{
							"internalType": "uint256",
							"name": "",
							"type": "uint256"
						}
					],
					"stateMutability": "view",
					"type": "function"
				},
				{
					"inputs": [
						{
							"internalType": "uint256",
							"name": "_id",
							"type": "uint256"
						}
					],
					"name": "cancel",
					"outputs": [],
					"stateMutability": "nonpayable",
					"type": "function"
				},
				{
					"inputs": [
						{
							"internalType": "uint256",
							"name": "_id",
							"type": "uint256"
						}
					],
					"name": "claim",
					"outputs": [],
					"stateMutability": "nonpayable",
					"type": "function"
				},
				{
					"inputs": [
						{
							"internalType": "uint256",
							"name": "",
							"type": "uint256"
						}
					],
					"name": "companies",
					"outputs": [
						{
							"internalType": "address",
							"name": "owner",
							"type": "address"
						},
						{
							"internalType": "uint256",
							"name": "goal",
							"type": "uint256"
						},
						{
							"internalType": "uint256",
							"name": "pledged",
							"type": "uint256"
						},
						{
							"internalType": "uint256",
							"name": "startAt",
							"type": "uint256"
						},
						{
							"internalType": "uint256",
							"name": "endAt",
							"type": "uint256"
						},
						{
							"internalType": "bool",
							"name": "claimed",
							"type": "bool"
						}
					],
					"stateMutability": "view",
					"type": "function"
				},
				{
					"inputs": [],
					"name": "currentId",
					"outputs": [
						{
							"internalType": "uint256",
							"name": "",
							"type": "uint256"
						}
					],
					"stateMutability": "view",
					"type": "function"
				},
				{
					"inputs": [],
					"name": "getTestTime",
					"outputs": [
						{
							"internalType": "uint256",
							"name": "",
							"type": "uint256"
						},
						{
							"internalType": "uint256",
							"name": "",
							"type": "uint256"
						}
					],
					"stateMutability": "view",
					"type": "function"
				},
				{
					"inputs": [
						{
							"internalType": "uint256",
							"name": "_goal",
							"type": "uint256"
						},
						{
							"internalType": "uint256",
							"name": "_startAt",
							"type": "uint256"
						},
						{
							"internalType": "uint256",
							"name": "_endAt",
							"type": "uint256"
						}
					],
					"name": "launch",
					"outputs": [],
					"stateMutability": "nonpayable",
					"type": "function"
				},
				{
					"inputs": [
						{
							"internalType": "uint256",
							"name": "_id",
							"type": "uint256"
						},
						{
							"internalType": "uint256",
							"name": "_amount",
							"type": "uint256"
						}
					],
					"name": "pledge",
					"outputs": [],
					"stateMutability": "nonpayable",
					"type": "function"
				},
				{
					"inputs": [
						{
							"internalType": "uint256",
							"name": "_id",
							"type": "uint256"
						}
					],
					"name": "refund",
					"outputs": [],
					"stateMutability": "nonpayable",
					"type": "function"
				},
				{
					"inputs": [],
					"name": "token",
					"outputs": [
						{
							"internalType": "contract IERC20",
							"name": "",
							"type": "address"
						}
					],
					"stateMutability": "view",
					"type": "function"
				},
				{
					"inputs": [
						{
							"internalType": "uint256",
							"name": "_id",
							"type": "uint256"
						},
						{
							"internalType": "uint256",
							"name": "_amount",
							"type": "uint256"
						}
					],
					"name": "unpledge",
					"outputs": [],
					"stateMutability": "nonpayable",
					"type": "function"
				}
			],
			"devdoc": {
				"kind": "dev",
				"methods": {
					"cancel(uint256)": {
						"params": {
							"_id": "id компании"
						}
					},
					"claim(uint256)": {
						"params": {
							"_id": "id компании"
						}
					},
					"launch(uint256,uint256,uint256)": {
						"params": {
							"_endAt": "когда заканчивается",
							"_goal": "цель сумма",
							"_startAt": "когда начинается"
						}
					},
					"pledge(uint256,uint256)": {
						"params": {
							"_amount": "сумма",
							"_id": "id компании"
						}
					},
					"unpledge(uint256,uint256)": {
						"params": {
							"_amount": "сумма",
							"_id": "id компании"
						}
					}
				},
				"version": 1
			},
			"evm": {
				"assembly": "    /* \"crowdfunding/Crowdfunding.sol\":451:5875  contract Crowdfunding {... */\n  mstore(0x40, 0xa0)\n    /* \"crowdfunding/Crowdfunding.sol\":1322:1389  constructor(address _token) {... */\n  callvalue\n  dup1\n  iszero\n  tag_1\n  jumpi\n  0x00\n  dup1\n  revert\ntag_1:\n  pop\n  mload(0x40)\n  sub(codesize, bytecodeSize)\n  dup1\n  bytecodeSize\n  dup4\n  codecopy\n  dup2\n  dup2\n  add\n  0x40\n  mstore\n  dup2\n  add\n  swap1\n  tag_2\n  swap2\n  swap1\n  tag_3\n  jump\t// in\ntag_2:\n    /* \"crowdfunding/Crowdfunding.sol\":1375:1381  _token */\n  dup1\n    /* \"crowdfunding/Crowdfunding.sol\":1360:1382  token = IERC20(_token) */\n  0xffffffffffffffffffffffffffffffffffffffff\n  and\n  0x80\n  dup2\n  0xffffffffffffffffffffffffffffffffffffffff\n  and\n  dup2\n  mstore\n  pop\n  pop\n    /* \"crowdfunding/Crowdfunding.sol\":1322:1389  constructor(address _token) {... */\n  pop\n    /* \"crowdfunding/Crowdfunding.sol\":451:5875  contract Crowdfunding {... */\n  jump(tag_6)\n    /* \"#utility.yul\":88:205   */\ntag_8:\n    /* \"#utility.yul\":197:198   */\n  0x00\n    /* \"#utility.yul\":194:195   */\n  dup1\n    /* \"#utility.yul\":187:199   */\n  revert\n    /* \"#utility.yul\":334:460   */\ntag_10:\n    /* \"#utility.yul\":371:378   */\n  0x00\n    /* \"#utility.yul\":411:453   */\n  0xffffffffffffffffffffffffffffffffffffffff\n    /* \"#utility.yul\":404:409   */\n  dup3\n    /* \"#utility.yul\":400:454   */\n  and\n    /* \"#utility.yul\":389:454   */\n  swap1\n  pop\n    /* \"#utility.yul\":334:460   */\n  swap2\n  swap1\n  pop\n  jump\t// out\n    /* \"#utility.yul\":466:562   */\ntag_11:\n    /* \"#utility.yul\":503:510   */\n  0x00\n    /* \"#utility.yul\":532:556   */\n  tag_20\n    /* \"#utility.yul\":550:555   */\n  dup3\n    /* \"#utility.yul\":532:556   */\n  tag_10\n  jump\t// in\ntag_20:\n    /* \"#utility.yul\":521:556   */\n  swap1\n  pop\n    /* \"#utility.yul\":466:562   */\n  swap2\n  swap1\n  pop\n  jump\t// out\n    /* \"#utility.yul\":568:690   */\ntag_12:\n    /* \"#utility.yul\":641:665   */\n  tag_22\n    /* \"#utility.yul\":659:664   */\n  dup2\n    /* \"#utility.yul\":641:665   */\n  tag_11\n  jump\t// in\ntag_22:\n    /* \"#utility.yul\":634:639   */\n  dup2\n    /* \"#utility.yul\":631:666   */\n  eq\n    /* \"#utility.yul\":621:684   */\n  tag_23\n  jumpi\n    /* \"#utility.yul\":680:681   */\n  0x00\n    /* \"#utility.yul\":677:678   */\n  dup1\n    /* \"#utility.yul\":670:682   */\n  revert\n    /* \"#utility.yul\":621:684   */\ntag_23:\n    /* \"#utility.yul\":568:690   */\n  pop\n  jump\t// out\n    /* \"#utility.yul\":696:839   */\ntag_13:\n    /* \"#utility.yul\":753:758   */\n  0x00\n    /* \"#utility.yul\":784:790   */\n  dup2\n    /* \"#utility.yul\":778:791   */\n  mload\n    /* \"#utility.yul\":769:791   */\n  swap1\n  pop\n    /* \"#utility.yul\":800:833   */\n  tag_25\n    /* \"#utility.yul\":827:832   */\n  dup2\n    /* \"#utility.yul\":800:833   */\n  tag_12\n  jump\t// in\ntag_25:\n    /* \"#utility.yul\":696:839   */\n  swap3\n  swap2\n  pop\n  pop\n  jump\t// out\n    /* \"#utility.yul\":845:1196   */\ntag_3:\n    /* \"#utility.yul\":915:921   */\n  0x00\n    /* \"#utility.yul\":964:966   */\n  0x20\n    /* \"#utility.yul\":952:961   */\n  dup3\n    /* \"#utility.yul\":943:950   */\n  dup5\n    /* \"#utility.yul\":939:962   */\n  sub\n    /* \"#utility.yul\":935:967   */\n  slt\n    /* \"#utility.yul\":932:1051   */\n  iszero\n  tag_27\n  jumpi\n    /* \"#utility.yul\":970:1049   */\n  tag_28\n  tag_8\n  jump\t// in\ntag_28:\n    /* \"#utility.yul\":932:1051   */\ntag_27:\n    /* \"#utility.yul\":1090:1091   */\n  0x00\n    /* \"#utility.yul\":1115:1179   */\n  tag_29\n    /* \"#utility.yul\":1171:1178   */\n  dup5\n    /* \"#utility.yul\":1162:1168   */\n  dup3\n    /* \"#utility.yul\":1151:1160   */\n  dup6\n    /* \"#utility.yul\":1147:1169   */\n  add\n    /* \"#utility.yul\":1115:1179   */\n  tag_13\n  jump\t// in\ntag_29:\n    /* \"#utility.yul\":1105:1179   */\n  swap2\n  pop\n    /* \"#utility.yul\":1061:1189   */\n  pop\n    /* \"#utility.yul\":845:1196   */\n  swap3\n  swap2\n  pop\n  pop\n  jump\t// out\n    /* \"crowdfunding/Crowdfunding.sol\":451:5875  contract Crowdfunding {... */\ntag_6:\n  mload(0x80)\n  codecopy(0x00, dataOffset(sub_0), dataSize(sub_0))\n  0x00\n  assignImmutable(\"0x939eb54753ed0cc7e2272bfb34cbe098308c93936ed54d79078f76ade0b2e789\")\n  return(0x00, dataSize(sub_0))\nstop\n\nsub_0: assembly {\n        /* \"crowdfunding/Crowdfunding.sol\":451:5875  contract Crowdfunding {... */\n      mstore(0x40, 0x80)\n      callvalue\n      dup1\n      iszero\n      tag_1\n      jumpi\n      0x00\n      dup1\n      revert\n    tag_1:\n      pop\n      jumpi(tag_2, lt(calldatasize, 0x04))\n      shr(0xe0, calldataload(0x00))\n      dup1\n      0x8736c179\n      gt\n      tag_15\n      jumpi\n      dup1\n      0x8736c179\n      eq\n      tag_9\n      jumpi\n      dup1\n      0xb1724b46\n      eq\n      tag_10\n      jumpi\n      dup1\n      0xb6a6d177\n      eq\n      tag_11\n      jumpi\n      dup1\n      0xe00dd161\n      eq\n      tag_12\n      jumpi\n      dup1\n      0xfc0c546a\n      eq\n      tag_13\n      jumpi\n      dup1\n      0xfde327be\n      eq\n      tag_14\n      jumpi\n      jump(tag_2)\n    tag_15:\n      dup1\n      0x23c9f684\n      eq\n      tag_3\n      jumpi\n      dup1\n      0x278ecde1\n      eq\n      tag_4\n      jumpi\n      dup1\n      0x2813d19d\n      eq\n      tag_5\n      jumpi\n      dup1\n      0x379607f5\n      eq\n      tag_6\n      jumpi\n      dup1\n      0x40e58ee5\n      eq\n      tag_7\n      jumpi\n      dup1\n      0x711853ab\n      eq\n      tag_8\n      jumpi\n    tag_2:\n      0x00\n      dup1\n      revert\n        /* \"crowdfunding/Crowdfunding.sol\":5716:5873  function getTestTime() public view returns (uint256, uint256) {... */\n    tag_3:\n      tag_16\n      tag_17\n      jump\t// in\n    tag_16:\n      mload(0x40)\n      tag_18\n      swap3\n      swap2\n      swap1\n      tag_19\n      jump\t// in\n    tag_18:\n      mload(0x40)\n      dup1\n      swap2\n      sub\n      swap1\n      return\n        /* \"crowdfunding/Crowdfunding.sol\":5175:5668  function refund(uint _id) external {... */\n    tag_4:\n      tag_20\n      0x04\n      dup1\n      calldatasize\n      sub\n      dup2\n      add\n      swap1\n      tag_21\n      swap2\n      swap1\n      tag_22\n      jump\t// in\n    tag_21:\n      tag_23\n      jump\t// in\n    tag_20:\n      stop\n        /* \"crowdfunding/Crowdfunding.sol\":797:838  mapping(uint => Company) public companies */\n    tag_5:\n      tag_24\n      0x04\n      dup1\n      calldatasize\n      sub\n      dup2\n      add\n      swap1\n      tag_25\n      swap2\n      swap1\n      tag_22\n      jump\t// in\n    tag_25:\n      tag_26\n      jump\t// in\n    tag_24:\n      mload(0x40)\n      tag_27\n      swap7\n      swap6\n      swap5\n      swap4\n      swap3\n      swap2\n      swap1\n      tag_28\n      jump\t// in\n    tag_27:\n      mload(0x40)\n      dup1\n      swap2\n      sub\n      swap1\n      return\n        /* \"crowdfunding/Crowdfunding.sol\":4411:5008  function claim(uint _id) external {... */\n    tag_6:\n      tag_29\n      0x04\n      dup1\n      calldatasize\n      sub\n      dup2\n      add\n      swap1\n      tag_30\n      swap2\n      swap1\n      tag_22\n      jump\t// in\n    tag_30:\n      tag_31\n      jump\t// in\n    tag_29:\n      stop\n        /* \"crowdfunding/Crowdfunding.sol\":2396:2680  function cancel(uint _id) external {... */\n    tag_7:\n      tag_32\n      0x04\n      dup1\n      calldatasize\n      sub\n      dup2\n      add\n      swap1\n      tag_33\n      swap2\n      swap1\n      tag_22\n      jump\t// in\n    tag_33:\n      tag_34\n      jump\t// in\n    tag_32:\n      stop\n        /* \"crowdfunding/Crowdfunding.sol\":3755:4203  function unpledge(uint _id, uint _amount) external {... */\n    tag_8:\n      tag_35\n      0x04\n      dup1\n      calldatasize\n      sub\n      dup2\n      add\n      swap1\n      tag_36\n      swap2\n      swap1\n      tag_37\n      jump\t// in\n    tag_36:\n      tag_38\n      jump\t// in\n    tag_35:\n      stop\n        /* \"crowdfunding/Crowdfunding.sol\":1614:2281  function launch(uint _goal, uint _startAt, uint _endAt) external {... */\n    tag_9:\n      tag_39\n      0x04\n      dup1\n      calldatasize\n      sub\n      dup2\n      add\n      swap1\n      tag_40\n      swap2\n      swap1\n      tag_41\n      jump\t// in\n    tag_40:\n      tag_42\n      jump\t// in\n    tag_39:\n      stop\n        /* \"crowdfunding/Crowdfunding.sol\":911:955  uint public constant MAX_DURATION = 100 days */\n    tag_10:\n      tag_43\n      tag_44\n      jump\t// in\n    tag_43:\n      mload(0x40)\n      tag_45\n      swap2\n      swap1\n      tag_46\n      jump\t// in\n    tag_45:\n      mload(0x40)\n      dup1\n      swap2\n      sub\n      swap1\n      return\n        /* \"crowdfunding/Crowdfunding.sol\":961:999  uint public constant MIN_DURATION = 10 */\n    tag_11:\n      tag_47\n      tag_48\n      jump\t// in\n    tag_47:\n      mload(0x40)\n      tag_49\n      swap2\n      swap1\n      tag_46\n      jump\t// in\n    tag_49:\n      mload(0x40)\n      dup1\n      swap2\n      sub\n      swap1\n      return\n        /* \"crowdfunding/Crowdfunding.sol\":883:904  uint public currentId */\n    tag_12:\n      tag_50\n      tag_51\n      jump\t// in\n    tag_50:\n      mload(0x40)\n      tag_52\n      swap2\n      swap1\n      tag_46\n      jump\t// in\n    tag_52:\n      mload(0x40)\n      dup1\n      swap2\n      sub\n      swap1\n      return\n        /* \"crowdfunding/Crowdfunding.sol\":635:664  IERC20 public immutable token */\n    tag_13:\n      tag_53\n      tag_54\n      jump\t// in\n    tag_53:\n      mload(0x40)\n      tag_55\n      swap2\n      swap1\n      tag_56\n      jump\t// in\n    tag_55:\n      mload(0x40)\n      dup1\n      swap2\n      sub\n      swap1\n      return\n        /* \"crowdfunding/Crowdfunding.sol\":2988:3503  function pledge(uint _id, uint _amount) external {... */\n    tag_14:\n      tag_57\n      0x04\n      dup1\n      calldatasize\n      sub\n      dup2\n      add\n      swap1\n      tag_58\n      swap2\n      swap1\n      tag_37\n      jump\t// in\n    tag_58:\n      tag_59\n      jump\t// in\n    tag_57:\n      stop\n        /* \"crowdfunding/Crowdfunding.sol\":5716:5873  function getTestTime() public view returns (uint256, uint256) {... */\n    tag_17:\n        /* \"crowdfunding/Crowdfunding.sol\":5760:5767  uint256 */\n      0x00\n        /* \"crowdfunding/Crowdfunding.sol\":5769:5776  uint256 */\n      dup1\n        /* \"crowdfunding/Crowdfunding.sol\":5788:5803  uint256 current */\n      0x00\n        /* \"crowdfunding/Crowdfunding.sol\":5806:5821  block.timestamp */\n      timestamp\n        /* \"crowdfunding/Crowdfunding.sol\":5788:5821  uint256 current = block.timestamp */\n      swap1\n      pop\n        /* \"crowdfunding/Crowdfunding.sol\":5849:5851  20 */\n      0x14\n        /* \"crowdfunding/Crowdfunding.sol\":5839:5846  current */\n      dup2\n        /* \"crowdfunding/Crowdfunding.sol\":5839:5851  current + 20 */\n      tag_61\n      swap2\n      swap1\n      tag_62\n      jump\t// in\n    tag_61:\n        /* \"crowdfunding/Crowdfunding.sol\":5863:5865  60 */\n      0x3c\n        /* \"crowdfunding/Crowdfunding.sol\":5853:5860  current */\n      dup3\n        /* \"crowdfunding/Crowdfunding.sol\":5853:5865  current + 60 */\n      tag_63\n      swap2\n      swap1\n      tag_62\n      jump\t// in\n    tag_63:\n        /* \"crowdfunding/Crowdfunding.sol\":5831:5866  return (current + 20, current + 60) */\n      swap3\n      pop\n      swap3\n      pop\n      pop\n        /* \"crowdfunding/Crowdfunding.sol\":5716:5873  function getTestTime() public view returns (uint256, uint256) {... */\n      swap1\n      swap2\n      jump\t// out\n        /* \"crowdfunding/Crowdfunding.sol\":5175:5668  function refund(uint _id) external {... */\n    tag_23:\n        /* \"crowdfunding/Crowdfunding.sol\":5220:5243  Company storage company */\n      0x00\n        /* \"crowdfunding/Crowdfunding.sol\":5246:5255  companies */\n      0x01\n        /* \"crowdfunding/Crowdfunding.sol\":5246:5260  companies[_id] */\n      0x00\n        /* \"crowdfunding/Crowdfunding.sol\":5256:5259  _id */\n      dup4\n        /* \"crowdfunding/Crowdfunding.sol\":5246:5260  companies[_id] */\n      dup2\n      mstore\n      0x20\n      add\n      swap1\n      dup2\n      mstore\n      0x20\n      add\n      0x00\n      keccak256\n        /* \"crowdfunding/Crowdfunding.sol\":5220:5260  Company storage company = companies[_id] */\n      swap1\n      pop\n        /* \"crowdfunding/Crowdfunding.sol\":5296:5303  company */\n      dup1\n        /* \"crowdfunding/Crowdfunding.sol\":5296:5309  company.endAt */\n      0x04\n      add\n      sload\n        /* \"crowdfunding/Crowdfunding.sol\":5278:5293  block.timestamp */\n      timestamp\n        /* \"crowdfunding/Crowdfunding.sol\":5278:5309  block.timestamp > company.endAt */\n      gt\n        /* \"crowdfunding/Crowdfunding.sol\":5270:5323  require(block.timestamp > company.endAt, \"not ended\") */\n      tag_65\n      jumpi\n      mload(0x40)\n      0x08c379a000000000000000000000000000000000000000000000000000000000\n      dup2\n      mstore\n      0x04\n      add\n      tag_66\n      swap1\n      tag_67\n      jump\t// in\n    tag_66:\n      mload(0x40)\n      dup1\n      swap2\n      sub\n      swap1\n      revert\n    tag_65:\n        /* \"crowdfunding/Crowdfunding.sol\":5359:5366  company */\n      dup1\n        /* \"crowdfunding/Crowdfunding.sol\":5359:5371  company.goal */\n      0x01\n      add\n      sload\n        /* \"crowdfunding/Crowdfunding.sol\":5341:5348  company */\n      dup2\n        /* \"crowdfunding/Crowdfunding.sol\":5341:5356  company.pledged */\n      0x02\n      add\n      sload\n        /* \"crowdfunding/Crowdfunding.sol\":5341:5371  company.pledged < company.goal */\n      lt\n        /* \"crowdfunding/Crowdfunding.sol\":5333:5388  require(company.pledged < company.goal, \"reached goal\") */\n      tag_68\n      jumpi\n      mload(0x40)\n      0x08c379a000000000000000000000000000000000000000000000000000000000\n      dup2\n      mstore\n      0x04\n      add\n      tag_69\n      swap1\n      tag_70\n      jump\t// in\n    tag_69:\n      mload(0x40)\n      dup1\n      swap2\n      sub\n      swap1\n      revert\n    tag_68:\n        /* \"crowdfunding/Crowdfunding.sol\":5399:5417  uint pledgedAmount */\n      0x00\n        /* \"crowdfunding/Crowdfunding.sol\":5420:5427  pledges */\n      dup1\n        /* \"crowdfunding/Crowdfunding.sol\":5420:5432  pledges[_id] */\n      0x00\n        /* \"crowdfunding/Crowdfunding.sol\":5428:5431  _id */\n      dup5\n        /* \"crowdfunding/Crowdfunding.sol\":5420:5432  pledges[_id] */\n      dup2\n      mstore\n      0x20\n      add\n      swap1\n      dup2\n      mstore\n      0x20\n      add\n      0x00\n      keccak256\n        /* \"crowdfunding/Crowdfunding.sol\":5420:5444  pledges[_id][msg.sender] */\n      0x00\n        /* \"crowdfunding/Crowdfunding.sol\":5433:5443  msg.sender */\n      caller\n        /* \"crowdfunding/Crowdfunding.sol\":5420:5444  pledges[_id][msg.sender] */\n      0xffffffffffffffffffffffffffffffffffffffff\n      and\n      0xffffffffffffffffffffffffffffffffffffffff\n      and\n      dup2\n      mstore\n      0x20\n      add\n      swap1\n      dup2\n      mstore\n      0x20\n      add\n      0x00\n      keccak256\n      sload\n        /* \"crowdfunding/Crowdfunding.sol\":5399:5444  uint pledgedAmount = pledges[_id][msg.sender] */\n      swap1\n      pop\n        /* \"crowdfunding/Crowdfunding.sol\":5481:5482  0 */\n      0x00\n        /* \"crowdfunding/Crowdfunding.sol\":5454:5461  pledges */\n      dup1\n        /* \"crowdfunding/Crowdfunding.sol\":5454:5466  pledges[_id] */\n      0x00\n        /* \"crowdfunding/Crowdfunding.sol\":5462:5465  _id */\n      dup6\n        /* \"crowdfunding/Crowdfunding.sol\":5454:5466  pledges[_id] */\n      dup2\n      mstore\n      0x20\n      add\n      swap1\n      dup2\n      mstore\n      0x20\n      add\n      0x00\n      keccak256\n        /* \"crowdfunding/Crowdfunding.sol\":5454:5478  pledges[_id][msg.sender] */\n      0x00\n        /* \"crowdfunding/Crowdfunding.sol\":5467:5477  msg.sender */\n      caller\n        /* \"crowdfunding/Crowdfunding.sol\":5454:5478  pledges[_id][msg.sender] */\n      0xffffffffffffffffffffffffffffffffffffffff\n      and\n      0xffffffffffffffffffffffffffffffffffffffff\n      and\n      dup2\n      mstore\n      0x20\n      add\n      swap1\n      dup2\n      mstore\n      0x20\n      add\n      0x00\n      keccak256\n        /* \"crowdfunding/Crowdfunding.sol\":5454:5482  pledges[_id][msg.sender] = 0 */\n      dup2\n      swap1\n      sstore\n      pop\n        /* \"crowdfunding/Crowdfunding.sol\":5565:5570  token */\n      immutable(\"0x939eb54753ed0cc7e2272bfb34cbe098308c93936ed54d79078f76ade0b2e789\")\n        /* \"crowdfunding/Crowdfunding.sol\":5565:5579  token.transfer */\n      0xffffffffffffffffffffffffffffffffffffffff\n      and\n      0xa9059cbb\n        /* \"crowdfunding/Crowdfunding.sol\":5580:5590  msg.sender */\n      caller\n        /* \"crowdfunding/Crowdfunding.sol\":5592:5605  pledgedAmount */\n      dup4\n        /* \"crowdfunding/Crowdfunding.sol\":5565:5606  token.transfer(msg.sender, pledgedAmount) */\n      mload(0x40)\n      dup4\n      0xffffffff\n      and\n      0xe0\n      shl\n      dup2\n      mstore\n      0x04\n      add\n      tag_71\n      swap3\n      swap2\n      swap1\n      tag_72\n      jump\t// in\n    tag_71:\n      0x20\n      mload(0x40)\n      dup1\n      dup4\n      sub\n      dup2\n      0x00\n      dup8\n      gas\n      call\n      iszero\n      dup1\n      iszero\n      tag_74\n      jumpi\n      returndatasize\n      0x00\n      dup1\n      returndatacopy\n      revert(0x00, returndatasize)\n    tag_74:\n      pop\n      pop\n      pop\n      pop\n      mload(0x40)\n      returndatasize\n      not(0x1f)\n      0x1f\n      dup3\n      add\n      and\n      dup3\n      add\n      dup1\n      0x40\n      mstore\n      pop\n      dup2\n      add\n      swap1\n      tag_75\n      swap2\n      swap1\n      tag_76\n      jump\t// in\n    tag_75:\n      pop\n        /* \"crowdfunding/Crowdfunding.sol\":5621:5661  Refunded(_id, msg.sender, pledgedAmount) */\n      0x7ca5472b7ea78c2c0141c5a12ee6d170cf4ce8ed06be3d22c8252ddfc7a6a2c4\n        /* \"crowdfunding/Crowdfunding.sol\":5630:5633  _id */\n      dup4\n        /* \"crowdfunding/Crowdfunding.sol\":5635:5645  msg.sender */\n      caller\n        /* \"crowdfunding/Crowdfunding.sol\":5647:5660  pledgedAmount */\n      dup4\n        /* \"crowdfunding/Crowdfunding.sol\":5621:5661  Refunded(_id, msg.sender, pledgedAmount) */\n      mload(0x40)\n      tag_77\n      swap4\n      swap3\n      swap2\n      swap1\n      tag_78\n      jump\t// in\n    tag_77:\n      mload(0x40)\n      dup1\n      swap2\n      sub\n      swap1\n      log1\n        /* \"crowdfunding/Crowdfunding.sol\":5210:5668  {... */\n      pop\n      pop\n        /* \"crowdfunding/Crowdfunding.sol\":5175:5668  function refund(uint _id) external {... */\n      pop\n      jump\t// out\n        /* \"crowdfunding/Crowdfunding.sol\":797:838  mapping(uint => Company) public companies */\n    tag_26:\n      mstore(0x20, 0x01)\n      dup1\n      0x00\n      mstore\n      keccak256(0x00, 0x40)\n      0x00\n      swap2\n      pop\n      swap1\n      pop\n      dup1\n      0x00\n      add\n      0x00\n      swap1\n      sload\n      swap1\n      0x0100\n      exp\n      swap1\n      div\n      0xffffffffffffffffffffffffffffffffffffffff\n      and\n      swap1\n      dup1\n      0x01\n      add\n      sload\n      swap1\n      dup1\n      0x02\n      add\n      sload\n      swap1\n      dup1\n      0x03\n      add\n      sload\n      swap1\n      dup1\n      0x04\n      add\n      sload\n      swap1\n      dup1\n      0x05\n      add\n      0x00\n      swap1\n      sload\n      swap1\n      0x0100\n      exp\n      swap1\n      div\n      0xff\n      and\n      swap1\n      pop\n      dup7\n      jump\t// out\n        /* \"crowdfunding/Crowdfunding.sol\":4411:5008  function claim(uint _id) external {... */\n    tag_31:\n        /* \"crowdfunding/Crowdfunding.sol\":4455:4478  Company storage company */\n      0x00\n        /* \"crowdfunding/Crowdfunding.sol\":4481:4490  companies */\n      0x01\n        /* \"crowdfunding/Crowdfunding.sol\":4481:4495  companies[_id] */\n      0x00\n        /* \"crowdfunding/Crowdfunding.sol\":4491:4494  _id */\n      dup4\n        /* \"crowdfunding/Crowdfunding.sol\":4481:4495  companies[_id] */\n      dup2\n      mstore\n      0x20\n      add\n      swap1\n      dup2\n      mstore\n      0x20\n      add\n      0x00\n      keccak256\n        /* \"crowdfunding/Crowdfunding.sol\":4455:4495  Company storage company = companies[_id] */\n      swap1\n      pop\n        /* \"crowdfunding/Crowdfunding.sol\":4527:4534  company */\n      dup1\n        /* \"crowdfunding/Crowdfunding.sol\":4527:4540  company.owner */\n      0x00\n      add\n      0x00\n      swap1\n      sload\n      swap1\n      0x0100\n      exp\n      swap1\n      div\n      0xffffffffffffffffffffffffffffffffffffffff\n      and\n        /* \"crowdfunding/Crowdfunding.sol\":4513:4540  msg.sender == company.owner */\n      0xffffffffffffffffffffffffffffffffffffffff\n      and\n        /* \"crowdfunding/Crowdfunding.sol\":4513:4523  msg.sender */\n      caller\n        /* \"crowdfunding/Crowdfunding.sol\":4513:4540  msg.sender == company.owner */\n      0xffffffffffffffffffffffffffffffffffffffff\n      and\n      eq\n        /* \"crowdfunding/Crowdfunding.sol\":4505:4557  require(msg.sender == company.owner, \"not an owner\") */\n      tag_80\n      jumpi\n      mload(0x40)\n      0x08c379a000000000000000000000000000000000000000000000000000000000\n      dup2\n      mstore\n      0x04\n      add\n      tag_81\n      swap1\n      tag_82\n      jump\t// in\n    tag_81:\n      mload(0x40)\n      dup1\n      swap2\n      sub\n      swap1\n      revert\n    tag_80:\n        /* \"crowdfunding/Crowdfunding.sol\":4593:4600  company */\n      dup1\n        /* \"crowdfunding/Crowdfunding.sol\":4593:4606  company.endAt */\n      0x04\n      add\n      sload\n        /* \"crowdfunding/Crowdfunding.sol\":4575:4590  block.timestamp */\n      timestamp\n        /* \"crowdfunding/Crowdfunding.sol\":4575:4606  block.timestamp > company.endAt */\n      gt\n        /* \"crowdfunding/Crowdfunding.sol\":4567:4620  require(block.timestamp > company.endAt, \"not ended\") */\n      tag_83\n      jumpi\n      mload(0x40)\n      0x08c379a000000000000000000000000000000000000000000000000000000000\n      dup2\n      mstore\n      0x04\n      add\n      tag_84\n      swap1\n      tag_67\n      jump\t// in\n    tag_84:\n      mload(0x40)\n      dup1\n      swap2\n      sub\n      swap1\n      revert\n    tag_83:\n        /* \"crowdfunding/Crowdfunding.sol\":4657:4664  company */\n      dup1\n        /* \"crowdfunding/Crowdfunding.sol\":4657:4669  company.goal */\n      0x01\n      add\n      sload\n        /* \"crowdfunding/Crowdfunding.sol\":4638:4645  company */\n      dup2\n        /* \"crowdfunding/Crowdfunding.sol\":4638:4653  company.pledged */\n      0x02\n      add\n      sload\n        /* \"crowdfunding/Crowdfunding.sol\":4638:4669  company.pledged >= company.goal */\n      lt\n      iszero\n        /* \"crowdfunding/Crowdfunding.sol\":4630:4692  require(company.pledged >= company.goal, \"pledged is too low\") */\n      tag_85\n      jumpi\n      mload(0x40)\n      0x08c379a000000000000000000000000000000000000000000000000000000000\n      dup2\n      mstore\n      0x04\n      add\n      tag_86\n      swap1\n      tag_87\n      jump\t// in\n    tag_86:\n      mload(0x40)\n      dup1\n      swap2\n      sub\n      swap1\n      revert\n    tag_85:\n        /* \"crowdfunding/Crowdfunding.sol\":4711:4718  company */\n      dup1\n        /* \"crowdfunding/Crowdfunding.sol\":4711:4726  company.claimed */\n      0x05\n      add\n      0x00\n      swap1\n      sload\n      swap1\n      0x0100\n      exp\n      swap1\n      div\n      0xff\n      and\n        /* \"crowdfunding/Crowdfunding.sol\":4710:4726  !company.claimed */\n      iszero\n        /* \"crowdfunding/Crowdfunding.sol\":4702:4746  require(!company.claimed, \"already claimed\") */\n      tag_88\n      jumpi\n      mload(0x40)\n      0x08c379a000000000000000000000000000000000000000000000000000000000\n      dup2\n      mstore\n      0x04\n      add\n      tag_89\n      swap1\n      tag_90\n      jump\t// in\n    tag_89:\n      mload(0x40)\n      dup1\n      swap2\n      sub\n      swap1\n      revert\n    tag_88:\n        /* \"crowdfunding/Crowdfunding.sol\":4783:4787  true */\n      0x01\n        /* \"crowdfunding/Crowdfunding.sol\":4765:4772  company */\n      dup2\n        /* \"crowdfunding/Crowdfunding.sol\":4765:4780  company.claimed */\n      0x05\n      add\n      0x00\n        /* \"crowdfunding/Crowdfunding.sol\":4765:4787  company.claimed = true */\n      0x0100\n      exp\n      dup2\n      sload\n      dup2\n      0xff\n      mul\n      not\n      and\n      swap1\n      dup4\n      iszero\n      iszero\n      mul\n      or\n      swap1\n      sstore\n      pop\n        /* \"crowdfunding/Crowdfunding.sol\":4931:4936  token */\n      immutable(\"0x939eb54753ed0cc7e2272bfb34cbe098308c93936ed54d79078f76ade0b2e789\")\n        /* \"crowdfunding/Crowdfunding.sol\":4931:4945  token.transfer */\n      0xffffffffffffffffffffffffffffffffffffffff\n      and\n      0xa9059cbb\n        /* \"crowdfunding/Crowdfunding.sol\":4946:4956  msg.sender */\n      caller\n        /* \"crowdfunding/Crowdfunding.sol\":4958:4965  company */\n      dup4\n        /* \"crowdfunding/Crowdfunding.sol\":4958:4973  company.pledged */\n      0x02\n      add\n      sload\n        /* \"crowdfunding/Crowdfunding.sol\":4931:4974  token.transfer(msg.sender, company.pledged) */\n      mload(0x40)\n      dup4\n      0xffffffff\n      and\n      0xe0\n      shl\n      dup2\n      mstore\n      0x04\n      add\n      tag_91\n      swap3\n      swap2\n      swap1\n      tag_72\n      jump\t// in\n    tag_91:\n      0x20\n      mload(0x40)\n      dup1\n      dup4\n      sub\n      dup2\n      0x00\n      dup8\n      gas\n      call\n      iszero\n      dup1\n      iszero\n      tag_93\n      jumpi\n      returndatasize\n      0x00\n      dup1\n      returndatacopy\n      revert(0x00, returndatasize)\n    tag_93:\n      pop\n      pop\n      pop\n      pop\n      mload(0x40)\n      returndatasize\n      not(0x1f)\n      0x1f\n      dup3\n      add\n      and\n      dup3\n      add\n      dup1\n      0x40\n      mstore\n      pop\n      dup2\n      add\n      swap1\n      tag_94\n      swap2\n      swap1\n      tag_76\n      jump\t// in\n    tag_94:\n      pop\n        /* \"crowdfunding/Crowdfunding.sol\":4989:5001  Claimed(_id) */\n      0x7a355715549cfe7c1cba26304350343fbddc4b4f72d3ce3e7c27117dd20b5cb8\n        /* \"crowdfunding/Crowdfunding.sol\":4997:5000  _id */\n      dup3\n        /* \"crowdfunding/Crowdfunding.sol\":4989:5001  Claimed(_id) */\n      mload(0x40)\n      tag_95\n      swap2\n      swap1\n      tag_46\n      jump\t// in\n    tag_95:\n      mload(0x40)\n      dup1\n      swap2\n      sub\n      swap1\n      log1\n        /* \"crowdfunding/Crowdfunding.sol\":4445:5008  {... */\n      pop\n        /* \"crowdfunding/Crowdfunding.sol\":4411:5008  function claim(uint _id) external {... */\n      pop\n      jump\t// out\n        /* \"crowdfunding/Crowdfunding.sol\":2396:2680  function cancel(uint _id) external {... */\n    tag_34:\n        /* \"crowdfunding/Crowdfunding.sol\":2441:2463  Company memory company */\n      0x00\n        /* \"crowdfunding/Crowdfunding.sol\":2466:2475  companies */\n      0x01\n        /* \"crowdfunding/Crowdfunding.sol\":2466:2480  companies[_id] */\n      0x00\n        /* \"crowdfunding/Crowdfunding.sol\":2476:2479  _id */\n      dup4\n        /* \"crowdfunding/Crowdfunding.sol\":2466:2480  companies[_id] */\n      dup2\n      mstore\n      0x20\n      add\n      swap1\n      dup2\n      mstore\n      0x20\n      add\n      0x00\n      keccak256\n        /* \"crowdfunding/Crowdfunding.sol\":2441:2480  Company memory company = companies[_id] */\n      mload(0x40)\n      dup1\n      0xc0\n      add\n      0x40\n      mstore\n      swap1\n      dup2\n      0x00\n      dup3\n      add\n      0x00\n      swap1\n      sload\n      swap1\n      0x0100\n      exp\n      swap1\n      div\n      0xffffffffffffffffffffffffffffffffffffffff\n      and\n      0xffffffffffffffffffffffffffffffffffffffff\n      and\n      0xffffffffffffffffffffffffffffffffffffffff\n      and\n      dup2\n      mstore\n      0x20\n      add\n      0x01\n      dup3\n      add\n      sload\n      dup2\n      mstore\n      0x20\n      add\n      0x02\n      dup3\n      add\n      sload\n      dup2\n      mstore\n      0x20\n      add\n      0x03\n      dup3\n      add\n      sload\n      dup2\n      mstore\n      0x20\n      add\n      0x04\n      dup3\n      add\n      sload\n      dup2\n      mstore\n      0x20\n      add\n      0x05\n      dup3\n      add\n      0x00\n      swap1\n      sload\n      swap1\n      0x0100\n      exp\n      swap1\n      div\n      0xff\n      and\n      iszero\n      iszero\n      iszero\n      iszero\n      dup2\n      mstore\n      pop\n      pop\n      swap1\n      pop\n        /* \"crowdfunding/Crowdfunding.sol\":2512:2519  company */\n      dup1\n        /* \"crowdfunding/Crowdfunding.sol\":2512:2525  company.owner */\n      0x00\n      add\n      mload\n        /* \"crowdfunding/Crowdfunding.sol\":2498:2525  msg.sender == company.owner */\n      0xffffffffffffffffffffffffffffffffffffffff\n      and\n        /* \"crowdfunding/Crowdfunding.sol\":2498:2508  msg.sender */\n      caller\n        /* \"crowdfunding/Crowdfunding.sol\":2498:2525  msg.sender == company.owner */\n      0xffffffffffffffffffffffffffffffffffffffff\n      and\n      eq\n        /* \"crowdfunding/Crowdfunding.sol\":2490:2542  require(msg.sender == company.owner, \"not an owner\") */\n      tag_97\n      jumpi\n      mload(0x40)\n      0x08c379a000000000000000000000000000000000000000000000000000000000\n      dup2\n      mstore\n      0x04\n      add\n      tag_98\n      swap1\n      tag_82\n      jump\t// in\n    tag_98:\n      mload(0x40)\n      dup1\n      swap2\n      sub\n      swap1\n      revert\n    tag_97:\n        /* \"crowdfunding/Crowdfunding.sol\":2578:2585  company */\n      dup1\n        /* \"crowdfunding/Crowdfunding.sol\":2578:2593  company.startAt */\n      0x60\n      add\n      mload\n        /* \"crowdfunding/Crowdfunding.sol\":2560:2575  block.timestamp */\n      timestamp\n        /* \"crowdfunding/Crowdfunding.sol\":2560:2593  block.timestamp < company.startAt */\n      lt\n        /* \"crowdfunding/Crowdfunding.sol\":2552:2613  require(block.timestamp < company.startAt, \"already started\") */\n      tag_99\n      jumpi\n      mload(0x40)\n      0x08c379a000000000000000000000000000000000000000000000000000000000\n      dup2\n      mstore\n      0x04\n      add\n      tag_100\n      swap1\n      tag_101\n      jump\t// in\n    tag_100:\n      mload(0x40)\n      dup1\n      swap2\n      sub\n      swap1\n      revert\n    tag_99:\n        /* \"crowdfunding/Crowdfunding.sol\":2631:2640  companies */\n      0x01\n        /* \"crowdfunding/Crowdfunding.sol\":2631:2645  companies[_id] */\n      0x00\n        /* \"crowdfunding/Crowdfunding.sol\":2641:2644  _id */\n      dup4\n        /* \"crowdfunding/Crowdfunding.sol\":2631:2645  companies[_id] */\n      dup2\n      mstore\n      0x20\n      add\n      swap1\n      dup2\n      mstore\n      0x20\n      add\n      0x00\n      keccak256\n      0x00\n        /* \"crowdfunding/Crowdfunding.sol\":2624:2645  delete companies[_id] */\n      dup1\n      dup3\n      add\n      exp(0x0100, 0x00)\n      dup2\n      sload\n      swap1\n      0xffffffffffffffffffffffffffffffffffffffff\n      mul\n      not\n      and\n      swap1\n      sstore\n      0x01\n      dup3\n      add\n      0x00\n      swap1\n      sstore\n      0x02\n      dup3\n      add\n      0x00\n      swap1\n      sstore\n      0x03\n      dup3\n      add\n      0x00\n      swap1\n      sstore\n      0x04\n      dup3\n      add\n      0x00\n      swap1\n      sstore\n      0x05\n      dup3\n      add\n      exp(0x0100, 0x00)\n      dup2\n      sload\n      swap1\n      0xff\n      mul\n      not\n      and\n      swap1\n      sstore\n      pop\n      pop\n        /* \"crowdfunding/Crowdfunding.sol\":2660:2673  Canceled(_id) */\n      0x829a8683c544ad289ce92d3ce06e9ebad69b18a6916e60ec766c2c217461d8e9\n        /* \"crowdfunding/Crowdfunding.sol\":2669:2672  _id */\n      dup3\n        /* \"crowdfunding/Crowdfunding.sol\":2660:2673  Canceled(_id) */\n      mload(0x40)\n      tag_102\n      swap2\n      swap1\n      tag_46\n      jump\t// in\n    tag_102:\n      mload(0x40)\n      dup1\n      swap2\n      sub\n      swap1\n      log1\n        /* \"crowdfunding/Crowdfunding.sol\":2431:2680  {... */\n      pop\n        /* \"crowdfunding/Crowdfunding.sol\":2396:2680  function cancel(uint _id) external {... */\n      pop\n      jump\t// out\n        /* \"crowdfunding/Crowdfunding.sol\":3755:4203  function unpledge(uint _id, uint _amount) external {... */\n    tag_38:\n        /* \"crowdfunding/Crowdfunding.sol\":3816:3839  Company storage company */\n      0x00\n        /* \"crowdfunding/Crowdfunding.sol\":3842:3851  companies */\n      0x01\n        /* \"crowdfunding/Crowdfunding.sol\":3842:3856  companies[_id] */\n      0x00\n        /* \"crowdfunding/Crowdfunding.sol\":3852:3855  _id */\n      dup5\n        /* \"crowdfunding/Crowdfunding.sol\":3842:3856  companies[_id] */\n      dup2\n      mstore\n      0x20\n      add\n      swap1\n      dup2\n      mstore\n      0x20\n      add\n      0x00\n      keccak256\n        /* \"crowdfunding/Crowdfunding.sol\":3816:3856  Company storage company = companies[_id] */\n      swap1\n      pop\n        /* \"crowdfunding/Crowdfunding.sol\":3892:3899  company */\n      dup1\n        /* \"crowdfunding/Crowdfunding.sol\":3892:3905  company.endAt */\n      0x04\n      add\n      sload\n        /* \"crowdfunding/Crowdfunding.sol\":3874:3889  block.timestamp */\n      timestamp\n        /* \"crowdfunding/Crowdfunding.sol\":3874:3905  block.timestamp < company.endAt */\n      lt\n        /* \"crowdfunding/Crowdfunding.sol\":3866:3915  require(block.timestamp < company.endAt, \"ended\") */\n      tag_104\n      jumpi\n      mload(0x40)\n      0x08c379a000000000000000000000000000000000000000000000000000000000\n      dup2\n      mstore\n      0x04\n      add\n      tag_105\n      swap1\n      tag_106\n      jump\t// in\n    tag_105:\n      mload(0x40)\n      dup1\n      swap2\n      sub\n      swap1\n      revert\n    tag_104:\n        /* \"crowdfunding/Crowdfunding.sol\":3945:3952  _amount */\n      dup2\n        /* \"crowdfunding/Crowdfunding.sol\":3926:3933  company */\n      dup2\n        /* \"crowdfunding/Crowdfunding.sol\":3926:3941  company.pledged */\n      0x02\n      add\n      0x00\n        /* \"crowdfunding/Crowdfunding.sol\":3926:3952  company.pledged -= _amount */\n      dup3\n      dup3\n      sload\n      tag_107\n      swap2\n      swap1\n      tag_108\n      jump\t// in\n    tag_107:\n      swap3\n      pop\n      pop\n      dup2\n      swap1\n      sstore\n      pop\n        /* \"crowdfunding/Crowdfunding.sol\":3990:3997  _amount */\n      dup2\n        /* \"crowdfunding/Crowdfunding.sol\":3962:3969  pledges */\n      0x00\n        /* \"crowdfunding/Crowdfunding.sol\":3962:3974  pledges[_id] */\n      dup1\n        /* \"crowdfunding/Crowdfunding.sol\":3970:3973  _id */\n      dup6\n        /* \"crowdfunding/Crowdfunding.sol\":3962:3974  pledges[_id] */\n      dup2\n      mstore\n      0x20\n      add\n      swap1\n      dup2\n      mstore\n      0x20\n      add\n      0x00\n      keccak256\n        /* \"crowdfunding/Crowdfunding.sol\":3962:3986  pledges[_id][msg.sender] */\n      0x00\n        /* \"crowdfunding/Crowdfunding.sol\":3975:3985  msg.sender */\n      caller\n        /* \"crowdfunding/Crowdfunding.sol\":3962:3986  pledges[_id][msg.sender] */\n      0xffffffffffffffffffffffffffffffffffffffff\n      and\n      0xffffffffffffffffffffffffffffffffffffffff\n      and\n      dup2\n      mstore\n      0x20\n      add\n      swap1\n      dup2\n      mstore\n      0x20\n      add\n      0x00\n      keccak256\n      0x00\n        /* \"crowdfunding/Crowdfunding.sol\":3962:3997  pledges[_id][msg.sender] -= _amount */\n      dup3\n      dup3\n      sload\n      tag_109\n      swap2\n      swap1\n      tag_108\n      jump\t// in\n    tag_109:\n      swap3\n      pop\n      pop\n      dup2\n      swap1\n      sstore\n      pop\n        /* \"crowdfunding/Crowdfunding.sol\":4111:4116  token */\n      immutable(\"0x939eb54753ed0cc7e2272bfb34cbe098308c93936ed54d79078f76ade0b2e789\")\n        /* \"crowdfunding/Crowdfunding.sol\":4111:4125  token.transfer */\n      0xffffffffffffffffffffffffffffffffffffffff\n      and\n      0xa9059cbb\n        /* \"crowdfunding/Crowdfunding.sol\":4126:4136  msg.sender */\n      caller\n        /* \"crowdfunding/Crowdfunding.sol\":4138:4145  _amount */\n      dup5\n        /* \"crowdfunding/Crowdfunding.sol\":4111:4146  token.transfer(msg.sender, _amount) */\n      mload(0x40)\n      dup4\n      0xffffffff\n      and\n      0xe0\n      shl\n      dup2\n      mstore\n      0x04\n      add\n      tag_110\n      swap3\n      swap2\n      swap1\n      tag_72\n      jump\t// in\n    tag_110:\n      0x20\n      mload(0x40)\n      dup1\n      dup4\n      sub\n      dup2\n      0x00\n      dup8\n      gas\n      call\n      iszero\n      dup1\n      iszero\n      tag_112\n      jumpi\n      returndatasize\n      0x00\n      dup1\n      returndatacopy\n      revert(0x00, returndatasize)\n    tag_112:\n      pop\n      pop\n      pop\n      pop\n      mload(0x40)\n      returndatasize\n      not(0x1f)\n      0x1f\n      dup3\n      add\n      and\n      dup3\n      add\n      dup1\n      0x40\n      mstore\n      pop\n      dup2\n      add\n      swap1\n      tag_113\n      swap2\n      swap1\n      tag_76\n      jump\t// in\n    tag_113:\n      pop\n        /* \"crowdfunding/Crowdfunding.sol\":4161:4196  Unpledged(_id, msg.sender, _amount) */\n      0xfcd29b1632c6748a9a4bb9b4cd5c6486c3c84a8550dce2368f83fef3969d9685\n        /* \"crowdfunding/Crowdfunding.sol\":4171:4174  _id */\n      dup4\n        /* \"crowdfunding/Crowdfunding.sol\":4176:4186  msg.sender */\n      caller\n        /* \"crowdfunding/Crowdfunding.sol\":4188:4195  _amount */\n      dup5\n        /* \"crowdfunding/Crowdfunding.sol\":4161:4196  Unpledged(_id, msg.sender, _amount) */\n      mload(0x40)\n      tag_114\n      swap4\n      swap3\n      swap2\n      swap1\n      tag_78\n      jump\t// in\n    tag_114:\n      mload(0x40)\n      dup1\n      swap2\n      sub\n      swap1\n      log1\n        /* \"crowdfunding/Crowdfunding.sol\":3806:4203  {... */\n      pop\n        /* \"crowdfunding/Crowdfunding.sol\":3755:4203  function unpledge(uint _id, uint _amount) external {... */\n      pop\n      pop\n      jump\t// out\n        /* \"crowdfunding/Crowdfunding.sol\":1614:2281  function launch(uint _goal, uint _startAt, uint _endAt) external {... */\n    tag_42:\n        /* \"crowdfunding/Crowdfunding.sol\":1709:1724  block.timestamp */\n      timestamp\n        /* \"crowdfunding/Crowdfunding.sol\":1697:1705  _startAt */\n      dup3\n        /* \"crowdfunding/Crowdfunding.sol\":1697:1724  _startAt >= block.timestamp */\n      lt\n      iszero\n        /* \"crowdfunding/Crowdfunding.sol\":1689:1747  require(_startAt >= block.timestamp, \"incorrect start at\") */\n      tag_116\n      jumpi\n      mload(0x40)\n      0x08c379a000000000000000000000000000000000000000000000000000000000\n      dup2\n      mstore\n      0x04\n      add\n      tag_117\n      swap1\n      tag_118\n      jump\t// in\n    tag_117:\n      mload(0x40)\n      dup1\n      swap2\n      sub\n      swap1\n      revert\n    tag_116:\n        /* \"crowdfunding/Crowdfunding.sol\":997:999  10 */\n      0x0a\n        /* \"crowdfunding/Crowdfunding.sol\":1775:1783  _startAt */\n      dup3\n        /* \"crowdfunding/Crowdfunding.sol\":1775:1798  _startAt + MIN_DURATION */\n      tag_119\n      swap2\n      swap1\n      tag_62\n      jump\t// in\n    tag_119:\n        /* \"crowdfunding/Crowdfunding.sol\":1765:1771  _endAt */\n      dup2\n        /* \"crowdfunding/Crowdfunding.sol\":1765:1798  _endAt >= _startAt + MIN_DURATION */\n      lt\n      iszero\n        /* \"crowdfunding/Crowdfunding.sol\":1757:1819  require(_endAt >= _startAt + MIN_DURATION, \"incorrect end at\") */\n      tag_120\n      jumpi\n      mload(0x40)\n      0x08c379a000000000000000000000000000000000000000000000000000000000\n      dup2\n      mstore\n      0x04\n      add\n      tag_121\n      swap1\n      tag_122\n      jump\t// in\n    tag_121:\n      mload(0x40)\n      dup1\n      swap2\n      sub\n      swap1\n      revert\n    tag_120:\n        /* \"crowdfunding/Crowdfunding.sol\":947:955  100 days */\n      0x83d600\n        /* \"crowdfunding/Crowdfunding.sol\":1847:1855  _startAt */\n      dup3\n        /* \"crowdfunding/Crowdfunding.sol\":1847:1870  _startAt + MAX_DURATION */\n      tag_123\n      swap2\n      swap1\n      tag_62\n      jump\t// in\n    tag_123:\n        /* \"crowdfunding/Crowdfunding.sol\":1837:1843  _endAt */\n      dup2\n        /* \"crowdfunding/Crowdfunding.sol\":1837:1870  _endAt <= _startAt + MAX_DURATION */\n      gt\n      iszero\n        /* \"crowdfunding/Crowdfunding.sol\":1829:1883  require(_endAt <= _startAt + MAX_DURATION, \"too long\") */\n      tag_124\n      jumpi\n      mload(0x40)\n      0x08c379a000000000000000000000000000000000000000000000000000000000\n      dup2\n      mstore\n      0x04\n      add\n      tag_125\n      swap1\n      tag_126\n      jump\t// in\n    tag_125:\n      mload(0x40)\n      dup1\n      swap2\n      sub\n      swap1\n      revert\n    tag_124:\n        /* \"crowdfunding/Crowdfunding.sol\":1925:2110  Company({... */\n      mload(0x40)\n      dup1\n      0xc0\n      add\n      0x40\n      mstore\n      dup1\n        /* \"crowdfunding/Crowdfunding.sol\":1954:1964  msg.sender */\n      caller\n        /* \"crowdfunding/Crowdfunding.sol\":1925:2110  Company({... */\n      0xffffffffffffffffffffffffffffffffffffffff\n      and\n      dup2\n      mstore\n      0x20\n      add\n        /* \"crowdfunding/Crowdfunding.sol\":1984:1989  _goal */\n      dup5\n        /* \"crowdfunding/Crowdfunding.sol\":1925:2110  Company({... */\n      dup2\n      mstore\n      0x20\n      add\n        /* \"crowdfunding/Crowdfunding.sol\":2012:2013  0 */\n      0x00\n        /* \"crowdfunding/Crowdfunding.sol\":1925:2110  Company({... */\n      dup2\n      mstore\n      0x20\n      add\n        /* \"crowdfunding/Crowdfunding.sol\":2036:2044  _startAt */\n      dup4\n        /* \"crowdfunding/Crowdfunding.sol\":1925:2110  Company({... */\n      dup2\n      mstore\n      0x20\n      add\n        /* \"crowdfunding/Crowdfunding.sol\":2065:2071  _endAt */\n      dup3\n        /* \"crowdfunding/Crowdfunding.sol\":1925:2110  Company({... */\n      dup2\n      mstore\n      0x20\n      add\n        /* \"crowdfunding/Crowdfunding.sol\":2094:2099  false */\n      0x00\n        /* \"crowdfunding/Crowdfunding.sol\":1925:2110  Company({... */\n      iszero\n      iszero\n      dup2\n      mstore\n      pop\n        /* \"crowdfunding/Crowdfunding.sol\":1902:1911  companies */\n      0x01\n        /* \"crowdfunding/Crowdfunding.sol\":1902:1922  companies[currentId] */\n      0x00\n        /* \"crowdfunding/Crowdfunding.sol\":1912:1921  currentId */\n      sload(0x02)\n        /* \"crowdfunding/Crowdfunding.sol\":1902:1922  companies[currentId] */\n      dup2\n      mstore\n      0x20\n      add\n      swap1\n      dup2\n      mstore\n      0x20\n      add\n      0x00\n      keccak256\n        /* \"crowdfunding/Crowdfunding.sol\":1902:2110  companies[currentId] = Company({... */\n      0x00\n      dup3\n      add\n      mload\n      dup2\n      0x00\n      add\n      exp(0x0100, 0x00)\n      dup2\n      sload\n      dup2\n      0xffffffffffffffffffffffffffffffffffffffff\n      mul\n      not\n      and\n      swap1\n      dup4\n      0xffffffffffffffffffffffffffffffffffffffff\n      and\n      mul\n      or\n      swap1\n      sstore\n      pop\n      0x20\n      dup3\n      add\n      mload\n      dup2\n      0x01\n      add\n      sstore\n      0x40\n      dup3\n      add\n      mload\n      dup2\n      0x02\n      add\n      sstore\n      0x60\n      dup3\n      add\n      mload\n      dup2\n      0x03\n      add\n      sstore\n      0x80\n      dup3\n      add\n      mload\n      dup2\n      0x04\n      add\n      sstore\n      0xa0\n      dup3\n      add\n      mload\n      dup2\n      0x05\n      add\n      exp(0x0100, 0x00)\n      dup2\n      sload\n      dup2\n      0xff\n      mul\n      not\n      and\n      swap1\n      dup4\n      iszero\n      iszero\n      mul\n      or\n      swap1\n      sstore\n      pop\n      swap1\n      pop\n      pop\n        /* \"crowdfunding/Crowdfunding.sol\":2126:2252  Launched(... */\n      0xea7dc5be41326789a621aaa33d671281d0a54aa87610751def19f8544c2004c3\n        /* \"crowdfunding/Crowdfunding.sol\":2148:2157  currentId */\n      sload(0x02)\n        /* \"crowdfunding/Crowdfunding.sol\":2171:2181  msg.sender */\n      caller\n        /* \"crowdfunding/Crowdfunding.sol\":2195:2200  _goal */\n      dup6\n        /* \"crowdfunding/Crowdfunding.sol\":2214:2222  _startAt */\n      dup6\n        /* \"crowdfunding/Crowdfunding.sol\":2236:2242  _endAt */\n      dup6\n        /* \"crowdfunding/Crowdfunding.sol\":2126:2252  Launched(... */\n      mload(0x40)\n      tag_127\n      swap6\n      swap5\n      swap4\n      swap3\n      swap2\n      swap1\n      tag_128\n      jump\t// in\n    tag_127:\n      mload(0x40)\n      dup1\n      swap2\n      sub\n      swap1\n      log1\n        /* \"crowdfunding/Crowdfunding.sol\":2263:2272  currentId */\n      0x02\n      0x00\n        /* \"crowdfunding/Crowdfunding.sol\":2263:2274  currentId++ */\n      dup2\n      sload\n      dup1\n      swap3\n      swap2\n      swap1\n      tag_129\n      swap1\n      tag_130\n      jump\t// in\n    tag_129:\n      swap2\n      swap1\n      pop\n      sstore\n      pop\n        /* \"crowdfunding/Crowdfunding.sol\":1614:2281  function launch(uint _goal, uint _startAt, uint _endAt) external {... */\n      pop\n      pop\n      pop\n      jump\t// out\n        /* \"crowdfunding/Crowdfunding.sol\":911:955  uint public constant MAX_DURATION = 100 days */\n    tag_44:\n        /* \"crowdfunding/Crowdfunding.sol\":947:955  100 days */\n      0x83d600\n        /* \"crowdfunding/Crowdfunding.sol\":911:955  uint public constant MAX_DURATION = 100 days */\n      dup2\n      jump\t// out\n        /* \"crowdfunding/Crowdfunding.sol\":961:999  uint public constant MIN_DURATION = 10 */\n    tag_48:\n        /* \"crowdfunding/Crowdfunding.sol\":997:999  10 */\n      0x0a\n        /* \"crowdfunding/Crowdfunding.sol\":961:999  uint public constant MIN_DURATION = 10 */\n      dup2\n      jump\t// out\n        /* \"crowdfunding/Crowdfunding.sol\":883:904  uint public currentId */\n    tag_51:\n      sload(0x02)\n      dup2\n      jump\t// out\n        /* \"crowdfunding/Crowdfunding.sol\":635:664  IERC20 public immutable token */\n    tag_54:\n      immutable(\"0x939eb54753ed0cc7e2272bfb34cbe098308c93936ed54d79078f76ade0b2e789\")\n      dup2\n      jump\t// out\n        /* \"crowdfunding/Crowdfunding.sol\":2988:3503  function pledge(uint _id, uint _amount) external {... */\n    tag_59:\n        /* \"crowdfunding/Crowdfunding.sol\":3047:3070  Company storage company */\n      0x00\n        /* \"crowdfunding/Crowdfunding.sol\":3073:3082  companies */\n      0x01\n        /* \"crowdfunding/Crowdfunding.sol\":3073:3087  companies[_id] */\n      0x00\n        /* \"crowdfunding/Crowdfunding.sol\":3083:3086  _id */\n      dup5\n        /* \"crowdfunding/Crowdfunding.sol\":3073:3087  companies[_id] */\n      dup2\n      mstore\n      0x20\n      add\n      swap1\n      dup2\n      mstore\n      0x20\n      add\n      0x00\n      keccak256\n        /* \"crowdfunding/Crowdfunding.sol\":3047:3087  Company storage company = companies[_id] */\n      swap1\n      pop\n        /* \"crowdfunding/Crowdfunding.sol\":3124:3131  company */\n      dup1\n        /* \"crowdfunding/Crowdfunding.sol\":3124:3139  company.startAt */\n      0x03\n      add\n      sload\n        /* \"crowdfunding/Crowdfunding.sol\":3105:3120  block.timestamp */\n      timestamp\n        /* \"crowdfunding/Crowdfunding.sol\":3105:3139  block.timestamp >= company.startAt */\n      lt\n      iszero\n        /* \"crowdfunding/Crowdfunding.sol\":3097:3155  require(block.timestamp >= company.startAt, \"not started\") */\n      tag_132\n      jumpi\n      mload(0x40)\n      0x08c379a000000000000000000000000000000000000000000000000000000000\n      dup2\n      mstore\n      0x04\n      add\n      tag_133\n      swap1\n      tag_134\n      jump\t// in\n    tag_133:\n      mload(0x40)\n      dup1\n      swap2\n      sub\n      swap1\n      revert\n    tag_132:\n        /* \"crowdfunding/Crowdfunding.sol\":3191:3198  company */\n      dup1\n        /* \"crowdfunding/Crowdfunding.sol\":3191:3204  company.endAt */\n      0x04\n      add\n      sload\n        /* \"crowdfunding/Crowdfunding.sol\":3173:3188  block.timestamp */\n      timestamp\n        /* \"crowdfunding/Crowdfunding.sol\":3173:3204  block.timestamp < company.endAt */\n      lt\n        /* \"crowdfunding/Crowdfunding.sol\":3165:3214  require(block.timestamp < company.endAt, \"ended\") */\n      tag_135\n      jumpi\n      mload(0x40)\n      0x08c379a000000000000000000000000000000000000000000000000000000000\n      dup2\n      mstore\n      0x04\n      add\n      tag_136\n      swap1\n      tag_106\n      jump\t// in\n    tag_136:\n      mload(0x40)\n      dup1\n      swap2\n      sub\n      swap1\n      revert\n    tag_135:\n        /* \"crowdfunding/Crowdfunding.sol\":3244:3251  _amount */\n      dup2\n        /* \"crowdfunding/Crowdfunding.sol\":3225:3232  company */\n      dup2\n        /* \"crowdfunding/Crowdfunding.sol\":3225:3240  company.pledged */\n      0x02\n      add\n      0x00\n        /* \"crowdfunding/Crowdfunding.sol\":3225:3251  company.pledged += _amount */\n      dup3\n      dup3\n      sload\n      tag_137\n      swap2\n      swap1\n      tag_62\n      jump\t// in\n    tag_137:\n      swap3\n      pop\n      pop\n      dup2\n      swap1\n      sstore\n      pop\n        /* \"crowdfunding/Crowdfunding.sol\":3290:3297  _amount */\n      dup2\n        /* \"crowdfunding/Crowdfunding.sol\":3261:3268  pledges */\n      0x00\n        /* \"crowdfunding/Crowdfunding.sol\":3261:3273  pledges[_id] */\n      dup1\n        /* \"crowdfunding/Crowdfunding.sol\":3269:3272  _id */\n      dup6\n        /* \"crowdfunding/Crowdfunding.sol\":3261:3273  pledges[_id] */\n      dup2\n      mstore\n      0x20\n      add\n      swap1\n      dup2\n      mstore\n      0x20\n      add\n      0x00\n      keccak256\n        /* \"crowdfunding/Crowdfunding.sol\":3261:3285  pledges[_id][msg.sender] */\n      0x00\n        /* \"crowdfunding/Crowdfunding.sol\":3274:3284  msg.sender */\n      caller\n        /* \"crowdfunding/Crowdfunding.sol\":3261:3285  pledges[_id][msg.sender] */\n      0xffffffffffffffffffffffffffffffffffffffff\n      and\n      0xffffffffffffffffffffffffffffffffffffffff\n      and\n      dup2\n      mstore\n      0x20\n      add\n      swap1\n      dup2\n      mstore\n      0x20\n      add\n      0x00\n      keccak256\n      0x00\n        /* \"crowdfunding/Crowdfunding.sol\":3261:3297  pledges[_id][msg.sender]  += _amount */\n      dup3\n      dup3\n      sload\n      tag_138\n      swap2\n      swap1\n      tag_62\n      jump\t// in\n    tag_138:\n      swap3\n      pop\n      pop\n      dup2\n      swap1\n      sstore\n      pop\n        /* \"crowdfunding/Crowdfunding.sol\":3394:3399  token */\n      immutable(\"0x939eb54753ed0cc7e2272bfb34cbe098308c93936ed54d79078f76ade0b2e789\")\n        /* \"crowdfunding/Crowdfunding.sol\":3394:3412  token.transferFrom */\n      0xffffffffffffffffffffffffffffffffffffffff\n      and\n      0x23b872dd\n        /* \"crowdfunding/Crowdfunding.sol\":3413:3423  msg.sender */\n      caller\n        /* \"crowdfunding/Crowdfunding.sol\":3433:3437  this */\n      address\n        /* \"crowdfunding/Crowdfunding.sol\":3440:3447  _amount */\n      dup6\n        /* \"crowdfunding/Crowdfunding.sol\":3394:3448  token.transferFrom(msg.sender, address(this), _amount) */\n      mload(0x40)\n      dup5\n      0xffffffff\n      and\n      0xe0\n      shl\n      dup2\n      mstore\n      0x04\n      add\n      tag_139\n      swap4\n      swap3\n      swap2\n      swap1\n      tag_140\n      jump\t// in\n    tag_139:\n      0x20\n      mload(0x40)\n      dup1\n      dup4\n      sub\n      dup2\n      0x00\n      dup8\n      gas\n      call\n      iszero\n      dup1\n      iszero\n      tag_142\n      jumpi\n      returndatasize\n      0x00\n      dup1\n      returndatacopy\n      revert(0x00, returndatasize)\n    tag_142:\n      pop\n      pop\n      pop\n      pop\n      mload(0x40)\n      returndatasize\n      not(0x1f)\n      0x1f\n      dup3\n      add\n      and\n      dup3\n      add\n      dup1\n      0x40\n      mstore\n      pop\n      dup2\n      add\n      swap1\n      tag_143\n      swap2\n      swap1\n      tag_76\n      jump\t// in\n    tag_143:\n      pop\n        /* \"crowdfunding/Crowdfunding.sol\":3463:3496  Pledged(_id, msg.sender, _amount) */\n      0x2757ac6a40883f4491cc56930ae964df9034e343e660d5179eb01e198336756b\n        /* \"crowdfunding/Crowdfunding.sol\":3471:3474  _id */\n      dup4\n        /* \"crowdfunding/Crowdfunding.sol\":3476:3486  msg.sender */\n      caller\n        /* \"crowdfunding/Crowdfunding.sol\":3488:3495  _amount */\n      dup5\n        /* \"crowdfunding/Crowdfunding.sol\":3463:3496  Pledged(_id, msg.sender, _amount) */\n      mload(0x40)\n      tag_144\n      swap4\n      swap3\n      swap2\n      swap1\n      tag_78\n      jump\t// in\n    tag_144:\n      mload(0x40)\n      dup1\n      swap2\n      sub\n      swap1\n      log1\n        /* \"crowdfunding/Crowdfunding.sol\":3037:3503  {... */\n      pop\n        /* \"crowdfunding/Crowdfunding.sol\":2988:3503  function pledge(uint _id, uint _amount) external {... */\n      pop\n      pop\n      jump\t// out\n        /* \"#utility.yul\":7:84   */\n    tag_145:\n        /* \"#utility.yul\":44:51   */\n      0x00\n        /* \"#utility.yul\":73:78   */\n      dup2\n        /* \"#utility.yul\":62:78   */\n      swap1\n      pop\n        /* \"#utility.yul\":7:84   */\n      swap2\n      swap1\n      pop\n      jump\t// out\n        /* \"#utility.yul\":90:208   */\n    tag_146:\n        /* \"#utility.yul\":177:201   */\n      tag_191\n        /* \"#utility.yul\":195:200   */\n      dup2\n        /* \"#utility.yul\":177:201   */\n      tag_145\n      jump\t// in\n    tag_191:\n        /* \"#utility.yul\":172:175   */\n      dup3\n        /* \"#utility.yul\":165:202   */\n      mstore\n        /* \"#utility.yul\":90:208   */\n      pop\n      pop\n      jump\t// out\n        /* \"#utility.yul\":214:546   */\n    tag_19:\n        /* \"#utility.yul\":335:339   */\n      0x00\n        /* \"#utility.yul\":373:375   */\n      0x40\n        /* \"#utility.yul\":362:371   */\n      dup3\n        /* \"#utility.yul\":358:376   */\n      add\n        /* \"#utility.yul\":350:376   */\n      swap1\n      pop\n        /* \"#utility.yul\":386:457   */\n      tag_193\n        /* \"#utility.yul\":454:455   */\n      0x00\n        /* \"#utility.yul\":443:452   */\n      dup4\n        /* \"#utility.yul\":439:456   */\n      add\n        /* \"#utility.yul\":430:436   */\n      dup6\n        /* \"#utility.yul\":386:457   */\n      tag_146\n      jump\t// in\n    tag_193:\n        /* \"#utility.yul\":467:539   */\n      tag_194\n        /* \"#utility.yul\":535:537   */\n      0x20\n        /* \"#utility.yul\":524:533   */\n      dup4\n        /* \"#utility.yul\":520:538   */\n      add\n        /* \"#utility.yul\":511:517   */\n      dup5\n        /* \"#utility.yul\":467:539   */\n      tag_146\n      jump\t// in\n    tag_194:\n        /* \"#utility.yul\":214:546   */\n      swap4\n      swap3\n      pop\n      pop\n      pop\n      jump\t// out\n        /* \"#utility.yul\":633:750   */\n    tag_148:\n        /* \"#utility.yul\":742:743   */\n      0x00\n        /* \"#utility.yul\":739:740   */\n      dup1\n        /* \"#utility.yul\":732:744   */\n      revert\n        /* \"#utility.yul\":879:1001   */\n    tag_150:\n        /* \"#utility.yul\":952:976   */\n      tag_199\n        /* \"#utility.yul\":970:975   */\n      dup2\n        /* \"#utility.yul\":952:976   */\n      tag_145\n      jump\t// in\n    tag_199:\n        /* \"#utility.yul\":945:950   */\n      dup2\n        /* \"#utility.yul\":942:977   */\n      eq\n        /* \"#utility.yul\":932:995   */\n      tag_200\n      jumpi\n        /* \"#utility.yul\":991:992   */\n      0x00\n        /* \"#utility.yul\":988:989   */\n      dup1\n        /* \"#utility.yul\":981:993   */\n      revert\n        /* \"#utility.yul\":932:995   */\n    tag_200:\n        /* \"#utility.yul\":879:1001   */\n      pop\n      jump\t// out\n        /* \"#utility.yul\":1007:1146   */\n    tag_151:\n        /* \"#utility.yul\":1053:1058   */\n      0x00\n        /* \"#utility.yul\":1091:1097   */\n      dup2\n        /* \"#utility.yul\":1078:1098   */\n      calldataload\n        /* \"#utility.yul\":1069:1098   */\n      swap1\n      pop\n        /* \"#utility.yul\":1107:1140   */\n      tag_202\n        /* \"#utility.yul\":1134:1139   */\n      dup2\n        /* \"#utility.yul\":1107:1140   */\n      tag_150\n      jump\t// in\n    tag_202:\n        /* \"#utility.yul\":1007:1146   */\n      swap3\n      swap2\n      pop\n      pop\n      jump\t// out\n        /* \"#utility.yul\":1152:1481   */\n    tag_22:\n        /* \"#utility.yul\":1211:1217   */\n      0x00\n        /* \"#utility.yul\":1260:1262   */\n      0x20\n        /* \"#utility.yul\":1248:1257   */\n      dup3\n        /* \"#utility.yul\":1239:1246   */\n      dup5\n        /* \"#utility.yul\":1235:1258   */\n      sub\n        /* \"#utility.yul\":1231:1263   */\n      slt\n        /* \"#utility.yul\":1228:1347   */\n      iszero\n      tag_204\n      jumpi\n        /* \"#utility.yul\":1266:1345   */\n      tag_205\n      tag_148\n      jump\t// in\n    tag_205:\n        /* \"#utility.yul\":1228:1347   */\n    tag_204:\n        /* \"#utility.yul\":1386:1387   */\n      0x00\n        /* \"#utility.yul\":1411:1464   */\n      tag_206\n        /* \"#utility.yul\":1456:1463   */\n      dup5\n        /* \"#utility.yul\":1447:1453   */\n      dup3\n        /* \"#utility.yul\":1436:1445   */\n      dup6\n        /* \"#utility.yul\":1432:1454   */\n      add\n        /* \"#utility.yul\":1411:1464   */\n      tag_151\n      jump\t// in\n    tag_206:\n        /* \"#utility.yul\":1401:1464   */\n      swap2\n      pop\n        /* \"#utility.yul\":1357:1474   */\n      pop\n        /* \"#utility.yul\":1152:1481   */\n      swap3\n      swap2\n      pop\n      pop\n      jump\t// out\n        /* \"#utility.yul\":1487:1613   */\n    tag_152:\n        /* \"#utility.yul\":1524:1531   */\n      0x00\n        /* \"#utility.yul\":1564:1606   */\n      0xffffffffffffffffffffffffffffffffffffffff\n        /* \"#utility.yul\":1557:1562   */\n      dup3\n        /* \"#utility.yul\":1553:1607   */\n      and\n        /* \"#utility.yul\":1542:1607   */\n      swap1\n      pop\n        /* \"#utility.yul\":1487:1613   */\n      swap2\n      swap1\n      pop\n      jump\t// out\n        /* \"#utility.yul\":1619:1715   */\n    tag_153:\n        /* \"#utility.yul\":1656:1663   */\n      0x00\n        /* \"#utility.yul\":1685:1709   */\n      tag_209\n        /* \"#utility.yul\":1703:1708   */\n      dup3\n        /* \"#utility.yul\":1685:1709   */\n      tag_152\n      jump\t// in\n    tag_209:\n        /* \"#utility.yul\":1674:1709   */\n      swap1\n      pop\n        /* \"#utility.yul\":1619:1715   */\n      swap2\n      swap1\n      pop\n      jump\t// out\n        /* \"#utility.yul\":1721:1839   */\n    tag_154:\n        /* \"#utility.yul\":1808:1832   */\n      tag_211\n        /* \"#utility.yul\":1826:1831   */\n      dup2\n        /* \"#utility.yul\":1808:1832   */\n      tag_153\n      jump\t// in\n    tag_211:\n        /* \"#utility.yul\":1803:1806   */\n      dup3\n        /* \"#utility.yul\":1796:1833   */\n      mstore\n        /* \"#utility.yul\":1721:1839   */\n      pop\n      pop\n      jump\t// out\n        /* \"#utility.yul\":1845:1935   */\n    tag_155:\n        /* \"#utility.yul\":1879:1886   */\n      0x00\n        /* \"#utility.yul\":1922:1927   */\n      dup2\n        /* \"#utility.yul\":1915:1928   */\n      iszero\n        /* \"#utility.yul\":1908:1929   */\n      iszero\n        /* \"#utility.yul\":1897:1929   */\n      swap1\n      pop\n        /* \"#utility.yul\":1845:1935   */\n      swap2\n      swap1\n      pop\n      jump\t// out\n        /* \"#utility.yul\":1941:2050   */\n    tag_156:\n        /* \"#utility.yul\":2022:2043   */\n      tag_214\n        /* \"#utility.yul\":2037:2042   */\n      dup2\n        /* \"#utility.yul\":2022:2043   */\n      tag_155\n      jump\t// in\n    tag_214:\n        /* \"#utility.yul\":2017:2020   */\n      dup3\n        /* \"#utility.yul\":2010:2044   */\n      mstore\n        /* \"#utility.yul\":1941:2050   */\n      pop\n      pop\n      jump\t// out\n        /* \"#utility.yul\":2056:2819   */\n    tag_28:\n        /* \"#utility.yul\":2283:2287   */\n      0x00\n        /* \"#utility.yul\":2321:2324   */\n      0xc0\n        /* \"#utility.yul\":2310:2319   */\n      dup3\n        /* \"#utility.yul\":2306:2325   */\n      add\n        /* \"#utility.yul\":2298:2325   */\n      swap1\n      pop\n        /* \"#utility.yul\":2335:2406   */\n      tag_216\n        /* \"#utility.yul\":2403:2404   */\n      0x00\n        /* \"#utility.yul\":2392:2401   */\n      dup4\n        /* \"#utility.yul\":2388:2405   */\n      add\n        /* \"#utility.yul\":2379:2385   */\n      dup10\n        /* \"#utility.yul\":2335:2406   */\n      tag_154\n      jump\t// in\n    tag_216:\n        /* \"#utility.yul\":2416:2488   */\n      tag_217\n        /* \"#utility.yul\":2484:2486   */\n      0x20\n        /* \"#utility.yul\":2473:2482   */\n      dup4\n        /* \"#utility.yul\":2469:2487   */\n      add\n        /* \"#utility.yul\":2460:2466   */\n      dup9\n        /* \"#utility.yul\":2416:2488   */\n      tag_146\n      jump\t// in\n    tag_217:\n        /* \"#utility.yul\":2498:2570   */\n      tag_218\n        /* \"#utility.yul\":2566:2568   */\n      0x40\n        /* \"#utility.yul\":2555:2564   */\n      dup4\n        /* \"#utility.yul\":2551:2569   */\n      add\n        /* \"#utility.yul\":2542:2548   */\n      dup8\n        /* \"#utility.yul\":2498:2570   */\n      tag_146\n      jump\t// in\n    tag_218:\n        /* \"#utility.yul\":2580:2652   */\n      tag_219\n        /* \"#utility.yul\":2648:2650   */\n      0x60\n        /* \"#utility.yul\":2637:2646   */\n      dup4\n        /* \"#utility.yul\":2633:2651   */\n      add\n        /* \"#utility.yul\":2624:2630   */\n      dup7\n        /* \"#utility.yul\":2580:2652   */\n      tag_146\n      jump\t// in\n    tag_219:\n        /* \"#utility.yul\":2662:2735   */\n      tag_220\n        /* \"#utility.yul\":2730:2733   */\n      0x80\n        /* \"#utility.yul\":2719:2728   */\n      dup4\n        /* \"#utility.yul\":2715:2734   */\n      add\n        /* \"#utility.yul\":2706:2712   */\n      dup6\n        /* \"#utility.yul\":2662:2735   */\n      tag_146\n      jump\t// in\n    tag_220:\n        /* \"#utility.yul\":2745:2812   */\n      tag_221\n        /* \"#utility.yul\":2807:2810   */\n      0xa0\n        /* \"#utility.yul\":2796:2805   */\n      dup4\n        /* \"#utility.yul\":2792:2811   */\n      add\n        /* \"#utility.yul\":2783:2789   */\n      dup5\n        /* \"#utility.yul\":2745:2812   */\n      tag_156\n      jump\t// in\n    tag_221:\n        /* \"#utility.yul\":2056:2819   */\n      swap8\n      swap7\n      pop\n      pop\n      pop\n      pop\n      pop\n      pop\n      pop\n      jump\t// out\n        /* \"#utility.yul\":2825:3299   */\n    tag_37:\n        /* \"#utility.yul\":2893:2899   */\n      0x00\n        /* \"#utility.yul\":2901:2907   */\n      dup1\n        /* \"#utility.yul\":2950:2952   */\n      0x40\n        /* \"#utility.yul\":2938:2947   */\n      dup4\n        /* \"#utility.yul\":2929:2936   */\n      dup6\n        /* \"#utility.yul\":2925:2948   */\n      sub\n        /* \"#utility.yul\":2921:2953   */\n      slt\n        /* \"#utility.yul\":2918:3037   */\n      iszero\n      tag_223\n      jumpi\n        /* \"#utility.yul\":2956:3035   */\n      tag_224\n      tag_148\n      jump\t// in\n    tag_224:\n        /* \"#utility.yul\":2918:3037   */\n    tag_223:\n        /* \"#utility.yul\":3076:3077   */\n      0x00\n        /* \"#utility.yul\":3101:3154   */\n      tag_225\n        /* \"#utility.yul\":3146:3153   */\n      dup6\n        /* \"#utility.yul\":3137:3143   */\n      dup3\n        /* \"#utility.yul\":3126:3135   */\n      dup7\n        /* \"#utility.yul\":3122:3144   */\n      add\n        /* \"#utility.yul\":3101:3154   */\n      tag_151\n      jump\t// in\n    tag_225:\n        /* \"#utility.yul\":3091:3154   */\n      swap3\n      pop\n        /* \"#utility.yul\":3047:3164   */\n      pop\n        /* \"#utility.yul\":3203:3205   */\n      0x20\n        /* \"#utility.yul\":3229:3282   */\n      tag_226\n        /* \"#utility.yul\":3274:3281   */\n      dup6\n        /* \"#utility.yul\":3265:3271   */\n      dup3\n        /* \"#utility.yul\":3254:3263   */\n      dup7\n        /* \"#utility.yul\":3250:3272   */\n      add\n        /* \"#utility.yul\":3229:3282   */\n      tag_151\n      jump\t// in\n    tag_226:\n        /* \"#utility.yul\":3219:3282   */\n      swap2\n      pop\n        /* \"#utility.yul\":3174:3292   */\n      pop\n        /* \"#utility.yul\":2825:3299   */\n      swap3\n      pop\n      swap3\n      swap1\n      pop\n      jump\t// out\n        /* \"#utility.yul\":3305:3924   */\n    tag_41:\n        /* \"#utility.yul\":3382:3388   */\n      0x00\n        /* \"#utility.yul\":3390:3396   */\n      dup1\n        /* \"#utility.yul\":3398:3404   */\n      0x00\n        /* \"#utility.yul\":3447:3449   */\n      0x60\n        /* \"#utility.yul\":3435:3444   */\n      dup5\n        /* \"#utility.yul\":3426:3433   */\n      dup7\n        /* \"#utility.yul\":3422:3445   */\n      sub\n        /* \"#utility.yul\":3418:3450   */\n      slt\n        /* \"#utility.yul\":3415:3534   */\n      iszero\n      tag_228\n      jumpi\n        /* \"#utility.yul\":3453:3532   */\n      tag_229\n      tag_148\n      jump\t// in\n    tag_229:\n        /* \"#utility.yul\":3415:3534   */\n    tag_228:\n        /* \"#utility.yul\":3573:3574   */\n      0x00\n        /* \"#utility.yul\":3598:3651   */\n      tag_230\n        /* \"#utility.yul\":3643:3650   */\n      dup7\n        /* \"#utility.yul\":3634:3640   */\n      dup3\n        /* \"#utility.yul\":3623:3632   */\n      dup8\n        /* \"#utility.yul\":3619:3641   */\n      add\n        /* \"#utility.yul\":3598:3651   */\n      tag_151\n      jump\t// in\n    tag_230:\n        /* \"#utility.yul\":3588:3651   */\n      swap4\n      pop\n        /* \"#utility.yul\":3544:3661   */\n      pop\n        /* \"#utility.yul\":3700:3702   */\n      0x20\n        /* \"#utility.yul\":3726:3779   */\n      tag_231\n        /* \"#utility.yul\":3771:3778   */\n      dup7\n        /* \"#utility.yul\":3762:3768   */\n      dup3\n        /* \"#utility.yul\":3751:3760   */\n      dup8\n        /* \"#utility.yul\":3747:3769   */\n      add\n        /* \"#utility.yul\":3726:3779   */\n      tag_151\n      jump\t// in\n    tag_231:\n        /* \"#utility.yul\":3716:3779   */\n      swap3\n      pop\n        /* \"#utility.yul\":3671:3789   */\n      pop\n        /* \"#utility.yul\":3828:3830   */\n      0x40\n        /* \"#utility.yul\":3854:3907   */\n      tag_232\n        /* \"#utility.yul\":3899:3906   */\n      dup7\n        /* \"#utility.yul\":3890:3896   */\n      dup3\n        /* \"#utility.yul\":3879:3888   */\n      dup8\n        /* \"#utility.yul\":3875:3897   */\n      add\n        /* \"#utility.yul\":3854:3907   */\n      tag_151\n      jump\t// in\n    tag_232:\n        /* \"#utility.yul\":3844:3907   */\n      swap2\n      pop\n        /* \"#utility.yul\":3799:3917   */\n      pop\n        /* \"#utility.yul\":3305:3924   */\n      swap3\n      pop\n      swap3\n      pop\n      swap3\n      jump\t// out\n        /* \"#utility.yul\":3930:4152   */\n    tag_46:\n        /* \"#utility.yul\":4023:4027   */\n      0x00\n        /* \"#utility.yul\":4061:4063   */\n      0x20\n        /* \"#utility.yul\":4050:4059   */\n      dup3\n        /* \"#utility.yul\":4046:4064   */\n      add\n        /* \"#utility.yul\":4038:4064   */\n      swap1\n      pop\n        /* \"#utility.yul\":4074:4145   */\n      tag_234\n        /* \"#utility.yul\":4142:4143   */\n      0x00\n        /* \"#utility.yul\":4131:4140   */\n      dup4\n        /* \"#utility.yul\":4127:4144   */\n      add\n        /* \"#utility.yul\":4118:4124   */\n      dup5\n        /* \"#utility.yul\":4074:4145   */\n      tag_146\n      jump\t// in\n    tag_234:\n        /* \"#utility.yul\":3930:4152   */\n      swap3\n      swap2\n      pop\n      pop\n      jump\t// out\n        /* \"#utility.yul\":4158:4218   */\n    tag_157:\n        /* \"#utility.yul\":4186:4189   */\n      0x00\n        /* \"#utility.yul\":4207:4212   */\n      dup2\n        /* \"#utility.yul\":4200:4212   */\n      swap1\n      pop\n        /* \"#utility.yul\":4158:4218   */\n      swap2\n      swap1\n      pop\n      jump\t// out\n        /* \"#utility.yul\":4224:4366   */\n    tag_158:\n        /* \"#utility.yul\":4274:4283   */\n      0x00\n        /* \"#utility.yul\":4307:4360   */\n      tag_237\n        /* \"#utility.yul\":4325:4359   */\n      tag_238\n        /* \"#utility.yul\":4334:4358   */\n      tag_239\n        /* \"#utility.yul\":4352:4357   */\n      dup5\n        /* \"#utility.yul\":4334:4358   */\n      tag_152\n      jump\t// in\n    tag_239:\n        /* \"#utility.yul\":4325:4359   */\n      tag_157\n      jump\t// in\n    tag_238:\n        /* \"#utility.yul\":4307:4360   */\n      tag_152\n      jump\t// in\n    tag_237:\n        /* \"#utility.yul\":4294:4360   */\n      swap1\n      pop\n        /* \"#utility.yul\":4224:4366   */\n      swap2\n      swap1\n      pop\n      jump\t// out\n        /* \"#utility.yul\":4372:4498   */\n    tag_159:\n        /* \"#utility.yul\":4422:4431   */\n      0x00\n        /* \"#utility.yul\":4455:4492   */\n      tag_241\n        /* \"#utility.yul\":4486:4491   */\n      dup3\n        /* \"#utility.yul\":4455:4492   */\n      tag_158\n      jump\t// in\n    tag_241:\n        /* \"#utility.yul\":4442:4492   */\n      swap1\n      pop\n        /* \"#utility.yul\":4372:4498   */\n      swap2\n      swap1\n      pop\n      jump\t// out\n        /* \"#utility.yul\":4504:4644   */\n    tag_160:\n        /* \"#utility.yul\":4568:4577   */\n      0x00\n        /* \"#utility.yul\":4601:4638   */\n      tag_243\n        /* \"#utility.yul\":4632:4637   */\n      dup3\n        /* \"#utility.yul\":4601:4638   */\n      tag_159\n      jump\t// in\n    tag_243:\n        /* \"#utility.yul\":4588:4638   */\n      swap1\n      pop\n        /* \"#utility.yul\":4504:4644   */\n      swap2\n      swap1\n      pop\n      jump\t// out\n        /* \"#utility.yul\":4650:4809   */\n    tag_161:\n        /* \"#utility.yul\":4751:4802   */\n      tag_245\n        /* \"#utility.yul\":4796:4801   */\n      dup2\n        /* \"#utility.yul\":4751:4802   */\n      tag_160\n      jump\t// in\n    tag_245:\n        /* \"#utility.yul\":4746:4749   */\n      dup3\n        /* \"#utility.yul\":4739:4803   */\n      mstore\n        /* \"#utility.yul\":4650:4809   */\n      pop\n      pop\n      jump\t// out\n        /* \"#utility.yul\":4815:5065   */\n    tag_56:\n        /* \"#utility.yul\":4922:4926   */\n      0x00\n        /* \"#utility.yul\":4960:4962   */\n      0x20\n        /* \"#utility.yul\":4949:4958   */\n      dup3\n        /* \"#utility.yul\":4945:4963   */\n      add\n        /* \"#utility.yul\":4937:4963   */\n      swap1\n      pop\n        /* \"#utility.yul\":4973:5058   */\n      tag_247\n        /* \"#utility.yul\":5055:5056   */\n      0x00\n        /* \"#utility.yul\":5044:5053   */\n      dup4\n        /* \"#utility.yul\":5040:5057   */\n      add\n        /* \"#utility.yul\":5031:5037   */\n      dup5\n        /* \"#utility.yul\":4973:5058   */\n      tag_161\n      jump\t// in\n    tag_247:\n        /* \"#utility.yul\":4815:5065   */\n      swap3\n      swap2\n      pop\n      pop\n      jump\t// out\n        /* \"#utility.yul\":5071:5251   */\n    tag_162:\n        /* \"#utility.yul\":5119:5196   */\n      0x4e487b7100000000000000000000000000000000000000000000000000000000\n        /* \"#utility.yul\":5116:5117   */\n      0x00\n        /* \"#utility.yul\":5109:5197   */\n      mstore\n        /* \"#utility.yul\":5216:5220   */\n      0x11\n        /* \"#utility.yul\":5213:5214   */\n      0x04\n        /* \"#utility.yul\":5206:5221   */\n      mstore\n        /* \"#utility.yul\":5240:5244   */\n      0x24\n        /* \"#utility.yul\":5237:5238   */\n      0x00\n        /* \"#utility.yul\":5230:5245   */\n      revert\n        /* \"#utility.yul\":5257:5448   */\n    tag_62:\n        /* \"#utility.yul\":5297:5300   */\n      0x00\n        /* \"#utility.yul\":5316:5336   */\n      tag_250\n        /* \"#utility.yul\":5334:5335   */\n      dup3\n        /* \"#utility.yul\":5316:5336   */\n      tag_145\n      jump\t// in\n    tag_250:\n        /* \"#utility.yul\":5311:5336   */\n      swap2\n      pop\n        /* \"#utility.yul\":5350:5370   */\n      tag_251\n        /* \"#utility.yul\":5368:5369   */\n      dup4\n        /* \"#utility.yul\":5350:5370   */\n      tag_145\n      jump\t// in\n    tag_251:\n        /* \"#utility.yul\":5345:5370   */\n      swap3\n      pop\n        /* \"#utility.yul\":5393:5394   */\n      dup3\n        /* \"#utility.yul\":5390:5391   */\n      dup3\n        /* \"#utility.yul\":5386:5395   */\n      add\n        /* \"#utility.yul\":5379:5395   */\n      swap1\n      pop\n        /* \"#utility.yul\":5414:5417   */\n      dup1\n        /* \"#utility.yul\":5411:5412   */\n      dup3\n        /* \"#utility.yul\":5408:5418   */\n      gt\n        /* \"#utility.yul\":5405:5441   */\n      iszero\n      tag_252\n      jumpi\n        /* \"#utility.yul\":5421:5439   */\n      tag_253\n      tag_162\n      jump\t// in\n    tag_253:\n        /* \"#utility.yul\":5405:5441   */\n    tag_252:\n        /* \"#utility.yul\":5257:5448   */\n      swap3\n      swap2\n      pop\n      pop\n      jump\t// out\n        /* \"#utility.yul\":5454:5623   */\n    tag_163:\n        /* \"#utility.yul\":5538:5549   */\n      0x00\n        /* \"#utility.yul\":5572:5578   */\n      dup3\n        /* \"#utility.yul\":5567:5570   */\n      dup3\n        /* \"#utility.yul\":5560:5579   */\n      mstore\n        /* \"#utility.yul\":5612:5616   */\n      0x20\n        /* \"#utility.yul\":5607:5610   */\n      dup3\n        /* \"#utility.yul\":5603:5617   */\n      add\n        /* \"#utility.yul\":5588:5617   */\n      swap1\n      pop\n        /* \"#utility.yul\":5454:5623   */\n      swap3\n      swap2\n      pop\n      pop\n      jump\t// out\n        /* \"#utility.yul\":5629:5788   */\n    tag_164:\n        /* \"#utility.yul\":5769:5780   */\n      0x6e6f7420656e6465640000000000000000000000000000000000000000000000\n        /* \"#utility.yul\":5765:5766   */\n      0x00\n        /* \"#utility.yul\":5757:5763   */\n      dup3\n        /* \"#utility.yul\":5753:5767   */\n      add\n        /* \"#utility.yul\":5746:5781   */\n      mstore\n        /* \"#utility.yul\":5629:5788   */\n      pop\n      jump\t// out\n        /* \"#utility.yul\":5794:6159   */\n    tag_165:\n        /* \"#utility.yul\":5936:5939   */\n      0x00\n        /* \"#utility.yul\":5957:6023   */\n      tag_257\n        /* \"#utility.yul\":6021:6022   */\n      0x09\n        /* \"#utility.yul\":6016:6019   */\n      dup4\n        /* \"#utility.yul\":5957:6023   */\n      tag_163\n      jump\t// in\n    tag_257:\n        /* \"#utility.yul\":5950:6023   */\n      swap2\n      pop\n        /* \"#utility.yul\":6032:6125   */\n      tag_258\n        /* \"#utility.yul\":6121:6124   */\n      dup3\n        /* \"#utility.yul\":6032:6125   */\n      tag_164\n      jump\t// in\n    tag_258:\n        /* \"#utility.yul\":6150:6152   */\n      0x20\n        /* \"#utility.yul\":6145:6148   */\n      dup3\n        /* \"#utility.yul\":6141:6153   */\n      add\n        /* \"#utility.yul\":6134:6153   */\n      swap1\n      pop\n        /* \"#utility.yul\":5794:6159   */\n      swap2\n      swap1\n      pop\n      jump\t// out\n        /* \"#utility.yul\":6165:6584   */\n    tag_67:\n        /* \"#utility.yul\":6331:6335   */\n      0x00\n        /* \"#utility.yul\":6369:6371   */\n      0x20\n        /* \"#utility.yul\":6358:6367   */\n      dup3\n        /* \"#utility.yul\":6354:6372   */\n      add\n        /* \"#utility.yul\":6346:6372   */\n      swap1\n      pop\n        /* \"#utility.yul\":6418:6427   */\n      dup2\n        /* \"#utility.yul\":6412:6416   */\n      dup2\n        /* \"#utility.yul\":6408:6428   */\n      sub\n        /* \"#utility.yul\":6404:6405   */\n      0x00\n        /* \"#utility.yul\":6393:6402   */\n      dup4\n        /* \"#utility.yul\":6389:6406   */\n      add\n        /* \"#utility.yul\":6382:6429   */\n      mstore\n        /* \"#utility.yul\":6446:6577   */\n      tag_260\n        /* \"#utility.yul\":6572:6576   */\n      dup2\n        /* \"#utility.yul\":6446:6577   */\n      tag_165\n      jump\t// in\n    tag_260:\n        /* \"#utility.yul\":6438:6577   */\n      swap1\n      pop\n        /* \"#utility.yul\":6165:6584   */\n      swap2\n      swap1\n      pop\n      jump\t// out\n        /* \"#utility.yul\":6590:6752   */\n    tag_166:\n        /* \"#utility.yul\":6730:6744   */\n      0x7265616368656420676f616c0000000000000000000000000000000000000000\n        /* \"#utility.yul\":6726:6727   */\n      0x00\n        /* \"#utility.yul\":6718:6724   */\n      dup3\n        /* \"#utility.yul\":6714:6728   */\n      add\n        /* \"#utility.yul\":6707:6745   */\n      mstore\n        /* \"#utility.yul\":6590:6752   */\n      pop\n      jump\t// out\n        /* \"#utility.yul\":6758:7124   */\n    tag_167:\n        /* \"#utility.yul\":6900:6903   */\n      0x00\n        /* \"#utility.yul\":6921:6988   */\n      tag_263\n        /* \"#utility.yul\":6985:6987   */\n      0x0c\n        /* \"#utility.yul\":6980:6983   */\n      dup4\n        /* \"#utility.yul\":6921:6988   */\n      tag_163\n      jump\t// in\n    tag_263:\n        /* \"#utility.yul\":6914:6988   */\n      swap2\n      pop\n        /* \"#utility.yul\":6997:7090   */\n      tag_264\n        /* \"#utility.yul\":7086:7089   */\n      dup3\n        /* \"#utility.yul\":6997:7090   */\n      tag_166\n      jump\t// in\n    tag_264:\n        /* \"#utility.yul\":7115:7117   */\n      0x20\n        /* \"#utility.yul\":7110:7113   */\n      dup3\n        /* \"#utility.yul\":7106:7118   */\n      add\n        /* \"#utility.yul\":7099:7118   */\n      swap1\n      pop\n        /* \"#utility.yul\":6758:7124   */\n      swap2\n      swap1\n      pop\n      jump\t// out\n        /* \"#utility.yul\":7130:7549   */\n    tag_70:\n        /* \"#utility.yul\":7296:7300   */\n      0x00\n        /* \"#utility.yul\":7334:7336   */\n      0x20\n        /* \"#utility.yul\":7323:7332   */\n      dup3\n        /* \"#utility.yul\":7319:7337   */\n      add\n        /* \"#utility.yul\":7311:7337   */\n      swap1\n      pop\n        /* \"#utility.yul\":7383:7392   */\n      dup2\n        /* \"#utility.yul\":7377:7381   */\n      dup2\n        /* \"#utility.yul\":7373:7393   */\n      sub\n        /* \"#utility.yul\":7369:7370   */\n      0x00\n        /* \"#utility.yul\":7358:7367   */\n      dup4\n        /* \"#utility.yul\":7354:7371   */\n      add\n        /* \"#utility.yul\":7347:7394   */\n      mstore\n        /* \"#utility.yul\":7411:7542   */\n      tag_266\n        /* \"#utility.yul\":7537:7541   */\n      dup2\n        /* \"#utility.yul\":7411:7542   */\n      tag_167\n      jump\t// in\n    tag_266:\n        /* \"#utility.yul\":7403:7542   */\n      swap1\n      pop\n        /* \"#utility.yul\":7130:7549   */\n      swap2\n      swap1\n      pop\n      jump\t// out\n        /* \"#utility.yul\":7555:7887   */\n    tag_72:\n        /* \"#utility.yul\":7676:7680   */\n      0x00\n        /* \"#utility.yul\":7714:7716   */\n      0x40\n        /* \"#utility.yul\":7703:7712   */\n      dup3\n        /* \"#utility.yul\":7699:7717   */\n      add\n        /* \"#utility.yul\":7691:7717   */\n      swap1\n      pop\n        /* \"#utility.yul\":7727:7798   */\n      tag_268\n        /* \"#utility.yul\":7795:7796   */\n      0x00\n        /* \"#utility.yul\":7784:7793   */\n      dup4\n        /* \"#utility.yul\":7780:7797   */\n      add\n        /* \"#utility.yul\":7771:7777   */\n      dup6\n        /* \"#utility.yul\":7727:7798   */\n      tag_154\n      jump\t// in\n    tag_268:\n        /* \"#utility.yul\":7808:7880   */\n      tag_269\n        /* \"#utility.yul\":7876:7878   */\n      0x20\n        /* \"#utility.yul\":7865:7874   */\n      dup4\n        /* \"#utility.yul\":7861:7879   */\n      add\n        /* \"#utility.yul\":7852:7858   */\n      dup5\n        /* \"#utility.yul\":7808:7880   */\n      tag_146\n      jump\t// in\n    tag_269:\n        /* \"#utility.yul\":7555:7887   */\n      swap4\n      swap3\n      pop\n      pop\n      pop\n      jump\t// out\n        /* \"#utility.yul\":7893:8009   */\n    tag_168:\n        /* \"#utility.yul\":7963:7984   */\n      tag_271\n        /* \"#utility.yul\":7978:7983   */\n      dup2\n        /* \"#utility.yul\":7963:7984   */\n      tag_155\n      jump\t// in\n    tag_271:\n        /* \"#utility.yul\":7956:7961   */\n      dup2\n        /* \"#utility.yul\":7953:7985   */\n      eq\n        /* \"#utility.yul\":7943:8003   */\n      tag_272\n      jumpi\n        /* \"#utility.yul\":7999:8000   */\n      0x00\n        /* \"#utility.yul\":7996:7997   */\n      dup1\n        /* \"#utility.yul\":7989:8001   */\n      revert\n        /* \"#utility.yul\":7943:8003   */\n    tag_272:\n        /* \"#utility.yul\":7893:8009   */\n      pop\n      jump\t// out\n        /* \"#utility.yul\":8015:8152   */\n    tag_169:\n        /* \"#utility.yul\":8069:8074   */\n      0x00\n        /* \"#utility.yul\":8100:8106   */\n      dup2\n        /* \"#utility.yul\":8094:8107   */\n      mload\n        /* \"#utility.yul\":8085:8107   */\n      swap1\n      pop\n        /* \"#utility.yul\":8116:8146   */\n      tag_274\n        /* \"#utility.yul\":8140:8145   */\n      dup2\n        /* \"#utility.yul\":8116:8146   */\n      tag_168\n      jump\t// in\n    tag_274:\n        /* \"#utility.yul\":8015:8152   */\n      swap3\n      swap2\n      pop\n      pop\n      jump\t// out\n        /* \"#utility.yul\":8158:8503   */\n    tag_76:\n        /* \"#utility.yul\":8225:8231   */\n      0x00\n        /* \"#utility.yul\":8274:8276   */\n      0x20\n        /* \"#utility.yul\":8262:8271   */\n      dup3\n        /* \"#utility.yul\":8253:8260   */\n      dup5\n        /* \"#utility.yul\":8249:8272   */\n      sub\n        /* \"#utility.yul\":8245:8277   */\n      slt\n        /* \"#utility.yul\":8242:8361   */\n      iszero\n      tag_276\n      jumpi\n        /* \"#utility.yul\":8280:8359   */\n      tag_277\n      tag_148\n      jump\t// in\n    tag_277:\n        /* \"#utility.yul\":8242:8361   */\n    tag_276:\n        /* \"#utility.yul\":8400:8401   */\n      0x00\n        /* \"#utility.yul\":8425:8486   */\n      tag_278\n        /* \"#utility.yul\":8478:8485   */\n      dup5\n        /* \"#utility.yul\":8469:8475   */\n      dup3\n        /* \"#utility.yul\":8458:8467   */\n      dup6\n        /* \"#utility.yul\":8454:8476   */\n      add\n        /* \"#utility.yul\":8425:8486   */\n      tag_169\n      jump\t// in\n    tag_278:\n        /* \"#utility.yul\":8415:8486   */\n      swap2\n      pop\n        /* \"#utility.yul\":8371:8496   */\n      pop\n        /* \"#utility.yul\":8158:8503   */\n      swap3\n      swap2\n      pop\n      pop\n      jump\t// out\n        /* \"#utility.yul\":8509:8951   */\n    tag_78:\n        /* \"#utility.yul\":8658:8662   */\n      0x00\n        /* \"#utility.yul\":8696:8698   */\n      0x60\n        /* \"#utility.yul\":8685:8694   */\n      dup3\n        /* \"#utility.yul\":8681:8699   */\n      add\n        /* \"#utility.yul\":8673:8699   */\n      swap1\n      pop\n        /* \"#utility.yul\":8709:8780   */\n      tag_280\n        /* \"#utility.yul\":8777:8778   */\n      0x00\n        /* \"#utility.yul\":8766:8775   */\n      dup4\n        /* \"#utility.yul\":8762:8779   */\n      add\n        /* \"#utility.yul\":8753:8759   */\n      dup7\n        /* \"#utility.yul\":8709:8780   */\n      tag_146\n      jump\t// in\n    tag_280:\n        /* \"#utility.yul\":8790:8862   */\n      tag_281\n        /* \"#utility.yul\":8858:8860   */\n      0x20\n        /* \"#utility.yul\":8847:8856   */\n      dup4\n        /* \"#utility.yul\":8843:8861   */\n      add\n        /* \"#utility.yul\":8834:8840   */\n      dup6\n        /* \"#utility.yul\":8790:8862   */\n      tag_154\n      jump\t// in\n    tag_281:\n        /* \"#utility.yul\":8872:8944   */\n      tag_282\n        /* \"#utility.yul\":8940:8942   */\n      0x40\n        /* \"#utility.yul\":8929:8938   */\n      dup4\n        /* \"#utility.yul\":8925:8943   */\n      add\n        /* \"#utility.yul\":8916:8922   */\n      dup5\n        /* \"#utility.yul\":8872:8944   */\n      tag_146\n      jump\t// in\n    tag_282:\n        /* \"#utility.yul\":8509:8951   */\n      swap5\n      swap4\n      pop\n      pop\n      pop\n      pop\n      jump\t// out\n        /* \"#utility.yul\":8957:9119   */\n    tag_170:\n        /* \"#utility.yul\":9097:9111   */\n      0x6e6f7420616e206f776e65720000000000000000000000000000000000000000\n        /* \"#utility.yul\":9093:9094   */\n      0x00\n        /* \"#utility.yul\":9085:9091   */\n      dup3\n        /* \"#utility.yul\":9081:9095   */\n      add\n        /* \"#utility.yul\":9074:9112   */\n      mstore\n        /* \"#utility.yul\":8957:9119   */\n      pop\n      jump\t// out\n        /* \"#utility.yul\":9125:9491   */\n    tag_171:\n        /* \"#utility.yul\":9267:9270   */\n      0x00\n        /* \"#utility.yul\":9288:9355   */\n      tag_285\n        /* \"#utility.yul\":9352:9354   */\n      0x0c\n        /* \"#utility.yul\":9347:9350   */\n      dup4\n        /* \"#utility.yul\":9288:9355   */\n      tag_163\n      jump\t// in\n    tag_285:\n        /* \"#utility.yul\":9281:9355   */\n      swap2\n      pop\n        /* \"#utility.yul\":9364:9457   */\n      tag_286\n        /* \"#utility.yul\":9453:9456   */\n      dup3\n        /* \"#utility.yul\":9364:9457   */\n      tag_170\n      jump\t// in\n    tag_286:\n        /* \"#utility.yul\":9482:9484   */\n      0x20\n        /* \"#utility.yul\":9477:9480   */\n      dup3\n        /* \"#utility.yul\":9473:9485   */\n      add\n        /* \"#utility.yul\":9466:9485   */\n      swap1\n      pop\n        /* \"#utility.yul\":9125:9491   */\n      swap2\n      swap1\n      pop\n      jump\t// out\n        /* \"#utility.yul\":9497:9916   */\n    tag_82:\n        /* \"#utility.yul\":9663:9667   */\n      0x00\n        /* \"#utility.yul\":9701:9703   */\n      0x20\n        /* \"#utility.yul\":9690:9699   */\n      dup3\n        /* \"#utility.yul\":9686:9704   */\n      add\n        /* \"#utility.yul\":9678:9704   */\n      swap1\n      pop\n        /* \"#utility.yul\":9750:9759   */\n      dup2\n        /* \"#utility.yul\":9744:9748   */\n      dup2\n        /* \"#utility.yul\":9740:9760   */\n      sub\n        /* \"#utility.yul\":9736:9737   */\n      0x00\n        /* \"#utility.yul\":9725:9734   */\n      dup4\n        /* \"#utility.yul\":9721:9738   */\n      add\n        /* \"#utility.yul\":9714:9761   */\n      mstore\n        /* \"#utility.yul\":9778:9909   */\n      tag_288\n        /* \"#utility.yul\":9904:9908   */\n      dup2\n        /* \"#utility.yul\":9778:9909   */\n      tag_171\n      jump\t// in\n    tag_288:\n        /* \"#utility.yul\":9770:9909   */\n      swap1\n      pop\n        /* \"#utility.yul\":9497:9916   */\n      swap2\n      swap1\n      pop\n      jump\t// out\n        /* \"#utility.yul\":9922:10090   */\n    tag_172:\n        /* \"#utility.yul\":10062:10082   */\n      0x706c656467656420697320746f6f206c6f770000000000000000000000000000\n        /* \"#utility.yul\":10058:10059   */\n      0x00\n        /* \"#utility.yul\":10050:10056   */\n      dup3\n        /* \"#utility.yul\":10046:10060   */\n      add\n        /* \"#utility.yul\":10039:10083   */\n      mstore\n        /* \"#utility.yul\":9922:10090   */\n      pop\n      jump\t// out\n        /* \"#utility.yul\":10096:10462   */\n    tag_173:\n        /* \"#utility.yul\":10238:10241   */\n      0x00\n        /* \"#utility.yul\":10259:10326   */\n      tag_291\n        /* \"#utility.yul\":10323:10325   */\n      0x12\n        /* \"#utility.yul\":10318:10321   */\n      dup4\n        /* \"#utility.yul\":10259:10326   */\n      tag_163\n      jump\t// in\n    tag_291:\n        /* \"#utility.yul\":10252:10326   */\n      swap2\n      pop\n        /* \"#utility.yul\":10335:10428   */\n      tag_292\n        /* \"#utility.yul\":10424:10427   */\n      dup3\n        /* \"#utility.yul\":10335:10428   */\n      tag_172\n      jump\t// in\n    tag_292:\n        /* \"#utility.yul\":10453:10455   */\n      0x20\n        /* \"#utility.yul\":10448:10451   */\n      dup3\n        /* \"#utility.yul\":10444:10456   */\n      add\n        /* \"#utility.yul\":10437:10456   */\n      swap1\n      pop\n        /* \"#utility.yul\":10096:10462   */\n      swap2\n      swap1\n      pop\n      jump\t// out\n        /* \"#utility.yul\":10468:10887   */\n    tag_87:\n        /* \"#utility.yul\":10634:10638   */\n      0x00\n        /* \"#utility.yul\":10672:10674   */\n      0x20\n        /* \"#utility.yul\":10661:10670   */\n      dup3\n        /* \"#utility.yul\":10657:10675   */\n      add\n        /* \"#utility.yul\":10649:10675   */\n      swap1\n      pop\n        /* \"#utility.yul\":10721:10730   */\n      dup2\n        /* \"#utility.yul\":10715:10719   */\n      dup2\n        /* \"#utility.yul\":10711:10731   */\n      sub\n        /* \"#utility.yul\":10707:10708   */\n      0x00\n        /* \"#utility.yul\":10696:10705   */\n      dup4\n        /* \"#utility.yul\":10692:10709   */\n      add\n        /* \"#utility.yul\":10685:10732   */\n      mstore\n        /* \"#utility.yul\":10749:10880   */\n      tag_294\n        /* \"#utility.yul\":10875:10879   */\n      dup2\n        /* \"#utility.yul\":10749:10880   */\n      tag_173\n      jump\t// in\n    tag_294:\n        /* \"#utility.yul\":10741:10880   */\n      swap1\n      pop\n        /* \"#utility.yul\":10468:10887   */\n      swap2\n      swap1\n      pop\n      jump\t// out\n        /* \"#utility.yul\":10893:11058   */\n    tag_174:\n        /* \"#utility.yul\":11033:11050   */\n      0x616c726561647920636c61696d65640000000000000000000000000000000000\n        /* \"#utility.yul\":11029:11030   */\n      0x00\n        /* \"#utility.yul\":11021:11027   */\n      dup3\n        /* \"#utility.yul\":11017:11031   */\n      add\n        /* \"#utility.yul\":11010:11051   */\n      mstore\n        /* \"#utility.yul\":10893:11058   */\n      pop\n      jump\t// out\n        /* \"#utility.yul\":11064:11430   */\n    tag_175:\n        /* \"#utility.yul\":11206:11209   */\n      0x00\n        /* \"#utility.yul\":11227:11294   */\n      tag_297\n        /* \"#utility.yul\":11291:11293   */\n      0x0f\n        /* \"#utility.yul\":11286:11289   */\n      dup4\n        /* \"#utility.yul\":11227:11294   */\n      tag_163\n      jump\t// in\n    tag_297:\n        /* \"#utility.yul\":11220:11294   */\n      swap2\n      pop\n        /* \"#utility.yul\":11303:11396   */\n      tag_298\n        /* \"#utility.yul\":11392:11395   */\n      dup3\n        /* \"#utility.yul\":11303:11396   */\n      tag_174\n      jump\t// in\n    tag_298:\n        /* \"#utility.yul\":11421:11423   */\n      0x20\n        /* \"#utility.yul\":11416:11419   */\n      dup3\n        /* \"#utility.yul\":11412:11424   */\n      add\n        /* \"#utility.yul\":11405:11424   */\n      swap1\n      pop\n        /* \"#utility.yul\":11064:11430   */\n      swap2\n      swap1\n      pop\n      jump\t// out\n        /* \"#utility.yul\":11436:11855   */\n    tag_90:\n        /* \"#utility.yul\":11602:11606   */\n      0x00\n        /* \"#utility.yul\":11640:11642   */\n      0x20\n        /* \"#utility.yul\":11629:11638   */\n      dup3\n        /* \"#utility.yul\":11625:11643   */\n      add\n        /* \"#utility.yul\":11617:11643   */\n      swap1\n      pop\n        /* \"#utility.yul\":11689:11698   */\n      dup2\n        /* \"#utility.yul\":11683:11687   */\n      dup2\n        /* \"#utility.yul\":11679:11699   */\n      sub\n        /* \"#utility.yul\":11675:11676   */\n      0x00\n        /* \"#utility.yul\":11664:11673   */\n      dup4\n        /* \"#utility.yul\":11660:11677   */\n      add\n        /* \"#utility.yul\":11653:11700   */\n      mstore\n        /* \"#utility.yul\":11717:11848   */\n      tag_300\n        /* \"#utility.yul\":11843:11847   */\n      dup2\n        /* \"#utility.yul\":11717:11848   */\n      tag_175\n      jump\t// in\n    tag_300:\n        /* \"#utility.yul\":11709:11848   */\n      swap1\n      pop\n        /* \"#utility.yul\":11436:11855   */\n      swap2\n      swap1\n      pop\n      jump\t// out\n        /* \"#utility.yul\":11861:12026   */\n    tag_176:\n        /* \"#utility.yul\":12001:12018   */\n      0x616c726561647920737461727465640000000000000000000000000000000000\n        /* \"#utility.yul\":11997:11998   */\n      0x00\n        /* \"#utility.yul\":11989:11995   */\n      dup3\n        /* \"#utility.yul\":11985:11999   */\n      add\n        /* \"#utility.yul\":11978:12019   */\n      mstore\n        /* \"#utility.yul\":11861:12026   */\n      pop\n      jump\t// out\n        /* \"#utility.yul\":12032:12398   */\n    tag_177:\n        /* \"#utility.yul\":12174:12177   */\n      0x00\n        /* \"#utility.yul\":12195:12262   */\n      tag_303\n        /* \"#utility.yul\":12259:12261   */\n      0x0f\n        /* \"#utility.yul\":12254:12257   */\n      dup4\n        /* \"#utility.yul\":12195:12262   */\n      tag_163\n      jump\t// in\n    tag_303:\n        /* \"#utility.yul\":12188:12262   */\n      swap2\n      pop\n        /* \"#utility.yul\":12271:12364   */\n      tag_304\n        /* \"#utility.yul\":12360:12363   */\n      dup3\n        /* \"#utility.yul\":12271:12364   */\n      tag_176\n      jump\t// in\n    tag_304:\n        /* \"#utility.yul\":12389:12391   */\n      0x20\n        /* \"#utility.yul\":12384:12387   */\n      dup3\n        /* \"#utility.yul\":12380:12392   */\n      add\n        /* \"#utility.yul\":12373:12392   */\n      swap1\n      pop\n        /* \"#utility.yul\":12032:12398   */\n      swap2\n      swap1\n      pop\n      jump\t// out\n        /* \"#utility.yul\":12404:12823   */\n    tag_101:\n        /* \"#utility.yul\":12570:12574   */\n      0x00\n        /* \"#utility.yul\":12608:12610   */\n      0x20\n        /* \"#utility.yul\":12597:12606   */\n      dup3\n        /* \"#utility.yul\":12593:12611   */\n      add\n        /* \"#utility.yul\":12585:12611   */\n      swap1\n      pop\n        /* \"#utility.yul\":12657:12666   */\n      dup2\n        /* \"#utility.yul\":12651:12655   */\n      dup2\n        /* \"#utility.yul\":12647:12667   */\n      sub\n        /* \"#utility.yul\":12643:12644   */\n      0x00\n        /* \"#utility.yul\":12632:12641   */\n      dup4\n        /* \"#utility.yul\":12628:12645   */\n      add\n        /* \"#utility.yul\":12621:12668   */\n      mstore\n        /* \"#utility.yul\":12685:12816   */\n      tag_306\n        /* \"#utility.yul\":12811:12815   */\n      dup2\n        /* \"#utility.yul\":12685:12816   */\n      tag_177\n      jump\t// in\n    tag_306:\n        /* \"#utility.yul\":12677:12816   */\n      swap1\n      pop\n        /* \"#utility.yul\":12404:12823   */\n      swap2\n      swap1\n      pop\n      jump\t// out\n        /* \"#utility.yul\":12829:12984   */\n    tag_178:\n        /* \"#utility.yul\":12969:12976   */\n      0x656e646564000000000000000000000000000000000000000000000000000000\n        /* \"#utility.yul\":12965:12966   */\n      0x00\n        /* \"#utility.yul\":12957:12963   */\n      dup3\n        /* \"#utility.yul\":12953:12967   */\n      add\n        /* \"#utility.yul\":12946:12977   */\n      mstore\n        /* \"#utility.yul\":12829:12984   */\n      pop\n      jump\t// out\n        /* \"#utility.yul\":12990:13355   */\n    tag_179:\n        /* \"#utility.yul\":13132:13135   */\n      0x00\n        /* \"#utility.yul\":13153:13219   */\n      tag_309\n        /* \"#utility.yul\":13217:13218   */\n      0x05\n        /* \"#utility.yul\":13212:13215   */\n      dup4\n        /* \"#utility.yul\":13153:13219   */\n      tag_163\n      jump\t// in\n    tag_309:\n        /* \"#utility.yul\":13146:13219   */\n      swap2\n      pop\n        /* \"#utility.yul\":13228:13321   */\n      tag_310\n        /* \"#utility.yul\":13317:13320   */\n      dup3\n        /* \"#utility.yul\":13228:13321   */\n      tag_178\n      jump\t// in\n    tag_310:\n        /* \"#utility.yul\":13346:13348   */\n      0x20\n        /* \"#utility.yul\":13341:13344   */\n      dup3\n        /* \"#utility.yul\":13337:13349   */\n      add\n        /* \"#utility.yul\":13330:13349   */\n      swap1\n      pop\n        /* \"#utility.yul\":12990:13355   */\n      swap2\n      swap1\n      pop\n      jump\t// out\n        /* \"#utility.yul\":13361:13780   */\n    tag_106:\n        /* \"#utility.yul\":13527:13531   */\n      0x00\n        /* \"#utility.yul\":13565:13567   */\n      0x20\n        /* \"#utility.yul\":13554:13563   */\n      dup3\n        /* \"#utility.yul\":13550:13568   */\n      add\n        /* \"#utility.yul\":13542:13568   */\n      swap1\n      pop\n        /* \"#utility.yul\":13614:13623   */\n      dup2\n        /* \"#utility.yul\":13608:13612   */\n      dup2\n        /* \"#utility.yul\":13604:13624   */\n      sub\n        /* \"#utility.yul\":13600:13601   */\n      0x00\n        /* \"#utility.yul\":13589:13598   */\n      dup4\n        /* \"#utility.yul\":13585:13602   */\n      add\n        /* \"#utility.yul\":13578:13625   */\n      mstore\n        /* \"#utility.yul\":13642:13773   */\n      tag_312\n        /* \"#utility.yul\":13768:13772   */\n      dup2\n        /* \"#utility.yul\":13642:13773   */\n      tag_179\n      jump\t// in\n    tag_312:\n        /* \"#utility.yul\":13634:13773   */\n      swap1\n      pop\n        /* \"#utility.yul\":13361:13780   */\n      swap2\n      swap1\n      pop\n      jump\t// out\n        /* \"#utility.yul\":13786:13980   */\n    tag_108:\n        /* \"#utility.yul\":13826:13830   */\n      0x00\n        /* \"#utility.yul\":13846:13866   */\n      tag_314\n        /* \"#utility.yul\":13864:13865   */\n      dup3\n        /* \"#utility.yul\":13846:13866   */\n      tag_145\n      jump\t// in\n    tag_314:\n        /* \"#utility.yul\":13841:13866   */\n      swap2\n      pop\n        /* \"#utility.yul\":13880:13900   */\n      tag_315\n        /* \"#utility.yul\":13898:13899   */\n      dup4\n        /* \"#utility.yul\":13880:13900   */\n      tag_145\n      jump\t// in\n    tag_315:\n        /* \"#utility.yul\":13875:13900   */\n      swap3\n      pop\n        /* \"#utility.yul\":13924:13925   */\n      dup3\n        /* \"#utility.yul\":13921:13922   */\n      dup3\n        /* \"#utility.yul\":13917:13926   */\n      sub\n        /* \"#utility.yul\":13909:13926   */\n      swap1\n      pop\n        /* \"#utility.yul\":13948:13949   */\n      dup2\n        /* \"#utility.yul\":13942:13946   */\n      dup2\n        /* \"#utility.yul\":13939:13950   */\n      gt\n        /* \"#utility.yul\":13936:13973   */\n      iszero\n      tag_316\n      jumpi\n        /* \"#utility.yul\":13953:13971   */\n      tag_317\n      tag_162\n      jump\t// in\n    tag_317:\n        /* \"#utility.yul\":13936:13973   */\n    tag_316:\n        /* \"#utility.yul\":13786:13980   */\n      swap3\n      swap2\n      pop\n      pop\n      jump\t// out\n        /* \"#utility.yul\":13986:14154   */\n    tag_180:\n        /* \"#utility.yul\":14126:14146   */\n      0x696e636f72726563742073746172742061740000000000000000000000000000\n        /* \"#utility.yul\":14122:14123   */\n      0x00\n        /* \"#utility.yul\":14114:14120   */\n      dup3\n        /* \"#utility.yul\":14110:14124   */\n      add\n        /* \"#utility.yul\":14103:14147   */\n      mstore\n        /* \"#utility.yul\":13986:14154   */\n      pop\n      jump\t// out\n        /* \"#utility.yul\":14160:14526   */\n    tag_181:\n        /* \"#utility.yul\":14302:14305   */\n      0x00\n        /* \"#utility.yul\":14323:14390   */\n      tag_320\n        /* \"#utility.yul\":14387:14389   */\n      0x12\n        /* \"#utility.yul\":14382:14385   */\n      dup4\n        /* \"#utility.yul\":14323:14390   */\n      tag_163\n      jump\t// in\n    tag_320:\n        /* \"#utility.yul\":14316:14390   */\n      swap2\n      pop\n        /* \"#utility.yul\":14399:14492   */\n      tag_321\n        /* \"#utility.yul\":14488:14491   */\n      dup3\n        /* \"#utility.yul\":14399:14492   */\n      tag_180\n      jump\t// in\n    tag_321:\n        /* \"#utility.yul\":14517:14519   */\n      0x20\n        /* \"#utility.yul\":14512:14515   */\n      dup3\n        /* \"#utility.yul\":14508:14520   */\n      add\n        /* \"#utility.yul\":14501:14520   */\n      swap1\n      pop\n        /* \"#utility.yul\":14160:14526   */\n      swap2\n      swap1\n      pop\n      jump\t// out\n        /* \"#utility.yul\":14532:14951   */\n    tag_118:\n        /* \"#utility.yul\":14698:14702   */\n      0x00\n        /* \"#utility.yul\":14736:14738   */\n      0x20\n        /* \"#utility.yul\":14725:14734   */\n      dup3\n        /* \"#utility.yul\":14721:14739   */\n      add\n        /* \"#utility.yul\":14713:14739   */\n      swap1\n      pop\n        /* \"#utility.yul\":14785:14794   */\n      dup2\n        /* \"#utility.yul\":14779:14783   */\n      dup2\n        /* \"#utility.yul\":14775:14795   */\n      sub\n        /* \"#utility.yul\":14771:14772   */\n      0x00\n        /* \"#utility.yul\":14760:14769   */\n      dup4\n        /* \"#utility.yul\":14756:14773   */\n      add\n        /* \"#utility.yul\":14749:14796   */\n      mstore\n        /* \"#utility.yul\":14813:14944   */\n      tag_323\n        /* \"#utility.yul\":14939:14943   */\n      dup2\n        /* \"#utility.yul\":14813:14944   */\n      tag_181\n      jump\t// in\n    tag_323:\n        /* \"#utility.yul\":14805:14944   */\n      swap1\n      pop\n        /* \"#utility.yul\":14532:14951   */\n      swap2\n      swap1\n      pop\n      jump\t// out\n        /* \"#utility.yul\":14957:15123   */\n    tag_182:\n        /* \"#utility.yul\":15097:15115   */\n      0x696e636f727265637420656e6420617400000000000000000000000000000000\n        /* \"#utility.yul\":15093:15094   */\n      0x00\n        /* \"#utility.yul\":15085:15091   */\n      dup3\n        /* \"#utility.yul\":15081:15095   */\n      add\n        /* \"#utility.yul\":15074:15116   */\n      mstore\n        /* \"#utility.yul\":14957:15123   */\n      pop\n      jump\t// out\n        /* \"#utility.yul\":15129:15495   */\n    tag_183:\n        /* \"#utility.yul\":15271:15274   */\n      0x00\n        /* \"#utility.yul\":15292:15359   */\n      tag_326\n        /* \"#utility.yul\":15356:15358   */\n      0x10\n        /* \"#utility.yul\":15351:15354   */\n      dup4\n        /* \"#utility.yul\":15292:15359   */\n      tag_163\n      jump\t// in\n    tag_326:\n        /* \"#utility.yul\":15285:15359   */\n      swap2\n      pop\n        /* \"#utility.yul\":15368:15461   */\n      tag_327\n        /* \"#utility.yul\":15457:15460   */\n      dup3\n        /* \"#utility.yul\":15368:15461   */\n      tag_182\n      jump\t// in\n    tag_327:\n        /* \"#utility.yul\":15486:15488   */\n      0x20\n        /* \"#utility.yul\":15481:15484   */\n      dup3\n        /* \"#utility.yul\":15477:15489   */\n      add\n        /* \"#utility.yul\":15470:15489   */\n      swap1\n      pop\n        /* \"#utility.yul\":15129:15495   */\n      swap2\n      swap1\n      pop\n      jump\t// out\n        /* \"#utility.yul\":15501:15920   */\n    tag_122:\n        /* \"#utility.yul\":15667:15671   */\n      0x00\n        /* \"#utility.yul\":15705:15707   */\n      0x20\n        /* \"#utility.yul\":15694:15703   */\n      dup3\n        /* \"#utility.yul\":15690:15708   */\n      add\n        /* \"#utility.yul\":15682:15708   */\n      swap1\n      pop\n        /* \"#utility.yul\":15754:15763   */\n      dup2\n        /* \"#utility.yul\":15748:15752   */\n      dup2\n        /* \"#utility.yul\":15744:15764   */\n      sub\n        /* \"#utility.yul\":15740:15741   */\n      0x00\n        /* \"#utility.yul\":15729:15738   */\n      dup4\n        /* \"#utility.yul\":15725:15742   */\n      add\n        /* \"#utility.yul\":15718:15765   */\n      mstore\n        /* \"#utility.yul\":15782:15913   */\n      tag_329\n        /* \"#utility.yul\":15908:15912   */\n      dup2\n        /* \"#utility.yul\":15782:15913   */\n      tag_183\n      jump\t// in\n    tag_329:\n        /* \"#utility.yul\":15774:15913   */\n      swap1\n      pop\n        /* \"#utility.yul\":15501:15920   */\n      swap2\n      swap1\n      pop\n      jump\t// out\n        /* \"#utility.yul\":15926:16084   */\n    tag_184:\n        /* \"#utility.yul\":16066:16076   */\n      0x746f6f206c6f6e67000000000000000000000000000000000000000000000000\n        /* \"#utility.yul\":16062:16063   */\n      0x00\n        /* \"#utility.yul\":16054:16060   */\n      dup3\n        /* \"#utility.yul\":16050:16064   */\n      add\n        /* \"#utility.yul\":16043:16077   */\n      mstore\n        /* \"#utility.yul\":15926:16084   */\n      pop\n      jump\t// out\n        /* \"#utility.yul\":16090:16455   */\n    tag_185:\n        /* \"#utility.yul\":16232:16235   */\n      0x00\n        /* \"#utility.yul\":16253:16319   */\n      tag_332\n        /* \"#utility.yul\":16317:16318   */\n      0x08\n        /* \"#utility.yul\":16312:16315   */\n      dup4\n        /* \"#utility.yul\":16253:16319   */\n      tag_163\n      jump\t// in\n    tag_332:\n        /* \"#utility.yul\":16246:16319   */\n      swap2\n      pop\n        /* \"#utility.yul\":16328:16421   */\n      tag_333\n        /* \"#utility.yul\":16417:16420   */\n      dup3\n        /* \"#utility.yul\":16328:16421   */\n      tag_184\n      jump\t// in\n    tag_333:\n        /* \"#utility.yul\":16446:16448   */\n      0x20\n        /* \"#utility.yul\":16441:16444   */\n      dup3\n        /* \"#utility.yul\":16437:16449   */\n      add\n        /* \"#utility.yul\":16430:16449   */\n      swap1\n      pop\n        /* \"#utility.yul\":16090:16455   */\n      swap2\n      swap1\n      pop\n      jump\t// out\n        /* \"#utility.yul\":16461:16880   */\n    tag_126:\n        /* \"#utility.yul\":16627:16631   */\n      0x00\n        /* \"#utility.yul\":16665:16667   */\n      0x20\n        /* \"#utility.yul\":16654:16663   */\n      dup3\n        /* \"#utility.yul\":16650:16668   */\n      add\n        /* \"#utility.yul\":16642:16668   */\n      swap1\n      pop\n        /* \"#utility.yul\":16714:16723   */\n      dup2\n        /* \"#utility.yul\":16708:16712   */\n      dup2\n        /* \"#utility.yul\":16704:16724   */\n      sub\n        /* \"#utility.yul\":16700:16701   */\n      0x00\n        /* \"#utility.yul\":16689:16698   */\n      dup4\n        /* \"#utility.yul\":16685:16702   */\n      add\n        /* \"#utility.yul\":16678:16725   */\n      mstore\n        /* \"#utility.yul\":16742:16873   */\n      tag_335\n        /* \"#utility.yul\":16868:16872   */\n      dup2\n        /* \"#utility.yul\":16742:16873   */\n      tag_185\n      jump\t// in\n    tag_335:\n        /* \"#utility.yul\":16734:16873   */\n      swap1\n      pop\n        /* \"#utility.yul\":16461:16880   */\n      swap2\n      swap1\n      pop\n      jump\t// out\n        /* \"#utility.yul\":16886:17550   */\n    tag_128:\n        /* \"#utility.yul\":17091:17095   */\n      0x00\n        /* \"#utility.yul\":17129:17132   */\n      0xa0\n        /* \"#utility.yul\":17118:17127   */\n      dup3\n        /* \"#utility.yul\":17114:17133   */\n      add\n        /* \"#utility.yul\":17106:17133   */\n      swap1\n      pop\n        /* \"#utility.yul\":17143:17214   */\n      tag_337\n        /* \"#utility.yul\":17211:17212   */\n      0x00\n        /* \"#utility.yul\":17200:17209   */\n      dup4\n        /* \"#utility.yul\":17196:17213   */\n      add\n        /* \"#utility.yul\":17187:17193   */\n      dup9\n        /* \"#utility.yul\":17143:17214   */\n      tag_146\n      jump\t// in\n    tag_337:\n        /* \"#utility.yul\":17224:17296   */\n      tag_338\n        /* \"#utility.yul\":17292:17294   */\n      0x20\n        /* \"#utility.yul\":17281:17290   */\n      dup4\n        /* \"#utility.yul\":17277:17295   */\n      add\n        /* \"#utility.yul\":17268:17274   */\n      dup8\n        /* \"#utility.yul\":17224:17296   */\n      tag_154\n      jump\t// in\n    tag_338:\n        /* \"#utility.yul\":17306:17378   */\n      tag_339\n        /* \"#utility.yul\":17374:17376   */\n      0x40\n        /* \"#utility.yul\":17363:17372   */\n      dup4\n        /* \"#utility.yul\":17359:17377   */\n      add\n        /* \"#utility.yul\":17350:17356   */\n      dup7\n        /* \"#utility.yul\":17306:17378   */\n      tag_146\n      jump\t// in\n    tag_339:\n        /* \"#utility.yul\":17388:17460   */\n      tag_340\n        /* \"#utility.yul\":17456:17458   */\n      0x60\n        /* \"#utility.yul\":17445:17454   */\n      dup4\n        /* \"#utility.yul\":17441:17459   */\n      add\n        /* \"#utility.yul\":17432:17438   */\n      dup6\n        /* \"#utility.yul\":17388:17460   */\n      tag_146\n      jump\t// in\n    tag_340:\n        /* \"#utility.yul\":17470:17543   */\n      tag_341\n        /* \"#utility.yul\":17538:17541   */\n      0x80\n        /* \"#utility.yul\":17527:17536   */\n      dup4\n        /* \"#utility.yul\":17523:17542   */\n      add\n        /* \"#utility.yul\":17514:17520   */\n      dup5\n        /* \"#utility.yul\":17470:17543   */\n      tag_146\n      jump\t// in\n    tag_341:\n        /* \"#utility.yul\":16886:17550   */\n      swap7\n      swap6\n      pop\n      pop\n      pop\n      pop\n      pop\n      pop\n      jump\t// out\n        /* \"#utility.yul\":17556:17789   */\n    tag_130:\n        /* \"#utility.yul\":17595:17598   */\n      0x00\n        /* \"#utility.yul\":17618:17642   */\n      tag_343\n        /* \"#utility.yul\":17636:17641   */\n      dup3\n        /* \"#utility.yul\":17618:17642   */\n      tag_145\n      jump\t// in\n    tag_343:\n        /* \"#utility.yul\":17609:17642   */\n      swap2\n      pop\n        /* \"#utility.yul\":17664:17730   */\n      0xffffffffffffffffffffffffffffffffffffffffffffffffffffffffffffffff\n        /* \"#utility.yul\":17657:17662   */\n      dup3\n        /* \"#utility.yul\":17654:17731   */\n      sub\n        /* \"#utility.yul\":17651:17754   */\n      tag_344\n      jumpi\n        /* \"#utility.yul\":17734:17752   */\n      tag_345\n      tag_162\n      jump\t// in\n    tag_345:\n        /* \"#utility.yul\":17651:17754   */\n    tag_344:\n        /* \"#utility.yul\":17781:17782   */\n      0x01\n        /* \"#utility.yul\":17774:17779   */\n      dup3\n        /* \"#utility.yul\":17770:17783   */\n      add\n        /* \"#utility.yul\":17763:17783   */\n      swap1\n      pop\n        /* \"#utility.yul\":17556:17789   */\n      swap2\n      swap1\n      pop\n      jump\t// out\n        /* \"#utility.yul\":17795:17956   */\n    tag_186:\n        /* \"#utility.yul\":17935:17948   */\n      0x6e6f742073746172746564000000000000000000000000000000000000000000\n        /* \"#utility.yul\":17931:17932   */\n      0x00\n        /* \"#utility.yul\":17923:17929   */\n      dup3\n        /* \"#utility.yul\":17919:17933   */\n      add\n        /* \"#utility.yul\":17912:17949   */\n      mstore\n        /* \"#utility.yul\":17795:17956   */\n      pop\n      jump\t// out\n        /* \"#utility.yul\":17962:18328   */\n    tag_187:\n        /* \"#utility.yul\":18104:18107   */\n      0x00\n        /* \"#utility.yul\":18125:18192   */\n      tag_348\n        /* \"#utility.yul\":18189:18191   */\n      0x0b\n        /* \"#utility.yul\":18184:18187   */\n      dup4\n        /* \"#utility.yul\":18125:18192   */\n      tag_163\n      jump\t// in\n    tag_348:\n        /* \"#utility.yul\":18118:18192   */\n      swap2\n      pop\n        /* \"#utility.yul\":18201:18294   */\n      tag_349\n        /* \"#utility.yul\":18290:18293   */\n      dup3\n        /* \"#utility.yul\":18201:18294   */\n      tag_186\n      jump\t// in\n    tag_349:\n        /* \"#utility.yul\":18319:18321   */\n      0x20\n        /* \"#utility.yul\":18314:18317   */\n      dup3\n        /* \"#utility.yul\":18310:18322   */\n      add\n        /* \"#utility.yul\":18303:18322   */\n      swap1\n      pop\n        /* \"#utility.yul\":17962:18328   */\n      swap2\n      swap1\n      pop\n      jump\t// out\n        /* \"#utility.yul\":18334:18753   */\n    tag_134:\n        /* \"#utility.yul\":18500:18504   */\n      0x00\n        /* \"#utility.yul\":18538:18540   */\n      0x20\n        /* \"#utility.yul\":18527:18536   */\n      dup3\n        /* \"#utility.yul\":18523:18541   */\n      add\n        /* \"#utility.yul\":18515:18541   */\n      swap1\n      pop\n        /* \"#utility.yul\":18587:18596   */\n      dup2\n        /* \"#utility.yul\":18581:18585   */\n      dup2\n        /* \"#utility.yul\":18577:18597   */\n      sub\n        /* \"#utility.yul\":18573:18574   */\n      0x00\n        /* \"#utility.yul\":18562:18571   */\n      dup4\n        /* \"#utility.yul\":18558:18575   */\n      add\n        /* \"#utility.yul\":18551:18598   */\n      mstore\n        /* \"#utility.yul\":18615:18746   */\n      tag_351\n        /* \"#utility.yul\":18741:18745   */\n      dup2\n        /* \"#utility.yul\":18615:18746   */\n      tag_187\n      jump\t// in\n    tag_351:\n        /* \"#utility.yul\":18607:18746   */\n      swap1\n      pop\n        /* \"#utility.yul\":18334:18753   */\n      swap2\n      swap1\n      pop\n      jump\t// out\n        /* \"#utility.yul\":18759:19201   */\n    tag_140:\n        /* \"#utility.yul\":18908:18912   */\n      0x00\n        /* \"#utility.yul\":18946:18948   */\n      0x60\n        /* \"#utility.yul\":18935:18944   */\n      dup3\n        /* \"#utility.yul\":18931:18949   */\n      add\n        /* \"#utility.yul\":18923:18949   */\n      swap1\n      pop\n        /* \"#utility.yul\":18959:19030   */\n      tag_353\n        /* \"#utility.yul\":19027:19028   */\n      0x00\n        /* \"#utility.yul\":19016:19025   */\n      dup4\n        /* \"#utility.yul\":19012:19029   */\n      add\n        /* \"#utility.yul\":19003:19009   */\n      dup7\n        /* \"#utility.yul\":18959:19030   */\n      tag_154\n      jump\t// in\n    tag_353:\n        /* \"#utility.yul\":19040:19112   */\n      tag_354\n        /* \"#utility.yul\":19108:19110   */\n      0x20\n        /* \"#utility.yul\":19097:19106   */\n      dup4\n        /* \"#utility.yul\":19093:19111   */\n      add\n        /* \"#utility.yul\":19084:19090   */\n      dup6\n        /* \"#utility.yul\":19040:19112   */\n      tag_154\n      jump\t// in\n    tag_354:\n        /* \"#utility.yul\":19122:19194   */\n      tag_355\n        /* \"#utility.yul\":19190:19192   */\n      0x40\n        /* \"#utility.yul\":19179:19188   */\n      dup4\n        /* \"#utility.yul\":19175:19193   */\n      add\n        /* \"#utility.yul\":19166:19172   */\n      dup5\n        /* \"#utility.yul\":19122:19194   */\n      tag_146\n      jump\t// in\n    tag_355:\n        /* \"#utility.yul\":18759:19201   */\n      swap5\n      swap4\n      pop\n      pop\n      pop\n      pop\n      jump\t// out\n\n    auxdata: 0xa2646970667358221220532cae8d60fe15a7ac93578a97149ff4a80afdd6bdce5cac651ff6803be4d20c64736f6c634300081a0033\n}\n",
				"bytecode": {
					"linkReferences": {},
					"object": "60a060405234801561000f575f80fd5b506040516119ca3803806119ca833981810160405281019061003191906100c9565b8073ffffffffffffffffffffffffffffffffffffffff1660808173ffffffffffffffffffffffffffffffffffffffff1681525050506100f4565b5f80fd5b5f73ffffffffffffffffffffffffffffffffffffffff82169050919050565b5f6100988261006f565b9050919050565b6100a88161008e565b81146100b2575f80fd5b50565b5f815190506100c38161009f565b92915050565b5f602082840312156100de576100dd61006b565b5b5f6100eb848285016100b5565b91505092915050565b6080516118a26101285f395f81816103980152818161067901528181610a3801528181610d4c0152610e8c01526118a25ff3fe608060405234801561000f575f80fd5b50600436106100b2575f3560e01c80638736c1791161006f5780638736c1791461017a578063b1724b4614610196578063b6a6d177146101b4578063e00dd161146101d2578063fc0c546a146101f0578063fde327be1461020e576100b2565b806323c9f684146100b6578063278ecde1146100d55780632813d19d146100f1578063379607f51461012657806340e58ee514610142578063711853ab1461015e575b5f80fd5b6100be61022a565b6040516100cc929190610f80565b60405180910390f35b6100ef60048036038101906100ea9190610fd5565b610253565b005b61010b60048036038101906101069190610fd5565b610472565b60405161011d96959493929190611059565b60405180910390f35b610140600480360381019061013b9190610fd5565b6104d5565b005b61015c60048036038101906101579190610fd5565b610752565b005b610178600480360381019061017391906110b8565b610961565b005b610194600480360381019061018f91906110f6565b610b12565b005b61019e610d38565b6040516101ab9190611146565b60405180910390f35b6101bc610d3f565b6040516101c99190611146565b60405180910390f35b6101da610d44565b6040516101e79190611146565b60405180910390f35b6101f8610d4a565b60405161020591906111ba565b60405180910390f35b610228600480360381019061022391906110b8565b610d6e565b005b5f805f42905060148161023d9190611200565b603c8261024a9190611200565b92509250509091565b5f60015f8381526020019081526020015f209050806004015442116102ad576040517f08c379a00000000000000000000000000000000000000000000000000000000081526004016102a49061128d565b60405180910390fd5b80600101548160020154106102f7576040517f08c379a00000000000000000000000000000000000000000000000000000000081526004016102ee906112f5565b60405180910390fd5b5f805f8481526020019081526020015f205f3373ffffffffffffffffffffffffffffffffffffffff1673ffffffffffffffffffffffffffffffffffffffff1681526020019081526020015f205490505f805f8581526020019081526020015f205f3373ffffffffffffffffffffffffffffffffffffffff1673ffffffffffffffffffffffffffffffffffffffff1681526020019081526020015f20819055507f000000000000000000000000000000000000000000000000000000000000000073ffffffffffffffffffffffffffffffffffffffff1663a9059cbb33836040518363ffffffff1660e01b81526004016103f1929190611313565b6020604051808303815f875af115801561040d573d5f803e3d5ffd5b505050506040513d601f19601f820116820180604052508101906104319190611364565b507f7ca5472b7ea78c2c0141c5a12ee6d170cf4ce8ed06be3d22c8252ddfc7a6a2c48333836040516104659392919061138f565b60405180910390a1505050565b6001602052805f5260405f205f91509050805f015f9054906101000a900473ffffffffffffffffffffffffffffffffffffffff1690806001015490806002015490806003015490806004015490806005015f9054906101000a900460ff16905086565b5f60015f8381526020019081526020015f209050805f015f9054906101000a900473ffffffffffffffffffffffffffffffffffffffff1673ffffffffffffffffffffffffffffffffffffffff163373ffffffffffffffffffffffffffffffffffffffff1614610579576040517f08c379a00000000000000000000000000000000000000000000000000000000081526004016105709061140e565b60405180910390fd5b806004015442116105bf576040517f08c379a00000000000000000000000000000000000000000000000000000000081526004016105b69061128d565b60405180910390fd5b80600101548160020154101561060a576040517f08c379a000000000000000000000000000000000000000000000000000000000815260040161060190611476565b60405180910390fd5b806005015f9054906101000a900460ff161561065b576040517f08c379a0000000000000000000000000000000000000000000000000000000008152600401610652906114de565b60405180910390fd5b6001816005015f6101000a81548160ff0219169083151502179055507f000000000000000000000000000000000000000000000000000000000000000073ffffffffffffffffffffffffffffffffffffffff1663a9059cbb3383600201546040518363ffffffff1660e01b81526004016106d6929190611313565b6020604051808303815f875af11580156106f2573d5f803e3d5ffd5b505050506040513d601f19601f820116820180604052508101906107169190611364565b507f7a355715549cfe7c1cba26304350343fbddc4b4f72d3ce3e7c27117dd20b5cb8826040516107469190611146565b60405180910390a15050565b5f60015f8381526020019081526020015f206040518060c00160405290815f82015f9054906101000a900473ffffffffffffffffffffffffffffffffffffffff1673ffffffffffffffffffffffffffffffffffffffff1673ffffffffffffffffffffffffffffffffffffffff16815260200160018201548152602001600282015481526020016003820154815260200160048201548152602001600582015f9054906101000a900460ff1615151515815250509050805f015173ffffffffffffffffffffffffffffffffffffffff163373ffffffffffffffffffffffffffffffffffffffff1614610878576040517f08c379a000000000000000000000000000000000000000000000000000000000815260040161086f9061140e565b60405180910390fd5b806060015142106108be576040517f08c379a00000000000000000000000000000000000000000000000000000000081526004016108b590611546565b60405180910390fd5b60015f8381526020019081526020015f205f8082015f6101000a81549073ffffffffffffffffffffffffffffffffffffffff0219169055600182015f9055600282015f9055600382015f9055600482015f9055600582015f6101000a81549060ff021916905550507f829a8683c544ad289ce92d3ce06e9ebad69b18a6916e60ec766c2c217461d8e9826040516109559190611146565b60405180910390a15050565b5f60015f8481526020019081526020015f209050806004015442106109bb576040517f08c379a00000000000000000000000000000000000000000000000000000000081526004016109b2906115ae565b60405180910390fd5b81816002015f8282546109ce91906115cc565b92505081905550815f808581526020019081526020015f205f3373ffffffffffffffffffffffffffffffffffffffff1673ffffffffffffffffffffffffffffffffffffffff1681526020019081526020015f205f828254610a2f91906115cc565b925050819055507f000000000000000000000000000000000000000000000000000000000000000073ffffffffffffffffffffffffffffffffffffffff1663a9059cbb33846040518363ffffffff1660e01b8152600401610a91929190611313565b6020604051808303815f875af1158015610aad573d5f803e3d5ffd5b505050506040513d601f19601f82011682018060405250810190610ad19190611364565b507ffcd29b1632c6748a9a4bb9b4cd5c6486c3c84a8550dce2368f83fef3969d9685833384604051610b059392919061138f565b60405180910390a1505050565b42821015610b55576040517f08c379a0000000000000000000000000000000000000000000000000000000008152600401610b4c90611649565b60405180910390fd5b600a82610b629190611200565b811015610ba4576040517f08c379a0000000000000000000000000000000000000000000000000000000008152600401610b9b906116b1565b60405180910390fd5b6283d60082610bb39190611200565b811115610bf5576040517f08c379a0000000000000000000000000000000000000000000000000000000008152600401610bec90611719565b60405180910390fd5b6040518060c001604052803373ffffffffffffffffffffffffffffffffffffffff1681526020018481526020015f81526020018381526020018281526020015f151581525060015f60025481526020019081526020015f205f820151815f015f6101000a81548173ffffffffffffffffffffffffffffffffffffffff021916908373ffffffffffffffffffffffffffffffffffffffff1602179055506020820151816001015560408201518160020155606082015181600301556080820151816004015560a0820151816005015f6101000a81548160ff0219169083151502179055509050507fea7dc5be41326789a621aaa33d671281d0a54aa87610751def19f8544c2004c360025433858585604051610d14959493929190611737565b60405180910390a160025f815480929190610d2e90611788565b9190505550505050565b6283d60081565b600a81565b60025481565b7f000000000000000000000000000000000000000000000000000000000000000081565b5f60015f8481526020019081526020015f2090508060030154421015610dc9576040517f08c379a0000000000000000000000000000000000000000000000000000000008152600401610dc090611819565b60405180910390fd5b80600401544210610e0f576040517f08c379a0000000000000000000000000000000000000000000000000000000008152600401610e06906115ae565b60405180910390fd5b81816002015f828254610e229190611200565b92505081905550815f808581526020019081526020015f205f3373ffffffffffffffffffffffffffffffffffffffff1673ffffffffffffffffffffffffffffffffffffffff1681526020019081526020015f205f828254610e839190611200565b925050819055507f000000000000000000000000000000000000000000000000000000000000000073ffffffffffffffffffffffffffffffffffffffff166323b872dd3330856040518463ffffffff1660e01b8152600401610ee793929190611837565b6020604051808303815f875af1158015610f03573d5f803e3d5ffd5b505050506040513d601f19601f82011682018060405250810190610f279190611364565b507f2757ac6a40883f4491cc56930ae964df9034e343e660d5179eb01e198336756b833384604051610f5b9392919061138f565b60405180910390a1505050565b5f819050919050565b610f7a81610f68565b82525050565b5f604082019050610f935f830185610f71565b610fa06020830184610f71565b9392505050565b5f80fd5b610fb481610f68565b8114610fbe575f80fd5b50565b5f81359050610fcf81610fab565b92915050565b5f60208284031215610fea57610fe9610fa7565b5b5f610ff784828501610fc1565b91505092915050565b5f73ffffffffffffffffffffffffffffffffffffffff82169050919050565b5f61102982611000565b9050919050565b6110398161101f565b82525050565b5f8115159050919050565b6110538161103f565b82525050565b5f60c08201905061106c5f830189611030565b6110796020830188610f71565b6110866040830187610f71565b6110936060830186610f71565b6110a06080830185610f71565b6110ad60a083018461104a565b979650505050505050565b5f80604083850312156110ce576110cd610fa7565b5b5f6110db85828601610fc1565b92505060206110ec85828601610fc1565b9150509250929050565b5f805f6060848603121561110d5761110c610fa7565b5b5f61111a86828701610fc1565b935050602061112b86828701610fc1565b925050604061113c86828701610fc1565b9150509250925092565b5f6020820190506111595f830184610f71565b92915050565b5f819050919050565b5f61118261117d61117884611000565b61115f565b611000565b9050919050565b5f61119382611168565b9050919050565b5f6111a482611189565b9050919050565b6111b48161119a565b82525050565b5f6020820190506111cd5f8301846111ab565b92915050565b7f4e487b71000000000000000000000000000000000000000000000000000000005f52601160045260245ffd5b5f61120a82610f68565b915061121583610f68565b925082820190508082111561122d5761122c6111d3565b5b92915050565b5f82825260208201905092915050565b7f6e6f7420656e64656400000000000000000000000000000000000000000000005f82015250565b5f611277600983611233565b915061128282611243565b602082019050919050565b5f6020820190508181035f8301526112a48161126b565b9050919050565b7f7265616368656420676f616c00000000000000000000000000000000000000005f82015250565b5f6112df600c83611233565b91506112ea826112ab565b602082019050919050565b5f6020820190508181035f83015261130c816112d3565b9050919050565b5f6040820190506113265f830185611030565b6113336020830184610f71565b9392505050565b6113438161103f565b811461134d575f80fd5b50565b5f8151905061135e8161133a565b92915050565b5f6020828403121561137957611378610fa7565b5b5f61138684828501611350565b91505092915050565b5f6060820190506113a25f830186610f71565b6113af6020830185611030565b6113bc6040830184610f71565b949350505050565b7f6e6f7420616e206f776e657200000000000000000000000000000000000000005f82015250565b5f6113f8600c83611233565b9150611403826113c4565b602082019050919050565b5f6020820190508181035f830152611425816113ec565b9050919050565b7f706c656467656420697320746f6f206c6f7700000000000000000000000000005f82015250565b5f611460601283611233565b915061146b8261142c565b602082019050919050565b5f6020820190508181035f83015261148d81611454565b9050919050565b7f616c726561647920636c61696d656400000000000000000000000000000000005f82015250565b5f6114c8600f83611233565b91506114d382611494565b602082019050919050565b5f6020820190508181035f8301526114f5816114bc565b9050919050565b7f616c7265616479207374617274656400000000000000000000000000000000005f82015250565b5f611530600f83611233565b915061153b826114fc565b602082019050919050565b5f6020820190508181035f83015261155d81611524565b9050919050565b7f656e6465640000000000000000000000000000000000000000000000000000005f82015250565b5f611598600583611233565b91506115a382611564565b602082019050919050565b5f6020820190508181035f8301526115c58161158c565b9050919050565b5f6115d682610f68565b91506115e183610f68565b92508282039050818111156115f9576115f86111d3565b5b92915050565b7f696e636f727265637420737461727420617400000000000000000000000000005f82015250565b5f611633601283611233565b915061163e826115ff565b602082019050919050565b5f6020820190508181035f83015261166081611627565b9050919050565b7f696e636f727265637420656e64206174000000000000000000000000000000005f82015250565b5f61169b601083611233565b91506116a682611667565b602082019050919050565b5f6020820190508181035f8301526116c88161168f565b9050919050565b7f746f6f206c6f6e670000000000000000000000000000000000000000000000005f82015250565b5f611703600883611233565b915061170e826116cf565b602082019050919050565b5f6020820190508181035f830152611730816116f7565b9050919050565b5f60a08201905061174a5f830188610f71565b6117576020830187611030565b6117646040830186610f71565b6117716060830185610f71565b61177e6080830184610f71565b9695505050505050565b5f61179282610f68565b91507fffffffffffffffffffffffffffffffffffffffffffffffffffffffffffffffff82036117c4576117c36111d3565b5b600182019050919050565b7f6e6f7420737461727465640000000000000000000000000000000000000000005f82015250565b5f611803600b83611233565b915061180e826117cf565b602082019050919050565b5f6020820190508181035f830152611830816117f7565b9050919050565b5f60608201905061184a5f830186611030565b6118576020830185611030565b6118646040830184610f71565b94935050505056fea2646970667358221220532cae8d60fe15a7ac93578a97149ff4a80afdd6bdce5cac651ff6803be4d20c64736f6c634300081a0033",
					"opcodes": "PUSH1 0xA0 PUSH1 0x40 MSTORE CALLVALUE DUP1 ISZERO PUSH2 0xF JUMPI PUSH0 DUP1 REVERT JUMPDEST POP PUSH1 0x40 MLOAD PUSH2 0x19CA CODESIZE SUB DUP1 PUSH2 0x19CA DUP4 CODECOPY DUP2 DUP2 ADD PUSH1 0x40 MSTORE DUP2 ADD SWAP1 PUSH2 0x31 SWAP2 SWAP1 PUSH2 0xC9 JUMP JUMPDEST DUP1 PUSH20 0xFFFFFFFFFFFFFFFFFFFFFFFFFFFFFFFFFFFFFFFF AND PUSH1 0x80 DUP2 PUSH20 0xFFFFFFFFFFFFFFFFFFFFFFFFFFFFFFFFFFFFFFFF AND DUP2 MSTORE POP POP POP PUSH2 0xF4 JUMP JUMPDEST PUSH0 DUP1 REVERT JUMPDEST PUSH0 PUSH20 0xFFFFFFFFFFFFFFFFFFFFFFFFFFFFFFFFFFFFFFFF DUP3 AND SWAP1 POP SWAP2 SWAP1 POP JUMP JUMPDEST PUSH0 PUSH2 0x98 DUP3 PUSH2 0x6F JUMP JUMPDEST SWAP1 POP SWAP2 SWAP1 POP JUMP JUMPDEST PUSH2 0xA8 DUP2 PUSH2 0x8E JUMP JUMPDEST DUP2 EQ PUSH2 0xB2 JUMPI PUSH0 DUP1 REVERT JUMPDEST POP JUMP JUMPDEST PUSH0 DUP2 MLOAD SWAP1 POP PUSH2 0xC3 DUP2 PUSH2 0x9F JUMP JUMPDEST SWAP3 SWAP2 POP POP JUMP JUMPDEST PUSH0 PUSH1 0x20 DUP3 DUP5 SUB SLT ISZERO PUSH2 0xDE JUMPI PUSH2 0xDD PUSH2 0x6B JUMP JUMPDEST JUMPDEST PUSH0 PUSH2 0xEB DUP5 DUP3 DUP6 ADD PUSH2 0xB5 JUMP JUMPDEST SWAP2 POP POP SWAP3 SWAP2 POP POP JUMP JUMPDEST PUSH1 0x80 MLOAD PUSH2 0x18A2 PUSH2 0x128 PUSH0 CODECOPY PUSH0 DUP2 DUP2 PUSH2 0x398 ADD MSTORE DUP2 DUP2 PUSH2 0x679 ADD MSTORE DUP2 DUP2 PUSH2 0xA38 ADD MSTORE DUP2 DUP2 PUSH2 0xD4C ADD MSTORE PUSH2 0xE8C ADD MSTORE PUSH2 0x18A2 PUSH0 RETURN INVALID PUSH1 0x80 PUSH1 0x40 MSTORE CALLVALUE DUP1 ISZERO PUSH2 0xF JUMPI PUSH0 DUP1 REVERT JUMPDEST POP PUSH1 0x4 CALLDATASIZE LT PUSH2 0xB2 JUMPI PUSH0 CALLDATALOAD PUSH1 0xE0 SHR DUP1 PUSH4 0x8736C179 GT PUSH2 0x6F JUMPI DUP1 PUSH4 0x8736C179 EQ PUSH2 0x17A JUMPI DUP1 PUSH4 0xB1724B46 EQ PUSH2 0x196 JUMPI DUP1 PUSH4 0xB6A6D177 EQ PUSH2 0x1B4 JUMPI DUP1 PUSH4 0xE00DD161 EQ PUSH2 0x1D2 JUMPI DUP1 PUSH4 0xFC0C546A EQ PUSH2 0x1F0 JUMPI DUP1 PUSH4 0xFDE327BE EQ PUSH2 0x20E JUMPI PUSH2 0xB2 JUMP JUMPDEST DUP1 PUSH4 0x23C9F684 EQ PUSH2 0xB6 JUMPI DUP1 PUSH4 0x278ECDE1 EQ PUSH2 0xD5 JUMPI DUP1 PUSH4 0x2813D19D EQ PUSH2 0xF1 JUMPI DUP1 PUSH4 0x379607F5 EQ PUSH2 0x126 JUMPI DUP1 PUSH4 0x40E58EE5 EQ PUSH2 0x142 JUMPI DUP1 PUSH4 0x711853AB EQ PUSH2 0x15E JUMPI JUMPDEST PUSH0 DUP1 REVERT JUMPDEST PUSH2 0xBE PUSH2 0x22A JUMP JUMPDEST PUSH1 0x40 MLOAD PUSH2 0xCC SWAP3 SWAP2 SWAP1 PUSH2 0xF80 JUMP JUMPDEST PUSH1 0x40 MLOAD DUP1 SWAP2 SUB SWAP1 RETURN JUMPDEST PUSH2 0xEF PUSH1 0x4 DUP1 CALLDATASIZE SUB DUP2 ADD SWAP1 PUSH2 0xEA SWAP2 SWAP1 PUSH2 0xFD5 JUMP JUMPDEST PUSH2 0x253 JUMP JUMPDEST STOP JUMPDEST PUSH2 0x10B PUSH1 0x4 DUP1 CALLDATASIZE SUB DUP2 ADD SWAP1 PUSH2 0x106 SWAP2 SWAP1 PUSH2 0xFD5 JUMP JUMPDEST PUSH2 0x472 JUMP JUMPDEST PUSH1 0x40 MLOAD PUSH2 0x11D SWAP7 SWAP6 SWAP5 SWAP4 SWAP3 SWAP2 SWAP1 PUSH2 0x1059 JUMP JUMPDEST PUSH1 0x40 MLOAD DUP1 SWAP2 SUB SWAP1 RETURN JUMPDEST PUSH2 0x140 PUSH1 0x4 DUP1 CALLDATASIZE SUB DUP2 ADD SWAP1 PUSH2 0x13B SWAP2 SWAP1 PUSH2 0xFD5 JUMP JUMPDEST PUSH2 0x4D5 JUMP JUMPDEST STOP JUMPDEST PUSH2 0x15C PUSH1 0x4 DUP1 CALLDATASIZE SUB DUP2 ADD SWAP1 PUSH2 0x157 SWAP2 SWAP1 PUSH2 0xFD5 JUMP JUMPDEST PUSH2 0x752 JUMP JUMPDEST STOP JUMPDEST PUSH2 0x178 PUSH1 0x4 DUP1 CALLDATASIZE SUB DUP2 ADD SWAP1 PUSH2 0x173 SWAP2 SWAP1 PUSH2 0x10B8 JUMP JUMPDEST PUSH2 0x961 JUMP JUMPDEST STOP JUMPDEST PUSH2 0x194 PUSH1 0x4 DUP1 CALLDATASIZE SUB DUP2 ADD SWAP1 PUSH2 0x18F SWAP2 SWAP1 PUSH2 0x10F6 JUMP JUMPDEST PUSH2 0xB12 JUMP JUMPDEST STOP JUMPDEST PUSH2 0x19E PUSH2 0xD38 JUMP JUMPDEST PUSH1 0x40 MLOAD PUSH2 0x1AB SWAP2 SWAP1 PUSH2 0x1146 JUMP JUMPDEST PUSH1 0x40 MLOAD DUP1 SWAP2 SUB SWAP1 RETURN JUMPDEST PUSH2 0x1BC PUSH2 0xD3F JUMP JUMPDEST PUSH1 0x40 MLOAD PUSH2 0x1C9 SWAP2 SWAP1 PUSH2 0x1146 JUMP JUMPDEST PUSH1 0x40 MLOAD DUP1 SWAP2 SUB SWAP1 RETURN JUMPDEST PUSH2 0x1DA PUSH2 0xD44 JUMP JUMPDEST PUSH1 0x40 MLOAD PUSH2 0x1E7 SWAP2 SWAP1 PUSH2 0x1146 JUMP JUMPDEST PUSH1 0x40 MLOAD DUP1 SWAP2 SUB SWAP1 RETURN JUMPDEST PUSH2 0x1F8 PUSH2 0xD4A JUMP JUMPDEST PUSH1 0x40 MLOAD PUSH2 0x205 SWAP2 SWAP1 PUSH2 0x11BA JUMP JUMPDEST PUSH1 0x40 MLOAD DUP1 SWAP2 SUB SWAP1 RETURN JUMPDEST PUSH2 0x228 PUSH1 0x4 DUP1 CALLDATASIZE SUB DUP2 ADD SWAP1 PUSH2 0x223 SWAP2 SWAP1 PUSH2 0x10B8 JUMP JUMPDEST PUSH2 0xD6E JUMP JUMPDEST STOP JUMPDEST PUSH0 DUP1 PUSH0 TIMESTAMP SWAP1 POP PUSH1 0x14 DUP2 PUSH2 0x23D SWAP2 SWAP1 PUSH2 0x1200 JUMP JUMPDEST PUSH1 0x3C DUP3 PUSH2 0x24A SWAP2 SWAP1 PUSH2 0x1200 JUMP JUMPDEST SWAP3 POP SWAP3 POP POP SWAP1 SWAP2 JUMP JUMPDEST PUSH0 PUSH1 0x1 PUSH0 DUP4 DUP2 MSTORE PUSH1 0x20 ADD SWAP1 DUP2 MSTORE PUSH1 0x20 ADD PUSH0 KECCAK256 SWAP1 POP DUP1 PUSH1 0x4 ADD SLOAD TIMESTAMP GT PUSH2 0x2AD JUMPI PUSH1 0x40 MLOAD PUSH32 0x8C379A000000000000000000000000000000000000000000000000000000000 DUP2 MSTORE PUSH1 0x4 ADD PUSH2 0x2A4 SWAP1 PUSH2 0x128D JUMP JUMPDEST PUSH1 0x40 MLOAD DUP1 SWAP2 SUB SWAP1 REVERT JUMPDEST DUP1 PUSH1 0x1 ADD SLOAD DUP2 PUSH1 0x2 ADD SLOAD LT PUSH2 0x2F7 JUMPI PUSH1 0x40 MLOAD PUSH32 0x8C379A000000000000000000000000000000000000000000000000000000000 DUP2 MSTORE PUSH1 0x4 ADD PUSH2 0x2EE SWAP1 PUSH2 0x12F5 JUMP JUMPDEST PUSH1 0x40 MLOAD DUP1 SWAP2 SUB SWAP1 REVERT JUMPDEST PUSH0 DUP1 PUSH0 DUP5 DUP2 MSTORE PUSH1 0x20 ADD SWAP1 DUP2 MSTORE PUSH1 0x20 ADD PUSH0 KECCAK256 PUSH0 CALLER PUSH20 0xFFFFFFFFFFFFFFFFFFFFFFFFFFFFFFFFFFFFFFFF AND PUSH20 0xFFFFFFFFFFFFFFFFFFFFFFFFFFFFFFFFFFFFFFFF AND DUP2 MSTORE PUSH1 0x20 ADD SWAP1 DUP2 MSTORE PUSH1 0x20 ADD PUSH0 KECCAK256 SLOAD SWAP1 POP PUSH0 DUP1 PUSH0 DUP6 DUP2 MSTORE PUSH1 0x20 ADD SWAP1 DUP2 MSTORE PUSH1 0x20 ADD PUSH0 KECCAK256 PUSH0 CALLER PUSH20 0xFFFFFFFFFFFFFFFFFFFFFFFFFFFFFFFFFFFFFFFF AND PUSH20 0xFFFFFFFFFFFFFFFFFFFFFFFFFFFFFFFFFFFFFFFF AND DUP2 MSTORE PUSH1 0x20 ADD SWAP1 DUP2 MSTORE PUSH1 0x20 ADD PUSH0 KECCAK256 DUP2 SWAP1 SSTORE POP PUSH32 0x0 PUSH20 0xFFFFFFFFFFFFFFFFFFFFFFFFFFFFFFFFFFFFFFFF AND PUSH4 0xA9059CBB CALLER DUP4 PUSH1 0x40 MLOAD DUP4 PUSH4 0xFFFFFFFF AND PUSH1 0xE0 SHL DUP2 MSTORE PUSH1 0x4 ADD PUSH2 0x3F1 SWAP3 SWAP2 SWAP1 PUSH2 0x1313 JUMP JUMPDEST PUSH1 0x20 PUSH1 0x40 MLOAD DUP1 DUP4 SUB DUP2 PUSH0 DUP8 GAS CALL ISZERO DUP1 ISZERO PUSH2 0x40D JUMPI RETURNDATASIZE PUSH0 DUP1 RETURNDATACOPY RETURNDATASIZE PUSH0 REVERT JUMPDEST POP POP POP POP PUSH1 0x40 MLOAD RETURNDATASIZE PUSH1 0x1F NOT PUSH1 0x1F DUP3 ADD AND DUP3 ADD DUP1 PUSH1 0x40 MSTORE POP DUP2 ADD SWAP1 PUSH2 0x431 SWAP2 SWAP1 PUSH2 0x1364 JUMP JUMPDEST POP PUSH32 0x7CA5472B7EA78C2C0141C5A12EE6D170CF4CE8ED06BE3D22C8252DDFC7A6A2C4 DUP4 CALLER DUP4 PUSH1 0x40 MLOAD PUSH2 0x465 SWAP4 SWAP3 SWAP2 SWAP1 PUSH2 0x138F JUMP JUMPDEST PUSH1 0x40 MLOAD DUP1 SWAP2 SUB SWAP1 LOG1 POP POP POP JUMP JUMPDEST PUSH1 0x1 PUSH1 0x20 MSTORE DUP1 PUSH0 MSTORE PUSH1 0x40 PUSH0 KECCAK256 PUSH0 SWAP2 POP SWAP1 POP DUP1 PUSH0 ADD PUSH0 SWAP1 SLOAD SWAP1 PUSH2 0x100 EXP SWAP1 DIV PUSH20 0xFFFFFFFFFFFFFFFFFFFFFFFFFFFFFFFFFFFFFFFF AND SWAP1 DUP1 PUSH1 0x1 ADD SLOAD SWAP1 DUP1 PUSH1 0x2 ADD SLOAD SWAP1 DUP1 PUSH1 0x3 ADD SLOAD SWAP1 DUP1 PUSH1 0x4 ADD SLOAD SWAP1 DUP1 PUSH1 0x5 ADD PUSH0 SWAP1 SLOAD SWAP1 PUSH2 0x100 EXP SWAP1 DIV PUSH1 0xFF AND SWAP1 POP DUP7 JUMP JUMPDEST PUSH0 PUSH1 0x1 PUSH0 DUP4 DUP2 MSTORE PUSH1 0x20 ADD SWAP1 DUP2 MSTORE PUSH1 0x20 ADD PUSH0 KECCAK256 SWAP1 POP DUP1 PUSH0 ADD PUSH0 SWAP1 SLOAD SWAP1 PUSH2 0x100 EXP SWAP1 DIV PUSH20 0xFFFFFFFFFFFFFFFFFFFFFFFFFFFFFFFFFFFFFFFF AND PUSH20 0xFFFFFFFFFFFFFFFFFFFFFFFFFFFFFFFFFFFFFFFF AND CALLER PUSH20 0xFFFFFFFFFFFFFFFFFFFFFFFFFFFFFFFFFFFFFFFF AND EQ PUSH2 0x579 JUMPI PUSH1 0x40 MLOAD PUSH32 0x8C379A000000000000000000000000000000000000000000000000000000000 DUP2 MSTORE PUSH1 0x4 ADD PUSH2 0x570 SWAP1 PUSH2 0x140E JUMP JUMPDEST PUSH1 0x40 MLOAD DUP1 SWAP2 SUB SWAP1 REVERT JUMPDEST DUP1 PUSH1 0x4 ADD SLOAD TIMESTAMP GT PUSH2 0x5BF JUMPI PUSH1 0x40 MLOAD PUSH32 0x8C379A000000000000000000000000000000000000000000000000000000000 DUP2 MSTORE PUSH1 0x4 ADD PUSH2 0x5B6 SWAP1 PUSH2 0x128D JUMP JUMPDEST PUSH1 0x40 MLOAD DUP1 SWAP2 SUB SWAP1 REVERT JUMPDEST DUP1 PUSH1 0x1 ADD SLOAD DUP2 PUSH1 0x2 ADD SLOAD LT ISZERO PUSH2 0x60A JUMPI PUSH1 0x40 MLOAD PUSH32 0x8C379A000000000000000000000000000000000000000000000000000000000 DUP2 MSTORE PUSH1 0x4 ADD PUSH2 0x601 SWAP1 PUSH2 0x1476 JUMP JUMPDEST PUSH1 0x40 MLOAD DUP1 SWAP2 SUB SWAP1 REVERT JUMPDEST DUP1 PUSH1 0x5 ADD PUSH0 SWAP1 SLOAD SWAP1 PUSH2 0x100 EXP SWAP1 DIV PUSH1 0xFF AND ISZERO PUSH2 0x65B JUMPI PUSH1 0x40 MLOAD PUSH32 0x8C379A000000000000000000000000000000000000000000000000000000000 DUP2 MSTORE PUSH1 0x4 ADD PUSH2 0x652 SWAP1 PUSH2 0x14DE JUMP JUMPDEST PUSH1 0x40 MLOAD DUP1 SWAP2 SUB SWAP1 REVERT JUMPDEST PUSH1 0x1 DUP2 PUSH1 0x5 ADD PUSH0 PUSH2 0x100 EXP DUP2 SLOAD DUP2 PUSH1 0xFF MUL NOT AND SWAP1 DUP4 ISZERO ISZERO MUL OR SWAP1 SSTORE POP PUSH32 0x0 PUSH20 0xFFFFFFFFFFFFFFFFFFFFFFFFFFFFFFFFFFFFFFFF AND PUSH4 0xA9059CBB CALLER DUP4 PUSH1 0x2 ADD SLOAD PUSH1 0x40 MLOAD DUP4 PUSH4 0xFFFFFFFF AND PUSH1 0xE0 SHL DUP2 MSTORE PUSH1 0x4 ADD PUSH2 0x6D6 SWAP3 SWAP2 SWAP1 PUSH2 0x1313 JUMP JUMPDEST PUSH1 0x20 PUSH1 0x40 MLOAD DUP1 DUP4 SUB DUP2 PUSH0 DUP8 GAS CALL ISZERO DUP1 ISZERO PUSH2 0x6F2 JUMPI RETURNDATASIZE PUSH0 DUP1 RETURNDATACOPY RETURNDATASIZE PUSH0 REVERT JUMPDEST POP POP POP POP PUSH1 0x40 MLOAD RETURNDATASIZE PUSH1 0x1F NOT PUSH1 0x1F DUP3 ADD AND DUP3 ADD DUP1 PUSH1 0x40 MSTORE POP DUP2 ADD SWAP1 PUSH2 0x716 SWAP2 SWAP1 PUSH2 0x1364 JUMP JUMPDEST POP PUSH32 0x7A355715549CFE7C1CBA26304350343FBDDC4B4F72D3CE3E7C27117DD20B5CB8 DUP3 PUSH1 0x40 MLOAD PUSH2 0x746 SWAP2 SWAP1 PUSH2 0x1146 JUMP JUMPDEST PUSH1 0x40 MLOAD DUP1 SWAP2 SUB SWAP1 LOG1 POP POP JUMP JUMPDEST PUSH0 PUSH1 0x1 PUSH0 DUP4 DUP2 MSTORE PUSH1 0x20 ADD SWAP1 DUP2 MSTORE PUSH1 0x20 ADD PUSH0 KECCAK256 PUSH1 0x40 MLOAD DUP1 PUSH1 0xC0 ADD PUSH1 0x40 MSTORE SWAP1 DUP2 PUSH0 DUP3 ADD PUSH0 SWAP1 SLOAD SWAP1 PUSH2 0x100 EXP SWAP1 DIV PUSH20 0xFFFFFFFFFFFFFFFFFFFFFFFFFFFFFFFFFFFFFFFF AND PUSH20 0xFFFFFFFFFFFFFFFFFFFFFFFFFFFFFFFFFFFFFFFF AND PUSH20 0xFFFFFFFFFFFFFFFFFFFFFFFFFFFFFFFFFFFFFFFF AND DUP2 MSTORE PUSH1 0x20 ADD PUSH1 0x1 DUP3 ADD SLOAD DUP2 MSTORE PUSH1 0x20 ADD PUSH1 0x2 DUP3 ADD SLOAD DUP2 MSTORE PUSH1 0x20 ADD PUSH1 0x3 DUP3 ADD SLOAD DUP2 MSTORE PUSH1 0x20 ADD PUSH1 0x4 DUP3 ADD SLOAD DUP2 MSTORE PUSH1 0x20 ADD PUSH1 0x5 DUP3 ADD PUSH0 SWAP1 SLOAD SWAP1 PUSH2 0x100 EXP SWAP1 DIV PUSH1 0xFF AND ISZERO ISZERO ISZERO ISZERO DUP2 MSTORE POP POP SWAP1 POP DUP1 PUSH0 ADD MLOAD PUSH20 0xFFFFFFFFFFFFFFFFFFFFFFFFFFFFFFFFFFFFFFFF AND CALLER PUSH20 0xFFFFFFFFFFFFFFFFFFFFFFFFFFFFFFFFFFFFFFFF AND EQ PUSH2 0x878 JUMPI PUSH1 0x40 MLOAD PUSH32 0x8C379A000000000000000000000000000000000000000000000000000000000 DUP2 MSTORE PUSH1 0x4 ADD PUSH2 0x86F SWAP1 PUSH2 0x140E JUMP JUMPDEST PUSH1 0x40 MLOAD DUP1 SWAP2 SUB SWAP1 REVERT JUMPDEST DUP1 PUSH1 0x60 ADD MLOAD TIMESTAMP LT PUSH2 0x8BE JUMPI PUSH1 0x40 MLOAD PUSH32 0x8C379A000000000000000000000000000000000000000000000000000000000 DUP2 MSTORE PUSH1 0x4 ADD PUSH2 0x8B5 SWAP1 PUSH2 0x1546 JUMP JUMPDEST PUSH1 0x40 MLOAD DUP1 SWAP2 SUB SWAP1 REVERT JUMPDEST PUSH1 0x1 PUSH0 DUP4 DUP2 MSTORE PUSH1 0x20 ADD SWAP1 DUP2 MSTORE PUSH1 0x20 ADD PUSH0 KECCAK256 PUSH0 DUP1 DUP3 ADD PUSH0 PUSH2 0x100 EXP DUP2 SLOAD SWAP1 PUSH20 0xFFFFFFFFFFFFFFFFFFFFFFFFFFFFFFFFFFFFFFFF MUL NOT AND SWAP1 SSTORE PUSH1 0x1 DUP3 ADD PUSH0 SWAP1 SSTORE PUSH1 0x2 DUP3 ADD PUSH0 SWAP1 SSTORE PUSH1 0x3 DUP3 ADD PUSH0 SWAP1 SSTORE PUSH1 0x4 DUP3 ADD PUSH0 SWAP1 SSTORE PUSH1 0x5 DUP3 ADD PUSH0 PUSH2 0x100 EXP DUP2 SLOAD SWAP1 PUSH1 0xFF MUL NOT AND SWAP1 SSTORE POP POP PUSH32 0x829A8683C544AD289CE92D3CE06E9EBAD69B18A6916E60EC766C2C217461D8E9 DUP3 PUSH1 0x40 MLOAD PUSH2 0x955 SWAP2 SWAP1 PUSH2 0x1146 JUMP JUMPDEST PUSH1 0x40 MLOAD DUP1 SWAP2 SUB SWAP1 LOG1 POP POP JUMP JUMPDEST PUSH0 PUSH1 0x1 PUSH0 DUP5 DUP2 MSTORE PUSH1 0x20 ADD SWAP1 DUP2 MSTORE PUSH1 0x20 ADD PUSH0 KECCAK256 SWAP1 POP DUP1 PUSH1 0x4 ADD SLOAD TIMESTAMP LT PUSH2 0x9BB JUMPI PUSH1 0x40 MLOAD PUSH32 0x8C379A000000000000000000000000000000000000000000000000000000000 DUP2 MSTORE PUSH1 0x4 ADD PUSH2 0x9B2 SWAP1 PUSH2 0x15AE JUMP JUMPDEST PUSH1 0x40 MLOAD DUP1 SWAP2 SUB SWAP1 REVERT JUMPDEST DUP2 DUP2 PUSH1 0x2 ADD PUSH0 DUP3 DUP3 SLOAD PUSH2 0x9CE SWAP2 SWAP1 PUSH2 0x15CC JUMP JUMPDEST SWAP3 POP POP DUP2 SWAP1 SSTORE POP DUP2 PUSH0 DUP1 DUP6 DUP2 MSTORE PUSH1 0x20 ADD SWAP1 DUP2 MSTORE PUSH1 0x20 ADD PUSH0 KECCAK256 PUSH0 CALLER PUSH20 0xFFFFFFFFFFFFFFFFFFFFFFFFFFFFFFFFFFFFFFFF AND PUSH20 0xFFFFFFFFFFFFFFFFFFFFFFFFFFFFFFFFFFFFFFFF AND DUP2 MSTORE PUSH1 0x20 ADD SWAP1 DUP2 MSTORE PUSH1 0x20 ADD PUSH0 KECCAK256 PUSH0 DUP3 DUP3 SLOAD PUSH2 0xA2F SWAP2 SWAP1 PUSH2 0x15CC JUMP JUMPDEST SWAP3 POP POP DUP2 SWAP1 SSTORE POP PUSH32 0x0 PUSH20 0xFFFFFFFFFFFFFFFFFFFFFFFFFFFFFFFFFFFFFFFF AND PUSH4 0xA9059CBB CALLER DUP5 PUSH1 0x40 MLOAD DUP4 PUSH4 0xFFFFFFFF AND PUSH1 0xE0 SHL DUP2 MSTORE PUSH1 0x4 ADD PUSH2 0xA91 SWAP3 SWAP2 SWAP1 PUSH2 0x1313 JUMP JUMPDEST PUSH1 0x20 PUSH1 0x40 MLOAD DUP1 DUP4 SUB DUP2 PUSH0 DUP8 GAS CALL ISZERO DUP1 ISZERO PUSH2 0xAAD JUMPI RETURNDATASIZE PUSH0 DUP1 RETURNDATACOPY RETURNDATASIZE PUSH0 REVERT JUMPDEST POP POP POP POP PUSH1 0x40 MLOAD RETURNDATASIZE PUSH1 0x1F NOT PUSH1 0x1F DUP3 ADD AND DUP3 ADD DUP1 PUSH1 0x40 MSTORE POP DUP2 ADD SWAP1 PUSH2 0xAD1 SWAP2 SWAP1 PUSH2 0x1364 JUMP JUMPDEST POP PUSH32 0xFCD29B1632C6748A9A4BB9B4CD5C6486C3C84A8550DCE2368F83FEF3969D9685 DUP4 CALLER DUP5 PUSH1 0x40 MLOAD PUSH2 0xB05 SWAP4 SWAP3 SWAP2 SWAP1 PUSH2 0x138F JUMP JUMPDEST PUSH1 0x40 MLOAD DUP1 SWAP2 SUB SWAP1 LOG1 POP POP POP JUMP JUMPDEST TIMESTAMP DUP3 LT ISZERO PUSH2 0xB55 JUMPI PUSH1 0x40 MLOAD PUSH32 0x8C379A000000000000000000000000000000000000000000000000000000000 DUP2 MSTORE PUSH1 0x4 ADD PUSH2 0xB4C SWAP1 PUSH2 0x1649 JUMP JUMPDEST PUSH1 0x40 MLOAD DUP1 SWAP2 SUB SWAP1 REVERT JUMPDEST PUSH1 0xA DUP3 PUSH2 0xB62 SWAP2 SWAP1 PUSH2 0x1200 JUMP JUMPDEST DUP2 LT ISZERO PUSH2 0xBA4 JUMPI PUSH1 0x40 MLOAD PUSH32 0x8C379A000000000000000000000000000000000000000000000000000000000 DUP2 MSTORE PUSH1 0x4 ADD PUSH2 0xB9B SWAP1 PUSH2 0x16B1 JUMP JUMPDEST PUSH1 0x40 MLOAD DUP1 SWAP2 SUB SWAP1 REVERT JUMPDEST PUSH3 0x83D600 DUP3 PUSH2 0xBB3 SWAP2 SWAP1 PUSH2 0x1200 JUMP JUMPDEST DUP2 GT ISZERO PUSH2 0xBF5 JUMPI PUSH1 0x40 MLOAD PUSH32 0x8C379A000000000000000000000000000000000000000000000000000000000 DUP2 MSTORE PUSH1 0x4 ADD PUSH2 0xBEC SWAP1 PUSH2 0x1719 JUMP JUMPDEST PUSH1 0x40 MLOAD DUP1 SWAP2 SUB SWAP1 REVERT JUMPDEST PUSH1 0x40 MLOAD DUP1 PUSH1 0xC0 ADD PUSH1 0x40 MSTORE DUP1 CALLER PUSH20 0xFFFFFFFFFFFFFFFFFFFFFFFFFFFFFFFFFFFFFFFF AND DUP2 MSTORE PUSH1 0x20 ADD DUP5 DUP2 MSTORE PUSH1 0x20 ADD PUSH0 DUP2 MSTORE PUSH1 0x20 ADD DUP4 DUP2 MSTORE PUSH1 0x20 ADD DUP3 DUP2 MSTORE PUSH1 0x20 ADD PUSH0 ISZERO ISZERO DUP2 MSTORE POP PUSH1 0x1 PUSH0 PUSH1 0x2 SLOAD DUP2 MSTORE PUSH1 0x20 ADD SWAP1 DUP2 MSTORE PUSH1 0x20 ADD PUSH0 KECCAK256 PUSH0 DUP3 ADD MLOAD DUP2 PUSH0 ADD PUSH0 PUSH2 0x100 EXP DUP2 SLOAD DUP2 PUSH20 0xFFFFFFFFFFFFFFFFFFFFFFFFFFFFFFFFFFFFFFFF MUL NOT AND SWAP1 DUP4 PUSH20 0xFFFFFFFFFFFFFFFFFFFFFFFFFFFFFFFFFFFFFFFF AND MUL OR SWAP1 SSTORE POP PUSH1 0x20 DUP3 ADD MLOAD DUP2 PUSH1 0x1 ADD SSTORE PUSH1 0x40 DUP3 ADD MLOAD DUP2 PUSH1 0x2 ADD SSTORE PUSH1 0x60 DUP3 ADD MLOAD DUP2 PUSH1 0x3 ADD SSTORE PUSH1 0x80 DUP3 ADD MLOAD DUP2 PUSH1 0x4 ADD SSTORE PUSH1 0xA0 DUP3 ADD MLOAD DUP2 PUSH1 0x5 ADD PUSH0 PUSH2 0x100 EXP DUP2 SLOAD DUP2 PUSH1 0xFF MUL NOT AND SWAP1 DUP4 ISZERO ISZERO MUL OR SWAP1 SSTORE POP SWAP1 POP POP PUSH32 0xEA7DC5BE41326789A621AAA33D671281D0A54AA87610751DEF19F8544C2004C3 PUSH1 0x2 SLOAD CALLER DUP6 DUP6 DUP6 PUSH1 0x40 MLOAD PUSH2 0xD14 SWAP6 SWAP5 SWAP4 SWAP3 SWAP2 SWAP1 PUSH2 0x1737 JUMP JUMPDEST PUSH1 0x40 MLOAD DUP1 SWAP2 SUB SWAP1 LOG1 PUSH1 0x2 PUSH0 DUP2 SLOAD DUP1 SWAP3 SWAP2 SWAP1 PUSH2 0xD2E SWAP1 PUSH2 0x1788 JUMP JUMPDEST SWAP2 SWAP1 POP SSTORE POP POP POP POP JUMP JUMPDEST PUSH3 0x83D600 DUP2 JUMP JUMPDEST PUSH1 0xA DUP2 JUMP JUMPDEST PUSH1 0x2 SLOAD DUP2 JUMP JUMPDEST PUSH32 0x0 DUP2 JUMP JUMPDEST PUSH0 PUSH1 0x1 PUSH0 DUP5 DUP2 MSTORE PUSH1 0x20 ADD SWAP1 DUP2 MSTORE PUSH1 0x20 ADD PUSH0 KECCAK256 SWAP1 POP DUP1 PUSH1 0x3 ADD SLOAD TIMESTAMP LT ISZERO PUSH2 0xDC9 JUMPI PUSH1 0x40 MLOAD PUSH32 0x8C379A000000000000000000000000000000000000000000000000000000000 DUP2 MSTORE PUSH1 0x4 ADD PUSH2 0xDC0 SWAP1 PUSH2 0x1819 JUMP JUMPDEST PUSH1 0x40 MLOAD DUP1 SWAP2 SUB SWAP1 REVERT JUMPDEST DUP1 PUSH1 0x4 ADD SLOAD TIMESTAMP LT PUSH2 0xE0F JUMPI PUSH1 0x40 MLOAD PUSH32 0x8C379A000000000000000000000000000000000000000000000000000000000 DUP2 MSTORE PUSH1 0x4 ADD PUSH2 0xE06 SWAP1 PUSH2 0x15AE JUMP JUMPDEST PUSH1 0x40 MLOAD DUP1 SWAP2 SUB SWAP1 REVERT JUMPDEST DUP2 DUP2 PUSH1 0x2 ADD PUSH0 DUP3 DUP3 SLOAD PUSH2 0xE22 SWAP2 SWAP1 PUSH2 0x1200 JUMP JUMPDEST SWAP3 POP POP DUP2 SWAP1 SSTORE POP DUP2 PUSH0 DUP1 DUP6 DUP2 MSTORE PUSH1 0x20 ADD SWAP1 DUP2 MSTORE PUSH1 0x20 ADD PUSH0 KECCAK256 PUSH0 CALLER PUSH20 0xFFFFFFFFFFFFFFFFFFFFFFFFFFFFFFFFFFFFFFFF AND PUSH20 0xFFFFFFFFFFFFFFFFFFFFFFFFFFFFFFFFFFFFFFFF AND DUP2 MSTORE PUSH1 0x20 ADD SWAP1 DUP2 MSTORE PUSH1 0x20 ADD PUSH0 KECCAK256 PUSH0 DUP3 DUP3 SLOAD PUSH2 0xE83 SWAP2 SWAP1 PUSH2 0x1200 JUMP JUMPDEST SWAP3 POP POP DUP2 SWAP1 SSTORE POP PUSH32 0x0 PUSH20 0xFFFFFFFFFFFFFFFFFFFFFFFFFFFFFFFFFFFFFFFF AND PUSH4 0x23B872DD CALLER ADDRESS DUP6 PUSH1 0x40 MLOAD DUP5 PUSH4 0xFFFFFFFF AND PUSH1 0xE0 SHL DUP2 MSTORE PUSH1 0x4 ADD PUSH2 0xEE7 SWAP4 SWAP3 SWAP2 SWAP1 PUSH2 0x1837 JUMP JUMPDEST PUSH1 0x20 PUSH1 0x40 MLOAD DUP1 DUP4 SUB DUP2 PUSH0 DUP8 GAS CALL ISZERO DUP1 ISZERO PUSH2 0xF03 JUMPI RETURNDATASIZE PUSH0 DUP1 RETURNDATACOPY RETURNDATASIZE PUSH0 REVERT JUMPDEST POP POP POP POP PUSH1 0x40 MLOAD RETURNDATASIZE PUSH1 0x1F NOT PUSH1 0x1F DUP3 ADD AND DUP3 ADD DUP1 PUSH1 0x40 MSTORE POP DUP2 ADD SWAP1 PUSH2 0xF27 SWAP2 SWAP1 PUSH2 0x1364 JUMP JUMPDEST POP PUSH32 0x2757AC6A40883F4491CC56930AE964DF9034E343E660D5179EB01E198336756B DUP4 CALLER DUP5 PUSH1 0x40 MLOAD PUSH2 0xF5B SWAP4 SWAP3 SWAP2 SWAP1 PUSH2 0x138F JUMP JUMPDEST PUSH1 0x40 MLOAD DUP1 SWAP2 SUB SWAP1 LOG1 POP POP POP JUMP JUMPDEST PUSH0 DUP2 SWAP1 POP SWAP2 SWAP1 POP JUMP JUMPDEST PUSH2 0xF7A DUP2 PUSH2 0xF68 JUMP JUMPDEST DUP3 MSTORE POP POP JUMP JUMPDEST PUSH0 PUSH1 0x40 DUP3 ADD SWAP1 POP PUSH2 0xF93 PUSH0 DUP4 ADD DUP6 PUSH2 0xF71 JUMP JUMPDEST PUSH2 0xFA0 PUSH1 0x20 DUP4 ADD DUP5 PUSH2 0xF71 JUMP JUMPDEST SWAP4 SWAP3 POP POP POP JUMP JUMPDEST PUSH0 DUP1 REVERT JUMPDEST PUSH2 0xFB4 DUP2 PUSH2 0xF68 JUMP JUMPDEST DUP2 EQ PUSH2 0xFBE JUMPI PUSH0 DUP1 REVERT JUMPDEST POP JUMP JUMPDEST PUSH0 DUP2 CALLDATALOAD SWAP1 POP PUSH2 0xFCF DUP2 PUSH2 0xFAB JUMP JUMPDEST SWAP3 SWAP2 POP POP JUMP JUMPDEST PUSH0 PUSH1 0x20 DUP3 DUP5 SUB SLT ISZERO PUSH2 0xFEA JUMPI PUSH2 0xFE9 PUSH2 0xFA7 JUMP JUMPDEST JUMPDEST PUSH0 PUSH2 0xFF7 DUP5 DUP3 DUP6 ADD PUSH2 0xFC1 JUMP JUMPDEST SWAP2 POP POP SWAP3 SWAP2 POP POP JUMP JUMPDEST PUSH0 PUSH20 0xFFFFFFFFFFFFFFFFFFFFFFFFFFFFFFFFFFFFFFFF DUP3 AND SWAP1 POP SWAP2 SWAP1 POP JUMP JUMPDEST PUSH0 PUSH2 0x1029 DUP3 PUSH2 0x1000 JUMP JUMPDEST SWAP1 POP SWAP2 SWAP1 POP JUMP JUMPDEST PUSH2 0x1039 DUP2 PUSH2 0x101F JUMP JUMPDEST DUP3 MSTORE POP POP JUMP JUMPDEST PUSH0 DUP2 ISZERO ISZERO SWAP1 POP SWAP2 SWAP1 POP JUMP JUMPDEST PUSH2 0x1053 DUP2 PUSH2 0x103F JUMP JUMPDEST DUP3 MSTORE POP POP JUMP JUMPDEST PUSH0 PUSH1 0xC0 DUP3 ADD SWAP1 POP PUSH2 0x106C PUSH0 DUP4 ADD DUP10 PUSH2 0x1030 JUMP JUMPDEST PUSH2 0x1079 PUSH1 0x20 DUP4 ADD DUP9 PUSH2 0xF71 JUMP JUMPDEST PUSH2 0x1086 PUSH1 0x40 DUP4 ADD DUP8 PUSH2 0xF71 JUMP JUMPDEST PUSH2 0x1093 PUSH1 0x60 DUP4 ADD DUP7 PUSH2 0xF71 JUMP JUMPDEST PUSH2 0x10A0 PUSH1 0x80 DUP4 ADD DUP6 PUSH2 0xF71 JUMP JUMPDEST PUSH2 0x10AD PUSH1 0xA0 DUP4 ADD DUP5 PUSH2 0x104A JUMP JUMPDEST SWAP8 SWAP7 POP POP POP POP POP POP POP JUMP JUMPDEST PUSH0 DUP1 PUSH1 0x40 DUP4 DUP6 SUB SLT ISZERO PUSH2 0x10CE JUMPI PUSH2 0x10CD PUSH2 0xFA7 JUMP JUMPDEST JUMPDEST PUSH0 PUSH2 0x10DB DUP6 DUP3 DUP7 ADD PUSH2 0xFC1 JUMP JUMPDEST SWAP3 POP POP PUSH1 0x20 PUSH2 0x10EC DUP6 DUP3 DUP7 ADD PUSH2 0xFC1 JUMP JUMPDEST SWAP2 POP POP SWAP3 POP SWAP3 SWAP1 POP JUMP JUMPDEST PUSH0 DUP1 PUSH0 PUSH1 0x60 DUP5 DUP7 SUB SLT ISZERO PUSH2 0x110D JUMPI PUSH2 0x110C PUSH2 0xFA7 JUMP JUMPDEST JUMPDEST PUSH0 PUSH2 0x111A DUP7 DUP3 DUP8 ADD PUSH2 0xFC1 JUMP JUMPDEST SWAP4 POP POP PUSH1 0x20 PUSH2 0x112B DUP7 DUP3 DUP8 ADD PUSH2 0xFC1 JUMP JUMPDEST SWAP3 POP POP PUSH1 0x40 PUSH2 0x113C DUP7 DUP3 DUP8 ADD PUSH2 0xFC1 JUMP JUMPDEST SWAP2 POP POP SWAP3 POP SWAP3 POP SWAP3 JUMP JUMPDEST PUSH0 PUSH1 0x20 DUP3 ADD SWAP1 POP PUSH2 0x1159 PUSH0 DUP4 ADD DUP5 PUSH2 0xF71 JUMP JUMPDEST SWAP3 SWAP2 POP POP JUMP JUMPDEST PUSH0 DUP2 SWAP1 POP SWAP2 SWAP1 POP JUMP JUMPDEST PUSH0 PUSH2 0x1182 PUSH2 0x117D PUSH2 0x1178 DUP5 PUSH2 0x1000 JUMP JUMPDEST PUSH2 0x115F JUMP JUMPDEST PUSH2 0x1000 JUMP JUMPDEST SWAP1 POP SWAP2 SWAP1 POP JUMP JUMPDEST PUSH0 PUSH2 0x1193 DUP3 PUSH2 0x1168 JUMP JUMPDEST SWAP1 POP SWAP2 SWAP1 POP JUMP JUMPDEST PUSH0 PUSH2 0x11A4 DUP3 PUSH2 0x1189 JUMP JUMPDEST SWAP1 POP SWAP2 SWAP1 POP JUMP JUMPDEST PUSH2 0x11B4 DUP2 PUSH2 0x119A JUMP JUMPDEST DUP3 MSTORE POP POP JUMP JUMPDEST PUSH0 PUSH1 0x20 DUP3 ADD SWAP1 POP PUSH2 0x11CD PUSH0 DUP4 ADD DUP5 PUSH2 0x11AB JUMP JUMPDEST SWAP3 SWAP2 POP POP JUMP JUMPDEST PUSH32 0x4E487B7100000000000000000000000000000000000000000000000000000000 PUSH0 MSTORE PUSH1 0x11 PUSH1 0x4 MSTORE PUSH1 0x24 PUSH0 REVERT JUMPDEST PUSH0 PUSH2 0x120A DUP3 PUSH2 0xF68 JUMP JUMPDEST SWAP2 POP PUSH2 0x1215 DUP4 PUSH2 0xF68 JUMP JUMPDEST SWAP3 POP DUP3 DUP3 ADD SWAP1 POP DUP1 DUP3 GT ISZERO PUSH2 0x122D JUMPI PUSH2 0x122C PUSH2 0x11D3 JUMP JUMPDEST JUMPDEST SWAP3 SWAP2 POP POP JUMP JUMPDEST PUSH0 DUP3 DUP3 MSTORE PUSH1 0x20 DUP3 ADD SWAP1 POP SWAP3 SWAP2 POP POP JUMP JUMPDEST PUSH32 0x6E6F7420656E6465640000000000000000000000000000000000000000000000 PUSH0 DUP3 ADD MSTORE POP JUMP JUMPDEST PUSH0 PUSH2 0x1277 PUSH1 0x9 DUP4 PUSH2 0x1233 JUMP JUMPDEST SWAP2 POP PUSH2 0x1282 DUP3 PUSH2 0x1243 JUMP JUMPDEST PUSH1 0x20 DUP3 ADD SWAP1 POP SWAP2 SWAP1 POP JUMP JUMPDEST PUSH0 PUSH1 0x20 DUP3 ADD SWAP1 POP DUP2 DUP2 SUB PUSH0 DUP4 ADD MSTORE PUSH2 0x12A4 DUP2 PUSH2 0x126B JUMP JUMPDEST SWAP1 POP SWAP2 SWAP1 POP JUMP JUMPDEST PUSH32 0x7265616368656420676F616C0000000000000000000000000000000000000000 PUSH0 DUP3 ADD MSTORE POP JUMP JUMPDEST PUSH0 PUSH2 0x12DF PUSH1 0xC DUP4 PUSH2 0x1233 JUMP JUMPDEST SWAP2 POP PUSH2 0x12EA DUP3 PUSH2 0x12AB JUMP JUMPDEST PUSH1 0x20 DUP3 ADD SWAP1 POP SWAP2 SWAP1 POP JUMP JUMPDEST PUSH0 PUSH1 0x20 DUP3 ADD SWAP1 POP DUP2 DUP2 SUB PUSH0 DUP4 ADD MSTORE PUSH2 0x130C DUP2 PUSH2 0x12D3 JUMP JUMPDEST SWAP1 POP SWAP2 SWAP1 POP JUMP JUMPDEST PUSH0 PUSH1 0x40 DUP3 ADD SWAP1 POP PUSH2 0x1326 PUSH0 DUP4 ADD DUP6 PUSH2 0x1030 JUMP JUMPDEST PUSH2 0x1333 PUSH1 0x20 DUP4 ADD DUP5 PUSH2 0xF71 JUMP JUMPDEST SWAP4 SWAP3 POP POP POP JUMP JUMPDEST PUSH2 0x1343 DUP2 PUSH2 0x103F JUMP JUMPDEST DUP2 EQ PUSH2 0x134D JUMPI PUSH0 DUP1 REVERT JUMPDEST POP JUMP JUMPDEST PUSH0 DUP2 MLOAD SWAP1 POP PUSH2 0x135E DUP2 PUSH2 0x133A JUMP JUMPDEST SWAP3 SWAP2 POP POP JUMP JUMPDEST PUSH0 PUSH1 0x20 DUP3 DUP5 SUB SLT ISZERO PUSH2 0x1379 JUMPI PUSH2 0x1378 PUSH2 0xFA7 JUMP JUMPDEST JUMPDEST PUSH0 PUSH2 0x1386 DUP5 DUP3 DUP6 ADD PUSH2 0x1350 JUMP JUMPDEST SWAP2 POP POP SWAP3 SWAP2 POP POP JUMP JUMPDEST PUSH0 PUSH1 0x60 DUP3 ADD SWAP1 POP PUSH2 0x13A2 PUSH0 DUP4 ADD DUP7 PUSH2 0xF71 JUMP JUMPDEST PUSH2 0x13AF PUSH1 0x20 DUP4 ADD DUP6 PUSH2 0x1030 JUMP JUMPDEST PUSH2 0x13BC PUSH1 0x40 DUP4 ADD DUP5 PUSH2 0xF71 JUMP JUMPDEST SWAP5 SWAP4 POP POP POP POP JUMP JUMPDEST PUSH32 0x6E6F7420616E206F776E65720000000000000000000000000000000000000000 PUSH0 DUP3 ADD MSTORE POP JUMP JUMPDEST PUSH0 PUSH2 0x13F8 PUSH1 0xC DUP4 PUSH2 0x1233 JUMP JUMPDEST SWAP2 POP PUSH2 0x1403 DUP3 PUSH2 0x13C4 JUMP JUMPDEST PUSH1 0x20 DUP3 ADD SWAP1 POP SWAP2 SWAP1 POP JUMP JUMPDEST PUSH0 PUSH1 0x20 DUP3 ADD SWAP1 POP DUP2 DUP2 SUB PUSH0 DUP4 ADD MSTORE PUSH2 0x1425 DUP2 PUSH2 0x13EC JUMP JUMPDEST SWAP1 POP SWAP2 SWAP1 POP JUMP JUMPDEST PUSH32 0x706C656467656420697320746F6F206C6F770000000000000000000000000000 PUSH0 DUP3 ADD MSTORE POP JUMP JUMPDEST PUSH0 PUSH2 0x1460 PUSH1 0x12 DUP4 PUSH2 0x1233 JUMP JUMPDEST SWAP2 POP PUSH2 0x146B DUP3 PUSH2 0x142C JUMP JUMPDEST PUSH1 0x20 DUP3 ADD SWAP1 POP SWAP2 SWAP1 POP JUMP JUMPDEST PUSH0 PUSH1 0x20 DUP3 ADD SWAP1 POP DUP2 DUP2 SUB PUSH0 DUP4 ADD MSTORE PUSH2 0x148D DUP2 PUSH2 0x1454 JUMP JUMPDEST SWAP1 POP SWAP2 SWAP1 POP JUMP JUMPDEST PUSH32 0x616C726561647920636C61696D65640000000000000000000000000000000000 PUSH0 DUP3 ADD MSTORE POP JUMP JUMPDEST PUSH0 PUSH2 0x14C8 PUSH1 0xF DUP4 PUSH2 0x1233 JUMP JUMPDEST SWAP2 POP PUSH2 0x14D3 DUP3 PUSH2 0x1494 JUMP JUMPDEST PUSH1 0x20 DUP3 ADD SWAP1 POP SWAP2 SWAP1 POP JUMP JUMPDEST PUSH0 PUSH1 0x20 DUP3 ADD SWAP1 POP DUP2 DUP2 SUB PUSH0 DUP4 ADD MSTORE PUSH2 0x14F5 DUP2 PUSH2 0x14BC JUMP JUMPDEST SWAP1 POP SWAP2 SWAP1 POP JUMP JUMPDEST PUSH32 0x616C726561647920737461727465640000000000000000000000000000000000 PUSH0 DUP3 ADD MSTORE POP JUMP JUMPDEST PUSH0 PUSH2 0x1530 PUSH1 0xF DUP4 PUSH2 0x1233 JUMP JUMPDEST SWAP2 POP PUSH2 0x153B DUP3 PUSH2 0x14FC JUMP JUMPDEST PUSH1 0x20 DUP3 ADD SWAP1 POP SWAP2 SWAP1 POP JUMP JUMPDEST PUSH0 PUSH1 0x20 DUP3 ADD SWAP1 POP DUP2 DUP2 SUB PUSH0 DUP4 ADD MSTORE PUSH2 0x155D DUP2 PUSH2 0x1524 JUMP JUMPDEST SWAP1 POP SWAP2 SWAP1 POP JUMP JUMPDEST PUSH32 0x656E646564000000000000000000000000000000000000000000000000000000 PUSH0 DUP3 ADD MSTORE POP JUMP JUMPDEST PUSH0 PUSH2 0x1598 PUSH1 0x5 DUP4 PUSH2 0x1233 JUMP JUMPDEST SWAP2 POP PUSH2 0x15A3 DUP3 PUSH2 0x1564 JUMP JUMPDEST PUSH1 0x20 DUP3 ADD SWAP1 POP SWAP2 SWAP1 POP JUMP JUMPDEST PUSH0 PUSH1 0x20 DUP3 ADD SWAP1 POP DUP2 DUP2 SUB PUSH0 DUP4 ADD MSTORE PUSH2 0x15C5 DUP2 PUSH2 0x158C JUMP JUMPDEST SWAP1 POP SWAP2 SWAP1 POP JUMP JUMPDEST PUSH0 PUSH2 0x15D6 DUP3 PUSH2 0xF68 JUMP JUMPDEST SWAP2 POP PUSH2 0x15E1 DUP4 PUSH2 0xF68 JUMP JUMPDEST SWAP3 POP DUP3 DUP3 SUB SWAP1 POP DUP2 DUP2 GT ISZERO PUSH2 0x15F9 JUMPI PUSH2 0x15F8 PUSH2 0x11D3 JUMP JUMPDEST JUMPDEST SWAP3 SWAP2 POP POP JUMP JUMPDEST PUSH32 0x696E636F72726563742073746172742061740000000000000000000000000000 PUSH0 DUP3 ADD MSTORE POP JUMP JUMPDEST PUSH0 PUSH2 0x1633 PUSH1 0x12 DUP4 PUSH2 0x1233 JUMP JUMPDEST SWAP2 POP PUSH2 0x163E DUP3 PUSH2 0x15FF JUMP JUMPDEST PUSH1 0x20 DUP3 ADD SWAP1 POP SWAP2 SWAP1 POP JUMP JUMPDEST PUSH0 PUSH1 0x20 DUP3 ADD SWAP1 POP DUP2 DUP2 SUB PUSH0 DUP4 ADD MSTORE PUSH2 0x1660 DUP2 PUSH2 0x1627 JUMP JUMPDEST SWAP1 POP SWAP2 SWAP1 POP JUMP JUMPDEST PUSH32 0x696E636F727265637420656E6420617400000000000000000000000000000000 PUSH0 DUP3 ADD MSTORE POP JUMP JUMPDEST PUSH0 PUSH2 0x169B PUSH1 0x10 DUP4 PUSH2 0x1233 JUMP JUMPDEST SWAP2 POP PUSH2 0x16A6 DUP3 PUSH2 0x1667 JUMP JUMPDEST PUSH1 0x20 DUP3 ADD SWAP1 POP SWAP2 SWAP1 POP JUMP JUMPDEST PUSH0 PUSH1 0x20 DUP3 ADD SWAP1 POP DUP2 DUP2 SUB PUSH0 DUP4 ADD MSTORE PUSH2 0x16C8 DUP2 PUSH2 0x168F JUMP JUMPDEST SWAP1 POP SWAP2 SWAP1 POP JUMP JUMPDEST PUSH32 0x746F6F206C6F6E67000000000000000000000000000000000000000000000000 PUSH0 DUP3 ADD MSTORE POP JUMP JUMPDEST PUSH0 PUSH2 0x1703 PUSH1 0x8 DUP4 PUSH2 0x1233 JUMP JUMPDEST SWAP2 POP PUSH2 0x170E DUP3 PUSH2 0x16CF JUMP JUMPDEST PUSH1 0x20 DUP3 ADD SWAP1 POP SWAP2 SWAP1 POP JUMP JUMPDEST PUSH0 PUSH1 0x20 DUP3 ADD SWAP1 POP DUP2 DUP2 SUB PUSH0 DUP4 ADD MSTORE PUSH2 0x1730 DUP2 PUSH2 0x16F7 JUMP JUMPDEST SWAP1 POP SWAP2 SWAP1 POP JUMP JUMPDEST PUSH0 PUSH1 0xA0 DUP3 ADD SWAP1 POP PUSH2 0x174A PUSH0 DUP4 ADD DUP9 PUSH2 0xF71 JUMP JUMPDEST PUSH2 0x1757 PUSH1 0x20 DUP4 ADD DUP8 PUSH2 0x1030 JUMP JUMPDEST PUSH2 0x1764 PUSH1 0x40 DUP4 ADD DUP7 PUSH2 0xF71 JUMP JUMPDEST PUSH2 0x1771 PUSH1 0x60 DUP4 ADD DUP6 PUSH2 0xF71 JUMP JUMPDEST PUSH2 0x177E PUSH1 0x80 DUP4 ADD DUP5 PUSH2 0xF71 JUMP JUMPDEST SWAP7 SWAP6 POP POP POP POP POP POP JUMP JUMPDEST PUSH0 PUSH2 0x1792 DUP3 PUSH2 0xF68 JUMP JUMPDEST SWAP2 POP PUSH32 0xFFFFFFFFFFFFFFFFFFFFFFFFFFFFFFFFFFFFFFFFFFFFFFFFFFFFFFFFFFFFFFFF DUP3 SUB PUSH2 0x17C4 JUMPI PUSH2 0x17C3 PUSH2 0x11D3 JUMP JUMPDEST JUMPDEST PUSH1 0x1 DUP3 ADD SWAP1 POP SWAP2 SWAP1 POP JUMP JUMPDEST PUSH32 0x6E6F742073746172746564000000000000000000000000000000000000000000 PUSH0 DUP3 ADD MSTORE POP JUMP JUMPDEST PUSH0 PUSH2 0x1803 PUSH1 0xB DUP4 PUSH2 0x1233 JUMP JUMPDEST SWAP2 POP PUSH2 0x180E DUP3 PUSH2 0x17CF JUMP JUMPDEST PUSH1 0x20 DUP3 ADD SWAP1 POP SWAP2 SWAP1 POP JUMP JUMPDEST PUSH0 PUSH1 0x20 DUP3 ADD SWAP1 POP DUP2 DUP2 SUB PUSH0 DUP4 ADD MSTORE PUSH2 0x1830 DUP2 PUSH2 0x17F7 JUMP JUMPDEST SWAP1 POP SWAP2 SWAP1 POP JUMP JUMPDEST PUSH0 PUSH1 0x60 DUP3 ADD SWAP1 POP PUSH2 0x184A PUSH0 DUP4 ADD DUP7 PUSH2 0x1030 JUMP JUMPDEST PUSH2 0x1857 PUSH1 0x20 DUP4 ADD DUP6 PUSH2 0x1030 JUMP JUMPDEST PUSH2 0x1864 PUSH1 0x40 DUP4 ADD DUP5 PUSH2 0xF71 JUMP JUMPDEST SWAP5 SWAP4 POP POP POP POP JUMP INVALID LOG2 PUSH5 0x6970667358 0x22 SLT KECCAK256 MSTORE8 0x2C 0xAE DUP14 PUSH1 0xFE ISZERO 0xA7 0xAC SWAP4 JUMPI DUP11 SWAP8 EQ SWAP16 DELEGATECALL 0xA8 EXP REVERT 0xD6 0xBD 0xCE TLOAD 0xAC PUSH6 0x1FF6803BE4D2 0xC PUSH5 0x736F6C6343 STOP ADDMOD BYTE STOP CALLER "
				},
				"gasEstimates": {
					"creation": {
						"codeDepositCost": "1261200",
						"executionCost": "infinite",
						"totalCost": "infinite"
					},
					"external": {
						"MAX_DURATION()": "347",
						"MIN_DURATION()": "369",
						"cancel(uint256)": "infinite",
						"claim(uint256)": "infinite",
						"companies(uint256)": "infinite",
						"currentId()": "2491",
						"getTestTime()": "infinite",
						"launch(uint256,uint256,uint256)": "infinite",
						"pledge(uint256,uint256)": "infinite",
						"refund(uint256)": "infinite",
						"token()": "infinite",
						"unpledge(uint256,uint256)": "infinite"
					}
				},
				"methodIdentifiers": {
					"MAX_DURATION()": "b1724b46",
					"MIN_DURATION()": "b6a6d177",
					"cancel(uint256)": "40e58ee5",
					"claim(uint256)": "379607f5",
					"companies(uint256)": "2813d19d",
					"currentId()": "e00dd161",
					"getTestTime()": "23c9f684",
					"launch(uint256,uint256,uint256)": "8736c179",
					"pledge(uint256,uint256)": "fde327be",
					"refund(uint256)": "278ecde1",
					"token()": "fc0c546a",
					"unpledge(uint256,uint256)": "711853ab"
				}
			},
			"storageLayout": {
				"storage": [
					{
						"astId": 25,
						"contract": "crowdfunding/Crowdfunding.sol:Crowdfunding",
						"label": "pledges",
						"offset": 0,
						"slot": "0",
						"type": "t_mapping(t_uint256,t_mapping(t_address,t_uint256))"
					},
					{
						"astId": 30,
						"contract": "crowdfunding/Crowdfunding.sol:Crowdfunding",
						"label": "companies",
						"offset": 0,
						"slot": "1",
						"type": "t_mapping(t_uint256,t_struct(Company)16_storage)"
					},
					{
						"astId": 32,
						"contract": "crowdfunding/Crowdfunding.sol:Crowdfunding",
						"label": "currentId",
						"offset": 0,
						"slot": "2",
						"type": "t_uint256"
					}
				],
				"types": {
					"t_address": {
						"encoding": "inplace",
						"label": "address",
						"numberOfBytes": "20"
					},
					"t_bool": {
						"encoding": "inplace",
						"label": "bool",
						"numberOfBytes": "1"
					},
					"t_mapping(t_address,t_uint256)": {
						"encoding": "mapping",
						"key": "t_address",
						"label": "mapping(address => uint256)",
						"numberOfBytes": "32",
						"value": "t_uint256"
					},
					"t_mapping(t_uint256,t_mapping(t_address,t_uint256))": {
						"encoding": "mapping",
						"key": "t_uint256",
						"label": "mapping(uint256 => mapping(address => uint256))",
						"numberOfBytes": "32",
						"value": "t_mapping(t_address,t_uint256)"
					},
					"t_mapping(t_uint256,t_struct(Company)16_storage)": {
						"encoding": "mapping",
						"key": "t_uint256",
						"label": "mapping(uint256 => struct Crowdfunding.Company)",
						"numberOfBytes": "32",
						"value": "t_struct(Company)16_storage"
					},
					"t_struct(Company)16_storage": {
						"encoding": "inplace",
						"label": "struct Crowdfunding.Company",
						"members": [
							{
								"astId": 5,
								"contract": "crowdfunding/Crowdfunding.sol:Crowdfunding",
								"label": "owner",
								"offset": 0,
								"slot": "0",
								"type": "t_address"
							},
							{
								"astId": 7,
								"contract": "crowdfunding/Crowdfunding.sol:Crowdfunding",
								"label": "goal",
								"offset": 0,
								"slot": "1",
								"type": "t_uint256"
							},
							{
								"astId": 9,
								"contract": "crowdfunding/Crowdfunding.sol:Crowdfunding",
								"label": "pledged",
								"offset": 0,
								"slot": "2",
								"type": "t_uint256"
							},
							{
								"astId": 11,
								"contract": "crowdfunding/Crowdfunding.sol:Crowdfunding",
								"label": "startAt",
								"offset": 0,
								"slot": "3",
								"type": "t_uint256"
							},
							{
								"astId": 13,
								"contract": "crowdfunding/Crowdfunding.sol:Crowdfunding",
								"label": "endAt",
								"offset": 0,
								"slot": "4",
								"type": "t_uint256"
							},
							{
								"astId": 15,
								"contract": "crowdfunding/Crowdfunding.sol:Crowdfunding",
								"label": "claimed",
								"offset": 0,
								"slot": "5",
								"type": "t_bool"
							}
						],
						"numberOfBytes": "192"
					},
					"t_uint256": {
						"encoding": "inplace",
						"label": "uint256",
						"numberOfBytes": "32"
					}
				}
			},
			"userdoc": {
				"kind": "user",
				"methods": {
					"cancel(uint256)": {
						"notice": "отмена компании по id"
					},
					"claim(uint256)": {
						"notice": "вывести при удале компании средства только для владельца компании"
					},
					"getTestTime()": {
						"notice": "для теста"
					},
					"launch(uint256,uint256,uint256)": {
						"notice": "запуск компании"
					},
					"pledge(uint256,uint256)": {
						"notice": "пожертвовать компании по id для использования функции нужно сделать allowance на адрес этого контракта"
					},
					"refund(uint256)": {
						"notice": "вывести средства жертвователем при неудачном окончании компании"
					},
					"unpledge(uint256,uint256)": {
						"notice": "вывести свои пожертвования (можно часть) по окончании компании (неудаче)"
					}
				},
				"notice": "краудфандинг на erc20, хранит компании с пожертвованиями возможность закинуть в компанию, вывести забрать деньги при успехе комании и вернуть средства при неудаче",
				"version": 1
			}
		}
	}
}