{
	"data": {
		"bytecode": {
			"linkReferences": {},
			"object": "6080604052348015600e575f80fd5b5061068f8061001c5f395ff3fe608060405260043610610033575f3560e01c806312065fe014610037578063e21f37ce14610061578063f219b23c1461008b575b5f80fd5b348015610042575f80fd5b5061004b6100a7565b6040516100589190610163565b60405180910390f35b34801561006c575f80fd5b506100756100ae565b60405161008291906101ec565b60405180910390f35b6100a560048036038101906100a09190610349565b610139565b005b5f47905090565b5f80546100ba906103bd565b80601f01602080910402602001604051908101604052809291908181526020018280546100e6906103bd565b80156101315780601f1061010857610100808354040283529160200191610131565b820191905f5260205f20905b81548152906001019060200180831161011457829003601f168201915b505050505081565b805f9081610147919061058a565b5050565b5f819050919050565b61015d8161014b565b82525050565b5f6020820190506101765f830184610154565b92915050565b5f81519050919050565b5f82825260208201905092915050565b8281835e5f83830152505050565b5f601f19601f8301169050919050565b5f6101be8261017c565b6101c88185610186565b93506101d8818560208601610196565b6101e1816101a4565b840191505092915050565b5f6020820190508181035f83015261020481846101b4565b905092915050565b5f604051905090565b5f80fd5b5f80fd5b5f80fd5b5f80fd5b7f4e487b71000000000000000000000000000000000000000000000000000000005f52604160045260245ffd5b61025b826101a4565b810181811067ffffffffffffffff8211171561027a57610279610225565b5b80604052505050565b5f61028c61020c565b90506102988282610252565b919050565b5f67ffffffffffffffff8211156102b7576102b6610225565b5b6102c0826101a4565b9050602081019050919050565b828183375f83830152505050565b5f6102ed6102e88461029d565b610283565b90508281526020810184848401111561030957610308610221565b5b6103148482856102cd565b509392505050565b5f82601f8301126103305761032f61021d565b5b81356103408482602086016102db565b91505092915050565b5f6020828403121561035e5761035d610215565b5b5f82013567ffffffffffffffff81111561037b5761037a610219565b5b6103878482850161031c565b91505092915050565b7f4e487b71000000000000000000000000000000000000000000000000000000005f52602260045260245ffd5b5f60028204905060018216806103d457607f821691505b6020821081036103e7576103e6610390565b5b50919050565b5f819050815f5260205f209050919050565b5f6020601f8301049050919050565b5f82821b905092915050565b5f600883026104497fffffffffffffffffffffffffffffffffffffffffffffffffffffffffffffffff8261040e565b610453868361040e565b95508019841693508086168417925050509392505050565b5f819050919050565b5f61048e6104896104848461014b565b61046b565b61014b565b9050919050565b5f819050919050565b6104a783610474565b6104bb6104b382610495565b84845461041a565b825550505050565b5f90565b6104cf6104c3565b6104da81848461049e565b505050565b5b818110156104fd576104f25f826104c7565b6001810190506104e0565b5050565b601f82111561054257610513816103ed565b61051c846103ff565b8101602085101561052b578190505b61053f610537856103ff565b8301826104df565b50505b505050565b5f82821c905092915050565b5f6105625f1984600802610547565b1980831691505092915050565b5f61057a8383610553565b9150826002028217905092915050565b6105938261017c565b67ffffffffffffffff8111156105ac576105ab610225565b5b6105b682546103bd565b6105c1828285610501565b5f60209050601f8311600181146105f2575f84156105e0578287015190505b6105ea858261056f565b865550610651565b601f198416610600866103ed565b5f5b8281101561062757848901518255600182019150602085019450602081019050610602565b868310156106445784890151610640601f891682610553565b8355505b6001600288020188555050505b50505050505056fea2646970667358221220f0f2c084628175c3495fbeb8e18d14e4c961c56dd7b0099a11f7ab90774101c064736f6c634300081a0033",
			"opcodes": "PUSH1 0x80 PUSH1 0x40 MSTORE CALLVALUE DUP1 ISZERO PUSH1 0xE JUMPI PUSH0 DUP1 REVERT JUMPDEST POP PUSH2 0x68F DUP1 PUSH2 0x1C PUSH0 CODECOPY PUSH0 RETURN INVALID PUSH1 0x80 PUSH1 0x40 MSTORE PUSH1 0x4 CALLDATASIZE LT PUSH2 0x33 JUMPI PUSH0 CALLDATALOAD PUSH1 0xE0 SHR DUP1 PUSH4 0x12065FE0 EQ PUSH2 0x37 JUMPI DUP1 PUSH4 0xE21F37CE EQ PUSH2 0x61 JUMPI DUP1 PUSH4 0xF219B23C EQ PUSH2 0x8B JUMPI JUMPDEST PUSH0 DUP1 REVERT JUMPDEST CALLVALUE DUP1 ISZERO PUSH2 0x42 JUMPI PUSH0 DUP1 REVERT JUMPDEST POP PUSH2 0x4B PUSH2 0xA7 JUMP JUMPDEST PUSH1 0x40 MLOAD PUSH2 0x58 SWAP2 SWAP1 PUSH2 0x163 JUMP JUMPDEST PUSH1 0x40 MLOAD DUP1 SWAP2 SUB SWAP1 RETURN JUMPDEST CALLVALUE DUP1 ISZERO PUSH2 0x6C JUMPI PUSH0 DUP1 REVERT JUMPDEST POP PUSH2 0x75 PUSH2 0xAE JUMP JUMPDEST PUSH1 0x40 MLOAD PUSH2 0x82 SWAP2 SWAP1 PUSH2 0x1EC JUMP JUMPDEST PUSH1 0x40 MLOAD DUP1 SWAP2 SUB SWAP1 RETURN JUMPDEST PUSH2 0xA5 PUSH1 0x4 DUP1 CALLDATASIZE SUB DUP2 ADD SWAP1 PUSH2 0xA0 SWAP2 SWAP1 PUSH2 0x349 JUMP JUMPDEST PUSH2 0x139 JUMP JUMPDEST STOP JUMPDEST PUSH0 SELFBALANCE SWAP1 POP SWAP1 JUMP JUMPDEST PUSH0 DUP1 SLOAD PUSH2 0xBA SWAP1 PUSH2 0x3BD JUMP JUMPDEST DUP1 PUSH1 0x1F ADD PUSH1 0x20 DUP1 SWAP2 DIV MUL PUSH1 0x20 ADD PUSH1 0x40 MLOAD SWAP1 DUP2 ADD PUSH1 0x40 MSTORE DUP1 SWAP3 SWAP2 SWAP1 DUP2 DUP2 MSTORE PUSH1 0x20 ADD DUP3 DUP1 SLOAD PUSH2 0xE6 SWAP1 PUSH2 0x3BD JUMP JUMPDEST DUP1 ISZERO PUSH2 0x131 JUMPI DUP1 PUSH1 0x1F LT PUSH2 0x108 JUMPI PUSH2 0x100 DUP1 DUP4 SLOAD DIV MUL DUP4 MSTORE SWAP2 PUSH1 0x20 ADD SWAP2 PUSH2 0x131 JUMP JUMPDEST DUP3 ADD SWAP2 SWAP1 PUSH0 MSTORE PUSH1 0x20 PUSH0 KECCAK256 SWAP1 JUMPDEST DUP2 SLOAD DUP2 MSTORE SWAP1 PUSH1 0x1 ADD SWAP1 PUSH1 0x20 ADD DUP1 DUP4 GT PUSH2 0x114 JUMPI DUP3 SWAP1 SUB PUSH1 0x1F AND DUP3 ADD SWAP2 JUMPDEST POP POP POP POP POP DUP2 JUMP JUMPDEST DUP1 PUSH0 SWAP1 DUP2 PUSH2 0x147 SWAP2 SWAP1 PUSH2 0x58A JUMP JUMPDEST POP POP JUMP JUMPDEST PUSH0 DUP2 SWAP1 POP SWAP2 SWAP1 POP JUMP JUMPDEST PUSH2 0x15D DUP2 PUSH2 0x14B JUMP JUMPDEST DUP3 MSTORE POP POP JUMP JUMPDEST PUSH0 PUSH1 0x20 DUP3 ADD SWAP1 POP PUSH2 0x176 PUSH0 DUP4 ADD DUP5 PUSH2 0x154 JUMP JUMPDEST SWAP3 SWAP2 POP POP JUMP JUMPDEST PUSH0 DUP2 MLOAD SWAP1 POP SWAP2 SWAP1 POP JUMP JUMPDEST PUSH0 DUP3 DUP3 MSTORE PUSH1 0x20 DUP3 ADD SWAP1 POP SWAP3 SWAP2 POP POP JUMP JUMPDEST DUP3 DUP2 DUP4 MCOPY PUSH0 DUP4 DUP4 ADD MSTORE POP POP POP JUMP JUMPDEST PUSH0 PUSH1 0x1F NOT PUSH1 0x1F DUP4 ADD AND SWAP1 POP SWAP2 SWAP1 POP JUMP JUMPDEST PUSH0 PUSH2 0x1BE DUP3 PUSH2 0x17C JUMP JUMPDEST PUSH2 0x1C8 DUP2 DUP6 PUSH2 0x186 JUMP JUMPDEST SWAP4 POP PUSH2 0x1D8 DUP2 DUP6 PUSH1 0x20 DUP7 ADD PUSH2 0x196 JUMP JUMPDEST PUSH2 0x1E1 DUP2 PUSH2 0x1A4 JUMP JUMPDEST DUP5 ADD SWAP2 POP POP SWAP3 SWAP2 POP POP JUMP JUMPDEST PUSH0 PUSH1 0x20 DUP3 ADD SWAP1 POP DUP2 DUP2 SUB PUSH0 DUP4 ADD MSTORE PUSH2 0x204 DUP2 DUP5 PUSH2 0x1B4 JUMP JUMPDEST SWAP1 POP SWAP3 SWAP2 POP POP JUMP JUMPDEST PUSH0 PUSH1 0x40 MLOAD SWAP1 POP SWAP1 JUMP JUMPDEST PUSH0 DUP1 REVERT JUMPDEST PUSH0 DUP1 REVERT JUMPDEST PUSH0 DUP1 REVERT JUMPDEST PUSH0 DUP1 REVERT JUMPDEST PUSH32 0x4E487B7100000000000000000000000000000000000000000000000000000000 PUSH0 MSTORE PUSH1 0x41 PUSH1 0x4 MSTORE PUSH1 0x24 PUSH0 REVERT JUMPDEST PUSH2 0x25B DUP3 PUSH2 0x1A4 JUMP JUMPDEST DUP2 ADD DUP2 DUP2 LT PUSH8 0xFFFFFFFFFFFFFFFF DUP3 GT OR ISZERO PUSH2 0x27A JUMPI PUSH2 0x279 PUSH2 0x225 JUMP JUMPDEST JUMPDEST DUP1 PUSH1 0x40 MSTORE POP POP POP JUMP JUMPDEST PUSH0 PUSH2 0x28C PUSH2 0x20C JUMP JUMPDEST SWAP1 POP PUSH2 0x298 DUP3 DUP3 PUSH2 0x252 JUMP JUMPDEST SWAP2 SWAP1 POP JUMP JUMPDEST PUSH0 PUSH8 0xFFFFFFFFFFFFFFFF DUP3 GT ISZERO PUSH2 0x2B7 JUMPI PUSH2 0x2B6 PUSH2 0x225 JUMP JUMPDEST JUMPDEST PUSH2 0x2C0 DUP3 PUSH2 0x1A4 JUMP JUMPDEST SWAP1 POP PUSH1 0x20 DUP2 ADD SWAP1 POP SWAP2 SWAP1 POP JUMP JUMPDEST DUP3 DUP2 DUP4 CALLDATACOPY PUSH0 DUP4 DUP4 ADD MSTORE POP POP POP JUMP JUMPDEST PUSH0 PUSH2 0x2ED PUSH2 0x2E8 DUP5 PUSH2 0x29D JUMP JUMPDEST PUSH2 0x283 JUMP JUMPDEST SWAP1 POP DUP3 DUP2 MSTORE PUSH1 0x20 DUP2 ADD DUP5 DUP5 DUP5 ADD GT ISZERO PUSH2 0x309 JUMPI PUSH2 0x308 PUSH2 0x221 JUMP JUMPDEST JUMPDEST PUSH2 0x314 DUP5 DUP3 DUP6 PUSH2 0x2CD JUMP JUMPDEST POP SWAP4 SWAP3 POP POP POP JUMP JUMPDEST PUSH0 DUP3 PUSH1 0x1F DUP4 ADD SLT PUSH2 0x330 JUMPI PUSH2 0x32F PUSH2 0x21D JUMP JUMPDEST JUMPDEST DUP2 CALLDATALOAD PUSH2 0x340 DUP5 DUP3 PUSH1 0x20 DUP7 ADD PUSH2 0x2DB JUMP JUMPDEST SWAP2 POP POP SWAP3 SWAP2 POP POP JUMP JUMPDEST PUSH0 PUSH1 0x20 DUP3 DUP5 SUB SLT ISZERO PUSH2 0x35E JUMPI PUSH2 0x35D PUSH2 0x215 JUMP JUMPDEST JUMPDEST PUSH0 DUP3 ADD CALLDATALOAD PUSH8 0xFFFFFFFFFFFFFFFF DUP2 GT ISZERO PUSH2 0x37B JUMPI PUSH2 0x37A PUSH2 0x219 JUMP JUMPDEST JUMPDEST PUSH2 0x387 DUP5 DUP3 DUP6 ADD PUSH2 0x31C JUMP JUMPDEST SWAP2 POP POP SWAP3 SWAP2 POP POP JUMP JUMPDEST PUSH32 0x4E487B7100000000000000000000000000000000000000000000000000000000 PUSH0 MSTORE PUSH1 0x22 PUSH1 0x4 MSTORE PUSH1 0x24 PUSH0 REVERT JUMPDEST PUSH0 PUSH1 0x2 DUP3 DIV SWAP1 POP PUSH1 0x1 DUP3 AND DUP1 PUSH2 0x3D4 JUMPI PUSH1 0x7F DUP3 AND SWAP2 POP JUMPDEST PUSH1 0x20 DUP3 LT DUP2 SUB PUSH2 0x3E7 JUMPI PUSH2 0x3E6 PUSH2 0x390 JUMP JUMPDEST JUMPDEST POP SWAP2 SWAP1 POP JUMP JUMPDEST PUSH0 DUP2 SWAP1 POP DUP2 PUSH0 MSTORE PUSH1 0x20 PUSH0 KECCAK256 SWAP1 POP SWAP2 SWAP1 POP JUMP JUMPDEST PUSH0 PUSH1 0x20 PUSH1 0x1F DUP4 ADD DIV SWAP1 POP SWAP2 SWAP1 POP JUMP JUMPDEST PUSH0 DUP3 DUP3 SHL SWAP1 POP SWAP3 SWAP2 POP POP JUMP JUMPDEST PUSH0 PUSH1 0x8 DUP4 MUL PUSH2 0x449 PUSH32 0xFFFFFFFFFFFFFFFFFFFFFFFFFFFFFFFFFFFFFFFFFFFFFFFFFFFFFFFFFFFFFFFF DUP3 PUSH2 0x40E JUMP JUMPDEST PUSH2 0x453 DUP7 DUP4 PUSH2 0x40E JUMP JUMPDEST SWAP6 POP DUP1 NOT DUP5 AND SWAP4 POP DUP1 DUP7 AND DUP5 OR SWAP3 POP POP POP SWAP4 SWAP3 POP POP POP JUMP JUMPDEST PUSH0 DUP2 SWAP1 POP SWAP2 SWAP1 POP JUMP JUMPDEST PUSH0 PUSH2 0x48E PUSH2 0x489 PUSH2 0x484 DUP5 PUSH2 0x14B JUMP JUMPDEST PUSH2 0x46B JUMP JUMPDEST PUSH2 0x14B JUMP JUMPDEST SWAP1 POP SWAP2 SWAP1 POP JUMP JUMPDEST PUSH0 DUP2 SWAP1 POP SWAP2 SWAP1 POP JUMP JUMPDEST PUSH2 0x4A7 DUP4 PUSH2 0x474 JUMP JUMPDEST PUSH2 0x4BB PUSH2 0x4B3 DUP3 PUSH2 0x495 JUMP JUMPDEST DUP5 DUP5 SLOAD PUSH2 0x41A JUMP JUMPDEST DUP3 SSTORE POP POP POP POP JUMP JUMPDEST PUSH0 SWAP1 JUMP JUMPDEST PUSH2 0x4CF PUSH2 0x4C3 JUMP JUMPDEST PUSH2 0x4DA DUP2 DUP5 DUP5 PUSH2 0x49E JUMP JUMPDEST POP POP POP JUMP JUMPDEST JUMPDEST DUP2 DUP2 LT ISZERO PUSH2 0x4FD JUMPI PUSH2 0x4F2 PUSH0 DUP3 PUSH2 0x4C7 JUMP JUMPDEST PUSH1 0x1 DUP2 ADD SWAP1 POP PUSH2 0x4E0 JUMP JUMPDEST POP POP JUMP JUMPDEST PUSH1 0x1F DUP3 GT ISZERO PUSH2 0x542 JUMPI PUSH2 0x513 DUP2 PUSH2 0x3ED JUMP JUMPDEST PUSH2 0x51C DUP5 PUSH2 0x3FF JUMP JUMPDEST DUP2 ADD PUSH1 0x20 DUP6 LT ISZERO PUSH2 0x52B JUMPI DUP2 SWAP1 POP JUMPDEST PUSH2 0x53F PUSH2 0x537 DUP6 PUSH2 0x3FF JUMP JUMPDEST DUP4 ADD DUP3 PUSH2 0x4DF JUMP JUMPDEST POP POP JUMPDEST POP POP POP JUMP JUMPDEST PUSH0 DUP3 DUP3 SHR SWAP1 POP SWAP3 SWAP2 POP POP JUMP JUMPDEST PUSH0 PUSH2 0x562 PUSH0 NOT DUP5 PUSH1 0x8 MUL PUSH2 0x547 JUMP JUMPDEST NOT DUP1 DUP4 AND SWAP2 POP POP SWAP3 SWAP2 POP POP JUMP JUMPDEST PUSH0 PUSH2 0x57A DUP4 DUP4 PUSH2 0x553 JUMP JUMPDEST SWAP2 POP DUP3 PUSH1 0x2 MUL DUP3 OR SWAP1 POP SWAP3 SWAP2 POP POP JUMP JUMPDEST PUSH2 0x593 DUP3 PUSH2 0x17C JUMP JUMPDEST PUSH8 0xFFFFFFFFFFFFFFFF DUP2 GT ISZERO PUSH2 0x5AC JUMPI PUSH2 0x5AB PUSH2 0x225 JUMP JUMPDEST JUMPDEST PUSH2 0x5B6 DUP3 SLOAD PUSH2 0x3BD JUMP JUMPDEST PUSH2 0x5C1 DUP3 DUP3 DUP6 PUSH2 0x501 JUMP JUMPDEST PUSH0 PUSH1 0x20 SWAP1 POP PUSH1 0x1F DUP4 GT PUSH1 0x1 DUP2 EQ PUSH2 0x5F2 JUMPI PUSH0 DUP5 ISZERO PUSH2 0x5E0 JUMPI DUP3 DUP8 ADD MLOAD SWAP1 POP JUMPDEST PUSH2 0x5EA DUP6 DUP3 PUSH2 0x56F JUMP JUMPDEST DUP7 SSTORE POP PUSH2 0x651 JUMP JUMPDEST PUSH1 0x1F NOT DUP5 AND PUSH2 0x600 DUP7 PUSH2 0x3ED JUMP JUMPDEST PUSH0 JUMPDEST DUP3 DUP2 LT ISZERO PUSH2 0x627 JUMPI DUP5 DUP10 ADD MLOAD DUP3 SSTORE PUSH1 0x1 DUP3 ADD SWAP2 POP PUSH1 0x20 DUP6 ADD SWAP5 POP PUSH1 0x20 DUP2 ADD SWAP1 POP PUSH2 0x602 JUMP JUMPDEST DUP7 DUP4 LT ISZERO PUSH2 0x644 JUMPI DUP5 DUP10 ADD MLOAD PUSH2 0x640 PUSH1 0x1F DUP10 AND DUP3 PUSH2 0x553 JUMP JUMPDEST DUP4 SSTORE POP JUMPDEST PUSH1 0x1 PUSH1 0x2 DUP9 MUL ADD DUP9 SSTORE POP POP POP JUMPDEST POP POP POP POP POP POP JUMP INVALID LOG2 PUSH5 0x6970667358 0x22 SLT KECCAK256 CREATE CALLCODE 0xC0 DUP5 PUSH3 0x8175C3 BLOBHASH PUSH0 0xBE 0xB8 0xE1 DUP14 EQ 0xE4 0xC9 PUSH2 0xC56D 0xD7 0xB0 MULMOD SWAP11 GT 0xF7 0xAB SWAP1 PUSH24 0x4101C064736F6C634300081A003300000000000000000000 "
		},
		"gasEstimates": {
			"creation": {
				"codeDepositCost": "335800",
				"executionCost": "372",
				"totalCost": "336172"
			},
			"external": {
				"getBalance()": "312",
				"getMoney(string)": "infinite",
				"message()": "infinite"
			}
		},
		"methodIdentifiers": {
			"getBalance()": "12065fe0",
			"getMoney(string)": "f219b23c",
			"message()": "e21f37ce"
		}
	},
	"abi": [
		{
			"inputs": [],
			"name": "getBalance",
			"outputs": [
				{
					"internalType": "uint256",
					"name": "",
					"type": "uint256"
				}
			],
			"stateMutability": "view",
			"type": "function"
		},
		{
			"inputs": [
				{
					"internalType": "string",
					"name": "_msg",
					"type": "string"
				}
			],
			"name": "getMoney",
			"outputs": [],
			"stateMutability": "payable",
			"type": "function"
		},
		{
			"inputs": [],
			"name": "message",
			"outputs": [
				{
					"internalType": "string",
					"name": "",
					"type": "string"
				}
			],
			"stateMutability": "view",
			"type": "function"
		}
	]
}