{
	"multisignature/Multi.sol": {
		"MultiSig": {
			"abi": [
				{
					"inputs": [
						{
							"internalType": "address[]",
							"name": "_owners",
							"type": "address[]"
						},
						{
							"internalType": "uint256",
							"name": "_requiredApprovals",
							"type": "uint256"
						}
					],
					"stateMutability": "nonpayable",
					"type": "constructor"
				},
				{
					"anonymous": false,
					"inputs": [
						{
							"indexed": false,
							"internalType": "address",
							"name": "_owner",
							"type": "address"
						},
						{
							"indexed": false,
							"internalType": "uint256",
							"name": "_txId",
							"type": "uint256"
						}
					],
					"name": "Approve",
					"type": "event"
				},
				{
					"anonymous": false,
					"inputs": [
						{
							"indexed": false,
							"internalType": "address",
							"name": "_from",
							"type": "address"
						},
						{
							"indexed": false,
							"internalType": "uint256",
							"name": "_amount",
							"type": "uint256"
						}
					],
					"name": "Deposit",
					"type": "event"
				},
				{
					"anonymous": false,
					"inputs": [
						{
							"indexed": false,
							"internalType": "uint256",
							"name": "_txId",
							"type": "uint256"
						}
					],
					"name": "Executed",
					"type": "event"
				},
				{
					"anonymous": false,
					"inputs": [
						{
							"indexed": false,
							"internalType": "address",
							"name": "_owner",
							"type": "address"
						},
						{
							"indexed": false,
							"internalType": "uint256",
							"name": "_txId",
							"type": "uint256"
						}
					],
					"name": "Revoke",
					"type": "event"
				},
				{
					"anonymous": false,
					"inputs": [
						{
							"indexed": false,
							"internalType": "uint256",
							"name": "_txId",
							"type": "uint256"
						}
					],
					"name": "Submit",
					"type": "event"
				},
				{
					"inputs": [
						{
							"internalType": "uint256",
							"name": "",
							"type": "uint256"
						}
					],
					"name": "approvalsCount",
					"outputs": [
						{
							"internalType": "uint256",
							"name": "",
							"type": "uint256"
						}
					],
					"stateMutability": "view",
					"type": "function"
				},
				{
					"inputs": [
						{
							"internalType": "uint256",
							"name": "_txId",
							"type": "uint256"
						}
					],
					"name": "approve",
					"outputs": [],
					"stateMutability": "nonpayable",
					"type": "function"
				},
				{
					"inputs": [
						{
							"internalType": "uint256",
							"name": "",
							"type": "uint256"
						},
						{
							"internalType": "address",
							"name": "",
							"type": "address"
						}
					],
					"name": "approved",
					"outputs": [
						{
							"internalType": "bool",
							"name": "",
							"type": "bool"
						}
					],
					"stateMutability": "view",
					"type": "function"
				},
				{
					"inputs": [],
					"name": "deposit",
					"outputs": [],
					"stateMutability": "payable",
					"type": "function"
				},
				{
					"inputs": [
						{
							"internalType": "string",
							"name": "_func",
							"type": "string"
						},
						{
							"internalType": "string",
							"name": "_arg",
							"type": "string"
						}
					],
					"name": "encode",
					"outputs": [
						{
							"internalType": "bytes",
							"name": "",
							"type": "bytes"
						}
					],
					"stateMutability": "pure",
					"type": "function"
				},
				{
					"inputs": [
						{
							"internalType": "uint256",
							"name": "_txId",
							"type": "uint256"
						}
					],
					"name": "execute",
					"outputs": [],
					"stateMutability": "nonpayable",
					"type": "function"
				},
				{
					"inputs": [
						{
							"internalType": "address",
							"name": "",
							"type": "address"
						}
					],
					"name": "isOwner",
					"outputs": [
						{
							"internalType": "bool",
							"name": "",
							"type": "bool"
						}
					],
					"stateMutability": "view",
					"type": "function"
				},
				{
					"inputs": [
						{
							"internalType": "uint256",
							"name": "",
							"type": "uint256"
						}
					],
					"name": "owners",
					"outputs": [
						{
							"internalType": "address",
							"name": "",
							"type": "address"
						}
					],
					"stateMutability": "view",
					"type": "function"
				},
				{
					"inputs": [],
					"name": "requiredApprovals",
					"outputs": [
						{
							"internalType": "uint256",
							"name": "",
							"type": "uint256"
						}
					],
					"stateMutability": "view",
					"type": "function"
				},
				{
					"inputs": [
						{
							"internalType": "uint256",
							"name": "_txId",
							"type": "uint256"
						}
					],
					"name": "revoke",
					"outputs": [],
					"stateMutability": "nonpayable",
					"type": "function"
				},
				{
					"inputs": [
						{
							"internalType": "address",
							"name": "_to",
							"type": "address"
						},
						{
							"internalType": "uint256",
							"name": "_value",
							"type": "uint256"
						},
						{
							"internalType": "bytes",
							"name": "_data",
							"type": "bytes"
						}
					],
					"name": "submit",
					"outputs": [],
					"stateMutability": "nonpayable",
					"type": "function"
				},
				{
					"inputs": [
						{
							"internalType": "uint256",
							"name": "",
							"type": "uint256"
						}
					],
					"name": "transactions",
					"outputs": [
						{
							"internalType": "address",
							"name": "_to",
							"type": "address"
						},
						{
							"internalType": "uint256",
							"name": "_value",
							"type": "uint256"
						},
						{
							"internalType": "bytes",
							"name": "_data",
							"type": "bytes"
						},
						{
							"internalType": "bool",
							"name": "_executed",
							"type": "bool"
						}
					],
					"stateMutability": "view",
					"type": "function"
				},
				{
					"stateMutability": "payable",
					"type": "receive"
				}
			],
			"devdoc": {
				"kind": "dev",
				"methods": {},
				"version": 1
			},
			"evm": {
				"assembly": "    /* \"multisignature/Multi.sol\":726:4149  contract MultiSig is Ownable {... */\n  mstore(0x40, 0xa0)\n    /* \"multisignature/Multi.sol\":2109:2389  constructor(address[] memory _owners, uint256 _requiredApprovals) Ownable(_owners) {... */\n  callvalue\n  dup1\n  iszero\n  tag_1\n  jumpi\n  0x00\n  dup1\n  revert\ntag_1:\n  pop\n  mload(0x40)\n  sub(codesize, bytecodeSize)\n  dup1\n  bytecodeSize\n  dup4\n  codecopy\n  dup2\n  dup2\n  add\n  0x40\n  mstore\n  dup2\n  add\n  swap1\n  tag_2\n  swap2\n  swap1\n  tag_3\n  jump\t// in\ntag_2:\n    /* \"multisignature/Multi.sol\":2183:2190  _owners */\n  dup2\n    /* \"multisignature/Multi.sol\":239:240  0 */\n  0x00\n    /* \"multisignature/Multi.sol\":222:229  _owners */\n  dup2\n    /* \"multisignature/Multi.sol\":222:236  _owners.length */\n  mload\n    /* \"multisignature/Multi.sol\":222:240  _owners.length > 0 */\n  gt\n    /* \"multisignature/Multi.sol\":214:254  require(_owners.length > 0, \"no owners\") */\n  tag_7\n  jumpi\n  mload(0x40)\n  0x08c379a000000000000000000000000000000000000000000000000000000000\n  dup2\n  mstore\n  0x04\n  add\n  tag_8\n  swap1\n  tag_9\n  jump\t// in\ntag_8:\n  mload(0x40)\n  dup1\n  swap2\n  sub\n  swap1\n  revert\ntag_7:\n    /* \"multisignature/Multi.sol\":269:275  uint i */\n  0x00\n    /* \"multisignature/Multi.sol\":264:547  for (uint i = 0; i < _owners.length; i++) {... */\ntag_10:\n    /* \"multisignature/Multi.sol\":285:292  _owners */\n  dup2\n    /* \"multisignature/Multi.sol\":285:299  _owners.length */\n  mload\n    /* \"multisignature/Multi.sol\":281:282  i */\n  dup2\n    /* \"multisignature/Multi.sol\":281:299  i < _owners.length */\n  lt\n    /* \"multisignature/Multi.sol\":264:547  for (uint i = 0; i < _owners.length; i++) {... */\n  iszero\n  tag_11\n  jumpi\n    /* \"multisignature/Multi.sol\":320:333  address owner */\n  0x00\n    /* \"multisignature/Multi.sol\":336:343  _owners */\n  dup3\n    /* \"multisignature/Multi.sol\":344:345  i */\n  dup3\n    /* \"multisignature/Multi.sol\":336:346  _owners[i] */\n  dup2\n  mload\n  dup2\n  lt\n  tag_13\n  jumpi\n  tag_14\n  tag_15\n  jump\t// in\ntag_14:\ntag_13:\n  0x20\n  mul\n  0x20\n  add\n  add\n  mload\n    /* \"multisignature/Multi.sol\":320:346  address owner = _owners[i] */\n  swap1\n  pop\n    /* \"multisignature/Multi.sol\":385:386  0 */\n  0x00\n    /* \"multisignature/Multi.sol\":368:387  owner != address(0) */\n  0xffffffffffffffffffffffffffffffffffffffff\n  and\n    /* \"multisignature/Multi.sol\":368:373  owner */\n  dup2\n    /* \"multisignature/Multi.sol\":368:387  owner != address(0) */\n  0xffffffffffffffffffffffffffffffffffffffff\n  and\n  sub\n    /* \"multisignature/Multi.sol\":360:404  require(owner != address(0), \"zero address\") */\n  tag_16\n  jumpi\n  mload(0x40)\n  0x08c379a000000000000000000000000000000000000000000000000000000000\n  dup2\n  mstore\n  0x04\n  add\n  tag_17\n  swap1\n  tag_18\n  jump\t// in\ntag_17:\n  mload(0x40)\n  dup1\n  swap2\n  sub\n  swap1\n  revert\ntag_16:\n    /* \"multisignature/Multi.sol\":427:434  isOwner */\n  0x01\n    /* \"multisignature/Multi.sol\":427:441  isOwner[owner] */\n  0x00\n    /* \"multisignature/Multi.sol\":435:440  owner */\n  dup3\n    /* \"multisignature/Multi.sol\":427:441  isOwner[owner] */\n  0xffffffffffffffffffffffffffffffffffffffff\n  and\n  0xffffffffffffffffffffffffffffffffffffffff\n  and\n  dup2\n  mstore\n  0x20\n  add\n  swap1\n  dup2\n  mstore\n  0x20\n  add\n  0x00\n  keccak256\n  0x00\n  swap1\n  sload\n  swap1\n  0x0100\n  exp\n  swap1\n  div\n  0xff\n  and\n    /* \"multisignature/Multi.sol\":426:441  !isOwner[owner] */\n  iszero\n    /* \"multisignature/Multi.sol\":418:456  require(!isOwner[owner], \"not unique\") */\n  tag_19\n  jumpi\n  mload(0x40)\n  0x08c379a000000000000000000000000000000000000000000000000000000000\n  dup2\n  mstore\n  0x04\n  add\n  tag_20\n  swap1\n  tag_21\n  jump\t// in\ntag_20:\n  mload(0x40)\n  dup1\n  swap2\n  sub\n  swap1\n  revert\ntag_19:\n    /* \"multisignature/Multi.sol\":483:489  owners */\n  0x00\n    /* \"multisignature/Multi.sol\":495:500  owner */\n  dup2\n    /* \"multisignature/Multi.sol\":483:501  owners.push(owner) */\n  swap1\n  dup1\n  0x01\n  dup2\n  sload\n  add\n  dup1\n  dup3\n  sstore\n  dup1\n  swap2\n  pop\n  pop\n  0x01\n  swap1\n  sub\n  swap1\n  0x00\n  mstore\n  keccak256(0x00, 0x20)\n  add\n  0x00\n  swap1\n  swap2\n  swap1\n  swap2\n  swap1\n  swap2\n  0x0100\n  exp\n  dup2\n  sload\n  dup2\n  0xffffffffffffffffffffffffffffffffffffffff\n  mul\n  not\n  and\n  swap1\n  dup4\n  0xffffffffffffffffffffffffffffffffffffffff\n  and\n  mul\n  or\n  swap1\n  sstore\n  pop\n    /* \"multisignature/Multi.sol\":532:536  true */\n  0x01\n    /* \"multisignature/Multi.sol\":515:522  isOwner */\n  dup1\n    /* \"multisignature/Multi.sol\":515:529  isOwner[owner] */\n  0x00\n    /* \"multisignature/Multi.sol\":523:528  owner */\n  dup4\n    /* \"multisignature/Multi.sol\":515:529  isOwner[owner] */\n  0xffffffffffffffffffffffffffffffffffffffff\n  and\n  0xffffffffffffffffffffffffffffffffffffffff\n  and\n  dup2\n  mstore\n  0x20\n  add\n  swap1\n  dup2\n  mstore\n  0x20\n  add\n  0x00\n  keccak256\n  0x00\n    /* \"multisignature/Multi.sol\":515:536  isOwner[owner] = true */\n  0x0100\n  exp\n  dup2\n  sload\n  dup2\n  0xff\n  mul\n  not\n  and\n  swap1\n  dup4\n  iszero\n  iszero\n  mul\n  or\n  swap1\n  sstore\n  pop\n    /* \"multisignature/Multi.sol\":306:547  {... */\n  pop\n    /* \"multisignature/Multi.sol\":301:304  i++ */\n  dup1\n  dup1\n  0x01\n  add\n  swap2\n  pop\n  pop\n    /* \"multisignature/Multi.sol\":264:547  for (uint i = 0; i < _owners.length; i++) {... */\n  jump(tag_10)\ntag_11:\n  pop\n    /* \"multisignature/Multi.sol\":166:553  constructor(address[] memory _owners) {... */\n  pop\n    /* \"multisignature/Multi.sol\":2244:2245  0 */\n  0x00\n    /* \"multisignature/Multi.sol\":2223:2241  _requiredApprovals */\n  dup2\n    /* \"multisignature/Multi.sol\":2223:2245  _requiredApprovals > 0 */\n  gt\n    /* \"multisignature/Multi.sol\":2223:2285  _requiredApprovals > 0 && _requiredApprovals <= _owners.length */\n  dup1\n  iszero\n  tag_24\n  jumpi\n  pop\n    /* \"multisignature/Multi.sol\":2271:2278  _owners */\n  dup2\n    /* \"multisignature/Multi.sol\":2271:2285  _owners.length */\n  mload\n    /* \"multisignature/Multi.sol\":2249:2267  _requiredApprovals */\n  dup2\n    /* \"multisignature/Multi.sol\":2249:2285  _requiredApprovals <= _owners.length */\n  gt\n  iszero\n    /* \"multisignature/Multi.sol\":2223:2285  _requiredApprovals > 0 && _requiredApprovals <= _owners.length */\ntag_24:\n    /* \"multisignature/Multi.sol\":2202:2334  require(... */\n  tag_25\n  jumpi\n  mload(0x40)\n  0x08c379a000000000000000000000000000000000000000000000000000000000\n  dup2\n  mstore\n  0x04\n  add\n  tag_26\n  swap1\n  tag_27\n  jump\t// in\ntag_26:\n  mload(0x40)\n  dup1\n  swap2\n  sub\n  swap1\n  revert\ntag_25:\n    /* \"multisignature/Multi.sol\":2364:2382  _requiredApprovals */\n  dup1\n    /* \"multisignature/Multi.sol\":2344:2382  requiredApprovals = _requiredApprovals */\n  0x80\n  dup2\n  dup2\n  mstore\n  pop\n  pop\n    /* \"multisignature/Multi.sol\":2109:2389  constructor(address[] memory _owners, uint256 _requiredApprovals) Ownable(_owners) {... */\n  pop\n  pop\n    /* \"multisignature/Multi.sol\":726:4149  contract MultiSig is Ownable {... */\n  jump(tag_28)\n    /* \"#utility.yul\":7:82   */\ntag_29:\n    /* \"#utility.yul\":40:46   */\n  0x00\n    /* \"#utility.yul\":73:75   */\n  0x40\n    /* \"#utility.yul\":67:76   */\n  mload\n    /* \"#utility.yul\":57:76   */\n  swap1\n  pop\n    /* \"#utility.yul\":7:82   */\n  swap1\n  jump\t// out\n    /* \"#utility.yul\":88:205   */\ntag_30:\n    /* \"#utility.yul\":197:198   */\n  0x00\n    /* \"#utility.yul\":194:195   */\n  dup1\n    /* \"#utility.yul\":187:199   */\n  revert\n    /* \"#utility.yul\":211:328   */\ntag_31:\n    /* \"#utility.yul\":320:321   */\n  0x00\n    /* \"#utility.yul\":317:318   */\n  dup1\n    /* \"#utility.yul\":310:322   */\n  revert\n    /* \"#utility.yul\":334:451   */\ntag_32:\n    /* \"#utility.yul\":443:444   */\n  0x00\n    /* \"#utility.yul\":440:441   */\n  dup1\n    /* \"#utility.yul\":433:445   */\n  revert\n    /* \"#utility.yul\":457:559   */\ntag_33:\n    /* \"#utility.yul\":498:504   */\n  0x00\n    /* \"#utility.yul\":549:551   */\n  0x1f\n    /* \"#utility.yul\":545:552   */\n  not\n    /* \"#utility.yul\":540:542   */\n  0x1f\n    /* \"#utility.yul\":533:538   */\n  dup4\n    /* \"#utility.yul\":529:543   */\n  add\n    /* \"#utility.yul\":525:553   */\n  and\n    /* \"#utility.yul\":515:553   */\n  swap1\n  pop\n    /* \"#utility.yul\":457:559   */\n  swap2\n  swap1\n  pop\n  jump\t// out\n    /* \"#utility.yul\":565:745   */\ntag_34:\n    /* \"#utility.yul\":613:690   */\n  0x4e487b7100000000000000000000000000000000000000000000000000000000\n    /* \"#utility.yul\":610:611   */\n  0x00\n    /* \"#utility.yul\":603:691   */\n  mstore\n    /* \"#utility.yul\":710:714   */\n  0x41\n    /* \"#utility.yul\":707:708   */\n  0x04\n    /* \"#utility.yul\":700:715   */\n  mstore\n    /* \"#utility.yul\":734:738   */\n  0x24\n    /* \"#utility.yul\":731:732   */\n  0x00\n    /* \"#utility.yul\":724:739   */\n  revert\n    /* \"#utility.yul\":751:1032   */\ntag_35:\n    /* \"#utility.yul\":834:861   */\n  tag_65\n    /* \"#utility.yul\":856:860   */\n  dup3\n    /* \"#utility.yul\":834:861   */\n  tag_33\n  jump\t// in\ntag_65:\n    /* \"#utility.yul\":826:832   */\n  dup2\n    /* \"#utility.yul\":822:862   */\n  add\n    /* \"#utility.yul\":964:970   */\n  dup2\n    /* \"#utility.yul\":952:962   */\n  dup2\n    /* \"#utility.yul\":949:971   */\n  lt\n    /* \"#utility.yul\":928:946   */\n  0xffffffffffffffff\n    /* \"#utility.yul\":916:926   */\n  dup3\n    /* \"#utility.yul\":913:947   */\n  gt\n    /* \"#utility.yul\":910:972   */\n  or\n    /* \"#utility.yul\":907:995   */\n  iszero\n  tag_66\n  jumpi\n    /* \"#utility.yul\":975:993   */\n  tag_67\n  tag_34\n  jump\t// in\ntag_67:\n    /* \"#utility.yul\":907:995   */\ntag_66:\n    /* \"#utility.yul\":1015:1025   */\n  dup1\n    /* \"#utility.yul\":1011:1013   */\n  0x40\n    /* \"#utility.yul\":1004:1026   */\n  mstore\n    /* \"#utility.yul\":794:1032   */\n  pop\n    /* \"#utility.yul\":751:1032   */\n  pop\n  pop\n  jump\t// out\n    /* \"#utility.yul\":1038:1167   */\ntag_36:\n    /* \"#utility.yul\":1072:1078   */\n  0x00\n    /* \"#utility.yul\":1099:1119   */\n  tag_69\n  tag_29\n  jump\t// in\ntag_69:\n    /* \"#utility.yul\":1089:1119   */\n  swap1\n  pop\n    /* \"#utility.yul\":1128:1161   */\n  tag_70\n    /* \"#utility.yul\":1156:1160   */\n  dup3\n    /* \"#utility.yul\":1148:1154   */\n  dup3\n    /* \"#utility.yul\":1128:1161   */\n  tag_35\n  jump\t// in\ntag_70:\n    /* \"#utility.yul\":1038:1167   */\n  swap2\n  swap1\n  pop\n  jump\t// out\n    /* \"#utility.yul\":1173:1484   */\ntag_37:\n    /* \"#utility.yul\":1250:1254   */\n  0x00\n    /* \"#utility.yul\":1340:1358   */\n  0xffffffffffffffff\n    /* \"#utility.yul\":1332:1338   */\n  dup3\n    /* \"#utility.yul\":1329:1359   */\n  gt\n    /* \"#utility.yul\":1326:1382   */\n  iszero\n  tag_72\n  jumpi\n    /* \"#utility.yul\":1362:1380   */\n  tag_73\n  tag_34\n  jump\t// in\ntag_73:\n    /* \"#utility.yul\":1326:1382   */\ntag_72:\n    /* \"#utility.yul\":1412:1416   */\n  0x20\n    /* \"#utility.yul\":1404:1410   */\n  dup3\n    /* \"#utility.yul\":1400:1417   */\n  mul\n    /* \"#utility.yul\":1392:1417   */\n  swap1\n  pop\n    /* \"#utility.yul\":1472:1476   */\n  0x20\n    /* \"#utility.yul\":1466:1470   */\n  dup2\n    /* \"#utility.yul\":1462:1477   */\n  add\n    /* \"#utility.yul\":1454:1477   */\n  swap1\n  pop\n    /* \"#utility.yul\":1173:1484   */\n  swap2\n  swap1\n  pop\n  jump\t// out\n    /* \"#utility.yul\":1490:1607   */\ntag_38:\n    /* \"#utility.yul\":1599:1600   */\n  0x00\n    /* \"#utility.yul\":1596:1597   */\n  dup1\n    /* \"#utility.yul\":1589:1601   */\n  revert\n    /* \"#utility.yul\":1613:1739   */\ntag_39:\n    /* \"#utility.yul\":1650:1657   */\n  0x00\n    /* \"#utility.yul\":1690:1732   */\n  0xffffffffffffffffffffffffffffffffffffffff\n    /* \"#utility.yul\":1683:1688   */\n  dup3\n    /* \"#utility.yul\":1679:1733   */\n  and\n    /* \"#utility.yul\":1668:1733   */\n  swap1\n  pop\n    /* \"#utility.yul\":1613:1739   */\n  swap2\n  swap1\n  pop\n  jump\t// out\n    /* \"#utility.yul\":1745:1841   */\ntag_40:\n    /* \"#utility.yul\":1782:1789   */\n  0x00\n    /* \"#utility.yul\":1811:1835   */\n  tag_77\n    /* \"#utility.yul\":1829:1834   */\n  dup3\n    /* \"#utility.yul\":1811:1835   */\n  tag_39\n  jump\t// in\ntag_77:\n    /* \"#utility.yul\":1800:1835   */\n  swap1\n  pop\n    /* \"#utility.yul\":1745:1841   */\n  swap2\n  swap1\n  pop\n  jump\t// out\n    /* \"#utility.yul\":1847:1969   */\ntag_41:\n    /* \"#utility.yul\":1920:1944   */\n  tag_79\n    /* \"#utility.yul\":1938:1943   */\n  dup2\n    /* \"#utility.yul\":1920:1944   */\n  tag_40\n  jump\t// in\ntag_79:\n    /* \"#utility.yul\":1913:1918   */\n  dup2\n    /* \"#utility.yul\":1910:1945   */\n  eq\n    /* \"#utility.yul\":1900:1963   */\n  tag_80\n  jumpi\n    /* \"#utility.yul\":1959:1960   */\n  0x00\n    /* \"#utility.yul\":1956:1957   */\n  dup1\n    /* \"#utility.yul\":1949:1961   */\n  revert\n    /* \"#utility.yul\":1900:1963   */\ntag_80:\n    /* \"#utility.yul\":1847:1969   */\n  pop\n  jump\t// out\n    /* \"#utility.yul\":1975:2118   */\ntag_42:\n    /* \"#utility.yul\":2032:2037   */\n  0x00\n    /* \"#utility.yul\":2063:2069   */\n  dup2\n    /* \"#utility.yul\":2057:2070   */\n  mload\n    /* \"#utility.yul\":2048:2070   */\n  swap1\n  pop\n    /* \"#utility.yul\":2079:2112   */\n  tag_82\n    /* \"#utility.yul\":2106:2111   */\n  dup2\n    /* \"#utility.yul\":2079:2112   */\n  tag_41\n  jump\t// in\ntag_82:\n    /* \"#utility.yul\":1975:2118   */\n  swap3\n  swap2\n  pop\n  pop\n  jump\t// out\n    /* \"#utility.yul\":2141:2873   */\ntag_43:\n    /* \"#utility.yul\":2248:2253   */\n  0x00\n    /* \"#utility.yul\":2273:2354   */\n  tag_84\n    /* \"#utility.yul\":2289:2353   */\n  tag_85\n    /* \"#utility.yul\":2346:2352   */\n  dup5\n    /* \"#utility.yul\":2289:2353   */\n  tag_37\n  jump\t// in\ntag_85:\n    /* \"#utility.yul\":2273:2354   */\n  tag_36\n  jump\t// in\ntag_84:\n    /* \"#utility.yul\":2264:2354   */\n  swap1\n  pop\n    /* \"#utility.yul\":2374:2379   */\n  dup1\n    /* \"#utility.yul\":2403:2409   */\n  dup4\n    /* \"#utility.yul\":2396:2401   */\n  dup3\n    /* \"#utility.yul\":2389:2410   */\n  mstore\n    /* \"#utility.yul\":2437:2441   */\n  0x20\n    /* \"#utility.yul\":2430:2435   */\n  dup3\n    /* \"#utility.yul\":2426:2442   */\n  add\n    /* \"#utility.yul\":2419:2442   */\n  swap1\n  pop\n    /* \"#utility.yul\":2490:2494   */\n  0x20\n    /* \"#utility.yul\":2482:2488   */\n  dup5\n    /* \"#utility.yul\":2478:2495   */\n  mul\n    /* \"#utility.yul\":2470:2476   */\n  dup4\n    /* \"#utility.yul\":2466:2496   */\n  add\n    /* \"#utility.yul\":2519:2522   */\n  dup6\n    /* \"#utility.yul\":2511:2517   */\n  dup2\n    /* \"#utility.yul\":2508:2523   */\n  gt\n    /* \"#utility.yul\":2505:2627   */\n  iszero\n  tag_86\n  jumpi\n    /* \"#utility.yul\":2538:2617   */\n  tag_87\n  tag_38\n  jump\t// in\ntag_87:\n    /* \"#utility.yul\":2505:2627   */\ntag_86:\n    /* \"#utility.yul\":2653:2659   */\n  dup4\n    /* \"#utility.yul\":2636:2867   */\ntag_88:\n    /* \"#utility.yul\":2670:2676   */\n  dup2\n    /* \"#utility.yul\":2665:2668   */\n  dup2\n    /* \"#utility.yul\":2662:2677   */\n  lt\n    /* \"#utility.yul\":2636:2867   */\n  iszero\n  tag_90\n  jumpi\n    /* \"#utility.yul\":2745:2748   */\n  dup1\n    /* \"#utility.yul\":2774:2822   */\n  tag_91\n    /* \"#utility.yul\":2818:2821   */\n  dup9\n    /* \"#utility.yul\":2806:2816   */\n  dup3\n    /* \"#utility.yul\":2774:2822   */\n  tag_42\n  jump\t// in\ntag_91:\n    /* \"#utility.yul\":2769:2772   */\n  dup5\n    /* \"#utility.yul\":2762:2823   */\n  mstore\n    /* \"#utility.yul\":2852:2856   */\n  0x20\n    /* \"#utility.yul\":2847:2850   */\n  dup5\n    /* \"#utility.yul\":2843:2857   */\n  add\n    /* \"#utility.yul\":2836:2857   */\n  swap4\n  pop\n    /* \"#utility.yul\":2712:2867   */\n  pop\n    /* \"#utility.yul\":2696:2700   */\n  0x20\n    /* \"#utility.yul\":2691:2694   */\n  dup2\n    /* \"#utility.yul\":2687:2701   */\n  add\n    /* \"#utility.yul\":2680:2701   */\n  swap1\n  pop\n    /* \"#utility.yul\":2636:2867   */\n  jump(tag_88)\ntag_90:\n    /* \"#utility.yul\":2640:2661   */\n  pop\n    /* \"#utility.yul\":2254:2873   */\n  pop\n  pop\n    /* \"#utility.yul\":2141:2873   */\n  swap4\n  swap3\n  pop\n  pop\n  pop\n  jump\t// out\n    /* \"#utility.yul\":2896:3281   */\ntag_44:\n    /* \"#utility.yul\":2978:2983   */\n  0x00\n    /* \"#utility.yul\":3027:3030   */\n  dup3\n    /* \"#utility.yul\":3020:3024   */\n  0x1f\n    /* \"#utility.yul\":3012:3018   */\n  dup4\n    /* \"#utility.yul\":3008:3025   */\n  add\n    /* \"#utility.yul\":3004:3031   */\n  slt\n    /* \"#utility.yul\":2994:3116   */\n  tag_93\n  jumpi\n    /* \"#utility.yul\":3035:3114   */\n  tag_94\n  tag_32\n  jump\t// in\ntag_94:\n    /* \"#utility.yul\":2994:3116   */\ntag_93:\n    /* \"#utility.yul\":3145:3151   */\n  dup2\n    /* \"#utility.yul\":3139:3152   */\n  mload\n    /* \"#utility.yul\":3170:3275   */\n  tag_95\n    /* \"#utility.yul\":3271:3274   */\n  dup5\n    /* \"#utility.yul\":3263:3269   */\n  dup3\n    /* \"#utility.yul\":3256:3260   */\n  0x20\n    /* \"#utility.yul\":3248:3254   */\n  dup7\n    /* \"#utility.yul\":3244:3261   */\n  add\n    /* \"#utility.yul\":3170:3275   */\n  tag_43\n  jump\t// in\ntag_95:\n    /* \"#utility.yul\":3161:3275   */\n  swap2\n  pop\n    /* \"#utility.yul\":2984:3281   */\n  pop\n    /* \"#utility.yul\":2896:3281   */\n  swap3\n  swap2\n  pop\n  pop\n  jump\t// out\n    /* \"#utility.yul\":3287:3364   */\ntag_45:\n    /* \"#utility.yul\":3324:3331   */\n  0x00\n    /* \"#utility.yul\":3353:3358   */\n  dup2\n    /* \"#utility.yul\":3342:3358   */\n  swap1\n  pop\n    /* \"#utility.yul\":3287:3364   */\n  swap2\n  swap1\n  pop\n  jump\t// out\n    /* \"#utility.yul\":3370:3492   */\ntag_46:\n    /* \"#utility.yul\":3443:3467   */\n  tag_98\n    /* \"#utility.yul\":3461:3466   */\n  dup2\n    /* \"#utility.yul\":3443:3467   */\n  tag_45\n  jump\t// in\ntag_98:\n    /* \"#utility.yul\":3436:3441   */\n  dup2\n    /* \"#utility.yul\":3433:3468   */\n  eq\n    /* \"#utility.yul\":3423:3486   */\n  tag_99\n  jumpi\n    /* \"#utility.yul\":3482:3483   */\n  0x00\n    /* \"#utility.yul\":3479:3480   */\n  dup1\n    /* \"#utility.yul\":3472:3484   */\n  revert\n    /* \"#utility.yul\":3423:3486   */\ntag_99:\n    /* \"#utility.yul\":3370:3492   */\n  pop\n  jump\t// out\n    /* \"#utility.yul\":3498:3641   */\ntag_47:\n    /* \"#utility.yul\":3555:3560   */\n  0x00\n    /* \"#utility.yul\":3586:3592   */\n  dup2\n    /* \"#utility.yul\":3580:3593   */\n  mload\n    /* \"#utility.yul\":3571:3593   */\n  swap1\n  pop\n    /* \"#utility.yul\":3602:3635   */\n  tag_101\n    /* \"#utility.yul\":3629:3634   */\n  dup2\n    /* \"#utility.yul\":3602:3635   */\n  tag_46\n  jump\t// in\ntag_101:\n    /* \"#utility.yul\":3498:3641   */\n  swap3\n  swap2\n  pop\n  pop\n  jump\t// out\n    /* \"#utility.yul\":3647:4357   */\ntag_3:\n    /* \"#utility.yul\":3751:3757   */\n  0x00\n    /* \"#utility.yul\":3759:3765   */\n  dup1\n    /* \"#utility.yul\":3808:3810   */\n  0x40\n    /* \"#utility.yul\":3796:3805   */\n  dup4\n    /* \"#utility.yul\":3787:3794   */\n  dup6\n    /* \"#utility.yul\":3783:3806   */\n  sub\n    /* \"#utility.yul\":3779:3811   */\n  slt\n    /* \"#utility.yul\":3776:3895   */\n  iszero\n  tag_103\n  jumpi\n    /* \"#utility.yul\":3814:3893   */\n  tag_104\n  tag_30\n  jump\t// in\ntag_104:\n    /* \"#utility.yul\":3776:3895   */\ntag_103:\n    /* \"#utility.yul\":3955:3956   */\n  0x00\n    /* \"#utility.yul\":3944:3953   */\n  dup4\n    /* \"#utility.yul\":3940:3957   */\n  add\n    /* \"#utility.yul\":3934:3958   */\n  mload\n    /* \"#utility.yul\":3985:4003   */\n  0xffffffffffffffff\n    /* \"#utility.yul\":3977:3983   */\n  dup2\n    /* \"#utility.yul\":3974:4004   */\n  gt\n    /* \"#utility.yul\":3971:4088   */\n  iszero\n  tag_105\n  jumpi\n    /* \"#utility.yul\":4007:4086   */\n  tag_106\n  tag_31\n  jump\t// in\ntag_106:\n    /* \"#utility.yul\":3971:4088   */\ntag_105:\n    /* \"#utility.yul\":4112:4201   */\n  tag_107\n    /* \"#utility.yul\":4193:4200   */\n  dup6\n    /* \"#utility.yul\":4184:4190   */\n  dup3\n    /* \"#utility.yul\":4173:4182   */\n  dup7\n    /* \"#utility.yul\":4169:4191   */\n  add\n    /* \"#utility.yul\":4112:4201   */\n  tag_44\n  jump\t// in\ntag_107:\n    /* \"#utility.yul\":4102:4201   */\n  swap3\n  pop\n    /* \"#utility.yul\":3905:4211   */\n  pop\n    /* \"#utility.yul\":4250:4252   */\n  0x20\n    /* \"#utility.yul\":4276:4340   */\n  tag_108\n    /* \"#utility.yul\":4332:4339   */\n  dup6\n    /* \"#utility.yul\":4323:4329   */\n  dup3\n    /* \"#utility.yul\":4312:4321   */\n  dup7\n    /* \"#utility.yul\":4308:4330   */\n  add\n    /* \"#utility.yul\":4276:4340   */\n  tag_47\n  jump\t// in\ntag_108:\n    /* \"#utility.yul\":4266:4340   */\n  swap2\n  pop\n    /* \"#utility.yul\":4221:4350   */\n  pop\n    /* \"#utility.yul\":3647:4357   */\n  swap3\n  pop\n  swap3\n  swap1\n  pop\n  jump\t// out\n    /* \"#utility.yul\":4363:4532   */\ntag_48:\n    /* \"#utility.yul\":4447:4458   */\n  0x00\n    /* \"#utility.yul\":4481:4487   */\n  dup3\n    /* \"#utility.yul\":4476:4479   */\n  dup3\n    /* \"#utility.yul\":4469:4488   */\n  mstore\n    /* \"#utility.yul\":4521:4525   */\n  0x20\n    /* \"#utility.yul\":4516:4519   */\n  dup3\n    /* \"#utility.yul\":4512:4526   */\n  add\n    /* \"#utility.yul\":4497:4526   */\n  swap1\n  pop\n    /* \"#utility.yul\":4363:4532   */\n  swap3\n  swap2\n  pop\n  pop\n  jump\t// out\n    /* \"#utility.yul\":4538:4697   */\ntag_49:\n    /* \"#utility.yul\":4678:4689   */\n  0x6e6f206f776e6572730000000000000000000000000000000000000000000000\n    /* \"#utility.yul\":4674:4675   */\n  0x00\n    /* \"#utility.yul\":4666:4672   */\n  dup3\n    /* \"#utility.yul\":4662:4676   */\n  add\n    /* \"#utility.yul\":4655:4690   */\n  mstore\n    /* \"#utility.yul\":4538:4697   */\n  pop\n  jump\t// out\n    /* \"#utility.yul\":4703:5068   */\ntag_50:\n    /* \"#utility.yul\":4845:4848   */\n  0x00\n    /* \"#utility.yul\":4866:4932   */\n  tag_112\n    /* \"#utility.yul\":4930:4931   */\n  0x09\n    /* \"#utility.yul\":4925:4928   */\n  dup4\n    /* \"#utility.yul\":4866:4932   */\n  tag_48\n  jump\t// in\ntag_112:\n    /* \"#utility.yul\":4859:4932   */\n  swap2\n  pop\n    /* \"#utility.yul\":4941:5034   */\n  tag_113\n    /* \"#utility.yul\":5030:5033   */\n  dup3\n    /* \"#utility.yul\":4941:5034   */\n  tag_49\n  jump\t// in\ntag_113:\n    /* \"#utility.yul\":5059:5061   */\n  0x20\n    /* \"#utility.yul\":5054:5057   */\n  dup3\n    /* \"#utility.yul\":5050:5062   */\n  add\n    /* \"#utility.yul\":5043:5062   */\n  swap1\n  pop\n    /* \"#utility.yul\":4703:5068   */\n  swap2\n  swap1\n  pop\n  jump\t// out\n    /* \"#utility.yul\":5074:5493   */\ntag_9:\n    /* \"#utility.yul\":5240:5244   */\n  0x00\n    /* \"#utility.yul\":5278:5280   */\n  0x20\n    /* \"#utility.yul\":5267:5276   */\n  dup3\n    /* \"#utility.yul\":5263:5281   */\n  add\n    /* \"#utility.yul\":5255:5281   */\n  swap1\n  pop\n    /* \"#utility.yul\":5327:5336   */\n  dup2\n    /* \"#utility.yul\":5321:5325   */\n  dup2\n    /* \"#utility.yul\":5317:5337   */\n  sub\n    /* \"#utility.yul\":5313:5314   */\n  0x00\n    /* \"#utility.yul\":5302:5311   */\n  dup4\n    /* \"#utility.yul\":5298:5315   */\n  add\n    /* \"#utility.yul\":5291:5338   */\n  mstore\n    /* \"#utility.yul\":5355:5486   */\n  tag_115\n    /* \"#utility.yul\":5481:5485   */\n  dup2\n    /* \"#utility.yul\":5355:5486   */\n  tag_50\n  jump\t// in\ntag_115:\n    /* \"#utility.yul\":5347:5486   */\n  swap1\n  pop\n    /* \"#utility.yul\":5074:5493   */\n  swap2\n  swap1\n  pop\n  jump\t// out\n    /* \"#utility.yul\":5499:5679   */\ntag_15:\n    /* \"#utility.yul\":5547:5624   */\n  0x4e487b7100000000000000000000000000000000000000000000000000000000\n    /* \"#utility.yul\":5544:5545   */\n  0x00\n    /* \"#utility.yul\":5537:5625   */\n  mstore\n    /* \"#utility.yul\":5644:5648   */\n  0x32\n    /* \"#utility.yul\":5641:5642   */\n  0x04\n    /* \"#utility.yul\":5634:5649   */\n  mstore\n    /* \"#utility.yul\":5668:5672   */\n  0x24\n    /* \"#utility.yul\":5665:5666   */\n  0x00\n    /* \"#utility.yul\":5658:5673   */\n  revert\n    /* \"#utility.yul\":5685:5847   */\ntag_51:\n    /* \"#utility.yul\":5825:5839   */\n  0x7a65726f20616464726573730000000000000000000000000000000000000000\n    /* \"#utility.yul\":5821:5822   */\n  0x00\n    /* \"#utility.yul\":5813:5819   */\n  dup3\n    /* \"#utility.yul\":5809:5823   */\n  add\n    /* \"#utility.yul\":5802:5840   */\n  mstore\n    /* \"#utility.yul\":5685:5847   */\n  pop\n  jump\t// out\n    /* \"#utility.yul\":5853:6219   */\ntag_52:\n    /* \"#utility.yul\":5995:5998   */\n  0x00\n    /* \"#utility.yul\":6016:6083   */\n  tag_119\n    /* \"#utility.yul\":6080:6082   */\n  0x0c\n    /* \"#utility.yul\":6075:6078   */\n  dup4\n    /* \"#utility.yul\":6016:6083   */\n  tag_48\n  jump\t// in\ntag_119:\n    /* \"#utility.yul\":6009:6083   */\n  swap2\n  pop\n    /* \"#utility.yul\":6092:6185   */\n  tag_120\n    /* \"#utility.yul\":6181:6184   */\n  dup3\n    /* \"#utility.yul\":6092:6185   */\n  tag_51\n  jump\t// in\ntag_120:\n    /* \"#utility.yul\":6210:6212   */\n  0x20\n    /* \"#utility.yul\":6205:6208   */\n  dup3\n    /* \"#utility.yul\":6201:6213   */\n  add\n    /* \"#utility.yul\":6194:6213   */\n  swap1\n  pop\n    /* \"#utility.yul\":5853:6219   */\n  swap2\n  swap1\n  pop\n  jump\t// out\n    /* \"#utility.yul\":6225:6644   */\ntag_18:\n    /* \"#utility.yul\":6391:6395   */\n  0x00\n    /* \"#utility.yul\":6429:6431   */\n  0x20\n    /* \"#utility.yul\":6418:6427   */\n  dup3\n    /* \"#utility.yul\":6414:6432   */\n  add\n    /* \"#utility.yul\":6406:6432   */\n  swap1\n  pop\n    /* \"#utility.yul\":6478:6487   */\n  dup2\n    /* \"#utility.yul\":6472:6476   */\n  dup2\n    /* \"#utility.yul\":6468:6488   */\n  sub\n    /* \"#utility.yul\":6464:6465   */\n  0x00\n    /* \"#utility.yul\":6453:6462   */\n  dup4\n    /* \"#utility.yul\":6449:6466   */\n  add\n    /* \"#utility.yul\":6442:6489   */\n  mstore\n    /* \"#utility.yul\":6506:6637   */\n  tag_122\n    /* \"#utility.yul\":6632:6636   */\n  dup2\n    /* \"#utility.yul\":6506:6637   */\n  tag_52\n  jump\t// in\ntag_122:\n    /* \"#utility.yul\":6498:6637   */\n  swap1\n  pop\n    /* \"#utility.yul\":6225:6644   */\n  swap2\n  swap1\n  pop\n  jump\t// out\n    /* \"#utility.yul\":6650:6810   */\ntag_53:\n    /* \"#utility.yul\":6790:6802   */\n  0x6e6f7420756e6971756500000000000000000000000000000000000000000000\n    /* \"#utility.yul\":6786:6787   */\n  0x00\n    /* \"#utility.yul\":6778:6784   */\n  dup3\n    /* \"#utility.yul\":6774:6788   */\n  add\n    /* \"#utility.yul\":6767:6803   */\n  mstore\n    /* \"#utility.yul\":6650:6810   */\n  pop\n  jump\t// out\n    /* \"#utility.yul\":6816:7182   */\ntag_54:\n    /* \"#utility.yul\":6958:6961   */\n  0x00\n    /* \"#utility.yul\":6979:7046   */\n  tag_125\n    /* \"#utility.yul\":7043:7045   */\n  0x0a\n    /* \"#utility.yul\":7038:7041   */\n  dup4\n    /* \"#utility.yul\":6979:7046   */\n  tag_48\n  jump\t// in\ntag_125:\n    /* \"#utility.yul\":6972:7046   */\n  swap2\n  pop\n    /* \"#utility.yul\":7055:7148   */\n  tag_126\n    /* \"#utility.yul\":7144:7147   */\n  dup3\n    /* \"#utility.yul\":7055:7148   */\n  tag_53\n  jump\t// in\ntag_126:\n    /* \"#utility.yul\":7173:7175   */\n  0x20\n    /* \"#utility.yul\":7168:7171   */\n  dup3\n    /* \"#utility.yul\":7164:7176   */\n  add\n    /* \"#utility.yul\":7157:7176   */\n  swap1\n  pop\n    /* \"#utility.yul\":6816:7182   */\n  swap2\n  swap1\n  pop\n  jump\t// out\n    /* \"#utility.yul\":7188:7607   */\ntag_21:\n    /* \"#utility.yul\":7354:7358   */\n  0x00\n    /* \"#utility.yul\":7392:7394   */\n  0x20\n    /* \"#utility.yul\":7381:7390   */\n  dup3\n    /* \"#utility.yul\":7377:7395   */\n  add\n    /* \"#utility.yul\":7369:7395   */\n  swap1\n  pop\n    /* \"#utility.yul\":7441:7450   */\n  dup2\n    /* \"#utility.yul\":7435:7439   */\n  dup2\n    /* \"#utility.yul\":7431:7451   */\n  sub\n    /* \"#utility.yul\":7427:7428   */\n  0x00\n    /* \"#utility.yul\":7416:7425   */\n  dup4\n    /* \"#utility.yul\":7412:7429   */\n  add\n    /* \"#utility.yul\":7405:7452   */\n  mstore\n    /* \"#utility.yul\":7469:7600   */\n  tag_128\n    /* \"#utility.yul\":7595:7599   */\n  dup2\n    /* \"#utility.yul\":7469:7600   */\n  tag_54\n  jump\t// in\ntag_128:\n    /* \"#utility.yul\":7461:7600   */\n  swap1\n  pop\n    /* \"#utility.yul\":7188:7607   */\n  swap2\n  swap1\n  pop\n  jump\t// out\n    /* \"#utility.yul\":7613:7786   */\ntag_55:\n    /* \"#utility.yul\":7753:7778   */\n  0x696e76616c696420617070726f76616c7320636f756e74000000000000000000\n    /* \"#utility.yul\":7749:7750   */\n  0x00\n    /* \"#utility.yul\":7741:7747   */\n  dup3\n    /* \"#utility.yul\":7737:7751   */\n  add\n    /* \"#utility.yul\":7730:7779   */\n  mstore\n    /* \"#utility.yul\":7613:7786   */\n  pop\n  jump\t// out\n    /* \"#utility.yul\":7792:8158   */\ntag_56:\n    /* \"#utility.yul\":7934:7937   */\n  0x00\n    /* \"#utility.yul\":7955:8022   */\n  tag_131\n    /* \"#utility.yul\":8019:8021   */\n  0x17\n    /* \"#utility.yul\":8014:8017   */\n  dup4\n    /* \"#utility.yul\":7955:8022   */\n  tag_48\n  jump\t// in\ntag_131:\n    /* \"#utility.yul\":7948:8022   */\n  swap2\n  pop\n    /* \"#utility.yul\":8031:8124   */\n  tag_132\n    /* \"#utility.yul\":8120:8123   */\n  dup3\n    /* \"#utility.yul\":8031:8124   */\n  tag_55\n  jump\t// in\ntag_132:\n    /* \"#utility.yul\":8149:8151   */\n  0x20\n    /* \"#utility.yul\":8144:8147   */\n  dup3\n    /* \"#utility.yul\":8140:8152   */\n  add\n    /* \"#utility.yul\":8133:8152   */\n  swap1\n  pop\n    /* \"#utility.yul\":7792:8158   */\n  swap2\n  swap1\n  pop\n  jump\t// out\n    /* \"#utility.yul\":8164:8583   */\ntag_27:\n    /* \"#utility.yul\":8330:8334   */\n  0x00\n    /* \"#utility.yul\":8368:8370   */\n  0x20\n    /* \"#utility.yul\":8357:8366   */\n  dup3\n    /* \"#utility.yul\":8353:8371   */\n  add\n    /* \"#utility.yul\":8345:8371   */\n  swap1\n  pop\n    /* \"#utility.yul\":8417:8426   */\n  dup2\n    /* \"#utility.yul\":8411:8415   */\n  dup2\n    /* \"#utility.yul\":8407:8427   */\n  sub\n    /* \"#utility.yul\":8403:8404   */\n  0x00\n    /* \"#utility.yul\":8392:8401   */\n  dup4\n    /* \"#utility.yul\":8388:8405   */\n  add\n    /* \"#utility.yul\":8381:8428   */\n  mstore\n    /* \"#utility.yul\":8445:8576   */\n  tag_134\n    /* \"#utility.yul\":8571:8575   */\n  dup2\n    /* \"#utility.yul\":8445:8576   */\n  tag_56\n  jump\t// in\ntag_134:\n    /* \"#utility.yul\":8437:8576   */\n  swap1\n  pop\n    /* \"#utility.yul\":8164:8583   */\n  swap2\n  swap1\n  pop\n  jump\t// out\n    /* \"multisignature/Multi.sol\":726:4149  contract MultiSig is Ownable {... */\ntag_28:\n  mload(0x80)\n  codecopy(0x00, dataOffset(sub_0), dataSize(sub_0))\n  0x00\n  assignImmutable(\"0x5ad0f966e4dd8863f27c0e6ee7d684c0c8f4319efed210fe15662a0d29bcd615\")\n  return(0x00, dataSize(sub_0))\nstop\n\nsub_0: assembly {\n        /* \"multisignature/Multi.sol\":726:4149  contract MultiSig is Ownable {... */\n      mstore(0x40, 0x80)\n      jumpi(tag_1, lt(calldatasize, 0x04))\n      shr(0xe0, calldataload(0x00))\n      dup1\n      0x99c1aadc\n      gt\n      tag_15\n      jumpi\n      dup1\n      0x99c1aadc\n      eq\n      tag_9\n      jumpi\n      dup1\n      0x9ace38c2\n      eq\n      tag_10\n      jumpi\n      dup1\n      0xabaf742a\n      eq\n      tag_11\n      jumpi\n      dup1\n      0xb759f954\n      eq\n      tag_12\n      jumpi\n      dup1\n      0xd0e30db0\n      eq\n      tag_13\n      jumpi\n      dup1\n      0xfe0d94c1\n      eq\n      tag_14\n      jumpi\n      jump(tag_2)\n    tag_15:\n      dup1\n      0x025e7c27\n      eq\n      tag_3\n      jumpi\n      dup1\n      0x14de327f\n      eq\n      tag_4\n      jumpi\n      dup1\n      0x17fe2da2\n      eq\n      tag_5\n      jumpi\n      dup1\n      0x20c5429b\n      eq\n      tag_6\n      jumpi\n      dup1\n      0x2f54bf6e\n      eq\n      tag_7\n      jumpi\n      dup1\n      0x8253951a\n      eq\n      tag_8\n      jumpi\n      jump(tag_2)\n    tag_1:\n      jumpi(tag_2, calldatasize)\n        /* \"multisignature/Multi.sol\":4130:4139  deposit() */\n      tag_18\n        /* \"multisignature/Multi.sol\":4130:4137  deposit */\n      tag_19\n        /* \"multisignature/Multi.sol\":4130:4139  deposit() */\n      jump\t// in\n    tag_18:\n        /* \"multisignature/Multi.sol\":726:4149  contract MultiSig is Ownable {... */\n      stop\n    tag_2:\n      0x00\n      dup1\n      revert\n        /* \"multisignature/Multi.sol\":91:114  address[] public owners */\n    tag_3:\n      callvalue\n      dup1\n      iszero\n      tag_20\n      jumpi\n      0x00\n      dup1\n      revert\n    tag_20:\n      pop\n      tag_21\n      0x04\n      dup1\n      calldatasize\n      sub\n      dup2\n      add\n      swap1\n      tag_22\n      swap2\n      swap1\n      tag_23\n      jump\t// in\n    tag_22:\n      tag_24\n      jump\t// in\n    tag_21:\n      mload(0x40)\n      tag_25\n      swap2\n      swap1\n      tag_26\n      jump\t// in\n    tag_25:\n      mload(0x40)\n      dup1\n      swap2\n      sub\n      swap1\n      return\n        /* \"multisignature/Multi.sol\":3309:3638  function submit(address _to, uint256 _value, bytes calldata _data) external {... */\n    tag_4:\n      callvalue\n      dup1\n      iszero\n      tag_27\n      jumpi\n      0x00\n      dup1\n      revert\n    tag_27:\n      pop\n      tag_28\n      0x04\n      dup1\n      calldatasize\n      sub\n      dup2\n      add\n      swap1\n      tag_29\n      swap2\n      swap1\n      tag_30\n      jump\t// in\n    tag_29:\n      tag_31\n      jump\t// in\n    tag_28:\n      stop\n        /* \"multisignature/Multi.sol\":2535:2686  function encode(string memory _func, string memory _arg) public pure returns(bytes memory) {... */\n    tag_5:\n      callvalue\n      dup1\n      iszero\n      tag_32\n      jumpi\n      0x00\n      dup1\n      revert\n    tag_32:\n      pop\n      tag_33\n      0x04\n      dup1\n      calldatasize\n      sub\n      dup2\n      add\n      swap1\n      tag_34\n      swap2\n      swap1\n      tag_35\n      jump\t// in\n    tag_34:\n      tag_36\n      jump\t// in\n    tag_33:\n      mload(0x40)\n      tag_37\n      swap2\n      swap1\n      tag_38\n      jump\t// in\n    tag_37:\n      mload(0x40)\n      dup1\n      swap2\n      sub\n      swap1\n      return\n        /* \"multisignature/Multi.sol\":3053:3303  function revoke(uint _txId) external... */\n    tag_6:\n      callvalue\n      dup1\n      iszero\n      tag_39\n      jumpi\n      0x00\n      dup1\n      revert\n    tag_39:\n      pop\n      tag_40\n      0x04\n      dup1\n      calldatasize\n      sub\n      dup2\n      add\n      swap1\n      tag_41\n      swap2\n      swap1\n      tag_23\n      jump\t// in\n    tag_41:\n      tag_42\n      jump\t// in\n    tag_40:\n      stop\n        /* \"multisignature/Multi.sol\":120:159  mapping(address => bool) public isOwner */\n    tag_7:\n      callvalue\n      dup1\n      iszero\n      tag_43\n      jumpi\n      0x00\n      dup1\n      revert\n    tag_43:\n      pop\n      tag_44\n      0x04\n      dup1\n      calldatasize\n      sub\n      dup2\n      add\n      swap1\n      tag_45\n      swap2\n      swap1\n      tag_46\n      jump\t// in\n    tag_45:\n      tag_47\n      jump\t// in\n    tag_44:\n      mload(0x40)\n      tag_48\n      swap2\n      swap1\n      tag_49\n      jump\t// in\n    tag_48:\n      mload(0x40)\n      dup1\n      swap2\n      sub\n      swap1\n      return\n        /* \"multisignature/Multi.sol\":1047:1104  mapping(uint => mapping(address => bool)) public approved */\n    tag_8:\n      callvalue\n      dup1\n      iszero\n      tag_50\n      jumpi\n      0x00\n      dup1\n      revert\n    tag_50:\n      pop\n      tag_51\n      0x04\n      dup1\n      calldatasize\n      sub\n      dup2\n      add\n      swap1\n      tag_52\n      swap2\n      swap1\n      tag_53\n      jump\t// in\n    tag_52:\n      tag_54\n      jump\t// in\n    tag_51:\n      mload(0x40)\n      tag_55\n      swap2\n      swap1\n      tag_49\n      jump\t// in\n    tag_55:\n      mload(0x40)\n      dup1\n      swap2\n      sub\n      swap1\n      return\n        /* \"multisignature/Multi.sol\":761:800  uint public immutable requiredApprovals */\n    tag_9:\n      callvalue\n      dup1\n      iszero\n      tag_56\n      jumpi\n      0x00\n      dup1\n      revert\n    tag_56:\n      pop\n      tag_57\n      tag_58\n      jump\t// in\n    tag_57:\n      mload(0x40)\n      tag_59\n      swap2\n      swap1\n      tag_60\n      jump\t// in\n    tag_59:\n      mload(0x40)\n      dup1\n      swap2\n      sub\n      swap1\n      return\n        /* \"multisignature/Multi.sol\":926:959  Transaction[] public transactions */\n    tag_10:\n      callvalue\n      dup1\n      iszero\n      tag_61\n      jumpi\n      0x00\n      dup1\n      revert\n    tag_61:\n      pop\n      tag_62\n      0x04\n      dup1\n      calldatasize\n      sub\n      dup2\n      add\n      swap1\n      tag_63\n      swap2\n      swap1\n      tag_23\n      jump\t// in\n    tag_63:\n      tag_64\n      jump\t// in\n    tag_62:\n      mload(0x40)\n      tag_65\n      swap5\n      swap4\n      swap3\n      swap2\n      swap1\n      tag_66\n      jump\t// in\n    tag_65:\n      mload(0x40)\n      dup1\n      swap2\n      sub\n      swap1\n      return\n        /* \"multisignature/Multi.sol\":998:1041  mapping(uint => uint) public approvalsCount */\n    tag_11:\n      callvalue\n      dup1\n      iszero\n      tag_67\n      jumpi\n      0x00\n      dup1\n      revert\n    tag_67:\n      pop\n      tag_68\n      0x04\n      dup1\n      calldatasize\n      sub\n      dup2\n      add\n      swap1\n      tag_69\n      swap2\n      swap1\n      tag_23\n      jump\t// in\n    tag_69:\n      tag_70\n      jump\t// in\n    tag_68:\n      mload(0x40)\n      tag_71\n      swap2\n      swap1\n      tag_60\n      jump\t// in\n    tag_71:\n      mload(0x40)\n      dup1\n      swap2\n      sub\n      swap1\n      return\n        /* \"multisignature/Multi.sol\":2800:3047  function approve(uint _txId) external... */\n    tag_12:\n      callvalue\n      dup1\n      iszero\n      tag_72\n      jumpi\n      0x00\n      dup1\n      revert\n    tag_72:\n      pop\n      tag_73\n      0x04\n      dup1\n      calldatasize\n      sub\n      dup2\n      add\n      swap1\n      tag_74\n      swap2\n      swap1\n      tag_23\n      jump\t// in\n    tag_74:\n      tag_75\n      jump\t// in\n    tag_73:\n      stop\n        /* \"multisignature/Multi.sol\":4001:4087  function deposit() public payable {... */\n    tag_13:\n      tag_76\n      tag_19\n      jump\t// in\n    tag_76:\n      stop\n        /* \"multisignature/Multi.sol\":3644:3995  function execute(uint _txId) external ... */\n    tag_14:\n      callvalue\n      dup1\n      iszero\n      tag_77\n      jumpi\n      0x00\n      dup1\n      revert\n    tag_77:\n      pop\n      tag_78\n      0x04\n      dup1\n      calldatasize\n      sub\n      dup2\n      add\n      swap1\n      tag_79\n      swap2\n      swap1\n      tag_23\n      jump\t// in\n    tag_79:\n      tag_80\n      jump\t// in\n    tag_78:\n      stop\n        /* \"multisignature/Multi.sol\":4001:4087  function deposit() public payable {... */\n    tag_19:\n        /* \"multisignature/Multi.sol\":4050:4080  Deposit(msg.sender, msg.value) */\n      0xe1fffcc4923d04b559f4d29a8bfc6cda04eb5b0d3c460751c2402c5c5cc9109c\n        /* \"multisignature/Multi.sol\":4058:4068  msg.sender */\n      caller\n        /* \"multisignature/Multi.sol\":4070:4079  msg.value */\n      callvalue\n        /* \"multisignature/Multi.sol\":4050:4080  Deposit(msg.sender, msg.value) */\n      mload(0x40)\n      tag_82\n      swap3\n      swap2\n      swap1\n      tag_83\n      jump\t// in\n    tag_82:\n      mload(0x40)\n      dup1\n      swap2\n      sub\n      swap1\n      log1\n        /* \"multisignature/Multi.sol\":4001:4087  function deposit() public payable {... */\n      jump\t// out\n        /* \"multisignature/Multi.sol\":91:114  address[] public owners */\n    tag_24:\n      0x00\n      dup2\n      dup2\n      sload\n      dup2\n      lt\n      tag_84\n      jumpi\n      0x00\n      dup1\n      revert\n    tag_84:\n      swap1\n      0x00\n      mstore\n      keccak256(0x00, 0x20)\n      add\n      0x00\n      swap2\n      pop\n      sload\n      swap1\n      0x0100\n      exp\n      swap1\n      div\n      0xffffffffffffffffffffffffffffffffffffffff\n      and\n      dup2\n      jump\t// out\n        /* \"multisignature/Multi.sol\":3309:3638  function submit(address _to, uint256 _value, bytes calldata _data) external {... */\n    tag_31:\n        /* \"multisignature/Multi.sol\":3395:3419  Transaction memory newTx */\n      0x00\n        /* \"multisignature/Multi.sol\":3422:3551  Transaction({... */\n      mload(0x40)\n      dup1\n      0x80\n      add\n      0x40\n      mstore\n      dup1\n        /* \"multisignature/Multi.sol\":3453:3456  _to */\n      dup7\n        /* \"multisignature/Multi.sol\":3422:3551  Transaction({... */\n      0xffffffffffffffffffffffffffffffffffffffff\n      and\n      dup2\n      mstore\n      0x20\n      add\n        /* \"multisignature/Multi.sol\":3478:3484  _value */\n      dup6\n        /* \"multisignature/Multi.sol\":3422:3551  Transaction({... */\n      dup2\n      mstore\n      0x20\n      add\n        /* \"multisignature/Multi.sol\":3505:3510  _data */\n      dup5\n      dup5\n        /* \"multisignature/Multi.sol\":3422:3551  Transaction({... */\n      dup1\n      dup1\n      0x1f\n      add\n      0x20\n      dup1\n      swap2\n      div\n      mul\n      0x20\n      add\n      mload(0x40)\n      swap1\n      dup2\n      add\n      0x40\n      mstore\n      dup1\n      swap4\n      swap3\n      swap2\n      swap1\n      dup2\n      dup2\n      mstore\n      0x20\n      add\n      dup4\n      dup4\n      dup1\n      dup3\n      dup5\n      calldatacopy\n      0x00\n      dup2\n      dup5\n      add\n      mstore\n      not(0x1f)\n      0x1f\n      dup3\n      add\n      and\n      swap1\n      pop\n      dup1\n      dup4\n      add\n      swap3\n      pop\n      pop\n      pop\n      pop\n      pop\n      pop\n      pop\n      dup2\n      mstore\n      0x20\n      add\n        /* \"multisignature/Multi.sol\":3535:3540  false */\n      0x00\n        /* \"multisignature/Multi.sol\":3422:3551  Transaction({... */\n      iszero\n      iszero\n      dup2\n      mstore\n      pop\n        /* \"multisignature/Multi.sol\":3395:3551  Transaction memory newTx = Transaction({... */\n      swap1\n      pop\n        /* \"multisignature/Multi.sol\":3561:3573  transactions */\n      0x02\n        /* \"multisignature/Multi.sol\":3579:3584  newTx */\n      dup2\n        /* \"multisignature/Multi.sol\":3561:3585  transactions.push(newTx) */\n      swap1\n      dup1\n      0x01\n      dup2\n      sload\n      add\n      dup1\n      dup3\n      sstore\n      dup1\n      swap2\n      pop\n      pop\n      0x01\n      swap1\n      sub\n      swap1\n      0x00\n      mstore\n      keccak256(0x00, 0x20)\n      swap1\n      0x04\n      mul\n      add\n      0x00\n      swap1\n      swap2\n      swap1\n      swap2\n      swap1\n      swap2\n      pop\n      0x00\n      dup3\n      add\n      mload\n      dup2\n      0x00\n      add\n      exp(0x0100, 0x00)\n      dup2\n      sload\n      dup2\n      0xffffffffffffffffffffffffffffffffffffffff\n      mul\n      not\n      and\n      swap1\n      dup4\n      0xffffffffffffffffffffffffffffffffffffffff\n      and\n      mul\n      or\n      swap1\n      sstore\n      pop\n      0x20\n      dup3\n      add\n      mload\n      dup2\n      0x01\n      add\n      sstore\n      0x40\n      dup3\n      add\n      mload\n      dup2\n      0x02\n      add\n      swap1\n      dup2\n      tag_88\n      swap2\n      swap1\n      tag_89\n      jump\t// in\n    tag_88:\n      pop\n      0x60\n      dup3\n      add\n      mload\n      dup2\n      0x03\n      add\n      exp(0x0100, 0x00)\n      dup2\n      sload\n      dup2\n      0xff\n      mul\n      not\n      and\n      swap1\n      dup4\n      iszero\n      iszero\n      mul\n      or\n      swap1\n      sstore\n      pop\n      pop\n      pop\n        /* \"multisignature/Multi.sol\":3600:3631  Submit(transactions.length - 1) */\n      0x08324b3d745b914e3abd4ffbfead91e3b78391a98c173202129215ab933adfbe\n        /* \"multisignature/Multi.sol\":3629:3630  1 */\n      0x01\n        /* \"multisignature/Multi.sol\":3607:3619  transactions */\n      0x02\n        /* \"multisignature/Multi.sol\":3607:3626  transactions.length */\n      dup1\n      sload\n      swap1\n      pop\n        /* \"multisignature/Multi.sol\":3607:3630  transactions.length - 1 */\n      tag_90\n      swap2\n      swap1\n      tag_91\n      jump\t// in\n    tag_90:\n        /* \"multisignature/Multi.sol\":3600:3631  Submit(transactions.length - 1) */\n      mload(0x40)\n      tag_92\n      swap2\n      swap1\n      tag_60\n      jump\t// in\n    tag_92:\n      mload(0x40)\n      dup1\n      swap2\n      sub\n      swap1\n      log1\n        /* \"multisignature/Multi.sol\":3385:3638  {... */\n      pop\n        /* \"multisignature/Multi.sol\":3309:3638  function submit(address _to, uint256 _value, bytes calldata _data) external {... */\n      pop\n      pop\n      pop\n      pop\n      jump\t// out\n        /* \"multisignature/Multi.sol\":2535:2686  function encode(string memory _func, string memory _arg) public pure returns(bytes memory) {... */\n    tag_36:\n        /* \"multisignature/Multi.sol\":2612:2624  bytes memory */\n      0x60\n        /* \"multisignature/Multi.sol\":2667:2672  _func */\n      dup3\n        /* \"multisignature/Multi.sol\":2674:2678  _arg */\n      dup3\n        /* \"multisignature/Multi.sol\":2643:2679  abi.encodeWithSignature(_func, _arg) */\n      add(0x24, mload(0x40))\n      tag_94\n      swap2\n      swap1\n      tag_95\n      jump\t// in\n    tag_94:\n      mload(0x40)\n      0x20\n      dup2\n      dup4\n      sub\n      sub\n      dup2\n      mstore\n      swap1\n      0x40\n      mstore\n      swap1\n      mload(0x40)\n      tag_96\n      swap2\n      swap1\n      tag_97\n      jump\t// in\n    tag_96:\n      mload(0x40)\n      dup1\n      swap2\n      sub\n      swap1\n      keccak256\n      not(0xffffffffffffffffffffffffffffffffffffffffffffffffffffffff)\n      and\n      0x20\n      dup3\n      add\n      dup1\n      mload\n      0xffffffffffffffffffffffffffffffffffffffffffffffffffffffff\n      dup4\n      dup2\n      dup4\n      and\n      or\n      dup4\n      mstore\n      pop\n      pop\n      pop\n      pop\n        /* \"multisignature/Multi.sol\":2636:2679  return abi.encodeWithSignature(_func, _arg) */\n      swap1\n      pop\n        /* \"multisignature/Multi.sol\":2535:2686  function encode(string memory _func, string memory _arg) public pure returns(bytes memory) {... */\n      swap3\n      swap2\n      pop\n      pop\n      jump\t// out\n        /* \"multisignature/Multi.sol\":3053:3303  function revoke(uint _txId) external... */\n    tag_42:\n        /* \"multisignature/Multi.sol\":599:606  isOwner */\n      0x01\n        /* \"multisignature/Multi.sol\":599:618  isOwner[msg.sender] */\n      0x00\n        /* \"multisignature/Multi.sol\":607:617  msg.sender */\n      caller\n        /* \"multisignature/Multi.sol\":599:618  isOwner[msg.sender] */\n      0xffffffffffffffffffffffffffffffffffffffff\n      and\n      0xffffffffffffffffffffffffffffffffffffffff\n      and\n      dup2\n      mstore\n      0x20\n      add\n      swap1\n      dup2\n      mstore\n      0x20\n      add\n      0x00\n      keccak256\n      0x00\n      swap1\n      sload\n      swap1\n      0x0100\n      exp\n      swap1\n      div\n      0xff\n      and\n        /* \"multisignature/Multi.sol\":591:635  require(isOwner[msg.sender], \"not an owner\") */\n      tag_99\n      jumpi\n      mload(0x40)\n      0x08c379a000000000000000000000000000000000000000000000000000000000\n      dup2\n      mstore\n      0x04\n      add\n      tag_100\n      swap1\n      tag_101\n      jump\t// in\n    tag_100:\n      mload(0x40)\n      dup1\n      swap2\n      sub\n      swap1\n      revert\n    tag_99:\n        /* \"multisignature/Multi.sol\":3118:3123  _txId */\n      dup1\n        /* \"multisignature/Multi.sol\":1386:1398  transactions */\n      0x02\n        /* \"multisignature/Multi.sol\":1386:1405  transactions.length */\n      dup1\n      sload\n      swap1\n      pop\n        /* \"multisignature/Multi.sol\":1378:1383  _txId */\n      dup2\n        /* \"multisignature/Multi.sol\":1378:1405  _txId < transactions.length */\n      lt\n        /* \"multisignature/Multi.sol\":1370:1427  require(_txId < transactions.length, \"tx does not exist\") */\n      tag_103\n      jumpi\n      mload(0x40)\n      0x08c379a000000000000000000000000000000000000000000000000000000000\n      dup2\n      mstore\n      0x04\n      add\n      tag_104\n      swap1\n      tag_105\n      jump\t// in\n    tag_104:\n      mload(0x40)\n      dup1\n      swap2\n      sub\n      swap1\n      revert\n    tag_103:\n        /* \"multisignature/Multi.sol\":3141:3146  _txId */\n      dup2\n        /* \"multisignature/Multi.sol\":1633:1645  transactions */\n      0x02\n        /* \"multisignature/Multi.sol\":1646:1651  _txId */\n      dup2\n        /* \"multisignature/Multi.sol\":1633:1652  transactions[_txId] */\n      dup2\n      sload\n      dup2\n      lt\n      tag_107\n      jumpi\n      tag_108\n      tag_109\n      jump\t// in\n    tag_108:\n    tag_107:\n      swap1\n      0x00\n      mstore\n      keccak256(0x00, 0x20)\n      swap1\n      0x04\n      mul\n      add\n        /* \"multisignature/Multi.sol\":1633:1662  transactions[_txId]._executed */\n      0x03\n      add\n      0x00\n      swap1\n      sload\n      swap1\n      0x0100\n      exp\n      swap1\n      div\n      0xff\n      and\n        /* \"multisignature/Multi.sol\":1632:1662  !transactions[_txId]._executed */\n      iszero\n        /* \"multisignature/Multi.sol\":1624:1683  require(!transactions[_txId]._executed, \"already executed\") */\n      tag_111\n      jumpi\n      mload(0x40)\n      0x08c379a000000000000000000000000000000000000000000000000000000000\n      dup2\n      mstore\n      0x04\n      add\n      tag_112\n      swap1\n      tag_113\n      jump\t// in\n    tag_112:\n      mload(0x40)\n      dup1\n      swap2\n      sub\n      swap1\n      revert\n    tag_111:\n        /* \"multisignature/Multi.sol\":3164:3169  _txId */\n      dup3\n        /* \"multisignature/Multi.sol\":1758:1788  _isApproved(_txId, msg.sender) */\n      tag_115\n        /* \"multisignature/Multi.sol\":1770:1775  _txId */\n      dup2\n        /* \"multisignature/Multi.sol\":1777:1787  msg.sender */\n      caller\n        /* \"multisignature/Multi.sol\":1758:1769  _isApproved */\n      tag_116\n        /* \"multisignature/Multi.sol\":1758:1788  _isApproved(_txId, msg.sender) */\n      jump\t// in\n    tag_115:\n        /* \"multisignature/Multi.sol\":1750:1812  require(_isApproved(_txId, msg.sender), \"tx not yet approved\") */\n      tag_117\n      jumpi\n      mload(0x40)\n      0x08c379a000000000000000000000000000000000000000000000000000000000\n      dup2\n      mstore\n      0x04\n      add\n      tag_118\n      swap1\n      tag_119\n      jump\t// in\n    tag_118:\n      mload(0x40)\n      dup1\n      swap2\n      sub\n      swap1\n      revert\n    tag_117:\n        /* \"multisignature/Multi.sol\":3215:3220  false */\n      0x00\n        /* \"multisignature/Multi.sol\":3185:3193  approved */\n      0x04\n        /* \"multisignature/Multi.sol\":3185:3200  approved[_txId] */\n      0x00\n        /* \"multisignature/Multi.sol\":3194:3199  _txId */\n      dup7\n        /* \"multisignature/Multi.sol\":3185:3200  approved[_txId] */\n      dup2\n      mstore\n      0x20\n      add\n      swap1\n      dup2\n      mstore\n      0x20\n      add\n      0x00\n      keccak256\n        /* \"multisignature/Multi.sol\":3185:3212  approved[_txId][msg.sender] */\n      0x00\n        /* \"multisignature/Multi.sol\":3201:3211  msg.sender */\n      caller\n        /* \"multisignature/Multi.sol\":3185:3212  approved[_txId][msg.sender] */\n      0xffffffffffffffffffffffffffffffffffffffff\n      and\n      0xffffffffffffffffffffffffffffffffffffffff\n      and\n      dup2\n      mstore\n      0x20\n      add\n      swap1\n      dup2\n      mstore\n      0x20\n      add\n      0x00\n      keccak256\n      0x00\n        /* \"multisignature/Multi.sol\":3185:3220  approved[_txId][msg.sender] = false */\n      0x0100\n      exp\n      dup2\n      sload\n      dup2\n      0xff\n      mul\n      not\n      and\n      swap1\n      dup4\n      iszero\n      iszero\n      mul\n      or\n      swap1\n      sstore\n      pop\n        /* \"multisignature/Multi.sol\":3255:3256  1 */\n      0x01\n        /* \"multisignature/Multi.sol\":3230:3244  approvalsCount */\n      0x03\n        /* \"multisignature/Multi.sol\":3230:3251  approvalsCount[_txId] */\n      0x00\n        /* \"multisignature/Multi.sol\":3245:3250  _txId */\n      dup7\n        /* \"multisignature/Multi.sol\":3230:3251  approvalsCount[_txId] */\n      dup2\n      mstore\n      0x20\n      add\n      swap1\n      dup2\n      mstore\n      0x20\n      add\n      0x00\n      keccak256\n      0x00\n        /* \"multisignature/Multi.sol\":3230:3256  approvalsCount[_txId] -= 1 */\n      dup3\n      dup3\n      sload\n      tag_121\n      swap2\n      swap1\n      tag_91\n      jump\t// in\n    tag_121:\n      swap3\n      pop\n      pop\n      dup2\n      swap1\n      sstore\n      pop\n        /* \"multisignature/Multi.sol\":3271:3296  Revoke(msg.sender, _txId) */\n      0xec9ab91322523c899ede7830ec9bfc992b5981cdcc27b91162fb23de5791117b\n        /* \"multisignature/Multi.sol\":3278:3288  msg.sender */\n      caller\n        /* \"multisignature/Multi.sol\":3290:3295  _txId */\n      dup6\n        /* \"multisignature/Multi.sol\":3271:3296  Revoke(msg.sender, _txId) */\n      mload(0x40)\n      tag_122\n      swap3\n      swap2\n      swap1\n      tag_83\n      jump\t// in\n    tag_122:\n      mload(0x40)\n      dup1\n      swap2\n      sub\n      swap1\n      log1\n        /* \"multisignature/Multi.sol\":1693:1694  _ */\n      pop\n        /* \"multisignature/Multi.sol\":1437:1438  _ */\n      pop\n        /* \"multisignature/Multi.sol\":645:646  _ */\n      pop\n        /* \"multisignature/Multi.sol\":3053:3303  function revoke(uint _txId) external... */\n      pop\n      jump\t// out\n        /* \"multisignature/Multi.sol\":120:159  mapping(address => bool) public isOwner */\n    tag_47:\n      mstore(0x20, 0x01)\n      dup1\n      0x00\n      mstore\n      keccak256(0x00, 0x40)\n      0x00\n      swap2\n      pop\n      sload\n      swap1\n      0x0100\n      exp\n      swap1\n      div\n      0xff\n      and\n      dup2\n      jump\t// out\n        /* \"multisignature/Multi.sol\":1047:1104  mapping(uint => mapping(address => bool)) public approved */\n    tag_54:\n      mstore(0x20, 0x04)\n      dup2\n      0x00\n      mstore\n      mstore(0x20, keccak256(0x00, 0x40))\n      dup1\n      0x00\n      mstore\n      keccak256(0x00, 0x40)\n      0x00\n      swap2\n      pop\n      swap2\n      pop\n      swap1\n      sload\n      swap1\n      0x0100\n      exp\n      swap1\n      div\n      0xff\n      and\n      dup2\n      jump\t// out\n        /* \"multisignature/Multi.sol\":761:800  uint public immutable requiredApprovals */\n    tag_58:\n      immutable(\"0x5ad0f966e4dd8863f27c0e6ee7d684c0c8f4319efed210fe15662a0d29bcd615\")\n      dup2\n      jump\t// out\n        /* \"multisignature/Multi.sol\":926:959  Transaction[] public transactions */\n    tag_64:\n      0x02\n      dup2\n      dup2\n      sload\n      dup2\n      lt\n      tag_123\n      jumpi\n      0x00\n      dup1\n      revert\n    tag_123:\n      swap1\n      0x00\n      mstore\n      keccak256(0x00, 0x20)\n      swap1\n      0x04\n      mul\n      add\n      0x00\n      swap2\n      pop\n      swap1\n      pop\n      dup1\n      0x00\n      add\n      0x00\n      swap1\n      sload\n      swap1\n      0x0100\n      exp\n      swap1\n      div\n      0xffffffffffffffffffffffffffffffffffffffff\n      and\n      swap1\n      dup1\n      0x01\n      add\n      sload\n      swap1\n      dup1\n      0x02\n      add\n      dup1\n      sload\n      tag_125\n      swap1\n      tag_126\n      jump\t// in\n    tag_125:\n      dup1\n      0x1f\n      add\n      0x20\n      dup1\n      swap2\n      div\n      mul\n      0x20\n      add\n      mload(0x40)\n      swap1\n      dup2\n      add\n      0x40\n      mstore\n      dup1\n      swap3\n      swap2\n      swap1\n      dup2\n      dup2\n      mstore\n      0x20\n      add\n      dup3\n      dup1\n      sload\n      tag_127\n      swap1\n      tag_126\n      jump\t// in\n    tag_127:\n      dup1\n      iszero\n      tag_128\n      jumpi\n      dup1\n      0x1f\n      lt\n      tag_129\n      jumpi\n      0x0100\n      dup1\n      dup4\n      sload\n      div\n      mul\n      dup4\n      mstore\n      swap2\n      0x20\n      add\n      swap2\n      jump(tag_128)\n    tag_129:\n      dup3\n      add\n      swap2\n      swap1\n      0x00\n      mstore\n      keccak256(0x00, 0x20)\n      swap1\n    tag_130:\n      dup2\n      sload\n      dup2\n      mstore\n      swap1\n      0x01\n      add\n      swap1\n      0x20\n      add\n      dup1\n      dup4\n      gt\n      tag_130\n      jumpi\n      dup3\n      swap1\n      sub\n      0x1f\n      and\n      dup3\n      add\n      swap2\n    tag_128:\n      pop\n      pop\n      pop\n      pop\n      pop\n      swap1\n      dup1\n      0x03\n      add\n      0x00\n      swap1\n      sload\n      swap1\n      0x0100\n      exp\n      swap1\n      div\n      0xff\n      and\n      swap1\n      pop\n      dup5\n      jump\t// out\n        /* \"multisignature/Multi.sol\":998:1041  mapping(uint => uint) public approvalsCount */\n    tag_70:\n      mstore(0x20, 0x03)\n      dup1\n      0x00\n      mstore\n      keccak256(0x00, 0x40)\n      0x00\n      swap2\n      pop\n      swap1\n      pop\n      sload\n      dup2\n      jump\t// out\n        /* \"multisignature/Multi.sol\":2800:3047  function approve(uint _txId) external... */\n    tag_75:\n        /* \"multisignature/Multi.sol\":599:606  isOwner */\n      0x01\n        /* \"multisignature/Multi.sol\":599:618  isOwner[msg.sender] */\n      0x00\n        /* \"multisignature/Multi.sol\":607:617  msg.sender */\n      caller\n        /* \"multisignature/Multi.sol\":599:618  isOwner[msg.sender] */\n      0xffffffffffffffffffffffffffffffffffffffff\n      and\n      0xffffffffffffffffffffffffffffffffffffffff\n      and\n      dup2\n      mstore\n      0x20\n      add\n      swap1\n      dup2\n      mstore\n      0x20\n      add\n      0x00\n      keccak256\n      0x00\n      swap1\n      sload\n      swap1\n      0x0100\n      exp\n      swap1\n      div\n      0xff\n      and\n        /* \"multisignature/Multi.sol\":591:635  require(isOwner[msg.sender], \"not an owner\") */\n      tag_132\n      jumpi\n      mload(0x40)\n      0x08c379a000000000000000000000000000000000000000000000000000000000\n      dup2\n      mstore\n      0x04\n      add\n      tag_133\n      swap1\n      tag_101\n      jump\t// in\n    tag_133:\n      mload(0x40)\n      dup1\n      swap2\n      sub\n      swap1\n      revert\n    tag_132:\n        /* \"multisignature/Multi.sol\":2866:2871  _txId */\n      dup1\n        /* \"multisignature/Multi.sol\":1386:1398  transactions */\n      0x02\n        /* \"multisignature/Multi.sol\":1386:1405  transactions.length */\n      dup1\n      sload\n      swap1\n      pop\n        /* \"multisignature/Multi.sol\":1378:1383  _txId */\n      dup2\n        /* \"multisignature/Multi.sol\":1378:1405  _txId < transactions.length */\n      lt\n        /* \"multisignature/Multi.sol\":1370:1427  require(_txId < transactions.length, \"tx does not exist\") */\n      tag_135\n      jumpi\n      mload(0x40)\n      0x08c379a000000000000000000000000000000000000000000000000000000000\n      dup2\n      mstore\n      0x04\n      add\n      tag_136\n      swap1\n      tag_105\n      jump\t// in\n    tag_136:\n      mload(0x40)\n      dup1\n      swap2\n      sub\n      swap1\n      revert\n    tag_135:\n        /* \"multisignature/Multi.sol\":2889:2894  _txId */\n      dup2\n        /* \"multisignature/Multi.sol\":1503:1533  _isApproved(_txId, msg.sender) */\n      tag_138\n        /* \"multisignature/Multi.sol\":1515:1520  _txId */\n      dup2\n        /* \"multisignature/Multi.sol\":1522:1532  msg.sender */\n      caller\n        /* \"multisignature/Multi.sol\":1503:1514  _isApproved */\n      tag_116\n        /* \"multisignature/Multi.sol\":1503:1533  _isApproved(_txId, msg.sender) */\n      jump\t// in\n    tag_138:\n        /* \"multisignature/Multi.sol\":1502:1533  !_isApproved(_txId, msg.sender) */\n      iszero\n        /* \"multisignature/Multi.sol\":1494:1557  require(!_isApproved(_txId, msg.sender), \"tx already approved\") */\n      tag_139\n      jumpi\n      mload(0x40)\n      0x08c379a000000000000000000000000000000000000000000000000000000000\n      dup2\n      mstore\n      0x04\n      add\n      tag_140\n      swap1\n      tag_141\n      jump\t// in\n    tag_140:\n      mload(0x40)\n      dup1\n      swap2\n      sub\n      swap1\n      revert\n    tag_139:\n        /* \"multisignature/Multi.sol\":2912:2917  _txId */\n      dup3\n        /* \"multisignature/Multi.sol\":1633:1645  transactions */\n      0x02\n        /* \"multisignature/Multi.sol\":1646:1651  _txId */\n      dup2\n        /* \"multisignature/Multi.sol\":1633:1652  transactions[_txId] */\n      dup2\n      sload\n      dup2\n      lt\n      tag_143\n      jumpi\n      tag_144\n      tag_109\n      jump\t// in\n    tag_144:\n    tag_143:\n      swap1\n      0x00\n      mstore\n      keccak256(0x00, 0x20)\n      swap1\n      0x04\n      mul\n      add\n        /* \"multisignature/Multi.sol\":1633:1662  transactions[_txId]._executed */\n      0x03\n      add\n      0x00\n      swap1\n      sload\n      swap1\n      0x0100\n      exp\n      swap1\n      div\n      0xff\n      and\n        /* \"multisignature/Multi.sol\":1632:1662  !transactions[_txId]._executed */\n      iszero\n        /* \"multisignature/Multi.sol\":1624:1683  require(!transactions[_txId]._executed, \"already executed\") */\n      tag_146\n      jumpi\n      mload(0x40)\n      0x08c379a000000000000000000000000000000000000000000000000000000000\n      dup2\n      mstore\n      0x04\n      add\n      tag_147\n      swap1\n      tag_113\n      jump\t// in\n    tag_147:\n      mload(0x40)\n      dup1\n      swap2\n      sub\n      swap1\n      revert\n    tag_146:\n        /* \"multisignature/Multi.sol\":2959:2963  true */\n      0x01\n        /* \"multisignature/Multi.sol\":2929:2937  approved */\n      0x04\n        /* \"multisignature/Multi.sol\":2929:2944  approved[_txId] */\n      0x00\n        /* \"multisignature/Multi.sol\":2938:2943  _txId */\n      dup7\n        /* \"multisignature/Multi.sol\":2929:2944  approved[_txId] */\n      dup2\n      mstore\n      0x20\n      add\n      swap1\n      dup2\n      mstore\n      0x20\n      add\n      0x00\n      keccak256\n        /* \"multisignature/Multi.sol\":2929:2956  approved[_txId][msg.sender] */\n      0x00\n        /* \"multisignature/Multi.sol\":2945:2955  msg.sender */\n      caller\n        /* \"multisignature/Multi.sol\":2929:2956  approved[_txId][msg.sender] */\n      0xffffffffffffffffffffffffffffffffffffffff\n      and\n      0xffffffffffffffffffffffffffffffffffffffff\n      and\n      dup2\n      mstore\n      0x20\n      add\n      swap1\n      dup2\n      mstore\n      0x20\n      add\n      0x00\n      keccak256\n      0x00\n        /* \"multisignature/Multi.sol\":2929:2963  approved[_txId][msg.sender] = true */\n      0x0100\n      exp\n      dup2\n      sload\n      dup2\n      0xff\n      mul\n      not\n      and\n      swap1\n      dup4\n      iszero\n      iszero\n      mul\n      or\n      swap1\n      sstore\n      pop\n        /* \"multisignature/Multi.sol\":2998:2999  1 */\n      0x01\n        /* \"multisignature/Multi.sol\":2973:2987  approvalsCount */\n      0x03\n        /* \"multisignature/Multi.sol\":2973:2994  approvalsCount[_txId] */\n      0x00\n        /* \"multisignature/Multi.sol\":2988:2993  _txId */\n      dup7\n        /* \"multisignature/Multi.sol\":2973:2994  approvalsCount[_txId] */\n      dup2\n      mstore\n      0x20\n      add\n      swap1\n      dup2\n      mstore\n      0x20\n      add\n      0x00\n      keccak256\n      0x00\n        /* \"multisignature/Multi.sol\":2973:2999  approvalsCount[_txId] += 1 */\n      dup3\n      dup3\n      sload\n      tag_149\n      swap2\n      swap1\n      tag_150\n      jump\t// in\n    tag_149:\n      swap3\n      pop\n      pop\n      dup2\n      swap1\n      sstore\n      pop\n        /* \"multisignature/Multi.sol\":3014:3040  Approve(msg.sender, _txId) */\n      0x90ec57f18fa7b15c6b8d5e4d1deb90796c74b2ff23d4d0cecad0cb42a96b3128\n        /* \"multisignature/Multi.sol\":3022:3032  msg.sender */\n      caller\n        /* \"multisignature/Multi.sol\":3034:3039  _txId */\n      dup6\n        /* \"multisignature/Multi.sol\":3014:3040  Approve(msg.sender, _txId) */\n      mload(0x40)\n      tag_151\n      swap3\n      swap2\n      swap1\n      tag_83\n      jump\t// in\n    tag_151:\n      mload(0x40)\n      dup1\n      swap2\n      sub\n      swap1\n      log1\n        /* \"multisignature/Multi.sol\":1567:1568  _ */\n      pop\n        /* \"multisignature/Multi.sol\":1437:1438  _ */\n      pop\n        /* \"multisignature/Multi.sol\":645:646  _ */\n      pop\n        /* \"multisignature/Multi.sol\":2800:3047  function approve(uint _txId) external... */\n      pop\n      jump\t// out\n        /* \"multisignature/Multi.sol\":3644:3995  function execute(uint _txId) external ... */\n    tag_80:\n        /* \"multisignature/Multi.sol\":3696:3701  _txId */\n      dup1\n        /* \"multisignature/Multi.sol\":1386:1398  transactions */\n      0x02\n        /* \"multisignature/Multi.sol\":1386:1405  transactions.length */\n      dup1\n      sload\n      swap1\n      pop\n        /* \"multisignature/Multi.sol\":1378:1383  _txId */\n      dup2\n        /* \"multisignature/Multi.sol\":1378:1405  _txId < transactions.length */\n      lt\n        /* \"multisignature/Multi.sol\":1370:1427  require(_txId < transactions.length, \"tx does not exist\") */\n      tag_153\n      jumpi\n      mload(0x40)\n      0x08c379a000000000000000000000000000000000000000000000000000000000\n      dup2\n      mstore\n      0x04\n      add\n      tag_154\n      swap1\n      tag_105\n      jump\t// in\n    tag_154:\n      mload(0x40)\n      dup1\n      swap2\n      sub\n      swap1\n      revert\n    tag_153:\n        /* \"multisignature/Multi.sol\":3719:3724  _txId */\n      dup2\n        /* \"multisignature/Multi.sol\":1633:1645  transactions */\n      0x02\n        /* \"multisignature/Multi.sol\":1646:1651  _txId */\n      dup2\n        /* \"multisignature/Multi.sol\":1633:1652  transactions[_txId] */\n      dup2\n      sload\n      dup2\n      lt\n      tag_156\n      jumpi\n      tag_157\n      tag_109\n      jump\t// in\n    tag_157:\n    tag_156:\n      swap1\n      0x00\n      mstore\n      keccak256(0x00, 0x20)\n      swap1\n      0x04\n      mul\n      add\n        /* \"multisignature/Multi.sol\":1633:1662  transactions[_txId]._executed */\n      0x03\n      add\n      0x00\n      swap1\n      sload\n      swap1\n      0x0100\n      exp\n      swap1\n      div\n      0xff\n      and\n        /* \"multisignature/Multi.sol\":1632:1662  !transactions[_txId]._executed */\n      iszero\n        /* \"multisignature/Multi.sol\":1624:1683  require(!transactions[_txId]._executed, \"already executed\") */\n      tag_159\n      jumpi\n      mload(0x40)\n      0x08c379a000000000000000000000000000000000000000000000000000000000\n      dup2\n      mstore\n      0x04\n      add\n      tag_160\n      swap1\n      tag_113\n      jump\t// in\n    tag_160:\n      mload(0x40)\n      dup1\n      swap2\n      sub\n      swap1\n      revert\n    tag_159:\n        /* \"multisignature/Multi.sol\":3746:3751  _txId */\n      dup3\n        /* \"multisignature/Multi.sol\":1916:1933  requiredApprovals */\n      immutable(\"0x5ad0f966e4dd8863f27c0e6ee7d684c0c8f4319efed210fe15662a0d29bcd615\")\n        /* \"multisignature/Multi.sol\":1891:1905  approvalsCount */\n      0x03\n        /* \"multisignature/Multi.sol\":1891:1912  approvalsCount[_txId] */\n      0x00\n        /* \"multisignature/Multi.sol\":1906:1911  _txId */\n      dup4\n        /* \"multisignature/Multi.sol\":1891:1912  approvalsCount[_txId] */\n      dup2\n      mstore\n      0x20\n      add\n      swap1\n      dup2\n      mstore\n      0x20\n      add\n      0x00\n      keccak256\n      sload\n        /* \"multisignature/Multi.sol\":1891:1933  approvalsCount[_txId] >= requiredApprovals */\n      lt\n      iszero\n        /* \"multisignature/Multi.sol\":1883:1958  require(approvalsCount[_txId] >= requiredApprovals, \"not enough approvals\") */\n      tag_162\n      jumpi\n      mload(0x40)\n      0x08c379a000000000000000000000000000000000000000000000000000000000\n      dup2\n      mstore\n      0x04\n      add\n      tag_163\n      swap1\n      tag_164\n      jump\t// in\n    tag_163:\n      mload(0x40)\n      dup1\n      swap2\n      sub\n      swap1\n      revert\n    tag_162:\n        /* \"multisignature/Multi.sol\":3767:3791  Transaction storage myTx */\n      0x00\n        /* \"multisignature/Multi.sol\":3794:3806  transactions */\n      0x02\n        /* \"multisignature/Multi.sol\":3807:3812  _txId */\n      dup6\n        /* \"multisignature/Multi.sol\":3794:3813  transactions[_txId] */\n      dup2\n      sload\n      dup2\n      lt\n      tag_166\n      jumpi\n      tag_167\n      tag_109\n      jump\t// in\n    tag_167:\n    tag_166:\n      swap1\n      0x00\n      mstore\n      keccak256(0x00, 0x20)\n      swap1\n      0x04\n      mul\n      add\n        /* \"multisignature/Multi.sol\":3767:3813  Transaction storage myTx = transactions[_txId] */\n      swap1\n      pop\n        /* \"multisignature/Multi.sol\":3825:3837  bool success */\n      0x00\n        /* \"multisignature/Multi.sol\":3842:3846  myTx */\n      dup2\n        /* \"multisignature/Multi.sol\":3842:3850  myTx._to */\n      0x00\n      add\n      0x00\n      swap1\n      sload\n      swap1\n      0x0100\n      exp\n      swap1\n      div\n      0xffffffffffffffffffffffffffffffffffffffff\n      and\n        /* \"multisignature/Multi.sol\":3842:3855  myTx._to.call */\n      0xffffffffffffffffffffffffffffffffffffffff\n      and\n        /* \"multisignature/Multi.sol\":3863:3867  myTx */\n      dup3\n        /* \"multisignature/Multi.sol\":3863:3874  myTx._value */\n      0x01\n      add\n      sload\n        /* \"multisignature/Multi.sol\":3876:3880  myTx */\n      dup4\n        /* \"multisignature/Multi.sol\":3876:3886  myTx._data */\n      0x02\n      add\n        /* \"multisignature/Multi.sol\":3842:3887  myTx._to.call{value: myTx._value}(myTx._data) */\n      mload(0x40)\n      tag_169\n      swap2\n      swap1\n      tag_170\n      jump\t// in\n    tag_169:\n      0x00\n      mload(0x40)\n      dup1\n      dup4\n      sub\n      dup2\n      dup6\n      dup8\n      gas\n      call\n      swap3\n      pop\n      pop\n      pop\n      returndatasize\n      dup1\n      0x00\n      dup2\n      eq\n      tag_173\n      jumpi\n      mload(0x40)\n      swap2\n      pop\n      and(add(returndatasize, 0x3f), not(0x1f))\n      dup3\n      add\n      0x40\n      mstore\n      returndatasize\n      dup3\n      mstore\n      returndatasize\n      0x00\n      0x20\n      dup5\n      add\n      returndatacopy\n      jump(tag_172)\n    tag_173:\n      0x60\n      swap2\n      pop\n    tag_172:\n      pop\n        /* \"multisignature/Multi.sol\":3824:3887  (bool success,) = myTx._to.call{value: myTx._value}(myTx._data) */\n      pop\n      swap1\n      pop\n        /* \"multisignature/Multi.sol\":3905:3912  success */\n      dup1\n        /* \"multisignature/Multi.sol\":3897:3926  require(success, \"tx failed\") */\n      tag_174\n      jumpi\n      mload(0x40)\n      0x08c379a000000000000000000000000000000000000000000000000000000000\n      dup2\n      mstore\n      0x04\n      add\n      tag_175\n      swap1\n      tag_176\n      jump\t// in\n    tag_175:\n      mload(0x40)\n      dup1\n      swap2\n      sub\n      swap1\n      revert\n    tag_174:\n        /* \"multisignature/Multi.sol\":3954:3958  true */\n      0x01\n        /* \"multisignature/Multi.sol\":3937:3941  myTx */\n      dup3\n        /* \"multisignature/Multi.sol\":3937:3951  myTx._executed */\n      0x03\n      add\n      0x00\n        /* \"multisignature/Multi.sol\":3937:3958  myTx._executed = true */\n      0x0100\n      exp\n      dup2\n      sload\n      dup2\n      0xff\n      mul\n      not\n      and\n      swap1\n      dup4\n      iszero\n      iszero\n      mul\n      or\n      swap1\n      sstore\n      pop\n        /* \"multisignature/Multi.sol\":3973:3988  Executed(_txId) */\n      0xbcf6a68a2f901be4a23a41b53acd7697893a7e34def4e28acba584da75283b67\n        /* \"multisignature/Multi.sol\":3982:3987  _txId */\n      dup7\n        /* \"multisignature/Multi.sol\":3973:3988  Executed(_txId) */\n      mload(0x40)\n      tag_177\n      swap2\n      swap1\n      tag_60\n      jump\t// in\n    tag_177:\n      mload(0x40)\n      dup1\n      swap2\n      sub\n      swap1\n      log1\n        /* \"multisignature/Multi.sol\":3757:3995  {... */\n      pop\n      pop\n        /* \"multisignature/Multi.sol\":1693:1694  _ */\n      pop\n        /* \"multisignature/Multi.sol\":1437:1438  _ */\n      pop\n        /* \"multisignature/Multi.sol\":3644:3995  function execute(uint _txId) external ... */\n      pop\n      pop\n      jump\t// out\n        /* \"multisignature/Multi.sol\":1982:2103  function _isApproved(uint _txId, address _addr) private view returns(bool) {... */\n    tag_116:\n        /* \"multisignature/Multi.sol\":2051:2055  bool */\n      0x00\n        /* \"multisignature/Multi.sol\":2074:2082  approved */\n      0x04\n        /* \"multisignature/Multi.sol\":2074:2089  approved[_txId] */\n      0x00\n        /* \"multisignature/Multi.sol\":2083:2088  _txId */\n      dup5\n        /* \"multisignature/Multi.sol\":2074:2089  approved[_txId] */\n      dup2\n      mstore\n      0x20\n      add\n      swap1\n      dup2\n      mstore\n      0x20\n      add\n      0x00\n      keccak256\n        /* \"multisignature/Multi.sol\":2074:2096  approved[_txId][_addr] */\n      0x00\n        /* \"multisignature/Multi.sol\":2090:2095  _addr */\n      dup4\n        /* \"multisignature/Multi.sol\":2074:2096  approved[_txId][_addr] */\n      0xffffffffffffffffffffffffffffffffffffffff\n      and\n      0xffffffffffffffffffffffffffffffffffffffff\n      and\n      dup2\n      mstore\n      0x20\n      add\n      swap1\n      dup2\n      mstore\n      0x20\n      add\n      0x00\n      keccak256\n      0x00\n      swap1\n      sload\n      swap1\n      0x0100\n      exp\n      swap1\n      div\n      0xff\n      and\n        /* \"multisignature/Multi.sol\":2067:2096  return approved[_txId][_addr] */\n      swap1\n      pop\n        /* \"multisignature/Multi.sol\":1982:2103  function _isApproved(uint _txId, address _addr) private view returns(bool) {... */\n      swap3\n      swap2\n      pop\n      pop\n      jump\t// out\n        /* \"#utility.yul\":7:82   */\n    tag_179:\n        /* \"#utility.yul\":40:46   */\n      0x00\n        /* \"#utility.yul\":73:75   */\n      0x40\n        /* \"#utility.yul\":67:76   */\n      mload\n        /* \"#utility.yul\":57:76   */\n      swap1\n      pop\n        /* \"#utility.yul\":7:82   */\n      swap1\n      jump\t// out\n        /* \"#utility.yul\":88:205   */\n    tag_180:\n        /* \"#utility.yul\":197:198   */\n      0x00\n        /* \"#utility.yul\":194:195   */\n      dup1\n        /* \"#utility.yul\":187:199   */\n      revert\n        /* \"#utility.yul\":211:328   */\n    tag_181:\n        /* \"#utility.yul\":320:321   */\n      0x00\n        /* \"#utility.yul\":317:318   */\n      dup1\n        /* \"#utility.yul\":310:322   */\n      revert\n        /* \"#utility.yul\":334:411   */\n    tag_182:\n        /* \"#utility.yul\":371:378   */\n      0x00\n        /* \"#utility.yul\":400:405   */\n      dup2\n        /* \"#utility.yul\":389:405   */\n      swap1\n      pop\n        /* \"#utility.yul\":334:411   */\n      swap2\n      swap1\n      pop\n      jump\t// out\n        /* \"#utility.yul\":417:539   */\n    tag_183:\n        /* \"#utility.yul\":490:514   */\n      tag_254\n        /* \"#utility.yul\":508:513   */\n      dup2\n        /* \"#utility.yul\":490:514   */\n      tag_182\n      jump\t// in\n    tag_254:\n        /* \"#utility.yul\":483:488   */\n      dup2\n        /* \"#utility.yul\":480:515   */\n      eq\n        /* \"#utility.yul\":470:533   */\n      tag_255\n      jumpi\n        /* \"#utility.yul\":529:530   */\n      0x00\n        /* \"#utility.yul\":526:527   */\n      dup1\n        /* \"#utility.yul\":519:531   */\n      revert\n        /* \"#utility.yul\":470:533   */\n    tag_255:\n        /* \"#utility.yul\":417:539   */\n      pop\n      jump\t// out\n        /* \"#utility.yul\":545:684   */\n    tag_184:\n        /* \"#utility.yul\":591:596   */\n      0x00\n        /* \"#utility.yul\":629:635   */\n      dup2\n        /* \"#utility.yul\":616:636   */\n      calldataload\n        /* \"#utility.yul\":607:636   */\n      swap1\n      pop\n        /* \"#utility.yul\":645:678   */\n      tag_257\n        /* \"#utility.yul\":672:677   */\n      dup2\n        /* \"#utility.yul\":645:678   */\n      tag_183\n      jump\t// in\n    tag_257:\n        /* \"#utility.yul\":545:684   */\n      swap3\n      swap2\n      pop\n      pop\n      jump\t// out\n        /* \"#utility.yul\":690:1019   */\n    tag_23:\n        /* \"#utility.yul\":749:755   */\n      0x00\n        /* \"#utility.yul\":798:800   */\n      0x20\n        /* \"#utility.yul\":786:795   */\n      dup3\n        /* \"#utility.yul\":777:784   */\n      dup5\n        /* \"#utility.yul\":773:796   */\n      sub\n        /* \"#utility.yul\":769:801   */\n      slt\n        /* \"#utility.yul\":766:885   */\n      iszero\n      tag_259\n      jumpi\n        /* \"#utility.yul\":804:883   */\n      tag_260\n      tag_180\n      jump\t// in\n    tag_260:\n        /* \"#utility.yul\":766:885   */\n    tag_259:\n        /* \"#utility.yul\":924:925   */\n      0x00\n        /* \"#utility.yul\":949:1002   */\n      tag_261\n        /* \"#utility.yul\":994:1001   */\n      dup5\n        /* \"#utility.yul\":985:991   */\n      dup3\n        /* \"#utility.yul\":974:983   */\n      dup6\n        /* \"#utility.yul\":970:992   */\n      add\n        /* \"#utility.yul\":949:1002   */\n      tag_184\n      jump\t// in\n    tag_261:\n        /* \"#utility.yul\":939:1002   */\n      swap2\n      pop\n        /* \"#utility.yul\":895:1012   */\n      pop\n        /* \"#utility.yul\":690:1019   */\n      swap3\n      swap2\n      pop\n      pop\n      jump\t// out\n        /* \"#utility.yul\":1025:1151   */\n    tag_185:\n        /* \"#utility.yul\":1062:1069   */\n      0x00\n        /* \"#utility.yul\":1102:1144   */\n      0xffffffffffffffffffffffffffffffffffffffff\n        /* \"#utility.yul\":1095:1100   */\n      dup3\n        /* \"#utility.yul\":1091:1145   */\n      and\n        /* \"#utility.yul\":1080:1145   */\n      swap1\n      pop\n        /* \"#utility.yul\":1025:1151   */\n      swap2\n      swap1\n      pop\n      jump\t// out\n        /* \"#utility.yul\":1157:1253   */\n    tag_186:\n        /* \"#utility.yul\":1194:1201   */\n      0x00\n        /* \"#utility.yul\":1223:1247   */\n      tag_264\n        /* \"#utility.yul\":1241:1246   */\n      dup3\n        /* \"#utility.yul\":1223:1247   */\n      tag_185\n      jump\t// in\n    tag_264:\n        /* \"#utility.yul\":1212:1247   */\n      swap1\n      pop\n        /* \"#utility.yul\":1157:1253   */\n      swap2\n      swap1\n      pop\n      jump\t// out\n        /* \"#utility.yul\":1259:1377   */\n    tag_187:\n        /* \"#utility.yul\":1346:1370   */\n      tag_266\n        /* \"#utility.yul\":1364:1369   */\n      dup2\n        /* \"#utility.yul\":1346:1370   */\n      tag_186\n      jump\t// in\n    tag_266:\n        /* \"#utility.yul\":1341:1344   */\n      dup3\n        /* \"#utility.yul\":1334:1371   */\n      mstore\n        /* \"#utility.yul\":1259:1377   */\n      pop\n      pop\n      jump\t// out\n        /* \"#utility.yul\":1383:1605   */\n    tag_26:\n        /* \"#utility.yul\":1476:1480   */\n      0x00\n        /* \"#utility.yul\":1514:1516   */\n      0x20\n        /* \"#utility.yul\":1503:1512   */\n      dup3\n        /* \"#utility.yul\":1499:1517   */\n      add\n        /* \"#utility.yul\":1491:1517   */\n      swap1\n      pop\n        /* \"#utility.yul\":1527:1598   */\n      tag_268\n        /* \"#utility.yul\":1595:1596   */\n      0x00\n        /* \"#utility.yul\":1584:1593   */\n      dup4\n        /* \"#utility.yul\":1580:1597   */\n      add\n        /* \"#utility.yul\":1571:1577   */\n      dup5\n        /* \"#utility.yul\":1527:1598   */\n      tag_187\n      jump\t// in\n    tag_268:\n        /* \"#utility.yul\":1383:1605   */\n      swap3\n      swap2\n      pop\n      pop\n      jump\t// out\n        /* \"#utility.yul\":1611:1733   */\n    tag_188:\n        /* \"#utility.yul\":1684:1708   */\n      tag_270\n        /* \"#utility.yul\":1702:1707   */\n      dup2\n        /* \"#utility.yul\":1684:1708   */\n      tag_186\n      jump\t// in\n    tag_270:\n        /* \"#utility.yul\":1677:1682   */\n      dup2\n        /* \"#utility.yul\":1674:1709   */\n      eq\n        /* \"#utility.yul\":1664:1727   */\n      tag_271\n      jumpi\n        /* \"#utility.yul\":1723:1724   */\n      0x00\n        /* \"#utility.yul\":1720:1721   */\n      dup1\n        /* \"#utility.yul\":1713:1725   */\n      revert\n        /* \"#utility.yul\":1664:1727   */\n    tag_271:\n        /* \"#utility.yul\":1611:1733   */\n      pop\n      jump\t// out\n        /* \"#utility.yul\":1739:1878   */\n    tag_189:\n        /* \"#utility.yul\":1785:1790   */\n      0x00\n        /* \"#utility.yul\":1823:1829   */\n      dup2\n        /* \"#utility.yul\":1810:1830   */\n      calldataload\n        /* \"#utility.yul\":1801:1830   */\n      swap1\n      pop\n        /* \"#utility.yul\":1839:1872   */\n      tag_273\n        /* \"#utility.yul\":1866:1871   */\n      dup2\n        /* \"#utility.yul\":1839:1872   */\n      tag_188\n      jump\t// in\n    tag_273:\n        /* \"#utility.yul\":1739:1878   */\n      swap3\n      swap2\n      pop\n      pop\n      jump\t// out\n        /* \"#utility.yul\":1884:2001   */\n    tag_190:\n        /* \"#utility.yul\":1993:1994   */\n      0x00\n        /* \"#utility.yul\":1990:1991   */\n      dup1\n        /* \"#utility.yul\":1983:1995   */\n      revert\n        /* \"#utility.yul\":2007:2124   */\n    tag_191:\n        /* \"#utility.yul\":2116:2117   */\n      0x00\n        /* \"#utility.yul\":2113:2114   */\n      dup1\n        /* \"#utility.yul\":2106:2118   */\n      revert\n        /* \"#utility.yul\":2130:2247   */\n    tag_192:\n        /* \"#utility.yul\":2239:2240   */\n      0x00\n        /* \"#utility.yul\":2236:2237   */\n      dup1\n        /* \"#utility.yul\":2229:2241   */\n      revert\n        /* \"#utility.yul\":2266:2818   */\n    tag_193:\n        /* \"#utility.yul\":2323:2331   */\n      0x00\n        /* \"#utility.yul\":2333:2339   */\n      dup1\n        /* \"#utility.yul\":2383:2386   */\n      dup4\n        /* \"#utility.yul\":2376:2380   */\n      0x1f\n        /* \"#utility.yul\":2368:2374   */\n      dup5\n        /* \"#utility.yul\":2364:2381   */\n      add\n        /* \"#utility.yul\":2360:2387   */\n      slt\n        /* \"#utility.yul\":2350:2472   */\n      tag_278\n      jumpi\n        /* \"#utility.yul\":2391:2470   */\n      tag_279\n      tag_190\n      jump\t// in\n    tag_279:\n        /* \"#utility.yul\":2350:2472   */\n    tag_278:\n        /* \"#utility.yul\":2504:2510   */\n      dup3\n        /* \"#utility.yul\":2491:2511   */\n      calldataload\n        /* \"#utility.yul\":2481:2511   */\n      swap1\n      pop\n        /* \"#utility.yul\":2534:2552   */\n      0xffffffffffffffff\n        /* \"#utility.yul\":2526:2532   */\n      dup2\n        /* \"#utility.yul\":2523:2553   */\n      gt\n        /* \"#utility.yul\":2520:2637   */\n      iszero\n      tag_280\n      jumpi\n        /* \"#utility.yul\":2556:2635   */\n      tag_281\n      tag_191\n      jump\t// in\n    tag_281:\n        /* \"#utility.yul\":2520:2637   */\n    tag_280:\n        /* \"#utility.yul\":2670:2674   */\n      0x20\n        /* \"#utility.yul\":2662:2668   */\n      dup4\n        /* \"#utility.yul\":2658:2675   */\n      add\n        /* \"#utility.yul\":2646:2675   */\n      swap2\n      pop\n        /* \"#utility.yul\":2724:2727   */\n      dup4\n        /* \"#utility.yul\":2716:2720   */\n      0x01\n        /* \"#utility.yul\":2708:2714   */\n      dup3\n        /* \"#utility.yul\":2704:2721   */\n      mul\n        /* \"#utility.yul\":2694:2702   */\n      dup4\n        /* \"#utility.yul\":2690:2722   */\n      add\n        /* \"#utility.yul\":2687:2728   */\n      gt\n        /* \"#utility.yul\":2684:2812   */\n      iszero\n      tag_282\n      jumpi\n        /* \"#utility.yul\":2731:2810   */\n      tag_283\n      tag_192\n      jump\t// in\n    tag_283:\n        /* \"#utility.yul\":2684:2812   */\n    tag_282:\n        /* \"#utility.yul\":2266:2818   */\n      swap3\n      pop\n      swap3\n      swap1\n      pop\n      jump\t// out\n        /* \"#utility.yul\":2824:3641   */\n    tag_30:\n        /* \"#utility.yul\":2912:2918   */\n      0x00\n        /* \"#utility.yul\":2920:2926   */\n      dup1\n        /* \"#utility.yul\":2928:2934   */\n      0x00\n        /* \"#utility.yul\":2936:2942   */\n      dup1\n        /* \"#utility.yul\":2985:2987   */\n      0x60\n        /* \"#utility.yul\":2973:2982   */\n      dup6\n        /* \"#utility.yul\":2964:2971   */\n      dup8\n        /* \"#utility.yul\":2960:2983   */\n      sub\n        /* \"#utility.yul\":2956:2988   */\n      slt\n        /* \"#utility.yul\":2953:3072   */\n      iszero\n      tag_285\n      jumpi\n        /* \"#utility.yul\":2991:3070   */\n      tag_286\n      tag_180\n      jump\t// in\n    tag_286:\n        /* \"#utility.yul\":2953:3072   */\n    tag_285:\n        /* \"#utility.yul\":3111:3112   */\n      0x00\n        /* \"#utility.yul\":3136:3189   */\n      tag_287\n        /* \"#utility.yul\":3181:3188   */\n      dup8\n        /* \"#utility.yul\":3172:3178   */\n      dup3\n        /* \"#utility.yul\":3161:3170   */\n      dup9\n        /* \"#utility.yul\":3157:3179   */\n      add\n        /* \"#utility.yul\":3136:3189   */\n      tag_189\n      jump\t// in\n    tag_287:\n        /* \"#utility.yul\":3126:3189   */\n      swap5\n      pop\n        /* \"#utility.yul\":3082:3199   */\n      pop\n        /* \"#utility.yul\":3238:3240   */\n      0x20\n        /* \"#utility.yul\":3264:3317   */\n      tag_288\n        /* \"#utility.yul\":3309:3316   */\n      dup8\n        /* \"#utility.yul\":3300:3306   */\n      dup3\n        /* \"#utility.yul\":3289:3298   */\n      dup9\n        /* \"#utility.yul\":3285:3307   */\n      add\n        /* \"#utility.yul\":3264:3317   */\n      tag_184\n      jump\t// in\n    tag_288:\n        /* \"#utility.yul\":3254:3317   */\n      swap4\n      pop\n        /* \"#utility.yul\":3209:3327   */\n      pop\n        /* \"#utility.yul\":3394:3396   */\n      0x40\n        /* \"#utility.yul\":3383:3392   */\n      dup6\n        /* \"#utility.yul\":3379:3397   */\n      add\n        /* \"#utility.yul\":3366:3398   */\n      calldataload\n        /* \"#utility.yul\":3425:3443   */\n      0xffffffffffffffff\n        /* \"#utility.yul\":3417:3423   */\n      dup2\n        /* \"#utility.yul\":3414:3444   */\n      gt\n        /* \"#utility.yul\":3411:3528   */\n      iszero\n      tag_289\n      jumpi\n        /* \"#utility.yul\":3447:3526   */\n      tag_290\n      tag_181\n      jump\t// in\n    tag_290:\n        /* \"#utility.yul\":3411:3528   */\n    tag_289:\n        /* \"#utility.yul\":3560:3624   */\n      tag_291\n        /* \"#utility.yul\":3616:3623   */\n      dup8\n        /* \"#utility.yul\":3607:3613   */\n      dup3\n        /* \"#utility.yul\":3596:3605   */\n      dup9\n        /* \"#utility.yul\":3592:3614   */\n      add\n        /* \"#utility.yul\":3560:3624   */\n      tag_193\n      jump\t// in\n    tag_291:\n        /* \"#utility.yul\":3542:3624   */\n      swap3\n      pop\n      swap3\n      pop\n        /* \"#utility.yul\":3337:3634   */\n      pop\n        /* \"#utility.yul\":2824:3641   */\n      swap3\n      swap6\n      swap2\n      swap5\n      pop\n      swap3\n      pop\n      jump\t// out\n        /* \"#utility.yul\":3647:3764   */\n    tag_194:\n        /* \"#utility.yul\":3756:3757   */\n      0x00\n        /* \"#utility.yul\":3753:3754   */\n      dup1\n        /* \"#utility.yul\":3746:3758   */\n      revert\n        /* \"#utility.yul\":3770:3872   */\n    tag_195:\n        /* \"#utility.yul\":3811:3817   */\n      0x00\n        /* \"#utility.yul\":3862:3864   */\n      0x1f\n        /* \"#utility.yul\":3858:3865   */\n      not\n        /* \"#utility.yul\":3853:3855   */\n      0x1f\n        /* \"#utility.yul\":3846:3851   */\n      dup4\n        /* \"#utility.yul\":3842:3856   */\n      add\n        /* \"#utility.yul\":3838:3866   */\n      and\n        /* \"#utility.yul\":3828:3866   */\n      swap1\n      pop\n        /* \"#utility.yul\":3770:3872   */\n      swap2\n      swap1\n      pop\n      jump\t// out\n        /* \"#utility.yul\":3878:4058   */\n    tag_196:\n        /* \"#utility.yul\":3926:4003   */\n      0x4e487b7100000000000000000000000000000000000000000000000000000000\n        /* \"#utility.yul\":3923:3924   */\n      0x00\n        /* \"#utility.yul\":3916:4004   */\n      mstore\n        /* \"#utility.yul\":4023:4027   */\n      0x41\n        /* \"#utility.yul\":4020:4021   */\n      0x04\n        /* \"#utility.yul\":4013:4028   */\n      mstore\n        /* \"#utility.yul\":4047:4051   */\n      0x24\n        /* \"#utility.yul\":4044:4045   */\n      0x00\n        /* \"#utility.yul\":4037:4052   */\n      revert\n        /* \"#utility.yul\":4064:4345   */\n    tag_197:\n        /* \"#utility.yul\":4147:4174   */\n      tag_296\n        /* \"#utility.yul\":4169:4173   */\n      dup3\n        /* \"#utility.yul\":4147:4174   */\n      tag_195\n      jump\t// in\n    tag_296:\n        /* \"#utility.yul\":4139:4145   */\n      dup2\n        /* \"#utility.yul\":4135:4175   */\n      add\n        /* \"#utility.yul\":4277:4283   */\n      dup2\n        /* \"#utility.yul\":4265:4275   */\n      dup2\n        /* \"#utility.yul\":4262:4284   */\n      lt\n        /* \"#utility.yul\":4241:4259   */\n      0xffffffffffffffff\n        /* \"#utility.yul\":4229:4239   */\n      dup3\n        /* \"#utility.yul\":4226:4260   */\n      gt\n        /* \"#utility.yul\":4223:4285   */\n      or\n        /* \"#utility.yul\":4220:4308   */\n      iszero\n      tag_297\n      jumpi\n        /* \"#utility.yul\":4288:4306   */\n      tag_298\n      tag_196\n      jump\t// in\n    tag_298:\n        /* \"#utility.yul\":4220:4308   */\n    tag_297:\n        /* \"#utility.yul\":4328:4338   */\n      dup1\n        /* \"#utility.yul\":4324:4326   */\n      0x40\n        /* \"#utility.yul\":4317:4339   */\n      mstore\n        /* \"#utility.yul\":4107:4345   */\n      pop\n        /* \"#utility.yul\":4064:4345   */\n      pop\n      pop\n      jump\t// out\n        /* \"#utility.yul\":4351:4480   */\n    tag_198:\n        /* \"#utility.yul\":4385:4391   */\n      0x00\n        /* \"#utility.yul\":4412:4432   */\n      tag_300\n      tag_179\n      jump\t// in\n    tag_300:\n        /* \"#utility.yul\":4402:4432   */\n      swap1\n      pop\n        /* \"#utility.yul\":4441:4474   */\n      tag_301\n        /* \"#utility.yul\":4469:4473   */\n      dup3\n        /* \"#utility.yul\":4461:4467   */\n      dup3\n        /* \"#utility.yul\":4441:4474   */\n      tag_197\n      jump\t// in\n    tag_301:\n        /* \"#utility.yul\":4351:4480   */\n      swap2\n      swap1\n      pop\n      jump\t// out\n        /* \"#utility.yul\":4486:4794   */\n    tag_199:\n        /* \"#utility.yul\":4548:4552   */\n      0x00\n        /* \"#utility.yul\":4638:4656   */\n      0xffffffffffffffff\n        /* \"#utility.yul\":4630:4636   */\n      dup3\n        /* \"#utility.yul\":4627:4657   */\n      gt\n        /* \"#utility.yul\":4624:4680   */\n      iszero\n      tag_303\n      jumpi\n        /* \"#utility.yul\":4660:4678   */\n      tag_304\n      tag_196\n      jump\t// in\n    tag_304:\n        /* \"#utility.yul\":4624:4680   */\n    tag_303:\n        /* \"#utility.yul\":4698:4727   */\n      tag_305\n        /* \"#utility.yul\":4720:4726   */\n      dup3\n        /* \"#utility.yul\":4698:4727   */\n      tag_195\n      jump\t// in\n    tag_305:\n        /* \"#utility.yul\":4690:4727   */\n      swap1\n      pop\n        /* \"#utility.yul\":4782:4786   */\n      0x20\n        /* \"#utility.yul\":4776:4780   */\n      dup2\n        /* \"#utility.yul\":4772:4787   */\n      add\n        /* \"#utility.yul\":4764:4787   */\n      swap1\n      pop\n        /* \"#utility.yul\":4486:4794   */\n      swap2\n      swap1\n      pop\n      jump\t// out\n        /* \"#utility.yul\":4800:4948   */\n    tag_200:\n        /* \"#utility.yul\":4898:4904   */\n      dup3\n        /* \"#utility.yul\":4893:4896   */\n      dup2\n        /* \"#utility.yul\":4888:4891   */\n      dup4\n        /* \"#utility.yul\":4875:4905   */\n      calldatacopy\n        /* \"#utility.yul\":4939:4940   */\n      0x00\n        /* \"#utility.yul\":4930:4936   */\n      dup4\n        /* \"#utility.yul\":4925:4928   */\n      dup4\n        /* \"#utility.yul\":4921:4937   */\n      add\n        /* \"#utility.yul\":4914:4941   */\n      mstore\n        /* \"#utility.yul\":4800:4948   */\n      pop\n      pop\n      pop\n      jump\t// out\n        /* \"#utility.yul\":4954:5379   */\n    tag_201:\n        /* \"#utility.yul\":5032:5037   */\n      0x00\n        /* \"#utility.yul\":5057:5123   */\n      tag_308\n        /* \"#utility.yul\":5073:5122   */\n      tag_309\n        /* \"#utility.yul\":5115:5121   */\n      dup5\n        /* \"#utility.yul\":5073:5122   */\n      tag_199\n      jump\t// in\n    tag_309:\n        /* \"#utility.yul\":5057:5123   */\n      tag_198\n      jump\t// in\n    tag_308:\n        /* \"#utility.yul\":5048:5123   */\n      swap1\n      pop\n        /* \"#utility.yul\":5146:5152   */\n      dup3\n        /* \"#utility.yul\":5139:5144   */\n      dup2\n        /* \"#utility.yul\":5132:5153   */\n      mstore\n        /* \"#utility.yul\":5184:5188   */\n      0x20\n        /* \"#utility.yul\":5177:5182   */\n      dup2\n        /* \"#utility.yul\":5173:5189   */\n      add\n        /* \"#utility.yul\":5222:5225   */\n      dup5\n        /* \"#utility.yul\":5213:5219   */\n      dup5\n        /* \"#utility.yul\":5208:5211   */\n      dup5\n        /* \"#utility.yul\":5204:5220   */\n      add\n        /* \"#utility.yul\":5201:5226   */\n      gt\n        /* \"#utility.yul\":5198:5310   */\n      iszero\n      tag_310\n      jumpi\n        /* \"#utility.yul\":5229:5308   */\n      tag_311\n      tag_194\n      jump\t// in\n    tag_311:\n        /* \"#utility.yul\":5198:5310   */\n    tag_310:\n        /* \"#utility.yul\":5319:5373   */\n      tag_312\n        /* \"#utility.yul\":5366:5372   */\n      dup5\n        /* \"#utility.yul\":5361:5364   */\n      dup3\n        /* \"#utility.yul\":5356:5359   */\n      dup6\n        /* \"#utility.yul\":5319:5373   */\n      tag_200\n      jump\t// in\n    tag_312:\n        /* \"#utility.yul\":5038:5379   */\n      pop\n        /* \"#utility.yul\":4954:5379   */\n      swap4\n      swap3\n      pop\n      pop\n      pop\n      jump\t// out\n        /* \"#utility.yul\":5399:5739   */\n    tag_202:\n        /* \"#utility.yul\":5455:5460   */\n      0x00\n        /* \"#utility.yul\":5504:5507   */\n      dup3\n        /* \"#utility.yul\":5497:5501   */\n      0x1f\n        /* \"#utility.yul\":5489:5495   */\n      dup4\n        /* \"#utility.yul\":5485:5502   */\n      add\n        /* \"#utility.yul\":5481:5508   */\n      slt\n        /* \"#utility.yul\":5471:5593   */\n      tag_314\n      jumpi\n        /* \"#utility.yul\":5512:5591   */\n      tag_315\n      tag_190\n      jump\t// in\n    tag_315:\n        /* \"#utility.yul\":5471:5593   */\n    tag_314:\n        /* \"#utility.yul\":5629:5635   */\n      dup2\n        /* \"#utility.yul\":5616:5636   */\n      calldataload\n        /* \"#utility.yul\":5654:5733   */\n      tag_316\n        /* \"#utility.yul\":5729:5732   */\n      dup5\n        /* \"#utility.yul\":5721:5727   */\n      dup3\n        /* \"#utility.yul\":5714:5718   */\n      0x20\n        /* \"#utility.yul\":5706:5712   */\n      dup7\n        /* \"#utility.yul\":5702:5719   */\n      add\n        /* \"#utility.yul\":5654:5733   */\n      tag_201\n      jump\t// in\n    tag_316:\n        /* \"#utility.yul\":5645:5733   */\n      swap2\n      pop\n        /* \"#utility.yul\":5461:5739   */\n      pop\n        /* \"#utility.yul\":5399:5739   */\n      swap3\n      swap2\n      pop\n      pop\n      jump\t// out\n        /* \"#utility.yul\":5745:6579   */\n    tag_35:\n        /* \"#utility.yul\":5833:5839   */\n      0x00\n        /* \"#utility.yul\":5841:5847   */\n      dup1\n        /* \"#utility.yul\":5890:5892   */\n      0x40\n        /* \"#utility.yul\":5878:5887   */\n      dup4\n        /* \"#utility.yul\":5869:5876   */\n      dup6\n        /* \"#utility.yul\":5865:5888   */\n      sub\n        /* \"#utility.yul\":5861:5893   */\n      slt\n        /* \"#utility.yul\":5858:5977   */\n      iszero\n      tag_318\n      jumpi\n        /* \"#utility.yul\":5896:5975   */\n      tag_319\n      tag_180\n      jump\t// in\n    tag_319:\n        /* \"#utility.yul\":5858:5977   */\n    tag_318:\n        /* \"#utility.yul\":6044:6045   */\n      0x00\n        /* \"#utility.yul\":6033:6042   */\n      dup4\n        /* \"#utility.yul\":6029:6046   */\n      add\n        /* \"#utility.yul\":6016:6047   */\n      calldataload\n        /* \"#utility.yul\":6074:6092   */\n      0xffffffffffffffff\n        /* \"#utility.yul\":6066:6072   */\n      dup2\n        /* \"#utility.yul\":6063:6093   */\n      gt\n        /* \"#utility.yul\":6060:6177   */\n      iszero\n      tag_320\n      jumpi\n        /* \"#utility.yul\":6096:6175   */\n      tag_321\n      tag_181\n      jump\t// in\n    tag_321:\n        /* \"#utility.yul\":6060:6177   */\n    tag_320:\n        /* \"#utility.yul\":6201:6264   */\n      tag_322\n        /* \"#utility.yul\":6256:6263   */\n      dup6\n        /* \"#utility.yul\":6247:6253   */\n      dup3\n        /* \"#utility.yul\":6236:6245   */\n      dup7\n        /* \"#utility.yul\":6232:6254   */\n      add\n        /* \"#utility.yul\":6201:6264   */\n      tag_202\n      jump\t// in\n    tag_322:\n        /* \"#utility.yul\":6191:6264   */\n      swap3\n      pop\n        /* \"#utility.yul\":5987:6274   */\n      pop\n        /* \"#utility.yul\":6341:6343   */\n      0x20\n        /* \"#utility.yul\":6330:6339   */\n      dup4\n        /* \"#utility.yul\":6326:6344   */\n      add\n        /* \"#utility.yul\":6313:6345   */\n      calldataload\n        /* \"#utility.yul\":6372:6390   */\n      0xffffffffffffffff\n        /* \"#utility.yul\":6364:6370   */\n      dup2\n        /* \"#utility.yul\":6361:6391   */\n      gt\n        /* \"#utility.yul\":6358:6475   */\n      iszero\n      tag_323\n      jumpi\n        /* \"#utility.yul\":6394:6473   */\n      tag_324\n      tag_181\n      jump\t// in\n    tag_324:\n        /* \"#utility.yul\":6358:6475   */\n    tag_323:\n        /* \"#utility.yul\":6499:6562   */\n      tag_325\n        /* \"#utility.yul\":6554:6561   */\n      dup6\n        /* \"#utility.yul\":6545:6551   */\n      dup3\n        /* \"#utility.yul\":6534:6543   */\n      dup7\n        /* \"#utility.yul\":6530:6552   */\n      add\n        /* \"#utility.yul\":6499:6562   */\n      tag_202\n      jump\t// in\n    tag_325:\n        /* \"#utility.yul\":6489:6562   */\n      swap2\n      pop\n        /* \"#utility.yul\":6284:6572   */\n      pop\n        /* \"#utility.yul\":5745:6579   */\n      swap3\n      pop\n      swap3\n      swap1\n      pop\n      jump\t// out\n        /* \"#utility.yul\":6585:6683   */\n    tag_203:\n        /* \"#utility.yul\":6636:6642   */\n      0x00\n        /* \"#utility.yul\":6670:6675   */\n      dup2\n        /* \"#utility.yul\":6664:6676   */\n      mload\n        /* \"#utility.yul\":6654:6676   */\n      swap1\n      pop\n        /* \"#utility.yul\":6585:6683   */\n      swap2\n      swap1\n      pop\n      jump\t// out\n        /* \"#utility.yul\":6689:6857   */\n    tag_204:\n        /* \"#utility.yul\":6772:6783   */\n      0x00\n        /* \"#utility.yul\":6806:6812   */\n      dup3\n        /* \"#utility.yul\":6801:6804   */\n      dup3\n        /* \"#utility.yul\":6794:6813   */\n      mstore\n        /* \"#utility.yul\":6846:6850   */\n      0x20\n        /* \"#utility.yul\":6841:6844   */\n      dup3\n        /* \"#utility.yul\":6837:6851   */\n      add\n        /* \"#utility.yul\":6822:6851   */\n      swap1\n      pop\n        /* \"#utility.yul\":6689:6857   */\n      swap3\n      swap2\n      pop\n      pop\n      jump\t// out\n        /* \"#utility.yul\":6863:7002   */\n    tag_205:\n        /* \"#utility.yul\":6952:6958   */\n      dup3\n        /* \"#utility.yul\":6947:6950   */\n      dup2\n        /* \"#utility.yul\":6942:6945   */\n      dup4\n        /* \"#utility.yul\":6936:6959   */\n      mcopy\n        /* \"#utility.yul\":6993:6994   */\n      0x00\n        /* \"#utility.yul\":6984:6990   */\n      dup4\n        /* \"#utility.yul\":6979:6982   */\n      dup4\n        /* \"#utility.yul\":6975:6991   */\n      add\n        /* \"#utility.yul\":6968:6995   */\n      mstore\n        /* \"#utility.yul\":6863:7002   */\n      pop\n      pop\n      pop\n      jump\t// out\n        /* \"#utility.yul\":7008:7381   */\n    tag_206:\n        /* \"#utility.yul\":7094:7097   */\n      0x00\n        /* \"#utility.yul\":7122:7160   */\n      tag_330\n        /* \"#utility.yul\":7154:7159   */\n      dup3\n        /* \"#utility.yul\":7122:7160   */\n      tag_203\n      jump\t// in\n    tag_330:\n        /* \"#utility.yul\":7176:7246   */\n      tag_331\n        /* \"#utility.yul\":7239:7245   */\n      dup2\n        /* \"#utility.yul\":7234:7237   */\n      dup6\n        /* \"#utility.yul\":7176:7246   */\n      tag_204\n      jump\t// in\n    tag_331:\n        /* \"#utility.yul\":7169:7246   */\n      swap4\n      pop\n        /* \"#utility.yul\":7255:7320   */\n      tag_332\n        /* \"#utility.yul\":7313:7319   */\n      dup2\n        /* \"#utility.yul\":7308:7311   */\n      dup6\n        /* \"#utility.yul\":7301:7305   */\n      0x20\n        /* \"#utility.yul\":7294:7299   */\n      dup7\n        /* \"#utility.yul\":7290:7306   */\n      add\n        /* \"#utility.yul\":7255:7320   */\n      tag_205\n      jump\t// in\n    tag_332:\n        /* \"#utility.yul\":7345:7374   */\n      tag_333\n        /* \"#utility.yul\":7367:7373   */\n      dup2\n        /* \"#utility.yul\":7345:7374   */\n      tag_195\n      jump\t// in\n    tag_333:\n        /* \"#utility.yul\":7340:7343   */\n      dup5\n        /* \"#utility.yul\":7336:7375   */\n      add\n        /* \"#utility.yul\":7329:7375   */\n      swap2\n      pop\n        /* \"#utility.yul\":7098:7381   */\n      pop\n        /* \"#utility.yul\":7008:7381   */\n      swap3\n      swap2\n      pop\n      pop\n      jump\t// out\n        /* \"#utility.yul\":7387:7696   */\n    tag_38:\n        /* \"#utility.yul\":7498:7502   */\n      0x00\n        /* \"#utility.yul\":7536:7538   */\n      0x20\n        /* \"#utility.yul\":7525:7534   */\n      dup3\n        /* \"#utility.yul\":7521:7539   */\n      add\n        /* \"#utility.yul\":7513:7539   */\n      swap1\n      pop\n        /* \"#utility.yul\":7585:7594   */\n      dup2\n        /* \"#utility.yul\":7579:7583   */\n      dup2\n        /* \"#utility.yul\":7575:7595   */\n      sub\n        /* \"#utility.yul\":7571:7572   */\n      0x00\n        /* \"#utility.yul\":7560:7569   */\n      dup4\n        /* \"#utility.yul\":7556:7573   */\n      add\n        /* \"#utility.yul\":7549:7596   */\n      mstore\n        /* \"#utility.yul\":7613:7689   */\n      tag_335\n        /* \"#utility.yul\":7684:7688   */\n      dup2\n        /* \"#utility.yul\":7675:7681   */\n      dup5\n        /* \"#utility.yul\":7613:7689   */\n      tag_206\n      jump\t// in\n    tag_335:\n        /* \"#utility.yul\":7605:7689   */\n      swap1\n      pop\n        /* \"#utility.yul\":7387:7696   */\n      swap3\n      swap2\n      pop\n      pop\n      jump\t// out\n        /* \"#utility.yul\":7702:8031   */\n    tag_46:\n        /* \"#utility.yul\":7761:7767   */\n      0x00\n        /* \"#utility.yul\":7810:7812   */\n      0x20\n        /* \"#utility.yul\":7798:7807   */\n      dup3\n        /* \"#utility.yul\":7789:7796   */\n      dup5\n        /* \"#utility.yul\":7785:7808   */\n      sub\n        /* \"#utility.yul\":7781:7813   */\n      slt\n        /* \"#utility.yul\":7778:7897   */\n      iszero\n      tag_337\n      jumpi\n        /* \"#utility.yul\":7816:7895   */\n      tag_338\n      tag_180\n      jump\t// in\n    tag_338:\n        /* \"#utility.yul\":7778:7897   */\n    tag_337:\n        /* \"#utility.yul\":7936:7937   */\n      0x00\n        /* \"#utility.yul\":7961:8014   */\n      tag_339\n        /* \"#utility.yul\":8006:8013   */\n      dup5\n        /* \"#utility.yul\":7997:8003   */\n      dup3\n        /* \"#utility.yul\":7986:7995   */\n      dup6\n        /* \"#utility.yul\":7982:8004   */\n      add\n        /* \"#utility.yul\":7961:8014   */\n      tag_189\n      jump\t// in\n    tag_339:\n        /* \"#utility.yul\":7951:8014   */\n      swap2\n      pop\n        /* \"#utility.yul\":7907:8024   */\n      pop\n        /* \"#utility.yul\":7702:8031   */\n      swap3\n      swap2\n      pop\n      pop\n      jump\t// out\n        /* \"#utility.yul\":8037:8127   */\n    tag_207:\n        /* \"#utility.yul\":8071:8078   */\n      0x00\n        /* \"#utility.yul\":8114:8119   */\n      dup2\n        /* \"#utility.yul\":8107:8120   */\n      iszero\n        /* \"#utility.yul\":8100:8121   */\n      iszero\n        /* \"#utility.yul\":8089:8121   */\n      swap1\n      pop\n        /* \"#utility.yul\":8037:8127   */\n      swap2\n      swap1\n      pop\n      jump\t// out\n        /* \"#utility.yul\":8133:8242   */\n    tag_208:\n        /* \"#utility.yul\":8214:8235   */\n      tag_342\n        /* \"#utility.yul\":8229:8234   */\n      dup2\n        /* \"#utility.yul\":8214:8235   */\n      tag_207\n      jump\t// in\n    tag_342:\n        /* \"#utility.yul\":8209:8212   */\n      dup3\n        /* \"#utility.yul\":8202:8236   */\n      mstore\n        /* \"#utility.yul\":8133:8242   */\n      pop\n      pop\n      jump\t// out\n        /* \"#utility.yul\":8248:8458   */\n    tag_49:\n        /* \"#utility.yul\":8335:8339   */\n      0x00\n        /* \"#utility.yul\":8373:8375   */\n      0x20\n        /* \"#utility.yul\":8362:8371   */\n      dup3\n        /* \"#utility.yul\":8358:8376   */\n      add\n        /* \"#utility.yul\":8350:8376   */\n      swap1\n      pop\n        /* \"#utility.yul\":8386:8451   */\n      tag_344\n        /* \"#utility.yul\":8448:8449   */\n      0x00\n        /* \"#utility.yul\":8437:8446   */\n      dup4\n        /* \"#utility.yul\":8433:8450   */\n      add\n        /* \"#utility.yul\":8424:8430   */\n      dup5\n        /* \"#utility.yul\":8386:8451   */\n      tag_208\n      jump\t// in\n    tag_344:\n        /* \"#utility.yul\":8248:8458   */\n      swap3\n      swap2\n      pop\n      pop\n      jump\t// out\n        /* \"#utility.yul\":8464:8938   */\n    tag_53:\n        /* \"#utility.yul\":8532:8538   */\n      0x00\n        /* \"#utility.yul\":8540:8546   */\n      dup1\n        /* \"#utility.yul\":8589:8591   */\n      0x40\n        /* \"#utility.yul\":8577:8586   */\n      dup4\n        /* \"#utility.yul\":8568:8575   */\n      dup6\n        /* \"#utility.yul\":8564:8587   */\n      sub\n        /* \"#utility.yul\":8560:8592   */\n      slt\n        /* \"#utility.yul\":8557:8676   */\n      iszero\n      tag_346\n      jumpi\n        /* \"#utility.yul\":8595:8674   */\n      tag_347\n      tag_180\n      jump\t// in\n    tag_347:\n        /* \"#utility.yul\":8557:8676   */\n    tag_346:\n        /* \"#utility.yul\":8715:8716   */\n      0x00\n        /* \"#utility.yul\":8740:8793   */\n      tag_348\n        /* \"#utility.yul\":8785:8792   */\n      dup6\n        /* \"#utility.yul\":8776:8782   */\n      dup3\n        /* \"#utility.yul\":8765:8774   */\n      dup7\n        /* \"#utility.yul\":8761:8783   */\n      add\n        /* \"#utility.yul\":8740:8793   */\n      tag_184\n      jump\t// in\n    tag_348:\n        /* \"#utility.yul\":8730:8793   */\n      swap3\n      pop\n        /* \"#utility.yul\":8686:8803   */\n      pop\n        /* \"#utility.yul\":8842:8844   */\n      0x20\n        /* \"#utility.yul\":8868:8921   */\n      tag_349\n        /* \"#utility.yul\":8913:8920   */\n      dup6\n        /* \"#utility.yul\":8904:8910   */\n      dup3\n        /* \"#utility.yul\":8893:8902   */\n      dup7\n        /* \"#utility.yul\":8889:8911   */\n      add\n        /* \"#utility.yul\":8868:8921   */\n      tag_189\n      jump\t// in\n    tag_349:\n        /* \"#utility.yul\":8858:8921   */\n      swap2\n      pop\n        /* \"#utility.yul\":8813:8931   */\n      pop\n        /* \"#utility.yul\":8464:8938   */\n      swap3\n      pop\n      swap3\n      swap1\n      pop\n      jump\t// out\n        /* \"#utility.yul\":8944:9062   */\n    tag_209:\n        /* \"#utility.yul\":9031:9055   */\n      tag_351\n        /* \"#utility.yul\":9049:9054   */\n      dup2\n        /* \"#utility.yul\":9031:9055   */\n      tag_182\n      jump\t// in\n    tag_351:\n        /* \"#utility.yul\":9026:9029   */\n      dup3\n        /* \"#utility.yul\":9019:9056   */\n      mstore\n        /* \"#utility.yul\":8944:9062   */\n      pop\n      pop\n      jump\t// out\n        /* \"#utility.yul\":9068:9290   */\n    tag_60:\n        /* \"#utility.yul\":9161:9165   */\n      0x00\n        /* \"#utility.yul\":9199:9201   */\n      0x20\n        /* \"#utility.yul\":9188:9197   */\n      dup3\n        /* \"#utility.yul\":9184:9202   */\n      add\n        /* \"#utility.yul\":9176:9202   */\n      swap1\n      pop\n        /* \"#utility.yul\":9212:9283   */\n      tag_353\n        /* \"#utility.yul\":9280:9281   */\n      0x00\n        /* \"#utility.yul\":9269:9278   */\n      dup4\n        /* \"#utility.yul\":9265:9282   */\n      add\n        /* \"#utility.yul\":9256:9262   */\n      dup5\n        /* \"#utility.yul\":9212:9283   */\n      tag_209\n      jump\t// in\n    tag_353:\n        /* \"#utility.yul\":9068:9290   */\n      swap3\n      swap2\n      pop\n      pop\n      jump\t// out\n        /* \"#utility.yul\":9296:9924   */\n    tag_66:\n        /* \"#utility.yul\":9485:9489   */\n      0x00\n        /* \"#utility.yul\":9523:9526   */\n      0x80\n        /* \"#utility.yul\":9512:9521   */\n      dup3\n        /* \"#utility.yul\":9508:9527   */\n      add\n        /* \"#utility.yul\":9500:9527   */\n      swap1\n      pop\n        /* \"#utility.yul\":9537:9608   */\n      tag_355\n        /* \"#utility.yul\":9605:9606   */\n      0x00\n        /* \"#utility.yul\":9594:9603   */\n      dup4\n        /* \"#utility.yul\":9590:9607   */\n      add\n        /* \"#utility.yul\":9581:9587   */\n      dup8\n        /* \"#utility.yul\":9537:9608   */\n      tag_187\n      jump\t// in\n    tag_355:\n        /* \"#utility.yul\":9618:9690   */\n      tag_356\n        /* \"#utility.yul\":9686:9688   */\n      0x20\n        /* \"#utility.yul\":9675:9684   */\n      dup4\n        /* \"#utility.yul\":9671:9689   */\n      add\n        /* \"#utility.yul\":9662:9668   */\n      dup7\n        /* \"#utility.yul\":9618:9690   */\n      tag_209\n      jump\t// in\n    tag_356:\n        /* \"#utility.yul\":9737:9746   */\n      dup2\n        /* \"#utility.yul\":9731:9735   */\n      dup2\n        /* \"#utility.yul\":9727:9747   */\n      sub\n        /* \"#utility.yul\":9722:9724   */\n      0x40\n        /* \"#utility.yul\":9711:9720   */\n      dup4\n        /* \"#utility.yul\":9707:9725   */\n      add\n        /* \"#utility.yul\":9700:9748   */\n      mstore\n        /* \"#utility.yul\":9765:9841   */\n      tag_357\n        /* \"#utility.yul\":9836:9840   */\n      dup2\n        /* \"#utility.yul\":9827:9833   */\n      dup6\n        /* \"#utility.yul\":9765:9841   */\n      tag_206\n      jump\t// in\n    tag_357:\n        /* \"#utility.yul\":9757:9841   */\n      swap1\n      pop\n        /* \"#utility.yul\":9851:9917   */\n      tag_358\n        /* \"#utility.yul\":9913:9915   */\n      0x60\n        /* \"#utility.yul\":9902:9911   */\n      dup4\n        /* \"#utility.yul\":9898:9916   */\n      add\n        /* \"#utility.yul\":9889:9895   */\n      dup5\n        /* \"#utility.yul\":9851:9917   */\n      tag_208\n      jump\t// in\n    tag_358:\n        /* \"#utility.yul\":9296:9924   */\n      swap6\n      swap5\n      pop\n      pop\n      pop\n      pop\n      pop\n      jump\t// out\n        /* \"#utility.yul\":9930:10262   */\n    tag_83:\n        /* \"#utility.yul\":10051:10055   */\n      0x00\n        /* \"#utility.yul\":10089:10091   */\n      0x40\n        /* \"#utility.yul\":10078:10087   */\n      dup3\n        /* \"#utility.yul\":10074:10092   */\n      add\n        /* \"#utility.yul\":10066:10092   */\n      swap1\n      pop\n        /* \"#utility.yul\":10102:10173   */\n      tag_360\n        /* \"#utility.yul\":10170:10171   */\n      0x00\n        /* \"#utility.yul\":10159:10168   */\n      dup4\n        /* \"#utility.yul\":10155:10172   */\n      add\n        /* \"#utility.yul\":10146:10152   */\n      dup6\n        /* \"#utility.yul\":10102:10173   */\n      tag_187\n      jump\t// in\n    tag_360:\n        /* \"#utility.yul\":10183:10255   */\n      tag_361\n        /* \"#utility.yul\":10251:10253   */\n      0x20\n        /* \"#utility.yul\":10240:10249   */\n      dup4\n        /* \"#utility.yul\":10236:10254   */\n      add\n        /* \"#utility.yul\":10227:10233   */\n      dup5\n        /* \"#utility.yul\":10183:10255   */\n      tag_209\n      jump\t// in\n    tag_361:\n        /* \"#utility.yul\":9930:10262   */\n      swap4\n      swap3\n      pop\n      pop\n      pop\n      jump\t// out\n        /* \"#utility.yul\":10268:10448   */\n    tag_210:\n        /* \"#utility.yul\":10316:10393   */\n      0x4e487b7100000000000000000000000000000000000000000000000000000000\n        /* \"#utility.yul\":10313:10314   */\n      0x00\n        /* \"#utility.yul\":10306:10394   */\n      mstore\n        /* \"#utility.yul\":10413:10417   */\n      0x22\n        /* \"#utility.yul\":10410:10411   */\n      0x04\n        /* \"#utility.yul\":10403:10418   */\n      mstore\n        /* \"#utility.yul\":10437:10441   */\n      0x24\n        /* \"#utility.yul\":10434:10435   */\n      0x00\n        /* \"#utility.yul\":10427:10442   */\n      revert\n        /* \"#utility.yul\":10454:10774   */\n    tag_126:\n        /* \"#utility.yul\":10498:10504   */\n      0x00\n        /* \"#utility.yul\":10535:10536   */\n      0x02\n        /* \"#utility.yul\":10529:10533   */\n      dup3\n        /* \"#utility.yul\":10525:10537   */\n      div\n        /* \"#utility.yul\":10515:10537   */\n      swap1\n      pop\n        /* \"#utility.yul\":10582:10583   */\n      0x01\n        /* \"#utility.yul\":10576:10580   */\n      dup3\n        /* \"#utility.yul\":10572:10584   */\n      and\n        /* \"#utility.yul\":10603:10621   */\n      dup1\n        /* \"#utility.yul\":10593:10674   */\n      tag_364\n      jumpi\n        /* \"#utility.yul\":10659:10663   */\n      0x7f\n        /* \"#utility.yul\":10651:10657   */\n      dup3\n        /* \"#utility.yul\":10647:10664   */\n      and\n        /* \"#utility.yul\":10637:10664   */\n      swap2\n      pop\n        /* \"#utility.yul\":10593:10674   */\n    tag_364:\n        /* \"#utility.yul\":10721:10723   */\n      0x20\n        /* \"#utility.yul\":10713:10719   */\n      dup3\n        /* \"#utility.yul\":10710:10724   */\n      lt\n        /* \"#utility.yul\":10690:10708   */\n      dup2\n        /* \"#utility.yul\":10687:10725   */\n      sub\n        /* \"#utility.yul\":10684:10768   */\n      tag_365\n      jumpi\n        /* \"#utility.yul\":10740:10758   */\n      tag_366\n      tag_210\n      jump\t// in\n    tag_366:\n        /* \"#utility.yul\":10684:10768   */\n    tag_365:\n        /* \"#utility.yul\":10505:10774   */\n      pop\n        /* \"#utility.yul\":10454:10774   */\n      swap2\n      swap1\n      pop\n      jump\t// out\n        /* \"#utility.yul\":10780:10920   */\n    tag_211:\n        /* \"#utility.yul\":10828:10832   */\n      0x00\n        /* \"#utility.yul\":10851:10854   */\n      dup2\n        /* \"#utility.yul\":10843:10854   */\n      swap1\n      pop\n        /* \"#utility.yul\":10874:10877   */\n      dup2\n        /* \"#utility.yul\":10871:10872   */\n      0x00\n        /* \"#utility.yul\":10864:10878   */\n      mstore\n        /* \"#utility.yul\":10908:10912   */\n      0x20\n        /* \"#utility.yul\":10905:10906   */\n      0x00\n        /* \"#utility.yul\":10895:10913   */\n      keccak256\n        /* \"#utility.yul\":10887:10913   */\n      swap1\n      pop\n        /* \"#utility.yul\":10780:10920   */\n      swap2\n      swap1\n      pop\n      jump\t// out\n        /* \"#utility.yul\":10926:11019   */\n    tag_212:\n        /* \"#utility.yul\":10963:10969   */\n      0x00\n        /* \"#utility.yul\":11010:11012   */\n      0x20\n        /* \"#utility.yul\":11005:11007   */\n      0x1f\n        /* \"#utility.yul\":10998:11003   */\n      dup4\n        /* \"#utility.yul\":10994:11008   */\n      add\n        /* \"#utility.yul\":10990:11013   */\n      div\n        /* \"#utility.yul\":10980:11013   */\n      swap1\n      pop\n        /* \"#utility.yul\":10926:11019   */\n      swap2\n      swap1\n      pop\n      jump\t// out\n        /* \"#utility.yul\":11025:11132   */\n    tag_213:\n        /* \"#utility.yul\":11069:11077   */\n      0x00\n        /* \"#utility.yul\":11119:11124   */\n      dup3\n        /* \"#utility.yul\":11113:11117   */\n      dup3\n        /* \"#utility.yul\":11109:11125   */\n      shl\n        /* \"#utility.yul\":11088:11125   */\n      swap1\n      pop\n        /* \"#utility.yul\":11025:11132   */\n      swap3\n      swap2\n      pop\n      pop\n      jump\t// out\n        /* \"#utility.yul\":11138:11531   */\n    tag_214:\n        /* \"#utility.yul\":11207:11213   */\n      0x00\n        /* \"#utility.yul\":11257:11258   */\n      0x08\n        /* \"#utility.yul\":11245:11255   */\n      dup4\n        /* \"#utility.yul\":11241:11259   */\n      mul\n        /* \"#utility.yul\":11280:11377   */\n      tag_371\n        /* \"#utility.yul\":11310:11376   */\n      0xffffffffffffffffffffffffffffffffffffffffffffffffffffffffffffffff\n        /* \"#utility.yul\":11299:11308   */\n      dup3\n        /* \"#utility.yul\":11280:11377   */\n      tag_213\n      jump\t// in\n    tag_371:\n        /* \"#utility.yul\":11398:11437   */\n      tag_372\n        /* \"#utility.yul\":11428:11436   */\n      dup7\n        /* \"#utility.yul\":11417:11426   */\n      dup4\n        /* \"#utility.yul\":11398:11437   */\n      tag_213\n      jump\t// in\n    tag_372:\n        /* \"#utility.yul\":11386:11437   */\n      swap6\n      pop\n        /* \"#utility.yul\":11470:11474   */\n      dup1\n        /* \"#utility.yul\":11466:11475   */\n      not\n        /* \"#utility.yul\":11459:11464   */\n      dup5\n        /* \"#utility.yul\":11455:11476   */\n      and\n        /* \"#utility.yul\":11446:11476   */\n      swap4\n      pop\n        /* \"#utility.yul\":11519:11523   */\n      dup1\n        /* \"#utility.yul\":11509:11517   */\n      dup7\n        /* \"#utility.yul\":11505:11524   */\n      and\n        /* \"#utility.yul\":11498:11503   */\n      dup5\n        /* \"#utility.yul\":11495:11525   */\n      or\n        /* \"#utility.yul\":11485:11525   */\n      swap3\n      pop\n        /* \"#utility.yul\":11214:11531   */\n      pop\n      pop\n        /* \"#utility.yul\":11138:11531   */\n      swap4\n      swap3\n      pop\n      pop\n      pop\n      jump\t// out\n        /* \"#utility.yul\":11537:11597   */\n    tag_215:\n        /* \"#utility.yul\":11565:11568   */\n      0x00\n        /* \"#utility.yul\":11586:11591   */\n      dup2\n        /* \"#utility.yul\":11579:11591   */\n      swap1\n      pop\n        /* \"#utility.yul\":11537:11597   */\n      swap2\n      swap1\n      pop\n      jump\t// out\n        /* \"#utility.yul\":11603:11745   */\n    tag_216:\n        /* \"#utility.yul\":11653:11662   */\n      0x00\n        /* \"#utility.yul\":11686:11739   */\n      tag_375\n        /* \"#utility.yul\":11704:11738   */\n      tag_376\n        /* \"#utility.yul\":11713:11737   */\n      tag_377\n        /* \"#utility.yul\":11731:11736   */\n      dup5\n        /* \"#utility.yul\":11713:11737   */\n      tag_182\n      jump\t// in\n    tag_377:\n        /* \"#utility.yul\":11704:11738   */\n      tag_215\n      jump\t// in\n    tag_376:\n        /* \"#utility.yul\":11686:11739   */\n      tag_182\n      jump\t// in\n    tag_375:\n        /* \"#utility.yul\":11673:11739   */\n      swap1\n      pop\n        /* \"#utility.yul\":11603:11745   */\n      swap2\n      swap1\n      pop\n      jump\t// out\n        /* \"#utility.yul\":11751:11826   */\n    tag_217:\n        /* \"#utility.yul\":11794:11797   */\n      0x00\n        /* \"#utility.yul\":11815:11820   */\n      dup2\n        /* \"#utility.yul\":11808:11820   */\n      swap1\n      pop\n        /* \"#utility.yul\":11751:11826   */\n      swap2\n      swap1\n      pop\n      jump\t// out\n        /* \"#utility.yul\":11832:12101   */\n    tag_218:\n        /* \"#utility.yul\":11942:11981   */\n      tag_380\n        /* \"#utility.yul\":11973:11980   */\n      dup4\n        /* \"#utility.yul\":11942:11981   */\n      tag_216\n      jump\t// in\n    tag_380:\n        /* \"#utility.yul\":12003:12094   */\n      tag_381\n        /* \"#utility.yul\":12052:12093   */\n      tag_382\n        /* \"#utility.yul\":12076:12092   */\n      dup3\n        /* \"#utility.yul\":12052:12093   */\n      tag_217\n      jump\t// in\n    tag_382:\n        /* \"#utility.yul\":12044:12050   */\n      dup5\n        /* \"#utility.yul\":12037:12041   */\n      dup5\n        /* \"#utility.yul\":12031:12042   */\n      sload\n        /* \"#utility.yul\":12003:12094   */\n      tag_214\n      jump\t// in\n    tag_381:\n        /* \"#utility.yul\":11997:12001   */\n      dup3\n        /* \"#utility.yul\":11990:12095   */\n      sstore\n        /* \"#utility.yul\":11908:12101   */\n      pop\n        /* \"#utility.yul\":11832:12101   */\n      pop\n      pop\n      pop\n      jump\t// out\n        /* \"#utility.yul\":12107:12180   */\n    tag_219:\n        /* \"#utility.yul\":12152:12155   */\n      0x00\n        /* \"#utility.yul\":12107:12180   */\n      swap1\n      jump\t// out\n        /* \"#utility.yul\":12186:12375   */\n    tag_220:\n        /* \"#utility.yul\":12263:12295   */\n      tag_385\n      tag_219\n      jump\t// in\n    tag_385:\n        /* \"#utility.yul\":12304:12369   */\n      tag_386\n        /* \"#utility.yul\":12362:12368   */\n      dup2\n        /* \"#utility.yul\":12354:12360   */\n      dup5\n        /* \"#utility.yul\":12348:12352   */\n      dup5\n        /* \"#utility.yul\":12304:12369   */\n      tag_218\n      jump\t// in\n    tag_386:\n        /* \"#utility.yul\":12239:12375   */\n      pop\n        /* \"#utility.yul\":12186:12375   */\n      pop\n      pop\n      jump\t// out\n        /* \"#utility.yul\":12381:12567   */\n    tag_221:\n        /* \"#utility.yul\":12441:12561   */\n    tag_388:\n        /* \"#utility.yul\":12458:12461   */\n      dup2\n        /* \"#utility.yul\":12451:12456   */\n      dup2\n        /* \"#utility.yul\":12448:12462   */\n      lt\n        /* \"#utility.yul\":12441:12561   */\n      iszero\n      tag_390\n      jumpi\n        /* \"#utility.yul\":12512:12551   */\n      tag_391\n        /* \"#utility.yul\":12549:12550   */\n      0x00\n        /* \"#utility.yul\":12542:12547   */\n      dup3\n        /* \"#utility.yul\":12512:12551   */\n      tag_220\n      jump\t// in\n    tag_391:\n        /* \"#utility.yul\":12485:12486   */\n      0x01\n        /* \"#utility.yul\":12478:12483   */\n      dup2\n        /* \"#utility.yul\":12474:12487   */\n      add\n        /* \"#utility.yul\":12465:12487   */\n      swap1\n      pop\n        /* \"#utility.yul\":12441:12561   */\n      jump(tag_388)\n    tag_390:\n        /* \"#utility.yul\":12381:12567   */\n      pop\n      pop\n      jump\t// out\n        /* \"#utility.yul\":12573:13114   */\n    tag_222:\n        /* \"#utility.yul\":12673:12675   */\n      0x1f\n        /* \"#utility.yul\":12668:12671   */\n      dup3\n        /* \"#utility.yul\":12665:12676   */\n      gt\n        /* \"#utility.yul\":12662:13107   */\n      iszero\n      tag_393\n      jumpi\n        /* \"#utility.yul\":12707:12744   */\n      tag_394\n        /* \"#utility.yul\":12738:12743   */\n      dup2\n        /* \"#utility.yul\":12707:12744   */\n      tag_211\n      jump\t// in\n    tag_394:\n        /* \"#utility.yul\":12790:12819   */\n      tag_395\n        /* \"#utility.yul\":12808:12818   */\n      dup5\n        /* \"#utility.yul\":12790:12819   */\n      tag_212\n      jump\t// in\n    tag_395:\n        /* \"#utility.yul\":12780:12788   */\n      dup2\n        /* \"#utility.yul\":12776:12820   */\n      add\n        /* \"#utility.yul\":12973:12975   */\n      0x20\n        /* \"#utility.yul\":12961:12971   */\n      dup6\n        /* \"#utility.yul\":12958:12976   */\n      lt\n        /* \"#utility.yul\":12955:13004   */\n      iszero\n      tag_396\n      jumpi\n        /* \"#utility.yul\":12994:13002   */\n      dup2\n        /* \"#utility.yul\":12979:13002   */\n      swap1\n      pop\n        /* \"#utility.yul\":12955:13004   */\n    tag_396:\n        /* \"#utility.yul\":13017:13097   */\n      tag_397\n        /* \"#utility.yul\":13073:13095   */\n      tag_398\n        /* \"#utility.yul\":13091:13094   */\n      dup6\n        /* \"#utility.yul\":13073:13095   */\n      tag_212\n      jump\t// in\n    tag_398:\n        /* \"#utility.yul\":13063:13071   */\n      dup4\n        /* \"#utility.yul\":13059:13096   */\n      add\n        /* \"#utility.yul\":13046:13057   */\n      dup3\n        /* \"#utility.yul\":13017:13097   */\n      tag_221\n      jump\t// in\n    tag_397:\n        /* \"#utility.yul\":12677:13107   */\n      pop\n      pop\n        /* \"#utility.yul\":12662:13107   */\n    tag_393:\n        /* \"#utility.yul\":12573:13114   */\n      pop\n      pop\n      pop\n      jump\t// out\n        /* \"#utility.yul\":13120:13237   */\n    tag_223:\n        /* \"#utility.yul\":13174:13182   */\n      0x00\n        /* \"#utility.yul\":13224:13229   */\n      dup3\n        /* \"#utility.yul\":13218:13222   */\n      dup3\n        /* \"#utility.yul\":13214:13230   */\n      shr\n        /* \"#utility.yul\":13193:13230   */\n      swap1\n      pop\n        /* \"#utility.yul\":13120:13237   */\n      swap3\n      swap2\n      pop\n      pop\n      jump\t// out\n        /* \"#utility.yul\":13243:13412   */\n    tag_224:\n        /* \"#utility.yul\":13287:13293   */\n      0x00\n        /* \"#utility.yul\":13320:13371   */\n      tag_401\n        /* \"#utility.yul\":13368:13369   */\n      0x00\n        /* \"#utility.yul\":13364:13370   */\n      not\n        /* \"#utility.yul\":13356:13361   */\n      dup5\n        /* \"#utility.yul\":13353:13354   */\n      0x08\n        /* \"#utility.yul\":13349:13362   */\n      mul\n        /* \"#utility.yul\":13320:13371   */\n      tag_223\n      jump\t// in\n    tag_401:\n        /* \"#utility.yul\":13316:13372   */\n      not\n        /* \"#utility.yul\":13401:13405   */\n      dup1\n        /* \"#utility.yul\":13395:13399   */\n      dup4\n        /* \"#utility.yul\":13391:13406   */\n      and\n        /* \"#utility.yul\":13381:13406   */\n      swap2\n      pop\n        /* \"#utility.yul\":13294:13412   */\n      pop\n        /* \"#utility.yul\":13243:13412   */\n      swap3\n      swap2\n      pop\n      pop\n      jump\t// out\n        /* \"#utility.yul\":13417:13712   */\n    tag_225:\n        /* \"#utility.yul\":13493:13497   */\n      0x00\n        /* \"#utility.yul\":13639:13668   */\n      tag_403\n        /* \"#utility.yul\":13664:13667   */\n      dup4\n        /* \"#utility.yul\":13658:13662   */\n      dup4\n        /* \"#utility.yul\":13639:13668   */\n      tag_224\n      jump\t// in\n    tag_403:\n        /* \"#utility.yul\":13631:13668   */\n      swap2\n      pop\n        /* \"#utility.yul\":13701:13704   */\n      dup3\n        /* \"#utility.yul\":13698:13699   */\n      0x02\n        /* \"#utility.yul\":13694:13705   */\n      mul\n        /* \"#utility.yul\":13688:13692   */\n      dup3\n        /* \"#utility.yul\":13685:13706   */\n      or\n        /* \"#utility.yul\":13677:13706   */\n      swap1\n      pop\n        /* \"#utility.yul\":13417:13712   */\n      swap3\n      swap2\n      pop\n      pop\n      jump\t// out\n        /* \"#utility.yul\":13717:15107   */\n    tag_89:\n        /* \"#utility.yul\":13832:13868   */\n      tag_405\n        /* \"#utility.yul\":13864:13867   */\n      dup3\n        /* \"#utility.yul\":13832:13868   */\n      tag_203\n      jump\t// in\n    tag_405:\n        /* \"#utility.yul\":13933:13951   */\n      0xffffffffffffffff\n        /* \"#utility.yul\":13925:13931   */\n      dup2\n        /* \"#utility.yul\":13922:13952   */\n      gt\n        /* \"#utility.yul\":13919:13975   */\n      iszero\n      tag_406\n      jumpi\n        /* \"#utility.yul\":13955:13973   */\n      tag_407\n      tag_196\n      jump\t// in\n    tag_407:\n        /* \"#utility.yul\":13919:13975   */\n    tag_406:\n        /* \"#utility.yul\":13999:14037   */\n      tag_408\n        /* \"#utility.yul\":14031:14035   */\n      dup3\n        /* \"#utility.yul\":14025:14036   */\n      sload\n        /* \"#utility.yul\":13999:14037   */\n      tag_126\n      jump\t// in\n    tag_408:\n        /* \"#utility.yul\":14084:14150   */\n      tag_409\n        /* \"#utility.yul\":14143:14149   */\n      dup3\n        /* \"#utility.yul\":14135:14141   */\n      dup3\n        /* \"#utility.yul\":14129:14133   */\n      dup6\n        /* \"#utility.yul\":14084:14150   */\n      tag_222\n      jump\t// in\n    tag_409:\n        /* \"#utility.yul\":14177:14178   */\n      0x00\n        /* \"#utility.yul\":14201:14205   */\n      0x20\n        /* \"#utility.yul\":14188:14205   */\n      swap1\n      pop\n        /* \"#utility.yul\":14233:14235   */\n      0x1f\n        /* \"#utility.yul\":14225:14231   */\n      dup4\n        /* \"#utility.yul\":14222:14236   */\n      gt\n        /* \"#utility.yul\":14250:14251   */\n      0x01\n        /* \"#utility.yul\":14245:14862   */\n      dup2\n      eq\n      tag_411\n      jumpi\n        /* \"#utility.yul\":14906:14907   */\n      0x00\n        /* \"#utility.yul\":14923:14929   */\n      dup5\n        /* \"#utility.yul\":14920:14997   */\n      iszero\n      tag_412\n      jumpi\n        /* \"#utility.yul\":14972:14981   */\n      dup3\n        /* \"#utility.yul\":14967:14970   */\n      dup8\n        /* \"#utility.yul\":14963:14982   */\n      add\n        /* \"#utility.yul\":14957:14983   */\n      mload\n        /* \"#utility.yul\":14948:14983   */\n      swap1\n      pop\n        /* \"#utility.yul\":14920:14997   */\n    tag_412:\n        /* \"#utility.yul\":15023:15090   */\n      tag_413\n        /* \"#utility.yul\":15083:15089   */\n      dup6\n        /* \"#utility.yul\":15076:15081   */\n      dup3\n        /* \"#utility.yul\":15023:15090   */\n      tag_225\n      jump\t// in\n    tag_413:\n        /* \"#utility.yul\":15017:15021   */\n      dup7\n        /* \"#utility.yul\":15010:15091   */\n      sstore\n        /* \"#utility.yul\":14879:15101   */\n      pop\n        /* \"#utility.yul\":14215:15101   */\n      jump(tag_410)\n        /* \"#utility.yul\":14245:14862   */\n    tag_411:\n        /* \"#utility.yul\":14297:14301   */\n      0x1f\n        /* \"#utility.yul\":14293:14302   */\n      not\n        /* \"#utility.yul\":14285:14291   */\n      dup5\n        /* \"#utility.yul\":14281:14303   */\n      and\n        /* \"#utility.yul\":14331:14367   */\n      tag_414\n        /* \"#utility.yul\":14362:14366   */\n      dup7\n        /* \"#utility.yul\":14331:14367   */\n      tag_211\n      jump\t// in\n    tag_414:\n        /* \"#utility.yul\":14389:14390   */\n      0x00\n        /* \"#utility.yul\":14403:14611   */\n    tag_415:\n        /* \"#utility.yul\":14417:14424   */\n      dup3\n        /* \"#utility.yul\":14414:14415   */\n      dup2\n        /* \"#utility.yul\":14411:14425   */\n      lt\n        /* \"#utility.yul\":14403:14611   */\n      iszero\n      tag_417\n      jumpi\n        /* \"#utility.yul\":14496:14505   */\n      dup5\n        /* \"#utility.yul\":14491:14494   */\n      dup10\n        /* \"#utility.yul\":14487:14506   */\n      add\n        /* \"#utility.yul\":14481:14507   */\n      mload\n        /* \"#utility.yul\":14473:14479   */\n      dup3\n        /* \"#utility.yul\":14466:14508   */\n      sstore\n        /* \"#utility.yul\":14547:14548   */\n      0x01\n        /* \"#utility.yul\":14539:14545   */\n      dup3\n        /* \"#utility.yul\":14535:14549   */\n      add\n        /* \"#utility.yul\":14525:14549   */\n      swap2\n      pop\n        /* \"#utility.yul\":14594:14596   */\n      0x20\n        /* \"#utility.yul\":14583:14592   */\n      dup6\n        /* \"#utility.yul\":14579:14597   */\n      add\n        /* \"#utility.yul\":14566:14597   */\n      swap5\n      pop\n        /* \"#utility.yul\":14440:14444   */\n      0x20\n        /* \"#utility.yul\":14437:14438   */\n      dup2\n        /* \"#utility.yul\":14433:14445   */\n      add\n        /* \"#utility.yul\":14428:14445   */\n      swap1\n      pop\n        /* \"#utility.yul\":14403:14611   */\n      jump(tag_415)\n    tag_417:\n        /* \"#utility.yul\":14639:14645   */\n      dup7\n        /* \"#utility.yul\":14630:14637   */\n      dup4\n        /* \"#utility.yul\":14627:14646   */\n      lt\n        /* \"#utility.yul\":14624:14803   */\n      iszero\n      tag_418\n      jumpi\n        /* \"#utility.yul\":14697:14706   */\n      dup5\n        /* \"#utility.yul\":14692:14695   */\n      dup10\n        /* \"#utility.yul\":14688:14707   */\n      add\n        /* \"#utility.yul\":14682:14708   */\n      mload\n        /* \"#utility.yul\":14740:14788   */\n      tag_419\n        /* \"#utility.yul\":14782:14786   */\n      0x1f\n        /* \"#utility.yul\":14774:14780   */\n      dup10\n        /* \"#utility.yul\":14770:14787   */\n      and\n        /* \"#utility.yul\":14759:14768   */\n      dup3\n        /* \"#utility.yul\":14740:14788   */\n      tag_224\n      jump\t// in\n    tag_419:\n        /* \"#utility.yul\":14732:14738   */\n      dup4\n        /* \"#utility.yul\":14725:14789   */\n      sstore\n        /* \"#utility.yul\":14647:14803   */\n      pop\n        /* \"#utility.yul\":14624:14803   */\n    tag_418:\n        /* \"#utility.yul\":14849:14850   */\n      0x01\n        /* \"#utility.yul\":14845:14846   */\n      0x02\n        /* \"#utility.yul\":14837:14843   */\n      dup9\n        /* \"#utility.yul\":14833:14847   */\n      mul\n        /* \"#utility.yul\":14829:14851   */\n      add\n        /* \"#utility.yul\":14823:14827   */\n      dup9\n        /* \"#utility.yul\":14816:14852   */\n      sstore\n        /* \"#utility.yul\":14252:14862   */\n      pop\n      pop\n      pop\n        /* \"#utility.yul\":14215:15101   */\n    tag_410:\n      pop\n        /* \"#utility.yul\":13807:15107   */\n      pop\n      pop\n      pop\n        /* \"#utility.yul\":13717:15107   */\n      pop\n      pop\n      jump\t// out\n        /* \"#utility.yul\":15113:15293   */\n    tag_226:\n        /* \"#utility.yul\":15161:15238   */\n      0x4e487b7100000000000000000000000000000000000000000000000000000000\n        /* \"#utility.yul\":15158:15159   */\n      0x00\n        /* \"#utility.yul\":15151:15239   */\n      mstore\n        /* \"#utility.yul\":15258:15262   */\n      0x11\n        /* \"#utility.yul\":15255:15256   */\n      0x04\n        /* \"#utility.yul\":15248:15263   */\n      mstore\n        /* \"#utility.yul\":15282:15286   */\n      0x24\n        /* \"#utility.yul\":15279:15280   */\n      0x00\n        /* \"#utility.yul\":15272:15287   */\n      revert\n        /* \"#utility.yul\":15299:15493   */\n    tag_91:\n        /* \"#utility.yul\":15339:15343   */\n      0x00\n        /* \"#utility.yul\":15359:15379   */\n      tag_422\n        /* \"#utility.yul\":15377:15378   */\n      dup3\n        /* \"#utility.yul\":15359:15379   */\n      tag_182\n      jump\t// in\n    tag_422:\n        /* \"#utility.yul\":15354:15379   */\n      swap2\n      pop\n        /* \"#utility.yul\":15393:15413   */\n      tag_423\n        /* \"#utility.yul\":15411:15412   */\n      dup4\n        /* \"#utility.yul\":15393:15413   */\n      tag_182\n      jump\t// in\n    tag_423:\n        /* \"#utility.yul\":15388:15413   */\n      swap3\n      pop\n        /* \"#utility.yul\":15437:15438   */\n      dup3\n        /* \"#utility.yul\":15434:15435   */\n      dup3\n        /* \"#utility.yul\":15430:15439   */\n      sub\n        /* \"#utility.yul\":15422:15439   */\n      swap1\n      pop\n        /* \"#utility.yul\":15461:15462   */\n      dup2\n        /* \"#utility.yul\":15455:15459   */\n      dup2\n        /* \"#utility.yul\":15452:15463   */\n      gt\n        /* \"#utility.yul\":15449:15486   */\n      iszero\n      tag_424\n      jumpi\n        /* \"#utility.yul\":15466:15484   */\n      tag_425\n      tag_226\n      jump\t// in\n    tag_425:\n        /* \"#utility.yul\":15449:15486   */\n    tag_424:\n        /* \"#utility.yul\":15299:15493   */\n      swap3\n      swap2\n      pop\n      pop\n      jump\t// out\n        /* \"#utility.yul\":15499:15598   */\n    tag_227:\n        /* \"#utility.yul\":15551:15557   */\n      0x00\n        /* \"#utility.yul\":15585:15590   */\n      dup2\n        /* \"#utility.yul\":15579:15591   */\n      mload\n        /* \"#utility.yul\":15569:15591   */\n      swap1\n      pop\n        /* \"#utility.yul\":15499:15598   */\n      swap2\n      swap1\n      pop\n      jump\t// out\n        /* \"#utility.yul\":15604:15773   */\n    tag_228:\n        /* \"#utility.yul\":15688:15699   */\n      0x00\n        /* \"#utility.yul\":15722:15728   */\n      dup3\n        /* \"#utility.yul\":15717:15720   */\n      dup3\n        /* \"#utility.yul\":15710:15729   */\n      mstore\n        /* \"#utility.yul\":15762:15766   */\n      0x20\n        /* \"#utility.yul\":15757:15760   */\n      dup3\n        /* \"#utility.yul\":15753:15767   */\n      add\n        /* \"#utility.yul\":15738:15767   */\n      swap1\n      pop\n        /* \"#utility.yul\":15604:15773   */\n      swap3\n      swap2\n      pop\n      pop\n      jump\t// out\n        /* \"#utility.yul\":15779:16156   */\n    tag_229:\n        /* \"#utility.yul\":15867:15870   */\n      0x00\n        /* \"#utility.yul\":15895:15934   */\n      tag_429\n        /* \"#utility.yul\":15928:15933   */\n      dup3\n        /* \"#utility.yul\":15895:15934   */\n      tag_227\n      jump\t// in\n    tag_429:\n        /* \"#utility.yul\":15950:16021   */\n      tag_430\n        /* \"#utility.yul\":16014:16020   */\n      dup2\n        /* \"#utility.yul\":16009:16012   */\n      dup6\n        /* \"#utility.yul\":15950:16021   */\n      tag_228\n      jump\t// in\n    tag_430:\n        /* \"#utility.yul\":15943:16021   */\n      swap4\n      pop\n        /* \"#utility.yul\":16030:16095   */\n      tag_431\n        /* \"#utility.yul\":16088:16094   */\n      dup2\n        /* \"#utility.yul\":16083:16086   */\n      dup6\n        /* \"#utility.yul\":16076:16080   */\n      0x20\n        /* \"#utility.yul\":16069:16074   */\n      dup7\n        /* \"#utility.yul\":16065:16081   */\n      add\n        /* \"#utility.yul\":16030:16095   */\n      tag_205\n      jump\t// in\n    tag_431:\n        /* \"#utility.yul\":16120:16149   */\n      tag_432\n        /* \"#utility.yul\":16142:16148   */\n      dup2\n        /* \"#utility.yul\":16120:16149   */\n      tag_195\n      jump\t// in\n    tag_432:\n        /* \"#utility.yul\":16115:16118   */\n      dup5\n        /* \"#utility.yul\":16111:16150   */\n      add\n        /* \"#utility.yul\":16104:16150   */\n      swap2\n      pop\n        /* \"#utility.yul\":15871:16156   */\n      pop\n        /* \"#utility.yul\":15779:16156   */\n      swap3\n      swap2\n      pop\n      pop\n      jump\t// out\n        /* \"#utility.yul\":16162:16475   */\n    tag_95:\n        /* \"#utility.yul\":16275:16279   */\n      0x00\n        /* \"#utility.yul\":16313:16315   */\n      0x20\n        /* \"#utility.yul\":16302:16311   */\n      dup3\n        /* \"#utility.yul\":16298:16316   */\n      add\n        /* \"#utility.yul\":16290:16316   */\n      swap1\n      pop\n        /* \"#utility.yul\":16362:16371   */\n      dup2\n        /* \"#utility.yul\":16356:16360   */\n      dup2\n        /* \"#utility.yul\":16352:16372   */\n      sub\n        /* \"#utility.yul\":16348:16349   */\n      0x00\n        /* \"#utility.yul\":16337:16346   */\n      dup4\n        /* \"#utility.yul\":16333:16350   */\n      add\n        /* \"#utility.yul\":16326:16373   */\n      mstore\n        /* \"#utility.yul\":16390:16468   */\n      tag_434\n        /* \"#utility.yul\":16463:16467   */\n      dup2\n        /* \"#utility.yul\":16454:16460   */\n      dup5\n        /* \"#utility.yul\":16390:16468   */\n      tag_229\n      jump\t// in\n    tag_434:\n        /* \"#utility.yul\":16382:16468   */\n      swap1\n      pop\n        /* \"#utility.yul\":16162:16475   */\n      swap3\n      swap2\n      pop\n      pop\n      jump\t// out\n        /* \"#utility.yul\":16481:16629   */\n    tag_230:\n        /* \"#utility.yul\":16583:16594   */\n      0x00\n        /* \"#utility.yul\":16620:16623   */\n      dup2\n        /* \"#utility.yul\":16605:16623   */\n      swap1\n      pop\n        /* \"#utility.yul\":16481:16629   */\n      swap3\n      swap2\n      pop\n      pop\n      jump\t// out\n        /* \"#utility.yul\":16635:17025   */\n    tag_231:\n        /* \"#utility.yul\":16741:16744   */\n      0x00\n        /* \"#utility.yul\":16769:16808   */\n      tag_437\n        /* \"#utility.yul\":16802:16807   */\n      dup3\n        /* \"#utility.yul\":16769:16808   */\n      tag_227\n      jump\t// in\n    tag_437:\n        /* \"#utility.yul\":16824:16913   */\n      tag_438\n        /* \"#utility.yul\":16906:16912   */\n      dup2\n        /* \"#utility.yul\":16901:16904   */\n      dup6\n        /* \"#utility.yul\":16824:16913   */\n      tag_230\n      jump\t// in\n    tag_438:\n        /* \"#utility.yul\":16817:16913   */\n      swap4\n      pop\n        /* \"#utility.yul\":16922:16987   */\n      tag_439\n        /* \"#utility.yul\":16980:16986   */\n      dup2\n        /* \"#utility.yul\":16975:16978   */\n      dup6\n        /* \"#utility.yul\":16968:16972   */\n      0x20\n        /* \"#utility.yul\":16961:16966   */\n      dup7\n        /* \"#utility.yul\":16957:16973   */\n      add\n        /* \"#utility.yul\":16922:16987   */\n      tag_205\n      jump\t// in\n    tag_439:\n        /* \"#utility.yul\":17012:17018   */\n      dup1\n        /* \"#utility.yul\":17007:17010   */\n      dup5\n        /* \"#utility.yul\":17003:17019   */\n      add\n        /* \"#utility.yul\":16996:17019   */\n      swap2\n      pop\n        /* \"#utility.yul\":16745:17025   */\n      pop\n        /* \"#utility.yul\":16635:17025   */\n      swap3\n      swap2\n      pop\n      pop\n      jump\t// out\n        /* \"#utility.yul\":17031:17306   */\n    tag_97:\n        /* \"#utility.yul\":17163:17166   */\n      0x00\n        /* \"#utility.yul\":17185:17280   */\n      tag_441\n        /* \"#utility.yul\":17276:17279   */\n      dup3\n        /* \"#utility.yul\":17267:17273   */\n      dup5\n        /* \"#utility.yul\":17185:17280   */\n      tag_231\n      jump\t// in\n    tag_441:\n        /* \"#utility.yul\":17178:17280   */\n      swap2\n      pop\n        /* \"#utility.yul\":17297:17300   */\n      dup2\n        /* \"#utility.yul\":17290:17300   */\n      swap1\n      pop\n        /* \"#utility.yul\":17031:17306   */\n      swap3\n      swap2\n      pop\n      pop\n      jump\t// out\n        /* \"#utility.yul\":17312:17474   */\n    tag_232:\n        /* \"#utility.yul\":17452:17466   */\n      0x6e6f7420616e206f776e65720000000000000000000000000000000000000000\n        /* \"#utility.yul\":17448:17449   */\n      0x00\n        /* \"#utility.yul\":17440:17446   */\n      dup3\n        /* \"#utility.yul\":17436:17450   */\n      add\n        /* \"#utility.yul\":17429:17467   */\n      mstore\n        /* \"#utility.yul\":17312:17474   */\n      pop\n      jump\t// out\n        /* \"#utility.yul\":17480:17846   */\n    tag_233:\n        /* \"#utility.yul\":17622:17625   */\n      0x00\n        /* \"#utility.yul\":17643:17710   */\n      tag_444\n        /* \"#utility.yul\":17707:17709   */\n      0x0c\n        /* \"#utility.yul\":17702:17705   */\n      dup4\n        /* \"#utility.yul\":17643:17710   */\n      tag_228\n      jump\t// in\n    tag_444:\n        /* \"#utility.yul\":17636:17710   */\n      swap2\n      pop\n        /* \"#utility.yul\":17719:17812   */\n      tag_445\n        /* \"#utility.yul\":17808:17811   */\n      dup3\n        /* \"#utility.yul\":17719:17812   */\n      tag_232\n      jump\t// in\n    tag_445:\n        /* \"#utility.yul\":17837:17839   */\n      0x20\n        /* \"#utility.yul\":17832:17835   */\n      dup3\n        /* \"#utility.yul\":17828:17840   */\n      add\n        /* \"#utility.yul\":17821:17840   */\n      swap1\n      pop\n        /* \"#utility.yul\":17480:17846   */\n      swap2\n      swap1\n      pop\n      jump\t// out\n        /* \"#utility.yul\":17852:18271   */\n    tag_101:\n        /* \"#utility.yul\":18018:18022   */\n      0x00\n        /* \"#utility.yul\":18056:18058   */\n      0x20\n        /* \"#utility.yul\":18045:18054   */\n      dup3\n        /* \"#utility.yul\":18041:18059   */\n      add\n        /* \"#utility.yul\":18033:18059   */\n      swap1\n      pop\n        /* \"#utility.yul\":18105:18114   */\n      dup2\n        /* \"#utility.yul\":18099:18103   */\n      dup2\n        /* \"#utility.yul\":18095:18115   */\n      sub\n        /* \"#utility.yul\":18091:18092   */\n      0x00\n        /* \"#utility.yul\":18080:18089   */\n      dup4\n        /* \"#utility.yul\":18076:18093   */\n      add\n        /* \"#utility.yul\":18069:18116   */\n      mstore\n        /* \"#utility.yul\":18133:18264   */\n      tag_447\n        /* \"#utility.yul\":18259:18263   */\n      dup2\n        /* \"#utility.yul\":18133:18264   */\n      tag_233\n      jump\t// in\n    tag_447:\n        /* \"#utility.yul\":18125:18264   */\n      swap1\n      pop\n        /* \"#utility.yul\":17852:18271   */\n      swap2\n      swap1\n      pop\n      jump\t// out\n        /* \"#utility.yul\":18277:18444   */\n    tag_234:\n        /* \"#utility.yul\":18417:18436   */\n      0x747820646f6573206e6f74206578697374000000000000000000000000000000\n        /* \"#utility.yul\":18413:18414   */\n      0x00\n        /* \"#utility.yul\":18405:18411   */\n      dup3\n        /* \"#utility.yul\":18401:18415   */\n      add\n        /* \"#utility.yul\":18394:18437   */\n      mstore\n        /* \"#utility.yul\":18277:18444   */\n      pop\n      jump\t// out\n        /* \"#utility.yul\":18450:18816   */\n    tag_235:\n        /* \"#utility.yul\":18592:18595   */\n      0x00\n        /* \"#utility.yul\":18613:18680   */\n      tag_450\n        /* \"#utility.yul\":18677:18679   */\n      0x11\n        /* \"#utility.yul\":18672:18675   */\n      dup4\n        /* \"#utility.yul\":18613:18680   */\n      tag_228\n      jump\t// in\n    tag_450:\n        /* \"#utility.yul\":18606:18680   */\n      swap2\n      pop\n        /* \"#utility.yul\":18689:18782   */\n      tag_451\n        /* \"#utility.yul\":18778:18781   */\n      dup3\n        /* \"#utility.yul\":18689:18782   */\n      tag_234\n      jump\t// in\n    tag_451:\n        /* \"#utility.yul\":18807:18809   */\n      0x20\n        /* \"#utility.yul\":18802:18805   */\n      dup3\n        /* \"#utility.yul\":18798:18810   */\n      add\n        /* \"#utility.yul\":18791:18810   */\n      swap1\n      pop\n        /* \"#utility.yul\":18450:18816   */\n      swap2\n      swap1\n      pop\n      jump\t// out\n        /* \"#utility.yul\":18822:19241   */\n    tag_105:\n        /* \"#utility.yul\":18988:18992   */\n      0x00\n        /* \"#utility.yul\":19026:19028   */\n      0x20\n        /* \"#utility.yul\":19015:19024   */\n      dup3\n        /* \"#utility.yul\":19011:19029   */\n      add\n        /* \"#utility.yul\":19003:19029   */\n      swap1\n      pop\n        /* \"#utility.yul\":19075:19084   */\n      dup2\n        /* \"#utility.yul\":19069:19073   */\n      dup2\n        /* \"#utility.yul\":19065:19085   */\n      sub\n        /* \"#utility.yul\":19061:19062   */\n      0x00\n        /* \"#utility.yul\":19050:19059   */\n      dup4\n        /* \"#utility.yul\":19046:19063   */\n      add\n        /* \"#utility.yul\":19039:19086   */\n      mstore\n        /* \"#utility.yul\":19103:19234   */\n      tag_453\n        /* \"#utility.yul\":19229:19233   */\n      dup2\n        /* \"#utility.yul\":19103:19234   */\n      tag_235\n      jump\t// in\n    tag_453:\n        /* \"#utility.yul\":19095:19234   */\n      swap1\n      pop\n        /* \"#utility.yul\":18822:19241   */\n      swap2\n      swap1\n      pop\n      jump\t// out\n        /* \"#utility.yul\":19247:19427   */\n    tag_109:\n        /* \"#utility.yul\":19295:19372   */\n      0x4e487b7100000000000000000000000000000000000000000000000000000000\n        /* \"#utility.yul\":19292:19293   */\n      0x00\n        /* \"#utility.yul\":19285:19373   */\n      mstore\n        /* \"#utility.yul\":19392:19396   */\n      0x32\n        /* \"#utility.yul\":19389:19390   */\n      0x04\n        /* \"#utility.yul\":19382:19397   */\n      mstore\n        /* \"#utility.yul\":19416:19420   */\n      0x24\n        /* \"#utility.yul\":19413:19414   */\n      0x00\n        /* \"#utility.yul\":19406:19421   */\n      revert\n        /* \"#utility.yul\":19433:19599   */\n    tag_236:\n        /* \"#utility.yul\":19573:19591   */\n      0x616c726561647920657865637574656400000000000000000000000000000000\n        /* \"#utility.yul\":19569:19570   */\n      0x00\n        /* \"#utility.yul\":19561:19567   */\n      dup3\n        /* \"#utility.yul\":19557:19571   */\n      add\n        /* \"#utility.yul\":19550:19592   */\n      mstore\n        /* \"#utility.yul\":19433:19599   */\n      pop\n      jump\t// out\n        /* \"#utility.yul\":19605:19971   */\n    tag_237:\n        /* \"#utility.yul\":19747:19750   */\n      0x00\n        /* \"#utility.yul\":19768:19835   */\n      tag_457\n        /* \"#utility.yul\":19832:19834   */\n      0x10\n        /* \"#utility.yul\":19827:19830   */\n      dup4\n        /* \"#utility.yul\":19768:19835   */\n      tag_228\n      jump\t// in\n    tag_457:\n        /* \"#utility.yul\":19761:19835   */\n      swap2\n      pop\n        /* \"#utility.yul\":19844:19937   */\n      tag_458\n        /* \"#utility.yul\":19933:19936   */\n      dup3\n        /* \"#utility.yul\":19844:19937   */\n      tag_236\n      jump\t// in\n    tag_458:\n        /* \"#utility.yul\":19962:19964   */\n      0x20\n        /* \"#utility.yul\":19957:19960   */\n      dup3\n        /* \"#utility.yul\":19953:19965   */\n      add\n        /* \"#utility.yul\":19946:19965   */\n      swap1\n      pop\n        /* \"#utility.yul\":19605:19971   */\n      swap2\n      swap1\n      pop\n      jump\t// out\n        /* \"#utility.yul\":19977:20396   */\n    tag_113:\n        /* \"#utility.yul\":20143:20147   */\n      0x00\n        /* \"#utility.yul\":20181:20183   */\n      0x20\n        /* \"#utility.yul\":20170:20179   */\n      dup3\n        /* \"#utility.yul\":20166:20184   */\n      add\n        /* \"#utility.yul\":20158:20184   */\n      swap1\n      pop\n        /* \"#utility.yul\":20230:20239   */\n      dup2\n        /* \"#utility.yul\":20224:20228   */\n      dup2\n        /* \"#utility.yul\":20220:20240   */\n      sub\n        /* \"#utility.yul\":20216:20217   */\n      0x00\n        /* \"#utility.yul\":20205:20214   */\n      dup4\n        /* \"#utility.yul\":20201:20218   */\n      add\n        /* \"#utility.yul\":20194:20241   */\n      mstore\n        /* \"#utility.yul\":20258:20389   */\n      tag_460\n        /* \"#utility.yul\":20384:20388   */\n      dup2\n        /* \"#utility.yul\":20258:20389   */\n      tag_237\n      jump\t// in\n    tag_460:\n        /* \"#utility.yul\":20250:20389   */\n      swap1\n      pop\n        /* \"#utility.yul\":19977:20396   */\n      swap2\n      swap1\n      pop\n      jump\t// out\n        /* \"#utility.yul\":20402:20571   */\n    tag_238:\n        /* \"#utility.yul\":20542:20563   */\n      0x7478206e6f742079657420617070726f76656400000000000000000000000000\n        /* \"#utility.yul\":20538:20539   */\n      0x00\n        /* \"#utility.yul\":20530:20536   */\n      dup3\n        /* \"#utility.yul\":20526:20540   */\n      add\n        /* \"#utility.yul\":20519:20564   */\n      mstore\n        /* \"#utility.yul\":20402:20571   */\n      pop\n      jump\t// out\n        /* \"#utility.yul\":20577:20943   */\n    tag_239:\n        /* \"#utility.yul\":20719:20722   */\n      0x00\n        /* \"#utility.yul\":20740:20807   */\n      tag_463\n        /* \"#utility.yul\":20804:20806   */\n      0x13\n        /* \"#utility.yul\":20799:20802   */\n      dup4\n        /* \"#utility.yul\":20740:20807   */\n      tag_228\n      jump\t// in\n    tag_463:\n        /* \"#utility.yul\":20733:20807   */\n      swap2\n      pop\n        /* \"#utility.yul\":20816:20909   */\n      tag_464\n        /* \"#utility.yul\":20905:20908   */\n      dup3\n        /* \"#utility.yul\":20816:20909   */\n      tag_238\n      jump\t// in\n    tag_464:\n        /* \"#utility.yul\":20934:20936   */\n      0x20\n        /* \"#utility.yul\":20929:20932   */\n      dup3\n        /* \"#utility.yul\":20925:20937   */\n      add\n        /* \"#utility.yul\":20918:20937   */\n      swap1\n      pop\n        /* \"#utility.yul\":20577:20943   */\n      swap2\n      swap1\n      pop\n      jump\t// out\n        /* \"#utility.yul\":20949:21368   */\n    tag_119:\n        /* \"#utility.yul\":21115:21119   */\n      0x00\n        /* \"#utility.yul\":21153:21155   */\n      0x20\n        /* \"#utility.yul\":21142:21151   */\n      dup3\n        /* \"#utility.yul\":21138:21156   */\n      add\n        /* \"#utility.yul\":21130:21156   */\n      swap1\n      pop\n        /* \"#utility.yul\":21202:21211   */\n      dup2\n        /* \"#utility.yul\":21196:21200   */\n      dup2\n        /* \"#utility.yul\":21192:21212   */\n      sub\n        /* \"#utility.yul\":21188:21189   */\n      0x00\n        /* \"#utility.yul\":21177:21186   */\n      dup4\n        /* \"#utility.yul\":21173:21190   */\n      add\n        /* \"#utility.yul\":21166:21213   */\n      mstore\n        /* \"#utility.yul\":21230:21361   */\n      tag_466\n        /* \"#utility.yul\":21356:21360   */\n      dup2\n        /* \"#utility.yul\":21230:21361   */\n      tag_239\n      jump\t// in\n    tag_466:\n        /* \"#utility.yul\":21222:21361   */\n      swap1\n      pop\n        /* \"#utility.yul\":20949:21368   */\n      swap2\n      swap1\n      pop\n      jump\t// out\n        /* \"#utility.yul\":21374:21543   */\n    tag_240:\n        /* \"#utility.yul\":21514:21535   */\n      0x747820616c726561647920617070726f76656400000000000000000000000000\n        /* \"#utility.yul\":21510:21511   */\n      0x00\n        /* \"#utility.yul\":21502:21508   */\n      dup3\n        /* \"#utility.yul\":21498:21512   */\n      add\n        /* \"#utility.yul\":21491:21536   */\n      mstore\n        /* \"#utility.yul\":21374:21543   */\n      pop\n      jump\t// out\n        /* \"#utility.yul\":21549:21915   */\n    tag_241:\n        /* \"#utility.yul\":21691:21694   */\n      0x00\n        /* \"#utility.yul\":21712:21779   */\n      tag_469\n        /* \"#utility.yul\":21776:21778   */\n      0x13\n        /* \"#utility.yul\":21771:21774   */\n      dup4\n        /* \"#utility.yul\":21712:21779   */\n      tag_228\n      jump\t// in\n    tag_469:\n        /* \"#utility.yul\":21705:21779   */\n      swap2\n      pop\n        /* \"#utility.yul\":21788:21881   */\n      tag_470\n        /* \"#utility.yul\":21877:21880   */\n      dup3\n        /* \"#utility.yul\":21788:21881   */\n      tag_240\n      jump\t// in\n    tag_470:\n        /* \"#utility.yul\":21906:21908   */\n      0x20\n        /* \"#utility.yul\":21901:21904   */\n      dup3\n        /* \"#utility.yul\":21897:21909   */\n      add\n        /* \"#utility.yul\":21890:21909   */\n      swap1\n      pop\n        /* \"#utility.yul\":21549:21915   */\n      swap2\n      swap1\n      pop\n      jump\t// out\n        /* \"#utility.yul\":21921:22340   */\n    tag_141:\n        /* \"#utility.yul\":22087:22091   */\n      0x00\n        /* \"#utility.yul\":22125:22127   */\n      0x20\n        /* \"#utility.yul\":22114:22123   */\n      dup3\n        /* \"#utility.yul\":22110:22128   */\n      add\n        /* \"#utility.yul\":22102:22128   */\n      swap1\n      pop\n        /* \"#utility.yul\":22174:22183   */\n      dup2\n        /* \"#utility.yul\":22168:22172   */\n      dup2\n        /* \"#utility.yul\":22164:22184   */\n      sub\n        /* \"#utility.yul\":22160:22161   */\n      0x00\n        /* \"#utility.yul\":22149:22158   */\n      dup4\n        /* \"#utility.yul\":22145:22162   */\n      add\n        /* \"#utility.yul\":22138:22185   */\n      mstore\n        /* \"#utility.yul\":22202:22333   */\n      tag_472\n        /* \"#utility.yul\":22328:22332   */\n      dup2\n        /* \"#utility.yul\":22202:22333   */\n      tag_241\n      jump\t// in\n    tag_472:\n        /* \"#utility.yul\":22194:22333   */\n      swap1\n      pop\n        /* \"#utility.yul\":21921:22340   */\n      swap2\n      swap1\n      pop\n      jump\t// out\n        /* \"#utility.yul\":22346:22537   */\n    tag_150:\n        /* \"#utility.yul\":22386:22389   */\n      0x00\n        /* \"#utility.yul\":22405:22425   */\n      tag_474\n        /* \"#utility.yul\":22423:22424   */\n      dup3\n        /* \"#utility.yul\":22405:22425   */\n      tag_182\n      jump\t// in\n    tag_474:\n        /* \"#utility.yul\":22400:22425   */\n      swap2\n      pop\n        /* \"#utility.yul\":22439:22459   */\n      tag_475\n        /* \"#utility.yul\":22457:22458   */\n      dup4\n        /* \"#utility.yul\":22439:22459   */\n      tag_182\n      jump\t// in\n    tag_475:\n        /* \"#utility.yul\":22434:22459   */\n      swap3\n      pop\n        /* \"#utility.yul\":22482:22483   */\n      dup3\n        /* \"#utility.yul\":22479:22480   */\n      dup3\n        /* \"#utility.yul\":22475:22484   */\n      add\n        /* \"#utility.yul\":22468:22484   */\n      swap1\n      pop\n        /* \"#utility.yul\":22503:22506   */\n      dup1\n        /* \"#utility.yul\":22500:22501   */\n      dup3\n        /* \"#utility.yul\":22497:22507   */\n      gt\n        /* \"#utility.yul\":22494:22530   */\n      iszero\n      tag_476\n      jumpi\n        /* \"#utility.yul\":22510:22528   */\n      tag_477\n      tag_226\n      jump\t// in\n    tag_477:\n        /* \"#utility.yul\":22494:22530   */\n    tag_476:\n        /* \"#utility.yul\":22346:22537   */\n      swap3\n      swap2\n      pop\n      pop\n      jump\t// out\n        /* \"#utility.yul\":22543:22713   */\n    tag_242:\n        /* \"#utility.yul\":22683:22705   */\n      0x6e6f7420656e6f75676820617070726f76616c73000000000000000000000000\n        /* \"#utility.yul\":22679:22680   */\n      0x00\n        /* \"#utility.yul\":22671:22677   */\n      dup3\n        /* \"#utility.yul\":22667:22681   */\n      add\n        /* \"#utility.yul\":22660:22706   */\n      mstore\n        /* \"#utility.yul\":22543:22713   */\n      pop\n      jump\t// out\n        /* \"#utility.yul\":22719:23085   */\n    tag_243:\n        /* \"#utility.yul\":22861:22864   */\n      0x00\n        /* \"#utility.yul\":22882:22949   */\n      tag_480\n        /* \"#utility.yul\":22946:22948   */\n      0x14\n        /* \"#utility.yul\":22941:22944   */\n      dup4\n        /* \"#utility.yul\":22882:22949   */\n      tag_228\n      jump\t// in\n    tag_480:\n        /* \"#utility.yul\":22875:22949   */\n      swap2\n      pop\n        /* \"#utility.yul\":22958:23051   */\n      tag_481\n        /* \"#utility.yul\":23047:23050   */\n      dup3\n        /* \"#utility.yul\":22958:23051   */\n      tag_242\n      jump\t// in\n    tag_481:\n        /* \"#utility.yul\":23076:23078   */\n      0x20\n        /* \"#utility.yul\":23071:23074   */\n      dup3\n        /* \"#utility.yul\":23067:23079   */\n      add\n        /* \"#utility.yul\":23060:23079   */\n      swap1\n      pop\n        /* \"#utility.yul\":22719:23085   */\n      swap2\n      swap1\n      pop\n      jump\t// out\n        /* \"#utility.yul\":23091:23510   */\n    tag_164:\n        /* \"#utility.yul\":23257:23261   */\n      0x00\n        /* \"#utility.yul\":23295:23297   */\n      0x20\n        /* \"#utility.yul\":23284:23293   */\n      dup3\n        /* \"#utility.yul\":23280:23298   */\n      add\n        /* \"#utility.yul\":23272:23298   */\n      swap1\n      pop\n        /* \"#utility.yul\":23344:23353   */\n      dup2\n        /* \"#utility.yul\":23338:23342   */\n      dup2\n        /* \"#utility.yul\":23334:23354   */\n      sub\n        /* \"#utility.yul\":23330:23331   */\n      0x00\n        /* \"#utility.yul\":23319:23328   */\n      dup4\n        /* \"#utility.yul\":23315:23332   */\n      add\n        /* \"#utility.yul\":23308:23355   */\n      mstore\n        /* \"#utility.yul\":23372:23503   */\n      tag_483\n        /* \"#utility.yul\":23498:23502   */\n      dup2\n        /* \"#utility.yul\":23372:23503   */\n      tag_243\n      jump\t// in\n    tag_483:\n        /* \"#utility.yul\":23364:23503   */\n      swap1\n      pop\n        /* \"#utility.yul\":23091:23510   */\n      swap2\n      swap1\n      pop\n      jump\t// out\n        /* \"#utility.yul\":23516:23663   */\n    tag_244:\n        /* \"#utility.yul\":23617:23628   */\n      0x00\n        /* \"#utility.yul\":23654:23657   */\n      dup2\n        /* \"#utility.yul\":23639:23657   */\n      swap1\n      pop\n        /* \"#utility.yul\":23516:23663   */\n      swap3\n      swap2\n      pop\n      pop\n      jump\t// out\n        /* \"#utility.yul\":23691:24561   */\n    tag_245:\n        /* \"#utility.yul\":23792:23795   */\n      0x00\n        /* \"#utility.yul\":23829:23834   */\n      dup2\n        /* \"#utility.yul\":23823:23835   */\n      sload\n        /* \"#utility.yul\":23858:23894   */\n      tag_486\n        /* \"#utility.yul\":23884:23893   */\n      dup2\n        /* \"#utility.yul\":23858:23894   */\n      tag_126\n      jump\t// in\n    tag_486:\n        /* \"#utility.yul\":23910:23998   */\n      tag_487\n        /* \"#utility.yul\":23991:23997   */\n      dup2\n        /* \"#utility.yul\":23986:23989   */\n      dup7\n        /* \"#utility.yul\":23910:23998   */\n      tag_244\n      jump\t// in\n    tag_487:\n        /* \"#utility.yul\":23903:23998   */\n      swap5\n      pop\n        /* \"#utility.yul\":24029:24030   */\n      0x01\n        /* \"#utility.yul\":24018:24027   */\n      dup3\n        /* \"#utility.yul\":24014:24031   */\n      and\n        /* \"#utility.yul\":24045:24046   */\n      0x00\n        /* \"#utility.yul\":24040:24206   */\n      dup2\n      eq\n      tag_489\n      jumpi\n        /* \"#utility.yul\":24220:24221   */\n      0x01\n        /* \"#utility.yul\":24215:24555   */\n      dup2\n      eq\n      tag_490\n      jumpi\n        /* \"#utility.yul\":24007:24555   */\n      jump(tag_488)\n        /* \"#utility.yul\":24040:24206   */\n    tag_489:\n        /* \"#utility.yul\":24124:24128   */\n      0xff\n        /* \"#utility.yul\":24120:24129   */\n      not\n        /* \"#utility.yul\":24109:24118   */\n      dup4\n        /* \"#utility.yul\":24105:24130   */\n      and\n        /* \"#utility.yul\":24100:24103   */\n      dup7\n        /* \"#utility.yul\":24093:24131   */\n      mstore\n        /* \"#utility.yul\":24186:24192   */\n      dup2\n        /* \"#utility.yul\":24179:24193   */\n      iszero\n        /* \"#utility.yul\":24172:24194   */\n      iszero\n        /* \"#utility.yul\":24164:24170   */\n      dup3\n        /* \"#utility.yul\":24160:24195   */\n      mul\n        /* \"#utility.yul\":24155:24158   */\n      dup7\n        /* \"#utility.yul\":24151:24196   */\n      add\n        /* \"#utility.yul\":24144:24196   */\n      swap4\n      pop\n        /* \"#utility.yul\":24040:24206   */\n      jump(tag_488)\n        /* \"#utility.yul\":24215:24555   */\n    tag_490:\n        /* \"#utility.yul\":24282:24319   */\n      tag_491\n        /* \"#utility.yul\":24313:24318   */\n      dup6\n        /* \"#utility.yul\":24282:24319   */\n      tag_211\n      jump\t// in\n    tag_491:\n        /* \"#utility.yul\":24341:24342   */\n      0x00\n        /* \"#utility.yul\":24355:24509   */\n    tag_492:\n        /* \"#utility.yul\":24369:24375   */\n      dup4\n        /* \"#utility.yul\":24366:24367   */\n      dup2\n        /* \"#utility.yul\":24363:24376   */\n      lt\n        /* \"#utility.yul\":24355:24509   */\n      iszero\n      tag_494\n      jumpi\n        /* \"#utility.yul\":24443:24450   */\n      dup2\n        /* \"#utility.yul\":24437:24451   */\n      sload\n        /* \"#utility.yul\":24433:24434   */\n      dup2\n        /* \"#utility.yul\":24428:24431   */\n      dup10\n        /* \"#utility.yul\":24424:24435   */\n      add\n        /* \"#utility.yul\":24417:24452   */\n      mstore\n        /* \"#utility.yul\":24493:24494   */\n      0x01\n        /* \"#utility.yul\":24484:24491   */\n      dup3\n        /* \"#utility.yul\":24480:24495   */\n      add\n        /* \"#utility.yul\":24469:24495   */\n      swap2\n      pop\n        /* \"#utility.yul\":24391:24395   */\n      0x20\n        /* \"#utility.yul\":24388:24389   */\n      dup2\n        /* \"#utility.yul\":24384:24396   */\n      add\n        /* \"#utility.yul\":24379:24396   */\n      swap1\n      pop\n        /* \"#utility.yul\":24355:24509   */\n      jump(tag_492)\n    tag_494:\n        /* \"#utility.yul\":24538:24544   */\n      dup4\n        /* \"#utility.yul\":24533:24536   */\n      dup9\n        /* \"#utility.yul\":24529:24545   */\n      add\n        /* \"#utility.yul\":24522:24545   */\n      swap6\n      pop\n        /* \"#utility.yul\":24222:24555   */\n      pop\n      pop\n        /* \"#utility.yul\":24007:24555   */\n    tag_488:\n      pop\n        /* \"#utility.yul\":23796:24561   */\n      pop\n      pop\n        /* \"#utility.yul\":23691:24561   */\n      swap3\n      swap2\n      pop\n      pop\n      jump\t// out\n        /* \"#utility.yul\":24567:24832   */\n    tag_170:\n        /* \"#utility.yul\":24694:24697   */\n      0x00\n        /* \"#utility.yul\":24716:24806   */\n      tag_496\n        /* \"#utility.yul\":24802:24805   */\n      dup3\n        /* \"#utility.yul\":24793:24799   */\n      dup5\n        /* \"#utility.yul\":24716:24806   */\n      tag_245\n      jump\t// in\n    tag_496:\n        /* \"#utility.yul\":24709:24806   */\n      swap2\n      pop\n        /* \"#utility.yul\":24823:24826   */\n      dup2\n        /* \"#utility.yul\":24816:24826   */\n      swap1\n      pop\n        /* \"#utility.yul\":24567:24832   */\n      swap3\n      swap2\n      pop\n      pop\n      jump\t// out\n        /* \"#utility.yul\":24838:24997   */\n    tag_246:\n        /* \"#utility.yul\":24978:24989   */\n      0x7478206661696c65640000000000000000000000000000000000000000000000\n        /* \"#utility.yul\":24974:24975   */\n      0x00\n        /* \"#utility.yul\":24966:24972   */\n      dup3\n        /* \"#utility.yul\":24962:24976   */\n      add\n        /* \"#utility.yul\":24955:24990   */\n      mstore\n        /* \"#utility.yul\":24838:24997   */\n      pop\n      jump\t// out\n        /* \"#utility.yul\":25003:25368   */\n    tag_247:\n        /* \"#utility.yul\":25145:25148   */\n      0x00\n        /* \"#utility.yul\":25166:25232   */\n      tag_499\n        /* \"#utility.yul\":25230:25231   */\n      0x09\n        /* \"#utility.yul\":25225:25228   */\n      dup4\n        /* \"#utility.yul\":25166:25232   */\n      tag_228\n      jump\t// in\n    tag_499:\n        /* \"#utility.yul\":25159:25232   */\n      swap2\n      pop\n        /* \"#utility.yul\":25241:25334   */\n      tag_500\n        /* \"#utility.yul\":25330:25333   */\n      dup3\n        /* \"#utility.yul\":25241:25334   */\n      tag_246\n      jump\t// in\n    tag_500:\n        /* \"#utility.yul\":25359:25361   */\n      0x20\n        /* \"#utility.yul\":25354:25357   */\n      dup3\n        /* \"#utility.yul\":25350:25362   */\n      add\n        /* \"#utility.yul\":25343:25362   */\n      swap1\n      pop\n        /* \"#utility.yul\":25003:25368   */\n      swap2\n      swap1\n      pop\n      jump\t// out\n        /* \"#utility.yul\":25374:25793   */\n    tag_176:\n        /* \"#utility.yul\":25540:25544   */\n      0x00\n        /* \"#utility.yul\":25578:25580   */\n      0x20\n        /* \"#utility.yul\":25567:25576   */\n      dup3\n        /* \"#utility.yul\":25563:25581   */\n      add\n        /* \"#utility.yul\":25555:25581   */\n      swap1\n      pop\n        /* \"#utility.yul\":25627:25636   */\n      dup2\n        /* \"#utility.yul\":25621:25625   */\n      dup2\n        /* \"#utility.yul\":25617:25637   */\n      sub\n        /* \"#utility.yul\":25613:25614   */\n      0x00\n        /* \"#utility.yul\":25602:25611   */\n      dup4\n        /* \"#utility.yul\":25598:25615   */\n      add\n        /* \"#utility.yul\":25591:25638   */\n      mstore\n        /* \"#utility.yul\":25655:25786   */\n      tag_502\n        /* \"#utility.yul\":25781:25785   */\n      dup2\n        /* \"#utility.yul\":25655:25786   */\n      tag_247\n      jump\t// in\n    tag_502:\n        /* \"#utility.yul\":25647:25786   */\n      swap1\n      pop\n        /* \"#utility.yul\":25374:25793   */\n      swap2\n      swap1\n      pop\n      jump\t// out\n\n    auxdata: 0xa26469706673582212202f1380343702e10b19d46a747d63fe237928439b413cbd4e2913de62fdbaa74964736f6c634300081a0033\n}\n",
				"bytecode": {
					"linkReferences": {},
					"object": "60a060405234801561000f575f80fd5b50604051612290380380612290833981810160405281019061003191906104a5565b815f815111610075576040517f08c379a000000000000000000000000000000000000000000000000000000000815260040161006c90610559565b60405180910390fd5b5f5b8151811015610257575f82828151811061009457610093610577565b5b602002602001015190505f73ffffffffffffffffffffffffffffffffffffffff168173ffffffffffffffffffffffffffffffffffffffff160361010c576040517f08c379a0000000000000000000000000000000000000000000000000000000008152600401610103906105ee565b60405180910390fd5b60015f8273ffffffffffffffffffffffffffffffffffffffff1673ffffffffffffffffffffffffffffffffffffffff1681526020019081526020015f205f9054906101000a900460ff1615610196576040517f08c379a000000000000000000000000000000000000000000000000000000000815260040161018d90610656565b60405180910390fd5b5f81908060018154018082558091505060019003905f5260205f20015f9091909190916101000a81548173ffffffffffffffffffffffffffffffffffffffff021916908373ffffffffffffffffffffffffffffffffffffffff1602179055506001805f8373ffffffffffffffffffffffffffffffffffffffff1673ffffffffffffffffffffffffffffffffffffffff1681526020019081526020015f205f6101000a81548160ff021916908315150217905550508080600101915050610077565b50505f81118015610269575081518111155b6102a8576040517f08c379a000000000000000000000000000000000000000000000000000000000815260040161029f906106be565b60405180910390fd5b806080818152505050506106dc565b5f604051905090565b5f80fd5b5f80fd5b5f80fd5b5f601f19601f8301169050919050565b7f4e487b71000000000000000000000000000000000000000000000000000000005f52604160045260245ffd5b610312826102cc565b810181811067ffffffffffffffff82111715610331576103306102dc565b5b80604052505050565b5f6103436102b7565b905061034f8282610309565b919050565b5f67ffffffffffffffff82111561036e5761036d6102dc565b5b602082029050602081019050919050565b5f80fd5b5f73ffffffffffffffffffffffffffffffffffffffff82169050919050565b5f6103ac82610383565b9050919050565b6103bc816103a2565b81146103c6575f80fd5b50565b5f815190506103d7816103b3565b92915050565b5f6103ef6103ea84610354565b61033a565b905080838252602082019050602084028301858111156104125761041161037f565b5b835b8181101561043b578061042788826103c9565b845260208401935050602081019050610414565b5050509392505050565b5f82601f830112610459576104586102c8565b5b81516104698482602086016103dd565b91505092915050565b5f819050919050565b61048481610472565b811461048e575f80fd5b50565b5f8151905061049f8161047b565b92915050565b5f80604083850312156104bb576104ba6102c0565b5b5f83015167ffffffffffffffff8111156104d8576104d76102c4565b5b6104e485828601610445565b92505060206104f585828601610491565b9150509250929050565b5f82825260208201905092915050565b7f6e6f206f776e65727300000000000000000000000000000000000000000000005f82015250565b5f6105436009836104ff565b915061054e8261050f565b602082019050919050565b5f6020820190508181035f83015261057081610537565b9050919050565b7f4e487b71000000000000000000000000000000000000000000000000000000005f52603260045260245ffd5b7f7a65726f206164647265737300000000000000000000000000000000000000005f82015250565b5f6105d8600c836104ff565b91506105e3826105a4565b602082019050919050565b5f6020820190508181035f830152610605816105cc565b9050919050565b7f6e6f7420756e69717565000000000000000000000000000000000000000000005f82015250565b5f610640600a836104ff565b915061064b8261060c565b602082019050919050565b5f6020820190508181035f83015261066d81610634565b9050919050565b7f696e76616c696420617070726f76616c7320636f756e740000000000000000005f82015250565b5f6106a86017836104ff565b91506106b382610674565b602082019050919050565b5f6020820190508181035f8301526106d58161069c565b9050919050565b608051611b956106fb5f395f818161081a0152610c510152611b955ff3fe6080604052600436106100aa575f3560e01c806399c1aadc1161006357806399c1aadc146101fd5780639ace38c214610227578063abaf742a14610266578063b759f954146102a2578063d0e30db0146102ca578063fe0d94c1146102d4576100b9565b8063025e7c27146100bd57806314de327f146100f957806317fe2da21461012157806320c5429b1461015d5780632f54bf6e146101855780638253951a146101c1576100b9565b366100b9576100b76102fc565b005b5f80fd5b3480156100c8575f80fd5b506100e360048036038101906100de9190610eba565b610337565b6040516100f09190610f24565b60405180910390f35b348015610104575f80fd5b5061011f600480360381019061011a9190610fc8565b610371565b005b34801561012c575f80fd5b5061014760048036038101906101429190611171565b6104ed565b6040516101549190611247565b60405180910390f35b348015610168575f80fd5b50610183600480360381019061017e9190610eba565b61057b565b005b348015610190575f80fd5b506101ab60048036038101906101a69190611267565b6107d1565b6040516101b891906112ac565b60405180910390f35b3480156101cc575f80fd5b506101e760048036038101906101e291906112c5565b6107ee565b6040516101f491906112ac565b60405180910390f35b348015610208575f80fd5b50610211610818565b60405161021e9190611312565b60405180910390f35b348015610232575f80fd5b5061024d60048036038101906102489190610eba565b61083c565b60405161025d949392919061132b565b60405180910390f35b348015610271575f80fd5b5061028c60048036038101906102879190610eba565b610928565b6040516102999190611312565b60405180910390f35b3480156102ad575f80fd5b506102c860048036038101906102c39190610eba565b61093d565b005b6102d26102fc565b005b3480156102df575f80fd5b506102fa60048036038101906102f59190610eba565b610b95565b005b7fe1fffcc4923d04b559f4d29a8bfc6cda04eb5b0d3c460751c2402c5c5cc9109c333460405161032d929190611375565b60405180910390a1565b5f8181548110610345575f80fd5b905f5260205f20015f915054906101000a900473ffffffffffffffffffffffffffffffffffffffff1681565b5f60405180608001604052808673ffffffffffffffffffffffffffffffffffffffff16815260200185815260200184848080601f0160208091040260200160405190810160405280939291908181526020018383808284375f81840152601f19601f8201169050808301925050505050505081526020015f15158152509050600281908060018154018082558091505060019003905f5260205f2090600402015f909190919091505f820151815f015f6101000a81548173ffffffffffffffffffffffffffffffffffffffff021916908373ffffffffffffffffffffffffffffffffffffffff16021790555060208201518160010155604082015181600201908161047c9190611596565b506060820151816003015f6101000a81548160ff02191690831515021790555050507f08324b3d745b914e3abd4ffbfead91e3b78391a98c173202129215ab933adfbe60016002805490506104d19190611692565b6040516104de9190611312565b60405180910390a15050505050565b606082826040516024016105019190611717565b6040516020818303038152906040529060405161051e9190611771565b60405180910390207bffffffffffffffffffffffffffffffffffffffffffffffffffffffff19166020820180517bffffffffffffffffffffffffffffffffffffffffffffffffffffffff8381831617835250505050905092915050565b60015f3373ffffffffffffffffffffffffffffffffffffffff1673ffffffffffffffffffffffffffffffffffffffff1681526020019081526020015f205f9054906101000a900460ff16610604576040517f08c379a00000000000000000000000000000000000000000000000000000000081526004016105fb906117d1565b60405180910390fd5b80600280549050811061064c576040517f08c379a000000000000000000000000000000000000000000000000000000000815260040161064390611839565b60405180910390fd5b816002818154811061066157610660611857565b5b905f5260205f2090600402016003015f9054906101000a900460ff16156106bd576040517f08c379a00000000000000000000000000000000000000000000000000000000081526004016106b4906118ce565b60405180910390fd5b826106c88133610e14565b610707576040517f08c379a00000000000000000000000000000000000000000000000000000000081526004016106fe90611936565b60405180910390fd5b5f60045f8681526020019081526020015f205f3373ffffffffffffffffffffffffffffffffffffffff1673ffffffffffffffffffffffffffffffffffffffff1681526020019081526020015f205f6101000a81548160ff021916908315150217905550600160035f8681526020019081526020015f205f82825461078b9190611692565b925050819055507fec9ab91322523c899ede7830ec9bfc992b5981cdcc27b91162fb23de5791117b33856040516107c3929190611375565b60405180910390a150505050565b6001602052805f5260405f205f915054906101000a900460ff1681565b6004602052815f5260405f20602052805f5260405f205f915091509054906101000a900460ff1681565b7f000000000000000000000000000000000000000000000000000000000000000081565b6002818154811061084b575f80fd5b905f5260205f2090600402015f91509050805f015f9054906101000a900473ffffffffffffffffffffffffffffffffffffffff1690806001015490806002018054610895906113c9565b80601f01602080910402602001604051908101604052809291908181526020018280546108c1906113c9565b801561090c5780601f106108e35761010080835404028352916020019161090c565b820191905f5260205f20905b8154815290600101906020018083116108ef57829003601f168201915b505050505090806003015f9054906101000a900460ff16905084565b6003602052805f5260405f205f915090505481565b60015f3373ffffffffffffffffffffffffffffffffffffffff1673ffffffffffffffffffffffffffffffffffffffff1681526020019081526020015f205f9054906101000a900460ff166109c6576040517f08c379a00000000000000000000000000000000000000000000000000000000081526004016109bd906117d1565b60405180910390fd5b806002805490508110610a0e576040517f08c379a0000000000000000000000000000000000000000000000000000000008152600401610a0590611839565b60405180910390fd5b81610a198133610e14565b15610a59576040517f08c379a0000000000000000000000000000000000000000000000000000000008152600401610a509061199e565b60405180910390fd5b8260028181548110610a6e57610a6d611857565b5b905f5260205f2090600402016003015f9054906101000a900460ff1615610aca576040517f08c379a0000000000000000000000000000000000000000000000000000000008152600401610ac1906118ce565b60405180910390fd5b600160045f8681526020019081526020015f205f3373ffffffffffffffffffffffffffffffffffffffff1673ffffffffffffffffffffffffffffffffffffffff1681526020019081526020015f205f6101000a81548160ff021916908315150217905550600160035f8681526020019081526020015f205f828254610b4f91906119bc565b925050819055507f90ec57f18fa7b15c6b8d5e4d1deb90796c74b2ff23d4d0cecad0cb42a96b31283385604051610b87929190611375565b60405180910390a150505050565b806002805490508110610bdd576040517f08c379a0000000000000000000000000000000000000000000000000000000008152600401610bd490611839565b60405180910390fd5b8160028181548110610bf257610bf1611857565b5b905f5260205f2090600402016003015f9054906101000a900460ff1615610c4e576040517f08c379a0000000000000000000000000000000000000000000000000000000008152600401610c45906118ce565b60405180910390fd5b827f000000000000000000000000000000000000000000000000000000000000000060035f8381526020019081526020015f20541015610cc3576040517f08c379a0000000000000000000000000000000000000000000000000000000008152600401610cba90611a39565b60405180910390fd5b5f60028581548110610cd857610cd7611857565b5b905f5260205f20906004020190505f815f015f9054906101000a900473ffffffffffffffffffffffffffffffffffffffff1673ffffffffffffffffffffffffffffffffffffffff16826001015483600201604051610d369190611ae1565b5f6040518083038185875af1925050503d805f8114610d70576040519150601f19603f3d011682016040523d82523d5f602084013e610d75565b606091505b5050905080610db9576040517f08c379a0000000000000000000000000000000000000000000000000000000008152600401610db090611b41565b60405180910390fd5b6001826003015f6101000a81548160ff0219169083151502179055507fbcf6a68a2f901be4a23a41b53acd7697893a7e34def4e28acba584da75283b6786604051610e049190611312565b60405180910390a1505050505050565b5f60045f8481526020019081526020015f205f8373ffffffffffffffffffffffffffffffffffffffff1673ffffffffffffffffffffffffffffffffffffffff1681526020019081526020015f205f9054906101000a900460ff16905092915050565b5f604051905090565b5f80fd5b5f80fd5b5f819050919050565b610e9981610e87565b8114610ea3575f80fd5b50565b5f81359050610eb481610e90565b92915050565b5f60208284031215610ecf57610ece610e7f565b5b5f610edc84828501610ea6565b91505092915050565b5f73ffffffffffffffffffffffffffffffffffffffff82169050919050565b5f610f0e82610ee5565b9050919050565b610f1e81610f04565b82525050565b5f602082019050610f375f830184610f15565b92915050565b610f4681610f04565b8114610f50575f80fd5b50565b5f81359050610f6181610f3d565b92915050565b5f80fd5b5f80fd5b5f80fd5b5f8083601f840112610f8857610f87610f67565b5b8235905067ffffffffffffffff811115610fa557610fa4610f6b565b5b602083019150836001820283011115610fc157610fc0610f6f565b5b9250929050565b5f805f8060608587031215610fe057610fdf610e7f565b5b5f610fed87828801610f53565b9450506020610ffe87828801610ea6565b935050604085013567ffffffffffffffff81111561101f5761101e610e83565b5b61102b87828801610f73565b925092505092959194509250565b5f80fd5b5f601f19601f8301169050919050565b7f4e487b71000000000000000000000000000000000000000000000000000000005f52604160045260245ffd5b6110838261103d565b810181811067ffffffffffffffff821117156110a2576110a161104d565b5b80604052505050565b5f6110b4610e76565b90506110c0828261107a565b919050565b5f67ffffffffffffffff8211156110df576110de61104d565b5b6110e88261103d565b9050602081019050919050565b828183375f83830152505050565b5f611115611110846110c5565b6110ab565b90508281526020810184848401111561113157611130611039565b5b61113c8482856110f5565b509392505050565b5f82601f83011261115857611157610f67565b5b8135611168848260208601611103565b91505092915050565b5f806040838503121561118757611186610e7f565b5b5f83013567ffffffffffffffff8111156111a4576111a3610e83565b5b6111b085828601611144565b925050602083013567ffffffffffffffff8111156111d1576111d0610e83565b5b6111dd85828601611144565b9150509250929050565b5f81519050919050565b5f82825260208201905092915050565b8281835e5f83830152505050565b5f611219826111e7565b61122381856111f1565b9350611233818560208601611201565b61123c8161103d565b840191505092915050565b5f6020820190508181035f83015261125f818461120f565b905092915050565b5f6020828403121561127c5761127b610e7f565b5b5f61128984828501610f53565b91505092915050565b5f8115159050919050565b6112a681611292565b82525050565b5f6020820190506112bf5f83018461129d565b92915050565b5f80604083850312156112db576112da610e7f565b5b5f6112e885828601610ea6565b92505060206112f985828601610f53565b9150509250929050565b61130c81610e87565b82525050565b5f6020820190506113255f830184611303565b92915050565b5f60808201905061133e5f830187610f15565b61134b6020830186611303565b818103604083015261135d818561120f565b905061136c606083018461129d565b95945050505050565b5f6040820190506113885f830185610f15565b6113956020830184611303565b9392505050565b7f4e487b71000000000000000000000000000000000000000000000000000000005f52602260045260245ffd5b5f60028204905060018216806113e057607f821691505b6020821081036113f3576113f261139c565b5b50919050565b5f819050815f5260205f209050919050565b5f6020601f8301049050919050565b5f82821b905092915050565b5f600883026114557fffffffffffffffffffffffffffffffffffffffffffffffffffffffffffffffff8261141a565b61145f868361141a565b95508019841693508086168417925050509392505050565b5f819050919050565b5f61149a61149561149084610e87565b611477565b610e87565b9050919050565b5f819050919050565b6114b383611480565b6114c76114bf826114a1565b848454611426565b825550505050565b5f90565b6114db6114cf565b6114e68184846114aa565b505050565b5b81811015611509576114fe5f826114d3565b6001810190506114ec565b5050565b601f82111561154e5761151f816113f9565b6115288461140b565b81016020851015611537578190505b61154b6115438561140b565b8301826114eb565b50505b505050565b5f82821c905092915050565b5f61156e5f1984600802611553565b1980831691505092915050565b5f611586838361155f565b9150826002028217905092915050565b61159f826111e7565b67ffffffffffffffff8111156115b8576115b761104d565b5b6115c282546113c9565b6115cd82828561150d565b5f60209050601f8311600181146115fe575f84156115ec578287015190505b6115f6858261157b565b86555061165d565b601f19841661160c866113f9565b5f5b828110156116335784890151825560018201915060208501945060208101905061160e565b86831015611650578489015161164c601f89168261155f565b8355505b6001600288020188555050505b505050505050565b7f4e487b71000000000000000000000000000000000000000000000000000000005f52601160045260245ffd5b5f61169c82610e87565b91506116a783610e87565b92508282039050818111156116bf576116be611665565b5b92915050565b5f81519050919050565b5f82825260208201905092915050565b5f6116e9826116c5565b6116f381856116cf565b9350611703818560208601611201565b61170c8161103d565b840191505092915050565b5f6020820190508181035f83015261172f81846116df565b905092915050565b5f81905092915050565b5f61174b826116c5565b6117558185611737565b9350611765818560208601611201565b80840191505092915050565b5f61177c8284611741565b915081905092915050565b7f6e6f7420616e206f776e657200000000000000000000000000000000000000005f82015250565b5f6117bb600c836116cf565b91506117c682611787565b602082019050919050565b5f6020820190508181035f8301526117e8816117af565b9050919050565b7f747820646f6573206e6f742065786973740000000000000000000000000000005f82015250565b5f6118236011836116cf565b915061182e826117ef565b602082019050919050565b5f6020820190508181035f83015261185081611817565b9050919050565b7f4e487b71000000000000000000000000000000000000000000000000000000005f52603260045260245ffd5b7f616c7265616479206578656375746564000000000000000000000000000000005f82015250565b5f6118b86010836116cf565b91506118c382611884565b602082019050919050565b5f6020820190508181035f8301526118e5816118ac565b9050919050565b7f7478206e6f742079657420617070726f766564000000000000000000000000005f82015250565b5f6119206013836116cf565b915061192b826118ec565b602082019050919050565b5f6020820190508181035f83015261194d81611914565b9050919050565b7f747820616c726561647920617070726f766564000000000000000000000000005f82015250565b5f6119886013836116cf565b915061199382611954565b602082019050919050565b5f6020820190508181035f8301526119b58161197c565b9050919050565b5f6119c682610e87565b91506119d183610e87565b92508282019050808211156119e9576119e8611665565b5b92915050565b7f6e6f7420656e6f75676820617070726f76616c730000000000000000000000005f82015250565b5f611a236014836116cf565b9150611a2e826119ef565b602082019050919050565b5f6020820190508181035f830152611a5081611a17565b9050919050565b5f81905092915050565b5f8154611a6d816113c9565b611a778186611a57565b9450600182165f8114611a915760018114611aa657611ad8565b60ff1983168652811515820286019350611ad8565b611aaf856113f9565b5f5b83811015611ad057815481890152600182019150602081019050611ab1565b838801955050505b50505092915050565b5f611aec8284611a61565b915081905092915050565b7f7478206661696c656400000000000000000000000000000000000000000000005f82015250565b5f611b2b6009836116cf565b9150611b3682611af7565b602082019050919050565b5f6020820190508181035f830152611b5881611b1f565b905091905056fea26469706673582212202f1380343702e10b19d46a747d63fe237928439b413cbd4e2913de62fdbaa74964736f6c634300081a0033",
					"opcodes": "PUSH1 0xA0 PUSH1 0x40 MSTORE CALLVALUE DUP1 ISZERO PUSH2 0xF JUMPI PUSH0 DUP1 REVERT JUMPDEST POP PUSH1 0x40 MLOAD PUSH2 0x2290 CODESIZE SUB DUP1 PUSH2 0x2290 DUP4 CODECOPY DUP2 DUP2 ADD PUSH1 0x40 MSTORE DUP2 ADD SWAP1 PUSH2 0x31 SWAP2 SWAP1 PUSH2 0x4A5 JUMP JUMPDEST DUP2 PUSH0 DUP2 MLOAD GT PUSH2 0x75 JUMPI PUSH1 0x40 MLOAD PUSH32 0x8C379A000000000000000000000000000000000000000000000000000000000 DUP2 MSTORE PUSH1 0x4 ADD PUSH2 0x6C SWAP1 PUSH2 0x559 JUMP JUMPDEST PUSH1 0x40 MLOAD DUP1 SWAP2 SUB SWAP1 REVERT JUMPDEST PUSH0 JUMPDEST DUP2 MLOAD DUP2 LT ISZERO PUSH2 0x257 JUMPI PUSH0 DUP3 DUP3 DUP2 MLOAD DUP2 LT PUSH2 0x94 JUMPI PUSH2 0x93 PUSH2 0x577 JUMP JUMPDEST JUMPDEST PUSH1 0x20 MUL PUSH1 0x20 ADD ADD MLOAD SWAP1 POP PUSH0 PUSH20 0xFFFFFFFFFFFFFFFFFFFFFFFFFFFFFFFFFFFFFFFF AND DUP2 PUSH20 0xFFFFFFFFFFFFFFFFFFFFFFFFFFFFFFFFFFFFFFFF AND SUB PUSH2 0x10C JUMPI PUSH1 0x40 MLOAD PUSH32 0x8C379A000000000000000000000000000000000000000000000000000000000 DUP2 MSTORE PUSH1 0x4 ADD PUSH2 0x103 SWAP1 PUSH2 0x5EE JUMP JUMPDEST PUSH1 0x40 MLOAD DUP1 SWAP2 SUB SWAP1 REVERT JUMPDEST PUSH1 0x1 PUSH0 DUP3 PUSH20 0xFFFFFFFFFFFFFFFFFFFFFFFFFFFFFFFFFFFFFFFF AND PUSH20 0xFFFFFFFFFFFFFFFFFFFFFFFFFFFFFFFFFFFFFFFF AND DUP2 MSTORE PUSH1 0x20 ADD SWAP1 DUP2 MSTORE PUSH1 0x20 ADD PUSH0 KECCAK256 PUSH0 SWAP1 SLOAD SWAP1 PUSH2 0x100 EXP SWAP1 DIV PUSH1 0xFF AND ISZERO PUSH2 0x196 JUMPI PUSH1 0x40 MLOAD PUSH32 0x8C379A000000000000000000000000000000000000000000000000000000000 DUP2 MSTORE PUSH1 0x4 ADD PUSH2 0x18D SWAP1 PUSH2 0x656 JUMP JUMPDEST PUSH1 0x40 MLOAD DUP1 SWAP2 SUB SWAP1 REVERT JUMPDEST PUSH0 DUP2 SWAP1 DUP1 PUSH1 0x1 DUP2 SLOAD ADD DUP1 DUP3 SSTORE DUP1 SWAP2 POP POP PUSH1 0x1 SWAP1 SUB SWAP1 PUSH0 MSTORE PUSH1 0x20 PUSH0 KECCAK256 ADD PUSH0 SWAP1 SWAP2 SWAP1 SWAP2 SWAP1 SWAP2 PUSH2 0x100 EXP DUP2 SLOAD DUP2 PUSH20 0xFFFFFFFFFFFFFFFFFFFFFFFFFFFFFFFFFFFFFFFF MUL NOT AND SWAP1 DUP4 PUSH20 0xFFFFFFFFFFFFFFFFFFFFFFFFFFFFFFFFFFFFFFFF AND MUL OR SWAP1 SSTORE POP PUSH1 0x1 DUP1 PUSH0 DUP4 PUSH20 0xFFFFFFFFFFFFFFFFFFFFFFFFFFFFFFFFFFFFFFFF AND PUSH20 0xFFFFFFFFFFFFFFFFFFFFFFFFFFFFFFFFFFFFFFFF AND DUP2 MSTORE PUSH1 0x20 ADD SWAP1 DUP2 MSTORE PUSH1 0x20 ADD PUSH0 KECCAK256 PUSH0 PUSH2 0x100 EXP DUP2 SLOAD DUP2 PUSH1 0xFF MUL NOT AND SWAP1 DUP4 ISZERO ISZERO MUL OR SWAP1 SSTORE POP POP DUP1 DUP1 PUSH1 0x1 ADD SWAP2 POP POP PUSH2 0x77 JUMP JUMPDEST POP POP PUSH0 DUP2 GT DUP1 ISZERO PUSH2 0x269 JUMPI POP DUP2 MLOAD DUP2 GT ISZERO JUMPDEST PUSH2 0x2A8 JUMPI PUSH1 0x40 MLOAD PUSH32 0x8C379A000000000000000000000000000000000000000000000000000000000 DUP2 MSTORE PUSH1 0x4 ADD PUSH2 0x29F SWAP1 PUSH2 0x6BE JUMP JUMPDEST PUSH1 0x40 MLOAD DUP1 SWAP2 SUB SWAP1 REVERT JUMPDEST DUP1 PUSH1 0x80 DUP2 DUP2 MSTORE POP POP POP POP PUSH2 0x6DC JUMP JUMPDEST PUSH0 PUSH1 0x40 MLOAD SWAP1 POP SWAP1 JUMP JUMPDEST PUSH0 DUP1 REVERT JUMPDEST PUSH0 DUP1 REVERT JUMPDEST PUSH0 DUP1 REVERT JUMPDEST PUSH0 PUSH1 0x1F NOT PUSH1 0x1F DUP4 ADD AND SWAP1 POP SWAP2 SWAP1 POP JUMP JUMPDEST PUSH32 0x4E487B7100000000000000000000000000000000000000000000000000000000 PUSH0 MSTORE PUSH1 0x41 PUSH1 0x4 MSTORE PUSH1 0x24 PUSH0 REVERT JUMPDEST PUSH2 0x312 DUP3 PUSH2 0x2CC JUMP JUMPDEST DUP2 ADD DUP2 DUP2 LT PUSH8 0xFFFFFFFFFFFFFFFF DUP3 GT OR ISZERO PUSH2 0x331 JUMPI PUSH2 0x330 PUSH2 0x2DC JUMP JUMPDEST JUMPDEST DUP1 PUSH1 0x40 MSTORE POP POP POP JUMP JUMPDEST PUSH0 PUSH2 0x343 PUSH2 0x2B7 JUMP JUMPDEST SWAP1 POP PUSH2 0x34F DUP3 DUP3 PUSH2 0x309 JUMP JUMPDEST SWAP2 SWAP1 POP JUMP JUMPDEST PUSH0 PUSH8 0xFFFFFFFFFFFFFFFF DUP3 GT ISZERO PUSH2 0x36E JUMPI PUSH2 0x36D PUSH2 0x2DC JUMP JUMPDEST JUMPDEST PUSH1 0x20 DUP3 MUL SWAP1 POP PUSH1 0x20 DUP2 ADD SWAP1 POP SWAP2 SWAP1 POP JUMP JUMPDEST PUSH0 DUP1 REVERT JUMPDEST PUSH0 PUSH20 0xFFFFFFFFFFFFFFFFFFFFFFFFFFFFFFFFFFFFFFFF DUP3 AND SWAP1 POP SWAP2 SWAP1 POP JUMP JUMPDEST PUSH0 PUSH2 0x3AC DUP3 PUSH2 0x383 JUMP JUMPDEST SWAP1 POP SWAP2 SWAP1 POP JUMP JUMPDEST PUSH2 0x3BC DUP2 PUSH2 0x3A2 JUMP JUMPDEST DUP2 EQ PUSH2 0x3C6 JUMPI PUSH0 DUP1 REVERT JUMPDEST POP JUMP JUMPDEST PUSH0 DUP2 MLOAD SWAP1 POP PUSH2 0x3D7 DUP2 PUSH2 0x3B3 JUMP JUMPDEST SWAP3 SWAP2 POP POP JUMP JUMPDEST PUSH0 PUSH2 0x3EF PUSH2 0x3EA DUP5 PUSH2 0x354 JUMP JUMPDEST PUSH2 0x33A JUMP JUMPDEST SWAP1 POP DUP1 DUP4 DUP3 MSTORE PUSH1 0x20 DUP3 ADD SWAP1 POP PUSH1 0x20 DUP5 MUL DUP4 ADD DUP6 DUP2 GT ISZERO PUSH2 0x412 JUMPI PUSH2 0x411 PUSH2 0x37F JUMP JUMPDEST JUMPDEST DUP4 JUMPDEST DUP2 DUP2 LT ISZERO PUSH2 0x43B JUMPI DUP1 PUSH2 0x427 DUP9 DUP3 PUSH2 0x3C9 JUMP JUMPDEST DUP5 MSTORE PUSH1 0x20 DUP5 ADD SWAP4 POP POP PUSH1 0x20 DUP2 ADD SWAP1 POP PUSH2 0x414 JUMP JUMPDEST POP POP POP SWAP4 SWAP3 POP POP POP JUMP JUMPDEST PUSH0 DUP3 PUSH1 0x1F DUP4 ADD SLT PUSH2 0x459 JUMPI PUSH2 0x458 PUSH2 0x2C8 JUMP JUMPDEST JUMPDEST DUP2 MLOAD PUSH2 0x469 DUP5 DUP3 PUSH1 0x20 DUP7 ADD PUSH2 0x3DD JUMP JUMPDEST SWAP2 POP POP SWAP3 SWAP2 POP POP JUMP JUMPDEST PUSH0 DUP2 SWAP1 POP SWAP2 SWAP1 POP JUMP JUMPDEST PUSH2 0x484 DUP2 PUSH2 0x472 JUMP JUMPDEST DUP2 EQ PUSH2 0x48E JUMPI PUSH0 DUP1 REVERT JUMPDEST POP JUMP JUMPDEST PUSH0 DUP2 MLOAD SWAP1 POP PUSH2 0x49F DUP2 PUSH2 0x47B JUMP JUMPDEST SWAP3 SWAP2 POP POP JUMP JUMPDEST PUSH0 DUP1 PUSH1 0x40 DUP4 DUP6 SUB SLT ISZERO PUSH2 0x4BB JUMPI PUSH2 0x4BA PUSH2 0x2C0 JUMP JUMPDEST JUMPDEST PUSH0 DUP4 ADD MLOAD PUSH8 0xFFFFFFFFFFFFFFFF DUP2 GT ISZERO PUSH2 0x4D8 JUMPI PUSH2 0x4D7 PUSH2 0x2C4 JUMP JUMPDEST JUMPDEST PUSH2 0x4E4 DUP6 DUP3 DUP7 ADD PUSH2 0x445 JUMP JUMPDEST SWAP3 POP POP PUSH1 0x20 PUSH2 0x4F5 DUP6 DUP3 DUP7 ADD PUSH2 0x491 JUMP JUMPDEST SWAP2 POP POP SWAP3 POP SWAP3 SWAP1 POP JUMP JUMPDEST PUSH0 DUP3 DUP3 MSTORE PUSH1 0x20 DUP3 ADD SWAP1 POP SWAP3 SWAP2 POP POP JUMP JUMPDEST PUSH32 0x6E6F206F776E6572730000000000000000000000000000000000000000000000 PUSH0 DUP3 ADD MSTORE POP JUMP JUMPDEST PUSH0 PUSH2 0x543 PUSH1 0x9 DUP4 PUSH2 0x4FF JUMP JUMPDEST SWAP2 POP PUSH2 0x54E DUP3 PUSH2 0x50F JUMP JUMPDEST PUSH1 0x20 DUP3 ADD SWAP1 POP SWAP2 SWAP1 POP JUMP JUMPDEST PUSH0 PUSH1 0x20 DUP3 ADD SWAP1 POP DUP2 DUP2 SUB PUSH0 DUP4 ADD MSTORE PUSH2 0x570 DUP2 PUSH2 0x537 JUMP JUMPDEST SWAP1 POP SWAP2 SWAP1 POP JUMP JUMPDEST PUSH32 0x4E487B7100000000000000000000000000000000000000000000000000000000 PUSH0 MSTORE PUSH1 0x32 PUSH1 0x4 MSTORE PUSH1 0x24 PUSH0 REVERT JUMPDEST PUSH32 0x7A65726F20616464726573730000000000000000000000000000000000000000 PUSH0 DUP3 ADD MSTORE POP JUMP JUMPDEST PUSH0 PUSH2 0x5D8 PUSH1 0xC DUP4 PUSH2 0x4FF JUMP JUMPDEST SWAP2 POP PUSH2 0x5E3 DUP3 PUSH2 0x5A4 JUMP JUMPDEST PUSH1 0x20 DUP3 ADD SWAP1 POP SWAP2 SWAP1 POP JUMP JUMPDEST PUSH0 PUSH1 0x20 DUP3 ADD SWAP1 POP DUP2 DUP2 SUB PUSH0 DUP4 ADD MSTORE PUSH2 0x605 DUP2 PUSH2 0x5CC JUMP JUMPDEST SWAP1 POP SWAP2 SWAP1 POP JUMP JUMPDEST PUSH32 0x6E6F7420756E6971756500000000000000000000000000000000000000000000 PUSH0 DUP3 ADD MSTORE POP JUMP JUMPDEST PUSH0 PUSH2 0x640 PUSH1 0xA DUP4 PUSH2 0x4FF JUMP JUMPDEST SWAP2 POP PUSH2 0x64B DUP3 PUSH2 0x60C JUMP JUMPDEST PUSH1 0x20 DUP3 ADD SWAP1 POP SWAP2 SWAP1 POP JUMP JUMPDEST PUSH0 PUSH1 0x20 DUP3 ADD SWAP1 POP DUP2 DUP2 SUB PUSH0 DUP4 ADD MSTORE PUSH2 0x66D DUP2 PUSH2 0x634 JUMP JUMPDEST SWAP1 POP SWAP2 SWAP1 POP JUMP JUMPDEST PUSH32 0x696E76616C696420617070726F76616C7320636F756E74000000000000000000 PUSH0 DUP3 ADD MSTORE POP JUMP JUMPDEST PUSH0 PUSH2 0x6A8 PUSH1 0x17 DUP4 PUSH2 0x4FF JUMP JUMPDEST SWAP2 POP PUSH2 0x6B3 DUP3 PUSH2 0x674 JUMP JUMPDEST PUSH1 0x20 DUP3 ADD SWAP1 POP SWAP2 SWAP1 POP JUMP JUMPDEST PUSH0 PUSH1 0x20 DUP3 ADD SWAP1 POP DUP2 DUP2 SUB PUSH0 DUP4 ADD MSTORE PUSH2 0x6D5 DUP2 PUSH2 0x69C JUMP JUMPDEST SWAP1 POP SWAP2 SWAP1 POP JUMP JUMPDEST PUSH1 0x80 MLOAD PUSH2 0x1B95 PUSH2 0x6FB PUSH0 CODECOPY PUSH0 DUP2 DUP2 PUSH2 0x81A ADD MSTORE PUSH2 0xC51 ADD MSTORE PUSH2 0x1B95 PUSH0 RETURN INVALID PUSH1 0x80 PUSH1 0x40 MSTORE PUSH1 0x4 CALLDATASIZE LT PUSH2 0xAA JUMPI PUSH0 CALLDATALOAD PUSH1 0xE0 SHR DUP1 PUSH4 0x99C1AADC GT PUSH2 0x63 JUMPI DUP1 PUSH4 0x99C1AADC EQ PUSH2 0x1FD JUMPI DUP1 PUSH4 0x9ACE38C2 EQ PUSH2 0x227 JUMPI DUP1 PUSH4 0xABAF742A EQ PUSH2 0x266 JUMPI DUP1 PUSH4 0xB759F954 EQ PUSH2 0x2A2 JUMPI DUP1 PUSH4 0xD0E30DB0 EQ PUSH2 0x2CA JUMPI DUP1 PUSH4 0xFE0D94C1 EQ PUSH2 0x2D4 JUMPI PUSH2 0xB9 JUMP JUMPDEST DUP1 PUSH4 0x25E7C27 EQ PUSH2 0xBD JUMPI DUP1 PUSH4 0x14DE327F EQ PUSH2 0xF9 JUMPI DUP1 PUSH4 0x17FE2DA2 EQ PUSH2 0x121 JUMPI DUP1 PUSH4 0x20C5429B EQ PUSH2 0x15D JUMPI DUP1 PUSH4 0x2F54BF6E EQ PUSH2 0x185 JUMPI DUP1 PUSH4 0x8253951A EQ PUSH2 0x1C1 JUMPI PUSH2 0xB9 JUMP JUMPDEST CALLDATASIZE PUSH2 0xB9 JUMPI PUSH2 0xB7 PUSH2 0x2FC JUMP JUMPDEST STOP JUMPDEST PUSH0 DUP1 REVERT JUMPDEST CALLVALUE DUP1 ISZERO PUSH2 0xC8 JUMPI PUSH0 DUP1 REVERT JUMPDEST POP PUSH2 0xE3 PUSH1 0x4 DUP1 CALLDATASIZE SUB DUP2 ADD SWAP1 PUSH2 0xDE SWAP2 SWAP1 PUSH2 0xEBA JUMP JUMPDEST PUSH2 0x337 JUMP JUMPDEST PUSH1 0x40 MLOAD PUSH2 0xF0 SWAP2 SWAP1 PUSH2 0xF24 JUMP JUMPDEST PUSH1 0x40 MLOAD DUP1 SWAP2 SUB SWAP1 RETURN JUMPDEST CALLVALUE DUP1 ISZERO PUSH2 0x104 JUMPI PUSH0 DUP1 REVERT JUMPDEST POP PUSH2 0x11F PUSH1 0x4 DUP1 CALLDATASIZE SUB DUP2 ADD SWAP1 PUSH2 0x11A SWAP2 SWAP1 PUSH2 0xFC8 JUMP JUMPDEST PUSH2 0x371 JUMP JUMPDEST STOP JUMPDEST CALLVALUE DUP1 ISZERO PUSH2 0x12C JUMPI PUSH0 DUP1 REVERT JUMPDEST POP PUSH2 0x147 PUSH1 0x4 DUP1 CALLDATASIZE SUB DUP2 ADD SWAP1 PUSH2 0x142 SWAP2 SWAP1 PUSH2 0x1171 JUMP JUMPDEST PUSH2 0x4ED JUMP JUMPDEST PUSH1 0x40 MLOAD PUSH2 0x154 SWAP2 SWAP1 PUSH2 0x1247 JUMP JUMPDEST PUSH1 0x40 MLOAD DUP1 SWAP2 SUB SWAP1 RETURN JUMPDEST CALLVALUE DUP1 ISZERO PUSH2 0x168 JUMPI PUSH0 DUP1 REVERT JUMPDEST POP PUSH2 0x183 PUSH1 0x4 DUP1 CALLDATASIZE SUB DUP2 ADD SWAP1 PUSH2 0x17E SWAP2 SWAP1 PUSH2 0xEBA JUMP JUMPDEST PUSH2 0x57B JUMP JUMPDEST STOP JUMPDEST CALLVALUE DUP1 ISZERO PUSH2 0x190 JUMPI PUSH0 DUP1 REVERT JUMPDEST POP PUSH2 0x1AB PUSH1 0x4 DUP1 CALLDATASIZE SUB DUP2 ADD SWAP1 PUSH2 0x1A6 SWAP2 SWAP1 PUSH2 0x1267 JUMP JUMPDEST PUSH2 0x7D1 JUMP JUMPDEST PUSH1 0x40 MLOAD PUSH2 0x1B8 SWAP2 SWAP1 PUSH2 0x12AC JUMP JUMPDEST PUSH1 0x40 MLOAD DUP1 SWAP2 SUB SWAP1 RETURN JUMPDEST CALLVALUE DUP1 ISZERO PUSH2 0x1CC JUMPI PUSH0 DUP1 REVERT JUMPDEST POP PUSH2 0x1E7 PUSH1 0x4 DUP1 CALLDATASIZE SUB DUP2 ADD SWAP1 PUSH2 0x1E2 SWAP2 SWAP1 PUSH2 0x12C5 JUMP JUMPDEST PUSH2 0x7EE JUMP JUMPDEST PUSH1 0x40 MLOAD PUSH2 0x1F4 SWAP2 SWAP1 PUSH2 0x12AC JUMP JUMPDEST PUSH1 0x40 MLOAD DUP1 SWAP2 SUB SWAP1 RETURN JUMPDEST CALLVALUE DUP1 ISZERO PUSH2 0x208 JUMPI PUSH0 DUP1 REVERT JUMPDEST POP PUSH2 0x211 PUSH2 0x818 JUMP JUMPDEST PUSH1 0x40 MLOAD PUSH2 0x21E SWAP2 SWAP1 PUSH2 0x1312 JUMP JUMPDEST PUSH1 0x40 MLOAD DUP1 SWAP2 SUB SWAP1 RETURN JUMPDEST CALLVALUE DUP1 ISZERO PUSH2 0x232 JUMPI PUSH0 DUP1 REVERT JUMPDEST POP PUSH2 0x24D PUSH1 0x4 DUP1 CALLDATASIZE SUB DUP2 ADD SWAP1 PUSH2 0x248 SWAP2 SWAP1 PUSH2 0xEBA JUMP JUMPDEST PUSH2 0x83C JUMP JUMPDEST PUSH1 0x40 MLOAD PUSH2 0x25D SWAP5 SWAP4 SWAP3 SWAP2 SWAP1 PUSH2 0x132B JUMP JUMPDEST PUSH1 0x40 MLOAD DUP1 SWAP2 SUB SWAP1 RETURN JUMPDEST CALLVALUE DUP1 ISZERO PUSH2 0x271 JUMPI PUSH0 DUP1 REVERT JUMPDEST POP PUSH2 0x28C PUSH1 0x4 DUP1 CALLDATASIZE SUB DUP2 ADD SWAP1 PUSH2 0x287 SWAP2 SWAP1 PUSH2 0xEBA JUMP JUMPDEST PUSH2 0x928 JUMP JUMPDEST PUSH1 0x40 MLOAD PUSH2 0x299 SWAP2 SWAP1 PUSH2 0x1312 JUMP JUMPDEST PUSH1 0x40 MLOAD DUP1 SWAP2 SUB SWAP1 RETURN JUMPDEST CALLVALUE DUP1 ISZERO PUSH2 0x2AD JUMPI PUSH0 DUP1 REVERT JUMPDEST POP PUSH2 0x2C8 PUSH1 0x4 DUP1 CALLDATASIZE SUB DUP2 ADD SWAP1 PUSH2 0x2C3 SWAP2 SWAP1 PUSH2 0xEBA JUMP JUMPDEST PUSH2 0x93D JUMP JUMPDEST STOP JUMPDEST PUSH2 0x2D2 PUSH2 0x2FC JUMP JUMPDEST STOP JUMPDEST CALLVALUE DUP1 ISZERO PUSH2 0x2DF JUMPI PUSH0 DUP1 REVERT JUMPDEST POP PUSH2 0x2FA PUSH1 0x4 DUP1 CALLDATASIZE SUB DUP2 ADD SWAP1 PUSH2 0x2F5 SWAP2 SWAP1 PUSH2 0xEBA JUMP JUMPDEST PUSH2 0xB95 JUMP JUMPDEST STOP JUMPDEST PUSH32 0xE1FFFCC4923D04B559F4D29A8BFC6CDA04EB5B0D3C460751C2402C5C5CC9109C CALLER CALLVALUE PUSH1 0x40 MLOAD PUSH2 0x32D SWAP3 SWAP2 SWAP1 PUSH2 0x1375 JUMP JUMPDEST PUSH1 0x40 MLOAD DUP1 SWAP2 SUB SWAP1 LOG1 JUMP JUMPDEST PUSH0 DUP2 DUP2 SLOAD DUP2 LT PUSH2 0x345 JUMPI PUSH0 DUP1 REVERT JUMPDEST SWAP1 PUSH0 MSTORE PUSH1 0x20 PUSH0 KECCAK256 ADD PUSH0 SWAP2 POP SLOAD SWAP1 PUSH2 0x100 EXP SWAP1 DIV PUSH20 0xFFFFFFFFFFFFFFFFFFFFFFFFFFFFFFFFFFFFFFFF AND DUP2 JUMP JUMPDEST PUSH0 PUSH1 0x40 MLOAD DUP1 PUSH1 0x80 ADD PUSH1 0x40 MSTORE DUP1 DUP7 PUSH20 0xFFFFFFFFFFFFFFFFFFFFFFFFFFFFFFFFFFFFFFFF AND DUP2 MSTORE PUSH1 0x20 ADD DUP6 DUP2 MSTORE PUSH1 0x20 ADD DUP5 DUP5 DUP1 DUP1 PUSH1 0x1F ADD PUSH1 0x20 DUP1 SWAP2 DIV MUL PUSH1 0x20 ADD PUSH1 0x40 MLOAD SWAP1 DUP2 ADD PUSH1 0x40 MSTORE DUP1 SWAP4 SWAP3 SWAP2 SWAP1 DUP2 DUP2 MSTORE PUSH1 0x20 ADD DUP4 DUP4 DUP1 DUP3 DUP5 CALLDATACOPY PUSH0 DUP2 DUP5 ADD MSTORE PUSH1 0x1F NOT PUSH1 0x1F DUP3 ADD AND SWAP1 POP DUP1 DUP4 ADD SWAP3 POP POP POP POP POP POP POP DUP2 MSTORE PUSH1 0x20 ADD PUSH0 ISZERO ISZERO DUP2 MSTORE POP SWAP1 POP PUSH1 0x2 DUP2 SWAP1 DUP1 PUSH1 0x1 DUP2 SLOAD ADD DUP1 DUP3 SSTORE DUP1 SWAP2 POP POP PUSH1 0x1 SWAP1 SUB SWAP1 PUSH0 MSTORE PUSH1 0x20 PUSH0 KECCAK256 SWAP1 PUSH1 0x4 MUL ADD PUSH0 SWAP1 SWAP2 SWAP1 SWAP2 SWAP1 SWAP2 POP PUSH0 DUP3 ADD MLOAD DUP2 PUSH0 ADD PUSH0 PUSH2 0x100 EXP DUP2 SLOAD DUP2 PUSH20 0xFFFFFFFFFFFFFFFFFFFFFFFFFFFFFFFFFFFFFFFF MUL NOT AND SWAP1 DUP4 PUSH20 0xFFFFFFFFFFFFFFFFFFFFFFFFFFFFFFFFFFFFFFFF AND MUL OR SWAP1 SSTORE POP PUSH1 0x20 DUP3 ADD MLOAD DUP2 PUSH1 0x1 ADD SSTORE PUSH1 0x40 DUP3 ADD MLOAD DUP2 PUSH1 0x2 ADD SWAP1 DUP2 PUSH2 0x47C SWAP2 SWAP1 PUSH2 0x1596 JUMP JUMPDEST POP PUSH1 0x60 DUP3 ADD MLOAD DUP2 PUSH1 0x3 ADD PUSH0 PUSH2 0x100 EXP DUP2 SLOAD DUP2 PUSH1 0xFF MUL NOT AND SWAP1 DUP4 ISZERO ISZERO MUL OR SWAP1 SSTORE POP POP POP PUSH32 0x8324B3D745B914E3ABD4FFBFEAD91E3B78391A98C173202129215AB933ADFBE PUSH1 0x1 PUSH1 0x2 DUP1 SLOAD SWAP1 POP PUSH2 0x4D1 SWAP2 SWAP1 PUSH2 0x1692 JUMP JUMPDEST PUSH1 0x40 MLOAD PUSH2 0x4DE SWAP2 SWAP1 PUSH2 0x1312 JUMP JUMPDEST PUSH1 0x40 MLOAD DUP1 SWAP2 SUB SWAP1 LOG1 POP POP POP POP POP JUMP JUMPDEST PUSH1 0x60 DUP3 DUP3 PUSH1 0x40 MLOAD PUSH1 0x24 ADD PUSH2 0x501 SWAP2 SWAP1 PUSH2 0x1717 JUMP JUMPDEST PUSH1 0x40 MLOAD PUSH1 0x20 DUP2 DUP4 SUB SUB DUP2 MSTORE SWAP1 PUSH1 0x40 MSTORE SWAP1 PUSH1 0x40 MLOAD PUSH2 0x51E SWAP2 SWAP1 PUSH2 0x1771 JUMP JUMPDEST PUSH1 0x40 MLOAD DUP1 SWAP2 SUB SWAP1 KECCAK256 PUSH28 0xFFFFFFFFFFFFFFFFFFFFFFFFFFFFFFFFFFFFFFFFFFFFFFFFFFFFFFFF NOT AND PUSH1 0x20 DUP3 ADD DUP1 MLOAD PUSH28 0xFFFFFFFFFFFFFFFFFFFFFFFFFFFFFFFFFFFFFFFFFFFFFFFFFFFFFFFF DUP4 DUP2 DUP4 AND OR DUP4 MSTORE POP POP POP POP SWAP1 POP SWAP3 SWAP2 POP POP JUMP JUMPDEST PUSH1 0x1 PUSH0 CALLER PUSH20 0xFFFFFFFFFFFFFFFFFFFFFFFFFFFFFFFFFFFFFFFF AND PUSH20 0xFFFFFFFFFFFFFFFFFFFFFFFFFFFFFFFFFFFFFFFF AND DUP2 MSTORE PUSH1 0x20 ADD SWAP1 DUP2 MSTORE PUSH1 0x20 ADD PUSH0 KECCAK256 PUSH0 SWAP1 SLOAD SWAP1 PUSH2 0x100 EXP SWAP1 DIV PUSH1 0xFF AND PUSH2 0x604 JUMPI PUSH1 0x40 MLOAD PUSH32 0x8C379A000000000000000000000000000000000000000000000000000000000 DUP2 MSTORE PUSH1 0x4 ADD PUSH2 0x5FB SWAP1 PUSH2 0x17D1 JUMP JUMPDEST PUSH1 0x40 MLOAD DUP1 SWAP2 SUB SWAP1 REVERT JUMPDEST DUP1 PUSH1 0x2 DUP1 SLOAD SWAP1 POP DUP2 LT PUSH2 0x64C JUMPI PUSH1 0x40 MLOAD PUSH32 0x8C379A000000000000000000000000000000000000000000000000000000000 DUP2 MSTORE PUSH1 0x4 ADD PUSH2 0x643 SWAP1 PUSH2 0x1839 JUMP JUMPDEST PUSH1 0x40 MLOAD DUP1 SWAP2 SUB SWAP1 REVERT JUMPDEST DUP2 PUSH1 0x2 DUP2 DUP2 SLOAD DUP2 LT PUSH2 0x661 JUMPI PUSH2 0x660 PUSH2 0x1857 JUMP JUMPDEST JUMPDEST SWAP1 PUSH0 MSTORE PUSH1 0x20 PUSH0 KECCAK256 SWAP1 PUSH1 0x4 MUL ADD PUSH1 0x3 ADD PUSH0 SWAP1 SLOAD SWAP1 PUSH2 0x100 EXP SWAP1 DIV PUSH1 0xFF AND ISZERO PUSH2 0x6BD JUMPI PUSH1 0x40 MLOAD PUSH32 0x8C379A000000000000000000000000000000000000000000000000000000000 DUP2 MSTORE PUSH1 0x4 ADD PUSH2 0x6B4 SWAP1 PUSH2 0x18CE JUMP JUMPDEST PUSH1 0x40 MLOAD DUP1 SWAP2 SUB SWAP1 REVERT JUMPDEST DUP3 PUSH2 0x6C8 DUP2 CALLER PUSH2 0xE14 JUMP JUMPDEST PUSH2 0x707 JUMPI PUSH1 0x40 MLOAD PUSH32 0x8C379A000000000000000000000000000000000000000000000000000000000 DUP2 MSTORE PUSH1 0x4 ADD PUSH2 0x6FE SWAP1 PUSH2 0x1936 JUMP JUMPDEST PUSH1 0x40 MLOAD DUP1 SWAP2 SUB SWAP1 REVERT JUMPDEST PUSH0 PUSH1 0x4 PUSH0 DUP7 DUP2 MSTORE PUSH1 0x20 ADD SWAP1 DUP2 MSTORE PUSH1 0x20 ADD PUSH0 KECCAK256 PUSH0 CALLER PUSH20 0xFFFFFFFFFFFFFFFFFFFFFFFFFFFFFFFFFFFFFFFF AND PUSH20 0xFFFFFFFFFFFFFFFFFFFFFFFFFFFFFFFFFFFFFFFF AND DUP2 MSTORE PUSH1 0x20 ADD SWAP1 DUP2 MSTORE PUSH1 0x20 ADD PUSH0 KECCAK256 PUSH0 PUSH2 0x100 EXP DUP2 SLOAD DUP2 PUSH1 0xFF MUL NOT AND SWAP1 DUP4 ISZERO ISZERO MUL OR SWAP1 SSTORE POP PUSH1 0x1 PUSH1 0x3 PUSH0 DUP7 DUP2 MSTORE PUSH1 0x20 ADD SWAP1 DUP2 MSTORE PUSH1 0x20 ADD PUSH0 KECCAK256 PUSH0 DUP3 DUP3 SLOAD PUSH2 0x78B SWAP2 SWAP1 PUSH2 0x1692 JUMP JUMPDEST SWAP3 POP POP DUP2 SWAP1 SSTORE POP PUSH32 0xEC9AB91322523C899EDE7830EC9BFC992B5981CDCC27B91162FB23DE5791117B CALLER DUP6 PUSH1 0x40 MLOAD PUSH2 0x7C3 SWAP3 SWAP2 SWAP1 PUSH2 0x1375 JUMP JUMPDEST PUSH1 0x40 MLOAD DUP1 SWAP2 SUB SWAP1 LOG1 POP POP POP POP JUMP JUMPDEST PUSH1 0x1 PUSH1 0x20 MSTORE DUP1 PUSH0 MSTORE PUSH1 0x40 PUSH0 KECCAK256 PUSH0 SWAP2 POP SLOAD SWAP1 PUSH2 0x100 EXP SWAP1 DIV PUSH1 0xFF AND DUP2 JUMP JUMPDEST PUSH1 0x4 PUSH1 0x20 MSTORE DUP2 PUSH0 MSTORE PUSH1 0x40 PUSH0 KECCAK256 PUSH1 0x20 MSTORE DUP1 PUSH0 MSTORE PUSH1 0x40 PUSH0 KECCAK256 PUSH0 SWAP2 POP SWAP2 POP SWAP1 SLOAD SWAP1 PUSH2 0x100 EXP SWAP1 DIV PUSH1 0xFF AND DUP2 JUMP JUMPDEST PUSH32 0x0 DUP2 JUMP JUMPDEST PUSH1 0x2 DUP2 DUP2 SLOAD DUP2 LT PUSH2 0x84B JUMPI PUSH0 DUP1 REVERT JUMPDEST SWAP1 PUSH0 MSTORE PUSH1 0x20 PUSH0 KECCAK256 SWAP1 PUSH1 0x4 MUL ADD PUSH0 SWAP2 POP SWAP1 POP DUP1 PUSH0 ADD PUSH0 SWAP1 SLOAD SWAP1 PUSH2 0x100 EXP SWAP1 DIV PUSH20 0xFFFFFFFFFFFFFFFFFFFFFFFFFFFFFFFFFFFFFFFF AND SWAP1 DUP1 PUSH1 0x1 ADD SLOAD SWAP1 DUP1 PUSH1 0x2 ADD DUP1 SLOAD PUSH2 0x895 SWAP1 PUSH2 0x13C9 JUMP JUMPDEST DUP1 PUSH1 0x1F ADD PUSH1 0x20 DUP1 SWAP2 DIV MUL PUSH1 0x20 ADD PUSH1 0x40 MLOAD SWAP1 DUP2 ADD PUSH1 0x40 MSTORE DUP1 SWAP3 SWAP2 SWAP1 DUP2 DUP2 MSTORE PUSH1 0x20 ADD DUP3 DUP1 SLOAD PUSH2 0x8C1 SWAP1 PUSH2 0x13C9 JUMP JUMPDEST DUP1 ISZERO PUSH2 0x90C JUMPI DUP1 PUSH1 0x1F LT PUSH2 0x8E3 JUMPI PUSH2 0x100 DUP1 DUP4 SLOAD DIV MUL DUP4 MSTORE SWAP2 PUSH1 0x20 ADD SWAP2 PUSH2 0x90C JUMP JUMPDEST DUP3 ADD SWAP2 SWAP1 PUSH0 MSTORE PUSH1 0x20 PUSH0 KECCAK256 SWAP1 JUMPDEST DUP2 SLOAD DUP2 MSTORE SWAP1 PUSH1 0x1 ADD SWAP1 PUSH1 0x20 ADD DUP1 DUP4 GT PUSH2 0x8EF JUMPI DUP3 SWAP1 SUB PUSH1 0x1F AND DUP3 ADD SWAP2 JUMPDEST POP POP POP POP POP SWAP1 DUP1 PUSH1 0x3 ADD PUSH0 SWAP1 SLOAD SWAP1 PUSH2 0x100 EXP SWAP1 DIV PUSH1 0xFF AND SWAP1 POP DUP5 JUMP JUMPDEST PUSH1 0x3 PUSH1 0x20 MSTORE DUP1 PUSH0 MSTORE PUSH1 0x40 PUSH0 KECCAK256 PUSH0 SWAP2 POP SWAP1 POP SLOAD DUP2 JUMP JUMPDEST PUSH1 0x1 PUSH0 CALLER PUSH20 0xFFFFFFFFFFFFFFFFFFFFFFFFFFFFFFFFFFFFFFFF AND PUSH20 0xFFFFFFFFFFFFFFFFFFFFFFFFFFFFFFFFFFFFFFFF AND DUP2 MSTORE PUSH1 0x20 ADD SWAP1 DUP2 MSTORE PUSH1 0x20 ADD PUSH0 KECCAK256 PUSH0 SWAP1 SLOAD SWAP1 PUSH2 0x100 EXP SWAP1 DIV PUSH1 0xFF AND PUSH2 0x9C6 JUMPI PUSH1 0x40 MLOAD PUSH32 0x8C379A000000000000000000000000000000000000000000000000000000000 DUP2 MSTORE PUSH1 0x4 ADD PUSH2 0x9BD SWAP1 PUSH2 0x17D1 JUMP JUMPDEST PUSH1 0x40 MLOAD DUP1 SWAP2 SUB SWAP1 REVERT JUMPDEST DUP1 PUSH1 0x2 DUP1 SLOAD SWAP1 POP DUP2 LT PUSH2 0xA0E JUMPI PUSH1 0x40 MLOAD PUSH32 0x8C379A000000000000000000000000000000000000000000000000000000000 DUP2 MSTORE PUSH1 0x4 ADD PUSH2 0xA05 SWAP1 PUSH2 0x1839 JUMP JUMPDEST PUSH1 0x40 MLOAD DUP1 SWAP2 SUB SWAP1 REVERT JUMPDEST DUP2 PUSH2 0xA19 DUP2 CALLER PUSH2 0xE14 JUMP JUMPDEST ISZERO PUSH2 0xA59 JUMPI PUSH1 0x40 MLOAD PUSH32 0x8C379A000000000000000000000000000000000000000000000000000000000 DUP2 MSTORE PUSH1 0x4 ADD PUSH2 0xA50 SWAP1 PUSH2 0x199E JUMP JUMPDEST PUSH1 0x40 MLOAD DUP1 SWAP2 SUB SWAP1 REVERT JUMPDEST DUP3 PUSH1 0x2 DUP2 DUP2 SLOAD DUP2 LT PUSH2 0xA6E JUMPI PUSH2 0xA6D PUSH2 0x1857 JUMP JUMPDEST JUMPDEST SWAP1 PUSH0 MSTORE PUSH1 0x20 PUSH0 KECCAK256 SWAP1 PUSH1 0x4 MUL ADD PUSH1 0x3 ADD PUSH0 SWAP1 SLOAD SWAP1 PUSH2 0x100 EXP SWAP1 DIV PUSH1 0xFF AND ISZERO PUSH2 0xACA JUMPI PUSH1 0x40 MLOAD PUSH32 0x8C379A000000000000000000000000000000000000000000000000000000000 DUP2 MSTORE PUSH1 0x4 ADD PUSH2 0xAC1 SWAP1 PUSH2 0x18CE JUMP JUMPDEST PUSH1 0x40 MLOAD DUP1 SWAP2 SUB SWAP1 REVERT JUMPDEST PUSH1 0x1 PUSH1 0x4 PUSH0 DUP7 DUP2 MSTORE PUSH1 0x20 ADD SWAP1 DUP2 MSTORE PUSH1 0x20 ADD PUSH0 KECCAK256 PUSH0 CALLER PUSH20 0xFFFFFFFFFFFFFFFFFFFFFFFFFFFFFFFFFFFFFFFF AND PUSH20 0xFFFFFFFFFFFFFFFFFFFFFFFFFFFFFFFFFFFFFFFF AND DUP2 MSTORE PUSH1 0x20 ADD SWAP1 DUP2 MSTORE PUSH1 0x20 ADD PUSH0 KECCAK256 PUSH0 PUSH2 0x100 EXP DUP2 SLOAD DUP2 PUSH1 0xFF MUL NOT AND SWAP1 DUP4 ISZERO ISZERO MUL OR SWAP1 SSTORE POP PUSH1 0x1 PUSH1 0x3 PUSH0 DUP7 DUP2 MSTORE PUSH1 0x20 ADD SWAP1 DUP2 MSTORE PUSH1 0x20 ADD PUSH0 KECCAK256 PUSH0 DUP3 DUP3 SLOAD PUSH2 0xB4F SWAP2 SWAP1 PUSH2 0x19BC JUMP JUMPDEST SWAP3 POP POP DUP2 SWAP1 SSTORE POP PUSH32 0x90EC57F18FA7B15C6B8D5E4D1DEB90796C74B2FF23D4D0CECAD0CB42A96B3128 CALLER DUP6 PUSH1 0x40 MLOAD PUSH2 0xB87 SWAP3 SWAP2 SWAP1 PUSH2 0x1375 JUMP JUMPDEST PUSH1 0x40 MLOAD DUP1 SWAP2 SUB SWAP1 LOG1 POP POP POP POP JUMP JUMPDEST DUP1 PUSH1 0x2 DUP1 SLOAD SWAP1 POP DUP2 LT PUSH2 0xBDD JUMPI PUSH1 0x40 MLOAD PUSH32 0x8C379A000000000000000000000000000000000000000000000000000000000 DUP2 MSTORE PUSH1 0x4 ADD PUSH2 0xBD4 SWAP1 PUSH2 0x1839 JUMP JUMPDEST PUSH1 0x40 MLOAD DUP1 SWAP2 SUB SWAP1 REVERT JUMPDEST DUP2 PUSH1 0x2 DUP2 DUP2 SLOAD DUP2 LT PUSH2 0xBF2 JUMPI PUSH2 0xBF1 PUSH2 0x1857 JUMP JUMPDEST JUMPDEST SWAP1 PUSH0 MSTORE PUSH1 0x20 PUSH0 KECCAK256 SWAP1 PUSH1 0x4 MUL ADD PUSH1 0x3 ADD PUSH0 SWAP1 SLOAD SWAP1 PUSH2 0x100 EXP SWAP1 DIV PUSH1 0xFF AND ISZERO PUSH2 0xC4E JUMPI PUSH1 0x40 MLOAD PUSH32 0x8C379A000000000000000000000000000000000000000000000000000000000 DUP2 MSTORE PUSH1 0x4 ADD PUSH2 0xC45 SWAP1 PUSH2 0x18CE JUMP JUMPDEST PUSH1 0x40 MLOAD DUP1 SWAP2 SUB SWAP1 REVERT JUMPDEST DUP3 PUSH32 0x0 PUSH1 0x3 PUSH0 DUP4 DUP2 MSTORE PUSH1 0x20 ADD SWAP1 DUP2 MSTORE PUSH1 0x20 ADD PUSH0 KECCAK256 SLOAD LT ISZERO PUSH2 0xCC3 JUMPI PUSH1 0x40 MLOAD PUSH32 0x8C379A000000000000000000000000000000000000000000000000000000000 DUP2 MSTORE PUSH1 0x4 ADD PUSH2 0xCBA SWAP1 PUSH2 0x1A39 JUMP JUMPDEST PUSH1 0x40 MLOAD DUP1 SWAP2 SUB SWAP1 REVERT JUMPDEST PUSH0 PUSH1 0x2 DUP6 DUP2 SLOAD DUP2 LT PUSH2 0xCD8 JUMPI PUSH2 0xCD7 PUSH2 0x1857 JUMP JUMPDEST JUMPDEST SWAP1 PUSH0 MSTORE PUSH1 0x20 PUSH0 KECCAK256 SWAP1 PUSH1 0x4 MUL ADD SWAP1 POP PUSH0 DUP2 PUSH0 ADD PUSH0 SWAP1 SLOAD SWAP1 PUSH2 0x100 EXP SWAP1 DIV PUSH20 0xFFFFFFFFFFFFFFFFFFFFFFFFFFFFFFFFFFFFFFFF AND PUSH20 0xFFFFFFFFFFFFFFFFFFFFFFFFFFFFFFFFFFFFFFFF AND DUP3 PUSH1 0x1 ADD SLOAD DUP4 PUSH1 0x2 ADD PUSH1 0x40 MLOAD PUSH2 0xD36 SWAP2 SWAP1 PUSH2 0x1AE1 JUMP JUMPDEST PUSH0 PUSH1 0x40 MLOAD DUP1 DUP4 SUB DUP2 DUP6 DUP8 GAS CALL SWAP3 POP POP POP RETURNDATASIZE DUP1 PUSH0 DUP2 EQ PUSH2 0xD70 JUMPI PUSH1 0x40 MLOAD SWAP2 POP PUSH1 0x1F NOT PUSH1 0x3F RETURNDATASIZE ADD AND DUP3 ADD PUSH1 0x40 MSTORE RETURNDATASIZE DUP3 MSTORE RETURNDATASIZE PUSH0 PUSH1 0x20 DUP5 ADD RETURNDATACOPY PUSH2 0xD75 JUMP JUMPDEST PUSH1 0x60 SWAP2 POP JUMPDEST POP POP SWAP1 POP DUP1 PUSH2 0xDB9 JUMPI PUSH1 0x40 MLOAD PUSH32 0x8C379A000000000000000000000000000000000000000000000000000000000 DUP2 MSTORE PUSH1 0x4 ADD PUSH2 0xDB0 SWAP1 PUSH2 0x1B41 JUMP JUMPDEST PUSH1 0x40 MLOAD DUP1 SWAP2 SUB SWAP1 REVERT JUMPDEST PUSH1 0x1 DUP3 PUSH1 0x3 ADD PUSH0 PUSH2 0x100 EXP DUP2 SLOAD DUP2 PUSH1 0xFF MUL NOT AND SWAP1 DUP4 ISZERO ISZERO MUL OR SWAP1 SSTORE POP PUSH32 0xBCF6A68A2F901BE4A23A41B53ACD7697893A7E34DEF4E28ACBA584DA75283B67 DUP7 PUSH1 0x40 MLOAD PUSH2 0xE04 SWAP2 SWAP1 PUSH2 0x1312 JUMP JUMPDEST PUSH1 0x40 MLOAD DUP1 SWAP2 SUB SWAP1 LOG1 POP POP POP POP POP POP JUMP JUMPDEST PUSH0 PUSH1 0x4 PUSH0 DUP5 DUP2 MSTORE PUSH1 0x20 ADD SWAP1 DUP2 MSTORE PUSH1 0x20 ADD PUSH0 KECCAK256 PUSH0 DUP4 PUSH20 0xFFFFFFFFFFFFFFFFFFFFFFFFFFFFFFFFFFFFFFFF AND PUSH20 0xFFFFFFFFFFFFFFFFFFFFFFFFFFFFFFFFFFFFFFFF AND DUP2 MSTORE PUSH1 0x20 ADD SWAP1 DUP2 MSTORE PUSH1 0x20 ADD PUSH0 KECCAK256 PUSH0 SWAP1 SLOAD SWAP1 PUSH2 0x100 EXP SWAP1 DIV PUSH1 0xFF AND SWAP1 POP SWAP3 SWAP2 POP POP JUMP JUMPDEST PUSH0 PUSH1 0x40 MLOAD SWAP1 POP SWAP1 JUMP JUMPDEST PUSH0 DUP1 REVERT JUMPDEST PUSH0 DUP1 REVERT JUMPDEST PUSH0 DUP2 SWAP1 POP SWAP2 SWAP1 POP JUMP JUMPDEST PUSH2 0xE99 DUP2 PUSH2 0xE87 JUMP JUMPDEST DUP2 EQ PUSH2 0xEA3 JUMPI PUSH0 DUP1 REVERT JUMPDEST POP JUMP JUMPDEST PUSH0 DUP2 CALLDATALOAD SWAP1 POP PUSH2 0xEB4 DUP2 PUSH2 0xE90 JUMP JUMPDEST SWAP3 SWAP2 POP POP JUMP JUMPDEST PUSH0 PUSH1 0x20 DUP3 DUP5 SUB SLT ISZERO PUSH2 0xECF JUMPI PUSH2 0xECE PUSH2 0xE7F JUMP JUMPDEST JUMPDEST PUSH0 PUSH2 0xEDC DUP5 DUP3 DUP6 ADD PUSH2 0xEA6 JUMP JUMPDEST SWAP2 POP POP SWAP3 SWAP2 POP POP JUMP JUMPDEST PUSH0 PUSH20 0xFFFFFFFFFFFFFFFFFFFFFFFFFFFFFFFFFFFFFFFF DUP3 AND SWAP1 POP SWAP2 SWAP1 POP JUMP JUMPDEST PUSH0 PUSH2 0xF0E DUP3 PUSH2 0xEE5 JUMP JUMPDEST SWAP1 POP SWAP2 SWAP1 POP JUMP JUMPDEST PUSH2 0xF1E DUP2 PUSH2 0xF04 JUMP JUMPDEST DUP3 MSTORE POP POP JUMP JUMPDEST PUSH0 PUSH1 0x20 DUP3 ADD SWAP1 POP PUSH2 0xF37 PUSH0 DUP4 ADD DUP5 PUSH2 0xF15 JUMP JUMPDEST SWAP3 SWAP2 POP POP JUMP JUMPDEST PUSH2 0xF46 DUP2 PUSH2 0xF04 JUMP JUMPDEST DUP2 EQ PUSH2 0xF50 JUMPI PUSH0 DUP1 REVERT JUMPDEST POP JUMP JUMPDEST PUSH0 DUP2 CALLDATALOAD SWAP1 POP PUSH2 0xF61 DUP2 PUSH2 0xF3D JUMP JUMPDEST SWAP3 SWAP2 POP POP JUMP JUMPDEST PUSH0 DUP1 REVERT JUMPDEST PUSH0 DUP1 REVERT JUMPDEST PUSH0 DUP1 REVERT JUMPDEST PUSH0 DUP1 DUP4 PUSH1 0x1F DUP5 ADD SLT PUSH2 0xF88 JUMPI PUSH2 0xF87 PUSH2 0xF67 JUMP JUMPDEST JUMPDEST DUP3 CALLDATALOAD SWAP1 POP PUSH8 0xFFFFFFFFFFFFFFFF DUP2 GT ISZERO PUSH2 0xFA5 JUMPI PUSH2 0xFA4 PUSH2 0xF6B JUMP JUMPDEST JUMPDEST PUSH1 0x20 DUP4 ADD SWAP2 POP DUP4 PUSH1 0x1 DUP3 MUL DUP4 ADD GT ISZERO PUSH2 0xFC1 JUMPI PUSH2 0xFC0 PUSH2 0xF6F JUMP JUMPDEST JUMPDEST SWAP3 POP SWAP3 SWAP1 POP JUMP JUMPDEST PUSH0 DUP1 PUSH0 DUP1 PUSH1 0x60 DUP6 DUP8 SUB SLT ISZERO PUSH2 0xFE0 JUMPI PUSH2 0xFDF PUSH2 0xE7F JUMP JUMPDEST JUMPDEST PUSH0 PUSH2 0xFED DUP8 DUP3 DUP9 ADD PUSH2 0xF53 JUMP JUMPDEST SWAP5 POP POP PUSH1 0x20 PUSH2 0xFFE DUP8 DUP3 DUP9 ADD PUSH2 0xEA6 JUMP JUMPDEST SWAP4 POP POP PUSH1 0x40 DUP6 ADD CALLDATALOAD PUSH8 0xFFFFFFFFFFFFFFFF DUP2 GT ISZERO PUSH2 0x101F JUMPI PUSH2 0x101E PUSH2 0xE83 JUMP JUMPDEST JUMPDEST PUSH2 0x102B DUP8 DUP3 DUP9 ADD PUSH2 0xF73 JUMP JUMPDEST SWAP3 POP SWAP3 POP POP SWAP3 SWAP6 SWAP2 SWAP5 POP SWAP3 POP JUMP JUMPDEST PUSH0 DUP1 REVERT JUMPDEST PUSH0 PUSH1 0x1F NOT PUSH1 0x1F DUP4 ADD AND SWAP1 POP SWAP2 SWAP1 POP JUMP JUMPDEST PUSH32 0x4E487B7100000000000000000000000000000000000000000000000000000000 PUSH0 MSTORE PUSH1 0x41 PUSH1 0x4 MSTORE PUSH1 0x24 PUSH0 REVERT JUMPDEST PUSH2 0x1083 DUP3 PUSH2 0x103D JUMP JUMPDEST DUP2 ADD DUP2 DUP2 LT PUSH8 0xFFFFFFFFFFFFFFFF DUP3 GT OR ISZERO PUSH2 0x10A2 JUMPI PUSH2 0x10A1 PUSH2 0x104D JUMP JUMPDEST JUMPDEST DUP1 PUSH1 0x40 MSTORE POP POP POP JUMP JUMPDEST PUSH0 PUSH2 0x10B4 PUSH2 0xE76 JUMP JUMPDEST SWAP1 POP PUSH2 0x10C0 DUP3 DUP3 PUSH2 0x107A JUMP JUMPDEST SWAP2 SWAP1 POP JUMP JUMPDEST PUSH0 PUSH8 0xFFFFFFFFFFFFFFFF DUP3 GT ISZERO PUSH2 0x10DF JUMPI PUSH2 0x10DE PUSH2 0x104D JUMP JUMPDEST JUMPDEST PUSH2 0x10E8 DUP3 PUSH2 0x103D JUMP JUMPDEST SWAP1 POP PUSH1 0x20 DUP2 ADD SWAP1 POP SWAP2 SWAP1 POP JUMP JUMPDEST DUP3 DUP2 DUP4 CALLDATACOPY PUSH0 DUP4 DUP4 ADD MSTORE POP POP POP JUMP JUMPDEST PUSH0 PUSH2 0x1115 PUSH2 0x1110 DUP5 PUSH2 0x10C5 JUMP JUMPDEST PUSH2 0x10AB JUMP JUMPDEST SWAP1 POP DUP3 DUP2 MSTORE PUSH1 0x20 DUP2 ADD DUP5 DUP5 DUP5 ADD GT ISZERO PUSH2 0x1131 JUMPI PUSH2 0x1130 PUSH2 0x1039 JUMP JUMPDEST JUMPDEST PUSH2 0x113C DUP5 DUP3 DUP6 PUSH2 0x10F5 JUMP JUMPDEST POP SWAP4 SWAP3 POP POP POP JUMP JUMPDEST PUSH0 DUP3 PUSH1 0x1F DUP4 ADD SLT PUSH2 0x1158 JUMPI PUSH2 0x1157 PUSH2 0xF67 JUMP JUMPDEST JUMPDEST DUP2 CALLDATALOAD PUSH2 0x1168 DUP5 DUP3 PUSH1 0x20 DUP7 ADD PUSH2 0x1103 JUMP JUMPDEST SWAP2 POP POP SWAP3 SWAP2 POP POP JUMP JUMPDEST PUSH0 DUP1 PUSH1 0x40 DUP4 DUP6 SUB SLT ISZERO PUSH2 0x1187 JUMPI PUSH2 0x1186 PUSH2 0xE7F JUMP JUMPDEST JUMPDEST PUSH0 DUP4 ADD CALLDATALOAD PUSH8 0xFFFFFFFFFFFFFFFF DUP2 GT ISZERO PUSH2 0x11A4 JUMPI PUSH2 0x11A3 PUSH2 0xE83 JUMP JUMPDEST JUMPDEST PUSH2 0x11B0 DUP6 DUP3 DUP7 ADD PUSH2 0x1144 JUMP JUMPDEST SWAP3 POP POP PUSH1 0x20 DUP4 ADD CALLDATALOAD PUSH8 0xFFFFFFFFFFFFFFFF DUP2 GT ISZERO PUSH2 0x11D1 JUMPI PUSH2 0x11D0 PUSH2 0xE83 JUMP JUMPDEST JUMPDEST PUSH2 0x11DD DUP6 DUP3 DUP7 ADD PUSH2 0x1144 JUMP JUMPDEST SWAP2 POP POP SWAP3 POP SWAP3 SWAP1 POP JUMP JUMPDEST PUSH0 DUP2 MLOAD SWAP1 POP SWAP2 SWAP1 POP JUMP JUMPDEST PUSH0 DUP3 DUP3 MSTORE PUSH1 0x20 DUP3 ADD SWAP1 POP SWAP3 SWAP2 POP POP JUMP JUMPDEST DUP3 DUP2 DUP4 MCOPY PUSH0 DUP4 DUP4 ADD MSTORE POP POP POP JUMP JUMPDEST PUSH0 PUSH2 0x1219 DUP3 PUSH2 0x11E7 JUMP JUMPDEST PUSH2 0x1223 DUP2 DUP6 PUSH2 0x11F1 JUMP JUMPDEST SWAP4 POP PUSH2 0x1233 DUP2 DUP6 PUSH1 0x20 DUP7 ADD PUSH2 0x1201 JUMP JUMPDEST PUSH2 0x123C DUP2 PUSH2 0x103D JUMP JUMPDEST DUP5 ADD SWAP2 POP POP SWAP3 SWAP2 POP POP JUMP JUMPDEST PUSH0 PUSH1 0x20 DUP3 ADD SWAP1 POP DUP2 DUP2 SUB PUSH0 DUP4 ADD MSTORE PUSH2 0x125F DUP2 DUP5 PUSH2 0x120F JUMP JUMPDEST SWAP1 POP SWAP3 SWAP2 POP POP JUMP JUMPDEST PUSH0 PUSH1 0x20 DUP3 DUP5 SUB SLT ISZERO PUSH2 0x127C JUMPI PUSH2 0x127B PUSH2 0xE7F JUMP JUMPDEST JUMPDEST PUSH0 PUSH2 0x1289 DUP5 DUP3 DUP6 ADD PUSH2 0xF53 JUMP JUMPDEST SWAP2 POP POP SWAP3 SWAP2 POP POP JUMP JUMPDEST PUSH0 DUP2 ISZERO ISZERO SWAP1 POP SWAP2 SWAP1 POP JUMP JUMPDEST PUSH2 0x12A6 DUP2 PUSH2 0x1292 JUMP JUMPDEST DUP3 MSTORE POP POP JUMP JUMPDEST PUSH0 PUSH1 0x20 DUP3 ADD SWAP1 POP PUSH2 0x12BF PUSH0 DUP4 ADD DUP5 PUSH2 0x129D JUMP JUMPDEST SWAP3 SWAP2 POP POP JUMP JUMPDEST PUSH0 DUP1 PUSH1 0x40 DUP4 DUP6 SUB SLT ISZERO PUSH2 0x12DB JUMPI PUSH2 0x12DA PUSH2 0xE7F JUMP JUMPDEST JUMPDEST PUSH0 PUSH2 0x12E8 DUP6 DUP3 DUP7 ADD PUSH2 0xEA6 JUMP JUMPDEST SWAP3 POP POP PUSH1 0x20 PUSH2 0x12F9 DUP6 DUP3 DUP7 ADD PUSH2 0xF53 JUMP JUMPDEST SWAP2 POP POP SWAP3 POP SWAP3 SWAP1 POP JUMP JUMPDEST PUSH2 0x130C DUP2 PUSH2 0xE87 JUMP JUMPDEST DUP3 MSTORE POP POP JUMP JUMPDEST PUSH0 PUSH1 0x20 DUP3 ADD SWAP1 POP PUSH2 0x1325 PUSH0 DUP4 ADD DUP5 PUSH2 0x1303 JUMP JUMPDEST SWAP3 SWAP2 POP POP JUMP JUMPDEST PUSH0 PUSH1 0x80 DUP3 ADD SWAP1 POP PUSH2 0x133E PUSH0 DUP4 ADD DUP8 PUSH2 0xF15 JUMP JUMPDEST PUSH2 0x134B PUSH1 0x20 DUP4 ADD DUP7 PUSH2 0x1303 JUMP JUMPDEST DUP2 DUP2 SUB PUSH1 0x40 DUP4 ADD MSTORE PUSH2 0x135D DUP2 DUP6 PUSH2 0x120F JUMP JUMPDEST SWAP1 POP PUSH2 0x136C PUSH1 0x60 DUP4 ADD DUP5 PUSH2 0x129D JUMP JUMPDEST SWAP6 SWAP5 POP POP POP POP POP JUMP JUMPDEST PUSH0 PUSH1 0x40 DUP3 ADD SWAP1 POP PUSH2 0x1388 PUSH0 DUP4 ADD DUP6 PUSH2 0xF15 JUMP JUMPDEST PUSH2 0x1395 PUSH1 0x20 DUP4 ADD DUP5 PUSH2 0x1303 JUMP JUMPDEST SWAP4 SWAP3 POP POP POP JUMP JUMPDEST PUSH32 0x4E487B7100000000000000000000000000000000000000000000000000000000 PUSH0 MSTORE PUSH1 0x22 PUSH1 0x4 MSTORE PUSH1 0x24 PUSH0 REVERT JUMPDEST PUSH0 PUSH1 0x2 DUP3 DIV SWAP1 POP PUSH1 0x1 DUP3 AND DUP1 PUSH2 0x13E0 JUMPI PUSH1 0x7F DUP3 AND SWAP2 POP JUMPDEST PUSH1 0x20 DUP3 LT DUP2 SUB PUSH2 0x13F3 JUMPI PUSH2 0x13F2 PUSH2 0x139C JUMP JUMPDEST JUMPDEST POP SWAP2 SWAP1 POP JUMP JUMPDEST PUSH0 DUP2 SWAP1 POP DUP2 PUSH0 MSTORE PUSH1 0x20 PUSH0 KECCAK256 SWAP1 POP SWAP2 SWAP1 POP JUMP JUMPDEST PUSH0 PUSH1 0x20 PUSH1 0x1F DUP4 ADD DIV SWAP1 POP SWAP2 SWAP1 POP JUMP JUMPDEST PUSH0 DUP3 DUP3 SHL SWAP1 POP SWAP3 SWAP2 POP POP JUMP JUMPDEST PUSH0 PUSH1 0x8 DUP4 MUL PUSH2 0x1455 PUSH32 0xFFFFFFFFFFFFFFFFFFFFFFFFFFFFFFFFFFFFFFFFFFFFFFFFFFFFFFFFFFFFFFFF DUP3 PUSH2 0x141A JUMP JUMPDEST PUSH2 0x145F DUP7 DUP4 PUSH2 0x141A JUMP JUMPDEST SWAP6 POP DUP1 NOT DUP5 AND SWAP4 POP DUP1 DUP7 AND DUP5 OR SWAP3 POP POP POP SWAP4 SWAP3 POP POP POP JUMP JUMPDEST PUSH0 DUP2 SWAP1 POP SWAP2 SWAP1 POP JUMP JUMPDEST PUSH0 PUSH2 0x149A PUSH2 0x1495 PUSH2 0x1490 DUP5 PUSH2 0xE87 JUMP JUMPDEST PUSH2 0x1477 JUMP JUMPDEST PUSH2 0xE87 JUMP JUMPDEST SWAP1 POP SWAP2 SWAP1 POP JUMP JUMPDEST PUSH0 DUP2 SWAP1 POP SWAP2 SWAP1 POP JUMP JUMPDEST PUSH2 0x14B3 DUP4 PUSH2 0x1480 JUMP JUMPDEST PUSH2 0x14C7 PUSH2 0x14BF DUP3 PUSH2 0x14A1 JUMP JUMPDEST DUP5 DUP5 SLOAD PUSH2 0x1426 JUMP JUMPDEST DUP3 SSTORE POP POP POP POP JUMP JUMPDEST PUSH0 SWAP1 JUMP JUMPDEST PUSH2 0x14DB PUSH2 0x14CF JUMP JUMPDEST PUSH2 0x14E6 DUP2 DUP5 DUP5 PUSH2 0x14AA JUMP JUMPDEST POP POP POP JUMP JUMPDEST JUMPDEST DUP2 DUP2 LT ISZERO PUSH2 0x1509 JUMPI PUSH2 0x14FE PUSH0 DUP3 PUSH2 0x14D3 JUMP JUMPDEST PUSH1 0x1 DUP2 ADD SWAP1 POP PUSH2 0x14EC JUMP JUMPDEST POP POP JUMP JUMPDEST PUSH1 0x1F DUP3 GT ISZERO PUSH2 0x154E JUMPI PUSH2 0x151F DUP2 PUSH2 0x13F9 JUMP JUMPDEST PUSH2 0x1528 DUP5 PUSH2 0x140B JUMP JUMPDEST DUP2 ADD PUSH1 0x20 DUP6 LT ISZERO PUSH2 0x1537 JUMPI DUP2 SWAP1 POP JUMPDEST PUSH2 0x154B PUSH2 0x1543 DUP6 PUSH2 0x140B JUMP JUMPDEST DUP4 ADD DUP3 PUSH2 0x14EB JUMP JUMPDEST POP POP JUMPDEST POP POP POP JUMP JUMPDEST PUSH0 DUP3 DUP3 SHR SWAP1 POP SWAP3 SWAP2 POP POP JUMP JUMPDEST PUSH0 PUSH2 0x156E PUSH0 NOT DUP5 PUSH1 0x8 MUL PUSH2 0x1553 JUMP JUMPDEST NOT DUP1 DUP4 AND SWAP2 POP POP SWAP3 SWAP2 POP POP JUMP JUMPDEST PUSH0 PUSH2 0x1586 DUP4 DUP4 PUSH2 0x155F JUMP JUMPDEST SWAP2 POP DUP3 PUSH1 0x2 MUL DUP3 OR SWAP1 POP SWAP3 SWAP2 POP POP JUMP JUMPDEST PUSH2 0x159F DUP3 PUSH2 0x11E7 JUMP JUMPDEST PUSH8 0xFFFFFFFFFFFFFFFF DUP2 GT ISZERO PUSH2 0x15B8 JUMPI PUSH2 0x15B7 PUSH2 0x104D JUMP JUMPDEST JUMPDEST PUSH2 0x15C2 DUP3 SLOAD PUSH2 0x13C9 JUMP JUMPDEST PUSH2 0x15CD DUP3 DUP3 DUP6 PUSH2 0x150D JUMP JUMPDEST PUSH0 PUSH1 0x20 SWAP1 POP PUSH1 0x1F DUP4 GT PUSH1 0x1 DUP2 EQ PUSH2 0x15FE JUMPI PUSH0 DUP5 ISZERO PUSH2 0x15EC JUMPI DUP3 DUP8 ADD MLOAD SWAP1 POP JUMPDEST PUSH2 0x15F6 DUP6 DUP3 PUSH2 0x157B JUMP JUMPDEST DUP7 SSTORE POP PUSH2 0x165D JUMP JUMPDEST PUSH1 0x1F NOT DUP5 AND PUSH2 0x160C DUP7 PUSH2 0x13F9 JUMP JUMPDEST PUSH0 JUMPDEST DUP3 DUP2 LT ISZERO PUSH2 0x1633 JUMPI DUP5 DUP10 ADD MLOAD DUP3 SSTORE PUSH1 0x1 DUP3 ADD SWAP2 POP PUSH1 0x20 DUP6 ADD SWAP5 POP PUSH1 0x20 DUP2 ADD SWAP1 POP PUSH2 0x160E JUMP JUMPDEST DUP7 DUP4 LT ISZERO PUSH2 0x1650 JUMPI DUP5 DUP10 ADD MLOAD PUSH2 0x164C PUSH1 0x1F DUP10 AND DUP3 PUSH2 0x155F JUMP JUMPDEST DUP4 SSTORE POP JUMPDEST PUSH1 0x1 PUSH1 0x2 DUP9 MUL ADD DUP9 SSTORE POP POP POP JUMPDEST POP POP POP POP POP POP JUMP JUMPDEST PUSH32 0x4E487B7100000000000000000000000000000000000000000000000000000000 PUSH0 MSTORE PUSH1 0x11 PUSH1 0x4 MSTORE PUSH1 0x24 PUSH0 REVERT JUMPDEST PUSH0 PUSH2 0x169C DUP3 PUSH2 0xE87 JUMP JUMPDEST SWAP2 POP PUSH2 0x16A7 DUP4 PUSH2 0xE87 JUMP JUMPDEST SWAP3 POP DUP3 DUP3 SUB SWAP1 POP DUP2 DUP2 GT ISZERO PUSH2 0x16BF JUMPI PUSH2 0x16BE PUSH2 0x1665 JUMP JUMPDEST JUMPDEST SWAP3 SWAP2 POP POP JUMP JUMPDEST PUSH0 DUP2 MLOAD SWAP1 POP SWAP2 SWAP1 POP JUMP JUMPDEST PUSH0 DUP3 DUP3 MSTORE PUSH1 0x20 DUP3 ADD SWAP1 POP SWAP3 SWAP2 POP POP JUMP JUMPDEST PUSH0 PUSH2 0x16E9 DUP3 PUSH2 0x16C5 JUMP JUMPDEST PUSH2 0x16F3 DUP2 DUP6 PUSH2 0x16CF JUMP JUMPDEST SWAP4 POP PUSH2 0x1703 DUP2 DUP6 PUSH1 0x20 DUP7 ADD PUSH2 0x1201 JUMP JUMPDEST PUSH2 0x170C DUP2 PUSH2 0x103D JUMP JUMPDEST DUP5 ADD SWAP2 POP POP SWAP3 SWAP2 POP POP JUMP JUMPDEST PUSH0 PUSH1 0x20 DUP3 ADD SWAP1 POP DUP2 DUP2 SUB PUSH0 DUP4 ADD MSTORE PUSH2 0x172F DUP2 DUP5 PUSH2 0x16DF JUMP JUMPDEST SWAP1 POP SWAP3 SWAP2 POP POP JUMP JUMPDEST PUSH0 DUP2 SWAP1 POP SWAP3 SWAP2 POP POP JUMP JUMPDEST PUSH0 PUSH2 0x174B DUP3 PUSH2 0x16C5 JUMP JUMPDEST PUSH2 0x1755 DUP2 DUP6 PUSH2 0x1737 JUMP JUMPDEST SWAP4 POP PUSH2 0x1765 DUP2 DUP6 PUSH1 0x20 DUP7 ADD PUSH2 0x1201 JUMP JUMPDEST DUP1 DUP5 ADD SWAP2 POP POP SWAP3 SWAP2 POP POP JUMP JUMPDEST PUSH0 PUSH2 0x177C DUP3 DUP5 PUSH2 0x1741 JUMP JUMPDEST SWAP2 POP DUP2 SWAP1 POP SWAP3 SWAP2 POP POP JUMP JUMPDEST PUSH32 0x6E6F7420616E206F776E65720000000000000000000000000000000000000000 PUSH0 DUP3 ADD MSTORE POP JUMP JUMPDEST PUSH0 PUSH2 0x17BB PUSH1 0xC DUP4 PUSH2 0x16CF JUMP JUMPDEST SWAP2 POP PUSH2 0x17C6 DUP3 PUSH2 0x1787 JUMP JUMPDEST PUSH1 0x20 DUP3 ADD SWAP1 POP SWAP2 SWAP1 POP JUMP JUMPDEST PUSH0 PUSH1 0x20 DUP3 ADD SWAP1 POP DUP2 DUP2 SUB PUSH0 DUP4 ADD MSTORE PUSH2 0x17E8 DUP2 PUSH2 0x17AF JUMP JUMPDEST SWAP1 POP SWAP2 SWAP1 POP JUMP JUMPDEST PUSH32 0x747820646F6573206E6F74206578697374000000000000000000000000000000 PUSH0 DUP3 ADD MSTORE POP JUMP JUMPDEST PUSH0 PUSH2 0x1823 PUSH1 0x11 DUP4 PUSH2 0x16CF JUMP JUMPDEST SWAP2 POP PUSH2 0x182E DUP3 PUSH2 0x17EF JUMP JUMPDEST PUSH1 0x20 DUP3 ADD SWAP1 POP SWAP2 SWAP1 POP JUMP JUMPDEST PUSH0 PUSH1 0x20 DUP3 ADD SWAP1 POP DUP2 DUP2 SUB PUSH0 DUP4 ADD MSTORE PUSH2 0x1850 DUP2 PUSH2 0x1817 JUMP JUMPDEST SWAP1 POP SWAP2 SWAP1 POP JUMP JUMPDEST PUSH32 0x4E487B7100000000000000000000000000000000000000000000000000000000 PUSH0 MSTORE PUSH1 0x32 PUSH1 0x4 MSTORE PUSH1 0x24 PUSH0 REVERT JUMPDEST PUSH32 0x616C726561647920657865637574656400000000000000000000000000000000 PUSH0 DUP3 ADD MSTORE POP JUMP JUMPDEST PUSH0 PUSH2 0x18B8 PUSH1 0x10 DUP4 PUSH2 0x16CF JUMP JUMPDEST SWAP2 POP PUSH2 0x18C3 DUP3 PUSH2 0x1884 JUMP JUMPDEST PUSH1 0x20 DUP3 ADD SWAP1 POP SWAP2 SWAP1 POP JUMP JUMPDEST PUSH0 PUSH1 0x20 DUP3 ADD SWAP1 POP DUP2 DUP2 SUB PUSH0 DUP4 ADD MSTORE PUSH2 0x18E5 DUP2 PUSH2 0x18AC JUMP JUMPDEST SWAP1 POP SWAP2 SWAP1 POP JUMP JUMPDEST PUSH32 0x7478206E6F742079657420617070726F76656400000000000000000000000000 PUSH0 DUP3 ADD MSTORE POP JUMP JUMPDEST PUSH0 PUSH2 0x1920 PUSH1 0x13 DUP4 PUSH2 0x16CF JUMP JUMPDEST SWAP2 POP PUSH2 0x192B DUP3 PUSH2 0x18EC JUMP JUMPDEST PUSH1 0x20 DUP3 ADD SWAP1 POP SWAP2 SWAP1 POP JUMP JUMPDEST PUSH0 PUSH1 0x20 DUP3 ADD SWAP1 POP DUP2 DUP2 SUB PUSH0 DUP4 ADD MSTORE PUSH2 0x194D DUP2 PUSH2 0x1914 JUMP JUMPDEST SWAP1 POP SWAP2 SWAP1 POP JUMP JUMPDEST PUSH32 0x747820616C726561647920617070726F76656400000000000000000000000000 PUSH0 DUP3 ADD MSTORE POP JUMP JUMPDEST PUSH0 PUSH2 0x1988 PUSH1 0x13 DUP4 PUSH2 0x16CF JUMP JUMPDEST SWAP2 POP PUSH2 0x1993 DUP3 PUSH2 0x1954 JUMP JUMPDEST PUSH1 0x20 DUP3 ADD SWAP1 POP SWAP2 SWAP1 POP JUMP JUMPDEST PUSH0 PUSH1 0x20 DUP3 ADD SWAP1 POP DUP2 DUP2 SUB PUSH0 DUP4 ADD MSTORE PUSH2 0x19B5 DUP2 PUSH2 0x197C JUMP JUMPDEST SWAP1 POP SWAP2 SWAP1 POP JUMP JUMPDEST PUSH0 PUSH2 0x19C6 DUP3 PUSH2 0xE87 JUMP JUMPDEST SWAP2 POP PUSH2 0x19D1 DUP4 PUSH2 0xE87 JUMP JUMPDEST SWAP3 POP DUP3 DUP3 ADD SWAP1 POP DUP1 DUP3 GT ISZERO PUSH2 0x19E9 JUMPI PUSH2 0x19E8 PUSH2 0x1665 JUMP JUMPDEST JUMPDEST SWAP3 SWAP2 POP POP JUMP JUMPDEST PUSH32 0x6E6F7420656E6F75676820617070726F76616C73000000000000000000000000 PUSH0 DUP3 ADD MSTORE POP JUMP JUMPDEST PUSH0 PUSH2 0x1A23 PUSH1 0x14 DUP4 PUSH2 0x16CF JUMP JUMPDEST SWAP2 POP PUSH2 0x1A2E DUP3 PUSH2 0x19EF JUMP JUMPDEST PUSH1 0x20 DUP3 ADD SWAP1 POP SWAP2 SWAP1 POP JUMP JUMPDEST PUSH0 PUSH1 0x20 DUP3 ADD SWAP1 POP DUP2 DUP2 SUB PUSH0 DUP4 ADD MSTORE PUSH2 0x1A50 DUP2 PUSH2 0x1A17 JUMP JUMPDEST SWAP1 POP SWAP2 SWAP1 POP JUMP JUMPDEST PUSH0 DUP2 SWAP1 POP SWAP3 SWAP2 POP POP JUMP JUMPDEST PUSH0 DUP2 SLOAD PUSH2 0x1A6D DUP2 PUSH2 0x13C9 JUMP JUMPDEST PUSH2 0x1A77 DUP2 DUP7 PUSH2 0x1A57 JUMP JUMPDEST SWAP5 POP PUSH1 0x1 DUP3 AND PUSH0 DUP2 EQ PUSH2 0x1A91 JUMPI PUSH1 0x1 DUP2 EQ PUSH2 0x1AA6 JUMPI PUSH2 0x1AD8 JUMP JUMPDEST PUSH1 0xFF NOT DUP4 AND DUP7 MSTORE DUP2 ISZERO ISZERO DUP3 MUL DUP7 ADD SWAP4 POP PUSH2 0x1AD8 JUMP JUMPDEST PUSH2 0x1AAF DUP6 PUSH2 0x13F9 JUMP JUMPDEST PUSH0 JUMPDEST DUP4 DUP2 LT ISZERO PUSH2 0x1AD0 JUMPI DUP2 SLOAD DUP2 DUP10 ADD MSTORE PUSH1 0x1 DUP3 ADD SWAP2 POP PUSH1 0x20 DUP2 ADD SWAP1 POP PUSH2 0x1AB1 JUMP JUMPDEST DUP4 DUP9 ADD SWAP6 POP POP POP JUMPDEST POP POP POP SWAP3 SWAP2 POP POP JUMP JUMPDEST PUSH0 PUSH2 0x1AEC DUP3 DUP5 PUSH2 0x1A61 JUMP JUMPDEST SWAP2 POP DUP2 SWAP1 POP SWAP3 SWAP2 POP POP JUMP JUMPDEST PUSH32 0x7478206661696C65640000000000000000000000000000000000000000000000 PUSH0 DUP3 ADD MSTORE POP JUMP JUMPDEST PUSH0 PUSH2 0x1B2B PUSH1 0x9 DUP4 PUSH2 0x16CF JUMP JUMPDEST SWAP2 POP PUSH2 0x1B36 DUP3 PUSH2 0x1AF7 JUMP JUMPDEST PUSH1 0x20 DUP3 ADD SWAP1 POP SWAP2 SWAP1 POP JUMP JUMPDEST PUSH0 PUSH1 0x20 DUP3 ADD SWAP1 POP DUP2 DUP2 SUB PUSH0 DUP4 ADD MSTORE PUSH2 0x1B58 DUP2 PUSH2 0x1B1F JUMP JUMPDEST SWAP1 POP SWAP2 SWAP1 POP JUMP INVALID LOG2 PUSH5 0x6970667358 0x22 SLT KECCAK256 0x2F SGT DUP1 CALLVALUE CALLDATACOPY MUL 0xE1 SIGNEXTEND NOT 0xD4 PUSH11 0x747D63FE237928439B413C 0xBD 0x4E 0x29 SGT 0xDE PUSH3 0xFDBAA7 BLOBHASH PUSH5 0x736F6C6343 STOP ADDMOD BYTE STOP CALLER "
				},
				"gasEstimates": {
					"creation": {
						"codeDepositCost": "1412200",
						"executionCost": "infinite",
						"totalCost": "infinite"
					},
					"external": {
						"approvalsCount(uint256)": "infinite",
						"approve(uint256)": "infinite",
						"approved(uint256,address)": "3182",
						"deposit()": "1799",
						"encode(string,string)": "infinite",
						"execute(uint256)": "infinite",
						"isOwner(address)": "2922",
						"owners(uint256)": "4944",
						"requiredApprovals()": "infinite",
						"revoke(uint256)": "infinite",
						"submit(address,uint256,bytes)": "infinite",
						"transactions(uint256)": "infinite"
					},
					"internal": {
						"_isApproved(uint256,address)": "2334"
					}
				},
				"methodIdentifiers": {
					"approvalsCount(uint256)": "abaf742a",
					"approve(uint256)": "b759f954",
					"approved(uint256,address)": "8253951a",
					"deposit()": "d0e30db0",
					"encode(string,string)": "17fe2da2",
					"execute(uint256)": "fe0d94c1",
					"isOwner(address)": "2f54bf6e",
					"owners(uint256)": "025e7c27",
					"requiredApprovals()": "99c1aadc",
					"revoke(uint256)": "20c5429b",
					"submit(address,uint256,bytes)": "14de327f",
					"transactions(uint256)": "9ace38c2"
				}
			},
			"storageLayout": {
				"storage": [
					{
						"astId": 4,
						"contract": "multisignature/Multi.sol:MultiSig",
						"label": "owners",
						"offset": 0,
						"slot": "0",
						"type": "t_array(t_address)dyn_storage"
					},
					{
						"astId": 8,
						"contract": "multisignature/Multi.sol:MultiSig",
						"label": "isOwner",
						"offset": 0,
						"slot": "1",
						"type": "t_mapping(t_address,t_bool)"
					},
					{
						"astId": 102,
						"contract": "multisignature/Multi.sol:MultiSig",
						"label": "transactions",
						"offset": 0,
						"slot": "2",
						"type": "t_array(t_struct(Transaction)98_storage)dyn_storage"
					},
					{
						"astId": 106,
						"contract": "multisignature/Multi.sol:MultiSig",
						"label": "approvalsCount",
						"offset": 0,
						"slot": "3",
						"type": "t_mapping(t_uint256,t_uint256)"
					},
					{
						"astId": 112,
						"contract": "multisignature/Multi.sol:MultiSig",
						"label": "approved",
						"offset": 0,
						"slot": "4",
						"type": "t_mapping(t_uint256,t_mapping(t_address,t_bool))"
					}
				],
				"types": {
					"t_address": {
						"encoding": "inplace",
						"label": "address",
						"numberOfBytes": "20"
					},
					"t_array(t_address)dyn_storage": {
						"base": "t_address",
						"encoding": "dynamic_array",
						"label": "address[]",
						"numberOfBytes": "32"
					},
					"t_array(t_struct(Transaction)98_storage)dyn_storage": {
						"base": "t_struct(Transaction)98_storage",
						"encoding": "dynamic_array",
						"label": "struct MultiSig.Transaction[]",
						"numberOfBytes": "32"
					},
					"t_bool": {
						"encoding": "inplace",
						"label": "bool",
						"numberOfBytes": "1"
					},
					"t_bytes_storage": {
						"encoding": "bytes",
						"label": "bytes",
						"numberOfBytes": "32"
					},
					"t_mapping(t_address,t_bool)": {
						"encoding": "mapping",
						"key": "t_address",
						"label": "mapping(address => bool)",
						"numberOfBytes": "32",
						"value": "t_bool"
					},
					"t_mapping(t_uint256,t_mapping(t_address,t_bool))": {
						"encoding": "mapping",
						"key": "t_uint256",
						"label": "mapping(uint256 => mapping(address => bool))",
						"numberOfBytes": "32",
						"value": "t_mapping(t_address,t_bool)"
					},
					"t_mapping(t_uint256,t_uint256)": {
						"encoding": "mapping",
						"key": "t_uint256",
						"label": "mapping(uint256 => uint256)",
						"numberOfBytes": "32",
						"value": "t_uint256"
					},
					"t_struct(Transaction)98_storage": {
						"encoding": "inplace",
						"label": "struct MultiSig.Transaction",
						"members": [
							{
								"astId": 91,
								"contract": "multisignature/Multi.sol:MultiSig",
								"label": "_to",
								"offset": 0,
								"slot": "0",
								"type": "t_address"
							},
							{
								"astId": 93,
								"contract": "multisignature/Multi.sol:MultiSig",
								"label": "_value",
								"offset": 0,
								"slot": "1",
								"type": "t_uint256"
							},
							{
								"astId": 95,
								"contract": "multisignature/Multi.sol:MultiSig",
								"label": "_data",
								"offset": 0,
								"slot": "2",
								"type": "t_bytes_storage"
							},
							{
								"astId": 97,
								"contract": "multisignature/Multi.sol:MultiSig",
								"label": "_executed",
								"offset": 0,
								"slot": "3",
								"type": "t_bool"
							}
						],
						"numberOfBytes": "128"
					},
					"t_uint256": {
						"encoding": "inplace",
						"label": "uint256",
						"numberOfBytes": "32"
					}
				}
			},
			"userdoc": {
				"kind": "user",
				"methods": {
					"approve(uint256)": {
						"notice": "сделать approve транкзации из под владельца"
					},
					"encode(string,string)": {
						"notice": "для тестирования"
					}
				},
				"version": 1
			}
		}
	}
}