{
	"merkletree/Tree.sol": {
		"Tree": {
			"abi": [
				{
					"inputs": [],
					"stateMutability": "nonpayable",
					"type": "constructor"
				},
				{
					"inputs": [],
					"name": "getRoot",
					"outputs": [
						{
							"internalType": "bytes32",
							"name": "",
							"type": "bytes32"
						}
					],
					"stateMutability": "view",
					"type": "function"
				},
				{
					"inputs": [
						{
							"internalType": "uint256",
							"name": "",
							"type": "uint256"
						}
					],
					"name": "hashes",
					"outputs": [
						{
							"internalType": "bytes32",
							"name": "",
							"type": "bytes32"
						}
					],
					"stateMutability": "view",
					"type": "function"
				},
				{
					"inputs": [
						{
							"internalType": "bytes32",
							"name": "root",
							"type": "bytes32"
						},
						{
							"internalType": "bytes32",
							"name": "leaf",
							"type": "bytes32"
						},
						{
							"internalType": "uint256",
							"name": "index",
							"type": "uint256"
						},
						{
							"internalType": "bytes32[]",
							"name": "proof",
							"type": "bytes32[]"
						}
					],
					"name": "verify",
					"outputs": [
						{
							"internalType": "bool",
							"name": "",
							"type": "bool"
						}
					],
					"stateMutability": "pure",
					"type": "function"
				}
			],
			"devdoc": {
				"kind": "dev",
				"methods": {
					"verify(bytes32,bytes32,uint256,bytes32[])": {
						"params": {
							"index": "где находится хеш leaf",
							"leaf": "хеш который нужно проверить (есть он или нет в дереве)",
							"proof": "массив хешей, нужных для проверки",
							"root": "корень (самый верхний хеш)"
						}
					}
				},
				"version": 1
			},
			"evm": {
				"assembly": "    /* \"merkletree/Tree.sol\":299:4276  contract Tree {... */\n  mstore(0x40, 0x80)\n    /* \"merkletree/Tree.sol\":474:533  string[4] heroes = [\"Sherlock\", \"John\", \"Mary\", \"Lestrade\"] */\n  mload(0x40)\n  dup1\n  0x80\n  add\n  0x40\n  mstore\n  dup1\n  mload(0x40)\n  dup1\n  0x40\n  add\n  0x40\n  mstore\n  dup1\n  0x08\n  dup2\n  mstore\n  0x20\n  add\n  0x536865726c6f636b000000000000000000000000000000000000000000000000\n  dup2\n  mstore\n  pop\n  dup2\n  mstore\n  0x20\n  add\n  mload(0x40)\n  dup1\n  0x40\n  add\n  0x40\n  mstore\n  dup1\n  0x04\n  dup2\n  mstore\n  0x20\n  add\n  0x4a6f686e00000000000000000000000000000000000000000000000000000000\n  dup2\n  mstore\n  pop\n  dup2\n  mstore\n  0x20\n  add\n  mload(0x40)\n  dup1\n  0x40\n  add\n  0x40\n  mstore\n  dup1\n  0x04\n  dup2\n  mstore\n  0x20\n  add\n  0x4d61727900000000000000000000000000000000000000000000000000000000\n  dup2\n  mstore\n  pop\n  dup2\n  mstore\n  0x20\n  add\n  mload(0x40)\n  dup1\n  0x40\n  add\n  0x40\n  mstore\n  dup1\n  0x08\n  dup2\n  mstore\n  0x20\n  add\n  0x4c65737472616465000000000000000000000000000000000000000000000000\n  dup2\n  mstore\n  pop\n  dup2\n  mstore\n  pop\n  0x01\n  swap1\n  0x04\n  tag_1\n  swap3\n  swap2\n  swap1\n  tag_2\n  jump\t// in\ntag_1:\n  pop\n    /* \"merkletree/Tree.sol\":540:2855  constructor() {... */\n  callvalue\n  dup1\n  iszero\n  tag_3\n  jumpi\n  0x00\n  dup1\n  revert\ntag_3:\n  pop\n    /* \"merkletree/Tree.sol\":684:690  uint i */\n  0x00\n    /* \"merkletree/Tree.sol\":679:820  for (uint i = 0; i < heroes.length; i++) {... */\ntag_6:\n    /* \"merkletree/Tree.sol\":700:713  heroes.length */\n  0x04\n    /* \"merkletree/Tree.sol\":696:697  i */\n  dup2\n    /* \"merkletree/Tree.sol\":696:713  i < heroes.length */\n  lt\n    /* \"merkletree/Tree.sol\":679:820  for (uint i = 0; i < heroes.length; i++) {... */\n  iszero\n  tag_7\n  jumpi\n    /* \"merkletree/Tree.sol\":734:740  hashes */\n  0x00\n    /* \"merkletree/Tree.sol\":784:790  heroes */\n  0x01\n    /* \"merkletree/Tree.sol\":791:792  i */\n  dup3\n    /* \"merkletree/Tree.sol\":784:793  heroes[i] */\n  0x04\n  dup2\n  lt\n  tag_9\n  jumpi\n  tag_10\n  tag_11\n  jump\t// in\ntag_10:\ntag_9:\n  add\n    /* \"merkletree/Tree.sol\":773:794  abi.encode(heroes[i]) */\n  add(0x20, mload(0x40))\n  tag_13\n  swap2\n  swap1\n  tag_14\n  jump\t// in\ntag_13:\n  mload(0x40)\n  0x20\n  dup2\n  dup4\n  sub\n  sub\n  dup2\n  mstore\n  swap1\n  0x40\n  mstore\n    /* \"merkletree/Tree.sol\":763:795  keccak256(abi.encode(heroes[i])) */\n  dup1\n  mload\n  swap1\n  0x20\n  add\n  keccak256\n    /* \"merkletree/Tree.sol\":734:809  hashes.push(... */\n  swap1\n  dup1\n  0x01\n  dup2\n  sload\n  add\n  dup1\n  dup3\n  sstore\n  dup1\n  swap2\n  pop\n  pop\n  0x01\n  swap1\n  sub\n  swap1\n  0x00\n  mstore\n  keccak256(0x00, 0x20)\n  add\n  0x00\n  swap1\n  swap2\n  swap1\n  swap2\n  swap1\n  swap2\n  pop\n  sstore\n    /* \"merkletree/Tree.sol\":715:718  i++ */\n  dup1\n  dup1\n  0x01\n  add\n  swap2\n  pop\n  pop\n    /* \"merkletree/Tree.sol\":679:820  for (uint i = 0; i < heroes.length; i++) {... */\n  jump(tag_6)\ntag_7:\n  pop\n    /* \"merkletree/Tree.sol\":830:836  uint n */\n  0x00\n    /* \"merkletree/Tree.sol\":839:852  heroes.length */\n  0x04\n    /* \"merkletree/Tree.sol\":830:852  uint n = heroes.length */\n  swap1\n  pop\n    /* \"merkletree/Tree.sol\":862:873  uint offset */\n  0x00\n    /* \"merkletree/Tree.sol\":1014:2849  while (n > 0) {... */\ntag_16:\n    /* \"merkletree/Tree.sol\":1025:1026  0 */\n  0x00\n    /* \"merkletree/Tree.sol\":1021:1022  n */\n  dup3\n    /* \"merkletree/Tree.sol\":1021:1026  n > 0 */\n  gt\n    /* \"merkletree/Tree.sol\":1014:2849  while (n > 0) {... */\n  iszero\n  tag_17\n  jumpi\n    /* \"merkletree/Tree.sol\":1289:1295  uint i */\n  0x00\n    /* \"merkletree/Tree.sol\":1284:2110  for (uint i = 0; i < n - 1; i += 2) {... */\ntag_18:\n    /* \"merkletree/Tree.sol\":1309:1310  1 */\n  0x01\n    /* \"merkletree/Tree.sol\":1305:1306  n */\n  dup4\n    /* \"merkletree/Tree.sol\":1305:1310  n - 1 */\n  tag_21\n  swap2\n  swap1\n  tag_22\n  jump\t// in\ntag_21:\n    /* \"merkletree/Tree.sol\":1301:1302  i */\n  dup2\n    /* \"merkletree/Tree.sol\":1301:1310  i < n - 1 */\n  lt\n    /* \"merkletree/Tree.sol\":1284:2110  for (uint i = 0; i < n - 1; i += 2) {... */\n  iszero\n  tag_19\n  jumpi\n    /* \"merkletree/Tree.sol\":1338:1353  bytes32 newHash */\n  0x00\n    /* \"merkletree/Tree.sol\":1975:1981  hashes */\n  dup1\n    /* \"merkletree/Tree.sol\":1986:1992  offset */\n  dup4\n    /* \"merkletree/Tree.sol\":1982:1983  i */\n  dup4\n    /* \"merkletree/Tree.sol\":1982:1992  i + offset */\n  tag_23\n  swap2\n  swap1\n  tag_24\n  jump\t// in\ntag_23:\n    /* \"merkletree/Tree.sol\":1975:1993  hashes[i + offset] */\n  dup2\n  sload\n  dup2\n  lt\n  tag_25\n  jumpi\n  tag_26\n  tag_11\n  jump\t// in\ntag_26:\ntag_25:\n  swap1\n  0x00\n  mstore\n  keccak256(0x00, 0x20)\n  add\n  sload\n    /* \"merkletree/Tree.sol\":1995:2001  hashes */\n  0x00\n    /* \"merkletree/Tree.sol\":2015:2016  1 */\n  0x01\n    /* \"merkletree/Tree.sol\":2006:2012  offset */\n  dup6\n    /* \"merkletree/Tree.sol\":2002:2003  i */\n  dup6\n    /* \"merkletree/Tree.sol\":2002:2012  i + offset */\n  tag_28\n  swap2\n  swap1\n  tag_24\n  jump\t// in\ntag_28:\n    /* \"merkletree/Tree.sol\":2002:2016  i + offset + 1 */\n  tag_29\n  swap2\n  swap1\n  tag_24\n  jump\t// in\ntag_29:\n    /* \"merkletree/Tree.sol\":1995:2017  hashes[i + offset + 1] */\n  dup2\n  sload\n  dup2\n  lt\n  tag_30\n  jumpi\n  tag_31\n  tag_11\n  jump\t// in\ntag_31:\ntag_30:\n  swap1\n  0x00\n  mstore\n  keccak256(0x00, 0x20)\n  add\n  sload\n    /* \"merkletree/Tree.sol\":1387:2039  abi.encodePacked(... */\n  add(0x20, mload(0x40))\n  tag_33\n  swap3\n  swap2\n  swap1\n  tag_34\n  jump\t// in\ntag_33:\n  mload(0x40)\n  0x20\n  dup2\n  dup4\n  sub\n  sub\n  dup2\n  mstore\n  swap1\n  0x40\n  mstore\n    /* \"merkletree/Tree.sol\":1356:2057  keccak256(... */\n  dup1\n  mload\n  swap1\n  0x20\n  add\n  keccak256\n    /* \"merkletree/Tree.sol\":1338:2057  bytes32 newHash = keccak256(... */\n  swap1\n  pop\n    /* \"merkletree/Tree.sol\":2075:2081  hashes */\n  0x00\n    /* \"merkletree/Tree.sol\":2087:2094  newHash */\n  dup2\n    /* \"merkletree/Tree.sol\":2075:2095  hashes.push(newHash) */\n  swap1\n  dup1\n  0x01\n  dup2\n  sload\n  add\n  dup1\n  dup3\n  sstore\n  dup1\n  swap2\n  pop\n  pop\n  0x01\n  swap1\n  sub\n  swap1\n  0x00\n  mstore\n  keccak256(0x00, 0x20)\n  add\n  0x00\n  swap1\n  swap2\n  swap1\n  swap2\n  swap1\n  swap2\n  pop\n  sstore\n    /* \"merkletree/Tree.sol\":1320:2110  {... */\n  pop\n    /* \"merkletree/Tree.sol\":1317:1318  2 */\n  0x02\n    /* \"merkletree/Tree.sol\":1312:1318  i += 2 */\n  dup2\n  tag_36\n  swap2\n  swap1\n  tag_24\n  jump\t// in\ntag_36:\n  swap1\n  pop\n    /* \"merkletree/Tree.sol\":1284:2110  for (uint i = 0; i < n - 1; i += 2) {... */\n  jump(tag_18)\ntag_19:\n  pop\n    /* \"merkletree/Tree.sol\":2555:2556  n */\n  dup2\n    /* \"merkletree/Tree.sol\":2545:2556  offset += n */\n  dup2\n  tag_37\n  swap2\n  swap1\n  tag_24\n  jump\t// in\ntag_37:\n  swap1\n  pop\n    /* \"merkletree/Tree.sol\":2837:2838  2 */\n  0x02\n    /* \"merkletree/Tree.sol\":2833:2834  n */\n  dup3\n    /* \"merkletree/Tree.sol\":2833:2838  n / 2 */\n  tag_38\n  swap2\n  swap1\n  tag_39\n  jump\t// in\ntag_38:\n    /* \"merkletree/Tree.sol\":2829:2838  n = n / 2 */\n  swap2\n  pop\n    /* \"merkletree/Tree.sol\":1014:2849  while (n > 0) {... */\n  jump(tag_16)\ntag_17:\n    /* \"merkletree/Tree.sol\":554:2855  {... */\n  pop\n  pop\n    /* \"merkletree/Tree.sol\":299:4276  contract Tree {... */\n  jump(tag_40)\ntag_2:\n  dup3\n  0x04\n  dup2\n  add\n  swap3\n  dup3\n  iszero\n  tag_41\n  jumpi\n  swap2\n  0x20\n  mul\n  dup3\n  add\ntag_42:\n  dup3\n  dup2\n  gt\n  iszero\n  tag_43\n  jumpi\n  dup3\n  mload\n  dup3\n  swap1\n  dup2\n  tag_44\n  swap2\n  swap1\n  tag_45\n  jump\t// in\ntag_44:\n  pop\n  swap2\n  0x20\n  add\n  swap2\n  swap1\n  0x01\n  add\n  swap1\n  jump(tag_42)\ntag_43:\ntag_41:\n  pop\n  swap1\n  pop\n  tag_46\n  swap2\n  swap1\n  tag_47\n  jump\t// in\ntag_46:\n  pop\n  swap1\n  jump\t// out\ntag_47:\ntag_48:\n  dup1\n  dup3\n  gt\n  iszero\n  tag_49\n  jumpi\n  0x00\n  dup2\n  dup2\n  tag_50\n  swap2\n  swap1\n  tag_51\n  jump\t// in\ntag_50:\n  pop\n  0x01\n  add\n  jump(tag_48)\ntag_49:\n  pop\n  swap1\n  jump\t// out\ntag_51:\n  pop\n  dup1\n  sload\n  tag_52\n  swap1\n  tag_53\n  jump\t// in\ntag_52:\n  0x00\n  dup3\n  sstore\n  dup1\n  0x1f\n  lt\n  tag_55\n  jumpi\n  pop\n  jump(tag_54)\ntag_55:\n  0x1f\n  add\n  0x20\n  swap1\n  div\n  swap1\n  0x00\n  mstore\n  keccak256(0x00, 0x20)\n  swap1\n  dup2\n  add\n  swap1\n  tag_56\n  swap2\n  swap1\n  tag_57\n  jump\t// in\ntag_56:\ntag_54:\n  pop\n  jump\t// out\ntag_57:\ntag_58:\n  dup1\n  dup3\n  gt\n  iszero\n  tag_59\n  jumpi\n  0x00\n  dup2\n  0x00\n  swap1\n  sstore\n  pop\n  0x01\n  add\n  jump(tag_58)\ntag_59:\n  pop\n  swap1\n  jump\t// out\n    /* \"#utility.yul\":7:187   */\ntag_11:\n    /* \"#utility.yul\":55:132   */\n  0x4e487b7100000000000000000000000000000000000000000000000000000000\n    /* \"#utility.yul\":52:53   */\n  0x00\n    /* \"#utility.yul\":45:133   */\n  mstore\n    /* \"#utility.yul\":152:156   */\n  0x32\n    /* \"#utility.yul\":149:150   */\n  0x04\n    /* \"#utility.yul\":142:157   */\n  mstore\n    /* \"#utility.yul\":176:180   */\n  0x24\n    /* \"#utility.yul\":173:174   */\n  0x00\n    /* \"#utility.yul\":166:181   */\n  revert\n    /* \"#utility.yul\":193:373   */\ntag_60:\n    /* \"#utility.yul\":241:318   */\n  0x4e487b7100000000000000000000000000000000000000000000000000000000\n    /* \"#utility.yul\":238:239   */\n  0x00\n    /* \"#utility.yul\":231:319   */\n  mstore\n    /* \"#utility.yul\":338:342   */\n  0x22\n    /* \"#utility.yul\":335:336   */\n  0x04\n    /* \"#utility.yul\":328:343   */\n  mstore\n    /* \"#utility.yul\":362:366   */\n  0x24\n    /* \"#utility.yul\":359:360   */\n  0x00\n    /* \"#utility.yul\":352:367   */\n  revert\n    /* \"#utility.yul\":379:699   */\ntag_53:\n    /* \"#utility.yul\":423:429   */\n  0x00\n    /* \"#utility.yul\":460:461   */\n  0x02\n    /* \"#utility.yul\":454:458   */\n  dup3\n    /* \"#utility.yul\":450:462   */\n  div\n    /* \"#utility.yul\":440:462   */\n  swap1\n  pop\n    /* \"#utility.yul\":507:508   */\n  0x01\n    /* \"#utility.yul\":501:505   */\n  dup3\n    /* \"#utility.yul\":497:509   */\n  and\n    /* \"#utility.yul\":528:546   */\n  dup1\n    /* \"#utility.yul\":518:599   */\n  tag_90\n  jumpi\n    /* \"#utility.yul\":584:588   */\n  0x7f\n    /* \"#utility.yul\":576:582   */\n  dup3\n    /* \"#utility.yul\":572:589   */\n  and\n    /* \"#utility.yul\":562:589   */\n  swap2\n  pop\n    /* \"#utility.yul\":518:599   */\ntag_90:\n    /* \"#utility.yul\":646:648   */\n  0x20\n    /* \"#utility.yul\":638:644   */\n  dup3\n    /* \"#utility.yul\":635:649   */\n  lt\n    /* \"#utility.yul\":615:633   */\n  dup2\n    /* \"#utility.yul\":612:650   */\n  sub\n    /* \"#utility.yul\":609:693   */\n  tag_91\n  jumpi\n    /* \"#utility.yul\":665:683   */\n  tag_92\n  tag_60\n  jump\t// in\ntag_92:\n    /* \"#utility.yul\":609:693   */\ntag_91:\n    /* \"#utility.yul\":430:699   */\n  pop\n    /* \"#utility.yul\":379:699   */\n  swap2\n  swap1\n  pop\n  jump\t// out\n    /* \"#utility.yul\":705:874   */\ntag_61:\n    /* \"#utility.yul\":789:800   */\n  0x00\n    /* \"#utility.yul\":823:829   */\n  dup3\n    /* \"#utility.yul\":818:821   */\n  dup3\n    /* \"#utility.yul\":811:830   */\n  mstore\n    /* \"#utility.yul\":863:867   */\n  0x20\n    /* \"#utility.yul\":858:861   */\n  dup3\n    /* \"#utility.yul\":854:868   */\n  add\n    /* \"#utility.yul\":839:868   */\n  swap1\n  pop\n    /* \"#utility.yul\":705:874   */\n  swap3\n  swap2\n  pop\n  pop\n  jump\t// out\n    /* \"#utility.yul\":880:1021   */\ntag_62:\n    /* \"#utility.yul\":929:933   */\n  0x00\n    /* \"#utility.yul\":952:955   */\n  dup2\n    /* \"#utility.yul\":944:955   */\n  swap1\n  pop\n    /* \"#utility.yul\":975:978   */\n  dup2\n    /* \"#utility.yul\":972:973   */\n  0x00\n    /* \"#utility.yul\":965:979   */\n  mstore\n    /* \"#utility.yul\":1009:1013   */\n  0x20\n    /* \"#utility.yul\":1006:1007   */\n  0x00\n    /* \"#utility.yul\":996:1014   */\n  keccak256\n    /* \"#utility.yul\":988:1014   */\n  swap1\n  pop\n    /* \"#utility.yul\":880:1021   */\n  swap2\n  swap1\n  pop\n  jump\t// out\n    /* \"#utility.yul\":1051:1882   */\ntag_63:\n    /* \"#utility.yul\":1136:1139   */\n  0x00\n    /* \"#utility.yul\":1173:1178   */\n  dup2\n    /* \"#utility.yul\":1167:1179   */\n  sload\n    /* \"#utility.yul\":1202:1238   */\n  tag_96\n    /* \"#utility.yul\":1228:1237   */\n  dup2\n    /* \"#utility.yul\":1202:1238   */\n  tag_53\n  jump\t// in\ntag_96:\n    /* \"#utility.yul\":1254:1325   */\n  tag_97\n    /* \"#utility.yul\":1318:1324   */\n  dup2\n    /* \"#utility.yul\":1313:1316   */\n  dup7\n    /* \"#utility.yul\":1254:1325   */\n  tag_61\n  jump\t// in\ntag_97:\n    /* \"#utility.yul\":1247:1325   */\n  swap5\n  pop\n    /* \"#utility.yul\":1356:1357   */\n  0x01\n    /* \"#utility.yul\":1345:1354   */\n  dup3\n    /* \"#utility.yul\":1341:1358   */\n  and\n    /* \"#utility.yul\":1372:1373   */\n  0x00\n    /* \"#utility.yul\":1367:1531   */\n  dup2\n  eq\n  tag_99\n  jumpi\n    /* \"#utility.yul\":1545:1546   */\n  0x01\n    /* \"#utility.yul\":1540:1876   */\n  dup2\n  eq\n  tag_100\n  jumpi\n    /* \"#utility.yul\":1334:1876   */\n  jump(tag_98)\n    /* \"#utility.yul\":1367:1531   */\ntag_99:\n    /* \"#utility.yul\":1451:1455   */\n  0xff\n    /* \"#utility.yul\":1447:1456   */\n  not\n    /* \"#utility.yul\":1436:1445   */\n  dup4\n    /* \"#utility.yul\":1432:1457   */\n  and\n    /* \"#utility.yul\":1427:1430   */\n  dup7\n    /* \"#utility.yul\":1420:1458   */\n  mstore\n    /* \"#utility.yul\":1511:1517   */\n  dup2\n    /* \"#utility.yul\":1504:1518   */\n  iszero\n    /* \"#utility.yul\":1497:1519   */\n  iszero\n    /* \"#utility.yul\":1491:1495   */\n  0x20\n    /* \"#utility.yul\":1487:1520   */\n  mul\n    /* \"#utility.yul\":1482:1485   */\n  dup7\n    /* \"#utility.yul\":1478:1521   */\n  add\n    /* \"#utility.yul\":1471:1521   */\n  swap4\n  pop\n    /* \"#utility.yul\":1367:1531   */\n  jump(tag_98)\n    /* \"#utility.yul\":1540:1876   */\ntag_100:\n    /* \"#utility.yul\":1607:1645   */\n  tag_101\n    /* \"#utility.yul\":1639:1644   */\n  dup6\n    /* \"#utility.yul\":1607:1645   */\n  tag_62\n  jump\t// in\ntag_101:\n    /* \"#utility.yul\":1667:1668   */\n  0x00\n    /* \"#utility.yul\":1681:1835   */\ntag_102:\n    /* \"#utility.yul\":1695:1701   */\n  dup4\n    /* \"#utility.yul\":1692:1693   */\n  dup2\n    /* \"#utility.yul\":1689:1702   */\n  lt\n    /* \"#utility.yul\":1681:1835   */\n  iszero\n  tag_104\n  jumpi\n    /* \"#utility.yul\":1769:1776   */\n  dup2\n    /* \"#utility.yul\":1763:1777   */\n  sload\n    /* \"#utility.yul\":1759:1760   */\n  dup2\n    /* \"#utility.yul\":1754:1757   */\n  dup10\n    /* \"#utility.yul\":1750:1761   */\n  add\n    /* \"#utility.yul\":1743:1778   */\n  mstore\n    /* \"#utility.yul\":1819:1820   */\n  0x01\n    /* \"#utility.yul\":1810:1817   */\n  dup3\n    /* \"#utility.yul\":1806:1821   */\n  add\n    /* \"#utility.yul\":1795:1821   */\n  swap2\n  pop\n    /* \"#utility.yul\":1717:1721   */\n  0x20\n    /* \"#utility.yul\":1714:1715   */\n  dup2\n    /* \"#utility.yul\":1710:1722   */\n  add\n    /* \"#utility.yul\":1705:1722   */\n  swap1\n  pop\n    /* \"#utility.yul\":1681:1835   */\n  jump(tag_102)\ntag_104:\n    /* \"#utility.yul\":1864:1865   */\n  dup1\n    /* \"#utility.yul\":1859:1862   */\n  dup9\n    /* \"#utility.yul\":1855:1866   */\n  add\n    /* \"#utility.yul\":1848:1866   */\n  swap6\n  pop\n    /* \"#utility.yul\":1547:1876   */\n  pop\n  pop\n    /* \"#utility.yul\":1334:1876   */\ntag_98:\n  pop\n    /* \"#utility.yul\":1140:1882   */\n  pop\n  pop\n    /* \"#utility.yul\":1051:1882   */\n  swap3\n  swap2\n  pop\n  pop\n  jump\t// out\n    /* \"#utility.yul\":1888:2195   */\ntag_14:\n    /* \"#utility.yul\":1998:2002   */\n  0x00\n    /* \"#utility.yul\":2036:2038   */\n  0x20\n    /* \"#utility.yul\":2025:2034   */\n  dup3\n    /* \"#utility.yul\":2021:2039   */\n  add\n    /* \"#utility.yul\":2013:2039   */\n  swap1\n  pop\n    /* \"#utility.yul\":2085:2094   */\n  dup2\n    /* \"#utility.yul\":2079:2083   */\n  dup2\n    /* \"#utility.yul\":2075:2095   */\n  sub\n    /* \"#utility.yul\":2071:2072   */\n  0x00\n    /* \"#utility.yul\":2060:2069   */\n  dup4\n    /* \"#utility.yul\":2056:2073   */\n  add\n    /* \"#utility.yul\":2049:2096   */\n  mstore\n    /* \"#utility.yul\":2113:2188   */\n  tag_106\n    /* \"#utility.yul\":2183:2187   */\n  dup2\n    /* \"#utility.yul\":2174:2180   */\n  dup5\n    /* \"#utility.yul\":2113:2188   */\n  tag_63\n  jump\t// in\ntag_106:\n    /* \"#utility.yul\":2105:2188   */\n  swap1\n  pop\n    /* \"#utility.yul\":1888:2195   */\n  swap3\n  swap2\n  pop\n  pop\n  jump\t// out\n    /* \"#utility.yul\":2201:2278   */\ntag_64:\n    /* \"#utility.yul\":2238:2245   */\n  0x00\n    /* \"#utility.yul\":2267:2272   */\n  dup2\n    /* \"#utility.yul\":2256:2272   */\n  swap1\n  pop\n    /* \"#utility.yul\":2201:2278   */\n  swap2\n  swap1\n  pop\n  jump\t// out\n    /* \"#utility.yul\":2284:2464   */\ntag_65:\n    /* \"#utility.yul\":2332:2409   */\n  0x4e487b7100000000000000000000000000000000000000000000000000000000\n    /* \"#utility.yul\":2329:2330   */\n  0x00\n    /* \"#utility.yul\":2322:2410   */\n  mstore\n    /* \"#utility.yul\":2429:2433   */\n  0x11\n    /* \"#utility.yul\":2426:2427   */\n  0x04\n    /* \"#utility.yul\":2419:2434   */\n  mstore\n    /* \"#utility.yul\":2453:2457   */\n  0x24\n    /* \"#utility.yul\":2450:2451   */\n  0x00\n    /* \"#utility.yul\":2443:2458   */\n  revert\n    /* \"#utility.yul\":2470:2664   */\ntag_22:\n    /* \"#utility.yul\":2510:2514   */\n  0x00\n    /* \"#utility.yul\":2530:2550   */\n  tag_110\n    /* \"#utility.yul\":2548:2549   */\n  dup3\n    /* \"#utility.yul\":2530:2550   */\n  tag_64\n  jump\t// in\ntag_110:\n    /* \"#utility.yul\":2525:2550   */\n  swap2\n  pop\n    /* \"#utility.yul\":2564:2584   */\n  tag_111\n    /* \"#utility.yul\":2582:2583   */\n  dup4\n    /* \"#utility.yul\":2564:2584   */\n  tag_64\n  jump\t// in\ntag_111:\n    /* \"#utility.yul\":2559:2584   */\n  swap3\n  pop\n    /* \"#utility.yul\":2608:2609   */\n  dup3\n    /* \"#utility.yul\":2605:2606   */\n  dup3\n    /* \"#utility.yul\":2601:2610   */\n  sub\n    /* \"#utility.yul\":2593:2610   */\n  swap1\n  pop\n    /* \"#utility.yul\":2632:2633   */\n  dup2\n    /* \"#utility.yul\":2626:2630   */\n  dup2\n    /* \"#utility.yul\":2623:2634   */\n  gt\n    /* \"#utility.yul\":2620:2657   */\n  iszero\n  tag_112\n  jumpi\n    /* \"#utility.yul\":2637:2655   */\n  tag_113\n  tag_65\n  jump\t// in\ntag_113:\n    /* \"#utility.yul\":2620:2657   */\ntag_112:\n    /* \"#utility.yul\":2470:2664   */\n  swap3\n  swap2\n  pop\n  pop\n  jump\t// out\n    /* \"#utility.yul\":2670:2861   */\ntag_24:\n    /* \"#utility.yul\":2710:2713   */\n  0x00\n    /* \"#utility.yul\":2729:2749   */\n  tag_115\n    /* \"#utility.yul\":2747:2748   */\n  dup3\n    /* \"#utility.yul\":2729:2749   */\n  tag_64\n  jump\t// in\ntag_115:\n    /* \"#utility.yul\":2724:2749   */\n  swap2\n  pop\n    /* \"#utility.yul\":2763:2783   */\n  tag_116\n    /* \"#utility.yul\":2781:2782   */\n  dup4\n    /* \"#utility.yul\":2763:2783   */\n  tag_64\n  jump\t// in\ntag_116:\n    /* \"#utility.yul\":2758:2783   */\n  swap3\n  pop\n    /* \"#utility.yul\":2806:2807   */\n  dup3\n    /* \"#utility.yul\":2803:2804   */\n  dup3\n    /* \"#utility.yul\":2799:2808   */\n  add\n    /* \"#utility.yul\":2792:2808   */\n  swap1\n  pop\n    /* \"#utility.yul\":2827:2830   */\n  dup1\n    /* \"#utility.yul\":2824:2825   */\n  dup3\n    /* \"#utility.yul\":2821:2831   */\n  gt\n    /* \"#utility.yul\":2818:2854   */\n  iszero\n  tag_117\n  jumpi\n    /* \"#utility.yul\":2834:2852   */\n  tag_118\n  tag_65\n  jump\t// in\ntag_118:\n    /* \"#utility.yul\":2818:2854   */\ntag_117:\n    /* \"#utility.yul\":2670:2861   */\n  swap3\n  swap2\n  pop\n  pop\n  jump\t// out\n    /* \"#utility.yul\":2867:2944   */\ntag_66:\n    /* \"#utility.yul\":2904:2911   */\n  0x00\n    /* \"#utility.yul\":2933:2938   */\n  dup2\n    /* \"#utility.yul\":2922:2938   */\n  swap1\n  pop\n    /* \"#utility.yul\":2867:2944   */\n  swap2\n  swap1\n  pop\n  jump\t// out\n    /* \"#utility.yul\":2950:3029   */\ntag_67:\n    /* \"#utility.yul\":2989:2996   */\n  0x00\n    /* \"#utility.yul\":3018:3023   */\n  dup2\n    /* \"#utility.yul\":3007:3023   */\n  swap1\n  pop\n    /* \"#utility.yul\":2950:3029   */\n  swap2\n  swap1\n  pop\n  jump\t// out\n    /* \"#utility.yul\":3035:3192   */\ntag_68:\n    /* \"#utility.yul\":3140:3185   */\n  tag_122\n    /* \"#utility.yul\":3160:3184   */\n  tag_123\n    /* \"#utility.yul\":3178:3183   */\n  dup3\n    /* \"#utility.yul\":3160:3184   */\n  tag_66\n  jump\t// in\ntag_123:\n    /* \"#utility.yul\":3140:3185   */\n  tag_67\n  jump\t// in\ntag_122:\n    /* \"#utility.yul\":3135:3138   */\n  dup3\n    /* \"#utility.yul\":3128:3186   */\n  mstore\n    /* \"#utility.yul\":3035:3192   */\n  pop\n  pop\n  jump\t// out\n    /* \"#utility.yul\":3198:3595   */\ntag_34:\n    /* \"#utility.yul\":3338:3341   */\n  0x00\n    /* \"#utility.yul\":3353:3428   */\n  tag_125\n    /* \"#utility.yul\":3424:3427   */\n  dup3\n    /* \"#utility.yul\":3415:3421   */\n  dup6\n    /* \"#utility.yul\":3353:3428   */\n  tag_68\n  jump\t// in\ntag_125:\n    /* \"#utility.yul\":3453:3455   */\n  0x20\n    /* \"#utility.yul\":3448:3451   */\n  dup3\n    /* \"#utility.yul\":3444:3456   */\n  add\n    /* \"#utility.yul\":3437:3456   */\n  swap2\n  pop\n    /* \"#utility.yul\":3466:3541   */\n  tag_126\n    /* \"#utility.yul\":3537:3540   */\n  dup3\n    /* \"#utility.yul\":3528:3534   */\n  dup5\n    /* \"#utility.yul\":3466:3541   */\n  tag_68\n  jump\t// in\ntag_126:\n    /* \"#utility.yul\":3566:3568   */\n  0x20\n    /* \"#utility.yul\":3561:3564   */\n  dup3\n    /* \"#utility.yul\":3557:3569   */\n  add\n    /* \"#utility.yul\":3550:3569   */\n  swap2\n  pop\n    /* \"#utility.yul\":3586:3589   */\n  dup2\n    /* \"#utility.yul\":3579:3589   */\n  swap1\n  pop\n    /* \"#utility.yul\":3198:3595   */\n  swap4\n  swap3\n  pop\n  pop\n  pop\n  jump\t// out\n    /* \"#utility.yul\":3601:3781   */\ntag_69:\n    /* \"#utility.yul\":3649:3726   */\n  0x4e487b7100000000000000000000000000000000000000000000000000000000\n    /* \"#utility.yul\":3646:3647   */\n  0x00\n    /* \"#utility.yul\":3639:3727   */\n  mstore\n    /* \"#utility.yul\":3746:3750   */\n  0x12\n    /* \"#utility.yul\":3743:3744   */\n  0x04\n    /* \"#utility.yul\":3736:3751   */\n  mstore\n    /* \"#utility.yul\":3770:3774   */\n  0x24\n    /* \"#utility.yul\":3767:3768   */\n  0x00\n    /* \"#utility.yul\":3760:3775   */\n  revert\n    /* \"#utility.yul\":3787:3972   */\ntag_39:\n    /* \"#utility.yul\":3827:3828   */\n  0x00\n    /* \"#utility.yul\":3844:3864   */\n  tag_129\n    /* \"#utility.yul\":3862:3863   */\n  dup3\n    /* \"#utility.yul\":3844:3864   */\n  tag_64\n  jump\t// in\ntag_129:\n    /* \"#utility.yul\":3839:3864   */\n  swap2\n  pop\n    /* \"#utility.yul\":3878:3898   */\n  tag_130\n    /* \"#utility.yul\":3896:3897   */\n  dup4\n    /* \"#utility.yul\":3878:3898   */\n  tag_64\n  jump\t// in\ntag_130:\n    /* \"#utility.yul\":3873:3898   */\n  swap3\n  pop\n    /* \"#utility.yul\":3917:3918   */\n  dup3\n    /* \"#utility.yul\":3907:3942   */\n  tag_131\n  jumpi\n    /* \"#utility.yul\":3922:3940   */\n  tag_132\n  tag_69\n  jump\t// in\ntag_132:\n    /* \"#utility.yul\":3907:3942   */\ntag_131:\n    /* \"#utility.yul\":3964:3965   */\n  dup3\n    /* \"#utility.yul\":3961:3962   */\n  dup3\n    /* \"#utility.yul\":3957:3966   */\n  div\n    /* \"#utility.yul\":3952:3966   */\n  swap1\n  pop\n    /* \"#utility.yul\":3787:3972   */\n  swap3\n  swap2\n  pop\n  pop\n  jump\t// out\n    /* \"#utility.yul\":3978:4077   */\ntag_70:\n    /* \"#utility.yul\":4030:4036   */\n  0x00\n    /* \"#utility.yul\":4064:4069   */\n  dup2\n    /* \"#utility.yul\":4058:4070   */\n  mload\n    /* \"#utility.yul\":4048:4070   */\n  swap1\n  pop\n    /* \"#utility.yul\":3978:4077   */\n  swap2\n  swap1\n  pop\n  jump\t// out\n    /* \"#utility.yul\":4083:4263   */\ntag_71:\n    /* \"#utility.yul\":4131:4208   */\n  0x4e487b7100000000000000000000000000000000000000000000000000000000\n    /* \"#utility.yul\":4128:4129   */\n  0x00\n    /* \"#utility.yul\":4121:4209   */\n  mstore\n    /* \"#utility.yul\":4228:4232   */\n  0x41\n    /* \"#utility.yul\":4225:4226   */\n  0x04\n    /* \"#utility.yul\":4218:4233   */\n  mstore\n    /* \"#utility.yul\":4252:4256   */\n  0x24\n    /* \"#utility.yul\":4249:4250   */\n  0x00\n    /* \"#utility.yul\":4242:4257   */\n  revert\n    /* \"#utility.yul\":4269:4362   */\ntag_72:\n    /* \"#utility.yul\":4306:4312   */\n  0x00\n    /* \"#utility.yul\":4353:4355   */\n  0x20\n    /* \"#utility.yul\":4348:4350   */\n  0x1f\n    /* \"#utility.yul\":4341:4346   */\n  dup4\n    /* \"#utility.yul\":4337:4351   */\n  add\n    /* \"#utility.yul\":4333:4356   */\n  div\n    /* \"#utility.yul\":4323:4356   */\n  swap1\n  pop\n    /* \"#utility.yul\":4269:4362   */\n  swap2\n  swap1\n  pop\n  jump\t// out\n    /* \"#utility.yul\":4368:4475   */\ntag_73:\n    /* \"#utility.yul\":4412:4420   */\n  0x00\n    /* \"#utility.yul\":4462:4467   */\n  dup3\n    /* \"#utility.yul\":4456:4460   */\n  dup3\n    /* \"#utility.yul\":4452:4468   */\n  shl\n    /* \"#utility.yul\":4431:4468   */\n  swap1\n  pop\n    /* \"#utility.yul\":4368:4475   */\n  swap3\n  swap2\n  pop\n  pop\n  jump\t// out\n    /* \"#utility.yul\":4481:4874   */\ntag_74:\n    /* \"#utility.yul\":4550:4556   */\n  0x00\n    /* \"#utility.yul\":4600:4601   */\n  0x08\n    /* \"#utility.yul\":4588:4598   */\n  dup4\n    /* \"#utility.yul\":4584:4602   */\n  mul\n    /* \"#utility.yul\":4623:4720   */\n  tag_138\n    /* \"#utility.yul\":4653:4719   */\n  0xffffffffffffffffffffffffffffffffffffffffffffffffffffffffffffffff\n    /* \"#utility.yul\":4642:4651   */\n  dup3\n    /* \"#utility.yul\":4623:4720   */\n  tag_73\n  jump\t// in\ntag_138:\n    /* \"#utility.yul\":4741:4780   */\n  tag_139\n    /* \"#utility.yul\":4771:4779   */\n  dup7\n    /* \"#utility.yul\":4760:4769   */\n  dup4\n    /* \"#utility.yul\":4741:4780   */\n  tag_73\n  jump\t// in\ntag_139:\n    /* \"#utility.yul\":4729:4780   */\n  swap6\n  pop\n    /* \"#utility.yul\":4813:4817   */\n  dup1\n    /* \"#utility.yul\":4809:4818   */\n  not\n    /* \"#utility.yul\":4802:4807   */\n  dup5\n    /* \"#utility.yul\":4798:4819   */\n  and\n    /* \"#utility.yul\":4789:4819   */\n  swap4\n  pop\n    /* \"#utility.yul\":4862:4866   */\n  dup1\n    /* \"#utility.yul\":4852:4860   */\n  dup7\n    /* \"#utility.yul\":4848:4867   */\n  and\n    /* \"#utility.yul\":4841:4846   */\n  dup5\n    /* \"#utility.yul\":4838:4868   */\n  or\n    /* \"#utility.yul\":4828:4868   */\n  swap3\n  pop\n    /* \"#utility.yul\":4557:4874   */\n  pop\n  pop\n    /* \"#utility.yul\":4481:4874   */\n  swap4\n  swap3\n  pop\n  pop\n  pop\n  jump\t// out\n    /* \"#utility.yul\":4880:4940   */\ntag_75:\n    /* \"#utility.yul\":4908:4911   */\n  0x00\n    /* \"#utility.yul\":4929:4934   */\n  dup2\n    /* \"#utility.yul\":4922:4934   */\n  swap1\n  pop\n    /* \"#utility.yul\":4880:4940   */\n  swap2\n  swap1\n  pop\n  jump\t// out\n    /* \"#utility.yul\":4946:5088   */\ntag_76:\n    /* \"#utility.yul\":4996:5005   */\n  0x00\n    /* \"#utility.yul\":5029:5082   */\n  tag_142\n    /* \"#utility.yul\":5047:5081   */\n  tag_143\n    /* \"#utility.yul\":5056:5080   */\n  tag_144\n    /* \"#utility.yul\":5074:5079   */\n  dup5\n    /* \"#utility.yul\":5056:5080   */\n  tag_64\n  jump\t// in\ntag_144:\n    /* \"#utility.yul\":5047:5081   */\n  tag_75\n  jump\t// in\ntag_143:\n    /* \"#utility.yul\":5029:5082   */\n  tag_64\n  jump\t// in\ntag_142:\n    /* \"#utility.yul\":5016:5082   */\n  swap1\n  pop\n    /* \"#utility.yul\":4946:5088   */\n  swap2\n  swap1\n  pop\n  jump\t// out\n    /* \"#utility.yul\":5094:5169   */\ntag_77:\n    /* \"#utility.yul\":5137:5140   */\n  0x00\n    /* \"#utility.yul\":5158:5163   */\n  dup2\n    /* \"#utility.yul\":5151:5163   */\n  swap1\n  pop\n    /* \"#utility.yul\":5094:5169   */\n  swap2\n  swap1\n  pop\n  jump\t// out\n    /* \"#utility.yul\":5175:5444   */\ntag_78:\n    /* \"#utility.yul\":5285:5324   */\n  tag_147\n    /* \"#utility.yul\":5316:5323   */\n  dup4\n    /* \"#utility.yul\":5285:5324   */\n  tag_76\n  jump\t// in\ntag_147:\n    /* \"#utility.yul\":5346:5437   */\n  tag_148\n    /* \"#utility.yul\":5395:5436   */\n  tag_149\n    /* \"#utility.yul\":5419:5435   */\n  dup3\n    /* \"#utility.yul\":5395:5436   */\n  tag_77\n  jump\t// in\ntag_149:\n    /* \"#utility.yul\":5387:5393   */\n  dup5\n    /* \"#utility.yul\":5380:5384   */\n  dup5\n    /* \"#utility.yul\":5374:5385   */\n  sload\n    /* \"#utility.yul\":5346:5437   */\n  tag_74\n  jump\t// in\ntag_148:\n    /* \"#utility.yul\":5340:5344   */\n  dup3\n    /* \"#utility.yul\":5333:5438   */\n  sstore\n    /* \"#utility.yul\":5251:5444   */\n  pop\n    /* \"#utility.yul\":5175:5444   */\n  pop\n  pop\n  pop\n  jump\t// out\n    /* \"#utility.yul\":5450:5523   */\ntag_79:\n    /* \"#utility.yul\":5495:5498   */\n  0x00\n    /* \"#utility.yul\":5450:5523   */\n  swap1\n  jump\t// out\n    /* \"#utility.yul\":5529:5718   */\ntag_80:\n    /* \"#utility.yul\":5606:5638   */\n  tag_152\n  tag_79\n  jump\t// in\ntag_152:\n    /* \"#utility.yul\":5647:5712   */\n  tag_153\n    /* \"#utility.yul\":5705:5711   */\n  dup2\n    /* \"#utility.yul\":5697:5703   */\n  dup5\n    /* \"#utility.yul\":5691:5695   */\n  dup5\n    /* \"#utility.yul\":5647:5712   */\n  tag_78\n  jump\t// in\ntag_153:\n    /* \"#utility.yul\":5582:5718   */\n  pop\n    /* \"#utility.yul\":5529:5718   */\n  pop\n  pop\n  jump\t// out\n    /* \"#utility.yul\":5724:5910   */\ntag_81:\n    /* \"#utility.yul\":5784:5904   */\ntag_155:\n    /* \"#utility.yul\":5801:5804   */\n  dup2\n    /* \"#utility.yul\":5794:5799   */\n  dup2\n    /* \"#utility.yul\":5791:5805   */\n  lt\n    /* \"#utility.yul\":5784:5904   */\n  iszero\n  tag_157\n  jumpi\n    /* \"#utility.yul\":5855:5894   */\n  tag_158\n    /* \"#utility.yul\":5892:5893   */\n  0x00\n    /* \"#utility.yul\":5885:5890   */\n  dup3\n    /* \"#utility.yul\":5855:5894   */\n  tag_80\n  jump\t// in\ntag_158:\n    /* \"#utility.yul\":5828:5829   */\n  0x01\n    /* \"#utility.yul\":5821:5826   */\n  dup2\n    /* \"#utility.yul\":5817:5830   */\n  add\n    /* \"#utility.yul\":5808:5830   */\n  swap1\n  pop\n    /* \"#utility.yul\":5784:5904   */\n  jump(tag_155)\ntag_157:\n    /* \"#utility.yul\":5724:5910   */\n  pop\n  pop\n  jump\t// out\n    /* \"#utility.yul\":5916:6459   */\ntag_82:\n    /* \"#utility.yul\":6017:6019   */\n  0x1f\n    /* \"#utility.yul\":6012:6015   */\n  dup3\n    /* \"#utility.yul\":6009:6020   */\n  gt\n    /* \"#utility.yul\":6006:6452   */\n  iszero\n  tag_160\n  jumpi\n    /* \"#utility.yul\":6051:6089   */\n  tag_161\n    /* \"#utility.yul\":6083:6088   */\n  dup2\n    /* \"#utility.yul\":6051:6089   */\n  tag_62\n  jump\t// in\ntag_161:\n    /* \"#utility.yul\":6135:6164   */\n  tag_162\n    /* \"#utility.yul\":6153:6163   */\n  dup5\n    /* \"#utility.yul\":6135:6164   */\n  tag_72\n  jump\t// in\ntag_162:\n    /* \"#utility.yul\":6125:6133   */\n  dup2\n    /* \"#utility.yul\":6121:6165   */\n  add\n    /* \"#utility.yul\":6318:6320   */\n  0x20\n    /* \"#utility.yul\":6306:6316   */\n  dup6\n    /* \"#utility.yul\":6303:6321   */\n  lt\n    /* \"#utility.yul\":6300:6349   */\n  iszero\n  tag_163\n  jumpi\n    /* \"#utility.yul\":6339:6347   */\n  dup2\n    /* \"#utility.yul\":6324:6347   */\n  swap1\n  pop\n    /* \"#utility.yul\":6300:6349   */\ntag_163:\n    /* \"#utility.yul\":6362:6442   */\n  tag_164\n    /* \"#utility.yul\":6418:6440   */\n  tag_165\n    /* \"#utility.yul\":6436:6439   */\n  dup6\n    /* \"#utility.yul\":6418:6440   */\n  tag_72\n  jump\t// in\ntag_165:\n    /* \"#utility.yul\":6408:6416   */\n  dup4\n    /* \"#utility.yul\":6404:6441   */\n  add\n    /* \"#utility.yul\":6391:6402   */\n  dup3\n    /* \"#utility.yul\":6362:6442   */\n  tag_81\n  jump\t// in\ntag_164:\n    /* \"#utility.yul\":6021:6452   */\n  pop\n  pop\n    /* \"#utility.yul\":6006:6452   */\ntag_160:\n    /* \"#utility.yul\":5916:6459   */\n  pop\n  pop\n  pop\n  jump\t// out\n    /* \"#utility.yul\":6465:6582   */\ntag_83:\n    /* \"#utility.yul\":6519:6527   */\n  0x00\n    /* \"#utility.yul\":6569:6574   */\n  dup3\n    /* \"#utility.yul\":6563:6567   */\n  dup3\n    /* \"#utility.yul\":6559:6575   */\n  shr\n    /* \"#utility.yul\":6538:6575   */\n  swap1\n  pop\n    /* \"#utility.yul\":6465:6582   */\n  swap3\n  swap2\n  pop\n  pop\n  jump\t// out\n    /* \"#utility.yul\":6588:6757   */\ntag_84:\n    /* \"#utility.yul\":6632:6638   */\n  0x00\n    /* \"#utility.yul\":6665:6716   */\n  tag_168\n    /* \"#utility.yul\":6713:6714   */\n  0x00\n    /* \"#utility.yul\":6709:6715   */\n  not\n    /* \"#utility.yul\":6701:6706   */\n  dup5\n    /* \"#utility.yul\":6698:6699   */\n  0x08\n    /* \"#utility.yul\":6694:6707   */\n  mul\n    /* \"#utility.yul\":6665:6716   */\n  tag_83\n  jump\t// in\ntag_168:\n    /* \"#utility.yul\":6661:6717   */\n  not\n    /* \"#utility.yul\":6746:6750   */\n  dup1\n    /* \"#utility.yul\":6740:6744   */\n  dup4\n    /* \"#utility.yul\":6736:6751   */\n  and\n    /* \"#utility.yul\":6726:6751   */\n  swap2\n  pop\n    /* \"#utility.yul\":6639:6757   */\n  pop\n    /* \"#utility.yul\":6588:6757   */\n  swap3\n  swap2\n  pop\n  pop\n  jump\t// out\n    /* \"#utility.yul\":6762:7057   */\ntag_85:\n    /* \"#utility.yul\":6838:6842   */\n  0x00\n    /* \"#utility.yul\":6984:7013   */\n  tag_170\n    /* \"#utility.yul\":7009:7012   */\n  dup4\n    /* \"#utility.yul\":7003:7007   */\n  dup4\n    /* \"#utility.yul\":6984:7013   */\n  tag_84\n  jump\t// in\ntag_170:\n    /* \"#utility.yul\":6976:7013   */\n  swap2\n  pop\n    /* \"#utility.yul\":7046:7049   */\n  dup3\n    /* \"#utility.yul\":7043:7044   */\n  0x02\n    /* \"#utility.yul\":7039:7050   */\n  mul\n    /* \"#utility.yul\":7033:7037   */\n  dup3\n    /* \"#utility.yul\":7030:7051   */\n  or\n    /* \"#utility.yul\":7022:7051   */\n  swap1\n  pop\n    /* \"#utility.yul\":6762:7057   */\n  swap3\n  swap2\n  pop\n  pop\n  jump\t// out\n    /* \"#utility.yul\":7062:8457   */\ntag_45:\n    /* \"#utility.yul\":7179:7216   */\n  tag_172\n    /* \"#utility.yul\":7212:7215   */\n  dup3\n    /* \"#utility.yul\":7179:7216   */\n  tag_70\n  jump\t// in\ntag_172:\n    /* \"#utility.yul\":7281:7299   */\n  0xffffffffffffffff\n    /* \"#utility.yul\":7273:7279   */\n  dup2\n    /* \"#utility.yul\":7270:7300   */\n  gt\n    /* \"#utility.yul\":7267:7323   */\n  iszero\n  tag_173\n  jumpi\n    /* \"#utility.yul\":7303:7321   */\n  tag_174\n  tag_71\n  jump\t// in\ntag_174:\n    /* \"#utility.yul\":7267:7323   */\ntag_173:\n    /* \"#utility.yul\":7347:7385   */\n  tag_175\n    /* \"#utility.yul\":7379:7383   */\n  dup3\n    /* \"#utility.yul\":7373:7384   */\n  sload\n    /* \"#utility.yul\":7347:7385   */\n  tag_53\n  jump\t// in\ntag_175:\n    /* \"#utility.yul\":7432:7499   */\n  tag_176\n    /* \"#utility.yul\":7492:7498   */\n  dup3\n    /* \"#utility.yul\":7484:7490   */\n  dup3\n    /* \"#utility.yul\":7478:7482   */\n  dup6\n    /* \"#utility.yul\":7432:7499   */\n  tag_82\n  jump\t// in\ntag_176:\n    /* \"#utility.yul\":7526:7527   */\n  0x00\n    /* \"#utility.yul\":7550:7554   */\n  0x20\n    /* \"#utility.yul\":7537:7554   */\n  swap1\n  pop\n    /* \"#utility.yul\":7582:7584   */\n  0x1f\n    /* \"#utility.yul\":7574:7580   */\n  dup4\n    /* \"#utility.yul\":7571:7585   */\n  gt\n    /* \"#utility.yul\":7599:7600   */\n  0x01\n    /* \"#utility.yul\":7594:8212   */\n  dup2\n  eq\n  tag_178\n  jumpi\n    /* \"#utility.yul\":8256:8257   */\n  0x00\n    /* \"#utility.yul\":8273:8279   */\n  dup5\n    /* \"#utility.yul\":8270:8347   */\n  iszero\n  tag_179\n  jumpi\n    /* \"#utility.yul\":8322:8331   */\n  dup3\n    /* \"#utility.yul\":8317:8320   */\n  dup8\n    /* \"#utility.yul\":8313:8332   */\n  add\n    /* \"#utility.yul\":8307:8333   */\n  mload\n    /* \"#utility.yul\":8298:8333   */\n  swap1\n  pop\n    /* \"#utility.yul\":8270:8347   */\ntag_179:\n    /* \"#utility.yul\":8373:8440   */\n  tag_180\n    /* \"#utility.yul\":8433:8439   */\n  dup6\n    /* \"#utility.yul\":8426:8431   */\n  dup3\n    /* \"#utility.yul\":8373:8440   */\n  tag_85\n  jump\t// in\ntag_180:\n    /* \"#utility.yul\":8367:8371   */\n  dup7\n    /* \"#utility.yul\":8360:8441   */\n  sstore\n    /* \"#utility.yul\":8229:8451   */\n  pop\n    /* \"#utility.yul\":7564:8451   */\n  jump(tag_177)\n    /* \"#utility.yul\":7594:8212   */\ntag_178:\n    /* \"#utility.yul\":7646:7650   */\n  0x1f\n    /* \"#utility.yul\":7642:7651   */\n  not\n    /* \"#utility.yul\":7634:7640   */\n  dup5\n    /* \"#utility.yul\":7630:7652   */\n  and\n    /* \"#utility.yul\":7680:7717   */\n  tag_181\n    /* \"#utility.yul\":7712:7716   */\n  dup7\n    /* \"#utility.yul\":7680:7717   */\n  tag_62\n  jump\t// in\ntag_181:\n    /* \"#utility.yul\":7739:7740   */\n  0x00\n    /* \"#utility.yul\":7753:7961   */\ntag_182:\n    /* \"#utility.yul\":7767:7774   */\n  dup3\n    /* \"#utility.yul\":7764:7765   */\n  dup2\n    /* \"#utility.yul\":7761:7775   */\n  lt\n    /* \"#utility.yul\":7753:7961   */\n  iszero\n  tag_184\n  jumpi\n    /* \"#utility.yul\":7846:7855   */\n  dup5\n    /* \"#utility.yul\":7841:7844   */\n  dup10\n    /* \"#utility.yul\":7837:7856   */\n  add\n    /* \"#utility.yul\":7831:7857   */\n  mload\n    /* \"#utility.yul\":7823:7829   */\n  dup3\n    /* \"#utility.yul\":7816:7858   */\n  sstore\n    /* \"#utility.yul\":7897:7898   */\n  0x01\n    /* \"#utility.yul\":7889:7895   */\n  dup3\n    /* \"#utility.yul\":7885:7899   */\n  add\n    /* \"#utility.yul\":7875:7899   */\n  swap2\n  pop\n    /* \"#utility.yul\":7944:7946   */\n  0x20\n    /* \"#utility.yul\":7933:7942   */\n  dup6\n    /* \"#utility.yul\":7929:7947   */\n  add\n    /* \"#utility.yul\":7916:7947   */\n  swap5\n  pop\n    /* \"#utility.yul\":7790:7794   */\n  0x20\n    /* \"#utility.yul\":7787:7788   */\n  dup2\n    /* \"#utility.yul\":7783:7795   */\n  add\n    /* \"#utility.yul\":7778:7795   */\n  swap1\n  pop\n    /* \"#utility.yul\":7753:7961   */\n  jump(tag_182)\ntag_184:\n    /* \"#utility.yul\":7989:7995   */\n  dup7\n    /* \"#utility.yul\":7980:7987   */\n  dup4\n    /* \"#utility.yul\":7977:7996   */\n  lt\n    /* \"#utility.yul\":7974:8153   */\n  iszero\n  tag_185\n  jumpi\n    /* \"#utility.yul\":8047:8056   */\n  dup5\n    /* \"#utility.yul\":8042:8045   */\n  dup10\n    /* \"#utility.yul\":8038:8057   */\n  add\n    /* \"#utility.yul\":8032:8058   */\n  mload\n    /* \"#utility.yul\":8090:8138   */\n  tag_186\n    /* \"#utility.yul\":8132:8136   */\n  0x1f\n    /* \"#utility.yul\":8124:8130   */\n  dup10\n    /* \"#utility.yul\":8120:8137   */\n  and\n    /* \"#utility.yul\":8109:8118   */\n  dup3\n    /* \"#utility.yul\":8090:8138   */\n  tag_84\n  jump\t// in\ntag_186:\n    /* \"#utility.yul\":8082:8088   */\n  dup4\n    /* \"#utility.yul\":8075:8139   */\n  sstore\n    /* \"#utility.yul\":7997:8153   */\n  pop\n    /* \"#utility.yul\":7974:8153   */\ntag_185:\n    /* \"#utility.yul\":8199:8200   */\n  0x01\n    /* \"#utility.yul\":8195:8196   */\n  0x02\n    /* \"#utility.yul\":8187:8193   */\n  dup9\n    /* \"#utility.yul\":8183:8197   */\n  mul\n    /* \"#utility.yul\":8179:8201   */\n  add\n    /* \"#utility.yul\":8173:8177   */\n  dup9\n    /* \"#utility.yul\":8166:8202   */\n  sstore\n    /* \"#utility.yul\":7601:8212   */\n  pop\n  pop\n  pop\n    /* \"#utility.yul\":7564:8451   */\ntag_177:\n  pop\n    /* \"#utility.yul\":7154:8457   */\n  pop\n  pop\n  pop\n    /* \"#utility.yul\":7062:8457   */\n  pop\n  pop\n  jump\t// out\n    /* \"merkletree/Tree.sol\":299:4276  contract Tree {... */\ntag_40:\n  dataSize(sub_0)\n  dup1\n  dataOffset(sub_0)\n  0x00\n  codecopy\n  0x00\n  return\nstop\n\nsub_0: assembly {\n        /* \"merkletree/Tree.sol\":299:4276  contract Tree {... */\n      mstore(0x40, 0x80)\n      callvalue\n      dup1\n      iszero\n      tag_1\n      jumpi\n      0x00\n      dup1\n      revert\n    tag_1:\n      pop\n      jumpi(tag_2, lt(calldatasize, 0x04))\n      shr(0xe0, calldataload(0x00))\n      dup1\n      0x501895ae\n      eq\n      tag_3\n      jumpi\n      dup1\n      0x5ca1e165\n      eq\n      tag_4\n      jumpi\n      dup1\n      0x9f49493b\n      eq\n      tag_5\n      jumpi\n    tag_2:\n      0x00\n      dup1\n      revert\n        /* \"merkletree/Tree.sol\":319:342  bytes32[] public hashes */\n    tag_3:\n      tag_6\n      0x04\n      dup1\n      calldatasize\n      sub\n      dup2\n      add\n      swap1\n      tag_7\n      swap2\n      swap1\n      tag_8\n      jump\t// in\n    tag_7:\n      tag_9\n      jump\t// in\n    tag_6:\n      mload(0x40)\n      tag_10\n      swap2\n      swap1\n      tag_11\n      jump\t// in\n    tag_10:\n      mload(0x40)\n      dup1\n      swap2\n      sub\n      swap1\n      return\n        /* \"merkletree/Tree.sol\":2902:2999  function getRoot() public view returns(bytes32) {... */\n    tag_4:\n      tag_12\n      tag_13\n      jump\t// in\n    tag_12:\n      mload(0x40)\n      tag_14\n      swap2\n      swap1\n      tag_11\n      jump\t// in\n    tag_14:\n      mload(0x40)\n      dup1\n      swap2\n      sub\n      swap1\n      return\n        /* \"merkletree/Tree.sol\":3440:4273  function verify(... */\n    tag_5:\n      tag_15\n      0x04\n      dup1\n      calldatasize\n      sub\n      dup2\n      add\n      swap1\n      tag_16\n      swap2\n      swap1\n      tag_17\n      jump\t// in\n    tag_16:\n      tag_18\n      jump\t// in\n    tag_15:\n      mload(0x40)\n      tag_19\n      swap2\n      swap1\n      tag_20\n      jump\t// in\n    tag_19:\n      mload(0x40)\n      dup1\n      swap2\n      sub\n      swap1\n      return\n        /* \"merkletree/Tree.sol\":319:342  bytes32[] public hashes */\n    tag_9:\n      0x00\n      dup2\n      dup2\n      sload\n      dup2\n      lt\n      tag_21\n      jumpi\n      0x00\n      dup1\n      revert\n    tag_21:\n      swap1\n      0x00\n      mstore\n      keccak256(0x00, 0x20)\n      add\n      0x00\n      swap2\n      pop\n      swap1\n      pop\n      sload\n      dup2\n      jump\t// out\n        /* \"merkletree/Tree.sol\":2902:2999  function getRoot() public view returns(bytes32) {... */\n    tag_13:\n        /* \"merkletree/Tree.sol\":2941:2948  bytes32 */\n      0x00\n        /* \"merkletree/Tree.sol\":2967:2973  hashes */\n      dup1\n        /* \"merkletree/Tree.sol\":2990:2991  1 */\n      0x01\n        /* \"merkletree/Tree.sol\":2974:2980  hashes */\n      0x00\n        /* \"merkletree/Tree.sol\":2974:2987  hashes.length */\n      dup1\n      sload\n      swap1\n      pop\n        /* \"merkletree/Tree.sol\":2974:2991  hashes.length - 1 */\n      tag_24\n      swap2\n      swap1\n      tag_25\n      jump\t// in\n    tag_24:\n        /* \"merkletree/Tree.sol\":2967:2992  hashes[hashes.length - 1] */\n      dup2\n      sload\n      dup2\n      lt\n      tag_26\n      jumpi\n      tag_27\n      tag_28\n      jump\t// in\n    tag_27:\n    tag_26:\n      swap1\n      0x00\n      mstore\n      keccak256(0x00, 0x20)\n      add\n      sload\n        /* \"merkletree/Tree.sol\":2960:2992  return hashes[hashes.length - 1] */\n      swap1\n      pop\n        /* \"merkletree/Tree.sol\":2902:2999  function getRoot() public view returns(bytes32) {... */\n      swap1\n      jump\t// out\n        /* \"merkletree/Tree.sol\":3440:4273  function verify(... */\n    tag_18:\n        /* \"merkletree/Tree.sol\":3562:3566  bool */\n      0x00\n        /* \"merkletree/Tree.sol\":3578:3590  bytes32 hash */\n      dup1\n        /* \"merkletree/Tree.sol\":3593:3597  leaf */\n      dup5\n        /* \"merkletree/Tree.sol\":3578:3597  bytes32 hash = leaf */\n      swap1\n      pop\n        /* \"merkletree/Tree.sol\":3675:3681  uint i */\n      0x00\n        /* \"merkletree/Tree.sol\":3670:4237  for (uint i = 0; i < proof.length; i++) {... */\n    tag_31:\n        /* \"merkletree/Tree.sol\":3691:3696  proof */\n      dup4\n        /* \"merkletree/Tree.sol\":3691:3703  proof.length */\n      mload\n        /* \"merkletree/Tree.sol\":3687:3688  i */\n      dup2\n        /* \"merkletree/Tree.sol\":3687:3703  i < proof.length */\n      lt\n        /* \"merkletree/Tree.sol\":3670:4237  for (uint i = 0; i < proof.length; i++) {... */\n      iszero\n      tag_32\n      jumpi\n        /* \"merkletree/Tree.sol\":3724:3744  bytes32 proofElement */\n      0x00\n        /* \"merkletree/Tree.sol\":3747:3752  proof */\n      dup5\n        /* \"merkletree/Tree.sol\":3753:3754  i */\n      dup3\n        /* \"merkletree/Tree.sol\":3747:3755  proof[i] */\n      dup2\n      mload\n      dup2\n      lt\n      tag_34\n      jumpi\n      tag_35\n      tag_28\n      jump\t// in\n    tag_35:\n    tag_34:\n      0x20\n      mul\n      0x20\n      add\n      add\n      mload\n        /* \"merkletree/Tree.sol\":3724:3755  bytes32 proofElement = proof[i] */\n      swap1\n      pop\n        /* \"merkletree/Tree.sol\":3937:3938  0 */\n      0x00\n        /* \"merkletree/Tree.sol\":3932:3933  2 */\n      0x02\n        /* \"merkletree/Tree.sol\":3924:3929  index */\n      dup8\n        /* \"merkletree/Tree.sol\":3924:3933  index % 2 */\n      tag_36\n      swap2\n      swap1\n      tag_37\n      jump\t// in\n    tag_36:\n        /* \"merkletree/Tree.sol\":3924:3938  index % 2 == 0 */\n      sub\n        /* \"merkletree/Tree.sol\":3920:4196  if (index % 2 == 0) {... */\n      tag_38\n      jumpi\n        /* \"merkletree/Tree.sol\":4013:4017  hash */\n      dup3\n        /* \"merkletree/Tree.sol\":4019:4031  proofElement */\n      dup2\n        /* \"merkletree/Tree.sol\":3975:4049  abi.encodePacked(... */\n      add(0x20, mload(0x40))\n      tag_39\n      swap3\n      swap2\n      swap1\n      tag_40\n      jump\t// in\n    tag_39:\n      mload(0x40)\n      0x20\n      dup2\n      dup4\n      sub\n      sub\n      dup2\n      mstore\n      swap1\n      0x40\n      mstore\n        /* \"merkletree/Tree.sol\":3965:4050  keccak256(abi.encodePacked(... */\n      dup1\n      mload\n      swap1\n      0x20\n      add\n      keccak256\n        /* \"merkletree/Tree.sol\":3958:4050  hash = keccak256(abi.encodePacked(... */\n      swap3\n      pop\n        /* \"merkletree/Tree.sol\":3920:4196  if (index % 2 == 0) {... */\n      jump(tag_41)\n    tag_38:\n        /* \"merkletree/Tree.sol\":4144:4156  proofElement */\n      dup1\n        /* \"merkletree/Tree.sol\":4158:4162  hash */\n      dup4\n        /* \"merkletree/Tree.sol\":4106:4180  abi.encodePacked(... */\n      add(0x20, mload(0x40))\n      tag_42\n      swap3\n      swap2\n      swap1\n      tag_40\n      jump\t// in\n    tag_42:\n      mload(0x40)\n      0x20\n      dup2\n      dup4\n      sub\n      sub\n      dup2\n      mstore\n      swap1\n      0x40\n      mstore\n        /* \"merkletree/Tree.sol\":4096:4181  keccak256(abi.encodePacked(... */\n      dup1\n      mload\n      swap1\n      0x20\n      add\n      keccak256\n        /* \"merkletree/Tree.sol\":4089:4181  hash = keccak256(abi.encodePacked(... */\n      swap3\n      pop\n        /* \"merkletree/Tree.sol\":3920:4196  if (index % 2 == 0) {... */\n    tag_41:\n        /* \"merkletree/Tree.sol\":4225:4226  2 */\n      0x02\n        /* \"merkletree/Tree.sol\":4217:4222  index */\n      dup7\n        /* \"merkletree/Tree.sol\":4217:4226  index / 2 */\n      tag_43\n      swap2\n      swap1\n      tag_44\n      jump\t// in\n    tag_43:\n        /* \"merkletree/Tree.sol\":4209:4226  index = index / 2 */\n      swap6\n      pop\n        /* \"merkletree/Tree.sol\":3710:4237  {... */\n      pop\n        /* \"merkletree/Tree.sol\":3705:3708  i++ */\n      dup1\n      dup1\n      0x01\n      add\n      swap2\n      pop\n      pop\n        /* \"merkletree/Tree.sol\":3670:4237  for (uint i = 0; i < proof.length; i++) {... */\n      jump(tag_31)\n    tag_32:\n      pop\n        /* \"merkletree/Tree.sol\":4262:4266  root */\n      dup6\n        /* \"merkletree/Tree.sol\":4254:4258  hash */\n      dup2\n        /* \"merkletree/Tree.sol\":4254:4266  hash == root */\n      eq\n        /* \"merkletree/Tree.sol\":4247:4266  return hash == root */\n      swap2\n      pop\n      pop\n        /* \"merkletree/Tree.sol\":3440:4273  function verify(... */\n      swap5\n      swap4\n      pop\n      pop\n      pop\n      pop\n      jump\t// out\n        /* \"#utility.yul\":7:82   */\n    tag_45:\n        /* \"#utility.yul\":40:46   */\n      0x00\n        /* \"#utility.yul\":73:75   */\n      0x40\n        /* \"#utility.yul\":67:76   */\n      mload\n        /* \"#utility.yul\":57:76   */\n      swap1\n      pop\n        /* \"#utility.yul\":7:82   */\n      swap1\n      jump\t// out\n        /* \"#utility.yul\":88:205   */\n    tag_46:\n        /* \"#utility.yul\":197:198   */\n      0x00\n        /* \"#utility.yul\":194:195   */\n      dup1\n        /* \"#utility.yul\":187:199   */\n      revert\n        /* \"#utility.yul\":211:328   */\n    tag_47:\n        /* \"#utility.yul\":320:321   */\n      0x00\n        /* \"#utility.yul\":317:318   */\n      dup1\n        /* \"#utility.yul\":310:322   */\n      revert\n        /* \"#utility.yul\":334:411   */\n    tag_48:\n        /* \"#utility.yul\":371:378   */\n      0x00\n        /* \"#utility.yul\":400:405   */\n      dup2\n        /* \"#utility.yul\":389:405   */\n      swap1\n      pop\n        /* \"#utility.yul\":334:411   */\n      swap2\n      swap1\n      pop\n      jump\t// out\n        /* \"#utility.yul\":417:539   */\n    tag_49:\n        /* \"#utility.yul\":490:514   */\n      tag_76\n        /* \"#utility.yul\":508:513   */\n      dup2\n        /* \"#utility.yul\":490:514   */\n      tag_48\n      jump\t// in\n    tag_76:\n        /* \"#utility.yul\":483:488   */\n      dup2\n        /* \"#utility.yul\":480:515   */\n      eq\n        /* \"#utility.yul\":470:533   */\n      tag_77\n      jumpi\n        /* \"#utility.yul\":529:530   */\n      0x00\n        /* \"#utility.yul\":526:527   */\n      dup1\n        /* \"#utility.yul\":519:531   */\n      revert\n        /* \"#utility.yul\":470:533   */\n    tag_77:\n        /* \"#utility.yul\":417:539   */\n      pop\n      jump\t// out\n        /* \"#utility.yul\":545:684   */\n    tag_50:\n        /* \"#utility.yul\":591:596   */\n      0x00\n        /* \"#utility.yul\":629:635   */\n      dup2\n        /* \"#utility.yul\":616:636   */\n      calldataload\n        /* \"#utility.yul\":607:636   */\n      swap1\n      pop\n        /* \"#utility.yul\":645:678   */\n      tag_79\n        /* \"#utility.yul\":672:677   */\n      dup2\n        /* \"#utility.yul\":645:678   */\n      tag_49\n      jump\t// in\n    tag_79:\n        /* \"#utility.yul\":545:684   */\n      swap3\n      swap2\n      pop\n      pop\n      jump\t// out\n        /* \"#utility.yul\":690:1019   */\n    tag_8:\n        /* \"#utility.yul\":749:755   */\n      0x00\n        /* \"#utility.yul\":798:800   */\n      0x20\n        /* \"#utility.yul\":786:795   */\n      dup3\n        /* \"#utility.yul\":777:784   */\n      dup5\n        /* \"#utility.yul\":773:796   */\n      sub\n        /* \"#utility.yul\":769:801   */\n      slt\n        /* \"#utility.yul\":766:885   */\n      iszero\n      tag_81\n      jumpi\n        /* \"#utility.yul\":804:883   */\n      tag_82\n      tag_46\n      jump\t// in\n    tag_82:\n        /* \"#utility.yul\":766:885   */\n    tag_81:\n        /* \"#utility.yul\":924:925   */\n      0x00\n        /* \"#utility.yul\":949:1002   */\n      tag_83\n        /* \"#utility.yul\":994:1001   */\n      dup5\n        /* \"#utility.yul\":985:991   */\n      dup3\n        /* \"#utility.yul\":974:983   */\n      dup6\n        /* \"#utility.yul\":970:992   */\n      add\n        /* \"#utility.yul\":949:1002   */\n      tag_50\n      jump\t// in\n    tag_83:\n        /* \"#utility.yul\":939:1002   */\n      swap2\n      pop\n        /* \"#utility.yul\":895:1012   */\n      pop\n        /* \"#utility.yul\":690:1019   */\n      swap3\n      swap2\n      pop\n      pop\n      jump\t// out\n        /* \"#utility.yul\":1025:1102   */\n    tag_51:\n        /* \"#utility.yul\":1062:1069   */\n      0x00\n        /* \"#utility.yul\":1091:1096   */\n      dup2\n        /* \"#utility.yul\":1080:1096   */\n      swap1\n      pop\n        /* \"#utility.yul\":1025:1102   */\n      swap2\n      swap1\n      pop\n      jump\t// out\n        /* \"#utility.yul\":1108:1226   */\n    tag_52:\n        /* \"#utility.yul\":1195:1219   */\n      tag_86\n        /* \"#utility.yul\":1213:1218   */\n      dup2\n        /* \"#utility.yul\":1195:1219   */\n      tag_51\n      jump\t// in\n    tag_86:\n        /* \"#utility.yul\":1190:1193   */\n      dup3\n        /* \"#utility.yul\":1183:1220   */\n      mstore\n        /* \"#utility.yul\":1108:1226   */\n      pop\n      pop\n      jump\t// out\n        /* \"#utility.yul\":1232:1454   */\n    tag_11:\n        /* \"#utility.yul\":1325:1329   */\n      0x00\n        /* \"#utility.yul\":1363:1365   */\n      0x20\n        /* \"#utility.yul\":1352:1361   */\n      dup3\n        /* \"#utility.yul\":1348:1366   */\n      add\n        /* \"#utility.yul\":1340:1366   */\n      swap1\n      pop\n        /* \"#utility.yul\":1376:1447   */\n      tag_88\n        /* \"#utility.yul\":1444:1445   */\n      0x00\n        /* \"#utility.yul\":1433:1442   */\n      dup4\n        /* \"#utility.yul\":1429:1446   */\n      add\n        /* \"#utility.yul\":1420:1426   */\n      dup5\n        /* \"#utility.yul\":1376:1447   */\n      tag_52\n      jump\t// in\n    tag_88:\n        /* \"#utility.yul\":1232:1454   */\n      swap3\n      swap2\n      pop\n      pop\n      jump\t// out\n        /* \"#utility.yul\":1460:1582   */\n    tag_53:\n        /* \"#utility.yul\":1533:1557   */\n      tag_90\n        /* \"#utility.yul\":1551:1556   */\n      dup2\n        /* \"#utility.yul\":1533:1557   */\n      tag_51\n      jump\t// in\n    tag_90:\n        /* \"#utility.yul\":1526:1531   */\n      dup2\n        /* \"#utility.yul\":1523:1558   */\n      eq\n        /* \"#utility.yul\":1513:1576   */\n      tag_91\n      jumpi\n        /* \"#utility.yul\":1572:1573   */\n      0x00\n        /* \"#utility.yul\":1569:1570   */\n      dup1\n        /* \"#utility.yul\":1562:1574   */\n      revert\n        /* \"#utility.yul\":1513:1576   */\n    tag_91:\n        /* \"#utility.yul\":1460:1582   */\n      pop\n      jump\t// out\n        /* \"#utility.yul\":1588:1727   */\n    tag_54:\n        /* \"#utility.yul\":1634:1639   */\n      0x00\n        /* \"#utility.yul\":1672:1678   */\n      dup2\n        /* \"#utility.yul\":1659:1679   */\n      calldataload\n        /* \"#utility.yul\":1650:1679   */\n      swap1\n      pop\n        /* \"#utility.yul\":1688:1721   */\n      tag_93\n        /* \"#utility.yul\":1715:1720   */\n      dup2\n        /* \"#utility.yul\":1688:1721   */\n      tag_53\n      jump\t// in\n    tag_93:\n        /* \"#utility.yul\":1588:1727   */\n      swap3\n      swap2\n      pop\n      pop\n      jump\t// out\n        /* \"#utility.yul\":1733:1850   */\n    tag_55:\n        /* \"#utility.yul\":1842:1843   */\n      0x00\n        /* \"#utility.yul\":1839:1840   */\n      dup1\n        /* \"#utility.yul\":1832:1844   */\n      revert\n        /* \"#utility.yul\":1856:1958   */\n    tag_56:\n        /* \"#utility.yul\":1897:1903   */\n      0x00\n        /* \"#utility.yul\":1948:1950   */\n      0x1f\n        /* \"#utility.yul\":1944:1951   */\n      not\n        /* \"#utility.yul\":1939:1941   */\n      0x1f\n        /* \"#utility.yul\":1932:1937   */\n      dup4\n        /* \"#utility.yul\":1928:1942   */\n      add\n        /* \"#utility.yul\":1924:1952   */\n      and\n        /* \"#utility.yul\":1914:1952   */\n      swap1\n      pop\n        /* \"#utility.yul\":1856:1958   */\n      swap2\n      swap1\n      pop\n      jump\t// out\n        /* \"#utility.yul\":1964:2144   */\n    tag_57:\n        /* \"#utility.yul\":2012:2089   */\n      0x4e487b7100000000000000000000000000000000000000000000000000000000\n        /* \"#utility.yul\":2009:2010   */\n      0x00\n        /* \"#utility.yul\":2002:2090   */\n      mstore\n        /* \"#utility.yul\":2109:2113   */\n      0x41\n        /* \"#utility.yul\":2106:2107   */\n      0x04\n        /* \"#utility.yul\":2099:2114   */\n      mstore\n        /* \"#utility.yul\":2133:2137   */\n      0x24\n        /* \"#utility.yul\":2130:2131   */\n      0x00\n        /* \"#utility.yul\":2123:2138   */\n      revert\n        /* \"#utility.yul\":2150:2431   */\n    tag_58:\n        /* \"#utility.yul\":2233:2260   */\n      tag_98\n        /* \"#utility.yul\":2255:2259   */\n      dup3\n        /* \"#utility.yul\":2233:2260   */\n      tag_56\n      jump\t// in\n    tag_98:\n        /* \"#utility.yul\":2225:2231   */\n      dup2\n        /* \"#utility.yul\":2221:2261   */\n      add\n        /* \"#utility.yul\":2363:2369   */\n      dup2\n        /* \"#utility.yul\":2351:2361   */\n      dup2\n        /* \"#utility.yul\":2348:2370   */\n      lt\n        /* \"#utility.yul\":2327:2345   */\n      0xffffffffffffffff\n        /* \"#utility.yul\":2315:2325   */\n      dup3\n        /* \"#utility.yul\":2312:2346   */\n      gt\n        /* \"#utility.yul\":2309:2371   */\n      or\n        /* \"#utility.yul\":2306:2394   */\n      iszero\n      tag_99\n      jumpi\n        /* \"#utility.yul\":2374:2392   */\n      tag_100\n      tag_57\n      jump\t// in\n    tag_100:\n        /* \"#utility.yul\":2306:2394   */\n    tag_99:\n        /* \"#utility.yul\":2414:2424   */\n      dup1\n        /* \"#utility.yul\":2410:2412   */\n      0x40\n        /* \"#utility.yul\":2403:2425   */\n      mstore\n        /* \"#utility.yul\":2193:2431   */\n      pop\n        /* \"#utility.yul\":2150:2431   */\n      pop\n      pop\n      jump\t// out\n        /* \"#utility.yul\":2437:2566   */\n    tag_59:\n        /* \"#utility.yul\":2471:2477   */\n      0x00\n        /* \"#utility.yul\":2498:2518   */\n      tag_102\n      tag_45\n      jump\t// in\n    tag_102:\n        /* \"#utility.yul\":2488:2518   */\n      swap1\n      pop\n        /* \"#utility.yul\":2527:2560   */\n      tag_103\n        /* \"#utility.yul\":2555:2559   */\n      dup3\n        /* \"#utility.yul\":2547:2553   */\n      dup3\n        /* \"#utility.yul\":2527:2560   */\n      tag_58\n      jump\t// in\n    tag_103:\n        /* \"#utility.yul\":2437:2566   */\n      swap2\n      swap1\n      pop\n      jump\t// out\n        /* \"#utility.yul\":2572:2883   */\n    tag_60:\n        /* \"#utility.yul\":2649:2653   */\n      0x00\n        /* \"#utility.yul\":2739:2757   */\n      0xffffffffffffffff\n        /* \"#utility.yul\":2731:2737   */\n      dup3\n        /* \"#utility.yul\":2728:2758   */\n      gt\n        /* \"#utility.yul\":2725:2781   */\n      iszero\n      tag_105\n      jumpi\n        /* \"#utility.yul\":2761:2779   */\n      tag_106\n      tag_57\n      jump\t// in\n    tag_106:\n        /* \"#utility.yul\":2725:2781   */\n    tag_105:\n        /* \"#utility.yul\":2811:2815   */\n      0x20\n        /* \"#utility.yul\":2803:2809   */\n      dup3\n        /* \"#utility.yul\":2799:2816   */\n      mul\n        /* \"#utility.yul\":2791:2816   */\n      swap1\n      pop\n        /* \"#utility.yul\":2871:2875   */\n      0x20\n        /* \"#utility.yul\":2865:2869   */\n      dup2\n        /* \"#utility.yul\":2861:2876   */\n      add\n        /* \"#utility.yul\":2853:2876   */\n      swap1\n      pop\n        /* \"#utility.yul\":2572:2883   */\n      swap2\n      swap1\n      pop\n      jump\t// out\n        /* \"#utility.yul\":2889:3006   */\n    tag_61:\n        /* \"#utility.yul\":2998:2999   */\n      0x00\n        /* \"#utility.yul\":2995:2996   */\n      dup1\n        /* \"#utility.yul\":2988:3000   */\n      revert\n        /* \"#utility.yul\":3029:3739   */\n    tag_62:\n        /* \"#utility.yul\":3125:3130   */\n      0x00\n        /* \"#utility.yul\":3150:3231   */\n      tag_109\n        /* \"#utility.yul\":3166:3230   */\n      tag_110\n        /* \"#utility.yul\":3223:3229   */\n      dup5\n        /* \"#utility.yul\":3166:3230   */\n      tag_60\n      jump\t// in\n    tag_110:\n        /* \"#utility.yul\":3150:3231   */\n      tag_59\n      jump\t// in\n    tag_109:\n        /* \"#utility.yul\":3141:3231   */\n      swap1\n      pop\n        /* \"#utility.yul\":3251:3256   */\n      dup1\n        /* \"#utility.yul\":3280:3286   */\n      dup4\n        /* \"#utility.yul\":3273:3278   */\n      dup3\n        /* \"#utility.yul\":3266:3287   */\n      mstore\n        /* \"#utility.yul\":3314:3318   */\n      0x20\n        /* \"#utility.yul\":3307:3312   */\n      dup3\n        /* \"#utility.yul\":3303:3319   */\n      add\n        /* \"#utility.yul\":3296:3319   */\n      swap1\n      pop\n        /* \"#utility.yul\":3367:3371   */\n      0x20\n        /* \"#utility.yul\":3359:3365   */\n      dup5\n        /* \"#utility.yul\":3355:3372   */\n      mul\n        /* \"#utility.yul\":3347:3353   */\n      dup4\n        /* \"#utility.yul\":3343:3373   */\n      add\n        /* \"#utility.yul\":3396:3399   */\n      dup6\n        /* \"#utility.yul\":3388:3394   */\n      dup2\n        /* \"#utility.yul\":3385:3400   */\n      gt\n        /* \"#utility.yul\":3382:3504   */\n      iszero\n      tag_111\n      jumpi\n        /* \"#utility.yul\":3415:3494   */\n      tag_112\n      tag_61\n      jump\t// in\n    tag_112:\n        /* \"#utility.yul\":3382:3504   */\n    tag_111:\n        /* \"#utility.yul\":3530:3536   */\n      dup4\n        /* \"#utility.yul\":3513:3733   */\n    tag_113:\n        /* \"#utility.yul\":3547:3553   */\n      dup2\n        /* \"#utility.yul\":3542:3545   */\n      dup2\n        /* \"#utility.yul\":3539:3554   */\n      lt\n        /* \"#utility.yul\":3513:3733   */\n      iszero\n      tag_115\n      jumpi\n        /* \"#utility.yul\":3622:3625   */\n      dup1\n        /* \"#utility.yul\":3651:3688   */\n      tag_116\n        /* \"#utility.yul\":3684:3687   */\n      dup9\n        /* \"#utility.yul\":3672:3682   */\n      dup3\n        /* \"#utility.yul\":3651:3688   */\n      tag_54\n      jump\t// in\n    tag_116:\n        /* \"#utility.yul\":3646:3649   */\n      dup5\n        /* \"#utility.yul\":3639:3689   */\n      mstore\n        /* \"#utility.yul\":3718:3722   */\n      0x20\n        /* \"#utility.yul\":3713:3716   */\n      dup5\n        /* \"#utility.yul\":3709:3723   */\n      add\n        /* \"#utility.yul\":3702:3723   */\n      swap4\n      pop\n        /* \"#utility.yul\":3589:3733   */\n      pop\n        /* \"#utility.yul\":3573:3577   */\n      0x20\n        /* \"#utility.yul\":3568:3571   */\n      dup2\n        /* \"#utility.yul\":3564:3578   */\n      add\n        /* \"#utility.yul\":3557:3578   */\n      swap1\n      pop\n        /* \"#utility.yul\":3513:3733   */\n      jump(tag_113)\n    tag_115:\n        /* \"#utility.yul\":3517:3538   */\n      pop\n        /* \"#utility.yul\":3131:3739   */\n      pop\n      pop\n        /* \"#utility.yul\":3029:3739   */\n      swap4\n      swap3\n      pop\n      pop\n      pop\n      jump\t// out\n        /* \"#utility.yul\":3762:4132   */\n    tag_63:\n        /* \"#utility.yul\":3833:3838   */\n      0x00\n        /* \"#utility.yul\":3882:3885   */\n      dup3\n        /* \"#utility.yul\":3875:3879   */\n      0x1f\n        /* \"#utility.yul\":3867:3873   */\n      dup4\n        /* \"#utility.yul\":3863:3880   */\n      add\n        /* \"#utility.yul\":3859:3886   */\n      slt\n        /* \"#utility.yul\":3849:3971   */\n      tag_118\n      jumpi\n        /* \"#utility.yul\":3890:3969   */\n      tag_119\n      tag_55\n      jump\t// in\n    tag_119:\n        /* \"#utility.yul\":3849:3971   */\n    tag_118:\n        /* \"#utility.yul\":4007:4013   */\n      dup2\n        /* \"#utility.yul\":3994:4014   */\n      calldataload\n        /* \"#utility.yul\":4032:4126   */\n      tag_120\n        /* \"#utility.yul\":4122:4125   */\n      dup5\n        /* \"#utility.yul\":4114:4120   */\n      dup3\n        /* \"#utility.yul\":4107:4111   */\n      0x20\n        /* \"#utility.yul\":4099:4105   */\n      dup7\n        /* \"#utility.yul\":4095:4112   */\n      add\n        /* \"#utility.yul\":4032:4126   */\n      tag_62\n      jump\t// in\n    tag_120:\n        /* \"#utility.yul\":4023:4126   */\n      swap2\n      pop\n        /* \"#utility.yul\":3839:4132   */\n      pop\n        /* \"#utility.yul\":3762:4132   */\n      swap3\n      swap2\n      pop\n      pop\n      jump\t// out\n        /* \"#utility.yul\":4138:5113   */\n    tag_17:\n        /* \"#utility.yul\":4249:4255   */\n      0x00\n        /* \"#utility.yul\":4257:4263   */\n      dup1\n        /* \"#utility.yul\":4265:4271   */\n      0x00\n        /* \"#utility.yul\":4273:4279   */\n      dup1\n        /* \"#utility.yul\":4322:4325   */\n      0x80\n        /* \"#utility.yul\":4310:4319   */\n      dup6\n        /* \"#utility.yul\":4301:4308   */\n      dup8\n        /* \"#utility.yul\":4297:4320   */\n      sub\n        /* \"#utility.yul\":4293:4326   */\n      slt\n        /* \"#utility.yul\":4290:4410   */\n      iszero\n      tag_122\n      jumpi\n        /* \"#utility.yul\":4329:4408   */\n      tag_123\n      tag_46\n      jump\t// in\n    tag_123:\n        /* \"#utility.yul\":4290:4410   */\n    tag_122:\n        /* \"#utility.yul\":4449:4450   */\n      0x00\n        /* \"#utility.yul\":4474:4527   */\n      tag_124\n        /* \"#utility.yul\":4519:4526   */\n      dup8\n        /* \"#utility.yul\":4510:4516   */\n      dup3\n        /* \"#utility.yul\":4499:4508   */\n      dup9\n        /* \"#utility.yul\":4495:4517   */\n      add\n        /* \"#utility.yul\":4474:4527   */\n      tag_54\n      jump\t// in\n    tag_124:\n        /* \"#utility.yul\":4464:4527   */\n      swap5\n      pop\n        /* \"#utility.yul\":4420:4537   */\n      pop\n        /* \"#utility.yul\":4576:4578   */\n      0x20\n        /* \"#utility.yul\":4602:4655   */\n      tag_125\n        /* \"#utility.yul\":4647:4654   */\n      dup8\n        /* \"#utility.yul\":4638:4644   */\n      dup3\n        /* \"#utility.yul\":4627:4636   */\n      dup9\n        /* \"#utility.yul\":4623:4645   */\n      add\n        /* \"#utility.yul\":4602:4655   */\n      tag_54\n      jump\t// in\n    tag_125:\n        /* \"#utility.yul\":4592:4655   */\n      swap4\n      pop\n        /* \"#utility.yul\":4547:4665   */\n      pop\n        /* \"#utility.yul\":4704:4706   */\n      0x40\n        /* \"#utility.yul\":4730:4783   */\n      tag_126\n        /* \"#utility.yul\":4775:4782   */\n      dup8\n        /* \"#utility.yul\":4766:4772   */\n      dup3\n        /* \"#utility.yul\":4755:4764   */\n      dup9\n        /* \"#utility.yul\":4751:4773   */\n      add\n        /* \"#utility.yul\":4730:4783   */\n      tag_50\n      jump\t// in\n    tag_126:\n        /* \"#utility.yul\":4720:4783   */\n      swap3\n      pop\n        /* \"#utility.yul\":4675:4793   */\n      pop\n        /* \"#utility.yul\":4860:4862   */\n      0x60\n        /* \"#utility.yul\":4849:4858   */\n      dup6\n        /* \"#utility.yul\":4845:4863   */\n      add\n        /* \"#utility.yul\":4832:4864   */\n      calldataload\n        /* \"#utility.yul\":4891:4909   */\n      0xffffffffffffffff\n        /* \"#utility.yul\":4883:4889   */\n      dup2\n        /* \"#utility.yul\":4880:4910   */\n      gt\n        /* \"#utility.yul\":4877:4994   */\n      iszero\n      tag_127\n      jumpi\n        /* \"#utility.yul\":4913:4992   */\n      tag_128\n      tag_47\n      jump\t// in\n    tag_128:\n        /* \"#utility.yul\":4877:4994   */\n    tag_127:\n        /* \"#utility.yul\":5018:5096   */\n      tag_129\n        /* \"#utility.yul\":5088:5095   */\n      dup8\n        /* \"#utility.yul\":5079:5085   */\n      dup3\n        /* \"#utility.yul\":5068:5077   */\n      dup9\n        /* \"#utility.yul\":5064:5086   */\n      add\n        /* \"#utility.yul\":5018:5096   */\n      tag_63\n      jump\t// in\n    tag_129:\n        /* \"#utility.yul\":5008:5096   */\n      swap2\n      pop\n        /* \"#utility.yul\":4803:5106   */\n      pop\n        /* \"#utility.yul\":4138:5113   */\n      swap3\n      swap6\n      swap2\n      swap5\n      pop\n      swap3\n      pop\n      jump\t// out\n        /* \"#utility.yul\":5119:5209   */\n    tag_64:\n        /* \"#utility.yul\":5153:5160   */\n      0x00\n        /* \"#utility.yul\":5196:5201   */\n      dup2\n        /* \"#utility.yul\":5189:5202   */\n      iszero\n        /* \"#utility.yul\":5182:5203   */\n      iszero\n        /* \"#utility.yul\":5171:5203   */\n      swap1\n      pop\n        /* \"#utility.yul\":5119:5209   */\n      swap2\n      swap1\n      pop\n      jump\t// out\n        /* \"#utility.yul\":5215:5324   */\n    tag_65:\n        /* \"#utility.yul\":5296:5317   */\n      tag_132\n        /* \"#utility.yul\":5311:5316   */\n      dup2\n        /* \"#utility.yul\":5296:5317   */\n      tag_64\n      jump\t// in\n    tag_132:\n        /* \"#utility.yul\":5291:5294   */\n      dup3\n        /* \"#utility.yul\":5284:5318   */\n      mstore\n        /* \"#utility.yul\":5215:5324   */\n      pop\n      pop\n      jump\t// out\n        /* \"#utility.yul\":5330:5540   */\n    tag_20:\n        /* \"#utility.yul\":5417:5421   */\n      0x00\n        /* \"#utility.yul\":5455:5457   */\n      0x20\n        /* \"#utility.yul\":5444:5453   */\n      dup3\n        /* \"#utility.yul\":5440:5458   */\n      add\n        /* \"#utility.yul\":5432:5458   */\n      swap1\n      pop\n        /* \"#utility.yul\":5468:5533   */\n      tag_134\n        /* \"#utility.yul\":5530:5531   */\n      0x00\n        /* \"#utility.yul\":5519:5528   */\n      dup4\n        /* \"#utility.yul\":5515:5532   */\n      add\n        /* \"#utility.yul\":5506:5512   */\n      dup5\n        /* \"#utility.yul\":5468:5533   */\n      tag_65\n      jump\t// in\n    tag_134:\n        /* \"#utility.yul\":5330:5540   */\n      swap3\n      swap2\n      pop\n      pop\n      jump\t// out\n        /* \"#utility.yul\":5546:5726   */\n    tag_66:\n        /* \"#utility.yul\":5594:5671   */\n      0x4e487b7100000000000000000000000000000000000000000000000000000000\n        /* \"#utility.yul\":5591:5592   */\n      0x00\n        /* \"#utility.yul\":5584:5672   */\n      mstore\n        /* \"#utility.yul\":5691:5695   */\n      0x11\n        /* \"#utility.yul\":5688:5689   */\n      0x04\n        /* \"#utility.yul\":5681:5696   */\n      mstore\n        /* \"#utility.yul\":5715:5719   */\n      0x24\n        /* \"#utility.yul\":5712:5713   */\n      0x00\n        /* \"#utility.yul\":5705:5720   */\n      revert\n        /* \"#utility.yul\":5732:5926   */\n    tag_25:\n        /* \"#utility.yul\":5772:5776   */\n      0x00\n        /* \"#utility.yul\":5792:5812   */\n      tag_137\n        /* \"#utility.yul\":5810:5811   */\n      dup3\n        /* \"#utility.yul\":5792:5812   */\n      tag_48\n      jump\t// in\n    tag_137:\n        /* \"#utility.yul\":5787:5812   */\n      swap2\n      pop\n        /* \"#utility.yul\":5826:5846   */\n      tag_138\n        /* \"#utility.yul\":5844:5845   */\n      dup4\n        /* \"#utility.yul\":5826:5846   */\n      tag_48\n      jump\t// in\n    tag_138:\n        /* \"#utility.yul\":5821:5846   */\n      swap3\n      pop\n        /* \"#utility.yul\":5870:5871   */\n      dup3\n        /* \"#utility.yul\":5867:5868   */\n      dup3\n        /* \"#utility.yul\":5863:5872   */\n      sub\n        /* \"#utility.yul\":5855:5872   */\n      swap1\n      pop\n        /* \"#utility.yul\":5894:5895   */\n      dup2\n        /* \"#utility.yul\":5888:5892   */\n      dup2\n        /* \"#utility.yul\":5885:5896   */\n      gt\n        /* \"#utility.yul\":5882:5919   */\n      iszero\n      tag_139\n      jumpi\n        /* \"#utility.yul\":5899:5917   */\n      tag_140\n      tag_66\n      jump\t// in\n    tag_140:\n        /* \"#utility.yul\":5882:5919   */\n    tag_139:\n        /* \"#utility.yul\":5732:5926   */\n      swap3\n      swap2\n      pop\n      pop\n      jump\t// out\n        /* \"#utility.yul\":5932:6112   */\n    tag_28:\n        /* \"#utility.yul\":5980:6057   */\n      0x4e487b7100000000000000000000000000000000000000000000000000000000\n        /* \"#utility.yul\":5977:5978   */\n      0x00\n        /* \"#utility.yul\":5970:6058   */\n      mstore\n        /* \"#utility.yul\":6077:6081   */\n      0x32\n        /* \"#utility.yul\":6074:6075   */\n      0x04\n        /* \"#utility.yul\":6067:6082   */\n      mstore\n        /* \"#utility.yul\":6101:6105   */\n      0x24\n        /* \"#utility.yul\":6098:6099   */\n      0x00\n        /* \"#utility.yul\":6091:6106   */\n      revert\n        /* \"#utility.yul\":6118:6298   */\n    tag_67:\n        /* \"#utility.yul\":6166:6243   */\n      0x4e487b7100000000000000000000000000000000000000000000000000000000\n        /* \"#utility.yul\":6163:6164   */\n      0x00\n        /* \"#utility.yul\":6156:6244   */\n      mstore\n        /* \"#utility.yul\":6263:6267   */\n      0x12\n        /* \"#utility.yul\":6260:6261   */\n      0x04\n        /* \"#utility.yul\":6253:6268   */\n      mstore\n        /* \"#utility.yul\":6287:6291   */\n      0x24\n        /* \"#utility.yul\":6284:6285   */\n      0x00\n        /* \"#utility.yul\":6277:6292   */\n      revert\n        /* \"#utility.yul\":6304:6480   */\n    tag_37:\n        /* \"#utility.yul\":6336:6337   */\n      0x00\n        /* \"#utility.yul\":6353:6373   */\n      tag_144\n        /* \"#utility.yul\":6371:6372   */\n      dup3\n        /* \"#utility.yul\":6353:6373   */\n      tag_48\n      jump\t// in\n    tag_144:\n        /* \"#utility.yul\":6348:6373   */\n      swap2\n      pop\n        /* \"#utility.yul\":6387:6407   */\n      tag_145\n        /* \"#utility.yul\":6405:6406   */\n      dup4\n        /* \"#utility.yul\":6387:6407   */\n      tag_48\n      jump\t// in\n    tag_145:\n        /* \"#utility.yul\":6382:6407   */\n      swap3\n      pop\n        /* \"#utility.yul\":6426:6427   */\n      dup3\n        /* \"#utility.yul\":6416:6451   */\n      tag_146\n      jumpi\n        /* \"#utility.yul\":6431:6449   */\n      tag_147\n      tag_67\n      jump\t// in\n    tag_147:\n        /* \"#utility.yul\":6416:6451   */\n    tag_146:\n        /* \"#utility.yul\":6472:6473   */\n      dup3\n        /* \"#utility.yul\":6469:6470   */\n      dup3\n        /* \"#utility.yul\":6465:6474   */\n      mod\n        /* \"#utility.yul\":6460:6474   */\n      swap1\n      pop\n        /* \"#utility.yul\":6304:6480   */\n      swap3\n      swap2\n      pop\n      pop\n      jump\t// out\n        /* \"#utility.yul\":6486:6565   */\n    tag_68:\n        /* \"#utility.yul\":6525:6532   */\n      0x00\n        /* \"#utility.yul\":6554:6559   */\n      dup2\n        /* \"#utility.yul\":6543:6559   */\n      swap1\n      pop\n        /* \"#utility.yul\":6486:6565   */\n      swap2\n      swap1\n      pop\n      jump\t// out\n        /* \"#utility.yul\":6571:6728   */\n    tag_69:\n        /* \"#utility.yul\":6676:6721   */\n      tag_150\n        /* \"#utility.yul\":6696:6720   */\n      tag_151\n        /* \"#utility.yul\":6714:6719   */\n      dup3\n        /* \"#utility.yul\":6696:6720   */\n      tag_51\n      jump\t// in\n    tag_151:\n        /* \"#utility.yul\":6676:6721   */\n      tag_68\n      jump\t// in\n    tag_150:\n        /* \"#utility.yul\":6671:6674   */\n      dup3\n        /* \"#utility.yul\":6664:6722   */\n      mstore\n        /* \"#utility.yul\":6571:6728   */\n      pop\n      pop\n      jump\t// out\n        /* \"#utility.yul\":6734:7131   */\n    tag_40:\n        /* \"#utility.yul\":6874:6877   */\n      0x00\n        /* \"#utility.yul\":6889:6964   */\n      tag_153\n        /* \"#utility.yul\":6960:6963   */\n      dup3\n        /* \"#utility.yul\":6951:6957   */\n      dup6\n        /* \"#utility.yul\":6889:6964   */\n      tag_69\n      jump\t// in\n    tag_153:\n        /* \"#utility.yul\":6989:6991   */\n      0x20\n        /* \"#utility.yul\":6984:6987   */\n      dup3\n        /* \"#utility.yul\":6980:6992   */\n      add\n        /* \"#utility.yul\":6973:6992   */\n      swap2\n      pop\n        /* \"#utility.yul\":7002:7077   */\n      tag_154\n        /* \"#utility.yul\":7073:7076   */\n      dup3\n        /* \"#utility.yul\":7064:7070   */\n      dup5\n        /* \"#utility.yul\":7002:7077   */\n      tag_69\n      jump\t// in\n    tag_154:\n        /* \"#utility.yul\":7102:7104   */\n      0x20\n        /* \"#utility.yul\":7097:7100   */\n      dup3\n        /* \"#utility.yul\":7093:7105   */\n      add\n        /* \"#utility.yul\":7086:7105   */\n      swap2\n      pop\n        /* \"#utility.yul\":7122:7125   */\n      dup2\n        /* \"#utility.yul\":7115:7125   */\n      swap1\n      pop\n        /* \"#utility.yul\":6734:7131   */\n      swap4\n      swap3\n      pop\n      pop\n      pop\n      jump\t// out\n        /* \"#utility.yul\":7137:7322   */\n    tag_44:\n        /* \"#utility.yul\":7177:7178   */\n      0x00\n        /* \"#utility.yul\":7194:7214   */\n      tag_156\n        /* \"#utility.yul\":7212:7213   */\n      dup3\n        /* \"#utility.yul\":7194:7214   */\n      tag_48\n      jump\t// in\n    tag_156:\n        /* \"#utility.yul\":7189:7214   */\n      swap2\n      pop\n        /* \"#utility.yul\":7228:7248   */\n      tag_157\n        /* \"#utility.yul\":7246:7247   */\n      dup4\n        /* \"#utility.yul\":7228:7248   */\n      tag_48\n      jump\t// in\n    tag_157:\n        /* \"#utility.yul\":7223:7248   */\n      swap3\n      pop\n        /* \"#utility.yul\":7267:7268   */\n      dup3\n        /* \"#utility.yul\":7257:7292   */\n      tag_158\n      jumpi\n        /* \"#utility.yul\":7272:7290   */\n      tag_159\n      tag_67\n      jump\t// in\n    tag_159:\n        /* \"#utility.yul\":7257:7292   */\n    tag_158:\n        /* \"#utility.yul\":7314:7315   */\n      dup3\n        /* \"#utility.yul\":7311:7312   */\n      dup3\n        /* \"#utility.yul\":7307:7316   */\n      div\n        /* \"#utility.yul\":7302:7316   */\n      swap1\n      pop\n        /* \"#utility.yul\":7137:7322   */\n      swap3\n      swap2\n      pop\n      pop\n      jump\t// out\n\n    auxdata: 0xa264697066735822122055156dd5343b400b1568ced24e95f1daa5786a76cc76297823f370d2a2b521ff64736f6c634300081a0033\n}\n",
				"bytecode": {
					"linkReferences": {},
					"object": "608060405260405180608001604052806040518060400160405280600881526020017f536865726c6f636b00000000000000000000000000000000000000000000000081525081526020016040518060400160405280600481526020017f4a6f686e0000000000000000000000000000000000000000000000000000000081525081526020016040518060400160405280600481526020017f4d6172790000000000000000000000000000000000000000000000000000000081525081526020016040518060400160405280600881526020017f4c65737472616465000000000000000000000000000000000000000000000000815250815250600190600461010992919061029b565b50348015610115575f80fd5b505f5b600481101561018d575f6001826004811061013657610135610362565b5b01604051602001610147919061048f565b60405160208183030381529060405280519060200120908060018154018082558091505060019003905f5260205f20015f90919091909150558080600101915050610118565b505f600490505f5b5f821115610294575f5b6001836101ac91906104e5565b811015610271575f8083836101c19190610518565b815481106101d2576101d1610362565b5b905f5260205f2001545f600185856101ea9190610518565b6101f49190610518565b8154811061020557610204610362565b5b905f5260205f20015460405160200161021f929190610574565b6040516020818303038152906040528051906020012090505f81908060018154018082558091505060019003905f5260205f20015f90919091909150555060028161026a9190610518565b905061019f565b50818161027e9190610518565b905060028261028d91906105cc565b9150610195565b505061088d565b82600481019282156102d6579160200282015b828111156102d55782518290816102c591906107be565b50916020019190600101906102ae565b5b5090506102e391906102e7565b5090565b5b80821115610306575f81816102fd919061030a565b506001016102e8565b5090565b508054610316906103bc565b5f825580601f106103275750610344565b601f0160209004905f5260205f20908101906103439190610347565b5b50565b5b8082111561035e575f815f905550600101610348565b5090565b7f4e487b71000000000000000000000000000000000000000000000000000000005f52603260045260245ffd5b7f4e487b71000000000000000000000000000000000000000000000000000000005f52602260045260245ffd5b5f60028204905060018216806103d357607f821691505b6020821081036103e6576103e561038f565b5b50919050565b5f82825260208201905092915050565b5f819050815f5260205f209050919050565b5f815461041a816103bc565b61042481866103ec565b9450600182165f811461043e576001811461045457610486565b60ff198316865281151560200286019350610486565b61045d856103fc565b5f5b8381101561047e5781548189015260018201915060208101905061045f565b808801955050505b50505092915050565b5f6020820190508181035f8301526104a7818461040e565b905092915050565b5f819050919050565b7f4e487b71000000000000000000000000000000000000000000000000000000005f52601160045260245ffd5b5f6104ef826104af565b91506104fa836104af565b9250828203905081811115610512576105116104b8565b5b92915050565b5f610522826104af565b915061052d836104af565b9250828201905080821115610545576105446104b8565b5b92915050565b5f819050919050565b5f819050919050565b61056e6105698261054b565b610554565b82525050565b5f61057f828561055d565b60208201915061058f828461055d565b6020820191508190509392505050565b7f4e487b71000000000000000000000000000000000000000000000000000000005f52601260045260245ffd5b5f6105d6826104af565b91506105e1836104af565b9250826105f1576105f061059f565b5b828204905092915050565b5f81519050919050565b7f4e487b71000000000000000000000000000000000000000000000000000000005f52604160045260245ffd5b5f6020601f8301049050919050565b5f82821b905092915050565b5f6008830261067d7fffffffffffffffffffffffffffffffffffffffffffffffffffffffffffffffff82610642565b6106878683610642565b95508019841693508086168417925050509392505050565b5f819050919050565b5f6106c26106bd6106b8846104af565b61069f565b6104af565b9050919050565b5f819050919050565b6106db836106a8565b6106ef6106e7826106c9565b84845461064e565b825550505050565b5f90565b6107036106f7565b61070e8184846106d2565b505050565b5b81811015610731576107265f826106fb565b600181019050610714565b5050565b601f82111561077657610747816103fc565b61075084610633565b8101602085101561075f578190505b61077361076b85610633565b830182610713565b50505b505050565b5f82821c905092915050565b5f6107965f198460080261077b565b1980831691505092915050565b5f6107ae8383610787565b9150826002028217905092915050565b6107c7826105fc565b67ffffffffffffffff8111156107e0576107df610606565b5b6107ea82546103bc565b6107f5828285610735565b5f60209050601f831160018114610826575f8415610814578287015190505b61081e85826107a3565b865550610885565b601f198416610834866103fc565b5f5b8281101561085b57848901518255600182019150602085019450602081019050610836565b868310156108785784890151610874601f891682610787565b8355505b6001600288020188555050505b505050505050565b6106438061089a5f395ff3fe608060405234801561000f575f80fd5b506004361061003f575f3560e01c8063501895ae146100435780635ca1e165146100735780639f49493b14610091575b5f80fd5b61005d6004803603810190610058919061021f565b6100c1565b60405161006a9190610262565b60405180910390f35b61007b6100e0565b6040516100889190610262565b60405180910390f35b6100ab60048036038101906100a691906103f5565b610112565b6040516100b8919061048f565b60405180910390f35b5f81815481106100cf575f80fd5b905f5260205f20015f915090505481565b5f8060015f805490506100f391906104d5565b8154811061010457610103610508565b5b905f5260205f200154905090565b5f808490505f5b83518110156101cc575f84828151811061013657610135610508565b5b602002602001015190505f60028761014e9190610562565b036101835782816040516020016101669291906105b2565b6040516020818303038152906040528051906020012092506101af565b80836040516020016101969291906105b2565b6040516020818303038152906040528051906020012092505b6002866101bc91906105dd565b9550508080600101915050610119565b50858114915050949350505050565b5f604051905090565b5f80fd5b5f80fd5b5f819050919050565b6101fe816101ec565b8114610208575f80fd5b50565b5f81359050610219816101f5565b92915050565b5f60208284031215610234576102336101e4565b5b5f6102418482850161020b565b91505092915050565b5f819050919050565b61025c8161024a565b82525050565b5f6020820190506102755f830184610253565b92915050565b6102848161024a565b811461028e575f80fd5b50565b5f8135905061029f8161027b565b92915050565b5f80fd5b5f601f19601f8301169050919050565b7f4e487b71000000000000000000000000000000000000000000000000000000005f52604160045260245ffd5b6102ef826102a9565b810181811067ffffffffffffffff8211171561030e5761030d6102b9565b5b80604052505050565b5f6103206101db565b905061032c82826102e6565b919050565b5f67ffffffffffffffff82111561034b5761034a6102b9565b5b602082029050602081019050919050565b5f80fd5b5f61037261036d84610331565b610317565b905080838252602082019050602084028301858111156103955761039461035c565b5b835b818110156103be57806103aa8882610291565b845260208401935050602081019050610397565b5050509392505050565b5f82601f8301126103dc576103db6102a5565b5b81356103ec848260208601610360565b91505092915050565b5f805f806080858703121561040d5761040c6101e4565b5b5f61041a87828801610291565b945050602061042b87828801610291565b935050604061043c8782880161020b565b925050606085013567ffffffffffffffff81111561045d5761045c6101e8565b5b610469878288016103c8565b91505092959194509250565b5f8115159050919050565b61048981610475565b82525050565b5f6020820190506104a25f830184610480565b92915050565b7f4e487b71000000000000000000000000000000000000000000000000000000005f52601160045260245ffd5b5f6104df826101ec565b91506104ea836101ec565b9250828203905081811115610502576105016104a8565b5b92915050565b7f4e487b71000000000000000000000000000000000000000000000000000000005f52603260045260245ffd5b7f4e487b71000000000000000000000000000000000000000000000000000000005f52601260045260245ffd5b5f61056c826101ec565b9150610577836101ec565b92508261058757610586610535565b5b828206905092915050565b5f819050919050565b6105ac6105a78261024a565b610592565b82525050565b5f6105bd828561059b565b6020820191506105cd828461059b565b6020820191508190509392505050565b5f6105e7826101ec565b91506105f2836101ec565b92508261060257610601610535565b5b82820490509291505056fea264697066735822122055156dd5343b400b1568ced24e95f1daa5786a76cc76297823f370d2a2b521ff64736f6c634300081a0033",
					"opcodes": "PUSH1 0x80 PUSH1 0x40 MSTORE PUSH1 0x40 MLOAD DUP1 PUSH1 0x80 ADD PUSH1 0x40 MSTORE DUP1 PUSH1 0x40 MLOAD DUP1 PUSH1 0x40 ADD PUSH1 0x40 MSTORE DUP1 PUSH1 0x8 DUP2 MSTORE PUSH1 0x20 ADD PUSH32 0x536865726C6F636B000000000000000000000000000000000000000000000000 DUP2 MSTORE POP DUP2 MSTORE PUSH1 0x20 ADD PUSH1 0x40 MLOAD DUP1 PUSH1 0x40 ADD PUSH1 0x40 MSTORE DUP1 PUSH1 0x4 DUP2 MSTORE PUSH1 0x20 ADD PUSH32 0x4A6F686E00000000000000000000000000000000000000000000000000000000 DUP2 MSTORE POP DUP2 MSTORE PUSH1 0x20 ADD PUSH1 0x40 MLOAD DUP1 PUSH1 0x40 ADD PUSH1 0x40 MSTORE DUP1 PUSH1 0x4 DUP2 MSTORE PUSH1 0x20 ADD PUSH32 0x4D61727900000000000000000000000000000000000000000000000000000000 DUP2 MSTORE POP DUP2 MSTORE PUSH1 0x20 ADD PUSH1 0x40 MLOAD DUP1 PUSH1 0x40 ADD PUSH1 0x40 MSTORE DUP1 PUSH1 0x8 DUP2 MSTORE PUSH1 0x20 ADD PUSH32 0x4C65737472616465000000000000000000000000000000000000000000000000 DUP2 MSTORE POP DUP2 MSTORE POP PUSH1 0x1 SWAP1 PUSH1 0x4 PUSH2 0x109 SWAP3 SWAP2 SWAP1 PUSH2 0x29B JUMP JUMPDEST POP CALLVALUE DUP1 ISZERO PUSH2 0x115 JUMPI PUSH0 DUP1 REVERT JUMPDEST POP PUSH0 JUMPDEST PUSH1 0x4 DUP2 LT ISZERO PUSH2 0x18D JUMPI PUSH0 PUSH1 0x1 DUP3 PUSH1 0x4 DUP2 LT PUSH2 0x136 JUMPI PUSH2 0x135 PUSH2 0x362 JUMP JUMPDEST JUMPDEST ADD PUSH1 0x40 MLOAD PUSH1 0x20 ADD PUSH2 0x147 SWAP2 SWAP1 PUSH2 0x48F JUMP JUMPDEST PUSH1 0x40 MLOAD PUSH1 0x20 DUP2 DUP4 SUB SUB DUP2 MSTORE SWAP1 PUSH1 0x40 MSTORE DUP1 MLOAD SWAP1 PUSH1 0x20 ADD KECCAK256 SWAP1 DUP1 PUSH1 0x1 DUP2 SLOAD ADD DUP1 DUP3 SSTORE DUP1 SWAP2 POP POP PUSH1 0x1 SWAP1 SUB SWAP1 PUSH0 MSTORE PUSH1 0x20 PUSH0 KECCAK256 ADD PUSH0 SWAP1 SWAP2 SWAP1 SWAP2 SWAP1 SWAP2 POP SSTORE DUP1 DUP1 PUSH1 0x1 ADD SWAP2 POP POP PUSH2 0x118 JUMP JUMPDEST POP PUSH0 PUSH1 0x4 SWAP1 POP PUSH0 JUMPDEST PUSH0 DUP3 GT ISZERO PUSH2 0x294 JUMPI PUSH0 JUMPDEST PUSH1 0x1 DUP4 PUSH2 0x1AC SWAP2 SWAP1 PUSH2 0x4E5 JUMP JUMPDEST DUP2 LT ISZERO PUSH2 0x271 JUMPI PUSH0 DUP1 DUP4 DUP4 PUSH2 0x1C1 SWAP2 SWAP1 PUSH2 0x518 JUMP JUMPDEST DUP2 SLOAD DUP2 LT PUSH2 0x1D2 JUMPI PUSH2 0x1D1 PUSH2 0x362 JUMP JUMPDEST JUMPDEST SWAP1 PUSH0 MSTORE PUSH1 0x20 PUSH0 KECCAK256 ADD SLOAD PUSH0 PUSH1 0x1 DUP6 DUP6 PUSH2 0x1EA SWAP2 SWAP1 PUSH2 0x518 JUMP JUMPDEST PUSH2 0x1F4 SWAP2 SWAP1 PUSH2 0x518 JUMP JUMPDEST DUP2 SLOAD DUP2 LT PUSH2 0x205 JUMPI PUSH2 0x204 PUSH2 0x362 JUMP JUMPDEST JUMPDEST SWAP1 PUSH0 MSTORE PUSH1 0x20 PUSH0 KECCAK256 ADD SLOAD PUSH1 0x40 MLOAD PUSH1 0x20 ADD PUSH2 0x21F SWAP3 SWAP2 SWAP1 PUSH2 0x574 JUMP JUMPDEST PUSH1 0x40 MLOAD PUSH1 0x20 DUP2 DUP4 SUB SUB DUP2 MSTORE SWAP1 PUSH1 0x40 MSTORE DUP1 MLOAD SWAP1 PUSH1 0x20 ADD KECCAK256 SWAP1 POP PUSH0 DUP2 SWAP1 DUP1 PUSH1 0x1 DUP2 SLOAD ADD DUP1 DUP3 SSTORE DUP1 SWAP2 POP POP PUSH1 0x1 SWAP1 SUB SWAP1 PUSH0 MSTORE PUSH1 0x20 PUSH0 KECCAK256 ADD PUSH0 SWAP1 SWAP2 SWAP1 SWAP2 SWAP1 SWAP2 POP SSTORE POP PUSH1 0x2 DUP2 PUSH2 0x26A SWAP2 SWAP1 PUSH2 0x518 JUMP JUMPDEST SWAP1 POP PUSH2 0x19F JUMP JUMPDEST POP DUP2 DUP2 PUSH2 0x27E SWAP2 SWAP1 PUSH2 0x518 JUMP JUMPDEST SWAP1 POP PUSH1 0x2 DUP3 PUSH2 0x28D SWAP2 SWAP1 PUSH2 0x5CC JUMP JUMPDEST SWAP2 POP PUSH2 0x195 JUMP JUMPDEST POP POP PUSH2 0x88D JUMP JUMPDEST DUP3 PUSH1 0x4 DUP2 ADD SWAP3 DUP3 ISZERO PUSH2 0x2D6 JUMPI SWAP2 PUSH1 0x20 MUL DUP3 ADD JUMPDEST DUP3 DUP2 GT ISZERO PUSH2 0x2D5 JUMPI DUP3 MLOAD DUP3 SWAP1 DUP2 PUSH2 0x2C5 SWAP2 SWAP1 PUSH2 0x7BE JUMP JUMPDEST POP SWAP2 PUSH1 0x20 ADD SWAP2 SWAP1 PUSH1 0x1 ADD SWAP1 PUSH2 0x2AE JUMP JUMPDEST JUMPDEST POP SWAP1 POP PUSH2 0x2E3 SWAP2 SWAP1 PUSH2 0x2E7 JUMP JUMPDEST POP SWAP1 JUMP JUMPDEST JUMPDEST DUP1 DUP3 GT ISZERO PUSH2 0x306 JUMPI PUSH0 DUP2 DUP2 PUSH2 0x2FD SWAP2 SWAP1 PUSH2 0x30A JUMP JUMPDEST POP PUSH1 0x1 ADD PUSH2 0x2E8 JUMP JUMPDEST POP SWAP1 JUMP JUMPDEST POP DUP1 SLOAD PUSH2 0x316 SWAP1 PUSH2 0x3BC JUMP JUMPDEST PUSH0 DUP3 SSTORE DUP1 PUSH1 0x1F LT PUSH2 0x327 JUMPI POP PUSH2 0x344 JUMP JUMPDEST PUSH1 0x1F ADD PUSH1 0x20 SWAP1 DIV SWAP1 PUSH0 MSTORE PUSH1 0x20 PUSH0 KECCAK256 SWAP1 DUP2 ADD SWAP1 PUSH2 0x343 SWAP2 SWAP1 PUSH2 0x347 JUMP JUMPDEST JUMPDEST POP JUMP JUMPDEST JUMPDEST DUP1 DUP3 GT ISZERO PUSH2 0x35E JUMPI PUSH0 DUP2 PUSH0 SWAP1 SSTORE POP PUSH1 0x1 ADD PUSH2 0x348 JUMP JUMPDEST POP SWAP1 JUMP JUMPDEST PUSH32 0x4E487B7100000000000000000000000000000000000000000000000000000000 PUSH0 MSTORE PUSH1 0x32 PUSH1 0x4 MSTORE PUSH1 0x24 PUSH0 REVERT JUMPDEST PUSH32 0x4E487B7100000000000000000000000000000000000000000000000000000000 PUSH0 MSTORE PUSH1 0x22 PUSH1 0x4 MSTORE PUSH1 0x24 PUSH0 REVERT JUMPDEST PUSH0 PUSH1 0x2 DUP3 DIV SWAP1 POP PUSH1 0x1 DUP3 AND DUP1 PUSH2 0x3D3 JUMPI PUSH1 0x7F DUP3 AND SWAP2 POP JUMPDEST PUSH1 0x20 DUP3 LT DUP2 SUB PUSH2 0x3E6 JUMPI PUSH2 0x3E5 PUSH2 0x38F JUMP JUMPDEST JUMPDEST POP SWAP2 SWAP1 POP JUMP JUMPDEST PUSH0 DUP3 DUP3 MSTORE PUSH1 0x20 DUP3 ADD SWAP1 POP SWAP3 SWAP2 POP POP JUMP JUMPDEST PUSH0 DUP2 SWAP1 POP DUP2 PUSH0 MSTORE PUSH1 0x20 PUSH0 KECCAK256 SWAP1 POP SWAP2 SWAP1 POP JUMP JUMPDEST PUSH0 DUP2 SLOAD PUSH2 0x41A DUP2 PUSH2 0x3BC JUMP JUMPDEST PUSH2 0x424 DUP2 DUP7 PUSH2 0x3EC JUMP JUMPDEST SWAP5 POP PUSH1 0x1 DUP3 AND PUSH0 DUP2 EQ PUSH2 0x43E JUMPI PUSH1 0x1 DUP2 EQ PUSH2 0x454 JUMPI PUSH2 0x486 JUMP JUMPDEST PUSH1 0xFF NOT DUP4 AND DUP7 MSTORE DUP2 ISZERO ISZERO PUSH1 0x20 MUL DUP7 ADD SWAP4 POP PUSH2 0x486 JUMP JUMPDEST PUSH2 0x45D DUP6 PUSH2 0x3FC JUMP JUMPDEST PUSH0 JUMPDEST DUP4 DUP2 LT ISZERO PUSH2 0x47E JUMPI DUP2 SLOAD DUP2 DUP10 ADD MSTORE PUSH1 0x1 DUP3 ADD SWAP2 POP PUSH1 0x20 DUP2 ADD SWAP1 POP PUSH2 0x45F JUMP JUMPDEST DUP1 DUP9 ADD SWAP6 POP POP POP JUMPDEST POP POP POP SWAP3 SWAP2 POP POP JUMP JUMPDEST PUSH0 PUSH1 0x20 DUP3 ADD SWAP1 POP DUP2 DUP2 SUB PUSH0 DUP4 ADD MSTORE PUSH2 0x4A7 DUP2 DUP5 PUSH2 0x40E JUMP JUMPDEST SWAP1 POP SWAP3 SWAP2 POP POP JUMP JUMPDEST PUSH0 DUP2 SWAP1 POP SWAP2 SWAP1 POP JUMP JUMPDEST PUSH32 0x4E487B7100000000000000000000000000000000000000000000000000000000 PUSH0 MSTORE PUSH1 0x11 PUSH1 0x4 MSTORE PUSH1 0x24 PUSH0 REVERT JUMPDEST PUSH0 PUSH2 0x4EF DUP3 PUSH2 0x4AF JUMP JUMPDEST SWAP2 POP PUSH2 0x4FA DUP4 PUSH2 0x4AF JUMP JUMPDEST SWAP3 POP DUP3 DUP3 SUB SWAP1 POP DUP2 DUP2 GT ISZERO PUSH2 0x512 JUMPI PUSH2 0x511 PUSH2 0x4B8 JUMP JUMPDEST JUMPDEST SWAP3 SWAP2 POP POP JUMP JUMPDEST PUSH0 PUSH2 0x522 DUP3 PUSH2 0x4AF JUMP JUMPDEST SWAP2 POP PUSH2 0x52D DUP4 PUSH2 0x4AF JUMP JUMPDEST SWAP3 POP DUP3 DUP3 ADD SWAP1 POP DUP1 DUP3 GT ISZERO PUSH2 0x545 JUMPI PUSH2 0x544 PUSH2 0x4B8 JUMP JUMPDEST JUMPDEST SWAP3 SWAP2 POP POP JUMP JUMPDEST PUSH0 DUP2 SWAP1 POP SWAP2 SWAP1 POP JUMP JUMPDEST PUSH0 DUP2 SWAP1 POP SWAP2 SWAP1 POP JUMP JUMPDEST PUSH2 0x56E PUSH2 0x569 DUP3 PUSH2 0x54B JUMP JUMPDEST PUSH2 0x554 JUMP JUMPDEST DUP3 MSTORE POP POP JUMP JUMPDEST PUSH0 PUSH2 0x57F DUP3 DUP6 PUSH2 0x55D JUMP JUMPDEST PUSH1 0x20 DUP3 ADD SWAP2 POP PUSH2 0x58F DUP3 DUP5 PUSH2 0x55D JUMP JUMPDEST PUSH1 0x20 DUP3 ADD SWAP2 POP DUP2 SWAP1 POP SWAP4 SWAP3 POP POP POP JUMP JUMPDEST PUSH32 0x4E487B7100000000000000000000000000000000000000000000000000000000 PUSH0 MSTORE PUSH1 0x12 PUSH1 0x4 MSTORE PUSH1 0x24 PUSH0 REVERT JUMPDEST PUSH0 PUSH2 0x5D6 DUP3 PUSH2 0x4AF JUMP JUMPDEST SWAP2 POP PUSH2 0x5E1 DUP4 PUSH2 0x4AF JUMP JUMPDEST SWAP3 POP DUP3 PUSH2 0x5F1 JUMPI PUSH2 0x5F0 PUSH2 0x59F JUMP JUMPDEST JUMPDEST DUP3 DUP3 DIV SWAP1 POP SWAP3 SWAP2 POP POP JUMP JUMPDEST PUSH0 DUP2 MLOAD SWAP1 POP SWAP2 SWAP1 POP JUMP JUMPDEST PUSH32 0x4E487B7100000000000000000000000000000000000000000000000000000000 PUSH0 MSTORE PUSH1 0x41 PUSH1 0x4 MSTORE PUSH1 0x24 PUSH0 REVERT JUMPDEST PUSH0 PUSH1 0x20 PUSH1 0x1F DUP4 ADD DIV SWAP1 POP SWAP2 SWAP1 POP JUMP JUMPDEST PUSH0 DUP3 DUP3 SHL SWAP1 POP SWAP3 SWAP2 POP POP JUMP JUMPDEST PUSH0 PUSH1 0x8 DUP4 MUL PUSH2 0x67D PUSH32 0xFFFFFFFFFFFFFFFFFFFFFFFFFFFFFFFFFFFFFFFFFFFFFFFFFFFFFFFFFFFFFFFF DUP3 PUSH2 0x642 JUMP JUMPDEST PUSH2 0x687 DUP7 DUP4 PUSH2 0x642 JUMP JUMPDEST SWAP6 POP DUP1 NOT DUP5 AND SWAP4 POP DUP1 DUP7 AND DUP5 OR SWAP3 POP POP POP SWAP4 SWAP3 POP POP POP JUMP JUMPDEST PUSH0 DUP2 SWAP1 POP SWAP2 SWAP1 POP JUMP JUMPDEST PUSH0 PUSH2 0x6C2 PUSH2 0x6BD PUSH2 0x6B8 DUP5 PUSH2 0x4AF JUMP JUMPDEST PUSH2 0x69F JUMP JUMPDEST PUSH2 0x4AF JUMP JUMPDEST SWAP1 POP SWAP2 SWAP1 POP JUMP JUMPDEST PUSH0 DUP2 SWAP1 POP SWAP2 SWAP1 POP JUMP JUMPDEST PUSH2 0x6DB DUP4 PUSH2 0x6A8 JUMP JUMPDEST PUSH2 0x6EF PUSH2 0x6E7 DUP3 PUSH2 0x6C9 JUMP JUMPDEST DUP5 DUP5 SLOAD PUSH2 0x64E JUMP JUMPDEST DUP3 SSTORE POP POP POP POP JUMP JUMPDEST PUSH0 SWAP1 JUMP JUMPDEST PUSH2 0x703 PUSH2 0x6F7 JUMP JUMPDEST PUSH2 0x70E DUP2 DUP5 DUP5 PUSH2 0x6D2 JUMP JUMPDEST POP POP POP JUMP JUMPDEST JUMPDEST DUP2 DUP2 LT ISZERO PUSH2 0x731 JUMPI PUSH2 0x726 PUSH0 DUP3 PUSH2 0x6FB JUMP JUMPDEST PUSH1 0x1 DUP2 ADD SWAP1 POP PUSH2 0x714 JUMP JUMPDEST POP POP JUMP JUMPDEST PUSH1 0x1F DUP3 GT ISZERO PUSH2 0x776 JUMPI PUSH2 0x747 DUP2 PUSH2 0x3FC JUMP JUMPDEST PUSH2 0x750 DUP5 PUSH2 0x633 JUMP JUMPDEST DUP2 ADD PUSH1 0x20 DUP6 LT ISZERO PUSH2 0x75F JUMPI DUP2 SWAP1 POP JUMPDEST PUSH2 0x773 PUSH2 0x76B DUP6 PUSH2 0x633 JUMP JUMPDEST DUP4 ADD DUP3 PUSH2 0x713 JUMP JUMPDEST POP POP JUMPDEST POP POP POP JUMP JUMPDEST PUSH0 DUP3 DUP3 SHR SWAP1 POP SWAP3 SWAP2 POP POP JUMP JUMPDEST PUSH0 PUSH2 0x796 PUSH0 NOT DUP5 PUSH1 0x8 MUL PUSH2 0x77B JUMP JUMPDEST NOT DUP1 DUP4 AND SWAP2 POP POP SWAP3 SWAP2 POP POP JUMP JUMPDEST PUSH0 PUSH2 0x7AE DUP4 DUP4 PUSH2 0x787 JUMP JUMPDEST SWAP2 POP DUP3 PUSH1 0x2 MUL DUP3 OR SWAP1 POP SWAP3 SWAP2 POP POP JUMP JUMPDEST PUSH2 0x7C7 DUP3 PUSH2 0x5FC JUMP JUMPDEST PUSH8 0xFFFFFFFFFFFFFFFF DUP2 GT ISZERO PUSH2 0x7E0 JUMPI PUSH2 0x7DF PUSH2 0x606 JUMP JUMPDEST JUMPDEST PUSH2 0x7EA DUP3 SLOAD PUSH2 0x3BC JUMP JUMPDEST PUSH2 0x7F5 DUP3 DUP3 DUP6 PUSH2 0x735 JUMP JUMPDEST PUSH0 PUSH1 0x20 SWAP1 POP PUSH1 0x1F DUP4 GT PUSH1 0x1 DUP2 EQ PUSH2 0x826 JUMPI PUSH0 DUP5 ISZERO PUSH2 0x814 JUMPI DUP3 DUP8 ADD MLOAD SWAP1 POP JUMPDEST PUSH2 0x81E DUP6 DUP3 PUSH2 0x7A3 JUMP JUMPDEST DUP7 SSTORE POP PUSH2 0x885 JUMP JUMPDEST PUSH1 0x1F NOT DUP5 AND PUSH2 0x834 DUP7 PUSH2 0x3FC JUMP JUMPDEST PUSH0 JUMPDEST DUP3 DUP2 LT ISZERO PUSH2 0x85B JUMPI DUP5 DUP10 ADD MLOAD DUP3 SSTORE PUSH1 0x1 DUP3 ADD SWAP2 POP PUSH1 0x20 DUP6 ADD SWAP5 POP PUSH1 0x20 DUP2 ADD SWAP1 POP PUSH2 0x836 JUMP JUMPDEST DUP7 DUP4 LT ISZERO PUSH2 0x878 JUMPI DUP5 DUP10 ADD MLOAD PUSH2 0x874 PUSH1 0x1F DUP10 AND DUP3 PUSH2 0x787 JUMP JUMPDEST DUP4 SSTORE POP JUMPDEST PUSH1 0x1 PUSH1 0x2 DUP9 MUL ADD DUP9 SSTORE POP POP POP JUMPDEST POP POP POP POP POP POP JUMP JUMPDEST PUSH2 0x643 DUP1 PUSH2 0x89A PUSH0 CODECOPY PUSH0 RETURN INVALID PUSH1 0x80 PUSH1 0x40 MSTORE CALLVALUE DUP1 ISZERO PUSH2 0xF JUMPI PUSH0 DUP1 REVERT JUMPDEST POP PUSH1 0x4 CALLDATASIZE LT PUSH2 0x3F JUMPI PUSH0 CALLDATALOAD PUSH1 0xE0 SHR DUP1 PUSH4 0x501895AE EQ PUSH2 0x43 JUMPI DUP1 PUSH4 0x5CA1E165 EQ PUSH2 0x73 JUMPI DUP1 PUSH4 0x9F49493B EQ PUSH2 0x91 JUMPI JUMPDEST PUSH0 DUP1 REVERT JUMPDEST PUSH2 0x5D PUSH1 0x4 DUP1 CALLDATASIZE SUB DUP2 ADD SWAP1 PUSH2 0x58 SWAP2 SWAP1 PUSH2 0x21F JUMP JUMPDEST PUSH2 0xC1 JUMP JUMPDEST PUSH1 0x40 MLOAD PUSH2 0x6A SWAP2 SWAP1 PUSH2 0x262 JUMP JUMPDEST PUSH1 0x40 MLOAD DUP1 SWAP2 SUB SWAP1 RETURN JUMPDEST PUSH2 0x7B PUSH2 0xE0 JUMP JUMPDEST PUSH1 0x40 MLOAD PUSH2 0x88 SWAP2 SWAP1 PUSH2 0x262 JUMP JUMPDEST PUSH1 0x40 MLOAD DUP1 SWAP2 SUB SWAP1 RETURN JUMPDEST PUSH2 0xAB PUSH1 0x4 DUP1 CALLDATASIZE SUB DUP2 ADD SWAP1 PUSH2 0xA6 SWAP2 SWAP1 PUSH2 0x3F5 JUMP JUMPDEST PUSH2 0x112 JUMP JUMPDEST PUSH1 0x40 MLOAD PUSH2 0xB8 SWAP2 SWAP1 PUSH2 0x48F JUMP JUMPDEST PUSH1 0x40 MLOAD DUP1 SWAP2 SUB SWAP1 RETURN JUMPDEST PUSH0 DUP2 DUP2 SLOAD DUP2 LT PUSH2 0xCF JUMPI PUSH0 DUP1 REVERT JUMPDEST SWAP1 PUSH0 MSTORE PUSH1 0x20 PUSH0 KECCAK256 ADD PUSH0 SWAP2 POP SWAP1 POP SLOAD DUP2 JUMP JUMPDEST PUSH0 DUP1 PUSH1 0x1 PUSH0 DUP1 SLOAD SWAP1 POP PUSH2 0xF3 SWAP2 SWAP1 PUSH2 0x4D5 JUMP JUMPDEST DUP2 SLOAD DUP2 LT PUSH2 0x104 JUMPI PUSH2 0x103 PUSH2 0x508 JUMP JUMPDEST JUMPDEST SWAP1 PUSH0 MSTORE PUSH1 0x20 PUSH0 KECCAK256 ADD SLOAD SWAP1 POP SWAP1 JUMP JUMPDEST PUSH0 DUP1 DUP5 SWAP1 POP PUSH0 JUMPDEST DUP4 MLOAD DUP2 LT ISZERO PUSH2 0x1CC JUMPI PUSH0 DUP5 DUP3 DUP2 MLOAD DUP2 LT PUSH2 0x136 JUMPI PUSH2 0x135 PUSH2 0x508 JUMP JUMPDEST JUMPDEST PUSH1 0x20 MUL PUSH1 0x20 ADD ADD MLOAD SWAP1 POP PUSH0 PUSH1 0x2 DUP8 PUSH2 0x14E SWAP2 SWAP1 PUSH2 0x562 JUMP JUMPDEST SUB PUSH2 0x183 JUMPI DUP3 DUP2 PUSH1 0x40 MLOAD PUSH1 0x20 ADD PUSH2 0x166 SWAP3 SWAP2 SWAP1 PUSH2 0x5B2 JUMP JUMPDEST PUSH1 0x40 MLOAD PUSH1 0x20 DUP2 DUP4 SUB SUB DUP2 MSTORE SWAP1 PUSH1 0x40 MSTORE DUP1 MLOAD SWAP1 PUSH1 0x20 ADD KECCAK256 SWAP3 POP PUSH2 0x1AF JUMP JUMPDEST DUP1 DUP4 PUSH1 0x40 MLOAD PUSH1 0x20 ADD PUSH2 0x196 SWAP3 SWAP2 SWAP1 PUSH2 0x5B2 JUMP JUMPDEST PUSH1 0x40 MLOAD PUSH1 0x20 DUP2 DUP4 SUB SUB DUP2 MSTORE SWAP1 PUSH1 0x40 MSTORE DUP1 MLOAD SWAP1 PUSH1 0x20 ADD KECCAK256 SWAP3 POP JUMPDEST PUSH1 0x2 DUP7 PUSH2 0x1BC SWAP2 SWAP1 PUSH2 0x5DD JUMP JUMPDEST SWAP6 POP POP DUP1 DUP1 PUSH1 0x1 ADD SWAP2 POP POP PUSH2 0x119 JUMP JUMPDEST POP DUP6 DUP2 EQ SWAP2 POP POP SWAP5 SWAP4 POP POP POP POP JUMP JUMPDEST PUSH0 PUSH1 0x40 MLOAD SWAP1 POP SWAP1 JUMP JUMPDEST PUSH0 DUP1 REVERT JUMPDEST PUSH0 DUP1 REVERT JUMPDEST PUSH0 DUP2 SWAP1 POP SWAP2 SWAP1 POP JUMP JUMPDEST PUSH2 0x1FE DUP2 PUSH2 0x1EC JUMP JUMPDEST DUP2 EQ PUSH2 0x208 JUMPI PUSH0 DUP1 REVERT JUMPDEST POP JUMP JUMPDEST PUSH0 DUP2 CALLDATALOAD SWAP1 POP PUSH2 0x219 DUP2 PUSH2 0x1F5 JUMP JUMPDEST SWAP3 SWAP2 POP POP JUMP JUMPDEST PUSH0 PUSH1 0x20 DUP3 DUP5 SUB SLT ISZERO PUSH2 0x234 JUMPI PUSH2 0x233 PUSH2 0x1E4 JUMP JUMPDEST JUMPDEST PUSH0 PUSH2 0x241 DUP5 DUP3 DUP6 ADD PUSH2 0x20B JUMP JUMPDEST SWAP2 POP POP SWAP3 SWAP2 POP POP JUMP JUMPDEST PUSH0 DUP2 SWAP1 POP SWAP2 SWAP1 POP JUMP JUMPDEST PUSH2 0x25C DUP2 PUSH2 0x24A JUMP JUMPDEST DUP3 MSTORE POP POP JUMP JUMPDEST PUSH0 PUSH1 0x20 DUP3 ADD SWAP1 POP PUSH2 0x275 PUSH0 DUP4 ADD DUP5 PUSH2 0x253 JUMP JUMPDEST SWAP3 SWAP2 POP POP JUMP JUMPDEST PUSH2 0x284 DUP2 PUSH2 0x24A JUMP JUMPDEST DUP2 EQ PUSH2 0x28E JUMPI PUSH0 DUP1 REVERT JUMPDEST POP JUMP JUMPDEST PUSH0 DUP2 CALLDATALOAD SWAP1 POP PUSH2 0x29F DUP2 PUSH2 0x27B JUMP JUMPDEST SWAP3 SWAP2 POP POP JUMP JUMPDEST PUSH0 DUP1 REVERT JUMPDEST PUSH0 PUSH1 0x1F NOT PUSH1 0x1F DUP4 ADD AND SWAP1 POP SWAP2 SWAP1 POP JUMP JUMPDEST PUSH32 0x4E487B7100000000000000000000000000000000000000000000000000000000 PUSH0 MSTORE PUSH1 0x41 PUSH1 0x4 MSTORE PUSH1 0x24 PUSH0 REVERT JUMPDEST PUSH2 0x2EF DUP3 PUSH2 0x2A9 JUMP JUMPDEST DUP2 ADD DUP2 DUP2 LT PUSH8 0xFFFFFFFFFFFFFFFF DUP3 GT OR ISZERO PUSH2 0x30E JUMPI PUSH2 0x30D PUSH2 0x2B9 JUMP JUMPDEST JUMPDEST DUP1 PUSH1 0x40 MSTORE POP POP POP JUMP JUMPDEST PUSH0 PUSH2 0x320 PUSH2 0x1DB JUMP JUMPDEST SWAP1 POP PUSH2 0x32C DUP3 DUP3 PUSH2 0x2E6 JUMP JUMPDEST SWAP2 SWAP1 POP JUMP JUMPDEST PUSH0 PUSH8 0xFFFFFFFFFFFFFFFF DUP3 GT ISZERO PUSH2 0x34B JUMPI PUSH2 0x34A PUSH2 0x2B9 JUMP JUMPDEST JUMPDEST PUSH1 0x20 DUP3 MUL SWAP1 POP PUSH1 0x20 DUP2 ADD SWAP1 POP SWAP2 SWAP1 POP JUMP JUMPDEST PUSH0 DUP1 REVERT JUMPDEST PUSH0 PUSH2 0x372 PUSH2 0x36D DUP5 PUSH2 0x331 JUMP JUMPDEST PUSH2 0x317 JUMP JUMPDEST SWAP1 POP DUP1 DUP4 DUP3 MSTORE PUSH1 0x20 DUP3 ADD SWAP1 POP PUSH1 0x20 DUP5 MUL DUP4 ADD DUP6 DUP2 GT ISZERO PUSH2 0x395 JUMPI PUSH2 0x394 PUSH2 0x35C JUMP JUMPDEST JUMPDEST DUP4 JUMPDEST DUP2 DUP2 LT ISZERO PUSH2 0x3BE JUMPI DUP1 PUSH2 0x3AA DUP9 DUP3 PUSH2 0x291 JUMP JUMPDEST DUP5 MSTORE PUSH1 0x20 DUP5 ADD SWAP4 POP POP PUSH1 0x20 DUP2 ADD SWAP1 POP PUSH2 0x397 JUMP JUMPDEST POP POP POP SWAP4 SWAP3 POP POP POP JUMP JUMPDEST PUSH0 DUP3 PUSH1 0x1F DUP4 ADD SLT PUSH2 0x3DC JUMPI PUSH2 0x3DB PUSH2 0x2A5 JUMP JUMPDEST JUMPDEST DUP2 CALLDATALOAD PUSH2 0x3EC DUP5 DUP3 PUSH1 0x20 DUP7 ADD PUSH2 0x360 JUMP JUMPDEST SWAP2 POP POP SWAP3 SWAP2 POP POP JUMP JUMPDEST PUSH0 DUP1 PUSH0 DUP1 PUSH1 0x80 DUP6 DUP8 SUB SLT ISZERO PUSH2 0x40D JUMPI PUSH2 0x40C PUSH2 0x1E4 JUMP JUMPDEST JUMPDEST PUSH0 PUSH2 0x41A DUP8 DUP3 DUP9 ADD PUSH2 0x291 JUMP JUMPDEST SWAP5 POP POP PUSH1 0x20 PUSH2 0x42B DUP8 DUP3 DUP9 ADD PUSH2 0x291 JUMP JUMPDEST SWAP4 POP POP PUSH1 0x40 PUSH2 0x43C DUP8 DUP3 DUP9 ADD PUSH2 0x20B JUMP JUMPDEST SWAP3 POP POP PUSH1 0x60 DUP6 ADD CALLDATALOAD PUSH8 0xFFFFFFFFFFFFFFFF DUP2 GT ISZERO PUSH2 0x45D JUMPI PUSH2 0x45C PUSH2 0x1E8 JUMP JUMPDEST JUMPDEST PUSH2 0x469 DUP8 DUP3 DUP9 ADD PUSH2 0x3C8 JUMP JUMPDEST SWAP2 POP POP SWAP3 SWAP6 SWAP2 SWAP5 POP SWAP3 POP JUMP JUMPDEST PUSH0 DUP2 ISZERO ISZERO SWAP1 POP SWAP2 SWAP1 POP JUMP JUMPDEST PUSH2 0x489 DUP2 PUSH2 0x475 JUMP JUMPDEST DUP3 MSTORE POP POP JUMP JUMPDEST PUSH0 PUSH1 0x20 DUP3 ADD SWAP1 POP PUSH2 0x4A2 PUSH0 DUP4 ADD DUP5 PUSH2 0x480 JUMP JUMPDEST SWAP3 SWAP2 POP POP JUMP JUMPDEST PUSH32 0x4E487B7100000000000000000000000000000000000000000000000000000000 PUSH0 MSTORE PUSH1 0x11 PUSH1 0x4 MSTORE PUSH1 0x24 PUSH0 REVERT JUMPDEST PUSH0 PUSH2 0x4DF DUP3 PUSH2 0x1EC JUMP JUMPDEST SWAP2 POP PUSH2 0x4EA DUP4 PUSH2 0x1EC JUMP JUMPDEST SWAP3 POP DUP3 DUP3 SUB SWAP1 POP DUP2 DUP2 GT ISZERO PUSH2 0x502 JUMPI PUSH2 0x501 PUSH2 0x4A8 JUMP JUMPDEST JUMPDEST SWAP3 SWAP2 POP POP JUMP JUMPDEST PUSH32 0x4E487B7100000000000000000000000000000000000000000000000000000000 PUSH0 MSTORE PUSH1 0x32 PUSH1 0x4 MSTORE PUSH1 0x24 PUSH0 REVERT JUMPDEST PUSH32 0x4E487B7100000000000000000000000000000000000000000000000000000000 PUSH0 MSTORE PUSH1 0x12 PUSH1 0x4 MSTORE PUSH1 0x24 PUSH0 REVERT JUMPDEST PUSH0 PUSH2 0x56C DUP3 PUSH2 0x1EC JUMP JUMPDEST SWAP2 POP PUSH2 0x577 DUP4 PUSH2 0x1EC JUMP JUMPDEST SWAP3 POP DUP3 PUSH2 0x587 JUMPI PUSH2 0x586 PUSH2 0x535 JUMP JUMPDEST JUMPDEST DUP3 DUP3 MOD SWAP1 POP SWAP3 SWAP2 POP POP JUMP JUMPDEST PUSH0 DUP2 SWAP1 POP SWAP2 SWAP1 POP JUMP JUMPDEST PUSH2 0x5AC PUSH2 0x5A7 DUP3 PUSH2 0x24A JUMP JUMPDEST PUSH2 0x592 JUMP JUMPDEST DUP3 MSTORE POP POP JUMP JUMPDEST PUSH0 PUSH2 0x5BD DUP3 DUP6 PUSH2 0x59B JUMP JUMPDEST PUSH1 0x20 DUP3 ADD SWAP2 POP PUSH2 0x5CD DUP3 DUP5 PUSH2 0x59B JUMP JUMPDEST PUSH1 0x20 DUP3 ADD SWAP2 POP DUP2 SWAP1 POP SWAP4 SWAP3 POP POP POP JUMP JUMPDEST PUSH0 PUSH2 0x5E7 DUP3 PUSH2 0x1EC JUMP JUMPDEST SWAP2 POP PUSH2 0x5F2 DUP4 PUSH2 0x1EC JUMP JUMPDEST SWAP3 POP DUP3 PUSH2 0x602 JUMPI PUSH2 0x601 PUSH2 0x535 JUMP JUMPDEST JUMPDEST DUP3 DUP3 DIV SWAP1 POP SWAP3 SWAP2 POP POP JUMP INVALID LOG2 PUSH5 0x6970667358 0x22 SLT KECCAK256 SSTORE ISZERO PUSH14 0xD5343B400B1568CED24E95F1DAA5 PUSH25 0x6A76CC76297823F370D2A2B521FF64736F6C634300081A0033 "
				},
				"gasEstimates": {
					"creation": {
						"codeDepositCost": "320600",
						"executionCost": "infinite",
						"totalCost": "infinite"
					},
					"external": {
						"getRoot()": "infinite",
						"hashes(uint256)": "4848",
						"verify(bytes32,bytes32,uint256,bytes32[])": "infinite"
					}
				},
				"methodIdentifiers": {
					"getRoot()": "5ca1e165",
					"hashes(uint256)": "501895ae",
					"verify(bytes32,bytes32,uint256,bytes32[])": "9f49493b"
				}
			},
			"storageLayout": {
				"storage": [
					{
						"astId": 5,
						"contract": "merkletree/Tree.sol:Tree",
						"label": "hashes",
						"offset": 0,
						"slot": "0",
						"type": "t_array(t_bytes32)dyn_storage"
					},
					{
						"astId": 14,
						"contract": "merkletree/Tree.sol:Tree",
						"label": "heroes",
						"offset": 0,
						"slot": "1",
						"type": "t_array(t_string_storage)4_storage"
					}
				],
				"types": {
					"t_array(t_bytes32)dyn_storage": {
						"base": "t_bytes32",
						"encoding": "dynamic_array",
						"label": "bytes32[]",
						"numberOfBytes": "32"
					},
					"t_array(t_string_storage)4_storage": {
						"base": "t_string_storage",
						"encoding": "inplace",
						"label": "string[4]",
						"numberOfBytes": "128"
					},
					"t_bytes32": {
						"encoding": "inplace",
						"label": "bytes32",
						"numberOfBytes": "32"
					},
					"t_string_storage": {
						"encoding": "bytes",
						"label": "string",
						"numberOfBytes": "32"
					}
				}
			},
			"userdoc": {
				"kind": "user",
				"methods": {
					"getRoot()": {
						"notice": "получить"
					},
					"verify(bytes32,bytes32,uint256,bytes32[])": {
						"notice": "проверка что указанный хеш есть в дереве"
					}
				},
				"notice": "Sherlock + John + Mary + Lestrade 6 Sherlock + John   Mary + Lestrade 4              5 Sherlock    John    Mary    Lestrade 0         1      2         3",
				"version": 1
			}
		}
	}
}